{
	"src/gho/GhoToken.sol": {
		"GhoToken": {
			"abi": [
				{
					"inputs": [
						{
							"internalType": "address",
							"name": "admin",
							"type": "address"
						}
					],
					"stateMutability": "nonpayable",
					"type": "constructor"
				},
				{
					"inputs": [],
					"name": "AccessControlBadConfirmation",
					"type": "error"
				},
				{
					"inputs": [
						{
							"internalType": "address",
							"name": "account",
							"type": "address"
						},
						{
							"internalType": "bytes32",
							"name": "neededRole",
							"type": "bytes32"
						}
					],
					"name": "AccessControlUnauthorizedAccount",
					"type": "error"
				},
				{
					"anonymous": false,
					"inputs": [
						{
							"indexed": true,
							"internalType": "address",
							"name": "owner",
							"type": "address"
						},
						{
							"indexed": true,
							"internalType": "address",
							"name": "spender",
							"type": "address"
						},
						{
							"indexed": false,
							"internalType": "uint256",
							"name": "value",
							"type": "uint256"
						}
					],
					"name": "Approval",
					"type": "event"
				},
				{
					"anonymous": false,
					"inputs": [
						{
							"indexed": true,
							"internalType": "address",
							"name": "facilitatorAddress",
							"type": "address"
						},
						{
							"indexed": true,
							"internalType": "bytes32",
							"name": "label",
							"type": "bytes32"
						},
						{
							"indexed": false,
							"internalType": "uint256",
							"name": "bucketCapacity",
							"type": "uint256"
						}
					],
					"name": "FacilitatorAdded",
					"type": "event"
				},
				{
					"anonymous": false,
					"inputs": [
						{
							"indexed": true,
							"internalType": "address",
							"name": "facilitatorAddress",
							"type": "address"
						},
						{
							"indexed": false,
							"internalType": "uint256",
							"name": "oldCapacity",
							"type": "uint256"
						},
						{
							"indexed": false,
							"internalType": "uint256",
							"name": "newCapacity",
							"type": "uint256"
						}
					],
					"name": "FacilitatorBucketCapacityUpdated",
					"type": "event"
				},
				{
					"anonymous": false,
					"inputs": [
						{
							"indexed": true,
							"internalType": "address",
							"name": "facilitatorAddress",
							"type": "address"
						},
						{
							"indexed": false,
							"internalType": "uint256",
							"name": "oldLevel",
							"type": "uint256"
						},
						{
							"indexed": false,
							"internalType": "uint256",
							"name": "newLevel",
							"type": "uint256"
						}
					],
					"name": "FacilitatorBucketLevelUpdated",
					"type": "event"
				},
				{
					"anonymous": false,
					"inputs": [
						{
							"indexed": true,
							"internalType": "address",
							"name": "facilitatorAddress",
							"type": "address"
						}
					],
					"name": "FacilitatorRemoved",
					"type": "event"
				},
				{
					"anonymous": false,
					"inputs": [
						{
							"indexed": true,
							"internalType": "bytes32",
							"name": "role",
							"type": "bytes32"
						},
						{
							"indexed": true,
							"internalType": "bytes32",
							"name": "previousAdminRole",
							"type": "bytes32"
						},
						{
							"indexed": true,
							"internalType": "bytes32",
							"name": "newAdminRole",
							"type": "bytes32"
						}
					],
					"name": "RoleAdminChanged",
					"type": "event"
				},
				{
					"anonymous": false,
					"inputs": [
						{
							"indexed": true,
							"internalType": "bytes32",
							"name": "role",
							"type": "bytes32"
						},
						{
							"indexed": true,
							"internalType": "address",
							"name": "account",
							"type": "address"
						},
						{
							"indexed": true,
							"internalType": "address",
							"name": "sender",
							"type": "address"
						}
					],
					"name": "RoleGranted",
					"type": "event"
				},
				{
					"anonymous": false,
					"inputs": [
						{
							"indexed": true,
							"internalType": "bytes32",
							"name": "role",
							"type": "bytes32"
						},
						{
							"indexed": true,
							"internalType": "address",
							"name": "account",
							"type": "address"
						},
						{
							"indexed": true,
							"internalType": "address",
							"name": "sender",
							"type": "address"
						}
					],
					"name": "RoleRevoked",
					"type": "event"
				},
				{
					"anonymous": false,
					"inputs": [
						{
							"indexed": true,
							"internalType": "address",
							"name": "from",
							"type": "address"
						},
						{
							"indexed": true,
							"internalType": "address",
							"name": "to",
							"type": "address"
						},
						{
							"indexed": false,
							"internalType": "uint256",
							"name": "value",
							"type": "uint256"
						}
					],
					"name": "Transfer",
					"type": "event"
				},
				{
					"inputs": [],
					"name": "BUCKET_MANAGER_ROLE",
					"outputs": [
						{
							"internalType": "bytes32",
							"name": "",
							"type": "bytes32"
						}
					],
					"stateMutability": "view",
					"type": "function"
				},
				{
					"inputs": [],
					"name": "DEFAULT_ADMIN_ROLE",
					"outputs": [
						{
							"internalType": "bytes32",
							"name": "",
							"type": "bytes32"
						}
					],
					"stateMutability": "view",
					"type": "function"
				},
				{
					"inputs": [],
					"name": "DOMAIN_SEPARATOR",
					"outputs": [
						{
							"internalType": "bytes32",
							"name": "",
							"type": "bytes32"
						}
					],
					"stateMutability": "view",
					"type": "function"
				},
				{
					"inputs": [],
					"name": "FACILITATOR_MANAGER_ROLE",
					"outputs": [
						{
							"internalType": "bytes32",
							"name": "",
							"type": "bytes32"
						}
					],
					"stateMutability": "view",
					"type": "function"
				},
				{
					"inputs": [],
					"name": "PERMIT_TYPEHASH",
					"outputs": [
						{
							"internalType": "bytes32",
							"name": "",
							"type": "bytes32"
						}
					],
					"stateMutability": "view",
					"type": "function"
				},
				{
					"inputs": [
						{
							"internalType": "address",
							"name": "facilitatorAddress",
							"type": "address"
						},
						{
							"internalType": "string",
							"name": "facilitatorLabel",
							"type": "string"
						},
						{
							"internalType": "uint128",
							"name": "bucketCapacity",
							"type": "uint128"
						}
					],
					"name": "addFacilitator",
					"outputs": [],
					"stateMutability": "nonpayable",
					"type": "function"
				},
				{
					"inputs": [
						{
							"internalType": "address",
							"name": "",
							"type": "address"
						},
						{
							"internalType": "address",
							"name": "",
							"type": "address"
						}
					],
					"name": "allowance",
					"outputs": [
						{
							"internalType": "uint256",
							"name": "",
							"type": "uint256"
						}
					],
					"stateMutability": "view",
					"type": "function"
				},
				{
					"inputs": [
						{
							"internalType": "address",
							"name": "spender",
							"type": "address"
						},
						{
							"internalType": "uint256",
							"name": "amount",
							"type": "uint256"
						}
					],
					"name": "approve",
					"outputs": [
						{
							"internalType": "bool",
							"name": "",
							"type": "bool"
						}
					],
					"stateMutability": "nonpayable",
					"type": "function"
				},
				{
					"inputs": [
						{
							"internalType": "address",
							"name": "",
							"type": "address"
						}
					],
					"name": "balanceOf",
					"outputs": [
						{
							"internalType": "uint256",
							"name": "",
							"type": "uint256"
						}
					],
					"stateMutability": "view",
					"type": "function"
				},
				{
					"inputs": [
						{
							"internalType": "uint256",
							"name": "amount",
							"type": "uint256"
						}
					],
					"name": "burn",
					"outputs": [],
					"stateMutability": "nonpayable",
					"type": "function"
				},
				{
					"inputs": [],
					"name": "decimals",
					"outputs": [
						{
							"internalType": "uint8",
							"name": "",
							"type": "uint8"
						}
					],
					"stateMutability": "view",
					"type": "function"
				},
				{
					"inputs": [
						{
							"internalType": "address",
							"name": "facilitator",
							"type": "address"
						}
					],
					"name": "getFacilitator",
					"outputs": [
						{
							"components": [
								{
									"internalType": "uint128",
									"name": "bucketCapacity",
									"type": "uint128"
								},
								{
									"internalType": "uint128",
									"name": "bucketLevel",
									"type": "uint128"
								},
								{
									"internalType": "string",
									"name": "label",
									"type": "string"
								}
							],
							"internalType": "struct IGhoToken.Facilitator",
							"name": "",
							"type": "tuple"
						}
					],
					"stateMutability": "view",
					"type": "function"
				},
				{
					"inputs": [
						{
							"internalType": "address",
							"name": "facilitator",
							"type": "address"
						}
					],
					"name": "getFacilitatorBucket",
					"outputs": [
						{
							"internalType": "uint256",
							"name": "",
							"type": "uint256"
						},
						{
							"internalType": "uint256",
							"name": "",
							"type": "uint256"
						}
					],
					"stateMutability": "view",
					"type": "function"
				},
				{
					"inputs": [],
					"name": "getFacilitatorsList",
					"outputs": [
						{
							"internalType": "address[]",
							"name": "",
							"type": "address[]"
						}
					],
					"stateMutability": "view",
					"type": "function"
				},
				{
					"inputs": [
						{
							"internalType": "bytes32",
							"name": "role",
							"type": "bytes32"
						}
					],
					"name": "getRoleAdmin",
					"outputs": [
						{
							"internalType": "bytes32",
							"name": "",
							"type": "bytes32"
						}
					],
					"stateMutability": "view",
					"type": "function"
				},
				{
					"inputs": [
						{
							"internalType": "bytes32",
							"name": "role",
							"type": "bytes32"
						},
						{
							"internalType": "address",
							"name": "account",
							"type": "address"
						}
					],
					"name": "grantRole",
					"outputs": [],
					"stateMutability": "nonpayable",
					"type": "function"
				},
				{
					"inputs": [
						{
							"internalType": "bytes32",
							"name": "role",
							"type": "bytes32"
						},
						{
							"internalType": "address",
							"name": "account",
							"type": "address"
						}
					],
					"name": "hasRole",
					"outputs": [
						{
							"internalType": "bool",
							"name": "",
							"type": "bool"
						}
					],
					"stateMutability": "view",
					"type": "function"
				},
				{
					"inputs": [
						{
							"internalType": "address",
							"name": "account",
							"type": "address"
						},
						{
							"internalType": "uint256",
							"name": "amount",
							"type": "uint256"
						}
					],
					"name": "mint",
					"outputs": [],
					"stateMutability": "nonpayable",
					"type": "function"
				},
				{
					"inputs": [],
					"name": "name",
					"outputs": [
						{
							"internalType": "string",
							"name": "",
							"type": "string"
						}
					],
					"stateMutability": "view",
					"type": "function"
				},
				{
					"inputs": [
						{
							"internalType": "address",
							"name": "",
							"type": "address"
						}
					],
					"name": "nonces",
					"outputs": [
						{
							"internalType": "uint256",
							"name": "",
							"type": "uint256"
						}
					],
					"stateMutability": "view",
					"type": "function"
				},
				{
					"inputs": [
						{
							"internalType": "address",
							"name": "owner",
							"type": "address"
						},
						{
							"internalType": "address",
							"name": "spender",
							"type": "address"
						},
						{
							"internalType": "uint256",
							"name": "value",
							"type": "uint256"
						},
						{
							"internalType": "uint256",
							"name": "deadline",
							"type": "uint256"
						},
						{
							"internalType": "uint8",
							"name": "v",
							"type": "uint8"
						},
						{
							"internalType": "bytes32",
							"name": "r",
							"type": "bytes32"
						},
						{
							"internalType": "bytes32",
							"name": "s",
							"type": "bytes32"
						}
					],
					"name": "permit",
					"outputs": [],
					"stateMutability": "nonpayable",
					"type": "function"
				},
				{
					"inputs": [
						{
							"internalType": "address",
							"name": "facilitatorAddress",
							"type": "address"
						}
					],
					"name": "removeFacilitator",
					"outputs": [],
					"stateMutability": "nonpayable",
					"type": "function"
				},
				{
					"inputs": [
						{
							"internalType": "bytes32",
							"name": "role",
							"type": "bytes32"
						},
						{
							"internalType": "address",
							"name": "callerConfirmation",
							"type": "address"
						}
					],
					"name": "renounceRole",
					"outputs": [],
					"stateMutability": "nonpayable",
					"type": "function"
				},
				{
					"inputs": [
						{
							"internalType": "bytes32",
							"name": "role",
							"type": "bytes32"
						},
						{
							"internalType": "address",
							"name": "account",
							"type": "address"
						}
					],
					"name": "revokeRole",
					"outputs": [],
					"stateMutability": "nonpayable",
					"type": "function"
				},
				{
					"inputs": [
						{
							"internalType": "address",
							"name": "facilitator",
							"type": "address"
						},
						{
							"internalType": "uint128",
							"name": "newCapacity",
							"type": "uint128"
						}
					],
					"name": "setFacilitatorBucketCapacity",
					"outputs": [],
					"stateMutability": "nonpayable",
					"type": "function"
				},
				{
					"inputs": [
						{
							"internalType": "bytes4",
							"name": "interfaceId",
							"type": "bytes4"
						}
					],
					"name": "supportsInterface",
					"outputs": [
						{
							"internalType": "bool",
							"name": "",
							"type": "bool"
						}
					],
					"stateMutability": "view",
					"type": "function"
				},
				{
					"inputs": [],
					"name": "symbol",
					"outputs": [
						{
							"internalType": "string",
							"name": "",
							"type": "string"
						}
					],
					"stateMutability": "view",
					"type": "function"
				},
				{
					"inputs": [],
					"name": "totalSupply",
					"outputs": [
						{
							"internalType": "uint256",
							"name": "",
							"type": "uint256"
						}
					],
					"stateMutability": "view",
					"type": "function"
				},
				{
					"inputs": [
						{
							"internalType": "address",
							"name": "to",
							"type": "address"
						},
						{
							"internalType": "uint256",
							"name": "amount",
							"type": "uint256"
						}
					],
					"name": "transfer",
					"outputs": [
						{
							"internalType": "bool",
							"name": "",
							"type": "bool"
						}
					],
					"stateMutability": "nonpayable",
					"type": "function"
				},
				{
					"inputs": [
						{
							"internalType": "address",
							"name": "from",
							"type": "address"
						},
						{
							"internalType": "address",
							"name": "to",
							"type": "address"
						},
						{
							"internalType": "uint256",
							"name": "amount",
							"type": "uint256"
						}
					],
					"name": "transferFrom",
					"outputs": [
						{
							"internalType": "bool",
							"name": "",
							"type": "bool"
						}
					],
					"stateMutability": "nonpayable",
					"type": "function"
				}
			],
			"devdoc": {
				"author": "Aave",
				"errors": {
					"AccessControlBadConfirmation()": [
						{
							"details": "The caller of a function is not the expected one. NOTE: Don't confuse with {AccessControlUnauthorizedAccount}."
						}
					],
					"AccessControlUnauthorizedAccount(address,bytes32)": [
						{
							"details": "The `account` is missing a role."
						}
					]
				},
				"events": {
					"Approval(address,address,uint256)": {
						"details": "Emitted when the allowance of a `spender` for an `owner` is set by a call to {approve}. `value` is the new allowance."
					},
					"FacilitatorAdded(address,bytes32,uint256)": {
						"details": "Emitted when a new facilitator is added",
						"params": {
							"bucketCapacity": "The initial capacity of the facilitator's bucket",
							"facilitatorAddress": "The address of the new facilitator",
							"label": "A hashed human readable identifier for the facilitator"
						}
					},
					"FacilitatorBucketCapacityUpdated(address,uint256,uint256)": {
						"details": "Emitted when the bucket capacity of a facilitator is updated",
						"params": {
							"facilitatorAddress": "The address of the facilitator whose bucket capacity is being changed",
							"newCapacity": "The new capacity of the bucket",
							"oldCapacity": "The old capacity of the bucket"
						}
					},
					"FacilitatorBucketLevelUpdated(address,uint256,uint256)": {
						"details": "Emitted when the bucket level changed",
						"params": {
							"facilitatorAddress": "The address of the facilitator whose bucket level is being changed",
							"newLevel": "The new level of the bucket",
							"oldLevel": "The old level of the bucket"
						}
					},
					"FacilitatorRemoved(address)": {
						"details": "Emitted when a facilitator is removed",
						"params": {
							"facilitatorAddress": "The address of the removed facilitator"
						}
					},
					"RoleAdminChanged(bytes32,bytes32,bytes32)": {
						"details": "Emitted when `newAdminRole` is set as ``role``'s admin role, replacing `previousAdminRole` `DEFAULT_ADMIN_ROLE` is the starting admin for all roles, despite {RoleAdminChanged} not being emitted signaling this."
					},
					"RoleGranted(bytes32,address,address)": {
						"details": "Emitted when `account` is granted `role`. `sender` is the account that originated the contract call, an admin role bearer except when using {AccessControl-_setupRole}."
					},
					"RoleRevoked(bytes32,address,address)": {
						"details": "Emitted when `account` is revoked `role`. `sender` is the account that originated the contract call:   - if using `revokeRole`, it is the admin role bearer   - if using `renounceRole`, it is the role bearer (i.e. `account`)"
					},
					"Transfer(address,address,uint256)": {
						"details": "Emitted when `value` tokens are moved from one account (`from`) to another (`to`). Note that `value` may be zero."
					}
				},
				"kind": "dev",
				"methods": {
					"addFacilitator(address,string,uint128)": {
						"details": "Only accounts with `FACILITATOR_MANAGER_ROLE` role can call this function",
						"params": {
							"bucketCapacity": "The upward limit of GHO can be minted by the facilitator",
							"facilitatorAddress": "The address of the facilitator to add",
							"facilitatorLabel": "A human readable identifier for the facilitator"
						}
					},
					"burn(uint256)": {
						"details": "Only active facilitators (bucket level > 0) can burn.The bucket level is decreased upon burning.",
						"params": {
							"amount": "The amount to burn"
						}
					},
					"constructor": {
						"details": "Constructor",
						"params": {
							"admin": "This is the initial holder of the default admin role"
						}
					},
					"getFacilitator(address)": {
						"params": {
							"facilitator": "The address of the facilitator"
						},
						"returns": {
							"_0": "The facilitator configuration"
						}
					},
					"getFacilitatorBucket(address)": {
						"params": {
							"facilitator": "The address of the facilitator"
						},
						"returns": {
							"_0": "The capacity of the facilitator's bucket",
							"_1": "The level of the facilitator's bucket"
						}
					},
					"getFacilitatorsList()": {
						"returns": {
							"_0": "The list of the facilitators addresses"
						}
					},
					"getRoleAdmin(bytes32)": {
						"details": "Returns the admin role that controls `role`. See {grantRole} and {revokeRole}. To change a role's admin, use {_setRoleAdmin}."
					},
					"grantRole(bytes32,address)": {
						"details": "Grants `role` to `account`. If `account` had not been already granted `role`, emits a {RoleGranted} event. Requirements: - the caller must have ``role``'s admin role. May emit a {RoleGranted} event."
					},
					"hasRole(bytes32,address)": {
						"details": "Returns `true` if `account` has been granted `role`."
					},
					"mint(address,uint256)": {
						"details": "Only facilitators with enough bucket capacity available can mint.The bucket level is increased upon minting.",
						"params": {
							"account": "The address receiving the GHO tokens",
							"amount": "The amount to mint"
						}
					},
					"removeFacilitator(address)": {
						"details": "Only accounts with `FACILITATOR_MANAGER_ROLE` role can call this function",
						"params": {
							"facilitatorAddress": "The address of the facilitator to remove"
						}
					},
					"renounceRole(bytes32,address)": {
						"details": "Revokes `role` from the calling account. Roles are often managed via {grantRole} and {revokeRole}: this function's purpose is to provide a mechanism for accounts to lose their privileges if they are compromised (such as when a trusted device is misplaced). If the calling account had been revoked `role`, emits a {RoleRevoked} event. Requirements: - the caller must be `callerConfirmation`. May emit a {RoleRevoked} event."
					},
					"revokeRole(bytes32,address)": {
						"details": "Revokes `role` from `account`. If `account` had been granted `role`, emits a {RoleRevoked} event. Requirements: - the caller must have ``role``'s admin role. May emit a {RoleRevoked} event."
					},
					"setFacilitatorBucketCapacity(address,uint128)": {
						"details": "Only accounts with `BUCKET_MANAGER_ROLE` role can call this function",
						"params": {
							"facilitator": "The address of the facilitator",
							"newCapacity": "The new capacity of the bucket"
						}
					},
					"supportsInterface(bytes4)": {
						"details": "See {IERC165-supportsInterface}."
					}
				},
				"stateVariables": {
					"BUCKET_MANAGER_ROLE": {
						"return": "The bytes32 id hash of the BucketManager role",
						"returns": {
							"_0": "The bytes32 id hash of the BucketManager role"
						}
					},
					"FACILITATOR_MANAGER_ROLE": {
						"return": "The bytes32 id hash of the FacilitatorManager role",
						"returns": {
							"_0": "The bytes32 id hash of the FacilitatorManager role"
						}
					}
				},
				"title": "GHO Token",
				"version": 1
			},
			"evm": {
				"assembly": "    /* \"src/gho/GhoToken.sol\":358:4280  contract GhoToken is ERC20, AccessControl, IGhoToken {... */\n  mstore(0x40, 0xe0)\n    /* \"src/gho/GhoToken.sol\":919:1024  constructor(address admin) ERC20('Gho Token', 'GHO', 18) {... */\n  callvalue\n  dup1\n  iszero\n  tag_1\n  jumpi\n  0x00\n  dup1\n  revert\ntag_1:\n  pop\n  mload(0x40)\n  sub(codesize, bytecodeSize)\n  dup1\n  bytecodeSize\n  dup4\n  codecopy\n  dup2\n  add\n  0x40\n  dup2\n  swap1\n  mstore\n  tag_2\n  swap2\n  tag_3\n  jump\t// in\ntag_2:\n    /* \"src/gho/ERC20.sol\":1662:1902  constructor(string memory _name, string memory _symbol, uint8 _decimals) {... */\n  mload(0x40)\n  dup1\n  0x40\n  add\n  0x40\n  mstore\n  dup1\n  0x09\n  dup2\n  mstore\n  0x20\n  add\n  shl(0xb9, 0x23b437902a37b5b2b7)\n  dup2\n  mstore\n  pop\n  mload(0x40)\n  dup1\n  0x40\n  add\n  0x40\n  mstore\n  dup1\n  0x03\n  dup2\n  mstore\n  0x20\n  add\n  shl(0xe8, 0x47484f)\n  dup2\n  mstore\n  pop\n    /* \"src/gho/GhoToken.sol\":972:974  18 */\n  0x12\n    /* \"src/gho/ERC20.sol\":1748:1753  _name */\n  dup3\n    /* \"src/gho/ERC20.sol\":1741:1745  name */\n  0x00\n    /* \"src/gho/ERC20.sol\":1741:1753  name = _name */\n  swap1\n  dup2\n  tag_7\n  swap2\n  swap1\n  tag_8\n  jump\t// in\ntag_7:\n  pop\n    /* \"src/gho/ERC20.sol\":1759:1765  symbol */\n  0x01\n    /* \"src/gho/ERC20.sol\":1759:1775  symbol = _symbol */\n  tag_9\n    /* \"src/gho/ERC20.sol\":1768:1775  _symbol */\n  dup4\n    /* \"src/gho/ERC20.sol\":1759:1765  symbol */\n  dup3\n    /* \"src/gho/ERC20.sol\":1759:1775  symbol = _symbol */\n  tag_8\n  jump\t// in\ntag_9:\n  pop\n    /* \"src/gho/ERC20.sol\":1781:1801  decimals = _decimals */\n  0xff\n  dup2\n  and\n  0x80\n  mstore\n    /* \"src/gho/ERC20.sol\":1827:1840  block.chainid */\n  chainid\n    /* \"src/gho/ERC20.sol\":1808:1840  INITIAL_CHAIN_ID = block.chainid */\n  0xa0\n  mstore\n    /* \"src/gho/ERC20.sol\":1873:1897  computeDomainSeparator() */\n  tag_10\n    /* \"src/gho/ERC20.sol\":1873:1895  computeDomainSeparator */\n  tag_11\n    /* \"src/gho/ERC20.sol\":1873:1897  computeDomainSeparator() */\n  jump\t// in\ntag_10:\n    /* \"src/gho/ERC20.sol\":1846:1897  INITIAL_DOMAIN_SEPARATOR = computeDomainSeparator() */\n  0xc0\n  mstore\n  pop\n    /* \"src/gho/GhoToken.sol\":982:1019  _grantRole(DEFAULT_ADMIN_ROLE, admin) */\n  tag_13\n  swap2\n  pop\n    /* \"lib/openzeppelin-contracts/contracts/access/AccessControl.sol\":2232:2236  0x00 */\n  0x00\n  swap1\n  pop\n    /* \"src/gho/GhoToken.sol\":1013:1018  admin */\n  dup3\n    /* \"src/gho/GhoToken.sol\":982:992  _grantRole */\n  tag_14\n    /* \"src/gho/GhoToken.sol\":982:1019  _grantRole(DEFAULT_ADMIN_ROLE, admin) */\n  jump\t// in\ntag_13:\n  pop\n    /* \"src/gho/GhoToken.sol\":919:1024  constructor(address admin) ERC20('Gho Token', 'GHO', 18) {... */\n  pop\n    /* \"src/gho/GhoToken.sol\":358:4280  contract GhoToken is ERC20, AccessControl, IGhoToken {... */\n  jump(tag_35)\n    /* \"src/gho/ERC20.sol\":4373:4759  function computeDomainSeparator() internal view virtual returns (bytes32) {... */\ntag_11:\n    /* \"src/gho/ERC20.sol\":4438:4445  bytes32 */\n  0x00\n    /* \"src/gho/ERC20.sol\":4507:4626  keccak256(... */\n  0x8b73c3c69bb8fe3d512ecc4cf759cc79239f7b179b0ffacaa9a75d522b39400f\n    /* \"src/gho/ERC20.sol\":4654:4658  name */\n  0x00\n    /* \"src/gho/ERC20.sol\":4638:4660  keccak256(bytes(name)) */\n  mload(0x40)\n  tag_17\n  swap2\n  swap1\n  tag_18\n  jump\t// in\ntag_17:\n  0x40\n  dup1\n  mload\n  swap2\n  dup3\n  swap1\n  sub\n  dup3\n  keccak256\n    /* \"src/gho/ERC20.sol\":4485:4746  abi.encode(... */\n  0x20\n  dup4\n  add\n    /* \"#utility.yul\":4105:4130   */\n  swap4\n  swap1\n  swap4\n  mstore\n    /* \"#utility.yul\":4146:4164   */\n  dup2\n  add\n    /* \"#utility.yul\":4139:4173   */\n  swap2\n  swap1\n  swap2\n  mstore\n    /* \"src/gho/ERC20.sol\":4672:4686  keccak256('1') */\n  0xc89efdaa54c0f20c7adf612882df0950f5a951637e0307cdcb4c672f298b8bc6\n    /* \"#utility.yul\":4189:4207   */\n  0x60\n  dup3\n  add\n    /* \"#utility.yul\":4182:4216   */\n  mstore\n    /* \"src/gho/ERC20.sol\":4698:4711  block.chainid */\n  chainid\n    /* \"#utility.yul\":4232:4250   */\n  0x80\n  dup3\n  add\n    /* \"#utility.yul\":4225:4259   */\n  mstore\n    /* \"src/gho/ERC20.sol\":4731:4735  this */\n  address\n    /* \"#utility.yul\":4275:4294   */\n  0xa0\n  dup3\n  add\n    /* \"#utility.yul\":4268:4329   */\n  mstore\n    /* \"#utility.yul\":4077:4096   */\n  0xc0\n  add\n    /* \"src/gho/ERC20.sol\":4485:4746  abi.encode(... */\n  mload(0x40)\n  0x20\n  dup2\n  dup4\n  sub\n  sub\n  dup2\n  mstore\n  swap1\n  0x40\n  mstore\n    /* \"src/gho/ERC20.sol\":4466:4754  keccak256(... */\n  dup1\n  mload\n  swap1\n  0x20\n  add\n  keccak256\n    /* \"src/gho/ERC20.sol\":4453:4754  return... */\n  swap1\n  pop\n    /* \"src/gho/ERC20.sol\":4373:4759  function computeDomainSeparator() internal view virtual returns (bytes32) {... */\n  swap1\n  jump\t// out\n    /* \"lib/openzeppelin-contracts/contracts/access/AccessControl.sol\":6179:6495  function _grantRole(bytes32 role, address account) internal virtual returns (bool) {... */\ntag_14:\n    /* \"lib/openzeppelin-contracts/contracts/access/AccessControl.sol\":6256:6260  bool */\n  0x00\n    /* \"lib/openzeppelin-contracts/contracts/access/AccessControl.sol\":2954:2966  _roles[role] */\n  dup3\n  dup2\n  mstore\n    /* \"lib/openzeppelin-contracts/contracts/access/AccessControl.sol\":2954:2960  _roles */\n  0x06\n    /* \"lib/openzeppelin-contracts/contracts/access/AccessControl.sol\":2954:2966  _roles[role] */\n  0x20\n  swap1\n  dup2\n  mstore\n  0x40\n  dup1\n  dup4\n  keccak256\n  sub(shl(0xa0, 0x01), 0x01)\n    /* \"lib/openzeppelin-contracts/contracts/access/AccessControl.sol\":2954:2983  _roles[role].hasRole[account] */\n  dup6\n  and\n  dup5\n  mstore\n  swap1\n  swap2\n  mstore\n  dup2\n  keccak256\n  sload\n  0xff\n  and\n    /* \"lib/openzeppelin-contracts/contracts/access/AccessControl.sol\":6272:6489  if (!hasRole(role, account)) {... */\n  tag_24\n  jumpi\n    /* \"lib/openzeppelin-contracts/contracts/access/AccessControl.sol\":6315:6327  _roles[role] */\n  0x00\n  dup4\n  dup2\n  mstore\n    /* \"lib/openzeppelin-contracts/contracts/access/AccessControl.sol\":6315:6321  _roles */\n  0x06\n    /* \"lib/openzeppelin-contracts/contracts/access/AccessControl.sol\":6315:6327  _roles[role] */\n  0x20\n  swap1\n  dup2\n  mstore\n  0x40\n  dup1\n  dup4\n  keccak256\n  sub(shl(0xa0, 0x01), 0x01)\n    /* \"lib/openzeppelin-contracts/contracts/access/AccessControl.sol\":6315:6344  _roles[role].hasRole[account] */\n  dup7\n  and\n  dup5\n  mstore\n  swap1\n  swap2\n  mstore\n  swap1\n  keccak256\n    /* \"lib/openzeppelin-contracts/contracts/access/AccessControl.sol\":6315:6351  _roles[role].hasRole[account] = true */\n  dup1\n  sload\n  not(0xff)\n  and\n    /* \"lib/openzeppelin-contracts/contracts/access/AccessControl.sol\":6347:6351  true */\n  0x01\n    /* \"lib/openzeppelin-contracts/contracts/access/AccessControl.sol\":6315:6351  _roles[role].hasRole[account] = true */\n  or\n  swap1\n  sstore\n    /* \"lib/openzeppelin-contracts/contracts/access/AccessControl.sol\":6397:6409  _msgSender() */\n  tag_25\n    /* \"lib/openzeppelin-contracts/contracts/utils/Context.sol\":735:745  msg.sender */\n  caller\n  swap1\n    /* \"lib/openzeppelin-contracts/contracts/utils/Context.sol\":656:752  function _msgSender() internal view virtual returns (address) {... */\n  jump\n    /* \"lib/openzeppelin-contracts/contracts/access/AccessControl.sol\":6397:6409  _msgSender() */\ntag_25:\n  sub(shl(0xa0, 0x01), 0x01)\n    /* \"lib/openzeppelin-contracts/contracts/access/AccessControl.sol\":6370:6410  RoleGranted(role, account, _msgSender()) */\n  and\n    /* \"lib/openzeppelin-contracts/contracts/access/AccessControl.sol\":6388:6395  account */\n  dup3\n  sub(shl(0xa0, 0x01), 0x01)\n    /* \"lib/openzeppelin-contracts/contracts/access/AccessControl.sol\":6370:6410  RoleGranted(role, account, _msgSender()) */\n  and\n    /* \"lib/openzeppelin-contracts/contracts/access/AccessControl.sol\":6382:6386  role */\n  dup5\n    /* \"lib/openzeppelin-contracts/contracts/access/AccessControl.sol\":6370:6410  RoleGranted(role, account, _msgSender()) */\n  0x2f8788117e7eff1d82e926ec794901d17c78024a50270940304540a733656f0d\n  mload(0x40)\n  mload(0x40)\n  dup1\n  swap2\n  sub\n  swap1\n  log4\n  pop\n    /* \"lib/openzeppelin-contracts/contracts/access/AccessControl.sol\":6431:6435  true */\n  0x01\n    /* \"lib/openzeppelin-contracts/contracts/access/AccessControl.sol\":6424:6435  return true */\n  jump(tag_27)\n    /* \"lib/openzeppelin-contracts/contracts/access/AccessControl.sol\":6272:6489  if (!hasRole(role, account)) {... */\ntag_24:\n  pop\n    /* \"lib/openzeppelin-contracts/contracts/access/AccessControl.sol\":6473:6478  false */\n  0x00\n    /* \"lib/openzeppelin-contracts/contracts/access/AccessControl.sol\":6272:6489  if (!hasRole(role, account)) {... */\ntag_27:\n    /* \"lib/openzeppelin-contracts/contracts/access/AccessControl.sol\":6179:6495  function _grantRole(bytes32 role, address account) internal virtual returns (bool) {... */\n  swap3\n  swap2\n  pop\n  pop\n  jump\t// out\n    /* \"#utility.yul\":14:304   */\ntag_3:\n    /* \"#utility.yul\":84:90   */\n  0x00\n    /* \"#utility.yul\":137:139   */\n  0x20\n    /* \"#utility.yul\":125:134   */\n  dup3\n    /* \"#utility.yul\":116:123   */\n  dup5\n    /* \"#utility.yul\":112:135   */\n  sub\n    /* \"#utility.yul\":108:140   */\n  slt\n    /* \"#utility.yul\":105:157   */\n  iszero\n  tag_37\n  jumpi\n    /* \"#utility.yul\":153:154   */\n  0x00\n    /* \"#utility.yul\":150:151   */\n  dup1\n    /* \"#utility.yul\":143:155   */\n  revert\n    /* \"#utility.yul\":105:157   */\ntag_37:\n    /* \"#utility.yul\":179:195   */\n  dup2\n  mload\n  sub(shl(0xa0, 0x01), 0x01)\n    /* \"#utility.yul\":224:255   */\n  dup2\n  and\n    /* \"#utility.yul\":214:256   */\n  dup2\n  eq\n    /* \"#utility.yul\":204:274   */\n  tag_38\n  jumpi\n    /* \"#utility.yul\":270:271   */\n  0x00\n    /* \"#utility.yul\":267:268   */\n  dup1\n    /* \"#utility.yul\":260:272   */\n  revert\n    /* \"#utility.yul\":204:274   */\ntag_38:\n    /* \"#utility.yul\":293:298   */\n  swap4\n    /* \"#utility.yul\":14:304   */\n  swap3\n  pop\n  pop\n  pop\n  jump\t// out\n    /* \"#utility.yul\":309:436   */\ntag_30:\n    /* \"#utility.yul\":370:380   */\n  0x4e487b71\n    /* \"#utility.yul\":365:368   */\n  0xe0\n    /* \"#utility.yul\":361:381   */\n  shl\n    /* \"#utility.yul\":358:359   */\n  0x00\n    /* \"#utility.yul\":351:382   */\n  mstore\n    /* \"#utility.yul\":401:405   */\n  0x41\n    /* \"#utility.yul\":398:399   */\n  0x04\n    /* \"#utility.yul\":391:406   */\n  mstore\n    /* \"#utility.yul\":425:429   */\n  0x24\n    /* \"#utility.yul\":422:423   */\n  0x00\n    /* \"#utility.yul\":415:430   */\n  revert\n    /* \"#utility.yul\":441:821   */\ntag_31:\n    /* \"#utility.yul\":520:521   */\n  0x01\n    /* \"#utility.yul\":516:528   */\n  dup2\n  dup2\n  shr\n  swap1\n    /* \"#utility.yul\":563:575   */\n  dup3\n  and\n  dup1\n    /* \"#utility.yul\":584:645   */\n  tag_41\n  jumpi\n    /* \"#utility.yul\":638:642   */\n  0x7f\n    /* \"#utility.yul\":630:636   */\n  dup3\n    /* \"#utility.yul\":626:643   */\n  and\n    /* \"#utility.yul\":616:643   */\n  swap2\n  pop\n    /* \"#utility.yul\":584:645   */\ntag_41:\n    /* \"#utility.yul\":691:693   */\n  0x20\n    /* \"#utility.yul\":683:689   */\n  dup3\n    /* \"#utility.yul\":680:694   */\n  lt\n    /* \"#utility.yul\":660:678   */\n  dup2\n    /* \"#utility.yul\":657:695   */\n  sub\n    /* \"#utility.yul\":654:815   */\n  tag_42\n  jumpi\n    /* \"#utility.yul\":737:747   */\n  0x4e487b71\n    /* \"#utility.yul\":732:735   */\n  0xe0\n    /* \"#utility.yul\":728:748   */\n  shl\n    /* \"#utility.yul\":725:726   */\n  0x00\n    /* \"#utility.yul\":718:749   */\n  mstore\n    /* \"#utility.yul\":772:776   */\n  0x22\n    /* \"#utility.yul\":769:770   */\n  0x04\n    /* \"#utility.yul\":762:777   */\n  mstore\n    /* \"#utility.yul\":800:804   */\n  0x24\n    /* \"#utility.yul\":797:798   */\n  0x00\n    /* \"#utility.yul\":790:805   */\n  revert\n    /* \"#utility.yul\":654:815   */\ntag_42:\n  pop\n    /* \"#utility.yul\":441:821   */\n  swap2\n  swap1\n  pop\n  jump\t// out\n    /* \"#utility.yul\":952:1470   */\ntag_33:\n    /* \"#utility.yul\":1054:1056   */\n  0x1f\n    /* \"#utility.yul\":1049:1052   */\n  dup3\n    /* \"#utility.yul\":1046:1057   */\n  gt\n    /* \"#utility.yul\":1043:1464   */\n  iszero\n  tag_45\n  jumpi\n    /* \"#utility.yul\":1090:1095   */\n  dup1\n    /* \"#utility.yul\":1087:1088   */\n  0x00\n    /* \"#utility.yul\":1080:1096   */\n  mstore\n    /* \"#utility.yul\":1134:1138   */\n  0x20\n    /* \"#utility.yul\":1131:1132   */\n  0x00\n    /* \"#utility.yul\":1121:1139   */\n  keccak256\n    /* \"#utility.yul\":1204:1206   */\n  0x1f\n    /* \"#utility.yul\":1192:1202   */\n  dup5\n    /* \"#utility.yul\":1188:1207   */\n  add\n    /* \"#utility.yul\":1185:1186   */\n  0x05\n    /* \"#utility.yul\":1181:1208   */\n  shr\n    /* \"#utility.yul\":1175:1179   */\n  dup2\n    /* \"#utility.yul\":1171:1209   */\n  add\n    /* \"#utility.yul\":1240:1244   */\n  0x20\n    /* \"#utility.yul\":1228:1238   */\n  dup6\n    /* \"#utility.yul\":1225:1245   */\n  lt\n    /* \"#utility.yul\":1222:1269   */\n  iszero\n  tag_46\n  jumpi\n  pop\n    /* \"#utility.yul\":1263:1267   */\n  dup1\n    /* \"#utility.yul\":1222:1269   */\ntag_46:\n    /* \"#utility.yul\":1318:1320   */\n  0x1f\n    /* \"#utility.yul\":1313:1316   */\n  dup5\n    /* \"#utility.yul\":1309:1321   */\n  add\n    /* \"#utility.yul\":1306:1307   */\n  0x05\n    /* \"#utility.yul\":1302:1322   */\n  shr\n    /* \"#utility.yul\":1296:1300   */\n  dup3\n    /* \"#utility.yul\":1292:1323   */\n  add\n    /* \"#utility.yul\":1282:1323   */\n  swap2\n  pop\n    /* \"#utility.yul\":1373:1454   */\ntag_47:\n    /* \"#utility.yul\":1391:1393   */\n  dup2\n    /* \"#utility.yul\":1384:1389   */\n  dup2\n    /* \"#utility.yul\":1381:1394   */\n  lt\n    /* \"#utility.yul\":1373:1454   */\n  iszero\n  tag_49\n  jumpi\n    /* \"#utility.yul\":1450:1451   */\n  0x00\n    /* \"#utility.yul\":1436:1452   */\n  dup2\n  sstore\n    /* \"#utility.yul\":1417:1418   */\n  0x01\n    /* \"#utility.yul\":1406:1419   */\n  add\n    /* \"#utility.yul\":1373:1454   */\n  jump(tag_47)\ntag_49:\n    /* \"#utility.yul\":1377:1380   */\n  pop\n  pop\n    /* \"#utility.yul\":1043:1464   */\ntag_45:\n    /* \"#utility.yul\":952:1470   */\n  pop\n  pop\n  pop\n  jump\t// out\n    /* \"#utility.yul\":1646:2991   */\ntag_8:\n    /* \"#utility.yul\":1766:1776   */\n  dup2\n  mload\n  sub(shl(0x40, 0x01), 0x01)\n    /* \"#utility.yul\":1788:1818   */\n  dup2\n  gt\n    /* \"#utility.yul\":1785:1841   */\n  iszero\n  tag_53\n  jumpi\n    /* \"#utility.yul\":1821:1839   */\n  tag_53\n  tag_30\n  jump\t// in\ntag_53:\n    /* \"#utility.yul\":1850:1947   */\n  tag_54\n    /* \"#utility.yul\":1940:1946   */\n  dup2\n    /* \"#utility.yul\":1900:1938   */\n  tag_55\n    /* \"#utility.yul\":1932:1936   */\n  dup5\n    /* \"#utility.yul\":1926:1937   */\n  sload\n    /* \"#utility.yul\":1900:1938   */\n  tag_31\n  jump\t// in\ntag_55:\n    /* \"#utility.yul\":1894:1898   */\n  dup5\n    /* \"#utility.yul\":1850:1947   */\n  tag_33\n  jump\t// in\ntag_54:\n    /* \"#utility.yul\":2002:2006   */\n  0x20\n  dup1\n    /* \"#utility.yul\":2059:2061   */\n  0x1f\n    /* \"#utility.yul\":2048:2062   */\n  dup4\n  gt\n    /* \"#utility.yul\":2076:2077   */\n  0x01\n    /* \"#utility.yul\":2071:2734   */\n  dup2\n  eq\n  tag_57\n  jumpi\n    /* \"#utility.yul\":2778:2779   */\n  0x00\n    /* \"#utility.yul\":2795:2801   */\n  dup5\n    /* \"#utility.yul\":2792:2881   */\n  iszero\n  tag_58\n  jumpi\n  pop\n    /* \"#utility.yul\":2847:2866   */\n  dup6\n  dup4\n  add\n    /* \"#utility.yul\":2841:2867   */\n  mload\n    /* \"#utility.yul\":2792:2881   */\ntag_58:\n  not(0x00)\n    /* \"#utility.yul\":1603:1604   */\n  0x03\n    /* \"#utility.yul\":1599:1610   */\n  dup7\n  swap1\n  shl\n    /* \"#utility.yul\":1595:1619   */\n  shr\n    /* \"#utility.yul\":1591:1620   */\n  not\n    /* \"#utility.yul\":1581:1621   */\n  and\n    /* \"#utility.yul\":1627:1628   */\n  0x01\n    /* \"#utility.yul\":1623:1634   */\n  dup6\n  swap1\n  shl\n    /* \"#utility.yul\":1578:1635   */\n  or\n    /* \"#utility.yul\":2894:2975   */\n  dup6\n  sstore\n    /* \"#utility.yul\":2041:2985   */\n  jump(tag_56)\n    /* \"#utility.yul\":2071:2734   */\ntag_57:\n    /* \"#utility.yul\":899:900   */\n  0x00\n    /* \"#utility.yul\":892:906   */\n  dup6\n  dup2\n  mstore\n    /* \"#utility.yul\":936:940   */\n  0x20\n    /* \"#utility.yul\":923:941   */\n  dup2\n  keccak256\n  not(0x1f)\n    /* \"#utility.yul\":2107:2127   */\n  dup7\n  and\n  swap2\n    /* \"#utility.yul\":2225:2461   */\ntag_61:\n    /* \"#utility.yul\":2239:2246   */\n  dup3\n    /* \"#utility.yul\":2236:2237   */\n  dup2\n    /* \"#utility.yul\":2233:2247   */\n  lt\n    /* \"#utility.yul\":2225:2461   */\n  iszero\n  tag_63\n  jumpi\n    /* \"#utility.yul\":2328:2347   */\n  dup9\n  dup7\n  add\n    /* \"#utility.yul\":2322:2348   */\n  mload\n    /* \"#utility.yul\":2307:2349   */\n  dup3\n  sstore\n    /* \"#utility.yul\":2420:2447   */\n  swap5\n  dup5\n  add\n  swap5\n    /* \"#utility.yul\":2388:2389   */\n  0x01\n    /* \"#utility.yul\":2376:2390   */\n  swap1\n  swap2\n  add\n  swap1\n    /* \"#utility.yul\":2255:2274   */\n  dup5\n  add\n    /* \"#utility.yul\":2225:2461   */\n  jump(tag_61)\ntag_63:\n    /* \"#utility.yul\":2229:2232   */\n  pop\n    /* \"#utility.yul\":2489:2495   */\n  dup6\n    /* \"#utility.yul\":2480:2487   */\n  dup3\n    /* \"#utility.yul\":2477:2496   */\n  lt\n    /* \"#utility.yul\":2474:2675   */\n  iszero\n  tag_64\n  jumpi\n    /* \"#utility.yul\":2550:2569   */\n  dup8\n  dup6\n  add\n    /* \"#utility.yul\":2544:2570   */\n  mload\n  not(0x00)\n    /* \"#utility.yul\":2633:2634   */\n  0x03\n    /* \"#utility.yul\":2629:2643   */\n  dup9\n  swap1\n  shl\n    /* \"#utility.yul\":2645:2648   */\n  0xf8\n    /* \"#utility.yul\":2625:2649   */\n  and\n    /* \"#utility.yul\":2621:2658   */\n  shr\n    /* \"#utility.yul\":2617:2659   */\n  not\n    /* \"#utility.yul\":2602:2660   */\n  and\n    /* \"#utility.yul\":2587:2661   */\n  dup2\n  sstore\n    /* \"#utility.yul\":2474:2675   */\ntag_64:\n  pop\n  pop\n    /* \"#utility.yul\":2721:2722   */\n  0x01\n    /* \"#utility.yul\":2712:2718   */\n  dup5\n    /* \"#utility.yul\":2709:2710   */\n  0x01\n    /* \"#utility.yul\":2705:2719   */\n  shl\n    /* \"#utility.yul\":2701:2723   */\n  add\n    /* \"#utility.yul\":2695:2699   */\n  dup6\n    /* \"#utility.yul\":2688:2724   */\n  sstore\n    /* \"#utility.yul\":2041:2985   */\ntag_56:\n  pop\n  pop\n  pop\n  pop\n    /* \"#utility.yul\":1646:2991   */\n  pop\n  pop\n  jump\t// out\n    /* \"#utility.yul\":2996:3841   */\ntag_18:\n    /* \"#utility.yul\":3126:3129   */\n  0x00\n    /* \"#utility.yul\":3155:3156   */\n  dup1\n    /* \"#utility.yul\":3188:3194   */\n  dup4\n    /* \"#utility.yul\":3182:3195   */\n  sload\n    /* \"#utility.yul\":3218:3254   */\n  tag_66\n    /* \"#utility.yul\":3244:3253   */\n  dup2\n    /* \"#utility.yul\":3218:3254   */\n  tag_31\n  jump\t// in\ntag_66:\n    /* \"#utility.yul\":3273:3274   */\n  0x01\n    /* \"#utility.yul\":3290:3307   */\n  dup3\n  dup2\n  and\n    /* \"#utility.yul\":3316:3449   */\n  dup1\n  iszero\n  tag_68\n  jumpi\n    /* \"#utility.yul\":3463:3464   */\n  0x01\n    /* \"#utility.yul\":3458:3816   */\n  dup2\n  eq\n  tag_69\n  jumpi\n    /* \"#utility.yul\":3283:3816   */\n  jump(tag_67)\n    /* \"#utility.yul\":3316:3449   */\ntag_68:\n  not(0xff)\n    /* \"#utility.yul\":3349:3373   */\n  dup5\n  and\n    /* \"#utility.yul\":3337:3374   */\n  dup8\n  mstore\n    /* \"#utility.yul\":3422:3436   */\n  dup3\n  iszero\n    /* \"#utility.yul\":3415:3437   */\n  iszero\n    /* \"#utility.yul\":3403:3438   */\n  dup4\n  mul\n    /* \"#utility.yul\":3394:3439   */\n  dup8\n  add\n  swap5\n  pop\n    /* \"#utility.yul\":3316:3449   */\n  jump(tag_67)\n    /* \"#utility.yul\":3458:3816   */\ntag_69:\n    /* \"#utility.yul\":3489:3495   */\n  dup8\n    /* \"#utility.yul\":3486:3487   */\n  0x00\n    /* \"#utility.yul\":3479:3496   */\n  mstore\n    /* \"#utility.yul\":3519:3523   */\n  0x20\n    /* \"#utility.yul\":3564:3568   */\n  dup1\n    /* \"#utility.yul\":3561:3562   */\n  0x00\n    /* \"#utility.yul\":3551:3569   */\n  keccak256\n    /* \"#utility.yul\":3591:3592   */\n  0x00\n    /* \"#utility.yul\":3605:3770   */\ntag_70:\n    /* \"#utility.yul\":3619:3625   */\n  dup6\n    /* \"#utility.yul\":3616:3617   */\n  dup2\n    /* \"#utility.yul\":3613:3626   */\n  lt\n    /* \"#utility.yul\":3605:3770   */\n  iszero\n  tag_72\n  jumpi\n    /* \"#utility.yul\":3697:3711   */\n  dup2\n  sload\n    /* \"#utility.yul\":3684:3695   */\n  dup11\n  dup3\n  add\n    /* \"#utility.yul\":3677:3712   */\n  mstore\n    /* \"#utility.yul\":3740:3756   */\n  swap1\n  dup5\n  add\n  swap1\n    /* \"#utility.yul\":3634:3644   */\n  dup3\n  add\n    /* \"#utility.yul\":3605:3770   */\n  jump(tag_70)\ntag_72:\n    /* \"#utility.yul\":3609:3612   */\n  pop\n  pop\n  pop\n    /* \"#utility.yul\":3799:3805   */\n  dup3\n    /* \"#utility.yul\":3794:3797   */\n  dup8\n    /* \"#utility.yul\":3790:3806   */\n  add\n    /* \"#utility.yul\":3783:3806   */\n  swap5\n  pop\n    /* \"#utility.yul\":3283:3816   */\ntag_67:\n  pop\n    /* \"#utility.yul\":3832:3835   */\n  swap3\n  swap7\n    /* \"#utility.yul\":2996:3841   */\n  swap6\n  pop\n  pop\n  pop\n  pop\n  pop\n  pop\n  jump\t// out\n    /* \"#utility.yul\":3846:4335   */\ntag_35:\n    /* \"src/gho/GhoToken.sol\":358:4280  contract GhoToken is ERC20, AccessControl, IGhoToken {... */\n  mload(0x80)\n  mload(0xa0)\n  mload(0xc0)\n  codecopy(0x00, dataOffset(sub_0), dataSize(sub_0))\n  0x00\n  assignImmutable(\"0x26a057de64b51a85aaf83f7851089c13f0c7c164aefb69a61dbc3676c1a757da\")\n  0x00\n  assignImmutable(\"0xef448810f2c864de688d78e66a279993ed6fcb1e0982295a58bb520e6e338f6b\")\n  0x00\n  assignImmutable(\"0x56fef2790c54e7c17661b3801807369512a8e0e34aeeaeb685102006cbdf4b8b\")\n  return(0x00, dataSize(sub_0))\nstop\n\nsub_0: assembly {\n        /* \"src/gho/GhoToken.sol\":358:4280  contract GhoToken is ERC20, AccessControl, IGhoToken {... */\n      mstore(0x40, 0x80)\n      callvalue\n      dup1\n      iszero\n      tag_1\n      jumpi\n      0x00\n      dup1\n      revert\n    tag_1:\n      pop\n      jumpi(tag_2, lt(calldatasize, 0x04))\n      shr(0xe0, calldataload(0x00))\n      dup1\n      0x550d9964\n      gt\n      tag_33\n      jumpi\n      dup1\n      0xa217fddf\n      gt\n      tag_34\n      jumpi\n      dup1\n      0xd46ec0ed\n      gt\n      tag_35\n      jumpi\n      dup1\n      0xd46ec0ed\n      eq\n      tag_29\n      jumpi\n      dup1\n      0xd505accf\n      eq\n      tag_30\n      jumpi\n      dup1\n      0xd547741f\n      eq\n      tag_31\n      jumpi\n      dup1\n      0xdd62ed3e\n      eq\n      tag_32\n      jumpi\n      0x00\n      dup1\n      revert\n    tag_35:\n      dup1\n      0xa217fddf\n      eq\n      tag_25\n      jumpi\n      dup1\n      0xa9059cbb\n      eq\n      tag_26\n      jumpi\n      dup1\n      0xaa02f94a\n      eq\n      tag_27\n      jumpi\n      dup1\n      0xaf93df57\n      eq\n      tag_28\n      jumpi\n      0x00\n      dup1\n      revert\n    tag_34:\n      dup1\n      0x7fc24def\n      gt\n      tag_36\n      jumpi\n      dup1\n      0x7fc24def\n      eq\n      tag_21\n      jumpi\n      dup1\n      0x91d14854\n      eq\n      tag_22\n      jumpi\n      dup1\n      0x95d89b41\n      eq\n      tag_23\n      jumpi\n      dup1\n      0xa11812ba\n      eq\n      tag_24\n      jumpi\n      0x00\n      dup1\n      revert\n    tag_36:\n      dup1\n      0x550d9964\n      eq\n      tag_18\n      jumpi\n      dup1\n      0x70a08231\n      eq\n      tag_19\n      jumpi\n      dup1\n      0x7ecebe00\n      eq\n      tag_20\n      jumpi\n      0x00\n      dup1\n      revert\n    tag_33:\n      dup1\n      0x2f2ff15d\n      gt\n      tag_37\n      jumpi\n      dup1\n      0x36568abe\n      gt\n      tag_38\n      jumpi\n      dup1\n      0x36568abe\n      eq\n      tag_14\n      jumpi\n      dup1\n      0x40c10f19\n      eq\n      tag_15\n      jumpi\n      dup1\n      0x42966c68\n      eq\n      tag_16\n      jumpi\n      dup1\n      0x433bef44\n      eq\n      tag_17\n      jumpi\n      0x00\n      dup1\n      revert\n    tag_38:\n      dup1\n      0x2f2ff15d\n      eq\n      tag_10\n      jumpi\n      dup1\n      0x30adf81f\n      eq\n      tag_11\n      jumpi\n      dup1\n      0x313ce567\n      eq\n      tag_12\n      jumpi\n      dup1\n      0x3644e515\n      eq\n      tag_13\n      jumpi\n      0x00\n      dup1\n      revert\n    tag_37:\n      dup1\n      0x18160ddd\n      gt\n      tag_39\n      jumpi\n      dup1\n      0x18160ddd\n      eq\n      tag_6\n      jumpi\n      dup1\n      0x1ec90f2e\n      eq\n      tag_7\n      jumpi\n      dup1\n      0x23b872dd\n      eq\n      tag_8\n      jumpi\n      dup1\n      0x248a9ca3\n      eq\n      tag_9\n      jumpi\n      0x00\n      dup1\n      revert\n    tag_39:\n      dup1\n      0x01ffc9a7\n      eq\n      tag_3\n      jumpi\n      dup1\n      0x06fdde03\n      eq\n      tag_4\n      jumpi\n      dup1\n      0x095ea7b3\n      eq\n      tag_5\n      jumpi\n    tag_2:\n      0x00\n      dup1\n      revert\n        /* \"lib/openzeppelin-contracts/contracts/access/AccessControl.sol\":2565:2767  function supportsInterface(bytes4 interfaceId) public view virtual override returns (bool) {... */\n    tag_3:\n      tag_40\n      tag_41\n      calldatasize\n      0x04\n      tag_42\n      jump\t// in\n    tag_41:\n      tag_43\n      jump\t// in\n    tag_40:\n      mload(0x40)\n        /* \"#utility.yul\":470:484   */\n      swap1\n      iszero\n        /* \"#utility.yul\":463:485   */\n      iszero\n        /* \"#utility.yul\":445:486   */\n      dup2\n      mstore\n        /* \"#utility.yul\":433:435   */\n      0x20\n        /* \"#utility.yul\":418:436   */\n      add\n        /* \"lib/openzeppelin-contracts/contracts/access/AccessControl.sol\":2565:2767  function supportsInterface(bytes4 interfaceId) public view virtual override returns (bool) {... */\n    tag_44:\n      mload(0x40)\n      dup1\n      swap2\n      sub\n      swap1\n      return\n        /* \"src/gho/ERC20.sol\":586:604  string public name */\n    tag_4:\n      tag_46\n      tag_47\n      jump\t// in\n    tag_46:\n      mload(0x40)\n      tag_44\n      swap2\n      swap1\n      tag_49\n      jump\t// in\n        /* \"src/gho/ERC20.sol\":2086:2283  function approve(address spender, uint256 amount) public virtual returns (bool) {... */\n    tag_5:\n      tag_40\n      tag_51\n      calldatasize\n      0x04\n      tag_52\n      jump\t// in\n    tag_51:\n      tag_53\n      jump\t// in\n        /* \"src/gho/ERC20.sol\":852:878  uint256 public totalSupply */\n    tag_6:\n      tag_55\n      sload(0x02)\n      dup2\n      jump\n    tag_55:\n      mload(0x40)\n        /* \"#utility.yul\":1733:1758   */\n      swap1\n      dup2\n      mstore\n        /* \"#utility.yul\":1721:1723   */\n      0x20\n        /* \"#utility.yul\":1706:1724   */\n      add\n        /* \"src/gho/ERC20.sol\":852:878  uint256 public totalSupply */\n      tag_44\n        /* \"#utility.yul\":1587:1764   */\n      jump\n        /* \"src/gho/GhoToken.sol\":4162:4278  function getFacilitatorsList() external view returns (address[] memory) {... */\n    tag_7:\n      tag_59\n      tag_60\n      jump\t// in\n    tag_59:\n      mload(0x40)\n      tag_44\n      swap2\n      swap1\n      tag_62\n      jump\t// in\n        /* \"src/gho/ERC20.sol\":2628:3146  function transferFrom(address from, address to, uint256 amount) public virtual returns (bool) {... */\n    tag_8:\n      tag_40\n      tag_64\n      calldatasize\n      0x04\n      tag_65\n      jump\t// in\n    tag_64:\n      tag_66\n      jump\t// in\n        /* \"lib/openzeppelin-contracts/contracts/access/AccessControl.sol\":3810:3930  function getRoleAdmin(bytes32 role) public view virtual returns (bytes32) {... */\n    tag_9:\n      tag_55\n      tag_69\n      calldatasize\n      0x04\n      tag_70\n      jump\t// in\n    tag_69:\n        /* \"lib/openzeppelin-contracts/contracts/access/AccessControl.sol\":3875:3882  bytes32 */\n      0x00\n        /* \"lib/openzeppelin-contracts/contracts/access/AccessControl.sol\":3901:3913  _roles[role] */\n      swap1\n      dup2\n      mstore\n        /* \"lib/openzeppelin-contracts/contracts/access/AccessControl.sol\":3901:3907  _roles */\n      0x06\n        /* \"lib/openzeppelin-contracts/contracts/access/AccessControl.sol\":3901:3913  _roles[role] */\n      0x20\n      mstore\n      0x40\n      swap1\n      keccak256\n        /* \"lib/openzeppelin-contracts/contracts/access/AccessControl.sol\":3901:3923  _roles[role].adminRole */\n      0x01\n      add\n      sload\n      swap1\n        /* \"lib/openzeppelin-contracts/contracts/access/AccessControl.sol\":3810:3930  function getRoleAdmin(bytes32 role) public view virtual returns (bytes32) {... */\n      jump\n        /* \"lib/openzeppelin-contracts/contracts/access/AccessControl.sol\":4226:4362  function grantRole(bytes32 role, address account) public virtual onlyRole(getRoleAdmin(role)) {... */\n    tag_10:\n      tag_74\n      tag_75\n      calldatasize\n      0x04\n      tag_76\n      jump\t// in\n    tag_75:\n      tag_77\n      jump\t// in\n    tag_74:\n      stop\n        /* \"src/gho/ERC20.sol\":1185:1326  bytes32 public constant PERMIT_TYPEHASH =... */\n    tag_11:\n      tag_55\n        /* \"src/gho/ERC20.sol\":1231:1326  keccak256('Permit(address owner,address spender,uint256 value,uint256 nonce,uint256 deadline)') */\n      0x6e71edae12b1b97f4d1f60370fef10105fa2faae0126114a169c64845d6126c9\n        /* \"src/gho/ERC20.sol\":1185:1326  bytes32 public constant PERMIT_TYPEHASH =... */\n      dup2\n      jump\n        /* \"src/gho/ERC20.sol\":634:665  uint8 public immutable decimals */\n    tag_12:\n      tag_81\n      immutable(\"0x56fef2790c54e7c17661b3801807369512a8e0e34aeeaeb685102006cbdf4b8b\")\n      dup2\n      jump\n    tag_81:\n      mload(0x40)\n        /* \"#utility.yul\":3563:3567   */\n      0xff\n        /* \"#utility.yul\":3551:3568   */\n      swap1\n      swap2\n      and\n        /* \"#utility.yul\":3533:3569   */\n      dup2\n      mstore\n        /* \"#utility.yul\":3521:3523   */\n      0x20\n        /* \"#utility.yul\":3506:3524   */\n      add\n        /* \"src/gho/ERC20.sol\":634:665  uint8 public immutable decimals */\n      tag_44\n        /* \"#utility.yul\":3391:3575   */\n      jump\n        /* \"src/gho/ERC20.sol\":4198:4369  function DOMAIN_SEPARATOR() public view virtual returns (bytes32) {... */\n    tag_13:\n      tag_55\n      tag_86\n      jump\t// in\n        /* \"lib/openzeppelin-contracts/contracts/access/AccessControl.sol\":5328:5573  function renounceRole(bytes32 role, address callerConfirmation) public virtual {... */\n    tag_14:\n      tag_74\n      tag_89\n      calldatasize\n      0x04\n      tag_76\n      jump\t// in\n    tag_89:\n      tag_90\n      jump\t// in\n        /* \"src/gho/GhoToken.sol\":1056:1579  function mint(address account, uint256 amount) external {... */\n    tag_15:\n      tag_74\n      tag_92\n      calldatasize\n      0x04\n      tag_52\n      jump\t// in\n    tag_92:\n      tag_93\n      jump\t// in\n        /* \"src/gho/GhoToken.sol\":1611:2031  function burn(uint256 amount) external {... */\n    tag_16:\n      tag_74\n      tag_95\n      calldatasize\n      0x04\n      tag_70\n      jump\t// in\n    tag_95:\n      tag_97\n      jump\t// in\n        /* \"src/gho/GhoToken.sol\":610:698  bytes32 public constant FACILITATOR_MANAGER_ROLE = keccak256('FACILITATOR_MANAGER_ROLE') */\n    tag_17:\n      tag_55\n        /* \"src/gho/GhoToken.sol\":661:698  keccak256('FACILITATOR_MANAGER_ROLE') */\n      0x5e20732f79076148980e17b6ce9f22756f85058fe2765420ed48a504bef5a8bc\n        /* \"src/gho/GhoToken.sol\":610:698  bytes32 public constant FACILITATOR_MANAGER_ROLE = keccak256('FACILITATOR_MANAGER_ROLE') */\n      dup2\n      jump\n        /* \"src/gho/GhoToken.sol\":731:809  bytes32 public constant BUCKET_MANAGER_ROLE = keccak256('BUCKET_MANAGER_ROLE') */\n    tag_18:\n      tag_55\n        /* \"src/gho/GhoToken.sol\":777:809  keccak256('BUCKET_MANAGER_ROLE') */\n      0xc7f115822aabac0cd6b9d21b08c0c63819451a58157aecad689d1b5674fad408\n        /* \"src/gho/GhoToken.sol\":731:809  bytes32 public constant BUCKET_MANAGER_ROLE = keccak256('BUCKET_MANAGER_ROLE') */\n      dup2\n      jump\n        /* \"src/gho/ERC20.sol\":883:927  mapping(address => uint256) public balanceOf */\n    tag_19:\n      tag_55\n      tag_105\n      calldatasize\n      0x04\n      tag_106\n      jump\t// in\n    tag_105:\n      mstore(0x20, 0x03)\n      0x00\n      swap1\n      dup2\n      mstore\n      0x40\n      swap1\n      keccak256\n      sload\n      dup2\n      jump\n        /* \"src/gho/ERC20.sol\":1435:1476  mapping(address => uint256) public nonces */\n    tag_20:\n      tag_55\n      tag_110\n      calldatasize\n      0x04\n      tag_106\n      jump\t// in\n    tag_110:\n      mstore(0x20, 0x05)\n      0x00\n      swap1\n      dup2\n      mstore\n      0x40\n      swap1\n      keccak256\n      sload\n      dup2\n      jump\n        /* \"src/gho/GhoToken.sol\":2063:2733  function addFacilitator(... */\n    tag_21:\n      tag_74\n      tag_114\n      calldatasize\n      0x04\n      tag_115\n      jump\t// in\n    tag_114:\n      tag_116\n      jump\t// in\n        /* \"lib/openzeppelin-contracts/contracts/access/AccessControl.sol\":2854:2990  function hasRole(bytes32 role, address account) public view virtual returns (bool) {... */\n    tag_22:\n      tag_40\n      tag_118\n      calldatasize\n      0x04\n      tag_76\n      jump\t// in\n    tag_118:\n      tag_119\n      jump\t// in\n        /* \"src/gho/ERC20.sol\":609:629  string public symbol */\n    tag_23:\n      tag_46\n      tag_122\n      jump\t// in\n        /* \"src/gho/GhoToken.sol\":2765:3264  function removeFacilitator(... */\n    tag_24:\n      tag_74\n      tag_125\n      calldatasize\n      0x04\n      tag_106\n      jump\t// in\n    tag_125:\n      tag_126\n      jump\t// in\n        /* \"lib/openzeppelin-contracts/contracts/access/AccessControl.sol\":2187:2236  bytes32 public constant DEFAULT_ADMIN_ROLE = 0x00 */\n    tag_25:\n      tag_55\n        /* \"lib/openzeppelin-contracts/contracts/access/AccessControl.sol\":2232:2236  0x00 */\n      0x00\n        /* \"lib/openzeppelin-contracts/contracts/access/AccessControl.sol\":2187:2236  bytes32 public constant DEFAULT_ADMIN_ROLE = 0x00 */\n      dup2\n      jump\n        /* \"src/gho/ERC20.sol\":2287:2624  function transfer(address to, uint256 amount) public virtual returns (bool) {... */\n    tag_26:\n      tag_40\n      tag_131\n      calldatasize\n      0x04\n      tag_52\n      jump\t// in\n    tag_131:\n      tag_132\n      jump\t// in\n        /* \"src/gho/GhoToken.sol\":3937:4130  function getFacilitatorBucket(address facilitator) external view returns (uint256, uint256) {... */\n    tag_27:\n      tag_134\n      tag_135\n      calldatasize\n      0x04\n      tag_106\n      jump\t// in\n    tag_135:\n      sub(shl(0xa0, 0x01), 0x01)\n        /* \"src/gho/GhoToken.sol\":4043:4069  _facilitators[facilitator] */\n      and\n        /* \"src/gho/GhoToken.sol\":4011:4018  uint256 */\n      0x00\n        /* \"src/gho/GhoToken.sol\":4043:4069  _facilitators[facilitator] */\n      swap1\n      dup2\n      mstore\n        /* \"src/gho/GhoToken.sol\":4043:4056  _facilitators */\n      0x07\n        /* \"src/gho/GhoToken.sol\":4043:4069  _facilitators[facilitator] */\n      0x20\n      mstore\n      0x40\n      swap1\n      keccak256\n        /* \"src/gho/GhoToken.sol\":4043:4084  _facilitators[facilitator].bucketCapacity */\n      sload\n      sub(shl(0x80, 0x01), 0x01)\n      dup1\n      dup3\n      and\n      swap3\n      shl(0x80, 0x01)\n        /* \"src/gho/GhoToken.sol\":4086:4124  _facilitators[facilitator].bucketLevel */\n      swap1\n      swap3\n      div\n      and\n      swap1\n        /* \"src/gho/GhoToken.sol\":3937:4130  function getFacilitatorBucket(address facilitator) external view returns (uint256, uint256) {... */\n      jump\n    tag_134:\n      0x40\n      dup1\n      mload\n        /* \"#utility.yul\":5068:5093   */\n      swap3\n      dup4\n      mstore\n        /* \"#utility.yul\":5124:5126   */\n      0x20\n        /* \"#utility.yul\":5109:5127   */\n      dup4\n      add\n        /* \"#utility.yul\":5102:5136   */\n      swap2\n      swap1\n      swap2\n      mstore\n        /* \"#utility.yul\":5041:5059   */\n      add\n        /* \"src/gho/GhoToken.sol\":3937:4130  function getFacilitatorBucket(address facilitator) external view returns (uint256, uint256) {... */\n      tag_44\n        /* \"#utility.yul\":4894:5142   */\n      jump\n        /* \"src/gho/GhoToken.sol\":3296:3741  function setFacilitatorBucketCapacity(... */\n    tag_28:\n      tag_74\n      tag_140\n      calldatasize\n      0x04\n      tag_141\n      jump\t// in\n    tag_140:\n      tag_142\n      jump\t// in\n        /* \"src/gho/GhoToken.sol\":3773:3905  function getFacilitator(address facilitator) external view returns (Facilitator memory) {... */\n    tag_29:\n      tag_143\n      tag_144\n      calldatasize\n      0x04\n      tag_106\n      jump\t// in\n    tag_144:\n      tag_145\n      jump\t// in\n    tag_143:\n      mload(0x40)\n      tag_44\n      swap2\n      swap1\n      tag_147\n      jump\t// in\n        /* \"src/gho/ERC20.sol\":3333:4194  function permit(... */\n    tag_30:\n      tag_74\n      tag_149\n      calldatasize\n      0x04\n      tag_150\n      jump\t// in\n    tag_149:\n      tag_151\n      jump\t// in\n        /* \"lib/openzeppelin-contracts/contracts/access/AccessControl.sol\":4642:4780  function revokeRole(bytes32 role, address account) public virtual onlyRole(getRoleAdmin(role)) {... */\n    tag_31:\n      tag_74\n      tag_153\n      calldatasize\n      0x04\n      tag_76\n      jump\t// in\n    tag_153:\n      tag_154\n      jump\t// in\n        /* \"src/gho/ERC20.sol\":932:996  mapping(address => mapping(address => uint256)) public allowance */\n    tag_32:\n      tag_55\n      tag_156\n      calldatasize\n      0x04\n      tag_157\n      jump\t// in\n    tag_156:\n      0x04\n      0x20\n      swap1\n      dup2\n      mstore\n      0x00\n      swap3\n      dup4\n      mstore\n      0x40\n      dup1\n      dup5\n      keccak256\n      swap1\n      swap2\n      mstore\n      swap1\n      dup3\n      mstore\n      swap1\n      keccak256\n      sload\n      dup2\n      jump\n        /* \"lib/openzeppelin-contracts/contracts/access/AccessControl.sol\":2565:2767  function supportsInterface(bytes4 interfaceId) public view virtual override returns (bool) {... */\n    tag_43:\n        /* \"lib/openzeppelin-contracts/contracts/access/AccessControl.sol\":2650:2654  bool */\n      0x00\n      not(sub(shl(0xe0, 0x01), 0x01))\n        /* \"lib/openzeppelin-contracts/contracts/access/AccessControl.sol\":2673:2720  interfaceId == type(IAccessControl).interfaceId */\n      dup3\n      and\n      shl(0xe0, 0x7965db0b)\n      eq\n      dup1\n        /* \"lib/openzeppelin-contracts/contracts/access/AccessControl.sol\":2673:2760  interfaceId == type(IAccessControl).interfaceId || super.supportsInterface(interfaceId) */\n      tag_162\n      jumpi\n      pop\n      shl(0xe0, 0x01ffc9a7)\n      not(sub(shl(0xe0, 0x01), 0x01))\n        /* \"lib/openzeppelin-contracts/contracts/utils/introspection/ERC165.sol\":861:901  interfaceId == type(IERC165).interfaceId */\n      dup4\n      and\n      eq\n        /* \"lib/openzeppelin-contracts/contracts/access/AccessControl.sol\":2724:2760  super.supportsInterface(interfaceId) */\n    tag_162:\n        /* \"lib/openzeppelin-contracts/contracts/access/AccessControl.sol\":2666:2760  return interfaceId == type(IAccessControl).interfaceId || super.supportsInterface(interfaceId) */\n      swap3\n        /* \"lib/openzeppelin-contracts/contracts/access/AccessControl.sol\":2565:2767  function supportsInterface(bytes4 interfaceId) public view virtual override returns (bool) {... */\n      swap2\n      pop\n      pop\n      jump\t// out\n        /* \"src/gho/ERC20.sol\":586:604  string public name */\n    tag_47:\n      0x00\n      dup1\n      sload\n      tag_164\n      swap1\n      tag_165\n      jump\t// in\n    tag_164:\n      dup1\n      0x1f\n      add\n      0x20\n      dup1\n      swap2\n      div\n      mul\n      0x20\n      add\n      mload(0x40)\n      swap1\n      dup2\n      add\n      0x40\n      mstore\n      dup1\n      swap3\n      swap2\n      swap1\n      dup2\n      dup2\n      mstore\n      0x20\n      add\n      dup3\n      dup1\n      sload\n      tag_166\n      swap1\n      tag_165\n      jump\t// in\n    tag_166:\n      dup1\n      iszero\n      tag_167\n      jumpi\n      dup1\n      0x1f\n      lt\n      tag_168\n      jumpi\n      0x0100\n      dup1\n      dup4\n      sload\n      div\n      mul\n      dup4\n      mstore\n      swap2\n      0x20\n      add\n      swap2\n      jump(tag_167)\n    tag_168:\n      dup3\n      add\n      swap2\n      swap1\n      0x00\n      mstore\n      keccak256(0x00, 0x20)\n      swap1\n    tag_169:\n      dup2\n      sload\n      dup2\n      mstore\n      swap1\n      0x01\n      add\n      swap1\n      0x20\n      add\n      dup1\n      dup4\n      gt\n      tag_169\n      jumpi\n      dup3\n      swap1\n      sub\n      0x1f\n      and\n      dup3\n      add\n      swap2\n    tag_167:\n      pop\n      pop\n      pop\n      pop\n      pop\n      dup2\n      jump\t// out\n        /* \"src/gho/ERC20.sol\":2086:2283  function approve(address spender, uint256 amount) public virtual returns (bool) {... */\n    tag_53:\n        /* \"src/gho/ERC20.sol\":2182:2192  msg.sender */\n      caller\n        /* \"src/gho/ERC20.sol\":2160:2164  bool */\n      0x00\n        /* \"src/gho/ERC20.sol\":2172:2193  allowance[msg.sender] */\n      dup2\n      dup2\n      mstore\n        /* \"src/gho/ERC20.sol\":2172:2181  allowance */\n      0x04\n        /* \"src/gho/ERC20.sol\":2172:2193  allowance[msg.sender] */\n      0x20\n      swap1\n      dup2\n      mstore\n      0x40\n      dup1\n      dup4\n      keccak256\n      sub(shl(0xa0, 0x01), 0x01)\n        /* \"src/gho/ERC20.sol\":2172:2202  allowance[msg.sender][spender] */\n      dup8\n      and\n      dup1\n      dup6\n      mstore\n      swap3\n      mstore\n      dup1\n      dup4\n      keccak256\n        /* \"src/gho/ERC20.sol\":2172:2211  allowance[msg.sender][spender] = amount */\n      dup6\n      swap1\n      sstore\n        /* \"src/gho/ERC20.sol\":2223:2260  Approval(msg.sender, spender, amount) */\n      mload\n        /* \"src/gho/ERC20.sol\":2160:2164  bool */\n      swap2\n      swap3\n        /* \"src/gho/ERC20.sol\":2172:2202  allowance[msg.sender][spender] */\n      swap1\n      swap2\n        /* \"src/gho/ERC20.sol\":2223:2260  Approval(msg.sender, spender, amount) */\n      0x8c5be1e5ebec7d5bd14f71427d1e84f3dd0314c0f7b2291e5b200ac8c7c3b925\n      swap1\n      tag_171\n      swap1\n        /* \"src/gho/ERC20.sol\":2205:2211  amount */\n      dup7\n        /* \"#utility.yul\":1733:1758   */\n      dup2\n      mstore\n        /* \"#utility.yul\":1721:1723   */\n      0x20\n        /* \"#utility.yul\":1706:1724   */\n      add\n      swap1\n        /* \"#utility.yul\":1587:1764   */\n      jump\n        /* \"src/gho/ERC20.sol\":2223:2260  Approval(msg.sender, spender, amount) */\n    tag_171:\n      mload(0x40)\n      dup1\n      swap2\n      sub\n      swap1\n      log3\n      pop\n        /* \"src/gho/ERC20.sol\":2274:2278  true */\n      0x01\n        /* \"src/gho/ERC20.sol\":2086:2283  function approve(address spender, uint256 amount) public virtual returns (bool) {... */\n      swap3\n      swap2\n      pop\n      pop\n      jump\t// out\n        /* \"src/gho/GhoToken.sol\":4162:4278  function getFacilitatorsList() external view returns (address[] memory) {... */\n    tag_60:\n        /* \"src/gho/GhoToken.sol\":4216:4232  address[] memory */\n      0x60\n        /* \"src/gho/GhoToken.sol\":4247:4273  _facilitatorsList.values() */\n      tag_173\n        /* \"src/gho/GhoToken.sol\":4247:4264  _facilitatorsList */\n      0x08\n        /* \"src/gho/GhoToken.sol\":4247:4271  _facilitatorsList.values */\n      tag_174\n        /* \"src/gho/GhoToken.sol\":4247:4273  _facilitatorsList.values() */\n      jump\t// in\n    tag_173:\n        /* \"src/gho/GhoToken.sol\":4240:4273  return _facilitatorsList.values() */\n      swap1\n      pop\n        /* \"src/gho/GhoToken.sol\":4162:4278  function getFacilitatorsList() external view returns (address[] memory) {... */\n      swap1\n      jump\t// out\n        /* \"src/gho/ERC20.sol\":2628:3146  function transferFrom(address from, address to, uint256 amount) public virtual returns (bool) {... */\n    tag_66:\n      sub(shl(0xa0, 0x01), 0x01)\n        /* \"src/gho/ERC20.sol\":2746:2761  allowance[from] */\n      dup4\n      and\n        /* \"src/gho/ERC20.sol\":2716:2720  bool */\n      0x00\n        /* \"src/gho/ERC20.sol\":2746:2761  allowance[from] */\n      swap1\n      dup2\n      mstore\n        /* \"src/gho/ERC20.sol\":2746:2755  allowance */\n      0x04\n        /* \"src/gho/ERC20.sol\":2746:2761  allowance[from] */\n      0x20\n      swap1\n      dup2\n      mstore\n      0x40\n      dup1\n      dup4\n      keccak256\n        /* \"src/gho/ERC20.sol\":2762:2772  msg.sender */\n      caller\n        /* \"src/gho/ERC20.sol\":2746:2773  allowance[from][msg.sender] */\n      dup5\n      mstore\n      swap1\n      swap2\n      mstore\n      dup2\n      keccak256\n      sload\n      not(0x00)\n        /* \"src/gho/ERC20.sol\":2820:2848  allowed != type(uint256).max */\n      dup2\n      eq\n        /* \"src/gho/ERC20.sol\":2816:2896  if (allowed != type(uint256).max) allowance[from][msg.sender] = allowed - amount */\n      tag_176\n      jumpi\n        /* \"src/gho/ERC20.sol\":2880:2896  allowed - amount */\n      tag_177\n        /* \"src/gho/ERC20.sol\":2890:2896  amount */\n      dup4\n        /* \"src/gho/ERC20.sol\":2880:2887  allowed */\n      dup3\n        /* \"src/gho/ERC20.sol\":2880:2896  allowed - amount */\n      tag_178\n      jump\t// in\n    tag_177:\n      sub(shl(0xa0, 0x01), 0x01)\n        /* \"src/gho/ERC20.sol\":2850:2865  allowance[from] */\n      dup7\n      and\n      0x00\n      swap1\n      dup2\n      mstore\n        /* \"src/gho/ERC20.sol\":2850:2859  allowance */\n      0x04\n        /* \"src/gho/ERC20.sol\":2850:2865  allowance[from] */\n      0x20\n      swap1\n      dup2\n      mstore\n      0x40\n      dup1\n      dup4\n      keccak256\n        /* \"src/gho/ERC20.sol\":2866:2876  msg.sender */\n      caller\n        /* \"src/gho/ERC20.sol\":2850:2877  allowance[from][msg.sender] */\n      dup5\n      mstore\n      swap1\n      swap2\n      mstore\n      swap1\n      keccak256\n        /* \"src/gho/ERC20.sol\":2850:2896  allowance[from][msg.sender] = allowed - amount */\n      sstore\n        /* \"src/gho/ERC20.sol\":2816:2896  if (allowed != type(uint256).max) allowance[from][msg.sender] = allowed - amount */\n    tag_176:\n      sub(shl(0xa0, 0x01), 0x01)\n        /* \"src/gho/ERC20.sol\":2903:2918  balanceOf[from] */\n      dup6\n      and\n      0x00\n      swap1\n      dup2\n      mstore\n        /* \"src/gho/ERC20.sol\":2903:2912  balanceOf */\n      0x03\n        /* \"src/gho/ERC20.sol\":2903:2918  balanceOf[from] */\n      0x20\n      mstore\n      0x40\n      dup2\n      keccak256\n        /* \"src/gho/ERC20.sol\":2903:2928  balanceOf[from] -= amount */\n      dup1\n      sload\n        /* \"src/gho/ERC20.sol\":2922:2928  amount */\n      dup6\n      swap3\n        /* \"src/gho/ERC20.sol\":2903:2918  balanceOf[from] */\n      swap1\n        /* \"src/gho/ERC20.sol\":2903:2928  balanceOf[from] -= amount */\n      tag_179\n      swap1\n        /* \"src/gho/ERC20.sol\":2922:2928  amount */\n      dup5\n      swap1\n        /* \"src/gho/ERC20.sol\":2903:2928  balanceOf[from] -= amount */\n      tag_178\n      jump\t// in\n    tag_179:\n      swap1\n      swap2\n      sstore\n      pop\n      pop\n      sub(shl(0xa0, 0x01), 0x01)\n        /* \"src/gho/ERC20.sol\":3056:3069  balanceOf[to] */\n      dup1\n      dup6\n      and\n      0x00\n      dup2\n      dup2\n      mstore\n        /* \"src/gho/ERC20.sol\":3056:3065  balanceOf */\n      0x03\n        /* \"src/gho/ERC20.sol\":3056:3069  balanceOf[to] */\n      0x20\n      mstore\n      0x40\n      swap1\n      dup2\n      swap1\n      keccak256\n        /* \"src/gho/ERC20.sol\":3056:3079  balanceOf[to] += amount */\n      dup1\n      sload\n      dup8\n      add\n      swap1\n      sstore\n        /* \"src/gho/ERC20.sol\":3097:3123  Transfer(from, to, amount) */\n      mload\n        /* \"src/gho/ERC20.sol\":3056:3069  balanceOf[to] */\n      swap1\n      swap2\n        /* \"src/gho/ERC20.sol\":3097:3123  Transfer(from, to, amount) */\n      dup8\n      and\n      swap1\n      0x00\n      dup1\n      mload\n      0x20\n      data_ada389e1fc24a8587c776340efb91b36e675792ab631816100d55df0b5cf3cbc\n      dup4\n      codecopy\n      dup2\n      mload\n      swap2\n      mstore\n      swap1\n      tag_180\n      swap1\n        /* \"src/gho/ERC20.sol\":3073:3079  amount */\n      dup8\n        /* \"#utility.yul\":1733:1758   */\n      dup2\n      mstore\n        /* \"#utility.yul\":1721:1723   */\n      0x20\n        /* \"#utility.yul\":1706:1724   */\n      add\n      swap1\n        /* \"#utility.yul\":1587:1764   */\n      jump\n        /* \"src/gho/ERC20.sol\":3097:3123  Transfer(from, to, amount) */\n    tag_180:\n      mload(0x40)\n      dup1\n      swap2\n      sub\n      swap1\n      log3\n      pop\n        /* \"src/gho/ERC20.sol\":3137:3141  true */\n      0x01\n      swap5\n        /* \"src/gho/ERC20.sol\":2628:3146  function transferFrom(address from, address to, uint256 amount) public virtual returns (bool) {... */\n      swap4\n      pop\n      pop\n      pop\n      pop\n      jump\t// out\n        /* \"lib/openzeppelin-contracts/contracts/access/AccessControl.sol\":4226:4362  function grantRole(bytes32 role, address account) public virtual onlyRole(getRoleAdmin(role)) {... */\n    tag_77:\n        /* \"lib/openzeppelin-contracts/contracts/access/AccessControl.sol\":3875:3882  bytes32 */\n      0x00\n        /* \"lib/openzeppelin-contracts/contracts/access/AccessControl.sol\":3901:3913  _roles[role] */\n      dup3\n      dup2\n      mstore\n        /* \"lib/openzeppelin-contracts/contracts/access/AccessControl.sol\":3901:3907  _roles */\n      0x06\n        /* \"lib/openzeppelin-contracts/contracts/access/AccessControl.sol\":3901:3913  _roles[role] */\n      0x20\n      mstore\n      0x40\n      swap1\n      keccak256\n        /* \"lib/openzeppelin-contracts/contracts/access/AccessControl.sol\":3901:3923  _roles[role].adminRole */\n      0x01\n      add\n      sload\n        /* \"lib/openzeppelin-contracts/contracts/access/AccessControl.sol\":2464:2480  _checkRole(role) */\n      tag_184\n        /* \"lib/openzeppelin-contracts/contracts/access/AccessControl.sol\":2475:2479  role */\n      dup2\n        /* \"lib/openzeppelin-contracts/contracts/access/AccessControl.sol\":2464:2474  _checkRole */\n      tag_185\n        /* \"lib/openzeppelin-contracts/contracts/access/AccessControl.sol\":2464:2480  _checkRole(role) */\n      jump\t// in\n    tag_184:\n        /* \"lib/openzeppelin-contracts/contracts/access/AccessControl.sol\":4330:4355  _grantRole(role, account) */\n      tag_187\n        /* \"lib/openzeppelin-contracts/contracts/access/AccessControl.sol\":4341:4345  role */\n      dup4\n        /* \"lib/openzeppelin-contracts/contracts/access/AccessControl.sol\":4347:4354  account */\n      dup4\n        /* \"lib/openzeppelin-contracts/contracts/access/AccessControl.sol\":4330:4340  _grantRole */\n      tag_188\n        /* \"lib/openzeppelin-contracts/contracts/access/AccessControl.sol\":4330:4355  _grantRole(role, account) */\n      jump\t// in\n    tag_187:\n      pop\n        /* \"lib/openzeppelin-contracts/contracts/access/AccessControl.sol\":4226:4362  function grantRole(bytes32 role, address account) public virtual onlyRole(getRoleAdmin(role)) {... */\n      pop\n      pop\n      pop\n      jump\t// out\n        /* \"src/gho/ERC20.sol\":4198:4369  function DOMAIN_SEPARATOR() public view virtual returns (bytes32) {... */\n    tag_86:\n        /* \"src/gho/ERC20.sol\":4255:4262  bytes32 */\n      0x00\n        /* \"src/gho/ERC20.sol\":4294:4310  INITIAL_CHAIN_ID */\n      immutable(\"0xef448810f2c864de688d78e66a279993ed6fcb1e0982295a58bb520e6e338f6b\")\n        /* \"src/gho/ERC20.sol\":4277:4290  block.chainid */\n      chainid\n        /* \"src/gho/ERC20.sol\":4277:4310  block.chainid == INITIAL_CHAIN_ID */\n      eq\n        /* \"src/gho/ERC20.sol\":4277:4364  block.chainid == INITIAL_CHAIN_ID ? INITIAL_DOMAIN_SEPARATOR : computeDomainSeparator() */\n      tag_190\n      jumpi\n        /* \"src/gho/ERC20.sol\":4340:4364  computeDomainSeparator() */\n      tag_173\n        /* \"src/gho/ERC20.sol\":4340:4362  computeDomainSeparator */\n      tag_192\n        /* \"src/gho/ERC20.sol\":4340:4364  computeDomainSeparator() */\n      jump\t// in\n        /* \"src/gho/ERC20.sol\":4277:4364  block.chainid == INITIAL_CHAIN_ID ? INITIAL_DOMAIN_SEPARATOR : computeDomainSeparator() */\n    tag_190:\n      pop\n        /* \"src/gho/ERC20.sol\":4313:4337  INITIAL_DOMAIN_SEPARATOR */\n      immutable(\"0x26a057de64b51a85aaf83f7851089c13f0c7c164aefb69a61dbc3676c1a757da\")\n      swap1\n        /* \"src/gho/ERC20.sol\":4198:4369  function DOMAIN_SEPARATOR() public view virtual returns (bytes32) {... */\n      jump\t// out\n        /* \"lib/openzeppelin-contracts/contracts/access/AccessControl.sol\":5328:5573  function renounceRole(bytes32 role, address callerConfirmation) public virtual {... */\n    tag_90:\n      sub(shl(0xa0, 0x01), 0x01)\n        /* \"lib/openzeppelin-contracts/contracts/access/AccessControl.sol\":5421:5455  callerConfirmation != _msgSender() */\n      dup2\n      and\n        /* \"lib/openzeppelin-contracts/contracts/utils/Context.sol\":735:745  msg.sender */\n      caller\n        /* \"lib/openzeppelin-contracts/contracts/access/AccessControl.sol\":5421:5455  callerConfirmation != _msgSender() */\n      eq\n        /* \"lib/openzeppelin-contracts/contracts/access/AccessControl.sol\":5417:5519  if (callerConfirmation != _msgSender()) {... */\n      tag_197\n      jumpi\n        /* \"lib/openzeppelin-contracts/contracts/access/AccessControl.sol\":5478:5508  AccessControlBadConfirmation() */\n      mload(0x40)\n      shl(0xe1, 0x334bd919)\n      dup2\n      mstore\n      0x04\n      add\n      mload(0x40)\n      dup1\n      swap2\n      sub\n      swap1\n      revert\n        /* \"lib/openzeppelin-contracts/contracts/access/AccessControl.sol\":5417:5519  if (callerConfirmation != _msgSender()) {... */\n    tag_197:\n        /* \"lib/openzeppelin-contracts/contracts/access/AccessControl.sol\":5529:5566  _revokeRole(role, callerConfirmation) */\n      tag_198\n        /* \"lib/openzeppelin-contracts/contracts/access/AccessControl.sol\":5541:5545  role */\n      dup3\n        /* \"lib/openzeppelin-contracts/contracts/access/AccessControl.sol\":5547:5565  callerConfirmation */\n      dup3\n        /* \"lib/openzeppelin-contracts/contracts/access/AccessControl.sol\":5529:5540  _revokeRole */\n      tag_199\n        /* \"lib/openzeppelin-contracts/contracts/access/AccessControl.sol\":5529:5566  _revokeRole(role, callerConfirmation) */\n      jump\t// in\n    tag_198:\n      pop\n        /* \"lib/openzeppelin-contracts/contracts/access/AccessControl.sol\":5328:5573  function renounceRole(bytes32 role, address callerConfirmation) public virtual {... */\n      pop\n      pop\n      jump\t// out\n        /* \"src/gho/GhoToken.sol\":1056:1579  function mint(address account, uint256 amount) external {... */\n    tag_93:\n        /* \"src/gho/GhoToken.sol\":1135:1136  0 */\n      0x00\n        /* \"src/gho/GhoToken.sol\":1126:1132  amount */\n      dup2\n        /* \"src/gho/GhoToken.sol\":1126:1136  amount > 0 */\n      gt\n        /* \"src/gho/GhoToken.sol\":1118:1160  require(amount > 0, 'INVALID_MINT_AMOUNT') */\n      tag_201\n      jumpi\n      mload(0x40)\n      shl(0xe5, 0x461bcd)\n      dup2\n      mstore\n        /* \"#utility.yul\":7771:7773   */\n      0x20\n        /* \"src/gho/GhoToken.sol\":1118:1160  require(amount > 0, 'INVALID_MINT_AMOUNT') */\n      0x04\n      dup3\n      add\n        /* \"#utility.yul\":7753:7774   */\n      mstore\n        /* \"#utility.yul\":7810:7812   */\n      0x13\n        /* \"#utility.yul\":7790:7808   */\n      0x24\n      dup3\n      add\n        /* \"#utility.yul\":7783:7813   */\n      mstore\n      shl(0x6a, 0x1253959053125117d352539517d05353d55395)\n        /* \"#utility.yul\":7829:7847   */\n      0x44\n      dup3\n      add\n        /* \"#utility.yul\":7822:7871   */\n      mstore\n        /* \"#utility.yul\":7888:7906   */\n      0x64\n      add\n        /* \"src/gho/GhoToken.sol\":1118:1160  require(amount > 0, 'INVALID_MINT_AMOUNT') */\n    tag_202:\n      mload(0x40)\n      dup1\n      swap2\n      sub\n      swap1\n      revert\n    tag_201:\n        /* \"src/gho/GhoToken.sol\":1204:1214  msg.sender */\n      caller\n        /* \"src/gho/GhoToken.sol\":1166:1187  Facilitator storage f */\n      0x00\n        /* \"src/gho/GhoToken.sol\":1190:1215  _facilitators[msg.sender] */\n      swap1\n      dup2\n      mstore\n        /* \"src/gho/GhoToken.sol\":1190:1203  _facilitators */\n      0x07\n        /* \"src/gho/GhoToken.sol\":1190:1215  _facilitators[msg.sender] */\n      0x20\n      mstore\n      0x40\n      dup2\n      keccak256\n        /* \"src/gho/GhoToken.sol\":1251:1264  f.bucketLevel */\n      dup1\n      sload\n        /* \"src/gho/GhoToken.sol\":1190:1215  _facilitators[msg.sender] */\n      swap1\n      swap2\n      shl(0x80, 0x01)\n        /* \"src/gho/GhoToken.sol\":1251:1264  f.bucketLevel */\n      swap1\n      swap2\n      div\n      sub(shl(0x80, 0x01), 0x01)\n      and\n      swap1\n        /* \"src/gho/GhoToken.sol\":1295:1322  currentBucketLevel + amount */\n      tag_204\n        /* \"src/gho/GhoToken.sol\":1316:1322  amount */\n      dup5\n        /* \"src/gho/GhoToken.sol\":1251:1264  f.bucketLevel */\n      dup4\n        /* \"src/gho/GhoToken.sol\":1295:1322  currentBucketLevel + amount */\n      tag_205\n      jump\t// in\n    tag_204:\n        /* \"src/gho/GhoToken.sol\":1336:1352  f.bucketCapacity */\n      dup4\n      sload\n        /* \"src/gho/GhoToken.sol\":1270:1322  uint256 newBucketLevel = currentBucketLevel + amount */\n      swap1\n      swap2\n      pop\n      sub(shl(0x80, 0x01), 0x01)\n        /* \"src/gho/GhoToken.sol\":1336:1352  f.bucketCapacity */\n      and\n        /* \"src/gho/GhoToken.sol\":1336:1370  f.bucketCapacity >= newBucketLevel */\n      dup2\n      gt\n      iszero\n        /* \"src/gho/GhoToken.sol\":1328:1411  require(f.bucketCapacity >= newBucketLevel, 'FACILITATOR_BUCKET_CAPACITY_EXCEEDED') */\n      tag_206\n      jumpi\n      mload(0x40)\n      shl(0xe5, 0x461bcd)\n      dup2\n      mstore\n        /* \"#utility.yul\":8249:8251   */\n      0x20\n        /* \"src/gho/GhoToken.sol\":1328:1411  require(f.bucketCapacity >= newBucketLevel, 'FACILITATOR_BUCKET_CAPACITY_EXCEEDED') */\n      0x04\n      dup3\n      add\n        /* \"#utility.yul\":8231:8252   */\n      mstore\n        /* \"#utility.yul\":8288:8290   */\n      0x24\n        /* \"#utility.yul\":8268:8286   */\n      dup1\n      dup3\n      add\n        /* \"#utility.yul\":8261:8291   */\n      mstore\n        /* \"#utility.yul\":8327:8361   */\n      0x464143494c495441544f525f4255434b45545f43415041434954595f45584345\n        /* \"#utility.yul\":8307:8325   */\n      0x44\n      dup3\n      add\n        /* \"#utility.yul\":8300:8362   */\n      mstore\n      shl(0xe2, 0x11511151)\n        /* \"#utility.yul\":8378:8396   */\n      0x64\n      dup3\n      add\n        /* \"#utility.yul\":8371:8405   */\n      mstore\n        /* \"#utility.yul\":8422:8441   */\n      0x84\n      add\n        /* \"src/gho/GhoToken.sol\":1328:1411  require(f.bucketCapacity >= newBucketLevel, 'FACILITATOR_BUCKET_CAPACITY_EXCEEDED') */\n      tag_202\n        /* \"#utility.yul\":8047:8447   */\n      jump\n        /* \"src/gho/GhoToken.sol\":1328:1411  require(f.bucketCapacity >= newBucketLevel, 'FACILITATOR_BUCKET_CAPACITY_EXCEEDED') */\n    tag_206:\n        /* \"src/gho/GhoToken.sol\":1417:1456  f.bucketLevel = uint128(newBucketLevel) */\n      dup3\n      sload\n      sub(shl(0x80, 0x01), 0x01)\n      dup1\n      dup4\n      and\n      shl(0x80, 0x01)\n      mul\n      swap2\n      and\n      or\n      dup4\n      sstore\n        /* \"src/gho/GhoToken.sol\":1463:1485  _mint(account, amount) */\n      tag_209\n        /* \"src/gho/GhoToken.sol\":1469:1476  account */\n      dup6\n        /* \"src/gho/GhoToken.sol\":1478:1484  amount */\n      dup6\n        /* \"src/gho/GhoToken.sol\":1463:1468  _mint */\n      tag_210\n        /* \"src/gho/GhoToken.sol\":1463:1485  _mint(account, amount) */\n      jump\t// in\n    tag_209:\n        /* \"src/gho/GhoToken.sol\":1497:1574  FacilitatorBucketLevelUpdated(msg.sender, currentBucketLevel, newBucketLevel) */\n      0x40\n      dup1\n      mload\n        /* \"#utility.yul\":5068:5093   */\n      dup4\n      dup2\n      mstore\n        /* \"#utility.yul\":5124:5126   */\n      0x20\n        /* \"#utility.yul\":5109:5127   */\n      dup2\n      add\n        /* \"#utility.yul\":5102:5136   */\n      dup4\n      swap1\n      mstore\n        /* \"src/gho/GhoToken.sol\":1527:1537  msg.sender */\n      caller\n      swap2\n        /* \"src/gho/GhoToken.sol\":1497:1574  FacilitatorBucketLevelUpdated(msg.sender, currentBucketLevel, newBucketLevel) */\n      0xacb6de9209e4f34974cb165eef5738f0cf0b4ea9819ef30d30f0f7d81272ab82\n      swap2\n        /* \"#utility.yul\":5041:5059   */\n      add\n        /* \"src/gho/GhoToken.sol\":1497:1574  FacilitatorBucketLevelUpdated(msg.sender, currentBucketLevel, newBucketLevel) */\n      mload(0x40)\n      dup1\n      swap2\n      sub\n      swap1\n      log2\n        /* \"src/gho/GhoToken.sol\":1112:1579  {... */\n      pop\n      pop\n      pop\n        /* \"src/gho/GhoToken.sol\":1056:1579  function mint(address account, uint256 amount) external {... */\n      pop\n      pop\n      jump\t// out\n        /* \"src/gho/GhoToken.sol\":1611:2031  function burn(uint256 amount) external {... */\n    tag_97:\n        /* \"src/gho/GhoToken.sol\":1673:1674  0 */\n      0x00\n        /* \"src/gho/GhoToken.sol\":1664:1670  amount */\n      dup2\n        /* \"src/gho/GhoToken.sol\":1664:1674  amount > 0 */\n      gt\n        /* \"src/gho/GhoToken.sol\":1656:1698  require(amount > 0, 'INVALID_BURN_AMOUNT') */\n      tag_213\n      jumpi\n      mload(0x40)\n      shl(0xe5, 0x461bcd)\n      dup2\n      mstore\n        /* \"#utility.yul\":8654:8656   */\n      0x20\n        /* \"src/gho/GhoToken.sol\":1656:1698  require(amount > 0, 'INVALID_BURN_AMOUNT') */\n      0x04\n      dup3\n      add\n        /* \"#utility.yul\":8636:8657   */\n      mstore\n        /* \"#utility.yul\":8693:8695   */\n      0x13\n        /* \"#utility.yul\":8673:8691   */\n      0x24\n      dup3\n      add\n        /* \"#utility.yul\":8666:8696   */\n      mstore\n      shl(0x6a, 0x1253959053125117d095549397d05353d55395)\n        /* \"#utility.yul\":8712:8730   */\n      0x44\n      dup3\n      add\n        /* \"#utility.yul\":8705:8754   */\n      mstore\n        /* \"#utility.yul\":8771:8789   */\n      0x64\n      add\n        /* \"src/gho/GhoToken.sol\":1656:1698  require(amount > 0, 'INVALID_BURN_AMOUNT') */\n      tag_202\n        /* \"#utility.yul\":8452:8795   */\n      jump\n        /* \"src/gho/GhoToken.sol\":1656:1698  require(amount > 0, 'INVALID_BURN_AMOUNT') */\n    tag_213:\n        /* \"src/gho/GhoToken.sol\":1743:1753  msg.sender */\n      caller\n        /* \"src/gho/GhoToken.sol\":1705:1726  Facilitator storage f */\n      0x00\n        /* \"src/gho/GhoToken.sol\":1729:1754  _facilitators[msg.sender] */\n      swap1\n      dup2\n      mstore\n        /* \"src/gho/GhoToken.sol\":1729:1742  _facilitators */\n      0x07\n        /* \"src/gho/GhoToken.sol\":1729:1754  _facilitators[msg.sender] */\n      0x20\n      mstore\n      0x40\n      dup2\n      keccak256\n        /* \"src/gho/GhoToken.sol\":1789:1802  f.bucketLevel */\n      dup1\n      sload\n        /* \"src/gho/GhoToken.sol\":1729:1754  _facilitators[msg.sender] */\n      swap1\n      swap2\n      shl(0x80, 0x01)\n        /* \"src/gho/GhoToken.sol\":1789:1802  f.bucketLevel */\n      swap1\n      swap2\n      div\n      sub(shl(0x80, 0x01), 0x01)\n      and\n      swap1\n        /* \"src/gho/GhoToken.sol\":1833:1860  currentBucketLevel - amount */\n      tag_216\n        /* \"src/gho/GhoToken.sol\":1854:1860  amount */\n      dup5\n        /* \"src/gho/GhoToken.sol\":1789:1802  f.bucketLevel */\n      dup4\n        /* \"src/gho/GhoToken.sol\":1833:1860  currentBucketLevel - amount */\n      tag_178\n      jump\t// in\n    tag_216:\n        /* \"src/gho/GhoToken.sol\":1866:1905  f.bucketLevel = uint128(newBucketLevel) */\n      dup4\n      sload\n      sub(shl(0x80, 0x01), 0x01)\n      dup1\n      dup4\n      and\n      shl(0x80, 0x01)\n      mul\n      swap2\n      and\n      or\n      dup5\n      sstore\n        /* \"src/gho/GhoToken.sol\":1808:1860  uint256 newBucketLevel = currentBucketLevel - amount */\n      swap1\n      pop\n        /* \"src/gho/GhoToken.sol\":1912:1937  _burn(msg.sender, amount) */\n      tag_217\n        /* \"src/gho/GhoToken.sol\":1918:1928  msg.sender */\n      caller\n        /* \"src/gho/GhoToken.sol\":1930:1936  amount */\n      dup6\n        /* \"src/gho/GhoToken.sol\":1912:1917  _burn */\n      tag_218\n        /* \"src/gho/GhoToken.sol\":1912:1937  _burn(msg.sender, amount) */\n      jump\t// in\n    tag_217:\n        /* \"src/gho/GhoToken.sol\":1949:2026  FacilitatorBucketLevelUpdated(msg.sender, currentBucketLevel, newBucketLevel) */\n      0x40\n      dup1\n      mload\n        /* \"#utility.yul\":5068:5093   */\n      dup4\n      dup2\n      mstore\n        /* \"#utility.yul\":5124:5126   */\n      0x20\n        /* \"#utility.yul\":5109:5127   */\n      dup2\n      add\n        /* \"#utility.yul\":5102:5136   */\n      dup4\n      swap1\n      mstore\n        /* \"src/gho/GhoToken.sol\":1979:1989  msg.sender */\n      caller\n      swap2\n        /* \"src/gho/GhoToken.sol\":1949:2026  FacilitatorBucketLevelUpdated(msg.sender, currentBucketLevel, newBucketLevel) */\n      0xacb6de9209e4f34974cb165eef5738f0cf0b4ea9819ef30d30f0f7d81272ab82\n      swap2\n        /* \"#utility.yul\":5041:5059   */\n      add\n        /* \"src/gho/GhoToken.sol\":1949:2026  FacilitatorBucketLevelUpdated(msg.sender, currentBucketLevel, newBucketLevel) */\n    tag_219:\n      mload(0x40)\n      dup1\n      swap2\n      sub\n      swap1\n      log2\n        /* \"src/gho/GhoToken.sol\":1650:2031  {... */\n      pop\n      pop\n      pop\n        /* \"src/gho/GhoToken.sol\":1611:2031  function burn(uint256 amount) external {... */\n      pop\n      jump\t// out\n        /* \"src/gho/GhoToken.sol\":2063:2733  function addFacilitator(... */\n    tag_116:\n        /* \"src/gho/GhoToken.sol\":661:698  keccak256('FACILITATOR_MANAGER_ROLE') */\n      0x5e20732f79076148980e17b6ce9f22756f85058fe2765420ed48a504bef5a8bc\n        /* \"lib/openzeppelin-contracts/contracts/access/AccessControl.sol\":2464:2480  _checkRole(role) */\n      tag_221\n        /* \"lib/openzeppelin-contracts/contracts/access/AccessControl.sol\":2475:2479  role */\n      dup2\n        /* \"lib/openzeppelin-contracts/contracts/access/AccessControl.sol\":2464:2474  _checkRole */\n      tag_185\n        /* \"lib/openzeppelin-contracts/contracts/access/AccessControl.sol\":2464:2480  _checkRole(role) */\n      jump\t// in\n    tag_221:\n      sub(shl(0xa0, 0x01), 0x01)\n        /* \"src/gho/GhoToken.sol\":2273:2306  _facilitators[facilitatorAddress] */\n      dup6\n      and\n        /* \"src/gho/GhoToken.sol\":2239:2270  Facilitator storage facilitator */\n      0x00\n        /* \"src/gho/GhoToken.sol\":2273:2306  _facilitators[facilitatorAddress] */\n      swap1\n      dup2\n      mstore\n        /* \"src/gho/GhoToken.sol\":2273:2286  _facilitators */\n      0x07\n        /* \"src/gho/GhoToken.sol\":2273:2306  _facilitators[facilitatorAddress] */\n      0x20\n      mstore\n      0x40\n      swap1\n      keccak256\n        /* \"src/gho/GhoToken.sol\":2326:2343  facilitator.label */\n      0x01\n      dup2\n      add\n        /* \"src/gho/GhoToken.sol\":2320:2351  bytes(facilitator.label).length */\n      dup1\n      sload\n      tag_223\n      swap1\n      tag_165\n      jump\t// in\n    tag_223:\n        /* \"src/gho/GhoToken.sol\":2320:2356  bytes(facilitator.label).length == 0 */\n      iszero\n      swap1\n      pop\n        /* \"src/gho/GhoToken.sol\":2312:2387  require(bytes(facilitator.label).length == 0, 'FACILITATOR_ALREADY_EXISTS') */\n      tag_224\n      jumpi\n      mload(0x40)\n      shl(0xe5, 0x461bcd)\n      dup2\n      mstore\n        /* \"#utility.yul\":9002:9004   */\n      0x20\n        /* \"src/gho/GhoToken.sol\":2312:2387  require(bytes(facilitator.label).length == 0, 'FACILITATOR_ALREADY_EXISTS') */\n      0x04\n      dup3\n      add\n        /* \"#utility.yul\":8984:9005   */\n      mstore\n        /* \"#utility.yul\":9041:9043   */\n      0x1a\n        /* \"#utility.yul\":9021:9039   */\n      0x24\n      dup3\n      add\n        /* \"#utility.yul\":9014:9044   */\n      mstore\n        /* \"#utility.yul\":9080:9108   */\n      0x464143494c495441544f525f414c52454144595f455849535453000000000000\n        /* \"#utility.yul\":9060:9078   */\n      0x44\n      dup3\n      add\n        /* \"#utility.yul\":9053:9109   */\n      mstore\n        /* \"#utility.yul\":9126:9144   */\n      0x64\n      add\n        /* \"src/gho/GhoToken.sol\":2312:2387  require(bytes(facilitator.label).length == 0, 'FACILITATOR_ALREADY_EXISTS') */\n      tag_202\n        /* \"#utility.yul\":8800:9150   */\n      jump\n        /* \"src/gho/GhoToken.sol\":2312:2387  require(bytes(facilitator.label).length == 0, 'FACILITATOR_ALREADY_EXISTS') */\n    tag_224:\n        /* \"src/gho/GhoToken.sol\":2401:2435  bytes(facilitatorLabel).length > 0 */\n      dup4\n        /* \"src/gho/GhoToken.sol\":2393:2453  require(bytes(facilitatorLabel).length > 0, 'INVALID_LABEL') */\n      tag_227\n      jumpi\n      mload(0x40)\n      shl(0xe5, 0x461bcd)\n      dup2\n      mstore\n        /* \"#utility.yul\":9357:9359   */\n      0x20\n        /* \"src/gho/GhoToken.sol\":2393:2453  require(bytes(facilitatorLabel).length > 0, 'INVALID_LABEL') */\n      0x04\n      dup3\n      add\n        /* \"#utility.yul\":9339:9360   */\n      mstore\n        /* \"#utility.yul\":9396:9398   */\n      0x0d\n        /* \"#utility.yul\":9376:9394   */\n      0x24\n      dup3\n      add\n        /* \"#utility.yul\":9369:9399   */\n      mstore\n      shl(0x9a, 0x1253959053125117d310509153)\n        /* \"#utility.yul\":9415:9433   */\n      0x44\n      dup3\n      add\n        /* \"#utility.yul\":9408:9451   */\n      mstore\n        /* \"#utility.yul\":9468:9486   */\n      0x64\n      add\n        /* \"src/gho/GhoToken.sol\":2393:2453  require(bytes(facilitatorLabel).length > 0, 'INVALID_LABEL') */\n      tag_202\n        /* \"#utility.yul\":9155:9492   */\n      jump\n        /* \"src/gho/GhoToken.sol\":2393:2453  require(bytes(facilitatorLabel).length > 0, 'INVALID_LABEL') */\n    tag_227:\n        /* \"src/gho/GhoToken.sol\":2460:2477  facilitator.label */\n      0x01\n      dup2\n      add\n        /* \"src/gho/GhoToken.sol\":2460:2496  facilitator.label = facilitatorLabel */\n      tag_230\n        /* \"src/gho/GhoToken.sol\":2480:2496  facilitatorLabel */\n      dup6\n      dup8\n        /* \"src/gho/GhoToken.sol\":2460:2477  facilitator.label */\n      dup4\n        /* \"src/gho/GhoToken.sol\":2460:2496  facilitator.label = facilitatorLabel */\n      tag_231\n      jump\t// in\n    tag_230:\n      pop\n        /* \"src/gho/GhoToken.sol\":2502:2545  facilitator.bucketCapacity = bucketCapacity */\n      dup1\n      sload\n      not(sub(shl(0x80, 0x01), 0x01))\n      and\n      sub(shl(0x80, 0x01), 0x01)\n      dup5\n      and\n      or\n      dup2\n      sstore\n        /* \"src/gho/GhoToken.sol\":2552:2593  _facilitatorsList.add(facilitatorAddress) */\n      tag_232\n        /* \"src/gho/GhoToken.sol\":2552:2569  _facilitatorsList */\n      0x08\n        /* \"src/gho/GhoToken.sol\":2574:2592  facilitatorAddress */\n      dup8\n        /* \"src/gho/GhoToken.sol\":2552:2573  _facilitatorsList.add */\n      tag_233\n        /* \"src/gho/GhoToken.sol\":2552:2593  _facilitatorsList.add(facilitatorAddress) */\n      jump\t// in\n    tag_232:\n      pop\n        /* \"src/gho/GhoToken.sol\":2682:2698  facilitatorLabel */\n      dup5\n      dup5\n        /* \"src/gho/GhoToken.sol\":2665:2699  abi.encodePacked(facilitatorLabel) */\n      add(0x20, mload(0x40))\n      tag_234\n      swap3\n      swap2\n      swap1\n      tag_235\n      jump\t// in\n    tag_234:\n      0x40\n      dup1\n      mload\n      not(0x1f)\n      dup2\n      dup5\n      sub\n      add\n      dup2\n      mstore\n      swap1\n      dup3\n      swap1\n      mstore\n        /* \"src/gho/GhoToken.sol\":2655:2700  keccak256(abi.encodePacked(facilitatorLabel)) */\n      dup1\n      mload\n        /* \"src/gho/GhoToken.sol\":2665:2699  abi.encodePacked(facilitatorLabel) */\n      0x20\n        /* \"src/gho/GhoToken.sol\":2655:2700  keccak256(abi.encodePacked(facilitatorLabel)) */\n      swap2\n      dup3\n      add\n      keccak256\n      sub(shl(0x80, 0x01), 0x01)\n        /* \"#utility.yul\":12094:12141   */\n      dup7\n      and\n        /* \"#utility.yul\":12076:12142   */\n      dup4\n      mstore\n        /* \"src/gho/GhoToken.sol\":2655:2700  keccak256(abi.encodePacked(facilitatorLabel)) */\n      swap2\n      sub(shl(0xa0, 0x01), 0x01)\n        /* \"src/gho/GhoToken.sol\":2605:2728  FacilitatorAdded(... */\n      dup10\n      and\n      swap2\n      0xdabd62626ada7b13e299389e94d768b294e5e24285ed2ffa1e5cd447c99c54ad\n      swap2\n        /* \"#utility.yul\":12049:12067   */\n      add\n        /* \"src/gho/GhoToken.sol\":2605:2728  FacilitatorAdded(... */\n      mload(0x40)\n      dup1\n      swap2\n      sub\n      swap1\n      log3\n        /* \"src/gho/GhoToken.sol\":2233:2733  {... */\n      pop\n        /* \"src/gho/GhoToken.sol\":2063:2733  function addFacilitator(... */\n      pop\n      pop\n      pop\n      pop\n      pop\n      jump\t// out\n        /* \"lib/openzeppelin-contracts/contracts/access/AccessControl.sol\":2854:2990  function hasRole(bytes32 role, address account) public view virtual returns (bool) {... */\n    tag_119:\n        /* \"lib/openzeppelin-contracts/contracts/access/AccessControl.sol\":2931:2935  bool */\n      0x00\n        /* \"lib/openzeppelin-contracts/contracts/access/AccessControl.sol\":2954:2966  _roles[role] */\n      swap2\n      dup3\n      mstore\n        /* \"lib/openzeppelin-contracts/contracts/access/AccessControl.sol\":2954:2960  _roles */\n      0x06\n        /* \"lib/openzeppelin-contracts/contracts/access/AccessControl.sol\":2954:2966  _roles[role] */\n      0x20\n      swap1\n      dup2\n      mstore\n      0x40\n      dup1\n      dup5\n      keccak256\n      sub(shl(0xa0, 0x01), 0x01)\n        /* \"lib/openzeppelin-contracts/contracts/access/AccessControl.sol\":2954:2983  _roles[role].hasRole[account] */\n      swap4\n      swap1\n      swap4\n      and\n      dup5\n      mstore\n      swap2\n      swap1\n      mstore\n      swap1\n      keccak256\n      sload\n      0xff\n      and\n      swap1\n        /* \"lib/openzeppelin-contracts/contracts/access/AccessControl.sol\":2854:2990  function hasRole(bytes32 role, address account) public view virtual returns (bool) {... */\n      jump\t// out\n        /* \"src/gho/ERC20.sol\":609:629  string public symbol */\n    tag_122:\n      0x01\n      dup1\n      sload\n      tag_164\n      swap1\n      tag_165\n      jump\t// in\n        /* \"src/gho/GhoToken.sol\":2765:3264  function removeFacilitator(... */\n    tag_126:\n        /* \"src/gho/GhoToken.sol\":661:698  keccak256('FACILITATOR_MANAGER_ROLE') */\n      0x5e20732f79076148980e17b6ce9f22756f85058fe2765420ed48a504bef5a8bc\n        /* \"lib/openzeppelin-contracts/contracts/access/AccessControl.sol\":2464:2480  _checkRole(role) */\n      tag_245\n        /* \"lib/openzeppelin-contracts/contracts/access/AccessControl.sol\":2475:2479  role */\n      dup2\n        /* \"lib/openzeppelin-contracts/contracts/access/AccessControl.sol\":2464:2474  _checkRole */\n      tag_185\n        /* \"lib/openzeppelin-contracts/contracts/access/AccessControl.sol\":2464:2480  _checkRole(role) */\n      jump\t// in\n    tag_245:\n      sub(shl(0xa0, 0x01), 0x01)\n        /* \"src/gho/GhoToken.sol\":2899:2932  _facilitators[facilitatorAddress] */\n      dup3\n      and\n        /* \"src/gho/GhoToken.sol\":2949:2950  0 */\n      0x00\n        /* \"src/gho/GhoToken.sol\":2899:2932  _facilitators[facilitatorAddress] */\n      swap1\n      dup2\n      mstore\n        /* \"src/gho/GhoToken.sol\":2899:2912  _facilitators */\n      0x07\n        /* \"src/gho/GhoToken.sol\":2899:2932  _facilitators[facilitatorAddress] */\n      0x20\n      mstore\n      0x40\n      dup2\n      keccak256\n        /* \"src/gho/GhoToken.sol\":2899:2938  _facilitators[facilitatorAddress].label */\n      0x01\n      add\n        /* \"src/gho/GhoToken.sol\":2893:2946  bytes(_facilitators[facilitatorAddress].label).length */\n      dup1\n      sload\n      tag_247\n      swap1\n      tag_165\n      jump\t// in\n    tag_247:\n      swap1\n      pop\n        /* \"src/gho/GhoToken.sol\":2893:2950  bytes(_facilitators[facilitatorAddress].label).length > 0 */\n      gt\n        /* \"src/gho/GhoToken.sol\":2878:2992  require(... */\n      tag_248\n      jumpi\n      mload(0x40)\n      shl(0xe5, 0x461bcd)\n      dup2\n      mstore\n        /* \"#utility.yul\":12355:12357   */\n      0x20\n        /* \"src/gho/GhoToken.sol\":2878:2992  require(... */\n      0x04\n      dup3\n      add\n        /* \"#utility.yul\":12337:12358   */\n      mstore\n        /* \"#utility.yul\":12394:12396   */\n      0x1a\n        /* \"#utility.yul\":12374:12392   */\n      0x24\n      dup3\n      add\n        /* \"#utility.yul\":12367:12397   */\n      mstore\n        /* \"#utility.yul\":12433:12461   */\n      0x464143494c495441544f525f444f45535f4e4f545f4558495354000000000000\n        /* \"#utility.yul\":12413:12431   */\n      0x44\n      dup3\n      add\n        /* \"#utility.yul\":12406:12462   */\n      mstore\n        /* \"#utility.yul\":12479:12497   */\n      0x64\n      add\n        /* \"src/gho/GhoToken.sol\":2878:2992  require(... */\n      tag_202\n        /* \"#utility.yul\":12153:12503   */\n      jump\n        /* \"src/gho/GhoToken.sol\":2878:2992  require(... */\n    tag_248:\n      sub(shl(0xa0, 0x01), 0x01)\n        /* \"src/gho/GhoToken.sol\":3013:3046  _facilitators[facilitatorAddress] */\n      dup3\n      and\n      0x00\n      swap1\n      dup2\n      mstore\n        /* \"src/gho/GhoToken.sol\":3013:3026  _facilitators */\n      0x07\n        /* \"src/gho/GhoToken.sol\":3013:3046  _facilitators[facilitatorAddress] */\n      0x20\n      mstore\n      0x40\n      swap1\n      keccak256\n        /* \"src/gho/GhoToken.sol\":3013:3058  _facilitators[facilitatorAddress].bucketLevel */\n      sload\n      shl(0x80, 0x01)\n      swap1\n      div\n      sub(shl(0x80, 0x01), 0x01)\n      and\n        /* \"src/gho/GhoToken.sol\":3013:3063  _facilitators[facilitatorAddress].bucketLevel == 0 */\n      iszero\n        /* \"src/gho/GhoToken.sol\":2998:3112  require(... */\n      tag_251\n      jumpi\n      mload(0x40)\n      shl(0xe5, 0x461bcd)\n      dup2\n      mstore\n        /* \"#utility.yul\":12710:12712   */\n      0x20\n        /* \"src/gho/GhoToken.sol\":2998:3112  require(... */\n      0x04\n      dup3\n      add\n        /* \"#utility.yul\":12692:12713   */\n      mstore\n        /* \"#utility.yul\":12749:12751   */\n      0x21\n        /* \"#utility.yul\":12729:12747   */\n      0x24\n      dup3\n      add\n        /* \"#utility.yul\":12722:12752   */\n      mstore\n        /* \"#utility.yul\":12788:12822   */\n      0x464143494c495441544f525f4255434b45545f4c4556454c5f4e4f545f5a4552\n        /* \"#utility.yul\":12768:12786   */\n      0x44\n      dup3\n      add\n        /* \"#utility.yul\":12761:12823   */\n      mstore\n      shl(0xf8, 0x4f)\n        /* \"#utility.yul\":12839:12857   */\n      0x64\n      dup3\n      add\n        /* \"#utility.yul\":12832:12863   */\n      mstore\n        /* \"#utility.yul\":12880:12899   */\n      0x84\n      add\n        /* \"src/gho/GhoToken.sol\":2998:3112  require(... */\n      tag_202\n        /* \"#utility.yul\":12508:12905   */\n      jump\n        /* \"src/gho/GhoToken.sol\":2998:3112  require(... */\n    tag_251:\n      sub(shl(0xa0, 0x01), 0x01)\n        /* \"src/gho/GhoToken.sol\":3126:3159  _facilitators[facilitatorAddress] */\n      dup3\n      and\n      0x00\n      swap1\n      dup2\n      mstore\n        /* \"src/gho/GhoToken.sol\":3126:3139  _facilitators */\n      0x07\n        /* \"src/gho/GhoToken.sol\":3126:3159  _facilitators[facilitatorAddress] */\n      0x20\n      mstore\n      0x40\n      dup2\n      keccak256\n        /* \"src/gho/GhoToken.sol\":3119:3159  delete _facilitators[facilitatorAddress] */\n      dup2\n      dup2\n      sstore\n        /* \"src/gho/GhoToken.sol\":3126:3159  _facilitators[facilitatorAddress] */\n      swap1\n        /* \"src/gho/GhoToken.sol\":3119:3159  delete _facilitators[facilitatorAddress] */\n      tag_254\n      0x01\n      dup4\n      add\n        /* \"src/gho/GhoToken.sol\":3126:3159  _facilitators[facilitatorAddress] */\n      dup3\n        /* \"src/gho/GhoToken.sol\":3119:3159  delete _facilitators[facilitatorAddress] */\n      tag_255\n      jump\t// in\n    tag_254:\n      pop\n        /* \"src/gho/GhoToken.sol\":3165:3209  _facilitatorsList.remove(facilitatorAddress) */\n      tag_256\n      swap1\n      pop\n        /* \"src/gho/GhoToken.sol\":3165:3182  _facilitatorsList */\n      0x08\n        /* \"src/gho/GhoToken.sol\":3190:3208  facilitatorAddress */\n      dup4\n        /* \"src/gho/GhoToken.sol\":3165:3189  _facilitatorsList.remove */\n      tag_257\n        /* \"src/gho/GhoToken.sol\":3165:3209  _facilitatorsList.remove(facilitatorAddress) */\n      jump\t// in\n    tag_256:\n      pop\n        /* \"src/gho/GhoToken.sol\":3221:3259  FacilitatorRemoved(facilitatorAddress) */\n      mload(0x40)\n      sub(shl(0xa0, 0x01), 0x01)\n      dup4\n      and\n      swap1\n      0xa8fe5b89f35f2ebd6f3f95a7ef215f4bd89179e10c101073ae76cffad14734cf\n      swap1\n      0x00\n      swap1\n      log2\n        /* \"src/gho/GhoToken.sol\":2765:3264  function removeFacilitator(... */\n      pop\n      pop\n      jump\t// out\n        /* \"src/gho/ERC20.sol\":2287:2624  function transfer(address to, uint256 amount) public virtual returns (bool) {... */\n    tag_132:\n        /* \"src/gho/ERC20.sol\":2379:2389  msg.sender */\n      caller\n        /* \"src/gho/ERC20.sol\":2357:2361  bool */\n      0x00\n        /* \"src/gho/ERC20.sol\":2369:2390  balanceOf[msg.sender] */\n      swap1\n      dup2\n      mstore\n        /* \"src/gho/ERC20.sol\":2369:2378  balanceOf */\n      0x03\n        /* \"src/gho/ERC20.sol\":2369:2390  balanceOf[msg.sender] */\n      0x20\n      mstore\n      0x40\n      dup2\n      keccak256\n        /* \"src/gho/ERC20.sol\":2369:2400  balanceOf[msg.sender] -= amount */\n      dup1\n      sload\n        /* \"src/gho/ERC20.sol\":2394:2400  amount */\n      dup4\n      swap2\n        /* \"src/gho/ERC20.sol\":2369:2390  balanceOf[msg.sender] */\n      swap1\n        /* \"src/gho/ERC20.sol\":2357:2361  bool */\n      dup4\n      swap1\n        /* \"src/gho/ERC20.sol\":2369:2400  balanceOf[msg.sender] -= amount */\n      tag_259\n      swap1\n        /* \"src/gho/ERC20.sol\":2394:2400  amount */\n      dup5\n      swap1\n        /* \"src/gho/ERC20.sol\":2369:2400  balanceOf[msg.sender] -= amount */\n      tag_178\n      jump\t// in\n    tag_259:\n      swap1\n      swap2\n      sstore\n      pop\n      pop\n      sub(shl(0xa0, 0x01), 0x01)\n        /* \"src/gho/ERC20.sol\":2528:2541  balanceOf[to] */\n      dup4\n      and\n      0x00\n      dup2\n      dup2\n      mstore\n        /* \"src/gho/ERC20.sol\":2528:2537  balanceOf */\n      0x03\n        /* \"src/gho/ERC20.sol\":2528:2541  balanceOf[to] */\n      0x20\n      mstore\n      0x40\n      swap1\n      dup2\n      swap1\n      keccak256\n        /* \"src/gho/ERC20.sol\":2528:2551  balanceOf[to] += amount */\n      dup1\n      sload\n      dup6\n      add\n      swap1\n      sstore\n        /* \"src/gho/ERC20.sol\":2569:2601  Transfer(msg.sender, to, amount) */\n      mload\n        /* \"src/gho/ERC20.sol\":2578:2588  msg.sender */\n      caller\n      swap1\n      0x00\n      dup1\n      mload\n      0x20\n      data_ada389e1fc24a8587c776340efb91b36e675792ab631816100d55df0b5cf3cbc\n      dup4\n      codecopy\n      dup2\n      mload\n      swap2\n      mstore\n        /* \"src/gho/ERC20.sol\":2569:2601  Transfer(msg.sender, to, amount) */\n      swap1\n      tag_171\n      swap1\n        /* \"src/gho/ERC20.sol\":2545:2551  amount */\n      dup7\n        /* \"#utility.yul\":1733:1758   */\n      dup2\n      mstore\n        /* \"#utility.yul\":1721:1723   */\n      0x20\n        /* \"#utility.yul\":1706:1724   */\n      add\n      swap1\n        /* \"#utility.yul\":1587:1764   */\n      jump\n        /* \"src/gho/GhoToken.sol\":3296:3741  function setFacilitatorBucketCapacity(... */\n    tag_142:\n        /* \"src/gho/GhoToken.sol\":777:809  keccak256('BUCKET_MANAGER_ROLE') */\n      0xc7f115822aabac0cd6b9d21b08c0c63819451a58157aecad689d1b5674fad408\n        /* \"lib/openzeppelin-contracts/contracts/access/AccessControl.sol\":2464:2480  _checkRole(role) */\n      tag_263\n        /* \"lib/openzeppelin-contracts/contracts/access/AccessControl.sol\":2475:2479  role */\n      dup2\n        /* \"lib/openzeppelin-contracts/contracts/access/AccessControl.sol\":2464:2474  _checkRole */\n      tag_185\n        /* \"lib/openzeppelin-contracts/contracts/access/AccessControl.sol\":2464:2480  _checkRole(role) */\n      jump\t// in\n    tag_263:\n      sub(shl(0xa0, 0x01), 0x01)\n        /* \"src/gho/GhoToken.sol\":3447:3473  _facilitators[facilitator] */\n      dup4\n      and\n        /* \"src/gho/GhoToken.sol\":3490:3491  0 */\n      0x00\n        /* \"src/gho/GhoToken.sol\":3447:3473  _facilitators[facilitator] */\n      swap1\n      dup2\n      mstore\n        /* \"src/gho/GhoToken.sol\":3447:3460  _facilitators */\n      0x07\n        /* \"src/gho/GhoToken.sol\":3447:3473  _facilitators[facilitator] */\n      0x20\n      mstore\n      0x40\n      dup2\n      keccak256\n        /* \"src/gho/GhoToken.sol\":3447:3479  _facilitators[facilitator].label */\n      0x01\n      add\n        /* \"src/gho/GhoToken.sol\":3441:3487  bytes(_facilitators[facilitator].label).length */\n      dup1\n      sload\n      tag_265\n      swap1\n      tag_165\n      jump\t// in\n    tag_265:\n      swap1\n      pop\n        /* \"src/gho/GhoToken.sol\":3441:3491  bytes(_facilitators[facilitator].label).length > 0 */\n      gt\n        /* \"src/gho/GhoToken.sol\":3433:3522  require(bytes(_facilitators[facilitator].label).length > 0, 'FACILITATOR_DOES_NOT_EXIST') */\n      tag_266\n      jumpi\n      mload(0x40)\n      shl(0xe5, 0x461bcd)\n      dup2\n      mstore\n        /* \"#utility.yul\":12355:12357   */\n      0x20\n        /* \"src/gho/GhoToken.sol\":3433:3522  require(bytes(_facilitators[facilitator].label).length > 0, 'FACILITATOR_DOES_NOT_EXIST') */\n      0x04\n      dup3\n      add\n        /* \"#utility.yul\":12337:12358   */\n      mstore\n        /* \"#utility.yul\":12394:12396   */\n      0x1a\n        /* \"#utility.yul\":12374:12392   */\n      0x24\n      dup3\n      add\n        /* \"#utility.yul\":12367:12397   */\n      mstore\n        /* \"#utility.yul\":12433:12461   */\n      0x464143494c495441544f525f444f45535f4e4f545f4558495354000000000000\n        /* \"#utility.yul\":12413:12431   */\n      0x44\n      dup3\n      add\n        /* \"#utility.yul\":12406:12462   */\n      mstore\n        /* \"#utility.yul\":12479:12497   */\n      0x64\n      add\n        /* \"src/gho/GhoToken.sol\":3433:3522  require(bytes(_facilitators[facilitator].label).length > 0, 'FACILITATOR_DOES_NOT_EXIST') */\n      tag_202\n        /* \"#utility.yul\":12153:12503   */\n      jump\n        /* \"src/gho/GhoToken.sol\":3433:3522  require(bytes(_facilitators[facilitator].label).length > 0, 'FACILITATOR_DOES_NOT_EXIST') */\n    tag_266:\n      sub(shl(0xa0, 0x01), 0x01)\n        /* \"src/gho/GhoToken.sol\":3551:3577  _facilitators[facilitator] */\n      dup4\n      and\n        /* \"src/gho/GhoToken.sol\":3529:3548  uint256 oldCapacity */\n      0x00\n        /* \"src/gho/GhoToken.sol\":3551:3577  _facilitators[facilitator] */\n      dup2\n      dup2\n      mstore\n        /* \"src/gho/GhoToken.sol\":3551:3564  _facilitators */\n      0x07\n        /* \"src/gho/GhoToken.sol\":3551:3577  _facilitators[facilitator] */\n      0x20\n      swap1\n      dup2\n      mstore\n      0x40\n      swap2\n      dup3\n      swap1\n      keccak256\n        /* \"src/gho/GhoToken.sol\":3551:3592  _facilitators[facilitator].bucketCapacity */\n      dup1\n      sload\n      not(sub(shl(0x80, 0x01), 0x01))\n        /* \"src/gho/GhoToken.sol\":3598:3653  _facilitators[facilitator].bucketCapacity = newCapacity */\n      dup2\n      and\n      sub(shl(0x80, 0x01), 0x01)\n      dup9\n      dup2\n      and\n      swap2\n      dup3\n      or\n      swap1\n      swap4\n      sstore\n        /* \"src/gho/GhoToken.sol\":3665:3736  FacilitatorBucketCapacityUpdated(facilitator, oldCapacity, newCapacity) */\n      dup5\n      mload\n        /* \"src/gho/GhoToken.sol\":3551:3592  _facilitators[facilitator].bucketCapacity */\n      swap3\n      swap1\n      swap2\n      and\n        /* \"#utility.yul\":13084:13109   */\n      dup1\n      dup4\n      mstore\n        /* \"#utility.yul\":13125:13143   */\n      swap3\n      dup3\n      add\n        /* \"#utility.yul\":13118:13193   */\n      mstore\n        /* \"src/gho/GhoToken.sol\":3551:3592  _facilitators[facilitator].bucketCapacity */\n      swap1\n      swap3\n        /* \"src/gho/GhoToken.sol\":3551:3577  _facilitators[facilitator] */\n      swap2\n        /* \"src/gho/GhoToken.sol\":3665:3736  FacilitatorBucketCapacityUpdated(facilitator, oldCapacity, newCapacity) */\n      0xc795c0a4927c3b6645e4e49a5a519af936b3c1c0e4c323a3f7251063f3f4bb0e\n      swap2\n        /* \"#utility.yul\":13057:13075   */\n      add\n        /* \"src/gho/GhoToken.sol\":3665:3736  FacilitatorBucketCapacityUpdated(facilitator, oldCapacity, newCapacity) */\n      tag_219\n        /* \"#utility.yul\":12910:13199   */\n      jump\n        /* \"src/gho/GhoToken.sol\":3773:3905  function getFacilitator(address facilitator) external view returns (Facilitator memory) {... */\n    tag_145:\n      0x40\n      dup1\n      mload\n      0x60\n      dup1\n      dup3\n      add\n      dup4\n      mstore\n      0x00\n      dup1\n      dup4\n      mstore\n      0x20\n      dup1\n      dup5\n      add\n      dup3\n      swap1\n      mstore\n      dup4\n      dup6\n      add\n      dup4\n      swap1\n      mstore\n      sub(shl(0xa0, 0x01), 0x01)\n        /* \"src/gho/GhoToken.sol\":3874:3900  _facilitators[facilitator] */\n      dup7\n      and\n      dup3\n      mstore\n        /* \"src/gho/GhoToken.sol\":3874:3887  _facilitators */\n      0x07\n        /* \"src/gho/GhoToken.sol\":3874:3900  _facilitators[facilitator] */\n      dup2\n      mstore\n      swap1\n      dup5\n      swap1\n      keccak256\n        /* \"src/gho/GhoToken.sol\":3867:3900  return _facilitators[facilitator] */\n      dup5\n      mload\n      swap3\n      dup4\n      add\n      dup6\n      mstore\n      dup1\n      sload\n      sub(shl(0x80, 0x01), 0x01)\n      dup1\n      dup3\n      and\n      dup6\n      mstore\n      shl(0x80, 0x01)\n      swap1\n      swap2\n      div\n      and\n      swap2\n      dup4\n      add\n      swap2\n      swap1\n      swap2\n      mstore\n      0x01\n      dup2\n      add\n      dup1\n      sload\n      swap4\n      swap5\n      swap3\n      swap4\n        /* \"src/gho/GhoToken.sol\":3874:3900  _facilitators[facilitator] */\n      swap2\n      swap3\n        /* \"src/gho/GhoToken.sol\":3867:3900  return _facilitators[facilitator] */\n      dup5\n      add\n      swap2\n      tag_273\n      swap1\n      tag_165\n      jump\t// in\n    tag_273:\n      dup1\n      0x1f\n      add\n      0x20\n      dup1\n      swap2\n      div\n      mul\n      0x20\n      add\n      mload(0x40)\n      swap1\n      dup2\n      add\n      0x40\n      mstore\n      dup1\n      swap3\n      swap2\n      swap1\n      dup2\n      dup2\n      mstore\n      0x20\n      add\n      dup3\n      dup1\n      sload\n      tag_274\n      swap1\n      tag_165\n      jump\t// in\n    tag_274:\n      dup1\n      iszero\n      tag_275\n      jumpi\n      dup1\n      0x1f\n      lt\n      tag_276\n      jumpi\n      0x0100\n      dup1\n      dup4\n      sload\n      div\n      mul\n      dup4\n      mstore\n      swap2\n      0x20\n      add\n      swap2\n      jump(tag_275)\n    tag_276:\n      dup3\n      add\n      swap2\n      swap1\n      0x00\n      mstore\n      keccak256(0x00, 0x20)\n      swap1\n    tag_277:\n      dup2\n      sload\n      dup2\n      mstore\n      swap1\n      0x01\n      add\n      swap1\n      0x20\n      add\n      dup1\n      dup4\n      gt\n      tag_277\n      jumpi\n      dup3\n      swap1\n      sub\n      0x1f\n      and\n      dup3\n      add\n      swap2\n    tag_275:\n      pop\n      pop\n      pop\n      pop\n      pop\n      dup2\n      mstore\n      pop\n      pop\n      swap1\n      pop\n        /* \"src/gho/GhoToken.sol\":3773:3905  function getFacilitator(address facilitator) external view returns (Facilitator memory) {... */\n      swap2\n      swap1\n      pop\n      jump\t// out\n        /* \"src/gho/ERC20.sol\":3333:4194  function permit(... */\n    tag_151:\n        /* \"src/gho/ERC20.sol\":3518:3533  block.timestamp */\n      timestamp\n        /* \"src/gho/ERC20.sol\":3506:3514  deadline */\n      dup5\n        /* \"src/gho/ERC20.sol\":3506:3533  deadline >= block.timestamp */\n      lt\n      iszero\n        /* \"src/gho/ERC20.sol\":3498:3561  require(deadline >= block.timestamp, 'PERMIT_DEADLINE_EXPIRED') */\n      tag_279\n      jumpi\n      mload(0x40)\n      shl(0xe5, 0x461bcd)\n      dup2\n      mstore\n        /* \"#utility.yul\":13406:13408   */\n      0x20\n        /* \"src/gho/ERC20.sol\":3498:3561  require(deadline >= block.timestamp, 'PERMIT_DEADLINE_EXPIRED') */\n      0x04\n      dup3\n      add\n        /* \"#utility.yul\":13388:13409   */\n      mstore\n        /* \"#utility.yul\":13445:13447   */\n      0x17\n        /* \"#utility.yul\":13425:13443   */\n      0x24\n      dup3\n      add\n        /* \"#utility.yul\":13418:13448   */\n      mstore\n        /* \"#utility.yul\":13484:13509   */\n      0x5045524d49545f444541444c494e455f45585049524544000000000000000000\n        /* \"#utility.yul\":13464:13482   */\n      0x44\n      dup3\n      add\n        /* \"#utility.yul\":13457:13510   */\n      mstore\n        /* \"#utility.yul\":13527:13545   */\n      0x64\n      add\n        /* \"src/gho/ERC20.sol\":3498:3561  require(deadline >= block.timestamp, 'PERMIT_DEADLINE_EXPIRED') */\n      tag_202\n        /* \"#utility.yul\":13204:13551   */\n      jump\n        /* \"src/gho/ERC20.sol\":3498:3561  require(deadline >= block.timestamp, 'PERMIT_DEADLINE_EXPIRED') */\n    tag_279:\n        /* \"src/gho/ERC20.sol\":3708:3722  bytes32 digest */\n      0x00\n        /* \"src/gho/ERC20.sol\":3794:3812  DOMAIN_SEPARATOR() */\n      tag_282\n        /* \"src/gho/ERC20.sol\":3794:3810  DOMAIN_SEPARATOR */\n      tag_86\n        /* \"src/gho/ERC20.sol\":3794:3812  DOMAIN_SEPARATOR() */\n      jump\t// in\n    tag_282:\n      sub(shl(0xa0, 0x01), 0x01)\n        /* \"src/gho/ERC20.sol\":3885:3898  nonces[owner] */\n      dup10\n      dup2\n      and\n      0x00\n      dup2\n      dup2\n      mstore\n        /* \"src/gho/ERC20.sol\":3885:3891  nonces */\n      0x05\n        /* \"src/gho/ERC20.sol\":3885:3898  nonces[owner] */\n      0x20\n      swap1\n      dup2\n      mstore\n      0x40\n      swap2\n      dup3\n      swap1\n      keccak256\n        /* \"src/gho/ERC20.sol\":3885:3900  nonces[owner]++ */\n      dup1\n      sload\n      0x01\n      dup2\n      add\n      swap1\n      swap2\n      sstore\n        /* \"src/gho/ERC20.sol\":3834:3911  abi.encode(PERMIT_TYPEHASH, owner, spender, value, nonces[owner]++, deadline) */\n      dup3\n      mload\n        /* \"src/gho/ERC20.sol\":1231:1326  keccak256('Permit(address owner,address spender,uint256 value,uint256 nonce,uint256 deadline)') */\n      0x6e71edae12b1b97f4d1f60370fef10105fa2faae0126114a169c64845d6126c9\n        /* \"src/gho/ERC20.sol\":3834:3911  abi.encode(PERMIT_TYPEHASH, owner, spender, value, nonces[owner]++, deadline) */\n      dup2\n      dup5\n      add\n        /* \"#utility.yul\":13843:13868   */\n      mstore\n        /* \"#utility.yul\":13922:13940   */\n      dup1\n      dup5\n      add\n        /* \"#utility.yul\":13915:13958   */\n      swap5\n      swap1\n      swap5\n      mstore\n        /* \"#utility.yul\":13994:14009   */\n      swap4\n      dup13\n      and\n        /* \"#utility.yul\":13974:13992   */\n      0x60\n      dup5\n      add\n        /* \"#utility.yul\":13967:14010   */\n      mstore\n        /* \"#utility.yul\":14026:14044   */\n      0x80\n      dup4\n      add\n        /* \"#utility.yul\":14019:14053   */\n      dup12\n      swap1\n      mstore\n        /* \"#utility.yul\":14069:14088   */\n      0xa0\n      dup4\n      add\n        /* \"#utility.yul\":14062:14097   */\n      swap4\n      swap1\n      swap4\n      mstore\n        /* \"#utility.yul\":14113:14132   */\n      0xc0\n      dup1\n      dup4\n      add\n        /* \"#utility.yul\":14106:14141   */\n      dup11\n      swap1\n      mstore\n        /* \"src/gho/ERC20.sol\":3834:3911  abi.encode(PERMIT_TYPEHASH, owner, spender, value, nonces[owner]++, deadline) */\n      dup2\n      mload\n      dup1\n      dup5\n      sub\n      swap1\n      swap2\n      add\n      dup2\n      mstore\n        /* \"#utility.yul\":13815:13834   */\n      0xe0\n      dup4\n      add\n        /* \"src/gho/ERC20.sol\":3834:3911  abi.encode(PERMIT_TYPEHASH, owner, spender, value, nonces[owner]++, deadline) */\n      swap1\n      swap2\n      mstore\n        /* \"src/gho/ERC20.sol\":3824:3912  keccak256(abi.encode(PERMIT_TYPEHASH, owner, spender, value, nonces[owner]++, deadline)) */\n      dup1\n      mload\n      swap3\n      add\n      swap2\n      swap1\n      swap2\n      keccak256\n      shl(0xf0, 0x1901)\n        /* \"src/gho/ERC20.sol\":3744:3922  abi.encodePacked(... */\n      0x0100\n      dup4\n      add\n        /* \"#utility.yul\":14410:14437   */\n      mstore\n        /* \"#utility.yul\":14453:14464   */\n      0x0102\n      dup3\n      add\n        /* \"#utility.yul\":14446:14473   */\n      swap3\n      swap1\n      swap3\n      mstore\n        /* \"#utility.yul\":14489:14501   */\n      0x0122\n      dup2\n      add\n        /* \"#utility.yul\":14482:14510   */\n      swap2\n      swap1\n      swap2\n      mstore\n        /* \"#utility.yul\":14526:14538   */\n      0x0142\n      add\n        /* \"src/gho/ERC20.sol\":3744:3922  abi.encodePacked(... */\n      0x40\n      dup1\n      mload\n      not(0x1f)\n      dup2\n      dup5\n      sub\n      add\n      dup2\n      mstore\n      dup3\n      dup3\n      mstore\n        /* \"src/gho/ERC20.sol\":3725:3930  keccak256(... */\n      dup1\n      mload\n        /* \"src/gho/ERC20.sol\":3744:3922  abi.encodePacked(... */\n      0x20\n        /* \"src/gho/ERC20.sol\":3725:3930  keccak256(... */\n      swap2\n      dup3\n      add\n      keccak256\n        /* \"src/gho/ERC20.sol\":3939:3963  address recoveredAddress */\n      0x00\n        /* \"src/gho/ERC20.sol\":3966:3992  ecrecover(digest, v, r, s) */\n      dup1\n      dup6\n      mstore\n      swap2\n      dup5\n      add\n      dup1\n      dup5\n      mstore\n        /* \"#utility.yul\":14776:14801   */\n      dup2\n      swap1\n      mstore\n        /* \"#utility.yul\":14849:14853   */\n      0xff\n        /* \"#utility.yul\":14837:14854   */\n      dup9\n      and\n        /* \"#utility.yul\":14817:14835   */\n      swap3\n      dup5\n      add\n        /* \"#utility.yul\":14810:14855   */\n      swap3\n      swap1\n      swap3\n      mstore\n        /* \"#utility.yul\":14871:14889   */\n      0x60\n      dup4\n      add\n        /* \"#utility.yul\":14864:14898   */\n      dup7\n      swap1\n      mstore\n        /* \"#utility.yul\":14914:14932   */\n      0x80\n      dup4\n      add\n        /* \"#utility.yul\":14907:14941   */\n      dup6\n      swap1\n      mstore\n        /* \"src/gho/ERC20.sol\":3725:3930  keccak256(... */\n      swap1\n      swap3\n      pop\n        /* \"src/gho/ERC20.sol\":3939:3963  address recoveredAddress */\n      swap1\n        /* \"src/gho/ERC20.sol\":3966:3992  ecrecover(digest, v, r, s) */\n      0x01\n      swap1\n        /* \"#utility.yul\":14748:14767   */\n      0xa0\n      add\n        /* \"src/gho/ERC20.sol\":3966:3992  ecrecover(digest, v, r, s) */\n      0x20\n      mload(0x40)\n      0x20\n      dup2\n      sub\n      swap1\n      dup1\n      dup5\n      sub\n      swap1\n      dup6\n      gas\n      staticcall\n      iszero\n      dup1\n      iszero\n      tag_290\n      jumpi\n      returndatasize\n      0x00\n      dup1\n      returndatacopy\n      revert(0x00, returndatasize)\n    tag_290:\n      pop\n      pop\n      mload(add(not(0x1f), mload(0x40)))\n      swap2\n      pop\n      pop\n      sub(shl(0xa0, 0x01), 0x01)\n        /* \"src/gho/ERC20.sol\":4009:4039  recoveredAddress != address(0) */\n      dup2\n      and\n      iszero\n      dup1\n      iszero\n      swap1\n        /* \"src/gho/ERC20.sol\":4009:4068  recoveredAddress != address(0) && recoveredAddress == owner */\n      tag_291\n      jumpi\n      pop\n        /* \"src/gho/ERC20.sol\":4063:4068  owner */\n      dup9\n      sub(shl(0xa0, 0x01), 0x01)\n        /* \"src/gho/ERC20.sol\":4043:4068  recoveredAddress == owner */\n      and\n        /* \"src/gho/ERC20.sol\":4043:4059  recoveredAddress */\n      dup2\n      sub(shl(0xa0, 0x01), 0x01)\n        /* \"src/gho/ERC20.sol\":4043:4068  recoveredAddress == owner */\n      and\n      eq\n        /* \"src/gho/ERC20.sol\":4009:4068  recoveredAddress != address(0) && recoveredAddress == owner */\n    tag_291:\n        /* \"src/gho/ERC20.sol\":4001:4087  require(recoveredAddress != address(0) && recoveredAddress == owner, 'INVALID_SIGNER') */\n      tag_292\n      jumpi\n      mload(0x40)\n      shl(0xe5, 0x461bcd)\n      dup2\n      mstore\n        /* \"#utility.yul\":15154:15156   */\n      0x20\n        /* \"src/gho/ERC20.sol\":4001:4087  require(recoveredAddress != address(0) && recoveredAddress == owner, 'INVALID_SIGNER') */\n      0x04\n      dup3\n      add\n        /* \"#utility.yul\":15136:15157   */\n      mstore\n        /* \"#utility.yul\":15193:15195   */\n      0x0e\n        /* \"#utility.yul\":15173:15191   */\n      0x24\n      dup3\n      add\n        /* \"#utility.yul\":15166:15196   */\n      mstore\n      shl(0x91, 0x24a72b20a624a22fa9a4a3a722a9)\n        /* \"#utility.yul\":15212:15230   */\n      0x44\n      dup3\n      add\n        /* \"#utility.yul\":15205:15249   */\n      mstore\n        /* \"#utility.yul\":15266:15284   */\n      0x64\n      add\n        /* \"src/gho/ERC20.sol\":4001:4087  require(recoveredAddress != address(0) && recoveredAddress == owner, 'INVALID_SIGNER') */\n      tag_202\n        /* \"#utility.yul\":14952:15290   */\n      jump\n        /* \"src/gho/ERC20.sol\":4001:4087  require(recoveredAddress != address(0) && recoveredAddress == owner, 'INVALID_SIGNER') */\n    tag_292:\n      sub(shl(0xa0, 0x01), 0x01)\n        /* \"src/gho/ERC20.sol\":4096:4123  allowance[recoveredAddress] */\n      swap1\n      dup2\n      and\n      0x00\n      swap1\n      dup2\n      mstore\n        /* \"src/gho/ERC20.sol\":4096:4105  allowance */\n      0x04\n        /* \"src/gho/ERC20.sol\":4096:4123  allowance[recoveredAddress] */\n      0x20\n      swap1\n      dup2\n      mstore\n      0x40\n      dup1\n      dup4\n      keccak256\n        /* \"src/gho/ERC20.sol\":4096:4132  allowance[recoveredAddress][spender] */\n      dup12\n      dup6\n      and\n      dup1\n      dup6\n      mstore\n      swap1\n      dup4\n      mstore\n      swap3\n      dup2\n      swap1\n      keccak256\n        /* \"src/gho/ERC20.sol\":4096:4140  allowance[recoveredAddress][spender] = value */\n      dup11\n      swap1\n      sstore\n        /* \"src/gho/ERC20.sol\":4158:4189  Approval(owner, spender, value) */\n      mload\n        /* \"#utility.yul\":1733:1758   */\n      dup10\n      dup2\n      mstore\n        /* \"src/gho/ERC20.sol\":4096:4132  allowance[recoveredAddress][spender] */\n      swap2\n      swap4\n      pop\n        /* \"src/gho/ERC20.sol\":4158:4189  Approval(owner, spender, value) */\n      swap2\n      dup11\n      and\n      swap2\n      0x8c5be1e5ebec7d5bd14f71427d1e84f3dd0314c0f7b2291e5b200ac8c7c3b925\n      swap2\n        /* \"#utility.yul\":1706:1724   */\n      add\n        /* \"src/gho/ERC20.sol\":4158:4189  Approval(owner, spender, value) */\n      mload(0x40)\n      dup1\n      swap2\n      sub\n      swap1\n      log3\n        /* \"src/gho/ERC20.sol\":3333:4194  function permit(... */\n      pop\n      pop\n      pop\n      pop\n      pop\n      pop\n      pop\n      jump\t// out\n        /* \"lib/openzeppelin-contracts/contracts/access/AccessControl.sol\":4642:4780  function revokeRole(bytes32 role, address account) public virtual onlyRole(getRoleAdmin(role)) {... */\n    tag_154:\n        /* \"lib/openzeppelin-contracts/contracts/access/AccessControl.sol\":3875:3882  bytes32 */\n      0x00\n        /* \"lib/openzeppelin-contracts/contracts/access/AccessControl.sol\":3901:3913  _roles[role] */\n      dup3\n      dup2\n      mstore\n        /* \"lib/openzeppelin-contracts/contracts/access/AccessControl.sol\":3901:3907  _roles */\n      0x06\n        /* \"lib/openzeppelin-contracts/contracts/access/AccessControl.sol\":3901:3913  _roles[role] */\n      0x20\n      mstore\n      0x40\n      swap1\n      keccak256\n        /* \"lib/openzeppelin-contracts/contracts/access/AccessControl.sol\":3901:3923  _roles[role].adminRole */\n      0x01\n      add\n      sload\n        /* \"lib/openzeppelin-contracts/contracts/access/AccessControl.sol\":2464:2480  _checkRole(role) */\n      tag_298\n        /* \"lib/openzeppelin-contracts/contracts/access/AccessControl.sol\":2475:2479  role */\n      dup2\n        /* \"lib/openzeppelin-contracts/contracts/access/AccessControl.sol\":2464:2474  _checkRole */\n      tag_185\n        /* \"lib/openzeppelin-contracts/contracts/access/AccessControl.sol\":2464:2480  _checkRole(role) */\n      jump\t// in\n    tag_298:\n        /* \"lib/openzeppelin-contracts/contracts/access/AccessControl.sol\":4747:4773  _revokeRole(role, account) */\n      tag_187\n        /* \"lib/openzeppelin-contracts/contracts/access/AccessControl.sol\":4759:4763  role */\n      dup4\n        /* \"lib/openzeppelin-contracts/contracts/access/AccessControl.sol\":4765:4772  account */\n      dup4\n        /* \"lib/openzeppelin-contracts/contracts/access/AccessControl.sol\":4747:4758  _revokeRole */\n      tag_199\n        /* \"lib/openzeppelin-contracts/contracts/access/AccessControl.sol\":4747:4773  _revokeRole(role, account) */\n      jump\t// in\n        /* \"lib/openzeppelin-contracts/contracts/utils/structs/EnumerableSet.sol\":10270:10570  function values(AddressSet storage set) internal view returns (address[] memory) {... */\n    tag_174:\n        /* \"lib/openzeppelin-contracts/contracts/utils/structs/EnumerableSet.sol\":10333:10349  address[] memory */\n      0x60\n        /* \"lib/openzeppelin-contracts/contracts/utils/structs/EnumerableSet.sol\":10361:10383  bytes32[] memory store */\n      0x00\n        /* \"lib/openzeppelin-contracts/contracts/utils/structs/EnumerableSet.sol\":10386:10405  _values(set._inner) */\n      tag_303\n        /* \"lib/openzeppelin-contracts/contracts/utils/structs/EnumerableSet.sol\":10394:10397  set */\n      dup4\n        /* \"lib/openzeppelin-contracts/contracts/utils/structs/EnumerableSet.sol\":10386:10393  _values */\n      tag_304\n        /* \"lib/openzeppelin-contracts/contracts/utils/structs/EnumerableSet.sol\":10386:10405  _values(set._inner) */\n      jump\t// in\n    tag_303:\n        /* \"lib/openzeppelin-contracts/contracts/utils/structs/EnumerableSet.sol\":10361:10405  bytes32[] memory store = _values(set._inner) */\n      swap4\n        /* \"lib/openzeppelin-contracts/contracts/utils/structs/EnumerableSet.sol\":10270:10570  function values(AddressSet storage set) internal view returns (address[] memory) {... */\n      swap3\n      pop\n      pop\n      pop\n      jump\t// out\n        /* \"lib/openzeppelin-contracts/contracts/access/AccessControl.sol\":3199:3302  function _checkRole(bytes32 role) internal view virtual {... */\n    tag_185:\n        /* \"lib/openzeppelin-contracts/contracts/access/AccessControl.sol\":3265:3295  _checkRole(role, _msgSender()) */\n      tag_306\n        /* \"lib/openzeppelin-contracts/contracts/access/AccessControl.sol\":3276:3280  role */\n      dup2\n        /* \"lib/openzeppelin-contracts/contracts/utils/Context.sol\":735:745  msg.sender */\n      caller\n        /* \"lib/openzeppelin-contracts/contracts/access/AccessControl.sol\":3265:3275  _checkRole */\n      tag_308\n        /* \"lib/openzeppelin-contracts/contracts/access/AccessControl.sol\":3265:3295  _checkRole(role, _msgSender()) */\n      jump\t// in\n    tag_306:\n        /* \"lib/openzeppelin-contracts/contracts/access/AccessControl.sol\":3199:3302  function _checkRole(bytes32 role) internal view virtual {... */\n      pop\n      jump\t// out\n        /* \"lib/openzeppelin-contracts/contracts/access/AccessControl.sol\":6179:6495  function _grantRole(bytes32 role, address account) internal virtual returns (bool) {... */\n    tag_188:\n        /* \"lib/openzeppelin-contracts/contracts/access/AccessControl.sol\":6256:6260  bool */\n      0x00\n        /* \"lib/openzeppelin-contracts/contracts/access/AccessControl.sol\":6277:6299  hasRole(role, account) */\n      tag_310\n        /* \"lib/openzeppelin-contracts/contracts/access/AccessControl.sol\":6285:6289  role */\n      dup4\n        /* \"lib/openzeppelin-contracts/contracts/access/AccessControl.sol\":6291:6298  account */\n      dup4\n        /* \"lib/openzeppelin-contracts/contracts/access/AccessControl.sol\":6277:6284  hasRole */\n      tag_119\n        /* \"lib/openzeppelin-contracts/contracts/access/AccessControl.sol\":6277:6299  hasRole(role, account) */\n      jump\t// in\n    tag_310:\n        /* \"lib/openzeppelin-contracts/contracts/access/AccessControl.sol\":6272:6489  if (!hasRole(role, account)) {... */\n      tag_311\n      jumpi\n        /* \"lib/openzeppelin-contracts/contracts/access/AccessControl.sol\":6315:6327  _roles[role] */\n      0x00\n      dup4\n      dup2\n      mstore\n        /* \"lib/openzeppelin-contracts/contracts/access/AccessControl.sol\":6315:6321  _roles */\n      0x06\n        /* \"lib/openzeppelin-contracts/contracts/access/AccessControl.sol\":6315:6327  _roles[role] */\n      0x20\n      swap1\n      dup2\n      mstore\n      0x40\n      dup1\n      dup4\n      keccak256\n      sub(shl(0xa0, 0x01), 0x01)\n        /* \"lib/openzeppelin-contracts/contracts/access/AccessControl.sol\":6315:6344  _roles[role].hasRole[account] */\n      dup7\n      and\n      dup5\n      mstore\n      swap1\n      swap2\n      mstore\n      swap1\n      keccak256\n        /* \"lib/openzeppelin-contracts/contracts/access/AccessControl.sol\":6315:6351  _roles[role].hasRole[account] = true */\n      dup1\n      sload\n      not(0xff)\n      and\n        /* \"lib/openzeppelin-contracts/contracts/access/AccessControl.sol\":6347:6351  true */\n      0x01\n        /* \"lib/openzeppelin-contracts/contracts/access/AccessControl.sol\":6315:6351  _roles[role].hasRole[account] = true */\n      or\n      swap1\n      sstore\n        /* \"lib/openzeppelin-contracts/contracts/access/AccessControl.sol\":6397:6409  _msgSender() */\n      tag_312\n        /* \"lib/openzeppelin-contracts/contracts/utils/Context.sol\":735:745  msg.sender */\n      caller\n      swap1\n        /* \"lib/openzeppelin-contracts/contracts/utils/Context.sol\":656:752  function _msgSender() internal view virtual returns (address) {... */\n      jump\n        /* \"lib/openzeppelin-contracts/contracts/access/AccessControl.sol\":6397:6409  _msgSender() */\n    tag_312:\n      sub(shl(0xa0, 0x01), 0x01)\n        /* \"lib/openzeppelin-contracts/contracts/access/AccessControl.sol\":6370:6410  RoleGranted(role, account, _msgSender()) */\n      and\n        /* \"lib/openzeppelin-contracts/contracts/access/AccessControl.sol\":6388:6395  account */\n      dup3\n      sub(shl(0xa0, 0x01), 0x01)\n        /* \"lib/openzeppelin-contracts/contracts/access/AccessControl.sol\":6370:6410  RoleGranted(role, account, _msgSender()) */\n      and\n        /* \"lib/openzeppelin-contracts/contracts/access/AccessControl.sol\":6382:6386  role */\n      dup5\n        /* \"lib/openzeppelin-contracts/contracts/access/AccessControl.sol\":6370:6410  RoleGranted(role, account, _msgSender()) */\n      0x2f8788117e7eff1d82e926ec794901d17c78024a50270940304540a733656f0d\n      mload(0x40)\n      mload(0x40)\n      dup1\n      swap2\n      sub\n      swap1\n      log4\n      pop\n        /* \"lib/openzeppelin-contracts/contracts/access/AccessControl.sol\":6431:6435  true */\n      0x01\n        /* \"lib/openzeppelin-contracts/contracts/access/AccessControl.sol\":6424:6435  return true */\n      jump(tag_162)\n        /* \"lib/openzeppelin-contracts/contracts/access/AccessControl.sol\":6272:6489  if (!hasRole(role, account)) {... */\n    tag_311:\n      pop\n        /* \"lib/openzeppelin-contracts/contracts/access/AccessControl.sol\":6473:6478  false */\n      0x00\n        /* \"lib/openzeppelin-contracts/contracts/access/AccessControl.sol\":6466:6478  return false */\n      jump(tag_162)\n        /* \"src/gho/ERC20.sol\":4373:4759  function computeDomainSeparator() internal view virtual returns (bytes32) {... */\n    tag_192:\n        /* \"src/gho/ERC20.sol\":4438:4445  bytes32 */\n      0x00\n        /* \"src/gho/ERC20.sol\":4507:4626  keccak256(... */\n      0x8b73c3c69bb8fe3d512ecc4cf759cc79239f7b179b0ffacaa9a75d522b39400f\n        /* \"src/gho/ERC20.sol\":4654:4658  name */\n      0x00\n        /* \"src/gho/ERC20.sol\":4638:4660  keccak256(bytes(name)) */\n      mload(0x40)\n      tag_315\n      swap2\n      swap1\n      tag_316\n      jump\t// in\n    tag_315:\n      0x40\n      dup1\n      mload\n      swap2\n      dup3\n      swap1\n      sub\n      dup3\n      keccak256\n        /* \"src/gho/ERC20.sol\":4485:4746  abi.encode(... */\n      0x20\n      dup4\n      add\n        /* \"#utility.yul\":16404:16429   */\n      swap4\n      swap1\n      swap4\n      mstore\n        /* \"#utility.yul\":16445:16463   */\n      dup2\n      add\n        /* \"#utility.yul\":16438:16472   */\n      swap2\n      swap1\n      swap2\n      mstore\n        /* \"src/gho/ERC20.sol\":4672:4686  keccak256('1') */\n      0xc89efdaa54c0f20c7adf612882df0950f5a951637e0307cdcb4c672f298b8bc6\n        /* \"#utility.yul\":16488:16506   */\n      0x60\n      dup3\n      add\n        /* \"#utility.yul\":16481:16515   */\n      mstore\n        /* \"src/gho/ERC20.sol\":4698:4711  block.chainid */\n      chainid\n        /* \"#utility.yul\":16531:16549   */\n      0x80\n      dup3\n      add\n        /* \"#utility.yul\":16524:16558   */\n      mstore\n        /* \"src/gho/ERC20.sol\":4731:4735  this */\n      address\n        /* \"#utility.yul\":16574:16593   */\n      0xa0\n      dup3\n      add\n        /* \"#utility.yul\":16567:16628   */\n      mstore\n        /* \"#utility.yul\":16376:16395   */\n      0xc0\n      add\n        /* \"src/gho/ERC20.sol\":4485:4746  abi.encode(... */\n      mload(0x40)\n      0x20\n      dup2\n      dup4\n      sub\n      sub\n      dup2\n      mstore\n      swap1\n      0x40\n      mstore\n        /* \"src/gho/ERC20.sol\":4466:4754  keccak256(... */\n      dup1\n      mload\n      swap1\n      0x20\n      add\n      keccak256\n        /* \"src/gho/ERC20.sol\":4453:4754  return... */\n      swap1\n      pop\n        /* \"src/gho/ERC20.sol\":4373:4759  function computeDomainSeparator() internal view virtual returns (bytes32) {... */\n      swap1\n      jump\t// out\n        /* \"lib/openzeppelin-contracts/contracts/access/AccessControl.sol\":6730:7047  function _revokeRole(bytes32 role, address account) internal virtual returns (bool) {... */\n    tag_199:\n        /* \"lib/openzeppelin-contracts/contracts/access/AccessControl.sol\":6808:6812  bool */\n      0x00\n        /* \"lib/openzeppelin-contracts/contracts/access/AccessControl.sol\":6828:6850  hasRole(role, account) */\n      tag_321\n        /* \"lib/openzeppelin-contracts/contracts/access/AccessControl.sol\":6836:6840  role */\n      dup4\n        /* \"lib/openzeppelin-contracts/contracts/access/AccessControl.sol\":6842:6849  account */\n      dup4\n        /* \"lib/openzeppelin-contracts/contracts/access/AccessControl.sol\":6828:6835  hasRole */\n      tag_119\n        /* \"lib/openzeppelin-contracts/contracts/access/AccessControl.sol\":6828:6850  hasRole(role, account) */\n      jump\t// in\n    tag_321:\n        /* \"lib/openzeppelin-contracts/contracts/access/AccessControl.sol\":6824:7041  if (hasRole(role, account)) {... */\n      iszero\n      tag_311\n      jumpi\n        /* \"lib/openzeppelin-contracts/contracts/access/AccessControl.sol\":6898:6903  false */\n      0x00\n        /* \"lib/openzeppelin-contracts/contracts/access/AccessControl.sol\":6866:6878  _roles[role] */\n      dup4\n      dup2\n      mstore\n        /* \"lib/openzeppelin-contracts/contracts/access/AccessControl.sol\":6866:6872  _roles */\n      0x06\n        /* \"lib/openzeppelin-contracts/contracts/access/AccessControl.sol\":6866:6878  _roles[role] */\n      0x20\n      swap1\n      dup2\n      mstore\n      0x40\n      dup1\n      dup4\n      keccak256\n      sub(shl(0xa0, 0x01), 0x01)\n        /* \"lib/openzeppelin-contracts/contracts/access/AccessControl.sol\":6866:6895  _roles[role].hasRole[account] */\n      dup7\n      and\n      dup1\n      dup6\n      mstore\n      swap3\n      mstore\n      dup1\n      dup4\n      keccak256\n        /* \"lib/openzeppelin-contracts/contracts/access/AccessControl.sol\":6866:6903  _roles[role].hasRole[account] = false */\n      dup1\n      sload\n      not(0xff)\n      and\n      swap1\n      sstore\n        /* \"lib/openzeppelin-contracts/contracts/access/AccessControl.sol\":6922:6962  RoleRevoked(role, account, _msgSender()) */\n      mload\n        /* \"lib/openzeppelin-contracts/contracts/utils/Context.sol\":735:745  msg.sender */\n      caller\n      swap3\n        /* \"lib/openzeppelin-contracts/contracts/access/AccessControl.sol\":6866:6878  _roles[role] */\n      dup7\n      swap2\n        /* \"lib/openzeppelin-contracts/contracts/access/AccessControl.sol\":6922:6962  RoleRevoked(role, account, _msgSender()) */\n      0xf6391f5c32d9c69d2a47ea670b442974b53935d1edc7fd64eb21e047a839171b\n      swap2\n        /* \"lib/openzeppelin-contracts/contracts/access/AccessControl.sol\":6898:6903  false */\n      swap1\n        /* \"lib/openzeppelin-contracts/contracts/access/AccessControl.sol\":6922:6962  RoleRevoked(role, account, _msgSender()) */\n      log4\n      pop\n        /* \"lib/openzeppelin-contracts/contracts/access/AccessControl.sol\":6983:6987  true */\n      0x01\n        /* \"lib/openzeppelin-contracts/contracts/access/AccessControl.sol\":6976:6987  return true */\n      jump(tag_162)\n        /* \"src/gho/ERC20.sol\":4949:5242  function _mint(address to, uint256 amount) internal virtual {... */\n    tag_210:\n        /* \"src/gho/ERC20.sol\":5030:5036  amount */\n      dup1\n        /* \"src/gho/ERC20.sol\":5015:5026  totalSupply */\n      0x02\n      0x00\n        /* \"src/gho/ERC20.sol\":5015:5036  totalSupply += amount */\n      dup3\n      dup3\n      sload\n      tag_326\n      swap2\n      swap1\n      tag_205\n      jump\t// in\n    tag_326:\n      swap1\n      swap2\n      sstore\n      pop\n      pop\n      sub(shl(0xa0, 0x01), 0x01)\n        /* \"src/gho/ERC20.sol\":5164:5177  balanceOf[to] */\n      dup3\n      and\n      0x00\n      dup2\n      dup2\n      mstore\n        /* \"src/gho/ERC20.sol\":5164:5173  balanceOf */\n      0x03\n        /* \"src/gho/ERC20.sol\":5164:5177  balanceOf[to] */\n      0x20\n      swap1\n      dup2\n      mstore\n      0x40\n      dup1\n      dup4\n      keccak256\n        /* \"src/gho/ERC20.sol\":5164:5187  balanceOf[to] += amount */\n      dup1\n      sload\n      dup7\n      add\n      swap1\n      sstore\n        /* \"src/gho/ERC20.sol\":5205:5237  Transfer(address(0), to, amount) */\n      mload\n        /* \"#utility.yul\":1733:1758   */\n      dup5\n      dup2\n      mstore\n      0x00\n      dup1\n      mload\n      0x20\n      data_ada389e1fc24a8587c776340efb91b36e675792ab631816100d55df0b5cf3cbc\n      dup4\n      codecopy\n      dup2\n      mload\n      swap2\n      mstore\n        /* \"src/gho/ERC20.sol\":5205:5237  Transfer(address(0), to, amount) */\n      swap2\n        /* \"#utility.yul\":1706:1724   */\n      add\n        /* \"src/gho/ERC20.sol\":5205:5237  Transfer(address(0), to, amount) */\n    tag_327:\n      mload(0x40)\n      dup1\n      swap2\n      sub\n      swap1\n      log3\n        /* \"src/gho/ERC20.sol\":4949:5242  function _mint(address to, uint256 amount) internal virtual {... */\n      pop\n      pop\n      jump\t// out\n        /* \"src/gho/ERC20.sol\":5246:5542  function _burn(address from, uint256 amount) internal virtual {... */\n    tag_218:\n      sub(shl(0xa0, 0x01), 0x01)\n        /* \"src/gho/ERC20.sol\":5314:5329  balanceOf[from] */\n      dup3\n      and\n      0x00\n      swap1\n      dup2\n      mstore\n        /* \"src/gho/ERC20.sol\":5314:5323  balanceOf */\n      0x03\n        /* \"src/gho/ERC20.sol\":5314:5329  balanceOf[from] */\n      0x20\n      mstore\n      0x40\n      dup2\n      keccak256\n        /* \"src/gho/ERC20.sol\":5314:5339  balanceOf[from] -= amount */\n      dup1\n      sload\n        /* \"src/gho/ERC20.sol\":5333:5339  amount */\n      dup4\n      swap3\n        /* \"src/gho/ERC20.sol\":5314:5329  balanceOf[from] */\n      swap1\n        /* \"src/gho/ERC20.sol\":5314:5339  balanceOf[from] -= amount */\n      tag_329\n      swap1\n        /* \"src/gho/ERC20.sol\":5333:5339  amount */\n      dup5\n      swap1\n        /* \"src/gho/ERC20.sol\":5314:5339  balanceOf[from] -= amount */\n      tag_178\n      jump\t// in\n    tag_329:\n      swap1\n      swap2\n      sstore\n      pop\n      pop\n        /* \"src/gho/ERC20.sol\":5464:5475  totalSupply */\n      0x02\n        /* \"src/gho/ERC20.sol\":5464:5485  totalSupply -= amount */\n      dup1\n      sload\n      dup3\n      swap1\n      sub\n      swap1\n      sstore\n        /* \"src/gho/ERC20.sol\":5503:5537  Transfer(from, address(0), amount) */\n      mload(0x40)\n        /* \"#utility.yul\":1733:1758   */\n      dup2\n      dup2\n      mstore\n      0x00\n      swap1\n      sub(shl(0xa0, 0x01), 0x01)\n        /* \"src/gho/ERC20.sol\":5503:5537  Transfer(from, address(0), amount) */\n      dup5\n      and\n      swap1\n      0x00\n      dup1\n      mload\n      0x20\n      data_ada389e1fc24a8587c776340efb91b36e675792ab631816100d55df0b5cf3cbc\n      dup4\n      codecopy\n      dup2\n      mload\n      swap2\n      mstore\n      swap1\n        /* \"#utility.yul\":1721:1723   */\n      0x20\n        /* \"#utility.yul\":1706:1724   */\n      add\n        /* \"src/gho/ERC20.sol\":5503:5537  Transfer(from, address(0), amount) */\n      tag_327\n        /* \"#utility.yul\":1587:1764   */\n      jump\n        /* \"lib/openzeppelin-contracts/contracts/utils/structs/EnumerableSet.sol\":8316:8466  function add(AddressSet storage set, address value) internal returns (bool) {... */\n    tag_233:\n        /* \"lib/openzeppelin-contracts/contracts/utils/structs/EnumerableSet.sol\":8386:8390  bool */\n      0x00\n        /* \"lib/openzeppelin-contracts/contracts/utils/structs/EnumerableSet.sol\":8409:8459  _add(set._inner, bytes32(uint256(uint160(value)))) */\n      tag_303\n        /* \"lib/openzeppelin-contracts/contracts/utils/structs/EnumerableSet.sol\":8414:8417  set */\n      dup4\n      sub(shl(0xa0, 0x01), 0x01)\n        /* \"lib/openzeppelin-contracts/contracts/utils/structs/EnumerableSet.sol\":8434:8457  uint256(uint160(value)) */\n      dup5\n      and\n        /* \"lib/openzeppelin-contracts/contracts/utils/structs/EnumerableSet.sol\":8409:8413  _add */\n      tag_333\n        /* \"lib/openzeppelin-contracts/contracts/utils/structs/EnumerableSet.sol\":8409:8459  _add(set._inner, bytes32(uint256(uint160(value)))) */\n      jump\t// in\n        /* \"lib/openzeppelin-contracts/contracts/utils/structs/EnumerableSet.sol\":8634:8790  function remove(AddressSet storage set, address value) internal returns (bool) {... */\n    tag_257:\n        /* \"lib/openzeppelin-contracts/contracts/utils/structs/EnumerableSet.sol\":8707:8711  bool */\n      0x00\n        /* \"lib/openzeppelin-contracts/contracts/utils/structs/EnumerableSet.sol\":8730:8783  _remove(set._inner, bytes32(uint256(uint160(value)))) */\n      tag_303\n        /* \"lib/openzeppelin-contracts/contracts/utils/structs/EnumerableSet.sol\":8738:8741  set */\n      dup4\n      sub(shl(0xa0, 0x01), 0x01)\n        /* \"lib/openzeppelin-contracts/contracts/utils/structs/EnumerableSet.sol\":8758:8781  uint256(uint160(value)) */\n      dup5\n      and\n        /* \"lib/openzeppelin-contracts/contracts/utils/structs/EnumerableSet.sol\":8730:8737  _remove */\n      tag_336\n        /* \"lib/openzeppelin-contracts/contracts/utils/structs/EnumerableSet.sol\":8730:8783  _remove(set._inner, bytes32(uint256(uint160(value)))) */\n      jump\t// in\n        /* \"lib/openzeppelin-contracts/contracts/utils/structs/EnumerableSet.sol\":5581:5690  function _values(Set storage set) private view returns (bytes32[] memory) {... */\n    tag_304:\n        /* \"lib/openzeppelin-contracts/contracts/utils/structs/EnumerableSet.sol\":5637:5653  bytes32[] memory */\n      0x60\n        /* \"lib/openzeppelin-contracts/contracts/utils/structs/EnumerableSet.sol\":5672:5675  set */\n      dup2\n        /* \"lib/openzeppelin-contracts/contracts/utils/structs/EnumerableSet.sol\":5672:5683  set._values */\n      0x00\n      add\n        /* \"lib/openzeppelin-contracts/contracts/utils/structs/EnumerableSet.sol\":5665:5683  return set._values */\n      dup1\n      sload\n      dup1\n      0x20\n      mul\n      0x20\n      add\n      mload(0x40)\n      swap1\n      dup2\n      add\n      0x40\n      mstore\n      dup1\n      swap3\n      swap2\n      swap1\n      dup2\n      dup2\n      mstore\n      0x20\n      add\n      dup3\n      dup1\n      sload\n      dup1\n      iszero\n      tag_338\n      jumpi\n      0x20\n      mul\n      dup3\n      add\n      swap2\n      swap1\n      0x00\n      mstore\n      keccak256(0x00, 0x20)\n      swap1\n    tag_339:\n      dup2\n      sload\n      dup2\n      mstore\n      0x20\n      add\n      swap1\n      0x01\n      add\n      swap1\n      dup1\n      dup4\n      gt\n      tag_339\n      jumpi\n    tag_338:\n      pop\n      pop\n      pop\n      pop\n      pop\n      swap1\n      pop\n        /* \"lib/openzeppelin-contracts/contracts/utils/structs/EnumerableSet.sol\":5581:5690  function _values(Set storage set) private view returns (bytes32[] memory) {... */\n      swap2\n      swap1\n      pop\n      jump\t// out\n        /* \"lib/openzeppelin-contracts/contracts/access/AccessControl.sol\":3432:3629  function _checkRole(bytes32 role, address account) internal view virtual {... */\n    tag_308:\n        /* \"lib/openzeppelin-contracts/contracts/access/AccessControl.sol\":3520:3542  hasRole(role, account) */\n      tag_341\n        /* \"lib/openzeppelin-contracts/contracts/access/AccessControl.sol\":3528:3532  role */\n      dup3\n        /* \"lib/openzeppelin-contracts/contracts/access/AccessControl.sol\":3534:3541  account */\n      dup3\n        /* \"lib/openzeppelin-contracts/contracts/access/AccessControl.sol\":3520:3527  hasRole */\n      tag_119\n        /* \"lib/openzeppelin-contracts/contracts/access/AccessControl.sol\":3520:3542  hasRole(role, account) */\n      jump\t// in\n    tag_341:\n        /* \"lib/openzeppelin-contracts/contracts/access/AccessControl.sol\":3515:3623  if (!hasRole(role, account)) {... */\n      tag_342\n      jumpi\n        /* \"lib/openzeppelin-contracts/contracts/access/AccessControl.sol\":3565:3612  AccessControlUnauthorizedAccount(account, role) */\n      mload(0x40)\n      shl(0xe0, 0xe2517d3f)\n      dup2\n      mstore\n      sub(shl(0xa0, 0x01), 0x01)\n        /* \"#utility.yul\":16831:16863   */\n      dup3\n      and\n        /* \"lib/openzeppelin-contracts/contracts/access/AccessControl.sol\":3565:3612  AccessControlUnauthorizedAccount(account, role) */\n      0x04\n      dup3\n      add\n        /* \"#utility.yul\":16813:16864   */\n      mstore\n        /* \"#utility.yul\":16880:16898   */\n      0x24\n      dup2\n      add\n        /* \"#utility.yul\":16873:16907   */\n      dup4\n      swap1\n      mstore\n        /* \"#utility.yul\":16786:16804   */\n      0x44\n      add\n        /* \"lib/openzeppelin-contracts/contracts/access/AccessControl.sol\":3565:3612  AccessControlUnauthorizedAccount(account, role) */\n      tag_202\n        /* \"#utility.yul\":16639:16913   */\n      jump\n        /* \"lib/openzeppelin-contracts/contracts/access/AccessControl.sol\":3515:3623  if (!hasRole(role, account)) {... */\n    tag_342:\n        /* \"lib/openzeppelin-contracts/contracts/access/AccessControl.sol\":3432:3629  function _checkRole(bytes32 role, address account) internal view virtual {... */\n      pop\n      pop\n      jump\t// out\n        /* \"lib/openzeppelin-contracts/contracts/utils/structs/EnumerableSet.sol\":2241:2647  function _add(Set storage set, bytes32 value) private returns (bool) {... */\n    tag_333:\n        /* \"lib/openzeppelin-contracts/contracts/utils/structs/EnumerableSet.sol\":2304:2308  bool */\n      0x00\n        /* \"lib/openzeppelin-contracts/contracts/utils/structs/EnumerableSet.sol\":4360:4381  set._positions[value] */\n      dup2\n      dup2\n      mstore\n        /* \"lib/openzeppelin-contracts/contracts/utils/structs/EnumerableSet.sol\":4360:4374  set._positions */\n      0x01\n      dup4\n      add\n        /* \"lib/openzeppelin-contracts/contracts/utils/structs/EnumerableSet.sol\":4360:4381  set._positions[value] */\n      0x20\n      mstore\n      0x40\n      dup2\n      keccak256\n      sload\n        /* \"lib/openzeppelin-contracts/contracts/utils/structs/EnumerableSet.sol\":2320:2641  if (!_contains(set, value)) {... */\n      tag_311\n      jumpi\n      pop\n        /* \"lib/openzeppelin-contracts/contracts/utils/structs/EnumerableSet.sol\":2362:2385  set._values.push(value) */\n      dup2\n      sload\n      0x01\n      dup2\n      dup2\n      add\n      dup5\n      sstore\n        /* \"lib/openzeppelin-contracts/contracts/utils/structs/EnumerableSet.sol\":2362:2373  set._values */\n      0x00\n        /* \"lib/openzeppelin-contracts/contracts/utils/structs/EnumerableSet.sol\":2362:2385  set._values.push(value) */\n      dup5\n      dup2\n      mstore\n      0x20\n      dup1\n      dup3\n      keccak256\n      swap1\n      swap4\n      add\n      dup5\n      swap1\n      sstore\n        /* \"lib/openzeppelin-contracts/contracts/utils/structs/EnumerableSet.sol\":2544:2562  set._values.length */\n      dup5\n      sload\n        /* \"lib/openzeppelin-contracts/contracts/utils/structs/EnumerableSet.sol\":2520:2541  set._positions[value] */\n      dup5\n      dup3\n      mstore\n        /* \"lib/openzeppelin-contracts/contracts/utils/structs/EnumerableSet.sol\":2520:2534  set._positions */\n      dup3\n      dup7\n      add\n        /* \"lib/openzeppelin-contracts/contracts/utils/structs/EnumerableSet.sol\":2520:2541  set._positions[value] */\n      swap1\n      swap4\n      mstore\n      0x40\n      swap1\n      keccak256\n        /* \"lib/openzeppelin-contracts/contracts/utils/structs/EnumerableSet.sol\":2520:2562  set._positions[value] = set._values.length */\n      swap2\n      swap1\n      swap2\n      sstore\n        /* \"lib/openzeppelin-contracts/contracts/utils/structs/EnumerableSet.sol\":2576:2587  return true */\n      jump(tag_162)\n        /* \"lib/openzeppelin-contracts/contracts/utils/structs/EnumerableSet.sol\":2815:4183  function _remove(Set storage set, bytes32 value) private returns (bool) {... */\n    tag_336:\n        /* \"lib/openzeppelin-contracts/contracts/utils/structs/EnumerableSet.sol\":2881:2885  bool */\n      0x00\n        /* \"lib/openzeppelin-contracts/contracts/utils/structs/EnumerableSet.sol\":3010:3031  set._positions[value] */\n      dup2\n      dup2\n      mstore\n        /* \"lib/openzeppelin-contracts/contracts/utils/structs/EnumerableSet.sol\":3010:3024  set._positions */\n      0x01\n      dup4\n      add\n        /* \"lib/openzeppelin-contracts/contracts/utils/structs/EnumerableSet.sol\":3010:3031  set._positions[value] */\n      0x20\n      mstore\n      0x40\n      dup2\n      keccak256\n      sload\n        /* \"lib/openzeppelin-contracts/contracts/utils/structs/EnumerableSet.sol\":3046:3059  position != 0 */\n      dup1\n      iszero\n        /* \"lib/openzeppelin-contracts/contracts/utils/structs/EnumerableSet.sol\":3042:4177  if (position != 0) {... */\n      tag_352\n      jumpi\n        /* \"lib/openzeppelin-contracts/contracts/utils/structs/EnumerableSet.sol\":3413:3431  uint256 valueIndex */\n      0x00\n        /* \"lib/openzeppelin-contracts/contracts/utils/structs/EnumerableSet.sol\":3434:3446  position - 1 */\n      tag_353\n        /* \"lib/openzeppelin-contracts/contracts/utils/structs/EnumerableSet.sol\":3445:3446  1 */\n      0x01\n        /* \"lib/openzeppelin-contracts/contracts/utils/structs/EnumerableSet.sol\":3434:3442  position */\n      dup4\n        /* \"lib/openzeppelin-contracts/contracts/utils/structs/EnumerableSet.sol\":3434:3446  position - 1 */\n      tag_178\n      jump\t// in\n    tag_353:\n        /* \"lib/openzeppelin-contracts/contracts/utils/structs/EnumerableSet.sol\":3480:3498  set._values.length */\n      dup6\n      sload\n        /* \"lib/openzeppelin-contracts/contracts/utils/structs/EnumerableSet.sol\":3413:3446  uint256 valueIndex = position - 1 */\n      swap1\n      swap2\n      pop\n        /* \"lib/openzeppelin-contracts/contracts/utils/structs/EnumerableSet.sol\":3460:3477  uint256 lastIndex */\n      0x00\n      swap1\n        /* \"lib/openzeppelin-contracts/contracts/utils/structs/EnumerableSet.sol\":3480:3502  set._values.length - 1 */\n      tag_354\n      swap1\n        /* \"lib/openzeppelin-contracts/contracts/utils/structs/EnumerableSet.sol\":3501:3502  1 */\n      0x01\n      swap1\n        /* \"lib/openzeppelin-contracts/contracts/utils/structs/EnumerableSet.sol\":3480:3502  set._values.length - 1 */\n      tag_178\n      jump\t// in\n    tag_354:\n        /* \"lib/openzeppelin-contracts/contracts/utils/structs/EnumerableSet.sol\":3460:3502  uint256 lastIndex = set._values.length - 1 */\n      swap1\n      pop\n        /* \"lib/openzeppelin-contracts/contracts/utils/structs/EnumerableSet.sol\":3535:3544  lastIndex */\n      dup1\n        /* \"lib/openzeppelin-contracts/contracts/utils/structs/EnumerableSet.sol\":3521:3531  valueIndex */\n      dup3\n        /* \"lib/openzeppelin-contracts/contracts/utils/structs/EnumerableSet.sol\":3521:3544  valueIndex != lastIndex */\n      eq\n        /* \"lib/openzeppelin-contracts/contracts/utils/structs/EnumerableSet.sol\":3517:3895  if (valueIndex != lastIndex) {... */\n      tag_355\n      jumpi\n        /* \"lib/openzeppelin-contracts/contracts/utils/structs/EnumerableSet.sol\":3564:3581  bytes32 lastValue */\n      0x00\n        /* \"lib/openzeppelin-contracts/contracts/utils/structs/EnumerableSet.sol\":3584:3587  set */\n      dup7\n        /* \"lib/openzeppelin-contracts/contracts/utils/structs/EnumerableSet.sol\":3584:3595  set._values */\n      0x00\n      add\n        /* \"lib/openzeppelin-contracts/contracts/utils/structs/EnumerableSet.sol\":3596:3605  lastIndex */\n      dup3\n        /* \"lib/openzeppelin-contracts/contracts/utils/structs/EnumerableSet.sol\":3584:3606  set._values[lastIndex] */\n      dup2\n      sload\n      dup2\n      lt\n      tag_357\n      jumpi\n      tag_357\n      tag_358\n      jump\t// in\n    tag_357:\n      swap1\n      0x00\n      mstore\n      keccak256(0x00, 0x20)\n      add\n      sload\n        /* \"lib/openzeppelin-contracts/contracts/utils/structs/EnumerableSet.sol\":3564:3606  bytes32 lastValue = set._values[lastIndex] */\n      swap1\n      pop\n        /* \"lib/openzeppelin-contracts/contracts/utils/structs/EnumerableSet.sol\":3731:3740  lastValue */\n      dup1\n        /* \"lib/openzeppelin-contracts/contracts/utils/structs/EnumerableSet.sol\":3705:3708  set */\n      dup8\n        /* \"lib/openzeppelin-contracts/contracts/utils/structs/EnumerableSet.sol\":3705:3716  set._values */\n      0x00\n      add\n        /* \"lib/openzeppelin-contracts/contracts/utils/structs/EnumerableSet.sol\":3717:3727  valueIndex */\n      dup5\n        /* \"lib/openzeppelin-contracts/contracts/utils/structs/EnumerableSet.sol\":3705:3728  set._values[valueIndex] */\n      dup2\n      sload\n      dup2\n      lt\n      tag_361\n      jumpi\n      tag_361\n      tag_358\n      jump\t// in\n    tag_361:\n      0x00\n      swap2\n      dup3\n      mstore\n      0x20\n      dup1\n      dup4\n      keccak256\n      swap1\n      swap2\n      add\n        /* \"lib/openzeppelin-contracts/contracts/utils/structs/EnumerableSet.sol\":3705:3740  set._values[valueIndex] = lastValue */\n      swap3\n      swap1\n      swap3\n      sstore\n        /* \"lib/openzeppelin-contracts/contracts/utils/structs/EnumerableSet.sol\":3844:3869  set._positions[lastValue] */\n      swap2\n      dup3\n      mstore\n        /* \"lib/openzeppelin-contracts/contracts/utils/structs/EnumerableSet.sol\":3844:3858  set._positions */\n      0x01\n      dup9\n      add\n        /* \"lib/openzeppelin-contracts/contracts/utils/structs/EnumerableSet.sol\":3844:3869  set._positions[lastValue] */\n      swap1\n      mstore\n      0x40\n      swap1\n      keccak256\n        /* \"lib/openzeppelin-contracts/contracts/utils/structs/EnumerableSet.sol\":3844:3880  set._positions[lastValue] = position */\n      dup4\n      swap1\n      sstore\n        /* \"lib/openzeppelin-contracts/contracts/utils/structs/EnumerableSet.sol\":3517:3895  if (valueIndex != lastIndex) {... */\n    tag_355:\n        /* \"lib/openzeppelin-contracts/contracts/utils/structs/EnumerableSet.sol\":3973:3990  set._values.pop() */\n      dup6\n      sload\n        /* \"lib/openzeppelin-contracts/contracts/utils/structs/EnumerableSet.sol\":3973:3976  set */\n      dup7\n      swap1\n        /* \"lib/openzeppelin-contracts/contracts/utils/structs/EnumerableSet.sol\":3973:3990  set._values.pop() */\n      dup1\n      tag_364\n      jumpi\n      tag_364\n      tag_365\n      jump\t// in\n    tag_364:\n      0x01\n      swap1\n      sub\n      dup2\n      dup2\n      swap1\n      0x00\n      mstore\n      keccak256(0x00, 0x20)\n      add\n      0x00\n      swap1\n      sstore\n      swap1\n      sstore\n        /* \"lib/openzeppelin-contracts/contracts/utils/structs/EnumerableSet.sol\":4076:4079  set */\n      dup6\n        /* \"lib/openzeppelin-contracts/contracts/utils/structs/EnumerableSet.sol\":4076:4090  set._positions */\n      0x01\n      add\n        /* \"lib/openzeppelin-contracts/contracts/utils/structs/EnumerableSet.sol\":4076:4097  set._positions[value] */\n      0x00\n        /* \"lib/openzeppelin-contracts/contracts/utils/structs/EnumerableSet.sol\":4091:4096  value */\n      dup7\n        /* \"lib/openzeppelin-contracts/contracts/utils/structs/EnumerableSet.sol\":4076:4097  set._positions[value] */\n      dup2\n      mstore\n      0x20\n      add\n      swap1\n      dup2\n      mstore\n      0x20\n      add\n      0x00\n      keccak256\n        /* \"lib/openzeppelin-contracts/contracts/utils/structs/EnumerableSet.sol\":4069:4097  delete set._positions[value] */\n      0x00\n      swap1\n      sstore\n        /* \"lib/openzeppelin-contracts/contracts/utils/structs/EnumerableSet.sol\":4119:4123  true */\n      0x01\n        /* \"lib/openzeppelin-contracts/contracts/utils/structs/EnumerableSet.sol\":4112:4123  return true */\n      swap4\n      pop\n      pop\n      pop\n      pop\n      jump(tag_162)\n        /* \"lib/openzeppelin-contracts/contracts/utils/structs/EnumerableSet.sol\":3042:4177  if (position != 0) {... */\n    tag_352:\n        /* \"lib/openzeppelin-contracts/contracts/utils/structs/EnumerableSet.sol\":4161:4166  false */\n      0x00\n        /* \"lib/openzeppelin-contracts/contracts/utils/structs/EnumerableSet.sol\":4154:4166  return false */\n      swap2\n      pop\n      pop\n      jump(tag_162)\n    tag_255:\n      pop\n      dup1\n      sload\n      tag_369\n      swap1\n      tag_165\n      jump\t// in\n    tag_369:\n      0x00\n      dup3\n      sstore\n      dup1\n      0x1f\n      lt\n      tag_371\n      jumpi\n      pop\n      pop\n      jump\t// out\n    tag_371:\n      0x1f\n      add\n      0x20\n      swap1\n      div\n      swap1\n      0x00\n      mstore\n      keccak256(0x00, 0x20)\n      swap1\n      dup2\n      add\n      swap1\n      tag_306\n      swap2\n      swap1\n    tag_374:\n      dup1\n      dup3\n      gt\n      iszero\n      tag_375\n      jumpi\n      0x00\n      dup2\n      sstore\n      0x01\n      add\n      jump(tag_374)\n    tag_375:\n      pop\n      swap1\n      jump\t// out\n        /* \"#utility.yul\":14:300   */\n    tag_42:\n        /* \"#utility.yul\":72:78   */\n      0x00\n        /* \"#utility.yul\":125:127   */\n      0x20\n        /* \"#utility.yul\":113:122   */\n      dup3\n        /* \"#utility.yul\":104:111   */\n      dup5\n        /* \"#utility.yul\":100:123   */\n      sub\n        /* \"#utility.yul\":96:128   */\n      slt\n        /* \"#utility.yul\":93:145   */\n      iszero\n      tag_386\n      jumpi\n        /* \"#utility.yul\":141:142   */\n      0x00\n        /* \"#utility.yul\":138:139   */\n      dup1\n        /* \"#utility.yul\":131:143   */\n      revert\n        /* \"#utility.yul\":93:145   */\n    tag_386:\n        /* \"#utility.yul\":167:190   */\n      dup2\n      calldataload\n      not(sub(shl(0xe0, 0x01), 0x01))\n        /* \"#utility.yul\":219:251   */\n      dup2\n      and\n        /* \"#utility.yul\":209:252   */\n      dup2\n      eq\n        /* \"#utility.yul\":199:270   */\n      tag_303\n      jumpi\n        /* \"#utility.yul\":266:267   */\n      0x00\n        /* \"#utility.yul\":263:264   */\n      dup1\n        /* \"#utility.yul\":256:268   */\n      revert\n        /* \"#utility.yul\":497:920   */\n    tag_376:\n        /* \"#utility.yul\":539:542   */\n      0x00\n        /* \"#utility.yul\":577:582   */\n      dup2\n        /* \"#utility.yul\":571:583   */\n      mload\n        /* \"#utility.yul\":604:610   */\n      dup1\n        /* \"#utility.yul\":599:602   */\n      dup5\n        /* \"#utility.yul\":592:611   */\n      mstore\n        /* \"#utility.yul\":629:630   */\n      0x00\n        /* \"#utility.yul\":639:801   */\n    tag_390:\n        /* \"#utility.yul\":653:659   */\n      dup2\n        /* \"#utility.yul\":650:651   */\n      dup2\n        /* \"#utility.yul\":647:660   */\n      lt\n        /* \"#utility.yul\":639:801   */\n      iszero\n      tag_392\n      jumpi\n        /* \"#utility.yul\":715:719   */\n      0x20\n        /* \"#utility.yul\":771:784   */\n      dup2\n      dup6\n      add\n        /* \"#utility.yul\":767:789   */\n      dup2\n      add\n        /* \"#utility.yul\":761:790   */\n      mload\n        /* \"#utility.yul\":743:754   */\n      dup7\n      dup4\n      add\n        /* \"#utility.yul\":739:759   */\n      dup3\n      add\n        /* \"#utility.yul\":732:791   */\n      mstore\n        /* \"#utility.yul\":668:680   */\n      add\n        /* \"#utility.yul\":639:801   */\n      jump(tag_390)\n    tag_392:\n        /* \"#utility.yul\":643:646   */\n      pop\n        /* \"#utility.yul\":846:847   */\n      0x00\n        /* \"#utility.yul\":839:843   */\n      0x20\n        /* \"#utility.yul\":830:836   */\n      dup3\n        /* \"#utility.yul\":825:828   */\n      dup7\n        /* \"#utility.yul\":821:837   */\n      add\n        /* \"#utility.yul\":817:844   */\n      add\n        /* \"#utility.yul\":810:848   */\n      mstore\n        /* \"#utility.yul\":909:913   */\n      0x20\n        /* \"#utility.yul\":902:904   */\n      0x1f\n        /* \"#utility.yul\":898:905   */\n      not\n        /* \"#utility.yul\":893:895   */\n      0x1f\n        /* \"#utility.yul\":885:891   */\n      dup4\n        /* \"#utility.yul\":881:896   */\n      add\n        /* \"#utility.yul\":877:906   */\n      and\n        /* \"#utility.yul\":872:875   */\n      dup6\n        /* \"#utility.yul\":868:907   */\n      add\n        /* \"#utility.yul\":864:914   */\n      add\n        /* \"#utility.yul\":857:914   */\n      swap2\n      pop\n      pop\n        /* \"#utility.yul\":497:920   */\n      swap3\n      swap2\n      pop\n      pop\n      jump\t// out\n        /* \"#utility.yul\":925:1145   */\n    tag_49:\n        /* \"#utility.yul\":1074:1076   */\n      0x20\n        /* \"#utility.yul\":1063:1072   */\n      dup2\n        /* \"#utility.yul\":1056:1077   */\n      mstore\n        /* \"#utility.yul\":1037:1041   */\n      0x00\n        /* \"#utility.yul\":1094:1139   */\n      tag_303\n        /* \"#utility.yul\":1135:1137   */\n      0x20\n        /* \"#utility.yul\":1124:1133   */\n      dup4\n        /* \"#utility.yul\":1120:1138   */\n      add\n        /* \"#utility.yul\":1112:1118   */\n      dup5\n        /* \"#utility.yul\":1094:1139   */\n      tag_376\n      jump\t// in\n        /* \"#utility.yul\":1150:1323   */\n    tag_377:\n        /* \"#utility.yul\":1218:1238   */\n      dup1\n      calldataload\n      sub(shl(0xa0, 0x01), 0x01)\n        /* \"#utility.yul\":1267:1298   */\n      dup2\n      and\n        /* \"#utility.yul\":1257:1299   */\n      dup2\n      eq\n        /* \"#utility.yul\":1247:1317   */\n      tag_396\n      jumpi\n        /* \"#utility.yul\":1313:1314   */\n      0x00\n        /* \"#utility.yul\":1310:1311   */\n      dup1\n        /* \"#utility.yul\":1303:1315   */\n      revert\n        /* \"#utility.yul\":1247:1317   */\n    tag_396:\n        /* \"#utility.yul\":1150:1323   */\n      swap2\n      swap1\n      pop\n      jump\t// out\n        /* \"#utility.yul\":1328:1582   */\n    tag_52:\n        /* \"#utility.yul\":1396:1402   */\n      0x00\n        /* \"#utility.yul\":1404:1410   */\n      dup1\n        /* \"#utility.yul\":1457:1459   */\n      0x40\n        /* \"#utility.yul\":1445:1454   */\n      dup4\n        /* \"#utility.yul\":1436:1443   */\n      dup6\n        /* \"#utility.yul\":1432:1455   */\n      sub\n        /* \"#utility.yul\":1428:1460   */\n      slt\n        /* \"#utility.yul\":1425:1477   */\n      iszero\n      tag_398\n      jumpi\n        /* \"#utility.yul\":1473:1474   */\n      0x00\n        /* \"#utility.yul\":1470:1471   */\n      dup1\n        /* \"#utility.yul\":1463:1475   */\n      revert\n        /* \"#utility.yul\":1425:1477   */\n    tag_398:\n        /* \"#utility.yul\":1496:1525   */\n      tag_399\n        /* \"#utility.yul\":1515:1524   */\n      dup4\n        /* \"#utility.yul\":1496:1525   */\n      tag_377\n      jump\t// in\n    tag_399:\n        /* \"#utility.yul\":1486:1525   */\n      swap5\n        /* \"#utility.yul\":1572:1574   */\n      0x20\n        /* \"#utility.yul\":1557:1575   */\n      swap4\n      swap1\n      swap4\n      add\n        /* \"#utility.yul\":1544:1576   */\n      calldataload\n      swap4\n      pop\n      pop\n      pop\n        /* \"#utility.yul\":1328:1582   */\n      jump\t// out\n        /* \"#utility.yul\":1769:2427   */\n    tag_62:\n        /* \"#utility.yul\":1940:1942   */\n      0x20\n        /* \"#utility.yul\":1992:2013   */\n      dup1\n      dup3\n      mstore\n        /* \"#utility.yul\":2062:2075   */\n      dup3\n      mload\n        /* \"#utility.yul\":1965:1983   */\n      dup3\n      dup3\n      add\n        /* \"#utility.yul\":2084:2106   */\n      dup2\n      swap1\n      mstore\n        /* \"#utility.yul\":1911:1915   */\n      0x00\n      swap2\n        /* \"#utility.yul\":1940:1942   */\n      swap1\n        /* \"#utility.yul\":2163:2178   */\n      dup5\n      dup3\n      add\n      swap1\n        /* \"#utility.yul\":2137:2139   */\n      0x40\n        /* \"#utility.yul\":2122:2140   */\n      dup6\n      add\n      swap1\n        /* \"#utility.yul\":1911:1915   */\n      dup5\n        /* \"#utility.yul\":2206:2401   */\n    tag_402:\n        /* \"#utility.yul\":2220:2226   */\n      dup2\n        /* \"#utility.yul\":2217:2218   */\n      dup2\n        /* \"#utility.yul\":2214:2227   */\n      lt\n        /* \"#utility.yul\":2206:2401   */\n      iszero\n      tag_404\n      jumpi\n        /* \"#utility.yul\":2285:2298   */\n      dup4\n      mload\n      sub(shl(0xa0, 0x01), 0x01)\n        /* \"#utility.yul\":2281:2320   */\n      and\n        /* \"#utility.yul\":2269:2321   */\n      dup4\n      mstore\n        /* \"#utility.yul\":2376:2391   */\n      swap3\n      dup5\n      add\n      swap3\n        /* \"#utility.yul\":2341:2353   */\n      swap2\n      dup5\n      add\n      swap2\n        /* \"#utility.yul\":2317:2318   */\n      0x01\n        /* \"#utility.yul\":2235:2244   */\n      add\n        /* \"#utility.yul\":2206:2401   */\n      jump(tag_402)\n    tag_404:\n      pop\n        /* \"#utility.yul\":2418:2421   */\n      swap1\n      swap7\n        /* \"#utility.yul\":1769:2427   */\n      swap6\n      pop\n      pop\n      pop\n      pop\n      pop\n      pop\n      jump\t// out\n        /* \"#utility.yul\":2432:2760   */\n    tag_65:\n        /* \"#utility.yul\":2509:2515   */\n      0x00\n        /* \"#utility.yul\":2517:2523   */\n      dup1\n        /* \"#utility.yul\":2525:2531   */\n      0x00\n        /* \"#utility.yul\":2578:2580   */\n      0x60\n        /* \"#utility.yul\":2566:2575   */\n      dup5\n        /* \"#utility.yul\":2557:2564   */\n      dup7\n        /* \"#utility.yul\":2553:2576   */\n      sub\n        /* \"#utility.yul\":2549:2581   */\n      slt\n        /* \"#utility.yul\":2546:2598   */\n      iszero\n      tag_406\n      jumpi\n        /* \"#utility.yul\":2594:2595   */\n      0x00\n        /* \"#utility.yul\":2591:2592   */\n      dup1\n        /* \"#utility.yul\":2584:2596   */\n      revert\n        /* \"#utility.yul\":2546:2598   */\n    tag_406:\n        /* \"#utility.yul\":2617:2646   */\n      tag_407\n        /* \"#utility.yul\":2636:2645   */\n      dup5\n        /* \"#utility.yul\":2617:2646   */\n      tag_377\n      jump\t// in\n    tag_407:\n        /* \"#utility.yul\":2607:2646   */\n      swap3\n      pop\n        /* \"#utility.yul\":2665:2703   */\n      tag_408\n        /* \"#utility.yul\":2699:2701   */\n      0x20\n        /* \"#utility.yul\":2688:2697   */\n      dup6\n        /* \"#utility.yul\":2684:2702   */\n      add\n        /* \"#utility.yul\":2665:2703   */\n      tag_377\n      jump\t// in\n    tag_408:\n        /* \"#utility.yul\":2655:2703   */\n      swap2\n      pop\n        /* \"#utility.yul\":2750:2752   */\n      0x40\n        /* \"#utility.yul\":2739:2748   */\n      dup5\n        /* \"#utility.yul\":2735:2753   */\n      add\n        /* \"#utility.yul\":2722:2754   */\n      calldataload\n        /* \"#utility.yul\":2712:2754   */\n      swap1\n      pop\n        /* \"#utility.yul\":2432:2760   */\n      swap3\n      pop\n      swap3\n      pop\n      swap3\n      jump\t// out\n        /* \"#utility.yul\":2765:2945   */\n    tag_70:\n        /* \"#utility.yul\":2824:2830   */\n      0x00\n        /* \"#utility.yul\":2877:2879   */\n      0x20\n        /* \"#utility.yul\":2865:2874   */\n      dup3\n        /* \"#utility.yul\":2856:2863   */\n      dup5\n        /* \"#utility.yul\":2852:2875   */\n      sub\n        /* \"#utility.yul\":2848:2880   */\n      slt\n        /* \"#utility.yul\":2845:2897   */\n      iszero\n      tag_410\n      jumpi\n        /* \"#utility.yul\":2893:2894   */\n      0x00\n        /* \"#utility.yul\":2890:2891   */\n      dup1\n        /* \"#utility.yul\":2883:2895   */\n      revert\n        /* \"#utility.yul\":2845:2897   */\n    tag_410:\n      pop\n        /* \"#utility.yul\":2916:2939   */\n      calldataload\n      swap2\n        /* \"#utility.yul\":2765:2945   */\n      swap1\n      pop\n      jump\t// out\n        /* \"#utility.yul\":3132:3386   */\n    tag_76:\n        /* \"#utility.yul\":3200:3206   */\n      0x00\n        /* \"#utility.yul\":3208:3214   */\n      dup1\n        /* \"#utility.yul\":3261:3263   */\n      0x40\n        /* \"#utility.yul\":3249:3258   */\n      dup4\n        /* \"#utility.yul\":3240:3247   */\n      dup6\n        /* \"#utility.yul\":3236:3259   */\n      sub\n        /* \"#utility.yul\":3232:3264   */\n      slt\n        /* \"#utility.yul\":3229:3281   */\n      iszero\n      tag_413\n      jumpi\n        /* \"#utility.yul\":3277:3278   */\n      0x00\n        /* \"#utility.yul\":3274:3275   */\n      dup1\n        /* \"#utility.yul\":3267:3279   */\n      revert\n        /* \"#utility.yul\":3229:3281   */\n    tag_413:\n        /* \"#utility.yul\":3313:3322   */\n      dup3\n        /* \"#utility.yul\":3300:3323   */\n      calldataload\n        /* \"#utility.yul\":3290:3323   */\n      swap2\n      pop\n        /* \"#utility.yul\":3342:3380   */\n      tag_414\n        /* \"#utility.yul\":3376:3378   */\n      0x20\n        /* \"#utility.yul\":3365:3374   */\n      dup5\n        /* \"#utility.yul\":3361:3379   */\n      add\n        /* \"#utility.yul\":3342:3380   */\n      tag_377\n      jump\t// in\n    tag_414:\n        /* \"#utility.yul\":3332:3380   */\n      swap1\n      pop\n        /* \"#utility.yul\":3132:3386   */\n      swap3\n      pop\n      swap3\n      swap1\n      pop\n      jump\t// out\n        /* \"#utility.yul\":3765:3951   */\n    tag_106:\n        /* \"#utility.yul\":3824:3830   */\n      0x00\n        /* \"#utility.yul\":3877:3879   */\n      0x20\n        /* \"#utility.yul\":3865:3874   */\n      dup3\n        /* \"#utility.yul\":3856:3863   */\n      dup5\n        /* \"#utility.yul\":3852:3875   */\n      sub\n        /* \"#utility.yul\":3848:3880   */\n      slt\n        /* \"#utility.yul\":3845:3897   */\n      iszero\n      tag_419\n      jumpi\n        /* \"#utility.yul\":3893:3894   */\n      0x00\n        /* \"#utility.yul\":3890:3891   */\n      dup1\n        /* \"#utility.yul\":3883:3895   */\n      revert\n        /* \"#utility.yul\":3845:3897   */\n    tag_419:\n        /* \"#utility.yul\":3916:3945   */\n      tag_303\n        /* \"#utility.yul\":3935:3944   */\n      dup3\n        /* \"#utility.yul\":3916:3945   */\n      tag_377\n      jump\t// in\n        /* \"#utility.yul\":3956:4144   */\n    tag_378:\n        /* \"#utility.yul\":4024:4044   */\n      dup1\n      calldataload\n      sub(shl(0x80, 0x01), 0x01)\n        /* \"#utility.yul\":4073:4119   */\n      dup2\n      and\n        /* \"#utility.yul\":4063:4120   */\n      dup2\n      eq\n        /* \"#utility.yul\":4053:4138   */\n      tag_396\n      jumpi\n        /* \"#utility.yul\":4134:4135   */\n      0x00\n        /* \"#utility.yul\":4131:4132   */\n      dup1\n        /* \"#utility.yul\":4124:4136   */\n      revert\n        /* \"#utility.yul\":4149:4889   */\n    tag_115:\n        /* \"#utility.yul\":4238:4244   */\n      0x00\n        /* \"#utility.yul\":4246:4252   */\n      dup1\n        /* \"#utility.yul\":4254:4260   */\n      0x00\n        /* \"#utility.yul\":4262:4268   */\n      dup1\n        /* \"#utility.yul\":4315:4317   */\n      0x60\n        /* \"#utility.yul\":4303:4312   */\n      dup6\n        /* \"#utility.yul\":4294:4301   */\n      dup8\n        /* \"#utility.yul\":4290:4313   */\n      sub\n        /* \"#utility.yul\":4286:4318   */\n      slt\n        /* \"#utility.yul\":4283:4335   */\n      iszero\n      tag_424\n      jumpi\n        /* \"#utility.yul\":4331:4332   */\n      0x00\n        /* \"#utility.yul\":4328:4329   */\n      dup1\n        /* \"#utility.yul\":4321:4333   */\n      revert\n        /* \"#utility.yul\":4283:4335   */\n    tag_424:\n        /* \"#utility.yul\":4354:4383   */\n      tag_425\n        /* \"#utility.yul\":4373:4382   */\n      dup6\n        /* \"#utility.yul\":4354:4383   */\n      tag_377\n      jump\t// in\n    tag_425:\n        /* \"#utility.yul\":4344:4383   */\n      swap4\n      pop\n        /* \"#utility.yul\":4434:4436   */\n      0x20\n        /* \"#utility.yul\":4423:4432   */\n      dup6\n        /* \"#utility.yul\":4419:4437   */\n      add\n        /* \"#utility.yul\":4406:4438   */\n      calldataload\n        /* \"#utility.yul\":4457:4475   */\n      0xffffffffffffffff\n        /* \"#utility.yul\":4498:4500   */\n      dup1\n        /* \"#utility.yul\":4490:4496   */\n      dup3\n        /* \"#utility.yul\":4487:4501   */\n      gt\n        /* \"#utility.yul\":4484:4518   */\n      iszero\n      tag_426\n      jumpi\n        /* \"#utility.yul\":4514:4515   */\n      0x00\n        /* \"#utility.yul\":4511:4512   */\n      dup1\n        /* \"#utility.yul\":4504:4516   */\n      revert\n        /* \"#utility.yul\":4484:4518   */\n    tag_426:\n        /* \"#utility.yul\":4552:4558   */\n      dup2\n        /* \"#utility.yul\":4541:4550   */\n      dup8\n        /* \"#utility.yul\":4537:4559   */\n      add\n        /* \"#utility.yul\":4527:4559   */\n      swap2\n      pop\n        /* \"#utility.yul\":4597:4604   */\n      dup8\n        /* \"#utility.yul\":4590:4594   */\n      0x1f\n        /* \"#utility.yul\":4586:4588   */\n      dup4\n        /* \"#utility.yul\":4582:4595   */\n      add\n        /* \"#utility.yul\":4578:4605   */\n      slt\n        /* \"#utility.yul\":4568:4623   */\n      tag_427\n      jumpi\n        /* \"#utility.yul\":4619:4620   */\n      0x00\n        /* \"#utility.yul\":4616:4617   */\n      dup1\n        /* \"#utility.yul\":4609:4621   */\n      revert\n        /* \"#utility.yul\":4568:4623   */\n    tag_427:\n        /* \"#utility.yul\":4659:4661   */\n      dup2\n        /* \"#utility.yul\":4646:4662   */\n      calldataload\n        /* \"#utility.yul\":4685:4687   */\n      dup2\n        /* \"#utility.yul\":4677:4683   */\n      dup2\n        /* \"#utility.yul\":4674:4688   */\n      gt\n        /* \"#utility.yul\":4671:4705   */\n      iszero\n      tag_428\n      jumpi\n        /* \"#utility.yul\":4701:4702   */\n      0x00\n        /* \"#utility.yul\":4698:4699   */\n      dup1\n        /* \"#utility.yul\":4691:4703   */\n      revert\n        /* \"#utility.yul\":4671:4705   */\n    tag_428:\n        /* \"#utility.yul\":4746:4753   */\n      dup9\n        /* \"#utility.yul\":4741:4743   */\n      0x20\n        /* \"#utility.yul\":4732:4738   */\n      dup3\n        /* \"#utility.yul\":4728:4730   */\n      dup6\n        /* \"#utility.yul\":4724:4739   */\n      add\n        /* \"#utility.yul\":4720:4744   */\n      add\n        /* \"#utility.yul\":4717:4754   */\n      gt\n        /* \"#utility.yul\":4714:4771   */\n      iszero\n      tag_429\n      jumpi\n        /* \"#utility.yul\":4767:4768   */\n      0x00\n        /* \"#utility.yul\":4764:4765   */\n      dup1\n        /* \"#utility.yul\":4757:4769   */\n      revert\n        /* \"#utility.yul\":4714:4771   */\n    tag_429:\n        /* \"#utility.yul\":4798:4800   */\n      0x20\n        /* \"#utility.yul\":4794:4796   */\n      dup4\n        /* \"#utility.yul\":4790:4801   */\n      add\n        /* \"#utility.yul\":4780:4801   */\n      swap6\n      pop\n        /* \"#utility.yul\":4820:4826   */\n      dup1\n        /* \"#utility.yul\":4810:4826   */\n      swap5\n      pop\n      pop\n      pop\n      pop\n        /* \"#utility.yul\":4845:4883   */\n      tag_430\n        /* \"#utility.yul\":4879:4881   */\n      0x40\n        /* \"#utility.yul\":4868:4877   */\n      dup7\n        /* \"#utility.yul\":4864:4882   */\n      add\n        /* \"#utility.yul\":4845:4883   */\n      tag_378\n      jump\t// in\n    tag_430:\n        /* \"#utility.yul\":4835:4883   */\n      swap1\n      pop\n        /* \"#utility.yul\":4149:4889   */\n      swap3\n      swap6\n      swap2\n      swap5\n      pop\n      swap3\n      pop\n      jump\t// out\n        /* \"#utility.yul\":5147:5407   */\n    tag_141:\n        /* \"#utility.yul\":5215:5221   */\n      0x00\n        /* \"#utility.yul\":5223:5229   */\n      dup1\n        /* \"#utility.yul\":5276:5278   */\n      0x40\n        /* \"#utility.yul\":5264:5273   */\n      dup4\n        /* \"#utility.yul\":5255:5262   */\n      dup6\n        /* \"#utility.yul\":5251:5274   */\n      sub\n        /* \"#utility.yul\":5247:5279   */\n      slt\n        /* \"#utility.yul\":5244:5296   */\n      iszero\n      tag_433\n      jumpi\n        /* \"#utility.yul\":5292:5293   */\n      0x00\n        /* \"#utility.yul\":5289:5290   */\n      dup1\n        /* \"#utility.yul\":5282:5294   */\n      revert\n        /* \"#utility.yul\":5244:5296   */\n    tag_433:\n        /* \"#utility.yul\":5315:5344   */\n      tag_434\n        /* \"#utility.yul\":5334:5343   */\n      dup4\n        /* \"#utility.yul\":5315:5344   */\n      tag_377\n      jump\t// in\n    tag_434:\n        /* \"#utility.yul\":5305:5344   */\n      swap2\n      pop\n        /* \"#utility.yul\":5363:5401   */\n      tag_414\n        /* \"#utility.yul\":5397:5399   */\n      0x20\n        /* \"#utility.yul\":5386:5395   */\n      dup5\n        /* \"#utility.yul\":5382:5400   */\n      add\n        /* \"#utility.yul\":5363:5401   */\n      tag_378\n      jump\t// in\n        /* \"#utility.yul\":5412:5951   */\n    tag_147:\n        /* \"#utility.yul\":5599:5601   */\n      0x20\n        /* \"#utility.yul\":5588:5597   */\n      dup2\n        /* \"#utility.yul\":5581:5602   */\n      mstore\n        /* \"#utility.yul\":5562:5566   */\n      0x00\n      sub(shl(0x80, 0x01), 0x01)\n        /* \"#utility.yul\":5710:5712   */\n      dup1\n        /* \"#utility.yul\":5701:5707   */\n      dup5\n        /* \"#utility.yul\":5695:5708   */\n      mload\n        /* \"#utility.yul\":5691:5713   */\n      and\n        /* \"#utility.yul\":5686:5688   */\n      0x20\n        /* \"#utility.yul\":5675:5684   */\n      dup5\n        /* \"#utility.yul\":5671:5689   */\n      add\n        /* \"#utility.yul\":5664:5714   */\n      mstore\n        /* \"#utility.yul\":5778:5780   */\n      dup1\n        /* \"#utility.yul\":5772:5774   */\n      0x20\n        /* \"#utility.yul\":5764:5770   */\n      dup6\n        /* \"#utility.yul\":5760:5775   */\n      add\n        /* \"#utility.yul\":5754:5776   */\n      mload\n        /* \"#utility.yul\":5750:5781   */\n      and\n        /* \"#utility.yul\":5745:5747   */\n      0x40\n        /* \"#utility.yul\":5734:5743   */\n      dup5\n        /* \"#utility.yul\":5730:5748   */\n      add\n        /* \"#utility.yul\":5723:5782   */\n      mstore\n      pop\n        /* \"#utility.yul\":5829:5831   */\n      0x40\n        /* \"#utility.yul\":5821:5827   */\n      dup4\n        /* \"#utility.yul\":5817:5832   */\n      add\n        /* \"#utility.yul\":5811:5833   */\n      mload\n        /* \"#utility.yul\":5871:5875   */\n      0x60\n        /* \"#utility.yul\":5864:5868   */\n      dup1\n        /* \"#utility.yul\":5853:5862   */\n      dup5\n        /* \"#utility.yul\":5849:5869   */\n      add\n        /* \"#utility.yul\":5842:5876   */\n      mstore\n        /* \"#utility.yul\":5893:5945   */\n      tag_437\n        /* \"#utility.yul\":5940:5943   */\n      0x80\n        /* \"#utility.yul\":5929:5938   */\n      dup5\n        /* \"#utility.yul\":5925:5944   */\n      add\n        /* \"#utility.yul\":5911:5923   */\n      dup3\n        /* \"#utility.yul\":5893:5945   */\n      tag_376\n      jump\t// in\n    tag_437:\n        /* \"#utility.yul\":5885:5945   */\n      swap5\n        /* \"#utility.yul\":5412:5951   */\n      swap4\n      pop\n      pop\n      pop\n      pop\n      jump\t// out\n        /* \"#utility.yul\":5956:6649   */\n    tag_150:\n        /* \"#utility.yul\":6067:6073   */\n      0x00\n        /* \"#utility.yul\":6075:6081   */\n      dup1\n        /* \"#utility.yul\":6083:6089   */\n      0x00\n        /* \"#utility.yul\":6091:6097   */\n      dup1\n        /* \"#utility.yul\":6099:6105   */\n      0x00\n        /* \"#utility.yul\":6107:6113   */\n      dup1\n        /* \"#utility.yul\":6115:6121   */\n      0x00\n        /* \"#utility.yul\":6168:6171   */\n      0xe0\n        /* \"#utility.yul\":6156:6165   */\n      dup9\n        /* \"#utility.yul\":6147:6154   */\n      dup11\n        /* \"#utility.yul\":6143:6166   */\n      sub\n        /* \"#utility.yul\":6139:6172   */\n      slt\n        /* \"#utility.yul\":6136:6189   */\n      iszero\n      tag_439\n      jumpi\n        /* \"#utility.yul\":6185:6186   */\n      0x00\n        /* \"#utility.yul\":6182:6183   */\n      dup1\n        /* \"#utility.yul\":6175:6187   */\n      revert\n        /* \"#utility.yul\":6136:6189   */\n    tag_439:\n        /* \"#utility.yul\":6208:6237   */\n      tag_440\n        /* \"#utility.yul\":6227:6236   */\n      dup9\n        /* \"#utility.yul\":6208:6237   */\n      tag_377\n      jump\t// in\n    tag_440:\n        /* \"#utility.yul\":6198:6237   */\n      swap7\n      pop\n        /* \"#utility.yul\":6256:6294   */\n      tag_441\n        /* \"#utility.yul\":6290:6292   */\n      0x20\n        /* \"#utility.yul\":6279:6288   */\n      dup10\n        /* \"#utility.yul\":6275:6293   */\n      add\n        /* \"#utility.yul\":6256:6294   */\n      tag_377\n      jump\t// in\n    tag_441:\n        /* \"#utility.yul\":6246:6294   */\n      swap6\n      pop\n        /* \"#utility.yul\":6341:6343   */\n      0x40\n        /* \"#utility.yul\":6330:6339   */\n      dup9\n        /* \"#utility.yul\":6326:6344   */\n      add\n        /* \"#utility.yul\":6313:6345   */\n      calldataload\n        /* \"#utility.yul\":6303:6345   */\n      swap5\n      pop\n        /* \"#utility.yul\":6392:6394   */\n      0x60\n        /* \"#utility.yul\":6381:6390   */\n      dup9\n        /* \"#utility.yul\":6377:6395   */\n      add\n        /* \"#utility.yul\":6364:6396   */\n      calldataload\n        /* \"#utility.yul\":6354:6396   */\n      swap4\n      pop\n        /* \"#utility.yul\":6446:6449   */\n      0x80\n        /* \"#utility.yul\":6435:6444   */\n      dup9\n        /* \"#utility.yul\":6431:6450   */\n      add\n        /* \"#utility.yul\":6418:6451   */\n      calldataload\n        /* \"#utility.yul\":6491:6495   */\n      0xff\n        /* \"#utility.yul\":6484:6489   */\n      dup2\n        /* \"#utility.yul\":6480:6496   */\n      and\n        /* \"#utility.yul\":6473:6478   */\n      dup2\n        /* \"#utility.yul\":6470:6497   */\n      eq\n        /* \"#utility.yul\":6460:6515   */\n      tag_442\n      jumpi\n        /* \"#utility.yul\":6511:6512   */\n      0x00\n        /* \"#utility.yul\":6508:6509   */\n      dup1\n        /* \"#utility.yul\":6501:6513   */\n      revert\n        /* \"#utility.yul\":6460:6515   */\n    tag_442:\n        /* \"#utility.yul\":5956:6649   */\n      swap7\n      swap10\n      swap6\n      swap9\n      pop\n      swap4\n      swap7\n      swap3\n      swap6\n        /* \"#utility.yul\":6534:6539   */\n      swap5\n        /* \"#utility.yul\":6586:6589   */\n      0xa0\n        /* \"#utility.yul\":6571:6590   */\n      dup5\n      add\n        /* \"#utility.yul\":6558:6591   */\n      calldataload\n      swap5\n      pop\n        /* \"#utility.yul\":6638:6641   */\n      0xc0\n        /* \"#utility.yul\":6623:6642   */\n      swap1\n      swap4\n      add\n        /* \"#utility.yul\":6610:6643   */\n      calldataload\n      swap3\n        /* \"#utility.yul\":5956:6649   */\n      swap2\n      pop\n      pop\n      jump\t// out\n        /* \"#utility.yul\":6654:6914   */\n    tag_157:\n        /* \"#utility.yul\":6722:6728   */\n      0x00\n        /* \"#utility.yul\":6730:6736   */\n      dup1\n        /* \"#utility.yul\":6783:6785   */\n      0x40\n        /* \"#utility.yul\":6771:6780   */\n      dup4\n        /* \"#utility.yul\":6762:6769   */\n      dup6\n        /* \"#utility.yul\":6758:6781   */\n      sub\n        /* \"#utility.yul\":6754:6786   */\n      slt\n        /* \"#utility.yul\":6751:6803   */\n      iszero\n      tag_444\n      jumpi\n        /* \"#utility.yul\":6799:6800   */\n      0x00\n        /* \"#utility.yul\":6796:6797   */\n      dup1\n        /* \"#utility.yul\":6789:6801   */\n      revert\n        /* \"#utility.yul\":6751:6803   */\n    tag_444:\n        /* \"#utility.yul\":6822:6851   */\n      tag_445\n        /* \"#utility.yul\":6841:6850   */\n      dup4\n        /* \"#utility.yul\":6822:6851   */\n      tag_377\n      jump\t// in\n    tag_445:\n        /* \"#utility.yul\":6812:6851   */\n      swap2\n      pop\n        /* \"#utility.yul\":6870:6908   */\n      tag_414\n        /* \"#utility.yul\":6904:6906   */\n      0x20\n        /* \"#utility.yul\":6893:6902   */\n      dup5\n        /* \"#utility.yul\":6889:6907   */\n      add\n        /* \"#utility.yul\":6870:6908   */\n      tag_377\n      jump\t// in\n        /* \"#utility.yul\":6919:7299   */\n    tag_165:\n        /* \"#utility.yul\":6998:6999   */\n      0x01\n        /* \"#utility.yul\":6994:7006   */\n      dup2\n      dup2\n      shr\n      swap1\n        /* \"#utility.yul\":7041:7053   */\n      dup3\n      and\n      dup1\n        /* \"#utility.yul\":7062:7123   */\n      tag_448\n      jumpi\n        /* \"#utility.yul\":7116:7120   */\n      0x7f\n        /* \"#utility.yul\":7108:7114   */\n      dup3\n        /* \"#utility.yul\":7104:7121   */\n      and\n        /* \"#utility.yul\":7094:7121   */\n      swap2\n      pop\n        /* \"#utility.yul\":7062:7123   */\n    tag_448:\n        /* \"#utility.yul\":7169:7171   */\n      0x20\n        /* \"#utility.yul\":7161:7167   */\n      dup3\n        /* \"#utility.yul\":7158:7172   */\n      lt\n        /* \"#utility.yul\":7138:7156   */\n      dup2\n        /* \"#utility.yul\":7135:7173   */\n      sub\n        /* \"#utility.yul\":7132:7293   */\n      tag_449\n      jumpi\n        /* \"#utility.yul\":7215:7225   */\n      0x4e487b71\n        /* \"#utility.yul\":7210:7213   */\n      0xe0\n        /* \"#utility.yul\":7206:7226   */\n      shl\n        /* \"#utility.yul\":7203:7204   */\n      0x00\n        /* \"#utility.yul\":7196:7227   */\n      mstore\n        /* \"#utility.yul\":7250:7254   */\n      0x22\n        /* \"#utility.yul\":7247:7248   */\n      0x04\n        /* \"#utility.yul\":7240:7255   */\n      mstore\n        /* \"#utility.yul\":7278:7282   */\n      0x24\n        /* \"#utility.yul\":7275:7276   */\n      0x00\n        /* \"#utility.yul\":7268:7283   */\n      revert\n        /* \"#utility.yul\":7132:7293   */\n    tag_449:\n      pop\n        /* \"#utility.yul\":6919:7299   */\n      swap2\n      swap1\n      pop\n      jump\t// out\n        /* \"#utility.yul\":7304:7431   */\n    tag_379:\n        /* \"#utility.yul\":7365:7375   */\n      0x4e487b71\n        /* \"#utility.yul\":7360:7363   */\n      0xe0\n        /* \"#utility.yul\":7356:7376   */\n      shl\n        /* \"#utility.yul\":7353:7354   */\n      0x00\n        /* \"#utility.yul\":7346:7377   */\n      mstore\n        /* \"#utility.yul\":7396:7400   */\n      0x11\n        /* \"#utility.yul\":7393:7394   */\n      0x04\n        /* \"#utility.yul\":7386:7401   */\n      mstore\n        /* \"#utility.yul\":7420:7424   */\n      0x24\n        /* \"#utility.yul\":7417:7418   */\n      0x00\n        /* \"#utility.yul\":7410:7425   */\n      revert\n        /* \"#utility.yul\":7436:7564   */\n    tag_178:\n        /* \"#utility.yul\":7503:7512   */\n      dup2\n      dup2\n      sub\n        /* \"#utility.yul\":7524:7535   */\n      dup2\n      dup2\n      gt\n        /* \"#utility.yul\":7521:7558   */\n      iszero\n      tag_162\n      jumpi\n        /* \"#utility.yul\":7538:7556   */\n      tag_162\n      tag_379\n      jump\t// in\n        /* \"#utility.yul\":7917:8042   */\n    tag_205:\n        /* \"#utility.yul\":7982:7991   */\n      dup1\n      dup3\n      add\n        /* \"#utility.yul\":8003:8013   */\n      dup1\n      dup3\n      gt\n        /* \"#utility.yul\":8000:8036   */\n      iszero\n      tag_162\n      jumpi\n        /* \"#utility.yul\":8016:8034   */\n      tag_162\n      tag_379\n      jump\t// in\n        /* \"#utility.yul\":9497:9624   */\n    tag_380:\n        /* \"#utility.yul\":9558:9568   */\n      0x4e487b71\n        /* \"#utility.yul\":9553:9556   */\n      0xe0\n        /* \"#utility.yul\":9549:9569   */\n      shl\n        /* \"#utility.yul\":9546:9547   */\n      0x00\n        /* \"#utility.yul\":9539:9570   */\n      mstore\n        /* \"#utility.yul\":9589:9593   */\n      0x41\n        /* \"#utility.yul\":9586:9587   */\n      0x04\n        /* \"#utility.yul\":9579:9594   */\n      mstore\n        /* \"#utility.yul\":9613:9617   */\n      0x24\n        /* \"#utility.yul\":9610:9611   */\n      0x00\n        /* \"#utility.yul\":9603:9618   */\n      revert\n        /* \"#utility.yul\":9755:10273   */\n    tag_382:\n        /* \"#utility.yul\":9857:9859   */\n      0x1f\n        /* \"#utility.yul\":9852:9855   */\n      dup3\n        /* \"#utility.yul\":9849:9860   */\n      gt\n        /* \"#utility.yul\":9846:10267   */\n      iszero\n      tag_198\n      jumpi\n        /* \"#utility.yul\":9893:9898   */\n      dup1\n        /* \"#utility.yul\":9890:9891   */\n      0x00\n        /* \"#utility.yul\":9883:9899   */\n      mstore\n        /* \"#utility.yul\":9937:9941   */\n      0x20\n        /* \"#utility.yul\":9934:9935   */\n      0x00\n        /* \"#utility.yul\":9924:9942   */\n      keccak256\n        /* \"#utility.yul\":10007:10009   */\n      0x1f\n        /* \"#utility.yul\":9995:10005   */\n      dup5\n        /* \"#utility.yul\":9991:10010   */\n      add\n        /* \"#utility.yul\":9988:9989   */\n      0x05\n        /* \"#utility.yul\":9984:10011   */\n      shr\n        /* \"#utility.yul\":9978:9982   */\n      dup2\n        /* \"#utility.yul\":9974:10012   */\n      add\n        /* \"#utility.yul\":10043:10047   */\n      0x20\n        /* \"#utility.yul\":10031:10041   */\n      dup6\n        /* \"#utility.yul\":10028:10048   */\n      lt\n        /* \"#utility.yul\":10025:10072   */\n      iszero\n      tag_466\n      jumpi\n      pop\n        /* \"#utility.yul\":10066:10070   */\n      dup1\n        /* \"#utility.yul\":10025:10072   */\n    tag_466:\n        /* \"#utility.yul\":10121:10123   */\n      0x1f\n        /* \"#utility.yul\":10116:10119   */\n      dup5\n        /* \"#utility.yul\":10112:10124   */\n      add\n        /* \"#utility.yul\":10109:10110   */\n      0x05\n        /* \"#utility.yul\":10105:10125   */\n      shr\n        /* \"#utility.yul\":10099:10103   */\n      dup3\n        /* \"#utility.yul\":10095:10126   */\n      add\n        /* \"#utility.yul\":10085:10126   */\n      swap2\n      pop\n        /* \"#utility.yul\":10176:10257   */\n    tag_467:\n        /* \"#utility.yul\":10194:10196   */\n      dup2\n        /* \"#utility.yul\":10187:10192   */\n      dup2\n        /* \"#utility.yul\":10184:10197   */\n      lt\n        /* \"#utility.yul\":10176:10257   */\n      iszero\n      tag_469\n      jumpi\n        /* \"#utility.yul\":10253:10254   */\n      0x00\n        /* \"#utility.yul\":10239:10255   */\n      dup2\n      sstore\n        /* \"#utility.yul\":10220:10221   */\n      0x01\n        /* \"#utility.yul\":10209:10222   */\n      add\n        /* \"#utility.yul\":10176:10257   */\n      jump(tag_467)\n    tag_469:\n        /* \"#utility.yul\":10180:10183   */\n      pop\n      pop\n        /* \"#utility.yul\":9755:10273   */\n      pop\n      pop\n      pop\n      jump\t// out\n        /* \"#utility.yul\":10449:11647   */\n    tag_231:\n        /* \"#utility.yul\":10573:10591   */\n      0xffffffffffffffff\n        /* \"#utility.yul\":10568:10571   */\n      dup4\n        /* \"#utility.yul\":10565:10592   */\n      gt\n        /* \"#utility.yul\":10562:10615   */\n      iszero\n      tag_473\n      jumpi\n        /* \"#utility.yul\":10595:10613   */\n      tag_473\n      tag_380\n      jump\t// in\n    tag_473:\n        /* \"#utility.yul\":10624:10718   */\n      tag_474\n        /* \"#utility.yul\":10714:10717   */\n      dup4\n        /* \"#utility.yul\":10674:10712   */\n      tag_475\n        /* \"#utility.yul\":10706:10710   */\n      dup4\n        /* \"#utility.yul\":10700:10711   */\n      sload\n        /* \"#utility.yul\":10674:10712   */\n      tag_165\n      jump\t// in\n    tag_475:\n        /* \"#utility.yul\":10668:10672   */\n      dup4\n        /* \"#utility.yul\":10624:10718   */\n      tag_382\n      jump\t// in\n    tag_474:\n        /* \"#utility.yul\":10744:10745   */\n      0x00\n        /* \"#utility.yul\":10769:10771   */\n      0x1f\n        /* \"#utility.yul\":10764:10767   */\n      dup5\n        /* \"#utility.yul\":10761:10772   */\n      gt\n        /* \"#utility.yul\":10786:10787   */\n      0x01\n        /* \"#utility.yul\":10781:11389   */\n      dup2\n      eq\n      tag_477\n      jumpi\n        /* \"#utility.yul\":11433:11434   */\n      0x00\n        /* \"#utility.yul\":11450:11453   */\n      dup6\n        /* \"#utility.yul\":11447:11540   */\n      iszero\n      tag_478\n      jumpi\n      pop\n        /* \"#utility.yul\":11506:11525   */\n      dup4\n      dup3\n      add\n        /* \"#utility.yul\":11493:11526   */\n      calldataload\n        /* \"#utility.yul\":11447:11540   */\n    tag_478:\n      not(0x00)\n        /* \"#utility.yul\":10406:10407   */\n      0x03\n        /* \"#utility.yul\":10402:10413   */\n      dup8\n      swap1\n      shl\n        /* \"#utility.yul\":10398:10422   */\n      shr\n        /* \"#utility.yul\":10394:10423   */\n      not\n        /* \"#utility.yul\":10384:10424   */\n      and\n        /* \"#utility.yul\":10430:10431   */\n      0x01\n        /* \"#utility.yul\":10426:10437   */\n      dup7\n      swap1\n      shl\n        /* \"#utility.yul\":10381:10438   */\n      or\n        /* \"#utility.yul\":11553:11631   */\n      dup4\n      sstore\n        /* \"#utility.yul\":10754:11641   */\n      jump(tag_469)\n        /* \"#utility.yul\":10781:11389   */\n    tag_477:\n        /* \"#utility.yul\":9702:9703   */\n      0x00\n        /* \"#utility.yul\":9695:9709   */\n      dup4\n      dup2\n      mstore\n        /* \"#utility.yul\":9739:9743   */\n      0x20\n        /* \"#utility.yul\":9726:9744   */\n      dup2\n      keccak256\n      not(0x1f)\n        /* \"#utility.yul\":10817:10834   */\n      dup8\n      and\n      swap2\n        /* \"#utility.yul\":10932:11161   */\n    tag_481:\n        /* \"#utility.yul\":10946:10953   */\n      dup3\n        /* \"#utility.yul\":10943:10944   */\n      dup2\n        /* \"#utility.yul\":10940:10954   */\n      lt\n        /* \"#utility.yul\":10932:11161   */\n      iszero\n      tag_483\n      jumpi\n        /* \"#utility.yul\":11035:11054   */\n      dup7\n      dup6\n      add\n        /* \"#utility.yul\":11022:11055   */\n      calldataload\n        /* \"#utility.yul\":11007:11056   */\n      dup3\n      sstore\n        /* \"#utility.yul\":11142:11146   */\n      0x20\n        /* \"#utility.yul\":11127:11147   */\n      swap5\n      dup6\n      add\n      swap5\n        /* \"#utility.yul\":11095:11096   */\n      0x01\n        /* \"#utility.yul\":11083:11097   */\n      swap1\n      swap3\n      add\n      swap2\n        /* \"#utility.yul\":10962:10974   */\n      add\n        /* \"#utility.yul\":10932:11161   */\n      jump(tag_481)\n    tag_483:\n        /* \"#utility.yul\":10936:10939   */\n      pop\n        /* \"#utility.yul\":11189:11192   */\n      dup7\n        /* \"#utility.yul\":11180:11187   */\n      dup3\n        /* \"#utility.yul\":11177:11193   */\n      lt\n        /* \"#utility.yul\":11174:11333   */\n      iszero\n      tag_484\n      jumpi\n        /* \"#utility.yul\":11313:11314   */\n      0x00\n        /* \"#utility.yul\":11309:11315   */\n      not\n        /* \"#utility.yul\":11303:11306   */\n      0xf8\n        /* \"#utility.yul\":11297:11300   */\n      dup9\n        /* \"#utility.yul\":11294:11295   */\n      0x03\n        /* \"#utility.yul\":11290:11301   */\n      shl\n        /* \"#utility.yul\":11286:11307   */\n      and\n        /* \"#utility.yul\":11282:11316   */\n      shr\n        /* \"#utility.yul\":11278:11317   */\n      not\n        /* \"#utility.yul\":11265:11274   */\n      dup5\n        /* \"#utility.yul\":11260:11263   */\n      dup8\n        /* \"#utility.yul\":11256:11275   */\n      add\n        /* \"#utility.yul\":11243:11276   */\n      calldataload\n        /* \"#utility.yul\":11239:11318   */\n      and\n        /* \"#utility.yul\":11231:11237   */\n      dup2\n        /* \"#utility.yul\":11224:11319   */\n      sstore\n        /* \"#utility.yul\":11174:11333   */\n    tag_484:\n      pop\n      pop\n        /* \"#utility.yul\":11376:11377   */\n      0x01\n        /* \"#utility.yul\":11370:11373   */\n      dup6\n        /* \"#utility.yul\":11367:11368   */\n      0x01\n        /* \"#utility.yul\":11363:11374   */\n      shl\n        /* \"#utility.yul\":11359:11378   */\n      add\n        /* \"#utility.yul\":11353:11357   */\n      dup4\n        /* \"#utility.yul\":11346:11379   */\n      sstore\n        /* \"#utility.yul\":10754:11641   */\n      pop\n      pop\n        /* \"#utility.yul\":10449:11647   */\n      pop\n      pop\n      pop\n      jump\t// out\n        /* \"#utility.yul\":11652:11925   */\n    tag_235:\n        /* \"#utility.yul\":11837:11843   */\n      dup2\n        /* \"#utility.yul\":11829:11835   */\n      dup4\n        /* \"#utility.yul\":11824:11827   */\n      dup3\n        /* \"#utility.yul\":11811:11844   */\n      calldatacopy\n        /* \"#utility.yul\":11793:11796   */\n      0x00\n        /* \"#utility.yul\":11863:11879   */\n      swap2\n      add\n        /* \"#utility.yul\":11888:11901   */\n      swap1\n      dup2\n      mstore\n        /* \"#utility.yul\":11863:11879   */\n      swap2\n        /* \"#utility.yul\":11652:11925   */\n      swap1\n      pop\n      jump\t// out\n        /* \"#utility.yul\":15295:16140   */\n    tag_316:\n        /* \"#utility.yul\":15425:15428   */\n      0x00\n        /* \"#utility.yul\":15454:15455   */\n      dup1\n        /* \"#utility.yul\":15487:15493   */\n      dup4\n        /* \"#utility.yul\":15481:15494   */\n      sload\n        /* \"#utility.yul\":15517:15553   */\n      tag_496\n        /* \"#utility.yul\":15543:15552   */\n      dup2\n        /* \"#utility.yul\":15517:15553   */\n      tag_165\n      jump\t// in\n    tag_496:\n        /* \"#utility.yul\":15572:15573   */\n      0x01\n        /* \"#utility.yul\":15589:15606   */\n      dup3\n      dup2\n      and\n        /* \"#utility.yul\":15615:15748   */\n      dup1\n      iszero\n      tag_498\n      jumpi\n        /* \"#utility.yul\":15762:15763   */\n      0x01\n        /* \"#utility.yul\":15757:16115   */\n      dup2\n      eq\n      tag_499\n      jumpi\n        /* \"#utility.yul\":15582:16115   */\n      jump(tag_497)\n        /* \"#utility.yul\":15615:15748   */\n    tag_498:\n      not(0xff)\n        /* \"#utility.yul\":15648:15672   */\n      dup5\n      and\n        /* \"#utility.yul\":15636:15673   */\n      dup8\n      mstore\n        /* \"#utility.yul\":15721:15735   */\n      dup3\n      iszero\n        /* \"#utility.yul\":15714:15736   */\n      iszero\n        /* \"#utility.yul\":15702:15737   */\n      dup4\n      mul\n        /* \"#utility.yul\":15693:15738   */\n      dup8\n      add\n      swap5\n      pop\n        /* \"#utility.yul\":15615:15748   */\n      jump(tag_497)\n        /* \"#utility.yul\":15757:16115   */\n    tag_499:\n        /* \"#utility.yul\":15788:15794   */\n      dup8\n        /* \"#utility.yul\":15785:15786   */\n      0x00\n        /* \"#utility.yul\":15778:15795   */\n      mstore\n        /* \"#utility.yul\":15818:15822   */\n      0x20\n        /* \"#utility.yul\":15863:15867   */\n      dup1\n        /* \"#utility.yul\":15860:15861   */\n      0x00\n        /* \"#utility.yul\":15850:15868   */\n      keccak256\n        /* \"#utility.yul\":15890:15891   */\n      0x00\n        /* \"#utility.yul\":15904:16069   */\n    tag_500:\n        /* \"#utility.yul\":15918:15924   */\n      dup6\n        /* \"#utility.yul\":15915:15916   */\n      dup2\n        /* \"#utility.yul\":15912:15925   */\n      lt\n        /* \"#utility.yul\":15904:16069   */\n      iszero\n      tag_502\n      jumpi\n        /* \"#utility.yul\":15996:16010   */\n      dup2\n      sload\n        /* \"#utility.yul\":15983:15994   */\n      dup11\n      dup3\n      add\n        /* \"#utility.yul\":15976:16011   */\n      mstore\n        /* \"#utility.yul\":16039:16055   */\n      swap1\n      dup5\n      add\n      swap1\n        /* \"#utility.yul\":15933:15943   */\n      dup3\n      add\n        /* \"#utility.yul\":15904:16069   */\n      jump(tag_500)\n    tag_502:\n        /* \"#utility.yul\":15908:15911   */\n      pop\n      pop\n      pop\n        /* \"#utility.yul\":16098:16104   */\n      dup3\n        /* \"#utility.yul\":16093:16096   */\n      dup8\n        /* \"#utility.yul\":16089:16105   */\n      add\n        /* \"#utility.yul\":16082:16105   */\n      swap5\n      pop\n        /* \"#utility.yul\":15582:16115   */\n    tag_497:\n      pop\n        /* \"#utility.yul\":16131:16134   */\n      swap3\n      swap7\n        /* \"#utility.yul\":15295:16140   */\n      swap6\n      pop\n      pop\n      pop\n      pop\n      pop\n      pop\n      jump\t// out\n        /* \"#utility.yul\":16918:17045   */\n    tag_358:\n        /* \"#utility.yul\":16979:16989   */\n      0x4e487b71\n        /* \"#utility.yul\":16974:16977   */\n      0xe0\n        /* \"#utility.yul\":16970:16990   */\n      shl\n        /* \"#utility.yul\":16967:16968   */\n      0x00\n        /* \"#utility.yul\":16960:16991   */\n      mstore\n        /* \"#utility.yul\":17010:17014   */\n      0x32\n        /* \"#utility.yul\":17007:17008   */\n      0x04\n        /* \"#utility.yul\":17000:17015   */\n      mstore\n        /* \"#utility.yul\":17034:17038   */\n      0x24\n        /* \"#utility.yul\":17031:17032   */\n      0x00\n        /* \"#utility.yul\":17024:17039   */\n      revert\n        /* \"#utility.yul\":17050:17177   */\n    tag_365:\n        /* \"#utility.yul\":17111:17121   */\n      0x4e487b71\n        /* \"#utility.yul\":17106:17109   */\n      0xe0\n        /* \"#utility.yul\":17102:17122   */\n      shl\n        /* \"#utility.yul\":17099:17100   */\n      0x00\n        /* \"#utility.yul\":17092:17123   */\n      mstore\n        /* \"#utility.yul\":17142:17146   */\n      0x31\n        /* \"#utility.yul\":17139:17140   */\n      0x04\n        /* \"#utility.yul\":17132:17147   */\n      mstore\n        /* \"#utility.yul\":17166:17170   */\n      0x24\n        /* \"#utility.yul\":17163:17164   */\n      0x00\n        /* \"#utility.yul\":17156:17171   */\n      revert\n    stop\n    data_ada389e1fc24a8587c776340efb91b36e675792ab631816100d55df0b5cf3cbc ddf252ad1be2c89b69c2b068fc378daa952ba7f163c4a11628f55a4df523b3ef\n\n    auxdata: 0xa2646970667358221220633ef8ba3f4ab97308e3c3fbee51ed084ed313251b860ca48c7e39edc22f710264736f6c63430008160033\n}\n",
				"bytecode": {
					"linkReferences": {},
					"object": "60e060405234801562000010575f80fd5b50604051620020b6380380620020b683398101604081905262000033916200020e565b6040518060400160405280600981526020016823b437902a37b5b2b760b91b8152506040518060400160405280600381526020016247484f60e81b8152506012825f9081620000839190620002db565b506001620000928382620002db565b5060ff81166080524660a052620000a8620000c4565b60c05250620000bc91505f9050826200015e565b505062000421565b5f7f8b73c3c69bb8fe3d512ecc4cf759cc79239f7b179b0ffacaa9a75d522b39400f5f604051620000f69190620003a7565b6040805191829003822060208301939093528101919091527fc89efdaa54c0f20c7adf612882df0950f5a951637e0307cdcb4c672f298b8bc660608201524660808201523060a082015260c00160405160208183030381529060405280519060200120905090565b5f8281526006602090815260408083206001600160a01b038516845290915281205460ff1662000205575f8381526006602090815260408083206001600160a01b03861684529091529020805460ff19166001179055620001bc3390565b6001600160a01b0316826001600160a01b0316847f2f8788117e7eff1d82e926ec794901d17c78024a50270940304540a733656f0d60405160405180910390a450600162000208565b505f5b92915050565b5f602082840312156200021f575f80fd5b81516001600160a01b038116811462000236575f80fd5b9392505050565b634e487b7160e01b5f52604160045260245ffd5b600181811c908216806200026657607f821691505b6020821081036200028557634e487b7160e01b5f52602260045260245ffd5b50919050565b601f821115620002d657805f5260205f20601f840160051c81016020851015620002b25750805b601f840160051c820191505b81811015620002d3575f8155600101620002be565b50505b505050565b81516001600160401b03811115620002f757620002f76200023d565b6200030f8162000308845462000251565b846200028b565b602080601f83116001811462000345575f84156200032d5750858301515b5f19600386901b1c1916600185901b1785556200039f565b5f85815260208120601f198616915b82811015620003755788860151825594840194600190910190840162000354565b50858210156200039357878501515f19600388901b60f8161c191681555b505060018460011b0185555b505050505050565b5f808354620003b68162000251565b60018281168015620003d15760018114620003e75762000415565b60ff198416875282151583028701945062000415565b875f526020805f205f5b858110156200040c5781548a820152908401908201620003f1565b50505082870194505b50929695505050505050565b60805160a05160c051611c6a6200044c5f395f61076c01525f61073c01525f6102c70152611c6a5ff3fe608060405234801561000f575f80fd5b50600436106101d1575f3560e01c8063550d9964116100fe578063a217fddf1161009e578063d46ec0ed1161006e578063d46ec0ed14610488578063d505accf146104a8578063d547741f146104bb578063dd62ed3e146104ce575f80fd5b8063a217fddf14610409578063a9059cbb14610410578063aa02f94a14610423578063af93df5714610475575f80fd5b80637fc24def116100d95780637fc24def146103c857806391d14854146103db57806395d89b41146103ee578063a11812ba146103f6575f80fd5b8063550d99641461036357806370a082311461038a5780637ecebe00146103a9575f80fd5b80632f2ff15d1161017457806336568abe1161014457806336568abe1461030357806340c10f191461031657806342966c6814610329578063433bef441461033c575f80fd5b80632f2ff15d1461028657806330adf81f1461029b578063313ce567146102c25780633644e515146102fb575f80fd5b806318160ddd116101af57806318160ddd146102255780631ec90f2e1461023c57806323b872dd14610251578063248a9ca314610264575f80fd5b806301ffc9a7146101d557806306fdde03146101fd578063095ea7b314610212575b5f80fd5b6101e86101e336600461169f565b6104f8565b60405190151581526020015b60405180910390f35b61020561052e565b6040516101f49190611709565b6101e8610220366004611736565b6105b9565b61022e60025481565b6040519081526020016101f4565b610244610624565b6040516101f4919061175e565b6101e861025f3660046117aa565b610635565b61022e6102723660046117e3565b5f9081526006602052604090206001015490565b6102996102943660046117fa565b61070f565b005b61022e7f6e71edae12b1b97f4d1f60370fef10105fa2faae0126114a169c64845d6126c981565b6102e97f000000000000000000000000000000000000000000000000000000000000000081565b60405160ff90911681526020016101f4565b61022e610739565b6102996103113660046117fa565b61078e565b610299610324366004611736565b6107c6565b6102996103373660046117e3565b61090b565b61022e7f5e20732f79076148980e17b6ce9f22756f85058fe2765420ed48a504bef5a8bc81565b61022e7fc7f115822aabac0cd6b9d21b08c0c63819451a58157aecad689d1b5674fad40881565b61022e610398366004611824565b60036020525f908152604090205481565b61022e6103b7366004611824565b60056020525f908152604090205481565b6102996103d6366004611853565b6109e4565b6101e86103e93660046117fa565b610b6c565b610205610b96565b610299610404366004611824565b610ba3565b61022e5f81565b6101e861041e366004611736565b610d2e565b610460610431366004611824565b6001600160a01b03165f908152600760205260409020546001600160801b0380821692600160801b9092041690565b604080519283526020830191909152016101f4565b6102996104833660046118e0565b610d91565b61049b610496366004611824565b610ea0565b6040516101f49190611908565b6102996104b636600461194b565b610f96565b6102996104c93660046117fa565b6111e1565b61022e6104dc3660046119b8565b600460209081525f928352604080842090915290825290205481565b5f6001600160e01b03198216637965db0b60e01b148061052857506301ffc9a760e01b6001600160e01b03198316145b92915050565b5f805461053a906119e0565b80601f0160208091040260200160405190810160405280929190818152602001828054610566906119e0565b80156105b15780601f10610588576101008083540402835291602001916105b1565b820191905f5260205f20905b81548152906001019060200180831161059457829003601f168201915b505050505081565b335f8181526004602090815260408083206001600160a01b038716808552925280832085905551919290917f8c5be1e5ebec7d5bd14f71427d1e84f3dd0314c0f7b2291e5b200ac8c7c3b925906106139086815260200190565b60405180910390a350600192915050565b60606106306008611205565b905090565b6001600160a01b0383165f9081526004602090815260408083203384529091528120545f19811461068e5761066a8382611a2c565b6001600160a01b0386165f9081526004602090815260408083203384529091529020555b6001600160a01b0385165f90815260036020526040812080548592906106b5908490611a2c565b90915550506001600160a01b038085165f81815260036020526040908190208054870190555190918716905f80516020611c15833981519152906106fc9087815260200190565b60405180910390a3506001949350505050565b5f8281526006602052604090206001015461072981611218565b6107338383611225565b50505050565b5f7f00000000000000000000000000000000000000000000000000000000000000004614610769576106306112b6565b507f000000000000000000000000000000000000000000000000000000000000000090565b6001600160a01b03811633146107b75760405163334bd91960e11b815260040160405180910390fd5b6107c1828261134e565b505050565b5f81116108105760405162461bcd60e51b81526020600482015260136024820152721253959053125117d352539517d05353d55395606a1b60448201526064015b60405180910390fd5b335f90815260076020526040812080549091600160801b9091046001600160801b03169061083e8483611a3f565b83549091506001600160801b03168111156108a75760405162461bcd60e51b8152602060048201526024808201527f464143494c495441544f525f4255434b45545f43415041434954595f455843456044820152631151115160e21b6064820152608401610807565b82546001600160801b03808316600160801b0291161783556108c985856113b9565b604080518381526020810183905233917facb6de9209e4f34974cb165eef5738f0cf0b4ea9819ef30d30f0f7d81272ab82910160405180910390a25050505050565b5f81116109505760405162461bcd60e51b81526020600482015260136024820152721253959053125117d095549397d05353d55395606a1b6044820152606401610807565b335f90815260076020526040812080549091600160801b9091046001600160801b03169061097e8483611a2c565b83546001600160801b03808316600160801b02911617845590506109a23385611410565b604080518381526020810183905233917facb6de9209e4f34974cb165eef5738f0cf0b4ea9819ef30d30f0f7d81272ab8291015b60405180910390a250505050565b7f5e20732f79076148980e17b6ce9f22756f85058fe2765420ed48a504bef5a8bc610a0e81611218565b6001600160a01b0385165f908152600760205260409020600181018054610a34906119e0565b159050610a835760405162461bcd60e51b815260206004820152601a60248201527f464143494c495441544f525f414c52454144595f4558495354530000000000006044820152606401610807565b83610ac05760405162461bcd60e51b815260206004820152600d60248201526c1253959053125117d310509153609a1b6044820152606401610807565b60018101610acf858783611ab1565b5080546001600160801b0319166001600160801b038416178155610af460088761146f565b508484604051602001610b08929190611b6b565b60408051601f198184030181529082905280516020918201206001600160801b0386168352916001600160a01b038916917fdabd62626ada7b13e299389e94d768b294e5e24285ed2ffa1e5cd447c99c54ad910160405180910390a3505050505050565b5f9182526006602090815260408084206001600160a01b0393909316845291905290205460ff1690565b6001805461053a906119e0565b7f5e20732f79076148980e17b6ce9f22756f85058fe2765420ed48a504bef5a8bc610bcd81611218565b6001600160a01b0382165f9081526007602052604081206001018054610bf2906119e0565b905011610c415760405162461bcd60e51b815260206004820152601a60248201527f464143494c495441544f525f444f45535f4e4f545f45584953540000000000006044820152606401610807565b6001600160a01b0382165f90815260076020526040902054600160801b90046001600160801b031615610cc05760405162461bcd60e51b815260206004820152602160248201527f464143494c495441544f525f4255434b45545f4c4556454c5f4e4f545f5a45526044820152604f60f81b6064820152608401610807565b6001600160a01b0382165f90815260076020526040812081815590610ce86001830182611655565b50610cf69050600883611483565b506040516001600160a01b038316907fa8fe5b89f35f2ebd6f3f95a7ef215f4bd89179e10c101073ae76cffad14734cf905f90a25050565b335f90815260036020526040812080548391908390610d4e908490611a2c565b90915550506001600160a01b0383165f81815260036020526040908190208054850190555133905f80516020611c15833981519152906106139086815260200190565b7fc7f115822aabac0cd6b9d21b08c0c63819451a58157aecad689d1b5674fad408610dbb81611218565b6001600160a01b0383165f9081526007602052604081206001018054610de0906119e0565b905011610e2f5760405162461bcd60e51b815260206004820152601a60248201527f464143494c495441544f525f444f45535f4e4f545f45584953540000000000006044820152606401610807565b6001600160a01b0383165f8181526007602090815260409182902080546001600160801b031981166001600160801b03888116918217909355845192909116808352928201529092917fc795c0a4927c3b6645e4e49a5a519af936b3c1c0e4c323a3f7251063f3f4bb0e91016109d6565b60408051606080820183525f80835260208084018290528385018390526001600160a01b038616825260078152908490208451928301855280546001600160801b038082168552600160801b9091041691830191909152600181018054939492939192840191610f0f906119e0565b80601f0160208091040260200160405190810160405280929190818152602001828054610f3b906119e0565b8015610f865780601f10610f5d57610100808354040283529160200191610f86565b820191905f5260205f20905b815481529060010190602001808311610f6957829003601f168201915b5050505050815250509050919050565b42841015610fe65760405162461bcd60e51b815260206004820152601760248201527f5045524d49545f444541444c494e455f455850495245440000000000000000006044820152606401610807565b5f610fef610739565b6001600160a01b038981165f8181526005602090815260409182902080546001810190915582517f6e71edae12b1b97f4d1f60370fef10105fa2faae0126114a169c64845d6126c98184015280840194909452938c166060840152608083018b905260a083019390935260c08083018a90528151808403909101815260e08301909152805192019190912061190160f01b6101008301526101028201929092526101228101919091526101420160408051601f1981840301815282825280516020918201205f80855291840180845281905260ff88169284019290925260608301869052608083018590529092509060019060a0016020604051602081039080840390855afa158015611104573d5f803e3d5ffd5b5050604051601f1901519150506001600160a01b0381161580159061113a5750886001600160a01b0316816001600160a01b0316145b6111775760405162461bcd60e51b815260206004820152600e60248201526d24a72b20a624a22fa9a4a3a722a960911b6044820152606401610807565b6001600160a01b039081165f9081526004602090815260408083208b8516808552908352928190208a905551898152919350918a16917f8c5be1e5ebec7d5bd14f71427d1e84f3dd0314c0f7b2291e5b200ac8c7c3b925910160405180910390a350505050505050565b5f828152600660205260409020600101546111fb81611218565b610733838361134e565b60605f61121183611497565b9392505050565b61122281336114f0565b50565b5f6112308383610b6c565b6112af575f8381526006602090815260408083206001600160a01b03861684529091529020805460ff191660011790556112673390565b6001600160a01b0316826001600160a01b0316847f2f8788117e7eff1d82e926ec794901d17c78024a50270940304540a733656f0d60405160405180910390a4506001610528565b505f610528565b5f7f8b73c3c69bb8fe3d512ecc4cf759cc79239f7b179b0ffacaa9a75d522b39400f5f6040516112e69190611b7a565b6040805191829003822060208301939093528101919091527fc89efdaa54c0f20c7adf612882df0950f5a951637e0307cdcb4c672f298b8bc660608201524660808201523060a082015260c00160405160208183030381529060405280519060200120905090565b5f6113598383610b6c565b156112af575f8381526006602090815260408083206001600160a01b0386168085529252808320805460ff1916905551339286917ff6391f5c32d9c69d2a47ea670b442974b53935d1edc7fd64eb21e047a839171b9190a4506001610528565b8060025f8282546113ca9190611a3f565b90915550506001600160a01b0382165f818152600360209081526040808320805486019055518481525f80516020611c1583398151915291015b60405180910390a35050565b6001600160a01b0382165f9081526003602052604081208054839290611437908490611a2c565b90915550506002805482900390556040518181525f906001600160a01b038416905f80516020611c1583398151915290602001611404565b5f611211836001600160a01b03841661152d565b5f611211836001600160a01b038416611572565b6060815f018054806020026020016040519081016040528092919081815260200182805480156114e457602002820191905f5260205f20905b8154815260200190600101908083116114d0575b50505050509050919050565b6114fa8282610b6c565b6115295760405163e2517d3f60e01b81526001600160a01b038216600482015260248101839052604401610807565b5050565b5f8181526001830160205260408120546112af57508154600181810184555f848152602080822090930184905584548482528286019093526040902091909155610528565b5f818152600183016020526040812054801561164c575f611594600183611a2c565b85549091505f906115a790600190611a2c565b9050808214611606575f865f0182815481106115c5576115c5611bec565b905f5260205f200154905080875f0184815481106115e5576115e5611bec565b5f918252602080832090910192909255918252600188019052604090208390555b855486908061161757611617611c00565b600190038181905f5260205f20015f90559055856001015f8681526020019081526020015f205f905560019350505050610528565b5f915050610528565b508054611661906119e0565b5f825580601f10611670575050565b601f0160209004905f5260205f209081019061122291905b8082111561169b575f8155600101611688565b5090565b5f602082840312156116af575f80fd5b81356001600160e01b031981168114611211575f80fd5b5f81518084525f5b818110156116ea576020818501810151868301820152016116ce565b505f602082860101526020601f19601f83011685010191505092915050565b602081525f61121160208301846116c6565b80356001600160a01b0381168114611731575f80fd5b919050565b5f8060408385031215611747575f80fd5b6117508361171b565b946020939093013593505050565b602080825282518282018190525f9190848201906040850190845b8181101561179e5783516001600160a01b031683529284019291840191600101611779565b50909695505050505050565b5f805f606084860312156117bc575f80fd5b6117c58461171b565b92506117d36020850161171b565b9150604084013590509250925092565b5f602082840312156117f3575f80fd5b5035919050565b5f806040838503121561180b575f80fd5b8235915061181b6020840161171b565b90509250929050565b5f60208284031215611834575f80fd5b6112118261171b565b80356001600160801b0381168114611731575f80fd5b5f805f8060608587031215611866575f80fd5b61186f8561171b565b9350602085013567ffffffffffffffff8082111561188b575f80fd5b818701915087601f83011261189e575f80fd5b8135818111156118ac575f80fd5b8860208285010111156118bd575f80fd5b6020830195508094505050506118d56040860161183d565b905092959194509250565b5f80604083850312156118f1575f80fd5b6118fa8361171b565b915061181b6020840161183d565b602081525f6001600160801b0380845116602084015280602085015116604084015250604083015160608084015261194360808401826116c6565b949350505050565b5f805f805f805f60e0888a031215611961575f80fd5b61196a8861171b565b96506119786020890161171b565b95506040880135945060608801359350608088013560ff8116811461199b575f80fd5b9699959850939692959460a0840135945060c09093013592915050565b5f80604083850312156119c9575f80fd5b6119d28361171b565b915061181b6020840161171b565b600181811c908216806119f457607f821691505b602082108103611a1257634e487b7160e01b5f52602260045260245ffd5b50919050565b634e487b7160e01b5f52601160045260245ffd5b8181038181111561052857610528611a18565b8082018082111561052857610528611a18565b634e487b7160e01b5f52604160045260245ffd5b601f8211156107c157805f5260205f20601f840160051c81016020851015611a8b5750805b601f840160051c820191505b81811015611aaa575f8155600101611a97565b5050505050565b67ffffffffffffffff831115611ac957611ac9611a52565b611add83611ad783546119e0565b83611a66565b5f601f841160018114611b0e575f8515611af75750838201355b5f19600387901b1c1916600186901b178355611aaa565b5f83815260208120601f198716915b82811015611b3d5786850135825560209485019460019092019101611b1d565b5086821015611b59575f1960f88860031b161c19848701351681555b505060018560011b0183555050505050565b818382375f9101908152919050565b5f808354611b87816119e0565b60018281168015611b9f5760018114611bb457611be0565b60ff1984168752821515830287019450611be0565b875f526020805f205f5b85811015611bd75781548a820152908401908201611bbe565b50505082870194505b50929695505050505050565b634e487b7160e01b5f52603260045260245ffd5b634e487b7160e01b5f52603160045260245ffdfeddf252ad1be2c89b69c2b068fc378daa952ba7f163c4a11628f55a4df523b3efa2646970667358221220633ef8ba3f4ab97308e3c3fbee51ed084ed313251b860ca48c7e39edc22f710264736f6c63430008160033",
					"opcodes": "PUSH1 0xE0 PUSH1 0x40 MSTORE CALLVALUE DUP1 ISZERO PUSH3 0x10 JUMPI PUSH0 DUP1 REVERT JUMPDEST POP PUSH1 0x40 MLOAD PUSH3 0x20B6 CODESIZE SUB DUP1 PUSH3 0x20B6 DUP4 CODECOPY DUP2 ADD PUSH1 0x40 DUP2 SWAP1 MSTORE PUSH3 0x33 SWAP2 PUSH3 0x20E JUMP JUMPDEST PUSH1 0x40 MLOAD DUP1 PUSH1 0x40 ADD PUSH1 0x40 MSTORE DUP1 PUSH1 0x9 DUP2 MSTORE PUSH1 0x20 ADD PUSH9 0x23B437902A37B5B2B7 PUSH1 0xB9 SHL DUP2 MSTORE POP PUSH1 0x40 MLOAD DUP1 PUSH1 0x40 ADD PUSH1 0x40 MSTORE DUP1 PUSH1 0x3 DUP2 MSTORE PUSH1 0x20 ADD PUSH3 0x47484F PUSH1 0xE8 SHL DUP2 MSTORE POP PUSH1 0x12 DUP3 PUSH0 SWAP1 DUP2 PUSH3 0x83 SWAP2 SWAP1 PUSH3 0x2DB JUMP JUMPDEST POP PUSH1 0x1 PUSH3 0x92 DUP4 DUP3 PUSH3 0x2DB JUMP JUMPDEST POP PUSH1 0xFF DUP2 AND PUSH1 0x80 MSTORE CHAINID PUSH1 0xA0 MSTORE PUSH3 0xA8 PUSH3 0xC4 JUMP JUMPDEST PUSH1 0xC0 MSTORE POP PUSH3 0xBC SWAP2 POP PUSH0 SWAP1 POP DUP3 PUSH3 0x15E JUMP JUMPDEST POP POP PUSH3 0x421 JUMP JUMPDEST PUSH0 PUSH32 0x8B73C3C69BB8FE3D512ECC4CF759CC79239F7B179B0FFACAA9A75D522B39400F PUSH0 PUSH1 0x40 MLOAD PUSH3 0xF6 SWAP2 SWAP1 PUSH3 0x3A7 JUMP JUMPDEST PUSH1 0x40 DUP1 MLOAD SWAP2 DUP3 SWAP1 SUB DUP3 KECCAK256 PUSH1 0x20 DUP4 ADD SWAP4 SWAP1 SWAP4 MSTORE DUP2 ADD SWAP2 SWAP1 SWAP2 MSTORE PUSH32 0xC89EFDAA54C0F20C7ADF612882DF0950F5A951637E0307CDCB4C672F298B8BC6 PUSH1 0x60 DUP3 ADD MSTORE CHAINID PUSH1 0x80 DUP3 ADD MSTORE ADDRESS PUSH1 0xA0 DUP3 ADD MSTORE PUSH1 0xC0 ADD PUSH1 0x40 MLOAD PUSH1 0x20 DUP2 DUP4 SUB SUB DUP2 MSTORE SWAP1 PUSH1 0x40 MSTORE DUP1 MLOAD SWAP1 PUSH1 0x20 ADD KECCAK256 SWAP1 POP SWAP1 JUMP JUMPDEST PUSH0 DUP3 DUP2 MSTORE PUSH1 0x6 PUSH1 0x20 SWAP1 DUP2 MSTORE PUSH1 0x40 DUP1 DUP4 KECCAK256 PUSH1 0x1 PUSH1 0x1 PUSH1 0xA0 SHL SUB DUP6 AND DUP5 MSTORE SWAP1 SWAP2 MSTORE DUP2 KECCAK256 SLOAD PUSH1 0xFF AND PUSH3 0x205 JUMPI PUSH0 DUP4 DUP2 MSTORE PUSH1 0x6 PUSH1 0x20 SWAP1 DUP2 MSTORE PUSH1 0x40 DUP1 DUP4 KECCAK256 PUSH1 0x1 PUSH1 0x1 PUSH1 0xA0 SHL SUB DUP7 AND DUP5 MSTORE SWAP1 SWAP2 MSTORE SWAP1 KECCAK256 DUP1 SLOAD PUSH1 0xFF NOT AND PUSH1 0x1 OR SWAP1 SSTORE PUSH3 0x1BC CALLER SWAP1 JUMP JUMPDEST PUSH1 0x1 PUSH1 0x1 PUSH1 0xA0 SHL SUB AND DUP3 PUSH1 0x1 PUSH1 0x1 PUSH1 0xA0 SHL SUB AND DUP5 PUSH32 0x2F8788117E7EFF1D82E926EC794901D17C78024A50270940304540A733656F0D PUSH1 0x40 MLOAD PUSH1 0x40 MLOAD DUP1 SWAP2 SUB SWAP1 LOG4 POP PUSH1 0x1 PUSH3 0x208 JUMP JUMPDEST POP PUSH0 JUMPDEST SWAP3 SWAP2 POP POP JUMP JUMPDEST PUSH0 PUSH1 0x20 DUP3 DUP5 SUB SLT ISZERO PUSH3 0x21F JUMPI PUSH0 DUP1 REVERT JUMPDEST DUP2 MLOAD PUSH1 0x1 PUSH1 0x1 PUSH1 0xA0 SHL SUB DUP2 AND DUP2 EQ PUSH3 0x236 JUMPI PUSH0 DUP1 REVERT JUMPDEST SWAP4 SWAP3 POP POP POP JUMP JUMPDEST PUSH4 0x4E487B71 PUSH1 0xE0 SHL PUSH0 MSTORE PUSH1 0x41 PUSH1 0x4 MSTORE PUSH1 0x24 PUSH0 REVERT JUMPDEST PUSH1 0x1 DUP2 DUP2 SHR SWAP1 DUP3 AND DUP1 PUSH3 0x266 JUMPI PUSH1 0x7F DUP3 AND SWAP2 POP JUMPDEST PUSH1 0x20 DUP3 LT DUP2 SUB PUSH3 0x285 JUMPI PUSH4 0x4E487B71 PUSH1 0xE0 SHL PUSH0 MSTORE PUSH1 0x22 PUSH1 0x4 MSTORE PUSH1 0x24 PUSH0 REVERT JUMPDEST POP SWAP2 SWAP1 POP JUMP JUMPDEST PUSH1 0x1F DUP3 GT ISZERO PUSH3 0x2D6 JUMPI DUP1 PUSH0 MSTORE PUSH1 0x20 PUSH0 KECCAK256 PUSH1 0x1F DUP5 ADD PUSH1 0x5 SHR DUP2 ADD PUSH1 0x20 DUP6 LT ISZERO PUSH3 0x2B2 JUMPI POP DUP1 JUMPDEST PUSH1 0x1F DUP5 ADD PUSH1 0x5 SHR DUP3 ADD SWAP2 POP JUMPDEST DUP2 DUP2 LT ISZERO PUSH3 0x2D3 JUMPI PUSH0 DUP2 SSTORE PUSH1 0x1 ADD PUSH3 0x2BE JUMP JUMPDEST POP POP JUMPDEST POP POP POP JUMP JUMPDEST DUP2 MLOAD PUSH1 0x1 PUSH1 0x1 PUSH1 0x40 SHL SUB DUP2 GT ISZERO PUSH3 0x2F7 JUMPI PUSH3 0x2F7 PUSH3 0x23D JUMP JUMPDEST PUSH3 0x30F DUP2 PUSH3 0x308 DUP5 SLOAD PUSH3 0x251 JUMP JUMPDEST DUP5 PUSH3 0x28B JUMP JUMPDEST PUSH1 0x20 DUP1 PUSH1 0x1F DUP4 GT PUSH1 0x1 DUP2 EQ PUSH3 0x345 JUMPI PUSH0 DUP5 ISZERO PUSH3 0x32D JUMPI POP DUP6 DUP4 ADD MLOAD JUMPDEST PUSH0 NOT PUSH1 0x3 DUP7 SWAP1 SHL SHR NOT AND PUSH1 0x1 DUP6 SWAP1 SHL OR DUP6 SSTORE PUSH3 0x39F JUMP JUMPDEST PUSH0 DUP6 DUP2 MSTORE PUSH1 0x20 DUP2 KECCAK256 PUSH1 0x1F NOT DUP7 AND SWAP2 JUMPDEST DUP3 DUP2 LT ISZERO PUSH3 0x375 JUMPI DUP9 DUP7 ADD MLOAD DUP3 SSTORE SWAP5 DUP5 ADD SWAP5 PUSH1 0x1 SWAP1 SWAP2 ADD SWAP1 DUP5 ADD PUSH3 0x354 JUMP JUMPDEST POP DUP6 DUP3 LT ISZERO PUSH3 0x393 JUMPI DUP8 DUP6 ADD MLOAD PUSH0 NOT PUSH1 0x3 DUP9 SWAP1 SHL PUSH1 0xF8 AND SHR NOT AND DUP2 SSTORE JUMPDEST POP POP PUSH1 0x1 DUP5 PUSH1 0x1 SHL ADD DUP6 SSTORE JUMPDEST POP POP POP POP POP POP JUMP JUMPDEST PUSH0 DUP1 DUP4 SLOAD PUSH3 0x3B6 DUP2 PUSH3 0x251 JUMP JUMPDEST PUSH1 0x1 DUP3 DUP2 AND DUP1 ISZERO PUSH3 0x3D1 JUMPI PUSH1 0x1 DUP2 EQ PUSH3 0x3E7 JUMPI PUSH3 0x415 JUMP JUMPDEST PUSH1 0xFF NOT DUP5 AND DUP8 MSTORE DUP3 ISZERO ISZERO DUP4 MUL DUP8 ADD SWAP5 POP PUSH3 0x415 JUMP JUMPDEST DUP8 PUSH0 MSTORE PUSH1 0x20 DUP1 PUSH0 KECCAK256 PUSH0 JUMPDEST DUP6 DUP2 LT ISZERO PUSH3 0x40C JUMPI DUP2 SLOAD DUP11 DUP3 ADD MSTORE SWAP1 DUP5 ADD SWAP1 DUP3 ADD PUSH3 0x3F1 JUMP JUMPDEST POP POP POP DUP3 DUP8 ADD SWAP5 POP JUMPDEST POP SWAP3 SWAP7 SWAP6 POP POP POP POP POP POP JUMP JUMPDEST PUSH1 0x80 MLOAD PUSH1 0xA0 MLOAD PUSH1 0xC0 MLOAD PUSH2 0x1C6A PUSH3 0x44C PUSH0 CODECOPY PUSH0 PUSH2 0x76C ADD MSTORE PUSH0 PUSH2 0x73C ADD MSTORE PUSH0 PUSH2 0x2C7 ADD MSTORE PUSH2 0x1C6A PUSH0 RETURN INVALID PUSH1 0x80 PUSH1 0x40 MSTORE CALLVALUE DUP1 ISZERO PUSH2 0xF JUMPI PUSH0 DUP1 REVERT JUMPDEST POP PUSH1 0x4 CALLDATASIZE LT PUSH2 0x1D1 JUMPI PUSH0 CALLDATALOAD PUSH1 0xE0 SHR DUP1 PUSH4 0x550D9964 GT PUSH2 0xFE JUMPI DUP1 PUSH4 0xA217FDDF GT PUSH2 0x9E JUMPI DUP1 PUSH4 0xD46EC0ED GT PUSH2 0x6E JUMPI DUP1 PUSH4 0xD46EC0ED EQ PUSH2 0x488 JUMPI DUP1 PUSH4 0xD505ACCF EQ PUSH2 0x4A8 JUMPI DUP1 PUSH4 0xD547741F EQ PUSH2 0x4BB JUMPI DUP1 PUSH4 0xDD62ED3E EQ PUSH2 0x4CE JUMPI PUSH0 DUP1 REVERT JUMPDEST DUP1 PUSH4 0xA217FDDF EQ PUSH2 0x409 JUMPI DUP1 PUSH4 0xA9059CBB EQ PUSH2 0x410 JUMPI DUP1 PUSH4 0xAA02F94A EQ PUSH2 0x423 JUMPI DUP1 PUSH4 0xAF93DF57 EQ PUSH2 0x475 JUMPI PUSH0 DUP1 REVERT JUMPDEST DUP1 PUSH4 0x7FC24DEF GT PUSH2 0xD9 JUMPI DUP1 PUSH4 0x7FC24DEF EQ PUSH2 0x3C8 JUMPI DUP1 PUSH4 0x91D14854 EQ PUSH2 0x3DB JUMPI DUP1 PUSH4 0x95D89B41 EQ PUSH2 0x3EE JUMPI DUP1 PUSH4 0xA11812BA EQ PUSH2 0x3F6 JUMPI PUSH0 DUP1 REVERT JUMPDEST DUP1 PUSH4 0x550D9964 EQ PUSH2 0x363 JUMPI DUP1 PUSH4 0x70A08231 EQ PUSH2 0x38A JUMPI DUP1 PUSH4 0x7ECEBE00 EQ PUSH2 0x3A9 JUMPI PUSH0 DUP1 REVERT JUMPDEST DUP1 PUSH4 0x2F2FF15D GT PUSH2 0x174 JUMPI DUP1 PUSH4 0x36568ABE GT PUSH2 0x144 JUMPI DUP1 PUSH4 0x36568ABE EQ PUSH2 0x303 JUMPI DUP1 PUSH4 0x40C10F19 EQ PUSH2 0x316 JUMPI DUP1 PUSH4 0x42966C68 EQ PUSH2 0x329 JUMPI DUP1 PUSH4 0x433BEF44 EQ PUSH2 0x33C JUMPI PUSH0 DUP1 REVERT JUMPDEST DUP1 PUSH4 0x2F2FF15D EQ PUSH2 0x286 JUMPI DUP1 PUSH4 0x30ADF81F EQ PUSH2 0x29B JUMPI DUP1 PUSH4 0x313CE567 EQ PUSH2 0x2C2 JUMPI DUP1 PUSH4 0x3644E515 EQ PUSH2 0x2FB JUMPI PUSH0 DUP1 REVERT JUMPDEST DUP1 PUSH4 0x18160DDD GT PUSH2 0x1AF JUMPI DUP1 PUSH4 0x18160DDD EQ PUSH2 0x225 JUMPI DUP1 PUSH4 0x1EC90F2E EQ PUSH2 0x23C JUMPI DUP1 PUSH4 0x23B872DD EQ PUSH2 0x251 JUMPI DUP1 PUSH4 0x248A9CA3 EQ PUSH2 0x264 JUMPI PUSH0 DUP1 REVERT JUMPDEST DUP1 PUSH4 0x1FFC9A7 EQ PUSH2 0x1D5 JUMPI DUP1 PUSH4 0x6FDDE03 EQ PUSH2 0x1FD JUMPI DUP1 PUSH4 0x95EA7B3 EQ PUSH2 0x212 JUMPI JUMPDEST PUSH0 DUP1 REVERT JUMPDEST PUSH2 0x1E8 PUSH2 0x1E3 CALLDATASIZE PUSH1 0x4 PUSH2 0x169F JUMP JUMPDEST PUSH2 0x4F8 JUMP JUMPDEST PUSH1 0x40 MLOAD SWAP1 ISZERO ISZERO DUP2 MSTORE PUSH1 0x20 ADD JUMPDEST PUSH1 0x40 MLOAD DUP1 SWAP2 SUB SWAP1 RETURN JUMPDEST PUSH2 0x205 PUSH2 0x52E JUMP JUMPDEST PUSH1 0x40 MLOAD PUSH2 0x1F4 SWAP2 SWAP1 PUSH2 0x1709 JUMP JUMPDEST PUSH2 0x1E8 PUSH2 0x220 CALLDATASIZE PUSH1 0x4 PUSH2 0x1736 JUMP JUMPDEST PUSH2 0x5B9 JUMP JUMPDEST PUSH2 0x22E PUSH1 0x2 SLOAD DUP2 JUMP JUMPDEST PUSH1 0x40 MLOAD SWAP1 DUP2 MSTORE PUSH1 0x20 ADD PUSH2 0x1F4 JUMP JUMPDEST PUSH2 0x244 PUSH2 0x624 JUMP JUMPDEST PUSH1 0x40 MLOAD PUSH2 0x1F4 SWAP2 SWAP1 PUSH2 0x175E JUMP JUMPDEST PUSH2 0x1E8 PUSH2 0x25F CALLDATASIZE PUSH1 0x4 PUSH2 0x17AA JUMP JUMPDEST PUSH2 0x635 JUMP JUMPDEST PUSH2 0x22E PUSH2 0x272 CALLDATASIZE PUSH1 0x4 PUSH2 0x17E3 JUMP JUMPDEST PUSH0 SWAP1 DUP2 MSTORE PUSH1 0x6 PUSH1 0x20 MSTORE PUSH1 0x40 SWAP1 KECCAK256 PUSH1 0x1 ADD SLOAD SWAP1 JUMP JUMPDEST PUSH2 0x299 PUSH2 0x294 CALLDATASIZE PUSH1 0x4 PUSH2 0x17FA JUMP JUMPDEST PUSH2 0x70F JUMP JUMPDEST STOP JUMPDEST PUSH2 0x22E PUSH32 0x6E71EDAE12B1B97F4D1F60370FEF10105FA2FAAE0126114A169C64845D6126C9 DUP2 JUMP JUMPDEST PUSH2 0x2E9 PUSH32 0x0 DUP2 JUMP JUMPDEST PUSH1 0x40 MLOAD PUSH1 0xFF SWAP1 SWAP2 AND DUP2 MSTORE PUSH1 0x20 ADD PUSH2 0x1F4 JUMP JUMPDEST PUSH2 0x22E PUSH2 0x739 JUMP JUMPDEST PUSH2 0x299 PUSH2 0x311 CALLDATASIZE PUSH1 0x4 PUSH2 0x17FA JUMP JUMPDEST PUSH2 0x78E JUMP JUMPDEST PUSH2 0x299 PUSH2 0x324 CALLDATASIZE PUSH1 0x4 PUSH2 0x1736 JUMP JUMPDEST PUSH2 0x7C6 JUMP JUMPDEST PUSH2 0x299 PUSH2 0x337 CALLDATASIZE PUSH1 0x4 PUSH2 0x17E3 JUMP JUMPDEST PUSH2 0x90B JUMP JUMPDEST PUSH2 0x22E PUSH32 0x5E20732F79076148980E17B6CE9F22756F85058FE2765420ED48A504BEF5A8BC DUP2 JUMP JUMPDEST PUSH2 0x22E PUSH32 0xC7F115822AABAC0CD6B9D21B08C0C63819451A58157AECAD689D1B5674FAD408 DUP2 JUMP JUMPDEST PUSH2 0x22E PUSH2 0x398 CALLDATASIZE PUSH1 0x4 PUSH2 0x1824 JUMP JUMPDEST PUSH1 0x3 PUSH1 0x20 MSTORE PUSH0 SWAP1 DUP2 MSTORE PUSH1 0x40 SWAP1 KECCAK256 SLOAD DUP2 JUMP JUMPDEST PUSH2 0x22E PUSH2 0x3B7 CALLDATASIZE PUSH1 0x4 PUSH2 0x1824 JUMP JUMPDEST PUSH1 0x5 PUSH1 0x20 MSTORE PUSH0 SWAP1 DUP2 MSTORE PUSH1 0x40 SWAP1 KECCAK256 SLOAD DUP2 JUMP JUMPDEST PUSH2 0x299 PUSH2 0x3D6 CALLDATASIZE PUSH1 0x4 PUSH2 0x1853 JUMP JUMPDEST PUSH2 0x9E4 JUMP JUMPDEST PUSH2 0x1E8 PUSH2 0x3E9 CALLDATASIZE PUSH1 0x4 PUSH2 0x17FA JUMP JUMPDEST PUSH2 0xB6C JUMP JUMPDEST PUSH2 0x205 PUSH2 0xB96 JUMP JUMPDEST PUSH2 0x299 PUSH2 0x404 CALLDATASIZE PUSH1 0x4 PUSH2 0x1824 JUMP JUMPDEST PUSH2 0xBA3 JUMP JUMPDEST PUSH2 0x22E PUSH0 DUP2 JUMP JUMPDEST PUSH2 0x1E8 PUSH2 0x41E CALLDATASIZE PUSH1 0x4 PUSH2 0x1736 JUMP JUMPDEST PUSH2 0xD2E JUMP JUMPDEST PUSH2 0x460 PUSH2 0x431 CALLDATASIZE PUSH1 0x4 PUSH2 0x1824 JUMP JUMPDEST PUSH1 0x1 PUSH1 0x1 PUSH1 0xA0 SHL SUB AND PUSH0 SWAP1 DUP2 MSTORE PUSH1 0x7 PUSH1 0x20 MSTORE PUSH1 0x40 SWAP1 KECCAK256 SLOAD PUSH1 0x1 PUSH1 0x1 PUSH1 0x80 SHL SUB DUP1 DUP3 AND SWAP3 PUSH1 0x1 PUSH1 0x80 SHL SWAP1 SWAP3 DIV AND SWAP1 JUMP JUMPDEST PUSH1 0x40 DUP1 MLOAD SWAP3 DUP4 MSTORE PUSH1 0x20 DUP4 ADD SWAP2 SWAP1 SWAP2 MSTORE ADD PUSH2 0x1F4 JUMP JUMPDEST PUSH2 0x299 PUSH2 0x483 CALLDATASIZE PUSH1 0x4 PUSH2 0x18E0 JUMP JUMPDEST PUSH2 0xD91 JUMP JUMPDEST PUSH2 0x49B PUSH2 0x496 CALLDATASIZE PUSH1 0x4 PUSH2 0x1824 JUMP JUMPDEST PUSH2 0xEA0 JUMP JUMPDEST PUSH1 0x40 MLOAD PUSH2 0x1F4 SWAP2 SWAP1 PUSH2 0x1908 JUMP JUMPDEST PUSH2 0x299 PUSH2 0x4B6 CALLDATASIZE PUSH1 0x4 PUSH2 0x194B JUMP JUMPDEST PUSH2 0xF96 JUMP JUMPDEST PUSH2 0x299 PUSH2 0x4C9 CALLDATASIZE PUSH1 0x4 PUSH2 0x17FA JUMP JUMPDEST PUSH2 0x11E1 JUMP JUMPDEST PUSH2 0x22E PUSH2 0x4DC CALLDATASIZE PUSH1 0x4 PUSH2 0x19B8 JUMP JUMPDEST PUSH1 0x4 PUSH1 0x20 SWAP1 DUP2 MSTORE PUSH0 SWAP3 DUP4 MSTORE PUSH1 0x40 DUP1 DUP5 KECCAK256 SWAP1 SWAP2 MSTORE SWAP1 DUP3 MSTORE SWAP1 KECCAK256 SLOAD DUP2 JUMP JUMPDEST PUSH0 PUSH1 0x1 PUSH1 0x1 PUSH1 0xE0 SHL SUB NOT DUP3 AND PUSH4 0x7965DB0B PUSH1 0xE0 SHL EQ DUP1 PUSH2 0x528 JUMPI POP PUSH4 0x1FFC9A7 PUSH1 0xE0 SHL PUSH1 0x1 PUSH1 0x1 PUSH1 0xE0 SHL SUB NOT DUP4 AND EQ JUMPDEST SWAP3 SWAP2 POP POP JUMP JUMPDEST PUSH0 DUP1 SLOAD PUSH2 0x53A SWAP1 PUSH2 0x19E0 JUMP JUMPDEST DUP1 PUSH1 0x1F ADD PUSH1 0x20 DUP1 SWAP2 DIV MUL PUSH1 0x20 ADD PUSH1 0x40 MLOAD SWAP1 DUP2 ADD PUSH1 0x40 MSTORE DUP1 SWAP3 SWAP2 SWAP1 DUP2 DUP2 MSTORE PUSH1 0x20 ADD DUP3 DUP1 SLOAD PUSH2 0x566 SWAP1 PUSH2 0x19E0 JUMP JUMPDEST DUP1 ISZERO PUSH2 0x5B1 JUMPI DUP1 PUSH1 0x1F LT PUSH2 0x588 JUMPI PUSH2 0x100 DUP1 DUP4 SLOAD DIV MUL DUP4 MSTORE SWAP2 PUSH1 0x20 ADD SWAP2 PUSH2 0x5B1 JUMP JUMPDEST DUP3 ADD SWAP2 SWAP1 PUSH0 MSTORE PUSH1 0x20 PUSH0 KECCAK256 SWAP1 JUMPDEST DUP2 SLOAD DUP2 MSTORE SWAP1 PUSH1 0x1 ADD SWAP1 PUSH1 0x20 ADD DUP1 DUP4 GT PUSH2 0x594 JUMPI DUP3 SWAP1 SUB PUSH1 0x1F AND DUP3 ADD SWAP2 JUMPDEST POP POP POP POP POP DUP2 JUMP JUMPDEST CALLER PUSH0 DUP2 DUP2 MSTORE PUSH1 0x4 PUSH1 0x20 SWAP1 DUP2 MSTORE PUSH1 0x40 DUP1 DUP4 KECCAK256 PUSH1 0x1 PUSH1 0x1 PUSH1 0xA0 SHL SUB DUP8 AND DUP1 DUP6 MSTORE SWAP3 MSTORE DUP1 DUP4 KECCAK256 DUP6 SWAP1 SSTORE MLOAD SWAP2 SWAP3 SWAP1 SWAP2 PUSH32 0x8C5BE1E5EBEC7D5BD14F71427D1E84F3DD0314C0F7B2291E5B200AC8C7C3B925 SWAP1 PUSH2 0x613 SWAP1 DUP7 DUP2 MSTORE PUSH1 0x20 ADD SWAP1 JUMP JUMPDEST PUSH1 0x40 MLOAD DUP1 SWAP2 SUB SWAP1 LOG3 POP PUSH1 0x1 SWAP3 SWAP2 POP POP JUMP JUMPDEST PUSH1 0x60 PUSH2 0x630 PUSH1 0x8 PUSH2 0x1205 JUMP JUMPDEST SWAP1 POP SWAP1 JUMP JUMPDEST PUSH1 0x1 PUSH1 0x1 PUSH1 0xA0 SHL SUB DUP4 AND PUSH0 SWAP1 DUP2 MSTORE PUSH1 0x4 PUSH1 0x20 SWAP1 DUP2 MSTORE PUSH1 0x40 DUP1 DUP4 KECCAK256 CALLER DUP5 MSTORE SWAP1 SWAP2 MSTORE DUP2 KECCAK256 SLOAD PUSH0 NOT DUP2 EQ PUSH2 0x68E JUMPI PUSH2 0x66A DUP4 DUP3 PUSH2 0x1A2C JUMP JUMPDEST PUSH1 0x1 PUSH1 0x1 PUSH1 0xA0 SHL SUB DUP7 AND PUSH0 SWAP1 DUP2 MSTORE PUSH1 0x4 PUSH1 0x20 SWAP1 DUP2 MSTORE PUSH1 0x40 DUP1 DUP4 KECCAK256 CALLER DUP5 MSTORE SWAP1 SWAP2 MSTORE SWAP1 KECCAK256 SSTORE JUMPDEST PUSH1 0x1 PUSH1 0x1 PUSH1 0xA0 SHL SUB DUP6 AND PUSH0 SWAP1 DUP2 MSTORE PUSH1 0x3 PUSH1 0x20 MSTORE PUSH1 0x40 DUP2 KECCAK256 DUP1 SLOAD DUP6 SWAP3 SWAP1 PUSH2 0x6B5 SWAP1 DUP5 SWAP1 PUSH2 0x1A2C JUMP JUMPDEST SWAP1 SWAP2 SSTORE POP POP PUSH1 0x1 PUSH1 0x1 PUSH1 0xA0 SHL SUB DUP1 DUP6 AND PUSH0 DUP2 DUP2 MSTORE PUSH1 0x3 PUSH1 0x20 MSTORE PUSH1 0x40 SWAP1 DUP2 SWAP1 KECCAK256 DUP1 SLOAD DUP8 ADD SWAP1 SSTORE MLOAD SWAP1 SWAP2 DUP8 AND SWAP1 PUSH0 DUP1 MLOAD PUSH1 0x20 PUSH2 0x1C15 DUP4 CODECOPY DUP2 MLOAD SWAP2 MSTORE SWAP1 PUSH2 0x6FC SWAP1 DUP8 DUP2 MSTORE PUSH1 0x20 ADD SWAP1 JUMP JUMPDEST PUSH1 0x40 MLOAD DUP1 SWAP2 SUB SWAP1 LOG3 POP PUSH1 0x1 SWAP5 SWAP4 POP POP POP POP JUMP JUMPDEST PUSH0 DUP3 DUP2 MSTORE PUSH1 0x6 PUSH1 0x20 MSTORE PUSH1 0x40 SWAP1 KECCAK256 PUSH1 0x1 ADD SLOAD PUSH2 0x729 DUP2 PUSH2 0x1218 JUMP JUMPDEST PUSH2 0x733 DUP4 DUP4 PUSH2 0x1225 JUMP JUMPDEST POP POP POP POP JUMP JUMPDEST PUSH0 PUSH32 0x0 CHAINID EQ PUSH2 0x769 JUMPI PUSH2 0x630 PUSH2 0x12B6 JUMP JUMPDEST POP PUSH32 0x0 SWAP1 JUMP JUMPDEST PUSH1 0x1 PUSH1 0x1 PUSH1 0xA0 SHL SUB DUP2 AND CALLER EQ PUSH2 0x7B7 JUMPI PUSH1 0x40 MLOAD PUSH4 0x334BD919 PUSH1 0xE1 SHL DUP2 MSTORE PUSH1 0x4 ADD PUSH1 0x40 MLOAD DUP1 SWAP2 SUB SWAP1 REVERT JUMPDEST PUSH2 0x7C1 DUP3 DUP3 PUSH2 0x134E JUMP JUMPDEST POP POP POP JUMP JUMPDEST PUSH0 DUP2 GT PUSH2 0x810 JUMPI PUSH1 0x40 MLOAD PUSH3 0x461BCD PUSH1 0xE5 SHL DUP2 MSTORE PUSH1 0x20 PUSH1 0x4 DUP3 ADD MSTORE PUSH1 0x13 PUSH1 0x24 DUP3 ADD MSTORE PUSH19 0x1253959053125117D352539517D05353D55395 PUSH1 0x6A SHL PUSH1 0x44 DUP3 ADD MSTORE PUSH1 0x64 ADD JUMPDEST PUSH1 0x40 MLOAD DUP1 SWAP2 SUB SWAP1 REVERT JUMPDEST CALLER PUSH0 SWAP1 DUP2 MSTORE PUSH1 0x7 PUSH1 0x20 MSTORE PUSH1 0x40 DUP2 KECCAK256 DUP1 SLOAD SWAP1 SWAP2 PUSH1 0x1 PUSH1 0x80 SHL SWAP1 SWAP2 DIV PUSH1 0x1 PUSH1 0x1 PUSH1 0x80 SHL SUB AND SWAP1 PUSH2 0x83E DUP5 DUP4 PUSH2 0x1A3F JUMP JUMPDEST DUP4 SLOAD SWAP1 SWAP2 POP PUSH1 0x1 PUSH1 0x1 PUSH1 0x80 SHL SUB AND DUP2 GT ISZERO PUSH2 0x8A7 JUMPI PUSH1 0x40 MLOAD PUSH3 0x461BCD PUSH1 0xE5 SHL DUP2 MSTORE PUSH1 0x20 PUSH1 0x4 DUP3 ADD MSTORE PUSH1 0x24 DUP1 DUP3 ADD MSTORE PUSH32 0x464143494C495441544F525F4255434B45545F43415041434954595F45584345 PUSH1 0x44 DUP3 ADD MSTORE PUSH4 0x11511151 PUSH1 0xE2 SHL PUSH1 0x64 DUP3 ADD MSTORE PUSH1 0x84 ADD PUSH2 0x807 JUMP JUMPDEST DUP3 SLOAD PUSH1 0x1 PUSH1 0x1 PUSH1 0x80 SHL SUB DUP1 DUP4 AND PUSH1 0x1 PUSH1 0x80 SHL MUL SWAP2 AND OR DUP4 SSTORE PUSH2 0x8C9 DUP6 DUP6 PUSH2 0x13B9 JUMP JUMPDEST PUSH1 0x40 DUP1 MLOAD DUP4 DUP2 MSTORE PUSH1 0x20 DUP2 ADD DUP4 SWAP1 MSTORE CALLER SWAP2 PUSH32 0xACB6DE9209E4F34974CB165EEF5738F0CF0B4EA9819EF30D30F0F7D81272AB82 SWAP2 ADD PUSH1 0x40 MLOAD DUP1 SWAP2 SUB SWAP1 LOG2 POP POP POP POP POP JUMP JUMPDEST PUSH0 DUP2 GT PUSH2 0x950 JUMPI PUSH1 0x40 MLOAD PUSH3 0x461BCD PUSH1 0xE5 SHL DUP2 MSTORE PUSH1 0x20 PUSH1 0x4 DUP3 ADD MSTORE PUSH1 0x13 PUSH1 0x24 DUP3 ADD MSTORE PUSH19 0x1253959053125117D095549397D05353D55395 PUSH1 0x6A SHL PUSH1 0x44 DUP3 ADD MSTORE PUSH1 0x64 ADD PUSH2 0x807 JUMP JUMPDEST CALLER PUSH0 SWAP1 DUP2 MSTORE PUSH1 0x7 PUSH1 0x20 MSTORE PUSH1 0x40 DUP2 KECCAK256 DUP1 SLOAD SWAP1 SWAP2 PUSH1 0x1 PUSH1 0x80 SHL SWAP1 SWAP2 DIV PUSH1 0x1 PUSH1 0x1 PUSH1 0x80 SHL SUB AND SWAP1 PUSH2 0x97E DUP5 DUP4 PUSH2 0x1A2C JUMP JUMPDEST DUP4 SLOAD PUSH1 0x1 PUSH1 0x1 PUSH1 0x80 SHL SUB DUP1 DUP4 AND PUSH1 0x1 PUSH1 0x80 SHL MUL SWAP2 AND OR DUP5 SSTORE SWAP1 POP PUSH2 0x9A2 CALLER DUP6 PUSH2 0x1410 JUMP JUMPDEST PUSH1 0x40 DUP1 MLOAD DUP4 DUP2 MSTORE PUSH1 0x20 DUP2 ADD DUP4 SWAP1 MSTORE CALLER SWAP2 PUSH32 0xACB6DE9209E4F34974CB165EEF5738F0CF0B4EA9819EF30D30F0F7D81272AB82 SWAP2 ADD JUMPDEST PUSH1 0x40 MLOAD DUP1 SWAP2 SUB SWAP1 LOG2 POP POP POP POP JUMP JUMPDEST PUSH32 0x5E20732F79076148980E17B6CE9F22756F85058FE2765420ED48A504BEF5A8BC PUSH2 0xA0E DUP2 PUSH2 0x1218 JUMP JUMPDEST PUSH1 0x1 PUSH1 0x1 PUSH1 0xA0 SHL SUB DUP6 AND PUSH0 SWAP1 DUP2 MSTORE PUSH1 0x7 PUSH1 0x20 MSTORE PUSH1 0x40 SWAP1 KECCAK256 PUSH1 0x1 DUP2 ADD DUP1 SLOAD PUSH2 0xA34 SWAP1 PUSH2 0x19E0 JUMP JUMPDEST ISZERO SWAP1 POP PUSH2 0xA83 JUMPI PUSH1 0x40 MLOAD PUSH3 0x461BCD PUSH1 0xE5 SHL DUP2 MSTORE PUSH1 0x20 PUSH1 0x4 DUP3 ADD MSTORE PUSH1 0x1A PUSH1 0x24 DUP3 ADD MSTORE PUSH32 0x464143494C495441544F525F414C52454144595F455849535453000000000000 PUSH1 0x44 DUP3 ADD MSTORE PUSH1 0x64 ADD PUSH2 0x807 JUMP JUMPDEST DUP4 PUSH2 0xAC0 JUMPI PUSH1 0x40 MLOAD PUSH3 0x461BCD PUSH1 0xE5 SHL DUP2 MSTORE PUSH1 0x20 PUSH1 0x4 DUP3 ADD MSTORE PUSH1 0xD PUSH1 0x24 DUP3 ADD MSTORE PUSH13 0x1253959053125117D310509153 PUSH1 0x9A SHL PUSH1 0x44 DUP3 ADD MSTORE PUSH1 0x64 ADD PUSH2 0x807 JUMP JUMPDEST PUSH1 0x1 DUP2 ADD PUSH2 0xACF DUP6 DUP8 DUP4 PUSH2 0x1AB1 JUMP JUMPDEST POP DUP1 SLOAD PUSH1 0x1 PUSH1 0x1 PUSH1 0x80 SHL SUB NOT AND PUSH1 0x1 PUSH1 0x1 PUSH1 0x80 SHL SUB DUP5 AND OR DUP2 SSTORE PUSH2 0xAF4 PUSH1 0x8 DUP8 PUSH2 0x146F JUMP JUMPDEST POP DUP5 DUP5 PUSH1 0x40 MLOAD PUSH1 0x20 ADD PUSH2 0xB08 SWAP3 SWAP2 SWAP1 PUSH2 0x1B6B JUMP JUMPDEST PUSH1 0x40 DUP1 MLOAD PUSH1 0x1F NOT DUP2 DUP5 SUB ADD DUP2 MSTORE SWAP1 DUP3 SWAP1 MSTORE DUP1 MLOAD PUSH1 0x20 SWAP2 DUP3 ADD KECCAK256 PUSH1 0x1 PUSH1 0x1 PUSH1 0x80 SHL SUB DUP7 AND DUP4 MSTORE SWAP2 PUSH1 0x1 PUSH1 0x1 PUSH1 0xA0 SHL SUB DUP10 AND SWAP2 PUSH32 0xDABD62626ADA7B13E299389E94D768B294E5E24285ED2FFA1E5CD447C99C54AD SWAP2 ADD PUSH1 0x40 MLOAD DUP1 SWAP2 SUB SWAP1 LOG3 POP POP POP POP POP POP JUMP JUMPDEST PUSH0 SWAP2 DUP3 MSTORE PUSH1 0x6 PUSH1 0x20 SWAP1 DUP2 MSTORE PUSH1 0x40 DUP1 DUP5 KECCAK256 PUSH1 0x1 PUSH1 0x1 PUSH1 0xA0 SHL SUB SWAP4 SWAP1 SWAP4 AND DUP5 MSTORE SWAP2 SWAP1 MSTORE SWAP1 KECCAK256 SLOAD PUSH1 0xFF AND SWAP1 JUMP JUMPDEST PUSH1 0x1 DUP1 SLOAD PUSH2 0x53A SWAP1 PUSH2 0x19E0 JUMP JUMPDEST PUSH32 0x5E20732F79076148980E17B6CE9F22756F85058FE2765420ED48A504BEF5A8BC PUSH2 0xBCD DUP2 PUSH2 0x1218 JUMP JUMPDEST PUSH1 0x1 PUSH1 0x1 PUSH1 0xA0 SHL SUB DUP3 AND PUSH0 SWAP1 DUP2 MSTORE PUSH1 0x7 PUSH1 0x20 MSTORE PUSH1 0x40 DUP2 KECCAK256 PUSH1 0x1 ADD DUP1 SLOAD PUSH2 0xBF2 SWAP1 PUSH2 0x19E0 JUMP JUMPDEST SWAP1 POP GT PUSH2 0xC41 JUMPI PUSH1 0x40 MLOAD PUSH3 0x461BCD PUSH1 0xE5 SHL DUP2 MSTORE PUSH1 0x20 PUSH1 0x4 DUP3 ADD MSTORE PUSH1 0x1A PUSH1 0x24 DUP3 ADD MSTORE PUSH32 0x464143494C495441544F525F444F45535F4E4F545F4558495354000000000000 PUSH1 0x44 DUP3 ADD MSTORE PUSH1 0x64 ADD PUSH2 0x807 JUMP JUMPDEST PUSH1 0x1 PUSH1 0x1 PUSH1 0xA0 SHL SUB DUP3 AND PUSH0 SWAP1 DUP2 MSTORE PUSH1 0x7 PUSH1 0x20 MSTORE PUSH1 0x40 SWAP1 KECCAK256 SLOAD PUSH1 0x1 PUSH1 0x80 SHL SWAP1 DIV PUSH1 0x1 PUSH1 0x1 PUSH1 0x80 SHL SUB AND ISZERO PUSH2 0xCC0 JUMPI PUSH1 0x40 MLOAD PUSH3 0x461BCD PUSH1 0xE5 SHL DUP2 MSTORE PUSH1 0x20 PUSH1 0x4 DUP3 ADD MSTORE PUSH1 0x21 PUSH1 0x24 DUP3 ADD MSTORE PUSH32 0x464143494C495441544F525F4255434B45545F4C4556454C5F4E4F545F5A4552 PUSH1 0x44 DUP3 ADD MSTORE PUSH1 0x4F PUSH1 0xF8 SHL PUSH1 0x64 DUP3 ADD MSTORE PUSH1 0x84 ADD PUSH2 0x807 JUMP JUMPDEST PUSH1 0x1 PUSH1 0x1 PUSH1 0xA0 SHL SUB DUP3 AND PUSH0 SWAP1 DUP2 MSTORE PUSH1 0x7 PUSH1 0x20 MSTORE PUSH1 0x40 DUP2 KECCAK256 DUP2 DUP2 SSTORE SWAP1 PUSH2 0xCE8 PUSH1 0x1 DUP4 ADD DUP3 PUSH2 0x1655 JUMP JUMPDEST POP PUSH2 0xCF6 SWAP1 POP PUSH1 0x8 DUP4 PUSH2 0x1483 JUMP JUMPDEST POP PUSH1 0x40 MLOAD PUSH1 0x1 PUSH1 0x1 PUSH1 0xA0 SHL SUB DUP4 AND SWAP1 PUSH32 0xA8FE5B89F35F2EBD6F3F95A7EF215F4BD89179E10C101073AE76CFFAD14734CF SWAP1 PUSH0 SWAP1 LOG2 POP POP JUMP JUMPDEST CALLER PUSH0 SWAP1 DUP2 MSTORE PUSH1 0x3 PUSH1 0x20 MSTORE PUSH1 0x40 DUP2 KECCAK256 DUP1 SLOAD DUP4 SWAP2 SWAP1 DUP4 SWAP1 PUSH2 0xD4E SWAP1 DUP5 SWAP1 PUSH2 0x1A2C JUMP JUMPDEST SWAP1 SWAP2 SSTORE POP POP PUSH1 0x1 PUSH1 0x1 PUSH1 0xA0 SHL SUB DUP4 AND PUSH0 DUP2 DUP2 MSTORE PUSH1 0x3 PUSH1 0x20 MSTORE PUSH1 0x40 SWAP1 DUP2 SWAP1 KECCAK256 DUP1 SLOAD DUP6 ADD SWAP1 SSTORE MLOAD CALLER SWAP1 PUSH0 DUP1 MLOAD PUSH1 0x20 PUSH2 0x1C15 DUP4 CODECOPY DUP2 MLOAD SWAP2 MSTORE SWAP1 PUSH2 0x613 SWAP1 DUP7 DUP2 MSTORE PUSH1 0x20 ADD SWAP1 JUMP JUMPDEST PUSH32 0xC7F115822AABAC0CD6B9D21B08C0C63819451A58157AECAD689D1B5674FAD408 PUSH2 0xDBB DUP2 PUSH2 0x1218 JUMP JUMPDEST PUSH1 0x1 PUSH1 0x1 PUSH1 0xA0 SHL SUB DUP4 AND PUSH0 SWAP1 DUP2 MSTORE PUSH1 0x7 PUSH1 0x20 MSTORE PUSH1 0x40 DUP2 KECCAK256 PUSH1 0x1 ADD DUP1 SLOAD PUSH2 0xDE0 SWAP1 PUSH2 0x19E0 JUMP JUMPDEST SWAP1 POP GT PUSH2 0xE2F JUMPI PUSH1 0x40 MLOAD PUSH3 0x461BCD PUSH1 0xE5 SHL DUP2 MSTORE PUSH1 0x20 PUSH1 0x4 DUP3 ADD MSTORE PUSH1 0x1A PUSH1 0x24 DUP3 ADD MSTORE PUSH32 0x464143494C495441544F525F444F45535F4E4F545F4558495354000000000000 PUSH1 0x44 DUP3 ADD MSTORE PUSH1 0x64 ADD PUSH2 0x807 JUMP JUMPDEST PUSH1 0x1 PUSH1 0x1 PUSH1 0xA0 SHL SUB DUP4 AND PUSH0 DUP2 DUP2 MSTORE PUSH1 0x7 PUSH1 0x20 SWAP1 DUP2 MSTORE PUSH1 0x40 SWAP2 DUP3 SWAP1 KECCAK256 DUP1 SLOAD PUSH1 0x1 PUSH1 0x1 PUSH1 0x80 SHL SUB NOT DUP2 AND PUSH1 0x1 PUSH1 0x1 PUSH1 0x80 SHL SUB DUP9 DUP2 AND SWAP2 DUP3 OR SWAP1 SWAP4 SSTORE DUP5 MLOAD SWAP3 SWAP1 SWAP2 AND DUP1 DUP4 MSTORE SWAP3 DUP3 ADD MSTORE SWAP1 SWAP3 SWAP2 PUSH32 0xC795C0A4927C3B6645E4E49A5A519AF936B3C1C0E4C323A3F7251063F3F4BB0E SWAP2 ADD PUSH2 0x9D6 JUMP JUMPDEST PUSH1 0x40 DUP1 MLOAD PUSH1 0x60 DUP1 DUP3 ADD DUP4 MSTORE PUSH0 DUP1 DUP4 MSTORE PUSH1 0x20 DUP1 DUP5 ADD DUP3 SWAP1 MSTORE DUP4 DUP6 ADD DUP4 SWAP1 MSTORE PUSH1 0x1 PUSH1 0x1 PUSH1 0xA0 SHL SUB DUP7 AND DUP3 MSTORE PUSH1 0x7 DUP2 MSTORE SWAP1 DUP5 SWAP1 KECCAK256 DUP5 MLOAD SWAP3 DUP4 ADD DUP6 MSTORE DUP1 SLOAD PUSH1 0x1 PUSH1 0x1 PUSH1 0x80 SHL SUB DUP1 DUP3 AND DUP6 MSTORE PUSH1 0x1 PUSH1 0x80 SHL SWAP1 SWAP2 DIV AND SWAP2 DUP4 ADD SWAP2 SWAP1 SWAP2 MSTORE PUSH1 0x1 DUP2 ADD DUP1 SLOAD SWAP4 SWAP5 SWAP3 SWAP4 SWAP2 SWAP3 DUP5 ADD SWAP2 PUSH2 0xF0F SWAP1 PUSH2 0x19E0 JUMP JUMPDEST DUP1 PUSH1 0x1F ADD PUSH1 0x20 DUP1 SWAP2 DIV MUL PUSH1 0x20 ADD PUSH1 0x40 MLOAD SWAP1 DUP2 ADD PUSH1 0x40 MSTORE DUP1 SWAP3 SWAP2 SWAP1 DUP2 DUP2 MSTORE PUSH1 0x20 ADD DUP3 DUP1 SLOAD PUSH2 0xF3B SWAP1 PUSH2 0x19E0 JUMP JUMPDEST DUP1 ISZERO PUSH2 0xF86 JUMPI DUP1 PUSH1 0x1F LT PUSH2 0xF5D JUMPI PUSH2 0x100 DUP1 DUP4 SLOAD DIV MUL DUP4 MSTORE SWAP2 PUSH1 0x20 ADD SWAP2 PUSH2 0xF86 JUMP JUMPDEST DUP3 ADD SWAP2 SWAP1 PUSH0 MSTORE PUSH1 0x20 PUSH0 KECCAK256 SWAP1 JUMPDEST DUP2 SLOAD DUP2 MSTORE SWAP1 PUSH1 0x1 ADD SWAP1 PUSH1 0x20 ADD DUP1 DUP4 GT PUSH2 0xF69 JUMPI DUP3 SWAP1 SUB PUSH1 0x1F AND DUP3 ADD SWAP2 JUMPDEST POP POP POP POP POP DUP2 MSTORE POP POP SWAP1 POP SWAP2 SWAP1 POP JUMP JUMPDEST TIMESTAMP DUP5 LT ISZERO PUSH2 0xFE6 JUMPI PUSH1 0x40 MLOAD PUSH3 0x461BCD PUSH1 0xE5 SHL DUP2 MSTORE PUSH1 0x20 PUSH1 0x4 DUP3 ADD MSTORE PUSH1 0x17 PUSH1 0x24 DUP3 ADD MSTORE PUSH32 0x5045524D49545F444541444C494E455F45585049524544000000000000000000 PUSH1 0x44 DUP3 ADD MSTORE PUSH1 0x64 ADD PUSH2 0x807 JUMP JUMPDEST PUSH0 PUSH2 0xFEF PUSH2 0x739 JUMP JUMPDEST PUSH1 0x1 PUSH1 0x1 PUSH1 0xA0 SHL SUB DUP10 DUP2 AND PUSH0 DUP2 DUP2 MSTORE PUSH1 0x5 PUSH1 0x20 SWAP1 DUP2 MSTORE PUSH1 0x40 SWAP2 DUP3 SWAP1 KECCAK256 DUP1 SLOAD PUSH1 0x1 DUP2 ADD SWAP1 SWAP2 SSTORE DUP3 MLOAD PUSH32 0x6E71EDAE12B1B97F4D1F60370FEF10105FA2FAAE0126114A169C64845D6126C9 DUP2 DUP5 ADD MSTORE DUP1 DUP5 ADD SWAP5 SWAP1 SWAP5 MSTORE SWAP4 DUP13 AND PUSH1 0x60 DUP5 ADD MSTORE PUSH1 0x80 DUP4 ADD DUP12 SWAP1 MSTORE PUSH1 0xA0 DUP4 ADD SWAP4 SWAP1 SWAP4 MSTORE PUSH1 0xC0 DUP1 DUP4 ADD DUP11 SWAP1 MSTORE DUP2 MLOAD DUP1 DUP5 SUB SWAP1 SWAP2 ADD DUP2 MSTORE PUSH1 0xE0 DUP4 ADD SWAP1 SWAP2 MSTORE DUP1 MLOAD SWAP3 ADD SWAP2 SWAP1 SWAP2 KECCAK256 PUSH2 0x1901 PUSH1 0xF0 SHL PUSH2 0x100 DUP4 ADD MSTORE PUSH2 0x102 DUP3 ADD SWAP3 SWAP1 SWAP3 MSTORE PUSH2 0x122 DUP2 ADD SWAP2 SWAP1 SWAP2 MSTORE PUSH2 0x142 ADD PUSH1 0x40 DUP1 MLOAD PUSH1 0x1F NOT DUP2 DUP5 SUB ADD DUP2 MSTORE DUP3 DUP3 MSTORE DUP1 MLOAD PUSH1 0x20 SWAP2 DUP3 ADD KECCAK256 PUSH0 DUP1 DUP6 MSTORE SWAP2 DUP5 ADD DUP1 DUP5 MSTORE DUP2 SWAP1 MSTORE PUSH1 0xFF DUP9 AND SWAP3 DUP5 ADD SWAP3 SWAP1 SWAP3 MSTORE PUSH1 0x60 DUP4 ADD DUP7 SWAP1 MSTORE PUSH1 0x80 DUP4 ADD DUP6 SWAP1 MSTORE SWAP1 SWAP3 POP SWAP1 PUSH1 0x1 SWAP1 PUSH1 0xA0 ADD PUSH1 0x20 PUSH1 0x40 MLOAD PUSH1 0x20 DUP2 SUB SWAP1 DUP1 DUP5 SUB SWAP1 DUP6 GAS STATICCALL ISZERO DUP1 ISZERO PUSH2 0x1104 JUMPI RETURNDATASIZE PUSH0 DUP1 RETURNDATACOPY RETURNDATASIZE PUSH0 REVERT JUMPDEST POP POP PUSH1 0x40 MLOAD PUSH1 0x1F NOT ADD MLOAD SWAP2 POP POP PUSH1 0x1 PUSH1 0x1 PUSH1 0xA0 SHL SUB DUP2 AND ISZERO DUP1 ISZERO SWAP1 PUSH2 0x113A JUMPI POP DUP9 PUSH1 0x1 PUSH1 0x1 PUSH1 0xA0 SHL SUB AND DUP2 PUSH1 0x1 PUSH1 0x1 PUSH1 0xA0 SHL SUB AND EQ JUMPDEST PUSH2 0x1177 JUMPI PUSH1 0x40 MLOAD PUSH3 0x461BCD PUSH1 0xE5 SHL DUP2 MSTORE PUSH1 0x20 PUSH1 0x4 DUP3 ADD MSTORE PUSH1 0xE PUSH1 0x24 DUP3 ADD MSTORE PUSH14 0x24A72B20A624A22FA9A4A3A722A9 PUSH1 0x91 SHL PUSH1 0x44 DUP3 ADD MSTORE PUSH1 0x64 ADD PUSH2 0x807 JUMP JUMPDEST PUSH1 0x1 PUSH1 0x1 PUSH1 0xA0 SHL SUB SWAP1 DUP2 AND PUSH0 SWAP1 DUP2 MSTORE PUSH1 0x4 PUSH1 0x20 SWAP1 DUP2 MSTORE PUSH1 0x40 DUP1 DUP4 KECCAK256 DUP12 DUP6 AND DUP1 DUP6 MSTORE SWAP1 DUP4 MSTORE SWAP3 DUP2 SWAP1 KECCAK256 DUP11 SWAP1 SSTORE MLOAD DUP10 DUP2 MSTORE SWAP2 SWAP4 POP SWAP2 DUP11 AND SWAP2 PUSH32 0x8C5BE1E5EBEC7D5BD14F71427D1E84F3DD0314C0F7B2291E5B200AC8C7C3B925 SWAP2 ADD PUSH1 0x40 MLOAD DUP1 SWAP2 SUB SWAP1 LOG3 POP POP POP POP POP POP POP JUMP JUMPDEST PUSH0 DUP3 DUP2 MSTORE PUSH1 0x6 PUSH1 0x20 MSTORE PUSH1 0x40 SWAP1 KECCAK256 PUSH1 0x1 ADD SLOAD PUSH2 0x11FB DUP2 PUSH2 0x1218 JUMP JUMPDEST PUSH2 0x733 DUP4 DUP4 PUSH2 0x134E JUMP JUMPDEST PUSH1 0x60 PUSH0 PUSH2 0x1211 DUP4 PUSH2 0x1497 JUMP JUMPDEST SWAP4 SWAP3 POP POP POP JUMP JUMPDEST PUSH2 0x1222 DUP2 CALLER PUSH2 0x14F0 JUMP JUMPDEST POP JUMP JUMPDEST PUSH0 PUSH2 0x1230 DUP4 DUP4 PUSH2 0xB6C JUMP JUMPDEST PUSH2 0x12AF JUMPI PUSH0 DUP4 DUP2 MSTORE PUSH1 0x6 PUSH1 0x20 SWAP1 DUP2 MSTORE PUSH1 0x40 DUP1 DUP4 KECCAK256 PUSH1 0x1 PUSH1 0x1 PUSH1 0xA0 SHL SUB DUP7 AND DUP5 MSTORE SWAP1 SWAP2 MSTORE SWAP1 KECCAK256 DUP1 SLOAD PUSH1 0xFF NOT AND PUSH1 0x1 OR SWAP1 SSTORE PUSH2 0x1267 CALLER SWAP1 JUMP JUMPDEST PUSH1 0x1 PUSH1 0x1 PUSH1 0xA0 SHL SUB AND DUP3 PUSH1 0x1 PUSH1 0x1 PUSH1 0xA0 SHL SUB AND DUP5 PUSH32 0x2F8788117E7EFF1D82E926EC794901D17C78024A50270940304540A733656F0D PUSH1 0x40 MLOAD PUSH1 0x40 MLOAD DUP1 SWAP2 SUB SWAP1 LOG4 POP PUSH1 0x1 PUSH2 0x528 JUMP JUMPDEST POP PUSH0 PUSH2 0x528 JUMP JUMPDEST PUSH0 PUSH32 0x8B73C3C69BB8FE3D512ECC4CF759CC79239F7B179B0FFACAA9A75D522B39400F PUSH0 PUSH1 0x40 MLOAD PUSH2 0x12E6 SWAP2 SWAP1 PUSH2 0x1B7A JUMP JUMPDEST PUSH1 0x40 DUP1 MLOAD SWAP2 DUP3 SWAP1 SUB DUP3 KECCAK256 PUSH1 0x20 DUP4 ADD SWAP4 SWAP1 SWAP4 MSTORE DUP2 ADD SWAP2 SWAP1 SWAP2 MSTORE PUSH32 0xC89EFDAA54C0F20C7ADF612882DF0950F5A951637E0307CDCB4C672F298B8BC6 PUSH1 0x60 DUP3 ADD MSTORE CHAINID PUSH1 0x80 DUP3 ADD MSTORE ADDRESS PUSH1 0xA0 DUP3 ADD MSTORE PUSH1 0xC0 ADD PUSH1 0x40 MLOAD PUSH1 0x20 DUP2 DUP4 SUB SUB DUP2 MSTORE SWAP1 PUSH1 0x40 MSTORE DUP1 MLOAD SWAP1 PUSH1 0x20 ADD KECCAK256 SWAP1 POP SWAP1 JUMP JUMPDEST PUSH0 PUSH2 0x1359 DUP4 DUP4 PUSH2 0xB6C JUMP JUMPDEST ISZERO PUSH2 0x12AF JUMPI PUSH0 DUP4 DUP2 MSTORE PUSH1 0x6 PUSH1 0x20 SWAP1 DUP2 MSTORE PUSH1 0x40 DUP1 DUP4 KECCAK256 PUSH1 0x1 PUSH1 0x1 PUSH1 0xA0 SHL SUB DUP7 AND DUP1 DUP6 MSTORE SWAP3 MSTORE DUP1 DUP4 KECCAK256 DUP1 SLOAD PUSH1 0xFF NOT AND SWAP1 SSTORE MLOAD CALLER SWAP3 DUP7 SWAP2 PUSH32 0xF6391F5C32D9C69D2A47EA670B442974B53935D1EDC7FD64EB21E047A839171B SWAP2 SWAP1 LOG4 POP PUSH1 0x1 PUSH2 0x528 JUMP JUMPDEST DUP1 PUSH1 0x2 PUSH0 DUP3 DUP3 SLOAD PUSH2 0x13CA SWAP2 SWAP1 PUSH2 0x1A3F JUMP JUMPDEST SWAP1 SWAP2 SSTORE POP POP PUSH1 0x1 PUSH1 0x1 PUSH1 0xA0 SHL SUB DUP3 AND PUSH0 DUP2 DUP2 MSTORE PUSH1 0x3 PUSH1 0x20 SWAP1 DUP2 MSTORE PUSH1 0x40 DUP1 DUP4 KECCAK256 DUP1 SLOAD DUP7 ADD SWAP1 SSTORE MLOAD DUP5 DUP2 MSTORE PUSH0 DUP1 MLOAD PUSH1 0x20 PUSH2 0x1C15 DUP4 CODECOPY DUP2 MLOAD SWAP2 MSTORE SWAP2 ADD JUMPDEST PUSH1 0x40 MLOAD DUP1 SWAP2 SUB SWAP1 LOG3 POP POP JUMP JUMPDEST PUSH1 0x1 PUSH1 0x1 PUSH1 0xA0 SHL SUB DUP3 AND PUSH0 SWAP1 DUP2 MSTORE PUSH1 0x3 PUSH1 0x20 MSTORE PUSH1 0x40 DUP2 KECCAK256 DUP1 SLOAD DUP4 SWAP3 SWAP1 PUSH2 0x1437 SWAP1 DUP5 SWAP1 PUSH2 0x1A2C JUMP JUMPDEST SWAP1 SWAP2 SSTORE POP POP PUSH1 0x2 DUP1 SLOAD DUP3 SWAP1 SUB SWAP1 SSTORE PUSH1 0x40 MLOAD DUP2 DUP2 MSTORE PUSH0 SWAP1 PUSH1 0x1 PUSH1 0x1 PUSH1 0xA0 SHL SUB DUP5 AND SWAP1 PUSH0 DUP1 MLOAD PUSH1 0x20 PUSH2 0x1C15 DUP4 CODECOPY DUP2 MLOAD SWAP2 MSTORE SWAP1 PUSH1 0x20 ADD PUSH2 0x1404 JUMP JUMPDEST PUSH0 PUSH2 0x1211 DUP4 PUSH1 0x1 PUSH1 0x1 PUSH1 0xA0 SHL SUB DUP5 AND PUSH2 0x152D JUMP JUMPDEST PUSH0 PUSH2 0x1211 DUP4 PUSH1 0x1 PUSH1 0x1 PUSH1 0xA0 SHL SUB DUP5 AND PUSH2 0x1572 JUMP JUMPDEST PUSH1 0x60 DUP2 PUSH0 ADD DUP1 SLOAD DUP1 PUSH1 0x20 MUL PUSH1 0x20 ADD PUSH1 0x40 MLOAD SWAP1 DUP2 ADD PUSH1 0x40 MSTORE DUP1 SWAP3 SWAP2 SWAP1 DUP2 DUP2 MSTORE PUSH1 0x20 ADD DUP3 DUP1 SLOAD DUP1 ISZERO PUSH2 0x14E4 JUMPI PUSH1 0x20 MUL DUP3 ADD SWAP2 SWAP1 PUSH0 MSTORE PUSH1 0x20 PUSH0 KECCAK256 SWAP1 JUMPDEST DUP2 SLOAD DUP2 MSTORE PUSH1 0x20 ADD SWAP1 PUSH1 0x1 ADD SWAP1 DUP1 DUP4 GT PUSH2 0x14D0 JUMPI JUMPDEST POP POP POP POP POP SWAP1 POP SWAP2 SWAP1 POP JUMP JUMPDEST PUSH2 0x14FA DUP3 DUP3 PUSH2 0xB6C JUMP JUMPDEST PUSH2 0x1529 JUMPI PUSH1 0x40 MLOAD PUSH4 0xE2517D3F PUSH1 0xE0 SHL DUP2 MSTORE PUSH1 0x1 PUSH1 0x1 PUSH1 0xA0 SHL SUB DUP3 AND PUSH1 0x4 DUP3 ADD MSTORE PUSH1 0x24 DUP2 ADD DUP4 SWAP1 MSTORE PUSH1 0x44 ADD PUSH2 0x807 JUMP JUMPDEST POP POP JUMP JUMPDEST PUSH0 DUP2 DUP2 MSTORE PUSH1 0x1 DUP4 ADD PUSH1 0x20 MSTORE PUSH1 0x40 DUP2 KECCAK256 SLOAD PUSH2 0x12AF JUMPI POP DUP2 SLOAD PUSH1 0x1 DUP2 DUP2 ADD DUP5 SSTORE PUSH0 DUP5 DUP2 MSTORE PUSH1 0x20 DUP1 DUP3 KECCAK256 SWAP1 SWAP4 ADD DUP5 SWAP1 SSTORE DUP5 SLOAD DUP5 DUP3 MSTORE DUP3 DUP7 ADD SWAP1 SWAP4 MSTORE PUSH1 0x40 SWAP1 KECCAK256 SWAP2 SWAP1 SWAP2 SSTORE PUSH2 0x528 JUMP JUMPDEST PUSH0 DUP2 DUP2 MSTORE PUSH1 0x1 DUP4 ADD PUSH1 0x20 MSTORE PUSH1 0x40 DUP2 KECCAK256 SLOAD DUP1 ISZERO PUSH2 0x164C JUMPI PUSH0 PUSH2 0x1594 PUSH1 0x1 DUP4 PUSH2 0x1A2C JUMP JUMPDEST DUP6 SLOAD SWAP1 SWAP2 POP PUSH0 SWAP1 PUSH2 0x15A7 SWAP1 PUSH1 0x1 SWAP1 PUSH2 0x1A2C JUMP JUMPDEST SWAP1 POP DUP1 DUP3 EQ PUSH2 0x1606 JUMPI PUSH0 DUP7 PUSH0 ADD DUP3 DUP2 SLOAD DUP2 LT PUSH2 0x15C5 JUMPI PUSH2 0x15C5 PUSH2 0x1BEC JUMP JUMPDEST SWAP1 PUSH0 MSTORE PUSH1 0x20 PUSH0 KECCAK256 ADD SLOAD SWAP1 POP DUP1 DUP8 PUSH0 ADD DUP5 DUP2 SLOAD DUP2 LT PUSH2 0x15E5 JUMPI PUSH2 0x15E5 PUSH2 0x1BEC JUMP JUMPDEST PUSH0 SWAP2 DUP3 MSTORE PUSH1 0x20 DUP1 DUP4 KECCAK256 SWAP1 SWAP2 ADD SWAP3 SWAP1 SWAP3 SSTORE SWAP2 DUP3 MSTORE PUSH1 0x1 DUP9 ADD SWAP1 MSTORE PUSH1 0x40 SWAP1 KECCAK256 DUP4 SWAP1 SSTORE JUMPDEST DUP6 SLOAD DUP7 SWAP1 DUP1 PUSH2 0x1617 JUMPI PUSH2 0x1617 PUSH2 0x1C00 JUMP JUMPDEST PUSH1 0x1 SWAP1 SUB DUP2 DUP2 SWAP1 PUSH0 MSTORE PUSH1 0x20 PUSH0 KECCAK256 ADD PUSH0 SWAP1 SSTORE SWAP1 SSTORE DUP6 PUSH1 0x1 ADD PUSH0 DUP7 DUP2 MSTORE PUSH1 0x20 ADD SWAP1 DUP2 MSTORE PUSH1 0x20 ADD PUSH0 KECCAK256 PUSH0 SWAP1 SSTORE PUSH1 0x1 SWAP4 POP POP POP POP PUSH2 0x528 JUMP JUMPDEST PUSH0 SWAP2 POP POP PUSH2 0x528 JUMP JUMPDEST POP DUP1 SLOAD PUSH2 0x1661 SWAP1 PUSH2 0x19E0 JUMP JUMPDEST PUSH0 DUP3 SSTORE DUP1 PUSH1 0x1F LT PUSH2 0x1670 JUMPI POP POP JUMP JUMPDEST PUSH1 0x1F ADD PUSH1 0x20 SWAP1 DIV SWAP1 PUSH0 MSTORE PUSH1 0x20 PUSH0 KECCAK256 SWAP1 DUP2 ADD SWAP1 PUSH2 0x1222 SWAP2 SWAP1 JUMPDEST DUP1 DUP3 GT ISZERO PUSH2 0x169B JUMPI PUSH0 DUP2 SSTORE PUSH1 0x1 ADD PUSH2 0x1688 JUMP JUMPDEST POP SWAP1 JUMP JUMPDEST PUSH0 PUSH1 0x20 DUP3 DUP5 SUB SLT ISZERO PUSH2 0x16AF JUMPI PUSH0 DUP1 REVERT JUMPDEST DUP2 CALLDATALOAD PUSH1 0x1 PUSH1 0x1 PUSH1 0xE0 SHL SUB NOT DUP2 AND DUP2 EQ PUSH2 0x1211 JUMPI PUSH0 DUP1 REVERT JUMPDEST PUSH0 DUP2 MLOAD DUP1 DUP5 MSTORE PUSH0 JUMPDEST DUP2 DUP2 LT ISZERO PUSH2 0x16EA JUMPI PUSH1 0x20 DUP2 DUP6 ADD DUP2 ADD MLOAD DUP7 DUP4 ADD DUP3 ADD MSTORE ADD PUSH2 0x16CE JUMP JUMPDEST POP PUSH0 PUSH1 0x20 DUP3 DUP7 ADD ADD MSTORE PUSH1 0x20 PUSH1 0x1F NOT PUSH1 0x1F DUP4 ADD AND DUP6 ADD ADD SWAP2 POP POP SWAP3 SWAP2 POP POP JUMP JUMPDEST PUSH1 0x20 DUP2 MSTORE PUSH0 PUSH2 0x1211 PUSH1 0x20 DUP4 ADD DUP5 PUSH2 0x16C6 JUMP JUMPDEST DUP1 CALLDATALOAD PUSH1 0x1 PUSH1 0x1 PUSH1 0xA0 SHL SUB DUP2 AND DUP2 EQ PUSH2 0x1731 JUMPI PUSH0 DUP1 REVERT JUMPDEST SWAP2 SWAP1 POP JUMP JUMPDEST PUSH0 DUP1 PUSH1 0x40 DUP4 DUP6 SUB SLT ISZERO PUSH2 0x1747 JUMPI PUSH0 DUP1 REVERT JUMPDEST PUSH2 0x1750 DUP4 PUSH2 0x171B JUMP JUMPDEST SWAP5 PUSH1 0x20 SWAP4 SWAP1 SWAP4 ADD CALLDATALOAD SWAP4 POP POP POP JUMP JUMPDEST PUSH1 0x20 DUP1 DUP3 MSTORE DUP3 MLOAD DUP3 DUP3 ADD DUP2 SWAP1 MSTORE PUSH0 SWAP2 SWAP1 DUP5 DUP3 ADD SWAP1 PUSH1 0x40 DUP6 ADD SWAP1 DUP5 JUMPDEST DUP2 DUP2 LT ISZERO PUSH2 0x179E JUMPI DUP4 MLOAD PUSH1 0x1 PUSH1 0x1 PUSH1 0xA0 SHL SUB AND DUP4 MSTORE SWAP3 DUP5 ADD SWAP3 SWAP2 DUP5 ADD SWAP2 PUSH1 0x1 ADD PUSH2 0x1779 JUMP JUMPDEST POP SWAP1 SWAP7 SWAP6 POP POP POP POP POP POP JUMP JUMPDEST PUSH0 DUP1 PUSH0 PUSH1 0x60 DUP5 DUP7 SUB SLT ISZERO PUSH2 0x17BC JUMPI PUSH0 DUP1 REVERT JUMPDEST PUSH2 0x17C5 DUP5 PUSH2 0x171B JUMP JUMPDEST SWAP3 POP PUSH2 0x17D3 PUSH1 0x20 DUP6 ADD PUSH2 0x171B JUMP JUMPDEST SWAP2 POP PUSH1 0x40 DUP5 ADD CALLDATALOAD SWAP1 POP SWAP3 POP SWAP3 POP SWAP3 JUMP JUMPDEST PUSH0 PUSH1 0x20 DUP3 DUP5 SUB SLT ISZERO PUSH2 0x17F3 JUMPI PUSH0 DUP1 REVERT JUMPDEST POP CALLDATALOAD SWAP2 SWAP1 POP JUMP JUMPDEST PUSH0 DUP1 PUSH1 0x40 DUP4 DUP6 SUB SLT ISZERO PUSH2 0x180B JUMPI PUSH0 DUP1 REVERT JUMPDEST DUP3 CALLDATALOAD SWAP2 POP PUSH2 0x181B PUSH1 0x20 DUP5 ADD PUSH2 0x171B JUMP JUMPDEST SWAP1 POP SWAP3 POP SWAP3 SWAP1 POP JUMP JUMPDEST PUSH0 PUSH1 0x20 DUP3 DUP5 SUB SLT ISZERO PUSH2 0x1834 JUMPI PUSH0 DUP1 REVERT JUMPDEST PUSH2 0x1211 DUP3 PUSH2 0x171B JUMP JUMPDEST DUP1 CALLDATALOAD PUSH1 0x1 PUSH1 0x1 PUSH1 0x80 SHL SUB DUP2 AND DUP2 EQ PUSH2 0x1731 JUMPI PUSH0 DUP1 REVERT JUMPDEST PUSH0 DUP1 PUSH0 DUP1 PUSH1 0x60 DUP6 DUP8 SUB SLT ISZERO PUSH2 0x1866 JUMPI PUSH0 DUP1 REVERT JUMPDEST PUSH2 0x186F DUP6 PUSH2 0x171B JUMP JUMPDEST SWAP4 POP PUSH1 0x20 DUP6 ADD CALLDATALOAD PUSH8 0xFFFFFFFFFFFFFFFF DUP1 DUP3 GT ISZERO PUSH2 0x188B JUMPI PUSH0 DUP1 REVERT JUMPDEST DUP2 DUP8 ADD SWAP2 POP DUP8 PUSH1 0x1F DUP4 ADD SLT PUSH2 0x189E JUMPI PUSH0 DUP1 REVERT JUMPDEST DUP2 CALLDATALOAD DUP2 DUP2 GT ISZERO PUSH2 0x18AC JUMPI PUSH0 DUP1 REVERT JUMPDEST DUP9 PUSH1 0x20 DUP3 DUP6 ADD ADD GT ISZERO PUSH2 0x18BD JUMPI PUSH0 DUP1 REVERT JUMPDEST PUSH1 0x20 DUP4 ADD SWAP6 POP DUP1 SWAP5 POP POP POP POP PUSH2 0x18D5 PUSH1 0x40 DUP7 ADD PUSH2 0x183D JUMP JUMPDEST SWAP1 POP SWAP3 SWAP6 SWAP2 SWAP5 POP SWAP3 POP JUMP JUMPDEST PUSH0 DUP1 PUSH1 0x40 DUP4 DUP6 SUB SLT ISZERO PUSH2 0x18F1 JUMPI PUSH0 DUP1 REVERT JUMPDEST PUSH2 0x18FA DUP4 PUSH2 0x171B JUMP JUMPDEST SWAP2 POP PUSH2 0x181B PUSH1 0x20 DUP5 ADD PUSH2 0x183D JUMP JUMPDEST PUSH1 0x20 DUP2 MSTORE PUSH0 PUSH1 0x1 PUSH1 0x1 PUSH1 0x80 SHL SUB DUP1 DUP5 MLOAD AND PUSH1 0x20 DUP5 ADD MSTORE DUP1 PUSH1 0x20 DUP6 ADD MLOAD AND PUSH1 0x40 DUP5 ADD MSTORE POP PUSH1 0x40 DUP4 ADD MLOAD PUSH1 0x60 DUP1 DUP5 ADD MSTORE PUSH2 0x1943 PUSH1 0x80 DUP5 ADD DUP3 PUSH2 0x16C6 JUMP JUMPDEST SWAP5 SWAP4 POP POP POP POP JUMP JUMPDEST PUSH0 DUP1 PUSH0 DUP1 PUSH0 DUP1 PUSH0 PUSH1 0xE0 DUP9 DUP11 SUB SLT ISZERO PUSH2 0x1961 JUMPI PUSH0 DUP1 REVERT JUMPDEST PUSH2 0x196A DUP9 PUSH2 0x171B JUMP JUMPDEST SWAP7 POP PUSH2 0x1978 PUSH1 0x20 DUP10 ADD PUSH2 0x171B JUMP JUMPDEST SWAP6 POP PUSH1 0x40 DUP9 ADD CALLDATALOAD SWAP5 POP PUSH1 0x60 DUP9 ADD CALLDATALOAD SWAP4 POP PUSH1 0x80 DUP9 ADD CALLDATALOAD PUSH1 0xFF DUP2 AND DUP2 EQ PUSH2 0x199B JUMPI PUSH0 DUP1 REVERT JUMPDEST SWAP7 SWAP10 SWAP6 SWAP9 POP SWAP4 SWAP7 SWAP3 SWAP6 SWAP5 PUSH1 0xA0 DUP5 ADD CALLDATALOAD SWAP5 POP PUSH1 0xC0 SWAP1 SWAP4 ADD CALLDATALOAD SWAP3 SWAP2 POP POP JUMP JUMPDEST PUSH0 DUP1 PUSH1 0x40 DUP4 DUP6 SUB SLT ISZERO PUSH2 0x19C9 JUMPI PUSH0 DUP1 REVERT JUMPDEST PUSH2 0x19D2 DUP4 PUSH2 0x171B JUMP JUMPDEST SWAP2 POP PUSH2 0x181B PUSH1 0x20 DUP5 ADD PUSH2 0x171B JUMP JUMPDEST PUSH1 0x1 DUP2 DUP2 SHR SWAP1 DUP3 AND DUP1 PUSH2 0x19F4 JUMPI PUSH1 0x7F DUP3 AND SWAP2 POP JUMPDEST PUSH1 0x20 DUP3 LT DUP2 SUB PUSH2 0x1A12 JUMPI PUSH4 0x4E487B71 PUSH1 0xE0 SHL PUSH0 MSTORE PUSH1 0x22 PUSH1 0x4 MSTORE PUSH1 0x24 PUSH0 REVERT JUMPDEST POP SWAP2 SWAP1 POP JUMP JUMPDEST PUSH4 0x4E487B71 PUSH1 0xE0 SHL PUSH0 MSTORE PUSH1 0x11 PUSH1 0x4 MSTORE PUSH1 0x24 PUSH0 REVERT JUMPDEST DUP2 DUP2 SUB DUP2 DUP2 GT ISZERO PUSH2 0x528 JUMPI PUSH2 0x528 PUSH2 0x1A18 JUMP JUMPDEST DUP1 DUP3 ADD DUP1 DUP3 GT ISZERO PUSH2 0x528 JUMPI PUSH2 0x528 PUSH2 0x1A18 JUMP JUMPDEST PUSH4 0x4E487B71 PUSH1 0xE0 SHL PUSH0 MSTORE PUSH1 0x41 PUSH1 0x4 MSTORE PUSH1 0x24 PUSH0 REVERT JUMPDEST PUSH1 0x1F DUP3 GT ISZERO PUSH2 0x7C1 JUMPI DUP1 PUSH0 MSTORE PUSH1 0x20 PUSH0 KECCAK256 PUSH1 0x1F DUP5 ADD PUSH1 0x5 SHR DUP2 ADD PUSH1 0x20 DUP6 LT ISZERO PUSH2 0x1A8B JUMPI POP DUP1 JUMPDEST PUSH1 0x1F DUP5 ADD PUSH1 0x5 SHR DUP3 ADD SWAP2 POP JUMPDEST DUP2 DUP2 LT ISZERO PUSH2 0x1AAA JUMPI PUSH0 DUP2 SSTORE PUSH1 0x1 ADD PUSH2 0x1A97 JUMP JUMPDEST POP POP POP POP POP JUMP JUMPDEST PUSH8 0xFFFFFFFFFFFFFFFF DUP4 GT ISZERO PUSH2 0x1AC9 JUMPI PUSH2 0x1AC9 PUSH2 0x1A52 JUMP JUMPDEST PUSH2 0x1ADD DUP4 PUSH2 0x1AD7 DUP4 SLOAD PUSH2 0x19E0 JUMP JUMPDEST DUP4 PUSH2 0x1A66 JUMP JUMPDEST PUSH0 PUSH1 0x1F DUP5 GT PUSH1 0x1 DUP2 EQ PUSH2 0x1B0E JUMPI PUSH0 DUP6 ISZERO PUSH2 0x1AF7 JUMPI POP DUP4 DUP3 ADD CALLDATALOAD JUMPDEST PUSH0 NOT PUSH1 0x3 DUP8 SWAP1 SHL SHR NOT AND PUSH1 0x1 DUP7 SWAP1 SHL OR DUP4 SSTORE PUSH2 0x1AAA JUMP JUMPDEST PUSH0 DUP4 DUP2 MSTORE PUSH1 0x20 DUP2 KECCAK256 PUSH1 0x1F NOT DUP8 AND SWAP2 JUMPDEST DUP3 DUP2 LT ISZERO PUSH2 0x1B3D JUMPI DUP7 DUP6 ADD CALLDATALOAD DUP3 SSTORE PUSH1 0x20 SWAP5 DUP6 ADD SWAP5 PUSH1 0x1 SWAP1 SWAP3 ADD SWAP2 ADD PUSH2 0x1B1D JUMP JUMPDEST POP DUP7 DUP3 LT ISZERO PUSH2 0x1B59 JUMPI PUSH0 NOT PUSH1 0xF8 DUP9 PUSH1 0x3 SHL AND SHR NOT DUP5 DUP8 ADD CALLDATALOAD AND DUP2 SSTORE JUMPDEST POP POP PUSH1 0x1 DUP6 PUSH1 0x1 SHL ADD DUP4 SSTORE POP POP POP POP POP JUMP JUMPDEST DUP2 DUP4 DUP3 CALLDATACOPY PUSH0 SWAP2 ADD SWAP1 DUP2 MSTORE SWAP2 SWAP1 POP JUMP JUMPDEST PUSH0 DUP1 DUP4 SLOAD PUSH2 0x1B87 DUP2 PUSH2 0x19E0 JUMP JUMPDEST PUSH1 0x1 DUP3 DUP2 AND DUP1 ISZERO PUSH2 0x1B9F JUMPI PUSH1 0x1 DUP2 EQ PUSH2 0x1BB4 JUMPI PUSH2 0x1BE0 JUMP JUMPDEST PUSH1 0xFF NOT DUP5 AND DUP8 MSTORE DUP3 ISZERO ISZERO DUP4 MUL DUP8 ADD SWAP5 POP PUSH2 0x1BE0 JUMP JUMPDEST DUP8 PUSH0 MSTORE PUSH1 0x20 DUP1 PUSH0 KECCAK256 PUSH0 JUMPDEST DUP6 DUP2 LT ISZERO PUSH2 0x1BD7 JUMPI DUP2 SLOAD DUP11 DUP3 ADD MSTORE SWAP1 DUP5 ADD SWAP1 DUP3 ADD PUSH2 0x1BBE JUMP JUMPDEST POP POP POP DUP3 DUP8 ADD SWAP5 POP JUMPDEST POP SWAP3 SWAP7 SWAP6 POP POP POP POP POP POP JUMP JUMPDEST PUSH4 0x4E487B71 PUSH1 0xE0 SHL PUSH0 MSTORE PUSH1 0x32 PUSH1 0x4 MSTORE PUSH1 0x24 PUSH0 REVERT JUMPDEST PUSH4 0x4E487B71 PUSH1 0xE0 SHL PUSH0 MSTORE PUSH1 0x31 PUSH1 0x4 MSTORE PUSH1 0x24 PUSH0 REVERT INVALID 0xDD CALLCODE MSTORE 0xAD SHL 0xE2 0xC8 SWAP12 PUSH10 0xC2B068FC378DAA952BA7 CALL PUSH4 0xC4A11628 CREATE2 GAS 0x4D CREATE2 0x23 0xB3 0xEF LOG2 PUSH5 0x6970667358 0x22 SLT KECCAK256 PUSH4 0x3EF8BA3F 0x4A 0xB9 PUSH20 0x8E3C3FBEE51ED084ED313251B860CA48C7E39ED 0xC2 0x2F PUSH18 0x264736F6C63430008160033000000000000 "
				},
				"gasEstimates": {
					"creation": {
						"codeDepositCost": "1454800",
						"executionCost": "infinite",
						"totalCost": "infinite"
					},
					"external": {
						"BUCKET_MANAGER_ROLE()": "240",
						"DEFAULT_ADMIN_ROLE()": "238",
						"DOMAIN_SEPARATOR()": "infinite",
						"FACILITATOR_MANAGER_ROLE()": "305",
						"PERMIT_TYPEHASH()": "262",
						"addFacilitator(address,string,uint128)": "infinite",
						"allowance(address,address)": "infinite",
						"approve(address,uint256)": "24576",
						"balanceOf(address)": "2584",
						"burn(uint256)": "infinite",
						"decimals()": "infinite",
						"getFacilitator(address)": "infinite",
						"getFacilitatorBucket(address)": "2697",
						"getFacilitatorsList()": "infinite",
						"getRoleAdmin(bytes32)": "2553",
						"grantRole(bytes32,address)": "infinite",
						"hasRole(bytes32,address)": "2718",
						"mint(address,uint256)": "infinite",
						"name()": "infinite",
						"nonces(address)": "2606",
						"permit(address,address,uint256,uint256,uint8,bytes32,bytes32)": "infinite",
						"removeFacilitator(address)": "infinite",
						"renounceRole(bytes32,address)": "29069",
						"revokeRole(bytes32,address)": "infinite",
						"setFacilitatorBucketCapacity(address,uint128)": "infinite",
						"supportsInterface(bytes4)": "470",
						"symbol()": "infinite",
						"totalSupply()": "2340",
						"transfer(address,uint256)": "infinite",
						"transferFrom(address,address,uint256)": "infinite"
					}
				},
				"methodIdentifiers": {
					"BUCKET_MANAGER_ROLE()": "550d9964",
					"DEFAULT_ADMIN_ROLE()": "a217fddf",
					"DOMAIN_SEPARATOR()": "3644e515",
					"FACILITATOR_MANAGER_ROLE()": "433bef44",
					"PERMIT_TYPEHASH()": "30adf81f",
					"addFacilitator(address,string,uint128)": "7fc24def",
					"allowance(address,address)": "dd62ed3e",
					"approve(address,uint256)": "095ea7b3",
					"balanceOf(address)": "70a08231",
					"burn(uint256)": "42966c68",
					"decimals()": "313ce567",
					"getFacilitator(address)": "d46ec0ed",
					"getFacilitatorBucket(address)": "aa02f94a",
					"getFacilitatorsList()": "1ec90f2e",
					"getRoleAdmin(bytes32)": "248a9ca3",
					"grantRole(bytes32,address)": "2f2ff15d",
					"hasRole(bytes32,address)": "91d14854",
					"mint(address,uint256)": "40c10f19",
					"name()": "06fdde03",
					"nonces(address)": "7ecebe00",
					"permit(address,address,uint256,uint256,uint8,bytes32,bytes32)": "d505accf",
					"removeFacilitator(address)": "a11812ba",
					"renounceRole(bytes32,address)": "36568abe",
					"revokeRole(bytes32,address)": "d547741f",
					"setFacilitatorBucketCapacity(address,uint128)": "af93df57",
					"supportsInterface(bytes4)": "01ffc9a7",
					"symbol()": "95d89b41",
					"totalSupply()": "18160ddd",
					"transfer(address,uint256)": "a9059cbb",
					"transferFrom(address,address,uint256)": "23b872dd"
				}
			},
			"storageLayout": {
				"storage": [
					{
						"astId": 1144,
						"contract": "src/gho/GhoToken.sol:GhoToken",
						"label": "name",
						"offset": 0,
						"slot": "0",
						"type": "t_string_storage"
					},
					{
						"astId": 1146,
						"contract": "src/gho/GhoToken.sol:GhoToken",
						"label": "symbol",
						"offset": 0,
						"slot": "1",
						"type": "t_string_storage"
					},
					{
						"astId": 1150,
						"contract": "src/gho/GhoToken.sol:GhoToken",
						"label": "totalSupply",
						"offset": 0,
						"slot": "2",
						"type": "t_uint256"
					},
					{
						"astId": 1154,
						"contract": "src/gho/GhoToken.sol:GhoToken",
						"label": "balanceOf",
						"offset": 0,
						"slot": "3",
						"type": "t_mapping(t_address,t_uint256)"
					},
					{
						"astId": 1160,
						"contract": "src/gho/GhoToken.sol:GhoToken",
						"label": "allowance",
						"offset": 0,
						"slot": "4",
						"type": "t_mapping(t_address,t_mapping(t_address,t_uint256))"
					},
					{
						"astId": 1173,
						"contract": "src/gho/GhoToken.sol:GhoToken",
						"label": "nonces",
						"offset": 0,
						"slot": "5",
						"type": "t_mapping(t_address,t_uint256)"
					},
					{
						"astId": 26,
						"contract": "src/gho/GhoToken.sol:GhoToken",
						"label": "_roles",
						"offset": 0,
						"slot": "6",
						"type": "t_mapping(t_bytes32,t_struct(RoleData)21_storage)"
					},
					{
						"astId": 1544,
						"contract": "src/gho/GhoToken.sol:GhoToken",
						"label": "_facilitators",
						"offset": 0,
						"slot": "7",
						"type": "t_mapping(t_address,t_struct(Facilitator)1929_storage)"
					},
					{
						"astId": 1547,
						"contract": "src/gho/GhoToken.sol:GhoToken",
						"label": "_facilitatorsList",
						"offset": 0,
						"slot": "8",
						"type": "t_struct(AddressSet)848_storage"
					}
				],
				"types": {
					"t_address": {
						"encoding": "inplace",
						"label": "address",
						"numberOfBytes": "20"
					},
					"t_array(t_bytes32)dyn_storage": {
						"base": "t_bytes32",
						"encoding": "dynamic_array",
						"label": "bytes32[]",
						"numberOfBytes": "32"
					},
					"t_bool": {
						"encoding": "inplace",
						"label": "bool",
						"numberOfBytes": "1"
					},
					"t_bytes32": {
						"encoding": "inplace",
						"label": "bytes32",
						"numberOfBytes": "32"
					},
					"t_mapping(t_address,t_bool)": {
						"encoding": "mapping",
						"key": "t_address",
						"label": "mapping(address => bool)",
						"numberOfBytes": "32",
						"value": "t_bool"
					},
					"t_mapping(t_address,t_mapping(t_address,t_uint256))": {
						"encoding": "mapping",
						"key": "t_address",
						"label": "mapping(address => mapping(address => uint256))",
						"numberOfBytes": "32",
						"value": "t_mapping(t_address,t_uint256)"
					},
					"t_mapping(t_address,t_struct(Facilitator)1929_storage)": {
						"encoding": "mapping",
						"key": "t_address",
						"label": "mapping(address => struct IGhoToken.Facilitator)",
						"numberOfBytes": "32",
						"value": "t_struct(Facilitator)1929_storage"
					},
					"t_mapping(t_address,t_uint256)": {
						"encoding": "mapping",
						"key": "t_address",
						"label": "mapping(address => uint256)",
						"numberOfBytes": "32",
						"value": "t_uint256"
					},
					"t_mapping(t_bytes32,t_struct(RoleData)21_storage)": {
						"encoding": "mapping",
						"key": "t_bytes32",
						"label": "mapping(bytes32 => struct AccessControl.RoleData)",
						"numberOfBytes": "32",
						"value": "t_struct(RoleData)21_storage"
					},
					"t_mapping(t_bytes32,t_uint256)": {
						"encoding": "mapping",
						"key": "t_bytes32",
						"label": "mapping(bytes32 => uint256)",
						"numberOfBytes": "32",
						"value": "t_uint256"
					},
					"t_string_storage": {
						"encoding": "bytes",
						"label": "string",
						"numberOfBytes": "32"
					},
					"t_struct(AddressSet)848_storage": {
						"encoding": "inplace",
						"label": "struct EnumerableSet.AddressSet",
						"members": [
							{
								"astId": 847,
								"contract": "src/gho/GhoToken.sol:GhoToken",
								"label": "_inner",
								"offset": 0,
								"slot": "0",
								"type": "t_struct(Set)533_storage"
							}
						],
						"numberOfBytes": "64"
					},
					"t_struct(Facilitator)1929_storage": {
						"encoding": "inplace",
						"label": "struct IGhoToken.Facilitator",
						"members": [
							{
								"astId": 1924,
								"contract": "src/gho/GhoToken.sol:GhoToken",
								"label": "bucketCapacity",
								"offset": 0,
								"slot": "0",
								"type": "t_uint128"
							},
							{
								"astId": 1926,
								"contract": "src/gho/GhoToken.sol:GhoToken",
								"label": "bucketLevel",
								"offset": 16,
								"slot": "0",
								"type": "t_uint128"
							},
							{
								"astId": 1928,
								"contract": "src/gho/GhoToken.sol:GhoToken",
								"label": "label",
								"offset": 0,
								"slot": "1",
								"type": "t_string_storage"
							}
						],
						"numberOfBytes": "64"
					},
					"t_struct(RoleData)21_storage": {
						"encoding": "inplace",
						"label": "struct AccessControl.RoleData",
						"members": [
							{
								"astId": 18,
								"contract": "src/gho/GhoToken.sol:GhoToken",
								"label": "hasRole",
								"offset": 0,
								"slot": "0",
								"type": "t_mapping(t_address,t_bool)"
							},
							{
								"astId": 20,
								"contract": "src/gho/GhoToken.sol:GhoToken",
								"label": "adminRole",
								"offset": 0,
								"slot": "1",
								"type": "t_bytes32"
							}
						],
						"numberOfBytes": "64"
					},
					"t_struct(Set)533_storage": {
						"encoding": "inplace",
						"label": "struct EnumerableSet.Set",
						"members": [
							{
								"astId": 528,
								"contract": "src/gho/GhoToken.sol:GhoToken",
								"label": "_values",
								"offset": 0,
								"slot": "0",
								"type": "t_array(t_bytes32)dyn_storage"
							},
							{
								"astId": 532,
								"contract": "src/gho/GhoToken.sol:GhoToken",
								"label": "_positions",
								"offset": 0,
								"slot": "1",
								"type": "t_mapping(t_bytes32,t_uint256)"
							}
						],
						"numberOfBytes": "64"
					},
					"t_uint128": {
						"encoding": "inplace",
						"label": "uint128",
						"numberOfBytes": "16"
					},
					"t_uint256": {
						"encoding": "inplace",
						"label": "uint256",
						"numberOfBytes": "32"
					}
				}
			},
			"userdoc": {
				"kind": "user",
				"methods": {
					"BUCKET_MANAGER_ROLE()": {
						"notice": "Returns the identifier of the Bucket Manager Role"
					},
					"FACILITATOR_MANAGER_ROLE()": {
						"notice": "Returns the identifier of the Facilitator Manager Role"
					},
					"addFacilitator(address,string,uint128)": {
						"notice": "Add the facilitator passed with the parameters to the facilitators list."
					},
					"burn(uint256)": {
						"notice": "Burns the requested amount of tokens from the account address."
					},
					"getFacilitator(address)": {
						"notice": "Returns the facilitator data"
					},
					"getFacilitatorBucket(address)": {
						"notice": "Returns the bucket configuration of the facilitator"
					},
					"getFacilitatorsList()": {
						"notice": "Returns the list of the addresses of the active facilitator"
					},
					"mint(address,uint256)": {
						"notice": "Mints the requested amount of tokens to the account address."
					},
					"removeFacilitator(address)": {
						"notice": "Remove the facilitator from the facilitators list."
					},
					"setFacilitatorBucketCapacity(address,uint128)": {
						"notice": "Set the bucket capacity of the facilitator."
					}
				},
				"version": 1
			}
		}
	}
}