{
	"src/CrossChainFacilitator.sol": {
		"CrossChainFacilitator": {
			"abi": [
				{
					"inputs": [
						{
							"internalType": "address",
							"name": "ghoToken",
							"type": "address"
						},
						{
							"internalType": "address",
							"name": "ghoTreasury",
							"type": "address"
						},
						{
							"internalType": "address",
							"name": "aaveGovernance",
							"type": "address"
						},
						{
							"internalType": "uint256",
							"name": "fee",
							"type": "uint256"
						}
					],
					"stateMutability": "nonpayable",
					"type": "constructor"
				},
				{
					"anonymous": false,
					"inputs": [
						{
							"indexed": false,
							"internalType": "address",
							"name": "oldAaveGovernance",
							"type": "address"
						},
						{
							"indexed": false,
							"internalType": "address",
							"name": "newAaveGovernance",
							"type": "address"
						}
					],
					"name": "AaveGovernanceUpdated",
					"type": "event"
				},
				{
					"anonymous": false,
					"inputs": [
						{
							"indexed": false,
							"internalType": "uint256",
							"name": "oldFee",
							"type": "uint256"
						},
						{
							"indexed": false,
							"internalType": "uint256",
							"name": "newFee",
							"type": "uint256"
						}
					],
					"name": "FeeUpdated",
					"type": "event"
				},
				{
					"anonymous": false,
					"inputs": [
						{
							"indexed": true,
							"internalType": "address",
							"name": "ghoTreasury",
							"type": "address"
						},
						{
							"indexed": true,
							"internalType": "address",
							"name": "asset",
							"type": "address"
						},
						{
							"indexed": false,
							"internalType": "uint256",
							"name": "amount",
							"type": "uint256"
						}
					],
					"name": "FeesDistributedToTreasury",
					"type": "event"
				},
				{
					"anonymous": false,
					"inputs": [
						{
							"indexed": true,
							"internalType": "address",
							"name": "oldGhoTreasury",
							"type": "address"
						},
						{
							"indexed": true,
							"internalType": "address",
							"name": "newGhoTreasury",
							"type": "address"
						}
					],
					"name": "GhoTreasuryUpdated",
					"type": "event"
				},
				{
					"inputs": [],
					"name": "GHO_TOKEN",
					"outputs": [
						{
							"internalType": "contract IGhoToken",
							"name": "",
							"type": "address"
						}
					],
					"stateMutability": "view",
					"type": "function"
				},
				{
					"inputs": [],
					"name": "MAX_FEE",
					"outputs": [
						{
							"internalType": "uint256",
							"name": "",
							"type": "uint256"
						}
					],
					"stateMutability": "view",
					"type": "function"
				},
				{
					"inputs": [],
					"name": "USDC_TOKEN",
					"outputs": [
						{
							"internalType": "contract IERC20",
							"name": "",
							"type": "address"
						}
					],
					"stateMutability": "view",
					"type": "function"
				},
				{
					"inputs": [],
					"name": "distributeFeesToTreasury",
					"outputs": [],
					"stateMutability": "nonpayable",
					"type": "function"
				},
				{
					"inputs": [],
					"name": "getFee",
					"outputs": [
						{
							"internalType": "uint256",
							"name": "",
							"type": "uint256"
						}
					],
					"stateMutability": "view",
					"type": "function"
				},
				{
					"inputs": [],
					"name": "getGhoTreasury",
					"outputs": [
						{
							"internalType": "address",
							"name": "",
							"type": "address"
						}
					],
					"stateMutability": "view",
					"type": "function"
				},
				{
					"inputs": [
						{
							"internalType": "uint256",
							"name": "amount",
							"type": "uint256"
						},
						{
							"internalType": "address",
							"name": "to",
							"type": "address"
						}
					],
					"name": "mintGHOForUSDC",
					"outputs": [],
					"stateMutability": "nonpayable",
					"type": "function"
				},
				{
					"inputs": [
						{
							"internalType": "uint256",
							"name": "amount",
							"type": "uint256"
						}
					],
					"name": "redeemUSDCForGHO",
					"outputs": [],
					"stateMutability": "nonpayable",
					"type": "function"
				},
				{
					"inputs": [
						{
							"internalType": "uint256",
							"name": "chainId",
							"type": "uint256"
						},
						{
							"internalType": "uint256",
							"name": "amount",
							"type": "uint256"
						}
					],
					"name": "sendGHOCrossChain",
					"outputs": [],
					"stateMutability": "nonpayable",
					"type": "function"
				},
				{
					"inputs": [
						{
							"internalType": "uint256",
							"name": "newFee",
							"type": "uint256"
						}
					],
					"name": "updateFee",
					"outputs": [],
					"stateMutability": "nonpayable",
					"type": "function"
				},
				{
					"inputs": [
						{
							"internalType": "address",
							"name": "newGhoTreasury",
							"type": "address"
						}
					],
					"name": "updateGhoTreasury",
					"outputs": [],
					"stateMutability": "nonpayable",
					"type": "function"
				}
			],
			"devdoc": {
				"events": {
					"FeeUpdated(uint256,uint256)": {
						"details": "Emitted when the percentage fee is updated",
						"params": {
							"newFee": "The new fee (in bps)",
							"oldFee": "The old fee (in bps)"
						}
					},
					"FeesDistributedToTreasury(address,address,uint256)": {
						"details": "Emitted when fees are distributed to the GhoTreasury",
						"params": {
							"amount": "The amount of the asset transferred to the ghoTreasury",
							"asset": "The address of the asset transferred to the ghoTreasury",
							"ghoTreasury": "The address of the ghoTreasury"
						}
					},
					"GhoTreasuryUpdated(address,address)": {
						"details": "Emitted when Gho Treasury address is updated",
						"params": {
							"newGhoTreasury": "The address of the new GhoTreasury contract",
							"oldGhoTreasury": "The address of the old GhoTreasury contract"
						}
					}
				},
				"kind": "dev",
				"methods": {
					"getFee()": {
						"returns": {
							"_0": "The percentage fee of the minted amount that needs to be repaid, on top of the principal (in bps)."
						}
					},
					"getGhoTreasury()": {
						"returns": {
							"_0": "The address of the GhoTreasury contract"
						}
					},
					"updateFee(uint256)": {
						"details": "The fee is expressed in bps. A value of 100, results in 1.00%",
						"params": {
							"newFee": "The new percentage fee (in bps)"
						}
					},
					"updateGhoTreasury(address)": {
						"details": "WARNING: The GhoTreasury is where revenue fees are sent to. Update carefully",
						"params": {
							"newGhoTreasury": "The address of the GhoTreasury"
						}
					}
				},
				"stateVariables": {
					"GHO_TOKEN": {
						"return": "The address of the GhoToken",
						"returns": {
							"_0": "The address of the GhoToken"
						}
					},
					"MAX_FEE": {
						"return": "The maximum percentage fee of the minted amount that the fee can be set to (in bps).",
						"returns": {
							"_0": "The maximum percentage fee of the minted amount that the fee can be set to (in bps)."
						}
					}
				},
				"version": 1
			},
			"evm": {
				"assembly": "    /* \"src/CrossChainFacilitator.sol\":1196:3843  contract CrossChainFacilitator is ICrossChainFacilitator {... */\n  mstore(0x40, 0xc0)\n    /* \"src/CrossChainFacilitator.sol\":1681:2006  constructor(address ghoToken, address ghoTreasury, address aaveGovernance, uint256 fee) {... */\n  callvalue\n  dup1\n  iszero\n  tag_1\n  jumpi\n  0x00\n  dup1\n  revert\ntag_1:\n  pop\n  mload(0x40)\n  sub(codesize, bytecodeSize)\n  dup1\n  bytecodeSize\n  dup4\n  codecopy\n  dup2\n  add\n  0x40\n  dup2\n  swap1\n  mstore\n  tag_2\n  swap2\n  tag_3\n  jump\t// in\ntag_2:\n    /* \"src/CrossChainFacilitator.sol\":1428:1431  1e4 */\n  0x2710\n    /* \"src/CrossChainFacilitator.sol\":1787:1790  fee */\n  dup2\n    /* \"src/CrossChainFacilitator.sol\":1787:1801  fee <= MAX_FEE */\n  gt\n  iszero\n    /* \"src/CrossChainFacilitator.sol\":1779:1845  require(fee <= MAX_FEE, 'CrossChainFacilitator: Fee out of range') */\n  tag_6\n  jumpi\n  mload(0x40)\n  shl(0xe5, 0x461bcd)\n  dup2\n  mstore\n    /* \"#utility.yul\":843:845   */\n  0x20\n    /* \"src/CrossChainFacilitator.sol\":1779:1845  require(fee <= MAX_FEE, 'CrossChainFacilitator: Fee out of range') */\n  0x04\n  dup3\n  add\n    /* \"#utility.yul\":825:846   */\n  mstore\n    /* \"#utility.yul\":882:884   */\n  0x27\n    /* \"#utility.yul\":862:880   */\n  0x24\n  dup3\n  add\n    /* \"#utility.yul\":855:885   */\n  mstore\n  0x00\n  dup1\n  mload\n  0x20\n  data_2afdc28fe7f0c63ee1cf40a1f744224559670bc3009ddaade6d745516bcebd21\n  dup4\n  codecopy\n  dup2\n  mload\n  swap2\n  mstore\n    /* \"#utility.yul\":901:919   */\n  0x44\n  dup3\n  add\n    /* \"#utility.yul\":894:956   */\n  mstore\n  shl(0xc8, 0x662072616e6765)\n    /* \"#utility.yul\":972:990   */\n  0x64\n  dup3\n  add\n    /* \"#utility.yul\":965:1002   */\n  mstore\n    /* \"#utility.yul\":1019:1038   */\n  0x84\n  add\n    /* \"src/CrossChainFacilitator.sol\":1779:1845  require(fee <= MAX_FEE, 'CrossChainFacilitator: Fee out of range') */\ntag_7:\n  mload(0x40)\n  dup1\n  swap2\n  sub\n  swap1\n  revert\ntag_6:\n  sub(shl(0xa0, 0x01), 0x01)\n    /* \"src/CrossChainFacilitator.sol\":1855:1886  GHO_TOKEN = IGhoToken(ghoToken) */\n  dup5\n  and\n  0x80\n  mstore\n    /* \"src/CrossChainFacilitator.sol\":1896:1927  _updateGhoTreasury(ghoTreasury) */\n  tag_9\n    /* \"src/CrossChainFacilitator.sol\":1915:1926  ghoTreasury */\n  dup4\n    /* \"src/CrossChainFacilitator.sol\":1896:1914  _updateGhoTreasury */\n  tag_10\n    /* \"src/CrossChainFacilitator.sol\":1896:1927  _updateGhoTreasury(ghoTreasury) */\n  jump\t// in\ntag_9:\n    /* \"src/CrossChainFacilitator.sol\":1937:1952  _updateFee(fee) */\n  tag_11\n    /* \"src/CrossChainFacilitator.sol\":1948:1951  fee */\n  dup2\n    /* \"src/CrossChainFacilitator.sol\":1937:1947  _updateFee */\n  tag_12\n    /* \"src/CrossChainFacilitator.sol\":1937:1952  _updateFee(fee) */\n  jump\t// in\ntag_11:\n    /* \"src/CrossChainFacilitator.sol\":1962:1999  _updateAaveGovernance(aaveGovernance) */\n  tag_13\n    /* \"src/CrossChainFacilitator.sol\":1984:1998  aaveGovernance */\n  dup3\n    /* \"src/CrossChainFacilitator.sol\":1962:1983  _updateAaveGovernance */\n  tag_14\n    /* \"src/CrossChainFacilitator.sol\":1962:1999  _updateAaveGovernance(aaveGovernance) */\n  jump\t// in\ntag_13:\n    /* \"src/CrossChainFacilitator.sol\":1681:2006  constructor(address ghoToken, address ghoTreasury, address aaveGovernance, uint256 fee) {... */\n  pop\n  pop\n  pop\n  pop\n    /* \"src/CrossChainFacilitator.sol\":1196:3843  contract CrossChainFacilitator is ICrossChainFacilitator {... */\n  jump(tag_26)\n    /* \"src/CrossChainFacilitator.sol\":3088:3307  function _updateGhoTreasury(address newGhoTreasury) internal {... */\ntag_10:\n    /* \"src/CrossChainFacilitator.sol\":3159:3181  address oldGhoTreasury */\n  0x00\n    /* \"src/CrossChainFacilitator.sol\":3184:3196  _ghoTreasury */\n  dup1\n  sload\n  sub(shl(0xa0, 0x01), 0x01)\n    /* \"src/CrossChainFacilitator.sol\":3206:3235  _ghoTreasury = newGhoTreasury */\n  dup4\n  dup2\n  and\n  not(sub(shl(0xa0, 0x01), 0x01))\n  dup4\n  and\n  dup2\n  or\n  dup5\n  sstore\n    /* \"src/CrossChainFacilitator.sol\":3250:3300  GhoTreasuryUpdated(oldGhoTreasury, newGhoTreasury) */\n  mload(0x40)\n    /* \"src/CrossChainFacilitator.sol\":3184:3196  _ghoTreasury */\n  swap2\n  swap1\n  swap3\n  and\n  swap3\n  dup4\n  swap2\n    /* \"src/CrossChainFacilitator.sol\":3250:3300  GhoTreasuryUpdated(oldGhoTreasury, newGhoTreasury) */\n  0x13f4413d8d93a259bd6c10f35095371f30ed50f81a73407e52e9f02000d5d16b\n  swap2\n    /* \"src/CrossChainFacilitator.sol\":3159:3181  address oldGhoTreasury */\n  swap1\n    /* \"src/CrossChainFacilitator.sol\":3250:3300  GhoTreasuryUpdated(oldGhoTreasury, newGhoTreasury) */\n  log3\n    /* \"src/CrossChainFacilitator.sol\":3149:3307  {... */\n  pop\n    /* \"src/CrossChainFacilitator.sol\":3088:3307  function _updateGhoTreasury(address newGhoTreasury) internal {... */\n  pop\n  jump\t// out\n    /* \"src/CrossChainFacilitator.sol\":2856:3082  function _updateFee(uint256 newFee) internal {... */\ntag_12:\n    /* \"src/CrossChainFacilitator.sol\":1428:1431  1e4 */\n  0x2710\n    /* \"src/CrossChainFacilitator.sol\":2919:2925  newFee */\n  dup2\n    /* \"src/CrossChainFacilitator.sol\":2919:2936  newFee <= MAX_FEE */\n  gt\n  iszero\n    /* \"src/CrossChainFacilitator.sol\":2911:2980  require(newFee <= MAX_FEE, 'CrossChainFacilitator: Fee out of range') */\n  tag_18\n  jumpi\n  mload(0x40)\n  shl(0xe5, 0x461bcd)\n  dup2\n  mstore\n    /* \"#utility.yul\":843:845   */\n  0x20\n    /* \"src/CrossChainFacilitator.sol\":2911:2980  require(newFee <= MAX_FEE, 'CrossChainFacilitator: Fee out of range') */\n  0x04\n  dup3\n  add\n    /* \"#utility.yul\":825:846   */\n  mstore\n    /* \"#utility.yul\":882:884   */\n  0x27\n    /* \"#utility.yul\":862:880   */\n  0x24\n  dup3\n  add\n    /* \"#utility.yul\":855:885   */\n  mstore\n  0x00\n  dup1\n  mload\n  0x20\n  data_2afdc28fe7f0c63ee1cf40a1f744224559670bc3009ddaade6d745516bcebd21\n  dup4\n  codecopy\n  dup2\n  mload\n  swap2\n  mstore\n    /* \"#utility.yul\":901:919   */\n  0x44\n  dup3\n  add\n    /* \"#utility.yul\":894:956   */\n  mstore\n  shl(0xc8, 0x662072616e6765)\n    /* \"#utility.yul\":972:990   */\n  0x64\n  dup3\n  add\n    /* \"#utility.yul\":965:1002   */\n  mstore\n    /* \"#utility.yul\":1019:1038   */\n  0x84\n  add\n    /* \"src/CrossChainFacilitator.sol\":2911:2980  require(newFee <= MAX_FEE, 'CrossChainFacilitator: Fee out of range') */\n  tag_7\n    /* \"#utility.yul\":641:1044   */\n  jump\n    /* \"src/CrossChainFacilitator.sol\":2911:2980  require(newFee <= MAX_FEE, 'CrossChainFacilitator: Fee out of range') */\ntag_18:\n    /* \"src/CrossChainFacilitator.sol\":3007:3011  _fee */\n  0x01\n  dup1\n  sload\n    /* \"src/CrossChainFacilitator.sol\":3021:3034  _fee = newFee */\n  swap1\n  dup3\n  swap1\n  sstore\n    /* \"src/CrossChainFacilitator.sol\":3049:3075  FeeUpdated(oldFee, newFee) */\n  0x40\n  dup1\n  mload\n    /* \"#utility.yul\":1223:1248   */\n  dup3\n  dup2\n  mstore\n    /* \"#utility.yul\":1279:1281   */\n  0x20\n    /* \"#utility.yul\":1264:1282   */\n  dup2\n  add\n    /* \"#utility.yul\":1257:1291   */\n  dup5\n  swap1\n  mstore\n    /* \"src/CrossChainFacilitator.sol\":3049:3075  FeeUpdated(oldFee, newFee) */\n  0x528d9479e9f9889a87a3c30c7f7ba537e5e59c4c85a37733b16e57c62df61302\n  swap2\n    /* \"#utility.yul\":1196:1214   */\n  add\n    /* \"src/CrossChainFacilitator.sol\":3049:3075  FeeUpdated(oldFee, newFee) */\ntag_20:\n  mload(0x40)\n  dup1\n  swap2\n  sub\n  swap1\n  log1\n    /* \"src/CrossChainFacilitator.sol\":2901:3082  {... */\n  pop\n    /* \"src/CrossChainFacilitator.sol\":2856:3082  function _updateFee(uint256 newFee) internal {... */\n  pop\n  jump\t// out\n    /* \"src/CrossChainFacilitator.sol\":3313:3559  function _updateAaveGovernance(address newAaveGovernance) internal {... */\ntag_14:\n    /* \"src/CrossChainFacilitator.sol\":3418:3433  _aaveGovernance */\n  0x02\n  dup1\n  sload\n  sub(shl(0xa0, 0x01), 0x01)\n    /* \"src/CrossChainFacilitator.sol\":3443:3478  _aaveGovernance = newAaveGovernance */\n  dup4\n  dup2\n  and\n  not(sub(shl(0xa0, 0x01), 0x01))\n  dup4\n  and\n  dup2\n  or\n  swap1\n  swap4\n  sstore\n    /* \"src/CrossChainFacilitator.sol\":3493:3552  AaveGovernanceUpdated(oldAaveGovernance, newAaveGovernance) */\n  0x40\n  dup1\n  mload\n    /* \"src/CrossChainFacilitator.sol\":3418:3433  _aaveGovernance */\n  swap2\n  swap1\n  swap3\n  and\n    /* \"#utility.yul\":1514:1548   */\n  dup1\n  dup3\n  mstore\n    /* \"#utility.yul\":1579:1581   */\n  0x20\n    /* \"#utility.yul\":1564:1582   */\n  dup3\n  add\n    /* \"#utility.yul\":1557:1600   */\n  swap4\n  swap1\n  swap4\n  mstore\n    /* \"src/CrossChainFacilitator.sol\":3493:3552  AaveGovernanceUpdated(oldAaveGovernance, newAaveGovernance) */\n  0x52818c14b633bbaafd64ff307400cefea0d830f2f9ee8e8ed1ed04a2baed191e\n  swap2\n    /* \"#utility.yul\":1449:1467   */\n  add\n    /* \"src/CrossChainFacilitator.sol\":3493:3552  AaveGovernanceUpdated(oldAaveGovernance, newAaveGovernance) */\n  tag_20\n    /* \"#utility.yul\":1302:1606   */\n  jump\n    /* \"#utility.yul\":14:191   */\ntag_25:\n    /* \"#utility.yul\":93:106   */\n  dup1\n  mload\n  sub(shl(0xa0, 0x01), 0x01)\n    /* \"#utility.yul\":135:166   */\n  dup2\n  and\n    /* \"#utility.yul\":125:167   */\n  dup2\n  eq\n    /* \"#utility.yul\":115:185   */\n  tag_28\n  jumpi\n    /* \"#utility.yul\":181:182   */\n  0x00\n    /* \"#utility.yul\":178:179   */\n  dup1\n    /* \"#utility.yul\":171:183   */\n  revert\n    /* \"#utility.yul\":115:185   */\ntag_28:\n    /* \"#utility.yul\":14:191   */\n  swap2\n  swap1\n  pop\n  jump\t// out\n    /* \"#utility.yul\":196:636   */\ntag_3:\n    /* \"#utility.yul\":293:299   */\n  0x00\n    /* \"#utility.yul\":301:307   */\n  dup1\n    /* \"#utility.yul\":309:315   */\n  0x00\n    /* \"#utility.yul\":317:323   */\n  dup1\n    /* \"#utility.yul\":370:373   */\n  0x80\n    /* \"#utility.yul\":358:367   */\n  dup6\n    /* \"#utility.yul\":349:356   */\n  dup8\n    /* \"#utility.yul\":345:368   */\n  sub\n    /* \"#utility.yul\":341:374   */\n  slt\n    /* \"#utility.yul\":338:391   */\n  iszero\n  tag_30\n  jumpi\n    /* \"#utility.yul\":387:388   */\n  0x00\n    /* \"#utility.yul\":384:385   */\n  dup1\n    /* \"#utility.yul\":377:389   */\n  revert\n    /* \"#utility.yul\":338:391   */\ntag_30:\n    /* \"#utility.yul\":410:450   */\n  tag_31\n    /* \"#utility.yul\":440:449   */\n  dup6\n    /* \"#utility.yul\":410:450   */\n  tag_25\n  jump\t// in\ntag_31:\n    /* \"#utility.yul\":400:450   */\n  swap4\n  pop\n    /* \"#utility.yul\":469:518   */\n  tag_32\n    /* \"#utility.yul\":514:516   */\n  0x20\n    /* \"#utility.yul\":503:512   */\n  dup7\n    /* \"#utility.yul\":499:517   */\n  add\n    /* \"#utility.yul\":469:518   */\n  tag_25\n  jump\t// in\ntag_32:\n    /* \"#utility.yul\":459:518   */\n  swap3\n  pop\n    /* \"#utility.yul\":537:586   */\n  tag_33\n    /* \"#utility.yul\":582:584   */\n  0x40\n    /* \"#utility.yul\":571:580   */\n  dup7\n    /* \"#utility.yul\":567:585   */\n  add\n    /* \"#utility.yul\":537:586   */\n  tag_25\n  jump\t// in\ntag_33:\n    /* \"#utility.yul\":626:628   */\n  0x60\n    /* \"#utility.yul\":611:629   */\n  swap6\n  swap1\n  swap6\n  add\n    /* \"#utility.yul\":605:630   */\n  mload\n    /* \"#utility.yul\":196:636   */\n  swap4\n  swap7\n  swap3\n  swap6\n  pop\n  pop\n  pop\n  jump\t// out\n    /* \"#utility.yul\":1302:1606   */\ntag_26:\n    /* \"src/CrossChainFacilitator.sol\":1196:3843  contract CrossChainFacilitator is ICrossChainFacilitator {... */\n  mload(0x80)\n  mload(0xa0)\n  codecopy(0x00, dataOffset(sub_0), dataSize(sub_0))\n  0x00\n  assignImmutable(\"0x8788581203f2f070df375c4c6edaa97e54494ee8e63241590408464b81a873fb\")\n  0x00\n  assignImmutable(\"0xff794d8cd7dca597b23749a21bd82167dbe08e5febac19443b277acb1ae047f6\")\n  return(0x00, dataSize(sub_0))\nstop\ndata_2afdc28fe7f0c63ee1cf40a1f744224559670bc3009ddaade6d745516bcebd21 43726f7373436861696e466163696c697461746f723a20466565206f7574206f\n\nsub_0: assembly {\n        /* \"src/CrossChainFacilitator.sol\":1196:3843  contract CrossChainFacilitator is ICrossChainFacilitator {... */\n      mstore(0x40, 0x80)\n      callvalue\n      dup1\n      iszero\n      tag_1\n      jumpi\n      0x00\n      dup1\n      revert\n    tag_1:\n      pop\n      jumpi(tag_2, lt(calldatasize, 0x04))\n      shr(0xe0, calldataload(0x00))\n      dup1\n      0xbc063e1a\n      gt\n      tag_14\n      jumpi\n      dup1\n      0xbc063e1a\n      eq\n      tag_8\n      jumpi\n      dup1\n      0xced72f87\n      eq\n      tag_9\n      jumpi\n      dup1\n      0xdc49a07b\n      eq\n      tag_15\n      jumpi\n      dup1\n      0xe28178cc\n      eq\n      tag_11\n      jumpi\n      dup1\n      0xfa569274\n      eq\n      tag_12\n      jumpi\n      dup1\n      0xfc8028fa\n      eq\n      tag_13\n      jumpi\n      0x00\n      dup1\n      revert\n    tag_14:\n      dup1\n      0x1fde40bb\n      eq\n      tag_3\n      jumpi\n      dup1\n      0x788a19c7\n      eq\n      tag_4\n      jumpi\n      dup1\n      0x9012c4a8\n      eq\n      tag_5\n      jumpi\n      dup1\n      0xa8220058\n      eq\n      tag_6\n      jumpi\n      dup1\n      0xb1c660f7\n      eq\n      tag_7\n      jumpi\n    tag_2:\n      0x00\n      dup1\n      revert\n        /* \"src/CrossChainFacilitator.sol\":2529:2648  function updateGhoTreasury(address newGhoTreasury) external { // TODO... */\n    tag_3:\n      tag_15\n      tag_16\n      calldatasize\n      0x04\n      tag_17\n      jump\t// in\n    tag_16:\n      tag_18\n      jump\t// in\n    tag_15:\n      stop\n        /* \"src/CrossChainFacilitator.sol\":2012:2161  function mintGHOForUSDC(uint256 amount, address to) external {... */\n    tag_4:\n      tag_15\n      tag_20\n      calldatasize\n      0x04\n      tag_21\n      jump\t// in\n    tag_20:\n      tag_22\n      jump\t// in\n        /* \"src/CrossChainFacilitator.sol\":2436:2523  function updateFee(uint256 newFee) external { // TODO... */\n    tag_5:\n      tag_15\n      tag_24\n      calldatasize\n      0x04\n      tag_25\n      jump\t// in\n    tag_24:\n      tag_26\n      jump\t// in\n        /* \"src/CrossChainFacilitator.sol\":2167:2226  function redeemUSDCForGHO(uint256 amount) external {... */\n    tag_6:\n      tag_15\n      tag_28\n      calldatasize\n      0x04\n      tag_25\n      jump\t// in\n    tag_28:\n        /* \"src/CrossChainFacilitator.sol\":2529:2648  function updateGhoTreasury(address newGhoTreasury) external { // TODO... */\n      pop\n      jump\n        /* \"src/CrossChainFacilitator.sol\":1284:1320  IGhoToken public immutable GHO_TOKEN */\n    tag_7:\n      tag_30\n      immutable(\"0xff794d8cd7dca597b23749a21bd82167dbe08e5febac19443b277acb1ae047f6\")\n      dup2\n      jump\n    tag_30:\n      mload(0x40)\n      sub(shl(0xa0, 0x01), 0x01)\n        /* \"#utility.yul\":1009:1041   */\n      swap1\n      swap2\n      and\n        /* \"#utility.yul\":991:1042   */\n      dup2\n      mstore\n        /* \"#utility.yul\":979:981   */\n      0x20\n        /* \"#utility.yul\":964:982   */\n      add\n        /* \"src/CrossChainFacilitator.sol\":1284:1320  IGhoToken public immutable GHO_TOKEN */\n    tag_32:\n      mload(0x40)\n      dup1\n      swap2\n      sub\n      swap1\n      return\n        /* \"src/CrossChainFacilitator.sol\":1394:1431  uint256 public constant MAX_FEE = 1e4 */\n    tag_8:\n      tag_34\n        /* \"src/CrossChainFacilitator.sol\":1428:1431  1e4 */\n      0x2710\n        /* \"src/CrossChainFacilitator.sol\":1394:1431  uint256 public constant MAX_FEE = 1e4 */\n      dup2\n      jump\n    tag_34:\n      mload(0x40)\n        /* \"#utility.yul\":1199:1224   */\n      swap1\n      dup2\n      mstore\n        /* \"#utility.yul\":1187:1189   */\n      0x20\n        /* \"#utility.yul\":1172:1190   */\n      add\n        /* \"src/CrossChainFacilitator.sol\":1394:1431  uint256 public constant MAX_FEE = 1e4 */\n      tag_32\n        /* \"#utility.yul\":1053:1230   */\n      jump\n        /* \"src/CrossChainFacilitator.sol\":2654:2741  function getFee() external view override returns (uint256) {... */\n    tag_9:\n        /* \"src/CrossChainFacilitator.sol\":2730:2734  _fee */\n      sload(0x01)\n        /* \"src/CrossChainFacilitator.sol\":2654:2741  function getFee() external view override returns (uint256) {... */\n      jump(tag_34)\n        /* \"src/CrossChainFacilitator.sol\":2747:2850  function getGhoTreasury() external view override returns (address) {... */\n    tag_11:\n        /* \"src/CrossChainFacilitator.sol\":2805:2812  address */\n      0x00\n        /* \"src/CrossChainFacilitator.sol\":2831:2843  _ghoTreasury */\n      sload\n      sub(shl(0xa0, 0x01), 0x01)\n      and\n        /* \"src/CrossChainFacilitator.sol\":2747:2850  function getGhoTreasury() external view override returns (address) {... */\n      jump(tag_30)\n        /* \"src/CrossChainFacilitator.sol\":1353:1387  IERC20 public immutable USDC_TOKEN */\n    tag_12:\n      tag_30\n      immutable(\"0x8788581203f2f070df375c4c6edaa97e54494ee8e63241590408464b81a873fb\")\n      dup2\n      jump\n        /* \"src/CrossChainFacilitator.sol\":2232:2309  function sendGHOCrossChain(uint256 chainId, uint256 amount) external {... */\n    tag_13:\n      tag_15\n      tag_52\n      calldatasize\n      0x04\n      tag_53\n      jump\t// in\n    tag_52:\n        /* \"src/CrossChainFacilitator.sol\":2012:2161  function mintGHOForUSDC(uint256 amount, address to) external {... */\n      pop\n      pop\n      jump\n        /* \"src/CrossChainFacilitator.sol\":2529:2648  function updateGhoTreasury(address newGhoTreasury) external { // TODO... */\n    tag_18:\n        /* \"src/CrossChainFacilitator.sol\":2607:2641  _updateGhoTreasury(newGhoTreasury) */\n      tag_28\n        /* \"src/CrossChainFacilitator.sol\":2626:2640  newGhoTreasury */\n      dup2\n        /* \"src/CrossChainFacilitator.sol\":2607:2625  _updateGhoTreasury */\n      tag_57\n        /* \"src/CrossChainFacilitator.sol\":2607:2641  _updateGhoTreasury(newGhoTreasury) */\n      jump\t// in\n        /* \"src/CrossChainFacilitator.sol\":2012:2161  function mintGHOForUSDC(uint256 amount, address to) external {... */\n    tag_22:\n        /* \"src/CrossChainFacilitator.sol\":2091:2149  USDC_TOKEN.transferFrom(msg.sender, address(this), amount) */\n      mload(0x40)\n      shl(0xe0, 0x23b872dd)\n      dup2\n      mstore\n        /* \"src/CrossChainFacilitator.sol\":2115:2125  msg.sender */\n      caller\n        /* \"src/CrossChainFacilitator.sol\":2091:2149  USDC_TOKEN.transferFrom(msg.sender, address(this), amount) */\n      0x04\n      dup3\n      add\n        /* \"#utility.yul\":2159:2193   */\n      mstore\n        /* \"src/CrossChainFacilitator.sol\":2135:2139  this */\n      address\n        /* \"#utility.yul\":2209:2227   */\n      0x24\n      dup3\n      add\n        /* \"#utility.yul\":2202:2245   */\n      mstore\n        /* \"#utility.yul\":2261:2279   */\n      0x44\n      dup2\n      add\n        /* \"#utility.yul\":2254:2288   */\n      dup4\n      swap1\n      mstore\n        /* \"src/CrossChainFacilitator.sol\":2091:2101  USDC_TOKEN */\n      immutable(\"0x8788581203f2f070df375c4c6edaa97e54494ee8e63241590408464b81a873fb\")\n      sub(shl(0xa0, 0x01), 0x01)\n        /* \"src/CrossChainFacilitator.sol\":2091:2114  USDC_TOKEN.transferFrom */\n      and\n      swap1\n      0x23b872dd\n      swap1\n        /* \"#utility.yul\":2094:2112   */\n      0x64\n      add\n        /* \"src/CrossChainFacilitator.sol\":2091:2149  USDC_TOKEN.transferFrom(msg.sender, address(this), amount) */\n      0x20\n      mload(0x40)\n      dup1\n      dup4\n      sub\n      dup2\n      0x00\n      dup8\n      gas\n      call\n      iszero\n      dup1\n      iszero\n      tag_62\n      jumpi\n      returndatasize\n      0x00\n      dup1\n      returndatacopy\n      revert(0x00, returndatasize)\n    tag_62:\n      pop\n      pop\n      pop\n      pop\n      mload(0x40)\n      returndatasize\n      not(0x1f)\n      0x1f\n      dup3\n      add\n      and\n      dup3\n      add\n      dup1\n      0x40\n      mstore\n      pop\n      dup2\n      add\n      swap1\n      tag_63\n      swap2\n      swap1\n      tag_64\n      jump\t// in\n    tag_63:\n        /* \"src/CrossChainFacilitator.sol\":2083:2154  require(USDC_TOKEN.transferFrom(msg.sender, address(this), amount), \"\") */\n      tag_52\n      jumpi\n      mload(0x40)\n      shl(0xe5, 0x461bcd)\n      dup2\n      mstore\n        /* \"#utility.yul\":2783:2785   */\n      0x20\n        /* \"src/CrossChainFacilitator.sol\":2083:2154  require(USDC_TOKEN.transferFrom(msg.sender, address(this), amount), \"\") */\n      0x04\n      dup3\n      add\n        /* \"#utility.yul\":2765:2786   */\n      mstore\n      0x00\n        /* \"#utility.yul\":2802:2820   */\n      0x24\n      dup3\n      add\n        /* \"#utility.yul\":2795:2824   */\n      mstore\n        /* \"#utility.yul\":2841:2859   */\n      0x44\n      add\n        /* \"src/CrossChainFacilitator.sol\":2083:2154  require(USDC_TOKEN.transferFrom(msg.sender, address(this), amount), \"\") */\n    tag_66:\n      mload(0x40)\n      dup1\n      swap2\n      sub\n      swap1\n      revert\n        /* \"src/CrossChainFacilitator.sol\":2436:2523  function updateFee(uint256 newFee) external { // TODO... */\n    tag_26:\n        /* \"src/CrossChainFacilitator.sol\":2498:2516  _updateFee(newFee) */\n      tag_28\n        /* \"src/CrossChainFacilitator.sol\":2509:2515  newFee */\n      dup2\n        /* \"src/CrossChainFacilitator.sol\":2498:2508  _updateFee */\n      tag_70\n        /* \"src/CrossChainFacilitator.sol\":2498:2516  _updateFee(newFee) */\n      jump\t// in\n        /* \"src/CrossChainFacilitator.sol\":3088:3307  function _updateGhoTreasury(address newGhoTreasury) internal {... */\n    tag_57:\n        /* \"src/CrossChainFacilitator.sol\":3159:3181  address oldGhoTreasury */\n      0x00\n        /* \"src/CrossChainFacilitator.sol\":3184:3196  _ghoTreasury */\n      dup1\n      sload\n      sub(shl(0xa0, 0x01), 0x01)\n        /* \"src/CrossChainFacilitator.sol\":3206:3235  _ghoTreasury = newGhoTreasury */\n      dup4\n      dup2\n      and\n      not(sub(shl(0xa0, 0x01), 0x01))\n      dup4\n      and\n      dup2\n      or\n      dup5\n      sstore\n        /* \"src/CrossChainFacilitator.sol\":3250:3300  GhoTreasuryUpdated(oldGhoTreasury, newGhoTreasury) */\n      mload(0x40)\n        /* \"src/CrossChainFacilitator.sol\":3184:3196  _ghoTreasury */\n      swap2\n      swap1\n      swap3\n      and\n      swap3\n      dup4\n      swap2\n        /* \"src/CrossChainFacilitator.sol\":3250:3300  GhoTreasuryUpdated(oldGhoTreasury, newGhoTreasury) */\n      0x13f4413d8d93a259bd6c10f35095371f30ed50f81a73407e52e9f02000d5d16b\n      swap2\n        /* \"src/CrossChainFacilitator.sol\":3159:3181  address oldGhoTreasury */\n      swap1\n        /* \"src/CrossChainFacilitator.sol\":3250:3300  GhoTreasuryUpdated(oldGhoTreasury, newGhoTreasury) */\n      log3\n        /* \"src/CrossChainFacilitator.sol\":3149:3307  {... */\n      pop\n        /* \"src/CrossChainFacilitator.sol\":3088:3307  function _updateGhoTreasury(address newGhoTreasury) internal {... */\n      pop\n      jump\t// out\n        /* \"src/CrossChainFacilitator.sol\":2856:3082  function _updateFee(uint256 newFee) internal {... */\n    tag_70:\n        /* \"src/CrossChainFacilitator.sol\":1428:1431  1e4 */\n      0x2710\n        /* \"src/CrossChainFacilitator.sol\":2919:2925  newFee */\n      dup2\n        /* \"src/CrossChainFacilitator.sol\":2919:2936  newFee <= MAX_FEE */\n      gt\n      iszero\n        /* \"src/CrossChainFacilitator.sol\":2911:2980  require(newFee <= MAX_FEE, 'CrossChainFacilitator: Fee out of range') */\n      tag_78\n      jumpi\n      mload(0x40)\n      shl(0xe5, 0x461bcd)\n      dup2\n      mstore\n        /* \"#utility.yul\":3072:3074   */\n      0x20\n        /* \"src/CrossChainFacilitator.sol\":2911:2980  require(newFee <= MAX_FEE, 'CrossChainFacilitator: Fee out of range') */\n      0x04\n      dup3\n      add\n        /* \"#utility.yul\":3054:3075   */\n      mstore\n        /* \"#utility.yul\":3111:3113   */\n      0x27\n        /* \"#utility.yul\":3091:3109   */\n      0x24\n      dup3\n      add\n        /* \"#utility.yul\":3084:3114   */\n      mstore\n        /* \"#utility.yul\":3150:3184   */\n      0x43726f7373436861696e466163696c697461746f723a20466565206f7574206f\n        /* \"#utility.yul\":3130:3148   */\n      0x44\n      dup3\n      add\n        /* \"#utility.yul\":3123:3185   */\n      mstore\n      shl(0xc8, 0x662072616e6765)\n        /* \"#utility.yul\":3201:3219   */\n      0x64\n      dup3\n      add\n        /* \"#utility.yul\":3194:3231   */\n      mstore\n        /* \"#utility.yul\":3248:3267   */\n      0x84\n      add\n        /* \"src/CrossChainFacilitator.sol\":2911:2980  require(newFee <= MAX_FEE, 'CrossChainFacilitator: Fee out of range') */\n      tag_66\n        /* \"#utility.yul\":2870:3273   */\n      jump\n        /* \"src/CrossChainFacilitator.sol\":2911:2980  require(newFee <= MAX_FEE, 'CrossChainFacilitator: Fee out of range') */\n    tag_78:\n        /* \"src/CrossChainFacilitator.sol\":3007:3011  _fee */\n      0x01\n      dup1\n      sload\n        /* \"src/CrossChainFacilitator.sol\":3021:3034  _fee = newFee */\n      swap1\n      dup3\n      swap1\n      sstore\n        /* \"src/CrossChainFacilitator.sol\":3049:3075  FeeUpdated(oldFee, newFee) */\n      0x40\n      dup1\n      mload\n        /* \"#utility.yul\":3452:3477   */\n      dup3\n      dup2\n      mstore\n        /* \"#utility.yul\":3508:3510   */\n      0x20\n        /* \"#utility.yul\":3493:3511   */\n      dup2\n      add\n        /* \"#utility.yul\":3486:3520   */\n      dup5\n      swap1\n      mstore\n        /* \"src/CrossChainFacilitator.sol\":3049:3075  FeeUpdated(oldFee, newFee) */\n      0x528d9479e9f9889a87a3c30c7f7ba537e5e59c4c85a37733b16e57c62df61302\n      swap2\n        /* \"#utility.yul\":3425:3443   */\n      add\n        /* \"src/CrossChainFacilitator.sol\":3049:3075  FeeUpdated(oldFee, newFee) */\n      mload(0x40)\n      dup1\n      swap2\n      sub\n      swap1\n      log1\n        /* \"src/CrossChainFacilitator.sol\":2901:3082  {... */\n      pop\n        /* \"src/CrossChainFacilitator.sol\":2856:3082  function _updateFee(uint256 newFee) internal {... */\n      pop\n      jump\t// out\n        /* \"#utility.yul\":14:187   */\n    tag_83:\n        /* \"#utility.yul\":82:102   */\n      dup1\n      calldataload\n      sub(shl(0xa0, 0x01), 0x01)\n        /* \"#utility.yul\":131:162   */\n      dup2\n      and\n        /* \"#utility.yul\":121:163   */\n      dup2\n      eq\n        /* \"#utility.yul\":111:181   */\n      tag_86\n      jumpi\n        /* \"#utility.yul\":177:178   */\n      0x00\n        /* \"#utility.yul\":174:175   */\n      dup1\n        /* \"#utility.yul\":167:179   */\n      revert\n        /* \"#utility.yul\":111:181   */\n    tag_86:\n        /* \"#utility.yul\":14:187   */\n      swap2\n      swap1\n      pop\n      jump\t// out\n        /* \"#utility.yul\":192:378   */\n    tag_17:\n        /* \"#utility.yul\":251:257   */\n      0x00\n        /* \"#utility.yul\":304:306   */\n      0x20\n        /* \"#utility.yul\":292:301   */\n      dup3\n        /* \"#utility.yul\":283:290   */\n      dup5\n        /* \"#utility.yul\":279:302   */\n      sub\n        /* \"#utility.yul\":275:307   */\n      slt\n        /* \"#utility.yul\":272:324   */\n      iszero\n      tag_88\n      jumpi\n        /* \"#utility.yul\":320:321   */\n      0x00\n        /* \"#utility.yul\":317:318   */\n      dup1\n        /* \"#utility.yul\":310:322   */\n      revert\n        /* \"#utility.yul\":272:324   */\n    tag_88:\n        /* \"#utility.yul\":343:372   */\n      tag_89\n        /* \"#utility.yul\":362:371   */\n      dup3\n        /* \"#utility.yul\":343:372   */\n      tag_83\n      jump\t// in\n    tag_89:\n        /* \"#utility.yul\":333:372   */\n      swap4\n        /* \"#utility.yul\":192:378   */\n      swap3\n      pop\n      pop\n      pop\n      jump\t// out\n        /* \"#utility.yul\":383:637   */\n    tag_21:\n        /* \"#utility.yul\":451:457   */\n      0x00\n        /* \"#utility.yul\":459:465   */\n      dup1\n        /* \"#utility.yul\":512:514   */\n      0x40\n        /* \"#utility.yul\":500:509   */\n      dup4\n        /* \"#utility.yul\":491:498   */\n      dup6\n        /* \"#utility.yul\":487:510   */\n      sub\n        /* \"#utility.yul\":483:515   */\n      slt\n        /* \"#utility.yul\":480:532   */\n      iszero\n      tag_91\n      jumpi\n        /* \"#utility.yul\":528:529   */\n      0x00\n        /* \"#utility.yul\":525:526   */\n      dup1\n        /* \"#utility.yul\":518:530   */\n      revert\n        /* \"#utility.yul\":480:532   */\n    tag_91:\n        /* \"#utility.yul\":564:573   */\n      dup3\n        /* \"#utility.yul\":551:574   */\n      calldataload\n        /* \"#utility.yul\":541:574   */\n      swap2\n      pop\n        /* \"#utility.yul\":593:631   */\n      tag_92\n        /* \"#utility.yul\":627:629   */\n      0x20\n        /* \"#utility.yul\":616:625   */\n      dup5\n        /* \"#utility.yul\":612:630   */\n      add\n        /* \"#utility.yul\":593:631   */\n      tag_83\n      jump\t// in\n    tag_92:\n        /* \"#utility.yul\":583:631   */\n      swap1\n      pop\n        /* \"#utility.yul\":383:637   */\n      swap3\n      pop\n      swap3\n      swap1\n      pop\n      jump\t// out\n        /* \"#utility.yul\":642:822   */\n    tag_25:\n        /* \"#utility.yul\":701:707   */\n      0x00\n        /* \"#utility.yul\":754:756   */\n      0x20\n        /* \"#utility.yul\":742:751   */\n      dup3\n        /* \"#utility.yul\":733:740   */\n      dup5\n        /* \"#utility.yul\":729:752   */\n      sub\n        /* \"#utility.yul\":725:757   */\n      slt\n        /* \"#utility.yul\":722:774   */\n      iszero\n      tag_94\n      jumpi\n        /* \"#utility.yul\":770:771   */\n      0x00\n        /* \"#utility.yul\":767:768   */\n      dup1\n        /* \"#utility.yul\":760:772   */\n      revert\n        /* \"#utility.yul\":722:774   */\n    tag_94:\n      pop\n        /* \"#utility.yul\":793:816   */\n      calldataload\n      swap2\n        /* \"#utility.yul\":642:822   */\n      swap1\n      pop\n      jump\t// out\n        /* \"#utility.yul\":1666:1914   */\n    tag_53:\n        /* \"#utility.yul\":1734:1740   */\n      0x00\n        /* \"#utility.yul\":1742:1748   */\n      dup1\n        /* \"#utility.yul\":1795:1797   */\n      0x40\n        /* \"#utility.yul\":1783:1792   */\n      dup4\n        /* \"#utility.yul\":1774:1781   */\n      dup6\n        /* \"#utility.yul\":1770:1793   */\n      sub\n        /* \"#utility.yul\":1766:1798   */\n      slt\n        /* \"#utility.yul\":1763:1815   */\n      iszero\n      tag_100\n      jumpi\n        /* \"#utility.yul\":1811:1812   */\n      0x00\n        /* \"#utility.yul\":1808:1809   */\n      dup1\n        /* \"#utility.yul\":1801:1813   */\n      revert\n        /* \"#utility.yul\":1763:1815   */\n    tag_100:\n      pop\n      pop\n        /* \"#utility.yul\":1834:1857   */\n      dup1\n      calldataload\n      swap3\n        /* \"#utility.yul\":1904:1906   */\n      0x20\n        /* \"#utility.yul\":1889:1907   */\n      swap1\n      swap2\n      add\n        /* \"#utility.yul\":1876:1908   */\n      calldataload\n      swap2\n      pop\n        /* \"#utility.yul\":1666:1914   */\n      jump\t// out\n        /* \"#utility.yul\":2299:2576   */\n    tag_64:\n        /* \"#utility.yul\":2366:2372   */\n      0x00\n        /* \"#utility.yul\":2419:2421   */\n      0x20\n        /* \"#utility.yul\":2407:2416   */\n      dup3\n        /* \"#utility.yul\":2398:2405   */\n      dup5\n        /* \"#utility.yul\":2394:2417   */\n      sub\n        /* \"#utility.yul\":2390:2422   */\n      slt\n        /* \"#utility.yul\":2387:2439   */\n      iszero\n      tag_103\n      jumpi\n        /* \"#utility.yul\":2435:2436   */\n      0x00\n        /* \"#utility.yul\":2432:2433   */\n      dup1\n        /* \"#utility.yul\":2425:2437   */\n      revert\n        /* \"#utility.yul\":2387:2439   */\n    tag_103:\n        /* \"#utility.yul\":2467:2476   */\n      dup2\n        /* \"#utility.yul\":2461:2477   */\n      mload\n        /* \"#utility.yul\":2520:2525   */\n      dup1\n        /* \"#utility.yul\":2513:2526   */\n      iszero\n        /* \"#utility.yul\":2506:2527   */\n      iszero\n        /* \"#utility.yul\":2499:2504   */\n      dup2\n        /* \"#utility.yul\":2496:2528   */\n      eq\n        /* \"#utility.yul\":2486:2546   */\n      tag_89\n      jumpi\n        /* \"#utility.yul\":2542:2543   */\n      0x00\n        /* \"#utility.yul\":2539:2540   */\n      dup1\n        /* \"#utility.yul\":2532:2544   */\n      revert\n\n    auxdata: 0xa2646970667358221220f304082becb7607ff2c44a9ea6e4792bb12ed8e6d85f05fd9a15d8d4b425801664736f6c63430008160033\n}\n",
				"bytecode": {
					"linkReferences": {},
					"object": "60c060405234801561000f575f80fd5b506040516106f43803806106f483398101604081905261002e9161020c565b6127108111156100825760405162461bcd60e51b815260206004820152602760248201525f805160206106d4833981519152604482015266662072616e676560c81b60648201526084015b60405180910390fd5b6001600160a01b038416608052610098836100b3565b6100a181610102565b6100aa82610197565b50505050610254565b5f80546001600160a01b038381166001600160a01b0319831681178455604051919092169283917f13f4413d8d93a259bd6c10f35095371f30ed50f81a73407e52e9f02000d5d16b9190a35050565b6127108111156101515760405162461bcd60e51b815260206004820152602760248201525f805160206106d4833981519152604482015266662072616e676560c81b6064820152608401610079565b600180549082905560408051828152602081018490527f528d9479e9f9889a87a3c30c7f7ba537e5e59c4c85a37733b16e57c62df6130291015b60405180910390a15050565b600280546001600160a01b038381166001600160a01b031983168117909355604080519190921680825260208201939093527f52818c14b633bbaafd64ff307400cefea0d830f2f9ee8e8ed1ed04a2baed191e910161018b565b80516001600160a01b0381168114610207575f80fd5b919050565b5f805f806080858703121561021f575f80fd5b610228856101f1565b9350610236602086016101f1565b9250610244604086016101f1565b6060959095015193969295505050565b60805160a05161045961027b5f395f818161016e01526101cd01525f60fb01526104595ff3fe608060405234801561000f575f80fd5b50600436106100a6575f3560e01c8063bc063e1a1161006e578063bc063e1a1461013a578063ced72f8714610151578063dc49a07b146100bd578063e28178cc14610159578063fa56927414610169578063fc8028fa14610190575f80fd5b80631fde40bb146100aa578063788a19c7146100bf5780639012c4a8146100d2578063a8220058146100e5578063b1c660f7146100f6575b5f80fd5b6100bd6100b8366004610383565b6101a2565b005b6100bd6100cd3660046103a3565b6101ab565b6100bd6100e03660046103cd565b610269565b6100bd6100f33660046103cd565b50565b61011d7f000000000000000000000000000000000000000000000000000000000000000081565b6040516001600160a01b0390911681526020015b60405180910390f35b61014361271081565b604051908152602001610131565b600154610143565b5f546001600160a01b031661011d565b61011d7f000000000000000000000000000000000000000000000000000000000000000081565b6100bd61019e3660046103e4565b5050565b6100f381610272565b6040516323b872dd60e01b8152336004820152306024820152604481018390527f00000000000000000000000000000000000000000000000000000000000000006001600160a01b0316906323b872dd906064016020604051808303815f875af115801561021b573d5f803e3d5ffd5b505050506040513d601f19601f8201168201806040525081019061023f9190610404565b61019e5760405162461bcd60e51b8152602060048201525f60248201526044015b60405180910390fd5b6100f3816102c1565b5f80546001600160a01b038381166001600160a01b0319831681178455604051919092169283917f13f4413d8d93a259bd6c10f35095371f30ed50f81a73407e52e9f02000d5d16b9190a35050565b6127108111156103235760405162461bcd60e51b815260206004820152602760248201527f43726f7373436861696e466163696c697461746f723a20466565206f7574206f604482015266662072616e676560c81b6064820152608401610260565b600180549082905560408051828152602081018490527f528d9479e9f9889a87a3c30c7f7ba537e5e59c4c85a37733b16e57c62df61302910160405180910390a15050565b80356001600160a01b038116811461037e575f80fd5b919050565b5f60208284031215610393575f80fd5b61039c82610368565b9392505050565b5f80604083850312156103b4575f80fd5b823591506103c460208401610368565b90509250929050565b5f602082840312156103dd575f80fd5b5035919050565b5f80604083850312156103f5575f80fd5b50508035926020909101359150565b5f60208284031215610414575f80fd5b8151801515811461039c575f80fdfea2646970667358221220f304082becb7607ff2c44a9ea6e4792bb12ed8e6d85f05fd9a15d8d4b425801664736f6c6343000816003343726f7373436861696e466163696c697461746f723a20466565206f7574206f",
					"opcodes": "PUSH1 0xC0 PUSH1 0x40 MSTORE CALLVALUE DUP1 ISZERO PUSH2 0xF JUMPI PUSH0 DUP1 REVERT JUMPDEST POP PUSH1 0x40 MLOAD PUSH2 0x6F4 CODESIZE SUB DUP1 PUSH2 0x6F4 DUP4 CODECOPY DUP2 ADD PUSH1 0x40 DUP2 SWAP1 MSTORE PUSH2 0x2E SWAP2 PUSH2 0x20C JUMP JUMPDEST PUSH2 0x2710 DUP2 GT ISZERO PUSH2 0x82 JUMPI PUSH1 0x40 MLOAD PUSH3 0x461BCD PUSH1 0xE5 SHL DUP2 MSTORE PUSH1 0x20 PUSH1 0x4 DUP3 ADD MSTORE PUSH1 0x27 PUSH1 0x24 DUP3 ADD MSTORE PUSH0 DUP1 MLOAD PUSH1 0x20 PUSH2 0x6D4 DUP4 CODECOPY DUP2 MLOAD SWAP2 MSTORE PUSH1 0x44 DUP3 ADD MSTORE PUSH7 0x662072616E6765 PUSH1 0xC8 SHL PUSH1 0x64 DUP3 ADD MSTORE PUSH1 0x84 ADD JUMPDEST PUSH1 0x40 MLOAD DUP1 SWAP2 SUB SWAP1 REVERT JUMPDEST PUSH1 0x1 PUSH1 0x1 PUSH1 0xA0 SHL SUB DUP5 AND PUSH1 0x80 MSTORE PUSH2 0x98 DUP4 PUSH2 0xB3 JUMP JUMPDEST PUSH2 0xA1 DUP2 PUSH2 0x102 JUMP JUMPDEST PUSH2 0xAA DUP3 PUSH2 0x197 JUMP JUMPDEST POP POP POP POP PUSH2 0x254 JUMP JUMPDEST PUSH0 DUP1 SLOAD PUSH1 0x1 PUSH1 0x1 PUSH1 0xA0 SHL SUB DUP4 DUP2 AND PUSH1 0x1 PUSH1 0x1 PUSH1 0xA0 SHL SUB NOT DUP4 AND DUP2 OR DUP5 SSTORE PUSH1 0x40 MLOAD SWAP2 SWAP1 SWAP3 AND SWAP3 DUP4 SWAP2 PUSH32 0x13F4413D8D93A259BD6C10F35095371F30ED50F81A73407E52E9F02000D5D16B SWAP2 SWAP1 LOG3 POP POP JUMP JUMPDEST PUSH2 0x2710 DUP2 GT ISZERO PUSH2 0x151 JUMPI PUSH1 0x40 MLOAD PUSH3 0x461BCD PUSH1 0xE5 SHL DUP2 MSTORE PUSH1 0x20 PUSH1 0x4 DUP3 ADD MSTORE PUSH1 0x27 PUSH1 0x24 DUP3 ADD MSTORE PUSH0 DUP1 MLOAD PUSH1 0x20 PUSH2 0x6D4 DUP4 CODECOPY DUP2 MLOAD SWAP2 MSTORE PUSH1 0x44 DUP3 ADD MSTORE PUSH7 0x662072616E6765 PUSH1 0xC8 SHL PUSH1 0x64 DUP3 ADD MSTORE PUSH1 0x84 ADD PUSH2 0x79 JUMP JUMPDEST PUSH1 0x1 DUP1 SLOAD SWAP1 DUP3 SWAP1 SSTORE PUSH1 0x40 DUP1 MLOAD DUP3 DUP2 MSTORE PUSH1 0x20 DUP2 ADD DUP5 SWAP1 MSTORE PUSH32 0x528D9479E9F9889A87A3C30C7F7BA537E5E59C4C85A37733B16E57C62DF61302 SWAP2 ADD JUMPDEST PUSH1 0x40 MLOAD DUP1 SWAP2 SUB SWAP1 LOG1 POP POP JUMP JUMPDEST PUSH1 0x2 DUP1 SLOAD PUSH1 0x1 PUSH1 0x1 PUSH1 0xA0 SHL SUB DUP4 DUP2 AND PUSH1 0x1 PUSH1 0x1 PUSH1 0xA0 SHL SUB NOT DUP4 AND DUP2 OR SWAP1 SWAP4 SSTORE PUSH1 0x40 DUP1 MLOAD SWAP2 SWAP1 SWAP3 AND DUP1 DUP3 MSTORE PUSH1 0x20 DUP3 ADD SWAP4 SWAP1 SWAP4 MSTORE PUSH32 0x52818C14B633BBAAFD64FF307400CEFEA0D830F2F9EE8E8ED1ED04A2BAED191E SWAP2 ADD PUSH2 0x18B JUMP JUMPDEST DUP1 MLOAD PUSH1 0x1 PUSH1 0x1 PUSH1 0xA0 SHL SUB DUP2 AND DUP2 EQ PUSH2 0x207 JUMPI PUSH0 DUP1 REVERT JUMPDEST SWAP2 SWAP1 POP JUMP JUMPDEST PUSH0 DUP1 PUSH0 DUP1 PUSH1 0x80 DUP6 DUP8 SUB SLT ISZERO PUSH2 0x21F JUMPI PUSH0 DUP1 REVERT JUMPDEST PUSH2 0x228 DUP6 PUSH2 0x1F1 JUMP JUMPDEST SWAP4 POP PUSH2 0x236 PUSH1 0x20 DUP7 ADD PUSH2 0x1F1 JUMP JUMPDEST SWAP3 POP PUSH2 0x244 PUSH1 0x40 DUP7 ADD PUSH2 0x1F1 JUMP JUMPDEST PUSH1 0x60 SWAP6 SWAP1 SWAP6 ADD MLOAD SWAP4 SWAP7 SWAP3 SWAP6 POP POP POP JUMP JUMPDEST PUSH1 0x80 MLOAD PUSH1 0xA0 MLOAD PUSH2 0x459 PUSH2 0x27B PUSH0 CODECOPY PUSH0 DUP2 DUP2 PUSH2 0x16E ADD MSTORE PUSH2 0x1CD ADD MSTORE PUSH0 PUSH1 0xFB ADD MSTORE PUSH2 0x459 PUSH0 RETURN INVALID PUSH1 0x80 PUSH1 0x40 MSTORE CALLVALUE DUP1 ISZERO PUSH2 0xF JUMPI PUSH0 DUP1 REVERT JUMPDEST POP PUSH1 0x4 CALLDATASIZE LT PUSH2 0xA6 JUMPI PUSH0 CALLDATALOAD PUSH1 0xE0 SHR DUP1 PUSH4 0xBC063E1A GT PUSH2 0x6E JUMPI DUP1 PUSH4 0xBC063E1A EQ PUSH2 0x13A JUMPI DUP1 PUSH4 0xCED72F87 EQ PUSH2 0x151 JUMPI DUP1 PUSH4 0xDC49A07B EQ PUSH2 0xBD JUMPI DUP1 PUSH4 0xE28178CC EQ PUSH2 0x159 JUMPI DUP1 PUSH4 0xFA569274 EQ PUSH2 0x169 JUMPI DUP1 PUSH4 0xFC8028FA EQ PUSH2 0x190 JUMPI PUSH0 DUP1 REVERT JUMPDEST DUP1 PUSH4 0x1FDE40BB EQ PUSH2 0xAA JUMPI DUP1 PUSH4 0x788A19C7 EQ PUSH2 0xBF JUMPI DUP1 PUSH4 0x9012C4A8 EQ PUSH2 0xD2 JUMPI DUP1 PUSH4 0xA8220058 EQ PUSH2 0xE5 JUMPI DUP1 PUSH4 0xB1C660F7 EQ PUSH2 0xF6 JUMPI JUMPDEST PUSH0 DUP1 REVERT JUMPDEST PUSH2 0xBD PUSH2 0xB8 CALLDATASIZE PUSH1 0x4 PUSH2 0x383 JUMP JUMPDEST PUSH2 0x1A2 JUMP JUMPDEST STOP JUMPDEST PUSH2 0xBD PUSH2 0xCD CALLDATASIZE PUSH1 0x4 PUSH2 0x3A3 JUMP JUMPDEST PUSH2 0x1AB JUMP JUMPDEST PUSH2 0xBD PUSH2 0xE0 CALLDATASIZE PUSH1 0x4 PUSH2 0x3CD JUMP JUMPDEST PUSH2 0x269 JUMP JUMPDEST PUSH2 0xBD PUSH2 0xF3 CALLDATASIZE PUSH1 0x4 PUSH2 0x3CD JUMP JUMPDEST POP JUMP JUMPDEST PUSH2 0x11D PUSH32 0x0 DUP2 JUMP JUMPDEST PUSH1 0x40 MLOAD PUSH1 0x1 PUSH1 0x1 PUSH1 0xA0 SHL SUB SWAP1 SWAP2 AND DUP2 MSTORE PUSH1 0x20 ADD JUMPDEST PUSH1 0x40 MLOAD DUP1 SWAP2 SUB SWAP1 RETURN JUMPDEST PUSH2 0x143 PUSH2 0x2710 DUP2 JUMP JUMPDEST PUSH1 0x40 MLOAD SWAP1 DUP2 MSTORE PUSH1 0x20 ADD PUSH2 0x131 JUMP JUMPDEST PUSH1 0x1 SLOAD PUSH2 0x143 JUMP JUMPDEST PUSH0 SLOAD PUSH1 0x1 PUSH1 0x1 PUSH1 0xA0 SHL SUB AND PUSH2 0x11D JUMP JUMPDEST PUSH2 0x11D PUSH32 0x0 DUP2 JUMP JUMPDEST PUSH2 0xBD PUSH2 0x19E CALLDATASIZE PUSH1 0x4 PUSH2 0x3E4 JUMP JUMPDEST POP POP JUMP JUMPDEST PUSH2 0xF3 DUP2 PUSH2 0x272 JUMP JUMPDEST PUSH1 0x40 MLOAD PUSH4 0x23B872DD PUSH1 0xE0 SHL DUP2 MSTORE CALLER PUSH1 0x4 DUP3 ADD MSTORE ADDRESS PUSH1 0x24 DUP3 ADD MSTORE PUSH1 0x44 DUP2 ADD DUP4 SWAP1 MSTORE PUSH32 0x0 PUSH1 0x1 PUSH1 0x1 PUSH1 0xA0 SHL SUB AND SWAP1 PUSH4 0x23B872DD SWAP1 PUSH1 0x64 ADD PUSH1 0x20 PUSH1 0x40 MLOAD DUP1 DUP4 SUB DUP2 PUSH0 DUP8 GAS CALL ISZERO DUP1 ISZERO PUSH2 0x21B JUMPI RETURNDATASIZE PUSH0 DUP1 RETURNDATACOPY RETURNDATASIZE PUSH0 REVERT JUMPDEST POP POP POP POP PUSH1 0x40 MLOAD RETURNDATASIZE PUSH1 0x1F NOT PUSH1 0x1F DUP3 ADD AND DUP3 ADD DUP1 PUSH1 0x40 MSTORE POP DUP2 ADD SWAP1 PUSH2 0x23F SWAP2 SWAP1 PUSH2 0x404 JUMP JUMPDEST PUSH2 0x19E JUMPI PUSH1 0x40 MLOAD PUSH3 0x461BCD PUSH1 0xE5 SHL DUP2 MSTORE PUSH1 0x20 PUSH1 0x4 DUP3 ADD MSTORE PUSH0 PUSH1 0x24 DUP3 ADD MSTORE PUSH1 0x44 ADD JUMPDEST PUSH1 0x40 MLOAD DUP1 SWAP2 SUB SWAP1 REVERT JUMPDEST PUSH2 0xF3 DUP2 PUSH2 0x2C1 JUMP JUMPDEST PUSH0 DUP1 SLOAD PUSH1 0x1 PUSH1 0x1 PUSH1 0xA0 SHL SUB DUP4 DUP2 AND PUSH1 0x1 PUSH1 0x1 PUSH1 0xA0 SHL SUB NOT DUP4 AND DUP2 OR DUP5 SSTORE PUSH1 0x40 MLOAD SWAP2 SWAP1 SWAP3 AND SWAP3 DUP4 SWAP2 PUSH32 0x13F4413D8D93A259BD6C10F35095371F30ED50F81A73407E52E9F02000D5D16B SWAP2 SWAP1 LOG3 POP POP JUMP JUMPDEST PUSH2 0x2710 DUP2 GT ISZERO PUSH2 0x323 JUMPI PUSH1 0x40 MLOAD PUSH3 0x461BCD PUSH1 0xE5 SHL DUP2 MSTORE PUSH1 0x20 PUSH1 0x4 DUP3 ADD MSTORE PUSH1 0x27 PUSH1 0x24 DUP3 ADD MSTORE PUSH32 0x43726F7373436861696E466163696C697461746F723A20466565206F7574206F PUSH1 0x44 DUP3 ADD MSTORE PUSH7 0x662072616E6765 PUSH1 0xC8 SHL PUSH1 0x64 DUP3 ADD MSTORE PUSH1 0x84 ADD PUSH2 0x260 JUMP JUMPDEST PUSH1 0x1 DUP1 SLOAD SWAP1 DUP3 SWAP1 SSTORE PUSH1 0x40 DUP1 MLOAD DUP3 DUP2 MSTORE PUSH1 0x20 DUP2 ADD DUP5 SWAP1 MSTORE PUSH32 0x528D9479E9F9889A87A3C30C7F7BA537E5E59C4C85A37733B16E57C62DF61302 SWAP2 ADD PUSH1 0x40 MLOAD DUP1 SWAP2 SUB SWAP1 LOG1 POP POP JUMP JUMPDEST DUP1 CALLDATALOAD PUSH1 0x1 PUSH1 0x1 PUSH1 0xA0 SHL SUB DUP2 AND DUP2 EQ PUSH2 0x37E JUMPI PUSH0 DUP1 REVERT JUMPDEST SWAP2 SWAP1 POP JUMP JUMPDEST PUSH0 PUSH1 0x20 DUP3 DUP5 SUB SLT ISZERO PUSH2 0x393 JUMPI PUSH0 DUP1 REVERT JUMPDEST PUSH2 0x39C DUP3 PUSH2 0x368 JUMP JUMPDEST SWAP4 SWAP3 POP POP POP JUMP JUMPDEST PUSH0 DUP1 PUSH1 0x40 DUP4 DUP6 SUB SLT ISZERO PUSH2 0x3B4 JUMPI PUSH0 DUP1 REVERT JUMPDEST DUP3 CALLDATALOAD SWAP2 POP PUSH2 0x3C4 PUSH1 0x20 DUP5 ADD PUSH2 0x368 JUMP JUMPDEST SWAP1 POP SWAP3 POP SWAP3 SWAP1 POP JUMP JUMPDEST PUSH0 PUSH1 0x20 DUP3 DUP5 SUB SLT ISZERO PUSH2 0x3DD JUMPI PUSH0 DUP1 REVERT JUMPDEST POP CALLDATALOAD SWAP2 SWAP1 POP JUMP JUMPDEST PUSH0 DUP1 PUSH1 0x40 DUP4 DUP6 SUB SLT ISZERO PUSH2 0x3F5 JUMPI PUSH0 DUP1 REVERT JUMPDEST POP POP DUP1 CALLDATALOAD SWAP3 PUSH1 0x20 SWAP1 SWAP2 ADD CALLDATALOAD SWAP2 POP JUMP JUMPDEST PUSH0 PUSH1 0x20 DUP3 DUP5 SUB SLT ISZERO PUSH2 0x414 JUMPI PUSH0 DUP1 REVERT JUMPDEST DUP2 MLOAD DUP1 ISZERO ISZERO DUP2 EQ PUSH2 0x39C JUMPI PUSH0 DUP1 REVERT INVALID LOG2 PUSH5 0x6970667358 0x22 SLT KECCAK256 RETURN DIV ADDMOD 0x2B 0xEC 0xB7 PUSH1 0x7F CALLCODE 0xC4 0x4A SWAP15 0xA6 0xE4 PUSH26 0x2BB12ED8E6D85F05FD9A15D8D4B425801664736F6C6343000816 STOP CALLER NUMBER PUSH19 0x6F7373436861696E466163696C697461746F72 GASPRICE KECCAK256 CHAINID PUSH6 0x65206F757420 PUSH16 0x0 "
				},
				"gasEstimates": {
					"creation": {
						"codeDepositCost": "222600",
						"executionCost": "infinite",
						"totalCost": "infinite"
					},
					"external": {
						"GHO_TOKEN()": "infinite",
						"MAX_FEE()": "194",
						"USDC_TOKEN()": "infinite",
						"distributeFeesToTreasury()": "163",
						"getFee()": "2313",
						"getGhoTreasury()": "2384",
						"mintGHOForUSDC(uint256,address)": "infinite",
						"redeemUSDCForGHO(uint256)": "276",
						"sendGHOCrossChain(uint256,uint256)": "344",
						"updateFee(uint256)": "25872",
						"updateGhoTreasury(address)": "26132"
					},
					"internal": {
						"_updateAaveGovernance(address)": "infinite",
						"_updateFee(uint256)": "infinite",
						"_updateGhoTreasury(address)": "25820",
						"getGhoBalance()": "infinite"
					}
				},
				"methodIdentifiers": {
					"GHO_TOKEN()": "b1c660f7",
					"MAX_FEE()": "bc063e1a",
					"USDC_TOKEN()": "fa569274",
					"distributeFeesToTreasury()": "dc49a07b",
					"getFee()": "ced72f87",
					"getGhoTreasury()": "e28178cc",
					"mintGHOForUSDC(uint256,address)": "788a19c7",
					"redeemUSDCForGHO(uint256)": "a8220058",
					"sendGHOCrossChain(uint256,uint256)": "fc8028fa",
					"updateFee(uint256)": "9012c4a8",
					"updateGhoTreasury(address)": "1fde40bb"
				}
			},
			"storageLayout": {
				"storage": [
					{
						"astId": 3116,
						"contract": "src/CrossChainFacilitator.sol:CrossChainFacilitator",
						"label": "_ghoTreasury",
						"offset": 0,
						"slot": "0",
						"type": "t_address"
					},
					{
						"astId": 3118,
						"contract": "src/CrossChainFacilitator.sol:CrossChainFacilitator",
						"label": "_fee",
						"offset": 0,
						"slot": "1",
						"type": "t_uint256"
					},
					{
						"astId": 3120,
						"contract": "src/CrossChainFacilitator.sol:CrossChainFacilitator",
						"label": "_aaveGovernance",
						"offset": 0,
						"slot": "2",
						"type": "t_address"
					}
				],
				"types": {
					"t_address": {
						"encoding": "inplace",
						"label": "address",
						"numberOfBytes": "20"
					},
					"t_uint256": {
						"encoding": "inplace",
						"label": "uint256",
						"numberOfBytes": "32"
					}
				}
			},
			"userdoc": {
				"kind": "user",
				"methods": {
					"GHO_TOKEN()": {
						"notice": "Returns the address of the GHO token contract"
					},
					"MAX_FEE()": {
						"notice": "Returns the maximum value the fee can be set to"
					},
					"distributeFeesToTreasury()": {
						"notice": "Distribute fees to the GhoTreasury"
					},
					"getFee()": {
						"notice": "Returns the percentage of each mint taken as a fee"
					},
					"getGhoTreasury()": {
						"notice": "Returns the address of the Gho Treasury"
					},
					"updateFee(uint256)": {
						"notice": "Updates the percentage fee. It is the percentage of the minted amount that needs to be repaid."
					},
					"updateGhoTreasury(address)": {
						"notice": "Updates the address of the Gho Treasury"
					}
				},
				"version": 1
			}
		}
	}
}