{
	"src/CrossChainFacilitator.sol": {
		"CrossChainFacilitator": {
			"abi": [
				{
					"inputs": [
						{
							"internalType": "address",
							"name": "ghoToken",
							"type": "address"
						},
						{
							"internalType": "address",
							"name": "usdcToken",
							"type": "address"
						},
						{
							"internalType": "address",
							"name": "ghoTreasury",
							"type": "address"
						},
						{
							"internalType": "address",
							"name": "aaveGovernance",
							"type": "address"
						},
						{
							"internalType": "uint256",
							"name": "mintFee",
							"type": "uint256"
						},
						{
							"internalType": "uint256",
							"name": "transferFee",
							"type": "uint256"
						},
						{
							"internalType": "address",
							"name": "_router",
							"type": "address"
						}
					],
					"stateMutability": "nonpayable",
					"type": "constructor"
				},
				{
					"inputs": [
						{
							"internalType": "address",
							"name": "router",
							"type": "address"
						}
					],
					"name": "InvalidRouter",
					"type": "error"
				},
				{
					"anonymous": false,
					"inputs": [
						{
							"indexed": false,
							"internalType": "address",
							"name": "oldAaveGovernance",
							"type": "address"
						},
						{
							"indexed": false,
							"internalType": "address",
							"name": "newAaveGovernance",
							"type": "address"
						}
					],
					"name": "AaveGovernanceUpdated",
					"type": "event"
				},
				{
					"anonymous": false,
					"inputs": [
						{
							"indexed": true,
							"internalType": "address",
							"name": "ghoTreasury",
							"type": "address"
						},
						{
							"indexed": true,
							"internalType": "address",
							"name": "asset",
							"type": "address"
						},
						{
							"indexed": false,
							"internalType": "uint256",
							"name": "amount",
							"type": "uint256"
						}
					],
					"name": "FeesDistributedToTreasury",
					"type": "event"
				},
				{
					"anonymous": false,
					"inputs": [
						{
							"indexed": true,
							"internalType": "address",
							"name": "oldGhoTreasury",
							"type": "address"
						},
						{
							"indexed": true,
							"internalType": "address",
							"name": "newGhoTreasury",
							"type": "address"
						}
					],
					"name": "GhoTreasuryUpdated",
					"type": "event"
				},
				{
					"anonymous": false,
					"inputs": [
						{
							"indexed": true,
							"internalType": "bytes32",
							"name": "messageId",
							"type": "bytes32"
						},
						{
							"indexed": true,
							"internalType": "uint64",
							"name": "sourceChainSelector",
							"type": "uint64"
						},
						{
							"indexed": false,
							"internalType": "address",
							"name": "receiver",
							"type": "address"
						},
						{
							"indexed": false,
							"internalType": "address",
							"name": "sender",
							"type": "address"
						},
						{
							"indexed": false,
							"internalType": "uint256",
							"name": "amount",
							"type": "uint256"
						}
					],
					"name": "MessageReceived",
					"type": "event"
				},
				{
					"anonymous": false,
					"inputs": [
						{
							"indexed": true,
							"internalType": "bytes32",
							"name": "messageId",
							"type": "bytes32"
						},
						{
							"indexed": true,
							"internalType": "uint64",
							"name": "destinationChainSelector",
							"type": "uint64"
						},
						{
							"indexed": false,
							"internalType": "address",
							"name": "receiver",
							"type": "address"
						},
						{
							"indexed": false,
							"internalType": "uint256",
							"name": "amount",
							"type": "uint256"
						},
						{
							"indexed": false,
							"internalType": "address",
							"name": "feeToken",
							"type": "address"
						},
						{
							"indexed": false,
							"internalType": "uint256",
							"name": "fees",
							"type": "uint256"
						}
					],
					"name": "MessageSent",
					"type": "event"
				},
				{
					"anonymous": false,
					"inputs": [
						{
							"indexed": false,
							"internalType": "uint256",
							"name": "oldFee",
							"type": "uint256"
						},
						{
							"indexed": false,
							"internalType": "uint256",
							"name": "newFee",
							"type": "uint256"
						}
					],
					"name": "MintFeeUpdated",
					"type": "event"
				},
				{
					"anonymous": false,
					"inputs": [
						{
							"indexed": false,
							"internalType": "uint256",
							"name": "oldFee",
							"type": "uint256"
						},
						{
							"indexed": false,
							"internalType": "uint256",
							"name": "newFee",
							"type": "uint256"
						}
					],
					"name": "TransferFeeUpdated",
					"type": "event"
				},
				{
					"inputs": [],
					"name": "GHO_TOKEN",
					"outputs": [
						{
							"internalType": "contract IGhoToken",
							"name": "",
							"type": "address"
						}
					],
					"stateMutability": "view",
					"type": "function"
				},
				{
					"inputs": [],
					"name": "MAX_FEE",
					"outputs": [
						{
							"internalType": "uint256",
							"name": "",
							"type": "uint256"
						}
					],
					"stateMutability": "view",
					"type": "function"
				},
				{
					"inputs": [],
					"name": "USDC_TOKEN",
					"outputs": [
						{
							"internalType": "contract IERC20",
							"name": "",
							"type": "address"
						}
					],
					"stateMutability": "view",
					"type": "function"
				},
				{
					"inputs": [
						{
							"internalType": "uint64",
							"name": "chainId",
							"type": "uint64"
						},
						{
							"internalType": "address",
							"name": "ccReceiver",
							"type": "address"
						}
					],
					"name": "approveCrossChainReceiver",
					"outputs": [],
					"stateMutability": "nonpayable",
					"type": "function"
				},
				{
					"inputs": [
						{
							"components": [
								{
									"internalType": "bytes32",
									"name": "messageId",
									"type": "bytes32"
								},
								{
									"internalType": "uint64",
									"name": "sourceChainSelector",
									"type": "uint64"
								},
								{
									"internalType": "bytes",
									"name": "sender",
									"type": "bytes"
								},
								{
									"internalType": "bytes",
									"name": "data",
									"type": "bytes"
								},
								{
									"components": [
										{
											"internalType": "address",
											"name": "token",
											"type": "address"
										},
										{
											"internalType": "uint256",
											"name": "amount",
											"type": "uint256"
										}
									],
									"internalType": "struct Client.EVMTokenAmount[]",
									"name": "destTokenAmounts",
									"type": "tuple[]"
								}
							],
							"internalType": "struct Client.Any2EVMMessage",
							"name": "message",
							"type": "tuple"
						}
					],
					"name": "ccipReceive",
					"outputs": [],
					"stateMutability": "nonpayable",
					"type": "function"
				},
				{
					"inputs": [],
					"name": "distributeFeesToTreasury",
					"outputs": [],
					"stateMutability": "nonpayable",
					"type": "function"
				},
				{
					"inputs": [],
					"name": "getGhoTreasury",
					"outputs": [
						{
							"internalType": "address",
							"name": "",
							"type": "address"
						}
					],
					"stateMutability": "view",
					"type": "function"
				},
				{
					"inputs": [],
					"name": "getMintFee",
					"outputs": [
						{
							"internalType": "uint256",
							"name": "",
							"type": "uint256"
						}
					],
					"stateMutability": "view",
					"type": "function"
				},
				{
					"inputs": [],
					"name": "getRouter",
					"outputs": [
						{
							"internalType": "address",
							"name": "",
							"type": "address"
						}
					],
					"stateMutability": "view",
					"type": "function"
				},
				{
					"inputs": [],
					"name": "getTransferFee",
					"outputs": [
						{
							"internalType": "uint256",
							"name": "",
							"type": "uint256"
						}
					],
					"stateMutability": "view",
					"type": "function"
				},
				{
					"inputs": [
						{
							"internalType": "uint256",
							"name": "amount",
							"type": "uint256"
						},
						{
							"internalType": "address",
							"name": "to",
							"type": "address"
						}
					],
					"name": "mintGHOForUSDC",
					"outputs": [],
					"stateMutability": "nonpayable",
					"type": "function"
				},
				{
					"inputs": [
						{
							"internalType": "uint64",
							"name": "amount",
							"type": "uint64"
						},
						{
							"internalType": "address",
							"name": "to",
							"type": "address"
						}
					],
					"name": "redeemUSDCForGHO",
					"outputs": [],
					"stateMutability": "nonpayable",
					"type": "function"
				},
				{
					"inputs": [
						{
							"internalType": "uint64",
							"name": "chainId",
							"type": "uint64"
						},
						{
							"internalType": "uint256",
							"name": "amount",
							"type": "uint256"
						},
						{
							"internalType": "address",
							"name": "to",
							"type": "address"
						}
					],
					"name": "sendGHOCrossChain",
					"outputs": [
						{
							"internalType": "bytes32",
							"name": "messageId",
							"type": "bytes32"
						}
					],
					"stateMutability": "payable",
					"type": "function"
				},
				{
					"inputs": [
						{
							"internalType": "bytes4",
							"name": "interfaceId",
							"type": "bytes4"
						}
					],
					"name": "supportsInterface",
					"outputs": [
						{
							"internalType": "bool",
							"name": "",
							"type": "bool"
						}
					],
					"stateMutability": "pure",
					"type": "function"
				},
				{
					"inputs": [
						{
							"internalType": "address",
							"name": "newGhoTreasury",
							"type": "address"
						}
					],
					"name": "updateGhoTreasury",
					"outputs": [],
					"stateMutability": "nonpayable",
					"type": "function"
				},
				{
					"inputs": [
						{
							"internalType": "uint256",
							"name": "newFee",
							"type": "uint256"
						}
					],
					"name": "updateMintFee",
					"outputs": [],
					"stateMutability": "nonpayable",
					"type": "function"
				},
				{
					"inputs": [
						{
							"internalType": "uint256",
							"name": "newFee",
							"type": "uint256"
						}
					],
					"name": "updateTransferFee",
					"outputs": [],
					"stateMutability": "nonpayable",
					"type": "function"
				}
			],
			"devdoc": {
				"events": {
					"FeesDistributedToTreasury(address,address,uint256)": {
						"details": "Emitted when fees are distributed to the GhoTreasury",
						"params": {
							"amount": "The amount of the asset transferred to the ghoTreasury",
							"asset": "The address of the asset transferred to the ghoTreasury",
							"ghoTreasury": "The address of the ghoTreasury"
						}
					},
					"GhoTreasuryUpdated(address,address)": {
						"details": "Emitted when Gho Treasury address is updated",
						"params": {
							"newGhoTreasury": "The address of the new GhoTreasury contract",
							"oldGhoTreasury": "The address of the old GhoTreasury contract"
						}
					},
					"MintFeeUpdated(uint256,uint256)": {
						"details": "Emitted when the percentage fee is updated",
						"params": {
							"newFee": "The new fee (in bps)",
							"oldFee": "The old fee (in bps)"
						}
					},
					"TransferFeeUpdated(uint256,uint256)": {
						"details": "Emitted when the percentage fee is updated",
						"params": {
							"newFee": "The new fee (in bps)",
							"oldFee": "The old fee (in bps)"
						}
					}
				},
				"kind": "dev",
				"methods": {
					"ccipReceive((bytes32,uint64,bytes,bytes,(address,uint256)[]))": {
						"details": "Note ensure you check the msg.sender is the OffRampRouter",
						"params": {
							"message": "CCIP Message"
						}
					},
					"getGhoTreasury()": {
						"returns": {
							"_0": "The address of the GhoTreasury contract"
						}
					},
					"getMintFee()": {
						"returns": {
							"_0": "The percentage fee of the minted amount that needs to be repaid, on top of the principal (in bps)."
						}
					},
					"getRouter()": {
						"returns": {
							"_0": "i_router address"
						}
					},
					"supportsInterface(bytes4)": {
						"details": "Should indicate whether the contract implements IAny2EVMMessageReceiver e.g. return interfaceId == type(IAny2EVMMessageReceiver).interfaceId || interfaceId == type(IERC165).interfaceId This allows CCIP to check if ccipReceive is available before calling it. If this returns false or reverts, only tokens are transferred to the receiver. If this returns true, tokens are transferred and ccipReceive is called atomically. Additionally, if the receiver address does not have code associated with it at the time of execution (EXTCODESIZE returns 0), only tokens will be transferred.",
						"params": {
							"interfaceId": "The interfaceId to check"
						},
						"returns": {
							"_0": "true if the interfaceId is supported"
						}
					},
					"updateGhoTreasury(address)": {
						"details": "WARNING: The GhoTreasury is where revenue fees are sent to. Update carefully",
						"params": {
							"newGhoTreasury": "The address of the GhoTreasury"
						}
					},
					"updateMintFee(uint256)": {
						"details": "The fee is expressed in bps. A value of 100, results in 1.00%",
						"params": {
							"newFee": "The new percentage fee (in bps)"
						}
					}
				},
				"stateVariables": {
					"GHO_TOKEN": {
						"return": "The address of the GhoToken",
						"returns": {
							"_0": "The address of the GhoToken"
						}
					},
					"MAX_FEE": {
						"return": "The maximum percentage fee of the minted amount that the fee can be set to (in bps).",
						"returns": {
							"_0": "The maximum percentage fee of the minted amount that the fee can be set to (in bps)."
						}
					}
				},
				"version": 1
			},
			"evm": {
				"assembly": "    /* \"src/CrossChainFacilitator.sol\":604:9962  contract CrossChainFacilitator is CCIPReceiver, ICrossChainFacilitator {... */\n  mstore(0x40, 0xe0)\n    /* \"src/CrossChainFacilitator.sol\":1572:2162  constructor(... */\n  callvalue\n  dup1\n  iszero\n  tag_1\n  jumpi\n  0x00\n  dup1\n  revert\ntag_1:\n  pop\n  mload(0x40)\n  sub(codesize, bytecodeSize)\n  dup1\n  bytecodeSize\n  dup4\n  codecopy\n  dup2\n  add\n  0x40\n  dup2\n  swap1\n  mstore\n  tag_2\n  swap2\n  tag_3\n  jump\t// in\ntag_2:\n    /* \"src/CrossChainFacilitator.sol\":1796:1803  _router */\n  dup1\n  sub(shl(0xa0, 0x01), 0x01)\n    /* \"lib/contracts-ccip/src/v0.8/ccip/applications/CCIPReceiver.sol\":538:558  router == address(0) */\n  dup2\n  and\n    /* \"lib/contracts-ccip/src/v0.8/ccip/applications/CCIPReceiver.sol\":534:592  if (router == address(0)) revert InvalidRouter(address(0)) */\n  tag_7\n  jumpi\n    /* \"lib/contracts-ccip/src/v0.8/ccip/applications/CCIPReceiver.sol\":567:592  InvalidRouter(address(0)) */\n  mload(0x40)\n  shl(0xe2, 0x35fdcccd)\n  dup2\n  mstore\n    /* \"lib/contracts-ccip/src/v0.8/ccip/applications/CCIPReceiver.sol\":589:590  0 */\n  0x00\n    /* \"lib/contracts-ccip/src/v0.8/ccip/applications/CCIPReceiver.sol\":567:592  InvalidRouter(address(0)) */\n  0x04\n  dup3\n  add\n    /* \"#utility.yul\":1021:1072   */\n  mstore\n    /* \"#utility.yul\":994:1012   */\n  0x24\n  add\n    /* \"lib/contracts-ccip/src/v0.8/ccip/applications/CCIPReceiver.sol\":567:592  InvalidRouter(address(0)) */\ntag_8:\n  mload(0x40)\n  dup1\n  swap2\n  sub\n  swap1\n  revert\n    /* \"lib/contracts-ccip/src/v0.8/ccip/applications/CCIPReceiver.sol\":534:592  if (router == address(0)) revert InvalidRouter(address(0)) */\ntag_7:\n  sub(shl(0xa0, 0x01), 0x01)\n    /* \"lib/contracts-ccip/src/v0.8/ccip/applications/CCIPReceiver.sol\":598:615  i_router = router */\n  and\n  0x80\n  mstore\n    /* \"src/CrossChainFacilitator.sol\":889:892  1e4 */\n  0x2710\n    /* \"src/CrossChainFacilitator.sol\":1823:1841  mintFee <= MAX_FEE */\n  dup4\n  gt\n  dup1\n  iszero\n  swap1\n    /* \"src/CrossChainFacilitator.sol\":1823:1867  mintFee <= MAX_FEE && transferFee <= MAX_FEE */\n  tag_11\n  jumpi\n  pop\n    /* \"src/CrossChainFacilitator.sol\":889:892  1e4 */\n  0x2710\n    /* \"src/CrossChainFacilitator.sol\":1845:1856  transferFee */\n  dup3\n    /* \"src/CrossChainFacilitator.sol\":1845:1867  transferFee <= MAX_FEE */\n  gt\n  iszero\n    /* \"src/CrossChainFacilitator.sol\":1823:1867  mintFee <= MAX_FEE && transferFee <= MAX_FEE */\ntag_11:\n    /* \"src/CrossChainFacilitator.sol\":1815:1912  require(mintFee <= MAX_FEE && transferFee <= MAX_FEE, \"CrossChainFacilitator: Fees out of range\") */\n  tag_12\n  jumpi\n  mload(0x40)\n  shl(0xe5, 0x461bcd)\n  dup2\n  mstore\n    /* \"#utility.yul\":1285:1287   */\n  0x20\n    /* \"src/CrossChainFacilitator.sol\":1815:1912  require(mintFee <= MAX_FEE && transferFee <= MAX_FEE, \"CrossChainFacilitator: Fees out of range\") */\n  0x04\n  dup3\n  add\n    /* \"#utility.yul\":1267:1288   */\n  mstore\n    /* \"#utility.yul\":1324:1326   */\n  0x28\n    /* \"#utility.yul\":1304:1322   */\n  0x24\n  dup3\n  add\n    /* \"#utility.yul\":1297:1327   */\n  mstore\n    /* \"#utility.yul\":1363:1397   */\n  0x43726f7373436861696e466163696c697461746f723a2046656573206f757420\n    /* \"#utility.yul\":1343:1361   */\n  0x44\n  dup3\n  add\n    /* \"#utility.yul\":1336:1398   */\n  mstore\n  shl(0xc0, 0x6f662072616e6765)\n    /* \"#utility.yul\":1414:1432   */\n  0x64\n  dup3\n  add\n    /* \"#utility.yul\":1407:1445   */\n  mstore\n    /* \"#utility.yul\":1462:1481   */\n  0x84\n  add\n    /* \"src/CrossChainFacilitator.sol\":1815:1912  require(mintFee <= MAX_FEE && transferFee <= MAX_FEE, \"CrossChainFacilitator: Fees out of range\") */\n  tag_8\n    /* \"#utility.yul\":1083:1487   */\n  jump\n    /* \"src/CrossChainFacilitator.sol\":1815:1912  require(mintFee <= MAX_FEE && transferFee <= MAX_FEE, \"CrossChainFacilitator: Fees out of range\") */\ntag_12:\n  sub(shl(0xa0, 0x01), 0x01)\n    /* \"src/CrossChainFacilitator.sol\":1922:1953  GHO_TOKEN = IGhoToken(ghoToken) */\n  dup1\n  dup9\n  and\n  0xa0\n  mstore\n    /* \"src/CrossChainFacilitator.sol\":1963:1993  USDC_TOKEN = IERC20(usdcToken) */\n  dup7\n  and\n  0xc0\n  mstore\n    /* \"src/CrossChainFacilitator.sol\":2003:2034  _updateGhoTreasury(ghoTreasury) */\n  tag_15\n    /* \"src/CrossChainFacilitator.sol\":2022:2033  ghoTreasury */\n  dup6\n    /* \"src/CrossChainFacilitator.sol\":2003:2021  _updateGhoTreasury */\n  tag_16\n    /* \"src/CrossChainFacilitator.sol\":2003:2034  _updateGhoTreasury(ghoTreasury) */\n  jump\t// in\ntag_15:\n    /* \"src/CrossChainFacilitator.sol\":2044:2067  _updateMintFee(mintFee) */\n  tag_17\n    /* \"src/CrossChainFacilitator.sol\":2059:2066  mintFee */\n  dup4\n    /* \"src/CrossChainFacilitator.sol\":2044:2058  _updateMintFee */\n  tag_18\n    /* \"src/CrossChainFacilitator.sol\":2044:2067  _updateMintFee(mintFee) */\n  jump\t// in\ntag_17:\n    /* \"src/CrossChainFacilitator.sol\":2077:2108  _updateTransferFee(transferFee) */\n  tag_19\n    /* \"src/CrossChainFacilitator.sol\":2096:2107  transferFee */\n  dup3\n    /* \"src/CrossChainFacilitator.sol\":2077:2095  _updateTransferFee */\n  tag_20\n    /* \"src/CrossChainFacilitator.sol\":2077:2108  _updateTransferFee(transferFee) */\n  jump\t// in\ntag_19:\n    /* \"src/CrossChainFacilitator.sol\":2118:2155  _updateAaveGovernance(aaveGovernance) */\n  tag_21\n    /* \"src/CrossChainFacilitator.sol\":2140:2154  aaveGovernance */\n  dup5\n    /* \"src/CrossChainFacilitator.sol\":2118:2139  _updateAaveGovernance */\n  tag_22\n    /* \"src/CrossChainFacilitator.sol\":2118:2155  _updateAaveGovernance(aaveGovernance) */\n  jump\t// in\ntag_21:\n    /* \"src/CrossChainFacilitator.sol\":1572:2162  constructor(... */\n  pop\n  pop\n  pop\n  pop\n  pop\n  pop\n  pop\n    /* \"src/CrossChainFacilitator.sol\":604:9962  contract CrossChainFacilitator is CCIPReceiver, ICrossChainFacilitator {... */\n  jump(tag_39)\n    /* \"src/CrossChainFacilitator.sol\":6458:6677  function _updateGhoTreasury(address newGhoTreasury) internal {... */\ntag_16:\n    /* \"src/CrossChainFacilitator.sol\":6529:6551  address oldGhoTreasury */\n  0x00\n    /* \"src/CrossChainFacilitator.sol\":6554:6566  _ghoTreasury */\n  dup1\n  sload\n  sub(shl(0xa0, 0x01), 0x01)\n    /* \"src/CrossChainFacilitator.sol\":6576:6605  _ghoTreasury = newGhoTreasury */\n  dup4\n  dup2\n  and\n  not(sub(shl(0xa0, 0x01), 0x01))\n  dup4\n  and\n  dup2\n  or\n  dup5\n  sstore\n    /* \"src/CrossChainFacilitator.sol\":6620:6670  GhoTreasuryUpdated(oldGhoTreasury, newGhoTreasury) */\n  mload(0x40)\n    /* \"src/CrossChainFacilitator.sol\":6554:6566  _ghoTreasury */\n  swap2\n  swap1\n  swap3\n  and\n  swap3\n  dup4\n  swap2\n    /* \"src/CrossChainFacilitator.sol\":6620:6670  GhoTreasuryUpdated(oldGhoTreasury, newGhoTreasury) */\n  0x13f4413d8d93a259bd6c10f35095371f30ed50f81a73407e52e9f02000d5d16b\n  swap2\n    /* \"src/CrossChainFacilitator.sol\":6529:6551  address oldGhoTreasury */\n  swap1\n    /* \"src/CrossChainFacilitator.sol\":6620:6670  GhoTreasuryUpdated(oldGhoTreasury, newGhoTreasury) */\n  log3\n    /* \"src/CrossChainFacilitator.sol\":6519:6677  {... */\n  pop\n    /* \"src/CrossChainFacilitator.sol\":6458:6677  function _updateGhoTreasury(address newGhoTreasury) internal {... */\n  pop\n  jump\t// out\n    /* \"src/CrossChainFacilitator.sol\":5199:5441  function _updateMintFee(uint256 newFee) internal {... */\ntag_18:\n    /* \"src/CrossChainFacilitator.sol\":889:892  1e4 */\n  0x2710\n    /* \"src/CrossChainFacilitator.sol\":5266:5272  newFee */\n  dup2\n    /* \"src/CrossChainFacilitator.sol\":5266:5283  newFee <= MAX_FEE */\n  gt\n  iszero\n    /* \"src/CrossChainFacilitator.sol\":5258:5327  require(newFee <= MAX_FEE, \"CrossChainFacilitator: Fee out of range\") */\n  tag_26\n  jumpi\n  mload(0x40)\n  shl(0xe5, 0x461bcd)\n  dup2\n  mstore\n    /* \"#utility.yul\":1694:1696   */\n  0x20\n    /* \"src/CrossChainFacilitator.sol\":5258:5327  require(newFee <= MAX_FEE, \"CrossChainFacilitator: Fee out of range\") */\n  0x04\n  dup3\n  add\n    /* \"#utility.yul\":1676:1697   */\n  mstore\n    /* \"#utility.yul\":1733:1735   */\n  0x27\n    /* \"#utility.yul\":1713:1731   */\n  0x24\n  dup3\n  add\n    /* \"#utility.yul\":1706:1736   */\n  mstore\n  0x00\n  dup1\n  mload\n  0x20\n  data_2afdc28fe7f0c63ee1cf40a1f744224559670bc3009ddaade6d745516bcebd21\n  dup4\n  codecopy\n  dup2\n  mload\n  swap2\n  mstore\n    /* \"#utility.yul\":1752:1770   */\n  0x44\n  dup3\n  add\n    /* \"#utility.yul\":1745:1807   */\n  mstore\n  shl(0xc8, 0x662072616e6765)\n    /* \"#utility.yul\":1823:1841   */\n  0x64\n  dup3\n  add\n    /* \"#utility.yul\":1816:1853   */\n  mstore\n    /* \"#utility.yul\":1870:1889   */\n  0x84\n  add\n    /* \"src/CrossChainFacilitator.sol\":5258:5327  require(newFee <= MAX_FEE, \"CrossChainFacilitator: Fee out of range\") */\n  tag_8\n    /* \"#utility.yul\":1492:1895   */\n  jump\n    /* \"src/CrossChainFacilitator.sol\":5258:5327  require(newFee <= MAX_FEE, \"CrossChainFacilitator: Fee out of range\") */\ntag_26:\n    /* \"src/CrossChainFacilitator.sol\":5354:5362  _mintFee */\n  0x01\n  dup1\n  sload\n    /* \"src/CrossChainFacilitator.sol\":5372:5389  _mintFee = newFee */\n  swap1\n  dup3\n  swap1\n  sstore\n    /* \"src/CrossChainFacilitator.sol\":5404:5434  MintFeeUpdated(oldFee, newFee) */\n  0x40\n  dup1\n  mload\n    /* \"#utility.yul\":2074:2099   */\n  dup3\n  dup2\n  mstore\n    /* \"#utility.yul\":2130:2132   */\n  0x20\n    /* \"#utility.yul\":2115:2133   */\n  dup2\n  add\n    /* \"#utility.yul\":2108:2142   */\n  dup5\n  swap1\n  mstore\n    /* \"src/CrossChainFacilitator.sol\":5404:5434  MintFeeUpdated(oldFee, newFee) */\n  0x7864bf708cae822050e5f50960a0de31bd6fe7620a8f67a48582fb95f29c114a\n  swap2\n    /* \"#utility.yul\":2047:2065   */\n  add\n    /* \"src/CrossChainFacilitator.sol\":5404:5434  MintFeeUpdated(oldFee, newFee) */\ntag_29:\n  mload(0x40)\n  dup1\n  swap2\n  sub\n  swap1\n  log1\n    /* \"src/CrossChainFacilitator.sol\":5248:5441  {... */\n  pop\n    /* \"src/CrossChainFacilitator.sol\":5199:5441  function _updateMintFee(uint256 newFee) internal {... */\n  pop\n  jump\t// out\n    /* \"src/CrossChainFacilitator.sol\":5831:6089  function _updateTransferFee(uint256 newFee) internal {... */\ntag_20:\n    /* \"src/CrossChainFacilitator.sol\":889:892  1e4 */\n  0x2710\n    /* \"src/CrossChainFacilitator.sol\":5902:5908  newFee */\n  dup2\n    /* \"src/CrossChainFacilitator.sol\":5902:5919  newFee <= MAX_FEE */\n  gt\n  iszero\n    /* \"src/CrossChainFacilitator.sol\":5894:5963  require(newFee <= MAX_FEE, \"CrossChainFacilitator: Fee out of range\") */\n  tag_32\n  jumpi\n  mload(0x40)\n  shl(0xe5, 0x461bcd)\n  dup2\n  mstore\n    /* \"#utility.yul\":1694:1696   */\n  0x20\n    /* \"src/CrossChainFacilitator.sol\":5894:5963  require(newFee <= MAX_FEE, \"CrossChainFacilitator: Fee out of range\") */\n  0x04\n  dup3\n  add\n    /* \"#utility.yul\":1676:1697   */\n  mstore\n    /* \"#utility.yul\":1733:1735   */\n  0x27\n    /* \"#utility.yul\":1713:1731   */\n  0x24\n  dup3\n  add\n    /* \"#utility.yul\":1706:1736   */\n  mstore\n  0x00\n  dup1\n  mload\n  0x20\n  data_2afdc28fe7f0c63ee1cf40a1f744224559670bc3009ddaade6d745516bcebd21\n  dup4\n  codecopy\n  dup2\n  mload\n  swap2\n  mstore\n    /* \"#utility.yul\":1752:1770   */\n  0x44\n  dup3\n  add\n    /* \"#utility.yul\":1745:1807   */\n  mstore\n  shl(0xc8, 0x662072616e6765)\n    /* \"#utility.yul\":1823:1841   */\n  0x64\n  dup3\n  add\n    /* \"#utility.yul\":1816:1853   */\n  mstore\n    /* \"#utility.yul\":1870:1889   */\n  0x84\n  add\n    /* \"src/CrossChainFacilitator.sol\":5894:5963  require(newFee <= MAX_FEE, \"CrossChainFacilitator: Fee out of range\") */\n  tag_8\n    /* \"#utility.yul\":1492:1895   */\n  jump\n    /* \"src/CrossChainFacilitator.sol\":5894:5963  require(newFee <= MAX_FEE, \"CrossChainFacilitator: Fee out of range\") */\ntag_32:\n    /* \"src/CrossChainFacilitator.sol\":5990:6002  _transferFee */\n  0x02\n  dup1\n  sload\n    /* \"src/CrossChainFacilitator.sol\":6012:6033  _transferFee = newFee */\n  swap1\n  dup3\n  swap1\n  sstore\n    /* \"src/CrossChainFacilitator.sol\":6048:6082  TransferFeeUpdated(oldFee, newFee) */\n  0x40\n  dup1\n  mload\n    /* \"#utility.yul\":2074:2099   */\n  dup3\n  dup2\n  mstore\n    /* \"#utility.yul\":2130:2132   */\n  0x20\n    /* \"#utility.yul\":2115:2133   */\n  dup2\n  add\n    /* \"#utility.yul\":2108:2142   */\n  dup5\n  swap1\n  mstore\n    /* \"src/CrossChainFacilitator.sol\":6048:6082  TransferFeeUpdated(oldFee, newFee) */\n  0x940334a9f5c76529ad9447ac490c2073b06d880209383a3d3e4b0ecab72a0d99\n  swap2\n    /* \"#utility.yul\":2047:2065   */\n  add\n    /* \"src/CrossChainFacilitator.sol\":6048:6082  TransferFeeUpdated(oldFee, newFee) */\n  tag_29\n    /* \"#utility.yul\":1900:2148   */\n  jump\n    /* \"src/CrossChainFacilitator.sol\":6683:6929  function _updateAaveGovernance(address newAaveGovernance) internal {... */\ntag_22:\n    /* \"src/CrossChainFacilitator.sol\":6788:6803  _aaveGovernance */\n  0x03\n  dup1\n  sload\n  sub(shl(0xa0, 0x01), 0x01)\n    /* \"src/CrossChainFacilitator.sol\":6813:6848  _aaveGovernance = newAaveGovernance */\n  dup4\n  dup2\n  and\n  not(sub(shl(0xa0, 0x01), 0x01))\n  dup4\n  and\n  dup2\n  or\n  swap1\n  swap4\n  sstore\n    /* \"src/CrossChainFacilitator.sol\":6863:6922  AaveGovernanceUpdated(oldAaveGovernance, newAaveGovernance) */\n  0x40\n  dup1\n  mload\n    /* \"src/CrossChainFacilitator.sol\":6788:6803  _aaveGovernance */\n  swap2\n  swap1\n  swap3\n  and\n    /* \"#utility.yul\":2365:2399   */\n  dup1\n  dup3\n  mstore\n    /* \"#utility.yul\":2430:2432   */\n  0x20\n    /* \"#utility.yul\":2415:2433   */\n  dup3\n  add\n    /* \"#utility.yul\":2408:2451   */\n  swap4\n  swap1\n  swap4\n  mstore\n    /* \"src/CrossChainFacilitator.sol\":6863:6922  AaveGovernanceUpdated(oldAaveGovernance, newAaveGovernance) */\n  0x52818c14b633bbaafd64ff307400cefea0d830f2f9ee8e8ed1ed04a2baed191e\n  swap2\n    /* \"#utility.yul\":2300:2318   */\n  add\n    /* \"src/CrossChainFacilitator.sol\":6863:6922  AaveGovernanceUpdated(oldAaveGovernance, newAaveGovernance) */\n  tag_29\n    /* \"#utility.yul\":2153:2457   */\n  jump\n    /* \"#utility.yul\":14:191   */\ntag_38:\n    /* \"#utility.yul\":93:106   */\n  dup1\n  mload\n  sub(shl(0xa0, 0x01), 0x01)\n    /* \"#utility.yul\":135:166   */\n  dup2\n  and\n    /* \"#utility.yul\":125:167   */\n  dup2\n  eq\n    /* \"#utility.yul\":115:185   */\n  tag_41\n  jumpi\n    /* \"#utility.yul\":181:182   */\n  0x00\n    /* \"#utility.yul\":178:179   */\n  dup1\n    /* \"#utility.yul\":171:183   */\n  revert\n    /* \"#utility.yul\":115:185   */\ntag_41:\n    /* \"#utility.yul\":14:191   */\n  swap2\n  swap1\n  pop\n  jump\t// out\n    /* \"#utility.yul\":196:870   */\ntag_3:\n    /* \"#utility.yul\":320:326   */\n  0x00\n    /* \"#utility.yul\":328:334   */\n  dup1\n    /* \"#utility.yul\":336:342   */\n  0x00\n    /* \"#utility.yul\":344:350   */\n  dup1\n    /* \"#utility.yul\":352:358   */\n  0x00\n    /* \"#utility.yul\":360:366   */\n  dup1\n    /* \"#utility.yul\":368:374   */\n  0x00\n    /* \"#utility.yul\":421:424   */\n  0xe0\n    /* \"#utility.yul\":409:418   */\n  dup9\n    /* \"#utility.yul\":400:407   */\n  dup11\n    /* \"#utility.yul\":396:419   */\n  sub\n    /* \"#utility.yul\":392:425   */\n  slt\n    /* \"#utility.yul\":389:442   */\n  iszero\n  tag_43\n  jumpi\n    /* \"#utility.yul\":438:439   */\n  0x00\n    /* \"#utility.yul\":435:436   */\n  dup1\n    /* \"#utility.yul\":428:440   */\n  revert\n    /* \"#utility.yul\":389:442   */\ntag_43:\n    /* \"#utility.yul\":461:501   */\n  tag_44\n    /* \"#utility.yul\":491:500   */\n  dup9\n    /* \"#utility.yul\":461:501   */\n  tag_38\n  jump\t// in\ntag_44:\n    /* \"#utility.yul\":451:501   */\n  swap7\n  pop\n    /* \"#utility.yul\":520:569   */\n  tag_45\n    /* \"#utility.yul\":565:567   */\n  0x20\n    /* \"#utility.yul\":554:563   */\n  dup10\n    /* \"#utility.yul\":550:568   */\n  add\n    /* \"#utility.yul\":520:569   */\n  tag_38\n  jump\t// in\ntag_45:\n    /* \"#utility.yul\":510:569   */\n  swap6\n  pop\n    /* \"#utility.yul\":588:637   */\n  tag_46\n    /* \"#utility.yul\":633:635   */\n  0x40\n    /* \"#utility.yul\":622:631   */\n  dup10\n    /* \"#utility.yul\":618:636   */\n  add\n    /* \"#utility.yul\":588:637   */\n  tag_38\n  jump\t// in\ntag_46:\n    /* \"#utility.yul\":578:637   */\n  swap5\n  pop\n    /* \"#utility.yul\":656:705   */\n  tag_47\n    /* \"#utility.yul\":701:703   */\n  0x60\n    /* \"#utility.yul\":690:699   */\n  dup10\n    /* \"#utility.yul\":686:704   */\n  add\n    /* \"#utility.yul\":656:705   */\n  tag_38\n  jump\t// in\ntag_47:\n    /* \"#utility.yul\":646:705   */\n  swap4\n  pop\n    /* \"#utility.yul\":745:748   */\n  0x80\n    /* \"#utility.yul\":734:743   */\n  dup9\n    /* \"#utility.yul\":730:749   */\n  add\n    /* \"#utility.yul\":724:750   */\n  mload\n    /* \"#utility.yul\":714:750   */\n  swap3\n  pop\n    /* \"#utility.yul\":790:793   */\n  0xa0\n    /* \"#utility.yul\":779:788   */\n  dup9\n    /* \"#utility.yul\":775:794   */\n  add\n    /* \"#utility.yul\":769:795   */\n  mload\n    /* \"#utility.yul\":759:795   */\n  swap2\n  pop\n    /* \"#utility.yul\":814:864   */\n  tag_48\n    /* \"#utility.yul\":859:862   */\n  0xc0\n    /* \"#utility.yul\":848:857   */\n  dup10\n    /* \"#utility.yul\":844:863   */\n  add\n    /* \"#utility.yul\":814:864   */\n  tag_38\n  jump\t// in\ntag_48:\n    /* \"#utility.yul\":804:864   */\n  swap1\n  pop\n    /* \"#utility.yul\":196:870   */\n  swap3\n  swap6\n  swap9\n  swap2\n  swap5\n  swap8\n  pop\n  swap3\n  swap6\n  pop\n  jump\t// out\n    /* \"#utility.yul\":2153:2457   */\ntag_39:\n    /* \"src/CrossChainFacilitator.sol\":604:9962  contract CrossChainFacilitator is CCIPReceiver, ICrossChainFacilitator {... */\n  mload(0x80)\n  mload(0xa0)\n  mload(0xc0)\n  codecopy(0x00, dataOffset(sub_0), dataSize(sub_0))\n  0x00\n  assignImmutable(\"0xb2f7ec079805c1e604295599f19cbf6191b8a697343d3ec0f3aa9a3a984f21b3\")\n  0x00\n  assignImmutable(\"0x117e01824b988abbbc4a51afcc11d9fffaeef543591fe94bdcb15c1af7a6cff2\")\n  0x00\n  assignImmutable(\"0x5c4c6aa067b6f8e6cb38e6ab843832a94d1712d661a04d73c517d6a1931a9e5d\")\n  return(0x00, dataSize(sub_0))\nstop\ndata_2afdc28fe7f0c63ee1cf40a1f744224559670bc3009ddaade6d745516bcebd21 43726f7373436861696e466163696c697461746f723a20466565206f7574206f\n\nsub_0: assembly {\n        /* \"src/CrossChainFacilitator.sol\":604:9962  contract CrossChainFacilitator is CCIPReceiver, ICrossChainFacilitator {... */\n      mstore(0x40, 0x80)\n      jumpi(tag_1, lt(calldatasize, 0x04))\n      shr(0xe0, calldataload(0x00))\n      dup1\n      0x9a17d8c1\n      gt\n      tag_19\n      jumpi\n      dup1\n      0xd09f3360\n      gt\n      tag_20\n      jumpi\n      dup1\n      0xd09f3360\n      eq\n      tag_14\n      jumpi\n      dup1\n      0xdc49a07b\n      eq\n      tag_15\n      jumpi\n      dup1\n      0xde4c8817\n      eq\n      tag_16\n      jumpi\n      dup1\n      0xe28178cc\n      eq\n      tag_17\n      jumpi\n      dup1\n      0xfa569274\n      eq\n      tag_18\n      jumpi\n      0x00\n      dup1\n      revert\n    tag_20:\n      dup1\n      0x9a17d8c1\n      eq\n      tag_10\n      jumpi\n      dup1\n      0xb0f479a1\n      eq\n      tag_11\n      jumpi\n      dup1\n      0xb1c660f7\n      eq\n      tag_12\n      jumpi\n      dup1\n      0xbc063e1a\n      eq\n      tag_13\n      jumpi\n      0x00\n      dup1\n      revert\n    tag_19:\n      dup1\n      0x7a5caab3\n      gt\n      tag_21\n      jumpi\n      dup1\n      0x7a5caab3\n      eq\n      tag_6\n      jumpi\n      dup1\n      0x84017e52\n      eq\n      tag_7\n      jumpi\n      dup1\n      0x85572ffb\n      eq\n      tag_8\n      jumpi\n      dup1\n      0x8577a6d5\n      eq\n      tag_9\n      jumpi\n      0x00\n      dup1\n      revert\n    tag_21:\n      dup1\n      0x0123ad04\n      eq\n      tag_2\n      jumpi\n      dup1\n      0x01ffc9a7\n      eq\n      tag_3\n      jumpi\n      dup1\n      0x1fde40bb\n      eq\n      tag_4\n      jumpi\n      dup1\n      0x788a19c7\n      eq\n      tag_5\n      jumpi\n    tag_1:\n      0x00\n      dup1\n      revert\n        /* \"src/CrossChainFacilitator.sol\":2984:3412  function redeemUSDCForGHO(uint64 amount, address to) external {... */\n    tag_2:\n      callvalue\n      dup1\n      iszero\n      tag_22\n      jumpi\n      0x00\n      dup1\n      revert\n    tag_22:\n      pop\n      tag_23\n      tag_24\n      calldatasize\n      0x04\n      tag_25\n      jump\t// in\n    tag_24:\n      tag_26\n      jump\t// in\n    tag_23:\n      stop\n        /* \"lib/contracts-ccip/src/v0.8/ccip/applications/CCIPReceiver.sol\":1397:1606  function supportsInterface(bytes4 interfaceId) public pure virtual override returns (bool) {... */\n    tag_3:\n      callvalue\n      dup1\n      iszero\n      tag_27\n      jumpi\n      0x00\n      dup1\n      revert\n    tag_27:\n      pop\n      tag_28\n      tag_29\n      calldatasize\n      0x04\n      tag_30\n      jump\t// in\n    tag_29:\n      tag_31\n      jump\t// in\n    tag_28:\n      mload(0x40)\n        /* \"#utility.yul\":1106:1120   */\n      swap1\n      iszero\n        /* \"#utility.yul\":1099:1121   */\n      iszero\n        /* \"#utility.yul\":1081:1122   */\n      dup2\n      mstore\n        /* \"#utility.yul\":1069:1071   */\n      0x20\n        /* \"#utility.yul\":1054:1072   */\n      add\n        /* \"lib/contracts-ccip/src/v0.8/ccip/applications/CCIPReceiver.sol\":1397:1606  function supportsInterface(bytes4 interfaceId) public pure virtual override returns (bool) {... */\n    tag_32:\n      mload(0x40)\n      dup1\n      swap2\n      sub\n      swap1\n      return\n        /* \"src/CrossChainFacilitator.sol\":6213:6343  function updateGhoTreasury(address newGhoTreasury) external onlyAaveGovernance {... */\n    tag_4:\n      callvalue\n      dup1\n      iszero\n      tag_34\n      jumpi\n      0x00\n      dup1\n      revert\n    tag_34:\n      pop\n      tag_23\n      tag_36\n      calldatasize\n      0x04\n      tag_37\n      jump\t// in\n    tag_36:\n      tag_38\n      jump\t// in\n        /* \"src/CrossChainFacilitator.sol\":2168:2978  function mintGHOForUSDC(uint256 amount, address to) external {... */\n    tag_5:\n      callvalue\n      dup1\n      iszero\n      tag_39\n      jumpi\n      0x00\n      dup1\n      revert\n    tag_39:\n      pop\n      tag_23\n      tag_41\n      calldatasize\n      0x04\n      tag_42\n      jump\t// in\n    tag_41:\n      tag_43\n      jump\t// in\n        /* \"src/CrossChainFacilitator.sol\":4986:5081  function getMintFee() external view override returns (uint256) {... */\n    tag_6:\n      callvalue\n      dup1\n      iszero\n      tag_44\n      jumpi\n      0x00\n      dup1\n      revert\n    tag_44:\n      pop\n        /* \"src/CrossChainFacilitator.sol\":5066:5074  _mintFee */\n      sload(0x01)\n        /* \"src/CrossChainFacilitator.sol\":4986:5081  function getMintFee() external view override returns (uint256) {... */\n    tag_45:\n      mload(0x40)\n        /* \"#utility.yul\":1851:1876   */\n      swap1\n      dup2\n      mstore\n        /* \"#utility.yul\":1839:1841   */\n      0x20\n        /* \"#utility.yul\":1824:1842   */\n      add\n        /* \"src/CrossChainFacilitator.sol\":4986:5081  function getMintFee() external view override returns (uint256) {... */\n      tag_32\n        /* \"#utility.yul\":1705:1882   */\n      jump\n        /* \"src/CrossChainFacilitator.sol\":5087:5193  function updateMintFee(uint256 newFee) external onlyAaveGovernance {... */\n    tag_7:\n      callvalue\n      dup1\n      iszero\n      tag_49\n      jumpi\n      0x00\n      dup1\n      revert\n    tag_49:\n      pop\n      tag_23\n      tag_51\n      calldatasize\n      0x04\n      tag_52\n      jump\t// in\n    tag_51:\n      tag_53\n      jump\t// in\n        /* \"lib/contracts-ccip/src/v0.8/ccip/applications/CCIPReceiver.sol\":1652:1782  function ccipReceive(Client.Any2EVMMessage calldata message) external virtual override onlyRouter {... */\n    tag_8:\n      callvalue\n      dup1\n      iszero\n      tag_54\n      jumpi\n      0x00\n      dup1\n      revert\n    tag_54:\n      pop\n      tag_23\n      tag_56\n      calldatasize\n      0x04\n      tag_57\n      jump\t// in\n    tag_56:\n      tag_58\n      jump\t// in\n        /* \"src/CrossChainFacilitator.sol\":5711:5825  function updateTransferFee(uint256 newFee) external onlyAaveGovernance {... */\n    tag_9:\n      callvalue\n      dup1\n      iszero\n      tag_59\n      jumpi\n      0x00\n      dup1\n      revert\n    tag_59:\n      pop\n      tag_23\n      tag_61\n      calldatasize\n      0x04\n      tag_52\n      jump\t// in\n    tag_61:\n      tag_62\n      jump\t// in\n        /* \"src/CrossChainFacilitator.sol\":5602:5705  function getTransferFee() external view override returns (uint256) {... */\n    tag_10:\n      callvalue\n      dup1\n      iszero\n      tag_63\n      jumpi\n      0x00\n      dup1\n      revert\n    tag_63:\n      pop\n        /* \"src/CrossChainFacilitator.sol\":5686:5698  _transferFee */\n      sload(0x02)\n        /* \"src/CrossChainFacilitator.sol\":5602:5705  function getTransferFee() external view override returns (uint256) {... */\n      jump(tag_45)\n        /* \"lib/contracts-ccip/src/v0.8/ccip/applications/CCIPReceiver.sol\":2194:2280  function getRouter() public view returns (address) {... */\n    tag_11:\n      callvalue\n      dup1\n      iszero\n      tag_67\n      jumpi\n      0x00\n      dup1\n      revert\n    tag_67:\n      pop\n        /* \"lib/contracts-ccip/src/v0.8/ccip/applications/CCIPReceiver.sol\":2266:2274  i_router */\n      immutable(\"0x5c4c6aa067b6f8e6cb38e6ab843832a94d1712d661a04d73c517d6a1931a9e5d\")\n        /* \"lib/contracts-ccip/src/v0.8/ccip/applications/CCIPReceiver.sol\":2194:2280  function getRouter() public view returns (address) {... */\n    tag_68:\n      mload(0x40)\n      sub(shl(0xa0, 0x01), 0x01)\n        /* \"#utility.yul\":2743:2775   */\n      swap1\n      swap2\n      and\n        /* \"#utility.yul\":2725:2776   */\n      dup2\n      mstore\n        /* \"#utility.yul\":2713:2715   */\n      0x20\n        /* \"#utility.yul\":2698:2716   */\n      add\n        /* \"lib/contracts-ccip/src/v0.8/ccip/applications/CCIPReceiver.sol\":2194:2280  function getRouter() public view returns (address) {... */\n      tag_32\n        /* \"#utility.yul\":2579:2782   */\n      jump\n        /* \"src/CrossChainFacilitator.sol\":745:781  IGhoToken public immutable GHO_TOKEN */\n    tag_12:\n      callvalue\n      dup1\n      iszero\n      tag_72\n      jumpi\n      0x00\n      dup1\n      revert\n    tag_72:\n      pop\n      tag_68\n      immutable(\"0x117e01824b988abbbc4a51afcc11d9fffaeef543591fe94bdcb15c1af7a6cff2\")\n      dup2\n      jump\n        /* \"src/CrossChainFacilitator.sol\":855:892  uint256 public constant MAX_FEE = 1e4 */\n    tag_13:\n      callvalue\n      dup1\n      iszero\n      tag_77\n      jumpi\n      0x00\n      dup1\n      revert\n    tag_77:\n      pop\n      tag_45\n        /* \"src/CrossChainFacilitator.sol\":889:892  1e4 */\n      0x2710\n        /* \"src/CrossChainFacilitator.sol\":855:892  uint256 public constant MAX_FEE = 1e4 */\n      dup2\n      jump\n        /* \"src/CrossChainFacilitator.sol\":3418:4837  function sendGHOCrossChain(uint64 chainId, uint256 amount, address to)... */\n    tag_14:\n      tag_45\n      tag_82\n      calldatasize\n      0x04\n      tag_83\n      jump\t// in\n    tag_82:\n      tag_84\n      jump\t// in\n        /* \"src/CrossChainFacilitator.sol\":6935:7197  function distributeFeesToTreasury() external override onlyAaveGovernance {... */\n    tag_15:\n      callvalue\n      dup1\n      iszero\n      tag_87\n      jumpi\n      0x00\n      dup1\n      revert\n    tag_87:\n      pop\n      tag_23\n      tag_89\n      jump\t// in\n        /* \"src/CrossChainFacilitator.sol\":7203:7368  function approveCrossChainReceiver(uint64 chainId, address ccReceiver) external onlyAaveGovernance {... */\n    tag_16:\n      callvalue\n      dup1\n      iszero\n      tag_90\n      jumpi\n      0x00\n      dup1\n      revert\n    tag_90:\n      pop\n      tag_23\n      tag_92\n      calldatasize\n      0x04\n      tag_25\n      jump\t// in\n    tag_92:\n      tag_93\n      jump\t// in\n        /* \"src/CrossChainFacilitator.sol\":6349:6452  function getGhoTreasury() external view override returns (address) {... */\n    tag_17:\n      callvalue\n      dup1\n      iszero\n      tag_94\n      jumpi\n      0x00\n      dup1\n      revert\n    tag_94:\n      pop\n        /* \"src/CrossChainFacilitator.sol\":6407:6414  address */\n      0x00\n        /* \"src/CrossChainFacilitator.sol\":6433:6445  _ghoTreasury */\n      sload\n      sub(shl(0xa0, 0x01), 0x01)\n      and\n        /* \"src/CrossChainFacilitator.sol\":6349:6452  function getGhoTreasury() external view override returns (address) {... */\n      jump(tag_68)\n        /* \"src/CrossChainFacilitator.sol\":814:848  IERC20 public immutable USDC_TOKEN */\n    tag_18:\n      callvalue\n      dup1\n      iszero\n      tag_98\n      jumpi\n      0x00\n      dup1\n      revert\n    tag_98:\n      pop\n      tag_68\n      immutable(\"0xb2f7ec079805c1e604295599f19cbf6191b8a697343d3ec0f3aa9a3a984f21b3\")\n      dup2\n      jump\n        /* \"src/CrossChainFacilitator.sol\":2984:3412  function redeemUSDCForGHO(uint64 amount, address to) external {... */\n    tag_26:\n        /* \"src/CrossChainFacilitator.sol\":3118:3175  GHO_TOKEN.transferFrom(msg.sender, address(this), amount) */\n      mload(0x40)\n      shl(0xe0, 0x23b872dd)\n      dup2\n      mstore\n        /* \"src/CrossChainFacilitator.sol\":3141:3151  msg.sender */\n      caller\n        /* \"src/CrossChainFacilitator.sol\":3118:3175  GHO_TOKEN.transferFrom(msg.sender, address(this), amount) */\n      0x04\n      dup3\n      add\n        /* \"#utility.yul\":4048:4082   */\n      mstore\n        /* \"src/CrossChainFacilitator.sol\":3161:3165  this */\n      address\n        /* \"#utility.yul\":4098:4116   */\n      0x24\n      dup3\n      add\n        /* \"#utility.yul\":4091:4134   */\n      mstore\n      sub(shl(0x40, 0x01), 0x01)\n        /* \"#utility.yul\":4170:4201   */\n      dup4\n      and\n        /* \"#utility.yul\":4150:4168   */\n      0x44\n      dup3\n      add\n        /* \"#utility.yul\":4143:4202   */\n      mstore\n        /* \"src/CrossChainFacilitator.sol\":3118:3127  GHO_TOKEN */\n      immutable(\"0x117e01824b988abbbc4a51afcc11d9fffaeef543591fe94bdcb15c1af7a6cff2\")\n      sub(shl(0xa0, 0x01), 0x01)\n        /* \"src/CrossChainFacilitator.sol\":3118:3140  GHO_TOKEN.transferFrom */\n      and\n      swap1\n      0x23b872dd\n      swap1\n        /* \"#utility.yul\":3983:4001   */\n      0x64\n      add\n        /* \"src/CrossChainFacilitator.sol\":3118:3175  GHO_TOKEN.transferFrom(msg.sender, address(this), amount) */\n      0x20\n      mload(0x40)\n      dup1\n      dup4\n      sub\n      dup2\n      0x00\n      dup8\n      gas\n      call\n      iszero\n      dup1\n      iszero\n      tag_107\n      jumpi\n      returndatasize\n      0x00\n      dup1\n      returndatacopy\n      revert(0x00, returndatasize)\n    tag_107:\n      pop\n      pop\n      pop\n      pop\n      mload(0x40)\n      returndatasize\n      not(0x1f)\n      0x1f\n      dup3\n      add\n      and\n      dup3\n      add\n      dup1\n      0x40\n      mstore\n      pop\n      dup2\n      add\n      swap1\n      tag_108\n      swap2\n      swap1\n      tag_109\n      jump\t// in\n    tag_108:\n        /* \"src/CrossChainFacilitator.sol\":3097:3261  require(... */\n      tag_110\n      jumpi\n      mload(0x40)\n      shl(0xe5, 0x461bcd)\n      dup2\n      mstore\n      0x04\n      add\n      tag_111\n      swap1\n      tag_112\n      jump\t// in\n    tag_111:\n      mload(0x40)\n      dup1\n      swap2\n      sub\n      swap1\n      revert\n    tag_110:\n        /* \"src/CrossChainFacilitator.sol\":3312:3343  USDC_TOKEN.transfer(to, amount) */\n      mload(0x40)\n      shl(0xe0, 0xa9059cbb)\n      dup2\n      mstore\n      sub(shl(0xa0, 0x01), 0x01)\n        /* \"#utility.yul\":5115:5147   */\n      dup3\n      dup2\n      and\n        /* \"src/CrossChainFacilitator.sol\":3312:3343  USDC_TOKEN.transfer(to, amount) */\n      0x04\n      dup4\n      add\n        /* \"#utility.yul\":5097:5148   */\n      mstore\n      sub(shl(0x40, 0x01), 0x01)\n        /* \"#utility.yul\":5184:5215   */\n      dup5\n      and\n        /* \"#utility.yul\":5164:5182   */\n      0x24\n      dup4\n      add\n        /* \"#utility.yul\":5157:5216   */\n      mstore\n        /* \"src/CrossChainFacilitator.sol\":3312:3322  USDC_TOKEN */\n      immutable(\"0xb2f7ec079805c1e604295599f19cbf6191b8a697343d3ec0f3aa9a3a984f21b3\")\n        /* \"src/CrossChainFacilitator.sol\":3312:3331  USDC_TOKEN.transfer */\n      and\n      swap1\n      0xa9059cbb\n      swap1\n        /* \"#utility.yul\":5070:5088   */\n      0x44\n      add\n        /* \"src/CrossChainFacilitator.sol\":3312:3343  USDC_TOKEN.transfer(to, amount) */\n      0x20\n      mload(0x40)\n      dup1\n      dup4\n      sub\n      dup2\n      0x00\n      dup8\n      gas\n      call\n      iszero\n      dup1\n      iszero\n      tag_116\n      jumpi\n      returndatasize\n      0x00\n      dup1\n      returndatacopy\n      revert(0x00, returndatasize)\n    tag_116:\n      pop\n      pop\n      pop\n      pop\n      mload(0x40)\n      returndatasize\n      not(0x1f)\n      0x1f\n      dup3\n      add\n      and\n      dup3\n      add\n      dup1\n      0x40\n      mstore\n      pop\n      dup2\n      add\n      swap1\n      tag_117\n      swap2\n      swap1\n      tag_109\n      jump\t// in\n    tag_117:\n        /* \"src/CrossChainFacilitator.sol\":3304:3405  require(USDC_TOKEN.transfer(to, amount), \"CrossChainFacilitator: Failed to transfer USDC to address\") */\n      tag_118\n      jumpi\n      mload(0x40)\n      shl(0xe5, 0x461bcd)\n      dup2\n      mstore\n        /* \"#utility.yul\":5429:5431   */\n      0x20\n        /* \"src/CrossChainFacilitator.sol\":3304:3405  require(USDC_TOKEN.transfer(to, amount), \"CrossChainFacilitator: Failed to transfer USDC to address\") */\n      0x04\n      dup3\n      add\n        /* \"#utility.yul\":5411:5432   */\n      mstore\n        /* \"#utility.yul\":5468:5470   */\n      0x39\n        /* \"#utility.yul\":5448:5466   */\n      0x24\n      dup3\n      add\n        /* \"#utility.yul\":5441:5471   */\n      mstore\n        /* \"#utility.yul\":5507:5541   */\n      0x43726f7373436861696e466163696c697461746f723a204661696c656420746f\n        /* \"#utility.yul\":5487:5505   */\n      0x44\n      dup3\n      add\n        /* \"#utility.yul\":5480:5542   */\n      mstore\n        /* \"#utility.yul\":5578:5605   */\n      0x207472616e73666572205553444320746f206164647265737300000000000000\n        /* \"#utility.yul\":5558:5576   */\n      0x64\n      dup3\n      add\n        /* \"#utility.yul\":5551:5606   */\n      mstore\n        /* \"#utility.yul\":5623:5642   */\n      0x84\n      add\n        /* \"src/CrossChainFacilitator.sol\":3304:3405  require(USDC_TOKEN.transfer(to, amount), \"CrossChainFacilitator: Failed to transfer USDC to address\") */\n      tag_111\n        /* \"#utility.yul\":5227:5648   */\n      jump\n        /* \"src/CrossChainFacilitator.sol\":3304:3405  require(USDC_TOKEN.transfer(to, amount), \"CrossChainFacilitator: Failed to transfer USDC to address\") */\n    tag_118:\n        /* \"src/CrossChainFacilitator.sol\":2984:3412  function redeemUSDCForGHO(uint64 amount, address to) external {... */\n      pop\n      pop\n      jump\t// out\n        /* \"lib/contracts-ccip/src/v0.8/ccip/applications/CCIPReceiver.sol\":1397:1606  function supportsInterface(bytes4 interfaceId) public pure virtual override returns (bool) {... */\n    tag_31:\n        /* \"lib/contracts-ccip/src/v0.8/ccip/applications/CCIPReceiver.sol\":1482:1486  bool */\n      0x00\n      not(sub(shl(0xe0, 0x01), 0x01))\n        /* \"lib/contracts-ccip/src/v0.8/ccip/applications/CCIPReceiver.sol\":1501:1557  interfaceId == type(IAny2EVMMessageReceiver).interfaceId */\n      dup3\n      and\n      shl(0xe0, 0x85572ffb)\n      eq\n      dup1\n        /* \"lib/contracts-ccip/src/v0.8/ccip/applications/CCIPReceiver.sol\":1501:1601  interfaceId == type(IAny2EVMMessageReceiver).interfaceId || interfaceId == type(IERC165).interfaceId */\n      tag_122\n      jumpi\n      pop\n      not(sub(shl(0xe0, 0x01), 0x01))\n        /* \"lib/contracts-ccip/src/v0.8/ccip/applications/CCIPReceiver.sol\":1561:1601  interfaceId == type(IERC165).interfaceId */\n      dup3\n      and\n      shl(0xe0, 0x01ffc9a7)\n      eq\n        /* \"lib/contracts-ccip/src/v0.8/ccip/applications/CCIPReceiver.sol\":1501:1601  interfaceId == type(IAny2EVMMessageReceiver).interfaceId || interfaceId == type(IERC165).interfaceId */\n    tag_122:\n        /* \"lib/contracts-ccip/src/v0.8/ccip/applications/CCIPReceiver.sol\":1494:1601  return interfaceId == type(IAny2EVMMessageReceiver).interfaceId || interfaceId == type(IERC165).interfaceId */\n      swap3\n        /* \"lib/contracts-ccip/src/v0.8/ccip/applications/CCIPReceiver.sol\":1397:1606  function supportsInterface(bytes4 interfaceId) public pure virtual override returns (bool) {... */\n      swap2\n      pop\n      pop\n      jump\t// out\n        /* \"src/CrossChainFacilitator.sol\":6213:6343  function updateGhoTreasury(address newGhoTreasury) external onlyAaveGovernance {... */\n    tag_38:\n        /* \"src/CrossChainFacilitator.sol\":1475:1490  _aaveGovernance */\n      and(sub(shl(0xa0, 0x01), 0x01), sload(0x03))\n        /* \"src/CrossChainFacilitator.sol\":1461:1471  msg.sender */\n      caller\n        /* \"src/CrossChainFacilitator.sol\":1461:1490  msg.sender == _aaveGovernance */\n      eq\n        /* \"src/CrossChainFacilitator.sol\":1453:1548  require(msg.sender == _aaveGovernance, \"CrossChainFacilitator: Only Aave Governance can call.\") */\n      tag_124\n      jumpi\n      mload(0x40)\n      shl(0xe5, 0x461bcd)\n      dup2\n      mstore\n      0x04\n      add\n      tag_111\n      swap1\n      tag_126\n      jump\t// in\n    tag_124:\n        /* \"src/CrossChainFacilitator.sol\":6302:6336  _updateGhoTreasury(newGhoTreasury) */\n      tag_128\n        /* \"src/CrossChainFacilitator.sol\":6321:6335  newGhoTreasury */\n      dup2\n        /* \"src/CrossChainFacilitator.sol\":6302:6320  _updateGhoTreasury */\n      tag_129\n        /* \"src/CrossChainFacilitator.sol\":6302:6336  _updateGhoTreasury(newGhoTreasury) */\n      jump\t// in\n    tag_128:\n        /* \"src/CrossChainFacilitator.sol\":6213:6343  function updateGhoTreasury(address newGhoTreasury) external onlyAaveGovernance {... */\n      pop\n      jump\t// out\n        /* \"src/CrossChainFacilitator.sol\":2168:2978  function mintGHOForUSDC(uint256 amount, address to) external {... */\n    tag_43:\n        /* \"src/CrossChainFacilitator.sol\":2306:2364  USDC_TOKEN.transferFrom(msg.sender, address(this), amount) */\n      mload(0x40)\n      shl(0xe0, 0x23b872dd)\n      dup2\n      mstore\n        /* \"src/CrossChainFacilitator.sol\":2330:2340  msg.sender */\n      caller\n        /* \"src/CrossChainFacilitator.sol\":2306:2364  USDC_TOKEN.transferFrom(msg.sender, address(this), amount) */\n      0x04\n      dup3\n      add\n        /* \"#utility.yul\":6315:6349   */\n      mstore\n        /* \"src/CrossChainFacilitator.sol\":2350:2354  this */\n      address\n        /* \"#utility.yul\":6365:6383   */\n      0x24\n      dup3\n      add\n        /* \"#utility.yul\":6358:6401   */\n      mstore\n        /* \"#utility.yul\":6417:6435   */\n      0x44\n      dup2\n      add\n        /* \"#utility.yul\":6410:6444   */\n      dup4\n      swap1\n      mstore\n        /* \"src/CrossChainFacilitator.sol\":2306:2316  USDC_TOKEN */\n      immutable(\"0xb2f7ec079805c1e604295599f19cbf6191b8a697343d3ec0f3aa9a3a984f21b3\")\n      sub(shl(0xa0, 0x01), 0x01)\n        /* \"src/CrossChainFacilitator.sol\":2306:2329  USDC_TOKEN.transferFrom */\n      and\n      swap1\n      0x23b872dd\n      swap1\n        /* \"#utility.yul\":6250:6268   */\n      0x64\n      add\n        /* \"src/CrossChainFacilitator.sol\":2306:2364  USDC_TOKEN.transferFrom(msg.sender, address(this), amount) */\n      0x20\n      mload(0x40)\n      dup1\n      dup4\n      sub\n      dup2\n      0x00\n      dup8\n      gas\n      call\n      iszero\n      dup1\n      iszero\n      tag_134\n      jumpi\n      returndatasize\n      0x00\n      dup1\n      returndatacopy\n      revert(0x00, returndatasize)\n    tag_134:\n      pop\n      pop\n      pop\n      pop\n      mload(0x40)\n      returndatasize\n      not(0x1f)\n      0x1f\n      dup3\n      add\n      and\n      dup3\n      add\n      dup1\n      0x40\n      mstore\n      pop\n      dup2\n      add\n      swap1\n      tag_135\n      swap2\n      swap1\n      tag_109\n      jump\t// in\n    tag_135:\n        /* \"src/CrossChainFacilitator.sol\":2285:2451  require(... */\n      tag_136\n      jumpi\n      mload(0x40)\n      shl(0xe5, 0x461bcd)\n      dup2\n      mstore\n        /* \"#utility.yul\":6657:6659   */\n      0x20\n        /* \"src/CrossChainFacilitator.sol\":2285:2451  require(... */\n      0x04\n      dup3\n      add\n        /* \"#utility.yul\":6639:6660   */\n      mstore\n        /* \"#utility.yul\":6696:6698   */\n      0x3d\n        /* \"#utility.yul\":6676:6694   */\n      0x24\n      dup3\n      add\n        /* \"#utility.yul\":6669:6699   */\n      mstore\n        /* \"#utility.yul\":6735:6769   */\n      0x43726f7373436861696e466163696c697461746f723a204661696c656420746f\n        /* \"#utility.yul\":6715:6733   */\n      0x44\n      dup3\n      add\n        /* \"#utility.yul\":6708:6770   */\n      mstore\n        /* \"#utility.yul\":6806:6837   */\n      0x207472616e73666572205553444320746f20666163696c697461746f72000000\n        /* \"#utility.yul\":6786:6804   */\n      0x64\n      dup3\n      add\n        /* \"#utility.yul\":6779:6838   */\n      mstore\n        /* \"#utility.yul\":6855:6874   */\n      0x84\n      add\n        /* \"src/CrossChainFacilitator.sol\":2285:2451  require(... */\n      tag_111\n        /* \"#utility.yul\":6455:6880   */\n      jump\n        /* \"src/CrossChainFacilitator.sol\":2285:2451  require(... */\n    tag_136:\n        /* \"src/CrossChainFacilitator.sol\":2501:2516  uint256 mintFee */\n      0x00\n        /* \"src/CrossChainFacilitator.sol\":2519:2539  _calcMintFee(amount) */\n      tag_139\n        /* \"src/CrossChainFacilitator.sol\":2532:2538  amount */\n      dup4\n        /* \"src/CrossChainFacilitator.sol\":2519:2531  _calcMintFee */\n      tag_140\n        /* \"src/CrossChainFacilitator.sol\":2519:2539  _calcMintFee(amount) */\n      jump\t// in\n    tag_139:\n        /* \"src/CrossChainFacilitator.sol\":2501:2539  uint256 mintFee = _calcMintFee(amount) */\n      swap1\n      pop\n        /* \"src/CrossChainFacilitator.sol\":2644:2660  amount + mintFee */\n      tag_141\n        /* \"src/CrossChainFacilitator.sol\":2501:2539  uint256 mintFee = _calcMintFee(amount) */\n      dup2\n        /* \"src/CrossChainFacilitator.sol\":2644:2650  amount */\n      dup5\n        /* \"src/CrossChainFacilitator.sol\":2644:2660  amount + mintFee */\n      tag_142\n      jump\t// in\n    tag_141:\n        /* \"src/CrossChainFacilitator.sol\":2628:2640  ghoBalance() */\n      tag_143\n        /* \"src/CrossChainFacilitator.sol\":2628:2638  ghoBalance */\n      tag_144\n        /* \"src/CrossChainFacilitator.sol\":2628:2640  ghoBalance() */\n      jump\t// in\n    tag_143:\n        /* \"src/CrossChainFacilitator.sol\":2628:2660  ghoBalance() >= amount + mintFee */\n      lt\n        /* \"src/CrossChainFacilitator.sol\":2624:2778  if (ghoBalance() >= amount + mintFee) {... */\n      tag_145\n      jumpi\n        /* \"src/CrossChainFacilitator.sol\":2676:2706  GHO_TOKEN.transfer(to, amount) */\n      mload(0x40)\n      shl(0xe0, 0xa9059cbb)\n      dup2\n      mstore\n      sub(shl(0xa0, 0x01), 0x01)\n        /* \"#utility.yul\":7304:7336   */\n      dup4\n      dup2\n      and\n        /* \"src/CrossChainFacilitator.sol\":2676:2706  GHO_TOKEN.transfer(to, amount) */\n      0x04\n      dup4\n      add\n        /* \"#utility.yul\":7286:7337   */\n      mstore\n        /* \"#utility.yul\":7353:7371   */\n      0x24\n      dup3\n      add\n        /* \"#utility.yul\":7346:7380   */\n      dup6\n      swap1\n      mstore\n        /* \"src/CrossChainFacilitator.sol\":2676:2685  GHO_TOKEN */\n      immutable(\"0x117e01824b988abbbc4a51afcc11d9fffaeef543591fe94bdcb15c1af7a6cff2\")\n        /* \"src/CrossChainFacilitator.sol\":2676:2694  GHO_TOKEN.transfer */\n      and\n      swap1\n      0xa9059cbb\n      swap1\n        /* \"#utility.yul\":7259:7277   */\n      0x44\n      add\n        /* \"src/CrossChainFacilitator.sol\":2676:2706  GHO_TOKEN.transfer(to, amount) */\n      0x20\n      mload(0x40)\n      dup1\n      dup4\n      sub\n      dup2\n      0x00\n      dup8\n      gas\n      call\n      iszero\n      dup1\n      iszero\n      tag_149\n      jumpi\n      returndatasize\n      0x00\n      dup1\n      returndatacopy\n      revert(0x00, returndatasize)\n    tag_149:\n      pop\n      pop\n      pop\n      pop\n      mload(0x40)\n      returndatasize\n      not(0x1f)\n      0x1f\n      dup3\n      add\n      and\n      dup3\n      add\n      dup1\n      0x40\n      mstore\n      pop\n      dup2\n      add\n      swap1\n      tag_150\n      swap2\n      swap1\n      tag_109\n      jump\t// in\n    tag_150:\n      pop\n        /* \"src/CrossChainFacilitator.sol\":2740:2747  mintFee */\n      dup1\n        /* \"src/CrossChainFacilitator.sol\":2720:2736  _ghoTreasuryFees */\n      0x04\n      0x00\n        /* \"src/CrossChainFacilitator.sol\":2720:2747  _ghoTreasuryFees += mintFee */\n      dup3\n      dup3\n      sload\n      tag_151\n      swap2\n      swap1\n      tag_142\n      jump\t// in\n    tag_151:\n      swap1\n      swap2\n      sstore\n      pop\n      pop\n      pop\n      pop\n      pop\n        /* \"src/CrossChainFacilitator.sol\":2168:2978  function mintGHOForUSDC(uint256 amount, address to) external {... */\n      jump\t// out\n        /* \"src/CrossChainFacilitator.sol\":2624:2778  if (ghoBalance() >= amount + mintFee) {... */\n    tag_145:\n        /* \"src/CrossChainFacilitator.sol\":2819:2845  GHO_TOKEN.mint(to, amount) */\n      mload(0x40)\n      shl(0xe0, 0x40c10f19)\n      dup2\n      mstore\n      sub(shl(0xa0, 0x01), 0x01)\n        /* \"#utility.yul\":7304:7336   */\n      dup4\n      dup2\n      and\n        /* \"src/CrossChainFacilitator.sol\":2819:2845  GHO_TOKEN.mint(to, amount) */\n      0x04\n      dup4\n      add\n        /* \"#utility.yul\":7286:7337   */\n      mstore\n        /* \"#utility.yul\":7353:7371   */\n      0x24\n      dup3\n      add\n        /* \"#utility.yul\":7346:7380   */\n      dup6\n      swap1\n      mstore\n        /* \"src/CrossChainFacilitator.sol\":2819:2828  GHO_TOKEN */\n      immutable(\"0x117e01824b988abbbc4a51afcc11d9fffaeef543591fe94bdcb15c1af7a6cff2\")\n        /* \"src/CrossChainFacilitator.sol\":2819:2833  GHO_TOKEN.mint */\n      and\n      swap1\n      0x40c10f19\n      swap1\n        /* \"#utility.yul\":7259:7277   */\n      0x44\n      add\n        /* \"src/CrossChainFacilitator.sol\":2819:2845  GHO_TOKEN.mint(to, amount) */\n      0x00\n      mload(0x40)\n      dup1\n      dup4\n      sub\n      dup2\n      0x00\n      dup8\n      dup1\n      extcodesize\n      iszero\n      dup1\n      iszero\n      tag_153\n      jumpi\n      0x00\n      dup1\n      revert\n    tag_153:\n      pop\n      gas\n      call\n      iszero\n      dup1\n      iszero\n      tag_155\n      jumpi\n      returndatasize\n      0x00\n      dup1\n      returndatacopy\n      revert(0x00, returndatasize)\n    tag_155:\n      pop\n      pop\n        /* \"src/CrossChainFacilitator.sol\":2896:2934  GHO_TOKEN.mint(address(this), mintFee) */\n      mload(0x40)\n      shl(0xe0, 0x40c10f19)\n      dup2\n      mstore\n        /* \"src/CrossChainFacilitator.sol\":2919:2923  this */\n      address\n        /* \"src/CrossChainFacilitator.sol\":2896:2934  GHO_TOKEN.mint(address(this), mintFee) */\n      0x04\n      dup3\n      add\n        /* \"#utility.yul\":7286:7337   */\n      mstore\n        /* \"#utility.yul\":7353:7371   */\n      0x24\n      dup2\n      add\n        /* \"#utility.yul\":7346:7380   */\n      dup5\n      swap1\n      mstore\n        /* \"src/CrossChainFacilitator.sol\":2896:2905  GHO_TOKEN */\n      immutable(\"0x117e01824b988abbbc4a51afcc11d9fffaeef543591fe94bdcb15c1af7a6cff2\")\n      sub(shl(0xa0, 0x01), 0x01)\n        /* \"src/CrossChainFacilitator.sol\":2896:2910  GHO_TOKEN.mint */\n      and\n      swap3\n      pop\n      0x40c10f19\n      swap2\n      pop\n        /* \"#utility.yul\":7259:7277   */\n      0x44\n      add\n        /* \"src/CrossChainFacilitator.sol\":2896:2934  GHO_TOKEN.mint(address(this), mintFee) */\n      0x00\n      mload(0x40)\n      dup1\n      dup4\n      sub\n      dup2\n      0x00\n      dup8\n      dup1\n      extcodesize\n      iszero\n      dup1\n      iszero\n      tag_157\n      jumpi\n      0x00\n      dup1\n      revert\n    tag_157:\n      pop\n      gas\n      call\n      iszero\n      dup1\n      iszero\n      tag_159\n      jumpi\n      returndatasize\n      0x00\n      dup1\n      returndatacopy\n      revert(0x00, returndatasize)\n    tag_159:\n      pop\n      pop\n      pop\n      pop\n        /* \"src/CrossChainFacilitator.sol\":2964:2971  mintFee */\n      dup1\n        /* \"src/CrossChainFacilitator.sol\":2944:2960  _ghoTreasuryFees */\n      0x04\n      0x00\n        /* \"src/CrossChainFacilitator.sol\":2944:2971  _ghoTreasuryFees += mintFee */\n      dup3\n      dup3\n      sload\n      tag_151\n      swap2\n      swap1\n      tag_142\n      jump\t// in\n        /* \"src/CrossChainFacilitator.sol\":5087:5193  function updateMintFee(uint256 newFee) external onlyAaveGovernance {... */\n    tag_53:\n        /* \"src/CrossChainFacilitator.sol\":1475:1490  _aaveGovernance */\n      and(sub(shl(0xa0, 0x01), 0x01), sload(0x03))\n        /* \"src/CrossChainFacilitator.sol\":1461:1471  msg.sender */\n      caller\n        /* \"src/CrossChainFacilitator.sol\":1461:1490  msg.sender == _aaveGovernance */\n      eq\n        /* \"src/CrossChainFacilitator.sol\":1453:1548  require(msg.sender == _aaveGovernance, \"CrossChainFacilitator: Only Aave Governance can call.\") */\n      tag_163\n      jumpi\n      mload(0x40)\n      shl(0xe5, 0x461bcd)\n      dup2\n      mstore\n      0x04\n      add\n      tag_111\n      swap1\n      tag_126\n      jump\t// in\n    tag_163:\n        /* \"src/CrossChainFacilitator.sol\":5164:5186  _updateMintFee(newFee) */\n      tag_128\n        /* \"src/CrossChainFacilitator.sol\":5179:5185  newFee */\n      dup2\n        /* \"src/CrossChainFacilitator.sol\":5164:5178  _updateMintFee */\n      tag_167\n        /* \"src/CrossChainFacilitator.sol\":5164:5186  _updateMintFee(newFee) */\n      jump\t// in\n        /* \"lib/contracts-ccip/src/v0.8/ccip/applications/CCIPReceiver.sol\":1652:1782  function ccipReceive(Client.Any2EVMMessage calldata message) external virtual override onlyRouter {... */\n    tag_58:\n        /* \"lib/contracts-ccip/src/v0.8/ccip/applications/CCIPReceiver.sol\":2412:2422  msg.sender */\n      caller\n      sub(shl(0xa0, 0x01), 0x01)\n        /* \"lib/contracts-ccip/src/v0.8/ccip/applications/CCIPReceiver.sol\":2434:2442  i_router */\n      immutable(\"0x5c4c6aa067b6f8e6cb38e6ab843832a94d1712d661a04d73c517d6a1931a9e5d\")\n        /* \"lib/contracts-ccip/src/v0.8/ccip/applications/CCIPReceiver.sol\":2412:2443  msg.sender != address(i_router) */\n      and\n      eq\n        /* \"lib/contracts-ccip/src/v0.8/ccip/applications/CCIPReceiver.sol\":2408:2477  if (msg.sender != address(i_router)) revert InvalidRouter(msg.sender) */\n      tag_169\n      jumpi\n        /* \"lib/contracts-ccip/src/v0.8/ccip/applications/CCIPReceiver.sol\":2452:2477  InvalidRouter(msg.sender) */\n      mload(0x40)\n      shl(0xe2, 0x35fdcccd)\n      dup2\n      mstore\n        /* \"lib/contracts-ccip/src/v0.8/ccip/applications/CCIPReceiver.sol\":2466:2476  msg.sender */\n      caller\n        /* \"lib/contracts-ccip/src/v0.8/ccip/applications/CCIPReceiver.sol\":2452:2477  InvalidRouter(msg.sender) */\n      0x04\n      dup3\n      add\n        /* \"#utility.yul\":2725:2776   */\n      mstore\n        /* \"#utility.yul\":2698:2716   */\n      0x24\n      add\n        /* \"lib/contracts-ccip/src/v0.8/ccip/applications/CCIPReceiver.sol\":2452:2477  InvalidRouter(msg.sender) */\n      tag_111\n        /* \"#utility.yul\":2579:2782   */\n      jump\n        /* \"lib/contracts-ccip/src/v0.8/ccip/applications/CCIPReceiver.sol\":2408:2477  if (msg.sender != address(i_router)) revert InvalidRouter(msg.sender) */\n    tag_169:\n        /* \"lib/contracts-ccip/src/v0.8/ccip/applications/CCIPReceiver.sol\":1756:1777  _ccipReceive(message) */\n      tag_128\n      tag_173\n        /* \"lib/contracts-ccip/src/v0.8/ccip/applications/CCIPReceiver.sol\":1769:1776  message */\n      dup3\n        /* \"lib/contracts-ccip/src/v0.8/ccip/applications/CCIPReceiver.sol\":1756:1777  _ccipReceive(message) */\n      tag_174\n      jump\t// in\n    tag_173:\n        /* \"lib/contracts-ccip/src/v0.8/ccip/applications/CCIPReceiver.sol\":1756:1768  _ccipReceive */\n      tag_175\n        /* \"lib/contracts-ccip/src/v0.8/ccip/applications/CCIPReceiver.sol\":1756:1777  _ccipReceive(message) */\n      jump\t// in\n        /* \"src/CrossChainFacilitator.sol\":5711:5825  function updateTransferFee(uint256 newFee) external onlyAaveGovernance {... */\n    tag_62:\n        /* \"src/CrossChainFacilitator.sol\":1475:1490  _aaveGovernance */\n      and(sub(shl(0xa0, 0x01), 0x01), sload(0x03))\n        /* \"src/CrossChainFacilitator.sol\":1461:1471  msg.sender */\n      caller\n        /* \"src/CrossChainFacilitator.sol\":1461:1490  msg.sender == _aaveGovernance */\n      eq\n        /* \"src/CrossChainFacilitator.sol\":1453:1548  require(msg.sender == _aaveGovernance, \"CrossChainFacilitator: Only Aave Governance can call.\") */\n      tag_177\n      jumpi\n      mload(0x40)\n      shl(0xe5, 0x461bcd)\n      dup2\n      mstore\n      0x04\n      add\n      tag_111\n      swap1\n      tag_126\n      jump\t// in\n    tag_177:\n        /* \"src/CrossChainFacilitator.sol\":5792:5818  _updateTransferFee(newFee) */\n      tag_128\n        /* \"src/CrossChainFacilitator.sol\":5811:5817  newFee */\n      dup2\n        /* \"src/CrossChainFacilitator.sol\":5792:5810  _updateTransferFee */\n      tag_181\n        /* \"src/CrossChainFacilitator.sol\":5792:5818  _updateTransferFee(newFee) */\n      jump\t// in\n        /* \"src/CrossChainFacilitator.sol\":3418:4837  function sendGHOCrossChain(uint64 chainId, uint256 amount, address to)... */\n    tag_84:\n        /* \"src/CrossChainFacilitator.sol\":3539:3556  bytes32 messageId */\n      0x00\n        /* \"src/CrossChainFacilitator.sol\":3617:3636  uint256 transferFee */\n      dup1\n        /* \"src/CrossChainFacilitator.sol\":3639:3663  _calcTransferFee(amount) */\n      tag_185\n        /* \"src/CrossChainFacilitator.sol\":3656:3662  amount */\n      dup5\n        /* \"src/CrossChainFacilitator.sol\":3639:3655  _calcTransferFee */\n      tag_186\n        /* \"src/CrossChainFacilitator.sol\":3639:3663  _calcTransferFee(amount) */\n      jump\t// in\n    tag_185:\n        /* \"src/CrossChainFacilitator.sol\":3617:3663  uint256 transferFee = _calcTransferFee(amount) */\n      swap1\n      pop\n      sub(shl(0xa0, 0x01), 0x01)\n        /* \"src/CrossChainFacilitator.sol\":3747:3756  GHO_TOKEN */\n      immutable(\"0x117e01824b988abbbc4a51afcc11d9fffaeef543591fe94bdcb15c1af7a6cff2\")\n        /* \"src/CrossChainFacilitator.sol\":3747:3769  GHO_TOKEN.transferFrom */\n      and\n      0x23b872dd\n        /* \"src/CrossChainFacilitator.sol\":3770:3780  msg.sender */\n      caller\n        /* \"src/CrossChainFacilitator.sol\":3790:3794  this */\n      address\n        /* \"src/CrossChainFacilitator.sol\":3797:3817  amount + transferFee */\n      tag_187\n        /* \"src/CrossChainFacilitator.sol\":3617:3663  uint256 transferFee = _calcTransferFee(amount) */\n      dup6\n        /* \"src/CrossChainFacilitator.sol\":3797:3803  amount */\n      dup10\n        /* \"src/CrossChainFacilitator.sol\":3797:3817  amount + transferFee */\n      tag_142\n      jump\t// in\n    tag_187:\n        /* \"src/CrossChainFacilitator.sol\":3747:3818  GHO_TOKEN.transferFrom(msg.sender, address(this), amount + transferFee) */\n      mload(0x40)\n      not(sub(shl(0xe0, 0x01), 0x01))\n      0xe0\n      dup7\n      swap1\n      shl\n      and\n      dup2\n      mstore\n      sub(shl(0xa0, 0x01), 0x01)\n        /* \"#utility.yul\":6333:6348   */\n      swap4\n      dup5\n      and\n        /* \"src/CrossChainFacilitator.sol\":3747:3818  GHO_TOKEN.transferFrom(msg.sender, address(this), amount + transferFee) */\n      0x04\n      dup3\n      add\n        /* \"#utility.yul\":6315:6349   */\n      mstore\n        /* \"#utility.yul\":6385:6400   */\n      swap3\n      swap1\n      swap2\n      and\n        /* \"#utility.yul\":6365:6383   */\n      0x24\n      dup4\n      add\n        /* \"#utility.yul\":6358:6401   */\n      mstore\n        /* \"#utility.yul\":6417:6435   */\n      0x44\n      dup3\n      add\n        /* \"#utility.yul\":6410:6444   */\n      mstore\n        /* \"#utility.yul\":6250:6268   */\n      0x64\n      add\n        /* \"src/CrossChainFacilitator.sol\":3747:3818  GHO_TOKEN.transferFrom(msg.sender, address(this), amount + transferFee) */\n      0x20\n      mload(0x40)\n      dup1\n      dup4\n      sub\n      dup2\n      0x00\n      dup8\n      gas\n      call\n      iszero\n      dup1\n      iszero\n      tag_190\n      jumpi\n      returndatasize\n      0x00\n      dup1\n      returndatacopy\n      revert(0x00, returndatasize)\n    tag_190:\n      pop\n      pop\n      pop\n      pop\n      mload(0x40)\n      returndatasize\n      not(0x1f)\n      0x1f\n      dup3\n      add\n      and\n      dup3\n      add\n      dup1\n      0x40\n      mstore\n      pop\n      dup2\n      add\n      swap1\n      tag_191\n      swap2\n      swap1\n      tag_109\n      jump\t// in\n    tag_191:\n        /* \"src/CrossChainFacilitator.sol\":3726:3904  require(... */\n      tag_192\n      jumpi\n      mload(0x40)\n      shl(0xe5, 0x461bcd)\n      dup2\n      mstore\n      0x04\n      add\n      tag_111\n      swap1\n      tag_112\n      jump\t// in\n    tag_192:\n      sub(shl(0x40, 0x01), 0x01)\n        /* \"src/CrossChainFacilitator.sol\":4014:4050  approvedCrossChainReceivers[chainId] */\n      dup6\n      and\n        /* \"src/CrossChainFacilitator.sol\":3994:4011  address _receiver */\n      0x00\n        /* \"src/CrossChainFacilitator.sol\":4014:4050  approvedCrossChainReceivers[chainId] */\n      swap1\n      dup2\n      mstore\n        /* \"src/CrossChainFacilitator.sol\":4014:4041  approvedCrossChainReceivers */\n      0x05\n        /* \"src/CrossChainFacilitator.sol\":4014:4050  approvedCrossChainReceivers[chainId] */\n      0x20\n      mstore\n      0x40\n      swap1\n      keccak256\n      sload\n      sub(shl(0xa0, 0x01), 0x01)\n      and\n      dup1\n        /* \"src/CrossChainFacilitator.sol\":4060:4149  require(_receiver != address(0), \"CrossChainFacilitator: Target chain is not supported.\") */\n      tag_194\n      jumpi\n      mload(0x40)\n      shl(0xe5, 0x461bcd)\n      dup2\n      mstore\n        /* \"#utility.yul\":11076:11078   */\n      0x20\n        /* \"src/CrossChainFacilitator.sol\":4060:4149  require(_receiver != address(0), \"CrossChainFacilitator: Target chain is not supported.\") */\n      0x04\n      dup3\n      add\n        /* \"#utility.yul\":11058:11079   */\n      mstore\n        /* \"#utility.yul\":11115:11117   */\n      0x35\n        /* \"#utility.yul\":11095:11113   */\n      0x24\n      dup3\n      add\n        /* \"#utility.yul\":11088:11118   */\n      mstore\n        /* \"#utility.yul\":11154:11188   */\n      0x43726f7373436861696e466163696c697461746f723a20546172676574206368\n        /* \"#utility.yul\":11134:11152   */\n      0x44\n      dup3\n      add\n        /* \"#utility.yul\":11127:11189   */\n      mstore\n      shl(0x59, 0x30b4b71034b9903737ba1039bab83837b93a32b217)\n        /* \"#utility.yul\":11205:11223   */\n      0x64\n      dup3\n      add\n        /* \"#utility.yul\":11198:11249   */\n      mstore\n        /* \"#utility.yul\":11266:11285   */\n      0x84\n      add\n        /* \"src/CrossChainFacilitator.sol\":4060:4149  require(_receiver != address(0), \"CrossChainFacilitator: Target chain is not supported.\") */\n      tag_111\n        /* \"#utility.yul\":10874:11291   */\n      jump\n        /* \"src/CrossChainFacilitator.sol\":4060:4149  require(_receiver != address(0), \"CrossChainFacilitator: Target chain is not supported.\") */\n    tag_194:\n        /* \"src/CrossChainFacilitator.sol\":4240:4285  CrossChainGHOTransfer(amount, to, msg.sender) */\n      0x40\n      dup1\n      mload\n      0x60\n      dup2\n      add\n      dup3\n      mstore\n      dup7\n      dup2\n      mstore\n      sub(shl(0xa0, 0x01), 0x01)\n      dup7\n      and\n      0x20\n      dup3\n      add\n      mstore\n        /* \"src/CrossChainFacilitator.sol\":4274:4284  msg.sender */\n      caller\n        /* \"src/CrossChainFacilitator.sol\":4240:4285  CrossChainGHOTransfer(amount, to, msg.sender) */\n      swap2\n      dup2\n      add\n      swap2\n      swap1\n      swap2\n      mstore\n        /* \"src/CrossChainFacilitator.sol\":4199:4237  CrossChainGHOTransfer memory _transfer */\n      0x00\n        /* \"src/CrossChainFacilitator.sol\":4372:4423  _buildCCIPMessage(_receiver, _transfer, address(0)) */\n      tag_197\n        /* \"src/CrossChainFacilitator.sol\":4390:4399  _receiver */\n      dup4\n        /* \"src/CrossChainFacilitator.sol\":4240:4285  CrossChainGHOTransfer(amount, to, msg.sender) */\n      dup4\n        /* \"src/CrossChainFacilitator.sol\":4199:4237  CrossChainGHOTransfer memory _transfer */\n      dup4\n        /* \"src/CrossChainFacilitator.sol\":4372:4389  _buildCCIPMessage */\n      tag_198\n        /* \"src/CrossChainFacilitator.sol\":4372:4423  _buildCCIPMessage(_receiver, _transfer, address(0)) */\n      jump\t// in\n    tag_197:\n        /* \"src/CrossChainFacilitator.sol\":4326:4423  Client.EVM2AnyMessage memory evm2AnyMessage = _buildCCIPMessage(_receiver, _transfer, address(0)) */\n      swap1\n      pop\n        /* \"src/CrossChainFacilitator.sol\":4463:4483  IRouterClient router */\n      0x00\n        /* \"src/CrossChainFacilitator.sol\":4500:4504  this */\n      address\n      sub(shl(0xa0, 0x01), 0x01)\n        /* \"src/CrossChainFacilitator.sol\":4500:4514  this.getRouter */\n      and\n      0xb0f479a1\n        /* \"src/CrossChainFacilitator.sol\":4500:4516  this.getRouter() */\n      mload(0x40)\n      dup2\n      0xffffffff\n      and\n      0xe0\n      shl\n      dup2\n      mstore\n      0x04\n      add\n      0x20\n      mload(0x40)\n      dup1\n      dup4\n      sub\n      dup2\n      dup7\n      gas\n      staticcall\n      iszero\n      dup1\n      iszero\n      tag_200\n      jumpi\n      returndatasize\n      0x00\n      dup1\n      returndatacopy\n      revert(0x00, returndatasize)\n    tag_200:\n      pop\n      pop\n      pop\n      pop\n      mload(0x40)\n      returndatasize\n      not(0x1f)\n      0x1f\n      dup3\n      add\n      and\n      dup3\n      add\n      dup1\n      0x40\n      mstore\n      pop\n      dup2\n      add\n      swap1\n      tag_201\n      swap2\n      swap1\n      tag_202\n      jump\t// in\n    tag_201:\n        /* \"src/CrossChainFacilitator.sol\":4463:4517  IRouterClient router = IRouterClient(this.getRouter()) */\n      swap1\n      pop\n        /* \"src/CrossChainFacilitator.sol\":4528:4540  uint256 fees */\n      0x00\n        /* \"src/CrossChainFacilitator.sol\":4543:4549  router */\n      dup2\n      sub(shl(0xa0, 0x01), 0x01)\n        /* \"src/CrossChainFacilitator.sol\":4543:4556  router.getFee */\n      and\n      0x20487ded\n        /* \"src/CrossChainFacilitator.sol\":4557:4564  chainId */\n      dup12\n        /* \"src/CrossChainFacilitator.sol\":4566:4580  evm2AnyMessage */\n      dup6\n        /* \"src/CrossChainFacilitator.sol\":4543:4581  router.getFee(chainId, evm2AnyMessage) */\n      mload(0x40)\n      dup4\n      0xffffffff\n      and\n      0xe0\n      shl\n      dup2\n      mstore\n      0x04\n      add\n      tag_203\n      swap3\n      swap2\n      swap1\n      tag_204\n      jump\t// in\n    tag_203:\n      0x20\n      mload(0x40)\n      dup1\n      dup4\n      sub\n      dup2\n      dup7\n      gas\n      staticcall\n      iszero\n      dup1\n      iszero\n      tag_206\n      jumpi\n      returndatasize\n      0x00\n      dup1\n      returndatacopy\n      revert(0x00, returndatasize)\n    tag_206:\n      pop\n      pop\n      pop\n      pop\n      mload(0x40)\n      returndatasize\n      not(0x1f)\n      0x1f\n      dup3\n      add\n      and\n      dup3\n      add\n      dup1\n      0x40\n      mstore\n      pop\n      dup2\n      add\n      swap1\n      tag_207\n      swap2\n      swap1\n      tag_208\n      jump\t// in\n    tag_207:\n        /* \"src/CrossChainFacilitator.sol\":4528:4581  uint256 fees = router.getFee(chainId, evm2AnyMessage) */\n      swap1\n      pop\n        /* \"src/CrossChainFacilitator.sol\":4607:4616  msg.value */\n      callvalue\n        /* \"src/CrossChainFacilitator.sol\":4599:4603  fees */\n      dup2\n        /* \"src/CrossChainFacilitator.sol\":4599:4616  fees <= msg.value */\n      gt\n      iszero\n        /* \"src/CrossChainFacilitator.sol\":4591:4677  require(fees <= msg.value, \"CrossChainFacilitator: Not enough balance to cover fees.\") */\n      tag_209\n      jumpi\n      mload(0x40)\n      shl(0xe5, 0x461bcd)\n      dup2\n      mstore\n        /* \"#utility.yul\":13978:13980   */\n      0x20\n        /* \"src/CrossChainFacilitator.sol\":4591:4677  require(fees <= msg.value, \"CrossChainFacilitator: Not enough balance to cover fees.\") */\n      0x04\n      dup3\n      add\n        /* \"#utility.yul\":13960:13981   */\n      mstore\n        /* \"#utility.yul\":14017:14019   */\n      0x38\n        /* \"#utility.yul\":13997:14015   */\n      0x24\n      dup3\n      add\n        /* \"#utility.yul\":13990:14020   */\n      mstore\n        /* \"#utility.yul\":14056:14090   */\n      0x43726f7373436861696e466163696c697461746f723a204e6f7420656e6f7567\n        /* \"#utility.yul\":14036:14054   */\n      0x44\n      dup3\n      add\n        /* \"#utility.yul\":14029:14091   */\n      mstore\n        /* \"#utility.yul\":14127:14153   */\n      0x682062616c616e636520746f20636f76657220666565732e0000000000000000\n        /* \"#utility.yul\":14107:14125   */\n      0x64\n      dup3\n      add\n        /* \"#utility.yul\":14100:14154   */\n      mstore\n        /* \"#utility.yul\":14171:14190   */\n      0x84\n      add\n        /* \"src/CrossChainFacilitator.sol\":4591:4677  require(fees <= msg.value, \"CrossChainFacilitator: Not enough balance to cover fees.\") */\n      tag_111\n        /* \"#utility.yul\":13776:14196   */\n      jump\n        /* \"src/CrossChainFacilitator.sol\":4591:4677  require(fees <= msg.value, \"CrossChainFacilitator: Not enough balance to cover fees.\") */\n    tag_209:\n        /* \"src/CrossChainFacilitator.sol\":4700:4753  router.ccipSend{value: fees}(chainId, evm2AnyMessage) */\n      mload(0x40)\n      shl(0xe0, 0x96f4e9f9)\n      dup2\n      mstore\n      sub(shl(0xa0, 0x01), 0x01)\n        /* \"src/CrossChainFacilitator.sol\":4700:4715  router.ccipSend */\n      dup4\n      and\n      swap1\n      0x96f4e9f9\n      swap1\n        /* \"src/CrossChainFacilitator.sol\":4723:4727  fees */\n      dup4\n      swap1\n        /* \"src/CrossChainFacilitator.sol\":4700:4753  router.ccipSend{value: fees}(chainId, evm2AnyMessage) */\n      tag_212\n      swap1\n        /* \"src/CrossChainFacilitator.sol\":4729:4736  chainId */\n      dup15\n      swap1\n        /* \"src/CrossChainFacilitator.sol\":4738:4752  evm2AnyMessage */\n      dup9\n      swap1\n        /* \"src/CrossChainFacilitator.sol\":4700:4753  router.ccipSend{value: fees}(chainId, evm2AnyMessage) */\n      0x04\n      add\n      tag_204\n      jump\t// in\n    tag_212:\n      0x20\n      mload(0x40)\n      dup1\n      dup4\n      sub\n      dup2\n      dup6\n      dup9\n      gas\n      call\n      iszero\n      dup1\n      iszero\n      tag_214\n      jumpi\n      returndatasize\n      0x00\n      dup1\n      returndatacopy\n      revert(0x00, returndatasize)\n    tag_214:\n      pop\n      pop\n      pop\n      pop\n      pop\n      mload(0x40)\n      returndatasize\n      not(0x1f)\n      0x1f\n      dup3\n      add\n      and\n      dup3\n      add\n      dup1\n      0x40\n      mstore\n      pop\n      dup2\n      add\n      swap1\n      tag_215\n      swap2\n      swap1\n      tag_208\n      jump\t// in\n    tag_215:\n        /* \"src/CrossChainFacilitator.sol\":4769:4830  MessageSent(messageId, chainId, to, amount, address(0), fees) */\n      0x40\n      dup1\n      mload\n      sub(shl(0xa0, 0x01), 0x01)\n        /* \"#utility.yul\":14677:14692   */\n      dup12\n      and\n        /* \"#utility.yul\":14659:14693   */\n      dup2\n      mstore\n        /* \"#utility.yul\":14724:14726   */\n      0x20\n        /* \"#utility.yul\":14709:14727   */\n      dup2\n      add\n        /* \"#utility.yul\":14702:14736   */\n      dup13\n      swap1\n      mstore\n      0x00\n        /* \"#utility.yul\":14752:14770   */\n      dup2\n      dup4\n      add\n        /* \"#utility.yul\":14745:14788   */\n      mstore\n        /* \"#utility.yul\":14819:14821   */\n      0x60\n        /* \"#utility.yul\":14804:14822   */\n      dup2\n      add\n        /* \"#utility.yul\":14797:14831   */\n      dup5\n      swap1\n      mstore\n        /* \"src/CrossChainFacilitator.sol\":4769:4830  MessageSent(messageId, chainId, to, amount, address(0), fees) */\n      swap1\n      mload\n        /* \"src/CrossChainFacilitator.sol\":4688:4753  messageId = router.ccipSend{value: fees}(chainId, evm2AnyMessage) */\n      swap2\n      swap9\n      pop\n      sub(shl(0x40, 0x01), 0x01)\n        /* \"src/CrossChainFacilitator.sol\":4769:4830  MessageSent(messageId, chainId, to, amount, address(0), fees) */\n      dup13\n      and\n      swap2\n        /* \"src/CrossChainFacilitator.sol\":4688:4753  messageId = router.ccipSend{value: fees}(chainId, evm2AnyMessage) */\n      dup10\n      swap2\n        /* \"src/CrossChainFacilitator.sol\":4769:4830  MessageSent(messageId, chainId, to, amount, address(0), fees) */\n      0xeea8a479f07983d1364c4330c9bf3442a1cd421b79b16909bcc1867188ea676b\n      swap2\n      swap1\n      dup2\n      swap1\n      sub\n        /* \"#utility.yul\":14608:14611   */\n      0x80\n        /* \"src/CrossChainFacilitator.sol\":4769:4830  MessageSent(messageId, chainId, to, amount, address(0), fees) */\n      add\n      swap1\n      log3\n        /* \"src/CrossChainFacilitator.sol\":3562:4837  {... */\n      pop\n      pop\n      pop\n      pop\n      pop\n      pop\n        /* \"src/CrossChainFacilitator.sol\":3418:4837  function sendGHOCrossChain(uint64 chainId, uint256 amount, address to)... */\n      swap4\n      swap3\n      pop\n      pop\n      pop\n      jump\t// out\n        /* \"src/CrossChainFacilitator.sol\":6935:7197  function distributeFeesToTreasury() external override onlyAaveGovernance {... */\n    tag_89:\n        /* \"src/CrossChainFacilitator.sol\":1475:1490  _aaveGovernance */\n      and(sub(shl(0xa0, 0x01), 0x01), sload(0x03))\n        /* \"src/CrossChainFacilitator.sol\":1461:1471  msg.sender */\n      caller\n        /* \"src/CrossChainFacilitator.sol\":1461:1490  msg.sender == _aaveGovernance */\n      eq\n        /* \"src/CrossChainFacilitator.sol\":1453:1548  require(msg.sender == _aaveGovernance, \"CrossChainFacilitator: Only Aave Governance can call.\") */\n      tag_220\n      jumpi\n      mload(0x40)\n      shl(0xe5, 0x461bcd)\n      dup2\n      mstore\n      0x04\n      add\n      tag_111\n      swap1\n      tag_126\n      jump\t// in\n    tag_220:\n        /* \"src/CrossChainFacilitator.sol\":7037:7049  _ghoTreasury */\n      sload(0x00)\n        /* \"src/CrossChainFacilitator.sol\":7051:7067  _ghoTreasuryFees */\n      0x04\n      dup1\n      sload\n        /* \"src/CrossChainFacilitator.sol\":7018:7068  GHO_TOKEN.transfer(_ghoTreasury, _ghoTreasuryFees) */\n      mload(0x40)\n      shl(0xe0, 0xa9059cbb)\n      dup2\n      mstore\n      sub(shl(0xa0, 0x01), 0x01)\n        /* \"src/CrossChainFacilitator.sol\":7037:7049  _ghoTreasury */\n      swap4\n      dup5\n      and\n        /* \"src/CrossChainFacilitator.sol\":7018:7068  GHO_TOKEN.transfer(_ghoTreasury, _ghoTreasuryFees) */\n      swap3\n      dup2\n      add\n        /* \"#utility.yul\":7286:7337   */\n      swap3\n      swap1\n      swap3\n      mstore\n        /* \"#utility.yul\":7353:7371   */\n      0x24\n      dup3\n      add\n        /* \"#utility.yul\":7346:7380   */\n      mstore\n        /* \"src/CrossChainFacilitator.sol\":7018:7027  GHO_TOKEN */\n      immutable(\"0x117e01824b988abbbc4a51afcc11d9fffaeef543591fe94bdcb15c1af7a6cff2\")\n        /* \"src/CrossChainFacilitator.sol\":7018:7036  GHO_TOKEN.transfer */\n      swap1\n      swap2\n      and\n      swap1\n      0xa9059cbb\n      swap1\n        /* \"#utility.yul\":7259:7277   */\n      0x44\n      add\n        /* \"src/CrossChainFacilitator.sol\":7018:7068  GHO_TOKEN.transfer(_ghoTreasury, _ghoTreasuryFees) */\n      0x20\n      mload(0x40)\n      dup1\n      dup4\n      sub\n      dup2\n      0x00\n      dup8\n      gas\n      call\n      iszero\n      dup1\n      iszero\n      tag_225\n      jumpi\n      returndatasize\n      0x00\n      dup1\n      returndatacopy\n      revert(0x00, returndatasize)\n    tag_225:\n      pop\n      pop\n      pop\n      pop\n      mload(0x40)\n      returndatasize\n      not(0x1f)\n      0x1f\n      dup3\n      add\n      and\n      dup3\n      add\n      dup1\n      0x40\n      mstore\n      pop\n      dup2\n      add\n      swap1\n      tag_226\n      swap2\n      swap1\n      tag_109\n      jump\t// in\n    tag_226:\n      pop\n        /* \"src/CrossChainFacilitator.sol\":7097:7098  0 */\n      0x00\n        /* \"src/CrossChainFacilitator.sol\":7078:7094  _ghoTreasuryFees */\n      0x04\n        /* \"src/CrossChainFacilitator.sol\":7078:7098  _ghoTreasuryFees = 0 */\n      dup2\n      swap1\n      sstore\n        /* \"src/CrossChainFacilitator.sol\":7139:7151  _ghoTreasury */\n      dup1\n      sload\n        /* \"src/CrossChainFacilitator.sol\":7113:7190  FeesDistributedToTreasury(_ghoTreasury, address(GHO_TOKEN), _ghoTreasuryFees) */\n      mload(0x40)\n      sub(shl(0xa0, 0x01), 0x01)\n        /* \"src/CrossChainFacilitator.sol\":7161:7170  GHO_TOKEN */\n      immutable(\"0x117e01824b988abbbc4a51afcc11d9fffaeef543591fe94bdcb15c1af7a6cff2\")\n        /* \"src/CrossChainFacilitator.sol\":7113:7190  FeesDistributedToTreasury(_ghoTreasury, address(GHO_TOKEN), _ghoTreasuryFees) */\n      dup2\n      and\n      swap4\n        /* \"src/CrossChainFacilitator.sol\":7139:7151  _ghoTreasury */\n      swap3\n      and\n      swap2\n        /* \"src/CrossChainFacilitator.sol\":7113:7190  FeesDistributedToTreasury(_ghoTreasury, address(GHO_TOKEN), _ghoTreasuryFees) */\n      0xb29fcda740927812f5a71075b62e132bead3769a455319c29b9a1cc461a65475\n      swap2\n      tag_227\n      swap2\n        /* \"#utility.yul\":1851:1876   */\n      dup2\n      mstore\n        /* \"#utility.yul\":1839:1841   */\n      0x20\n        /* \"#utility.yul\":1824:1842   */\n      add\n      swap1\n        /* \"#utility.yul\":1705:1882   */\n      jump\n        /* \"src/CrossChainFacilitator.sol\":7113:7190  FeesDistributedToTreasury(_ghoTreasury, address(GHO_TOKEN), _ghoTreasuryFees) */\n    tag_227:\n      mload(0x40)\n      dup1\n      swap2\n      sub\n      swap1\n      log3\n        /* \"src/CrossChainFacilitator.sol\":6935:7197  function distributeFeesToTreasury() external override onlyAaveGovernance {... */\n      jump\t// out\n        /* \"src/CrossChainFacilitator.sol\":7203:7368  function approveCrossChainReceiver(uint64 chainId, address ccReceiver) external onlyAaveGovernance {... */\n    tag_93:\n        /* \"src/CrossChainFacilitator.sol\":1475:1490  _aaveGovernance */\n      and(sub(shl(0xa0, 0x01), 0x01), sload(0x03))\n        /* \"src/CrossChainFacilitator.sol\":1461:1471  msg.sender */\n      caller\n        /* \"src/CrossChainFacilitator.sol\":1461:1490  msg.sender == _aaveGovernance */\n      eq\n        /* \"src/CrossChainFacilitator.sol\":1453:1548  require(msg.sender == _aaveGovernance, \"CrossChainFacilitator: Only Aave Governance can call.\") */\n      tag_229\n      jumpi\n      mload(0x40)\n      shl(0xe5, 0x461bcd)\n      dup2\n      mstore\n      0x04\n      add\n      tag_111\n      swap1\n      tag_126\n      jump\t// in\n    tag_229:\n      sub(shl(0x40, 0x01), 0x01)\n        /* \"src/CrossChainFacilitator.sol\":7312:7348  approvedCrossChainReceivers[chainId] */\n      swap2\n      swap1\n      swap2\n      and\n      0x00\n      swap1\n      dup2\n      mstore\n        /* \"src/CrossChainFacilitator.sol\":7312:7339  approvedCrossChainReceivers */\n      0x05\n        /* \"src/CrossChainFacilitator.sol\":7312:7348  approvedCrossChainReceivers[chainId] */\n      0x20\n      mstore\n      0x40\n      swap1\n      keccak256\n        /* \"src/CrossChainFacilitator.sol\":7312:7361  approvedCrossChainReceivers[chainId] = ccReceiver */\n      dup1\n      sload\n      not(sub(shl(0xa0, 0x01), 0x01))\n      and\n      sub(shl(0xa0, 0x01), 0x01)\n      swap1\n      swap3\n      and\n      swap2\n      swap1\n      swap2\n      or\n      swap1\n      sstore\n        /* \"src/CrossChainFacilitator.sol\":7203:7368  function approveCrossChainReceiver(uint64 chainId, address ccReceiver) external onlyAaveGovernance {... */\n      jump\t// out\n        /* \"src/CrossChainFacilitator.sol\":6458:6677  function _updateGhoTreasury(address newGhoTreasury) internal {... */\n    tag_129:\n        /* \"src/CrossChainFacilitator.sol\":6529:6551  address oldGhoTreasury */\n      0x00\n        /* \"src/CrossChainFacilitator.sol\":6554:6566  _ghoTreasury */\n      dup1\n      sload\n      sub(shl(0xa0, 0x01), 0x01)\n        /* \"src/CrossChainFacilitator.sol\":6576:6605  _ghoTreasury = newGhoTreasury */\n      dup4\n      dup2\n      and\n      not(sub(shl(0xa0, 0x01), 0x01))\n      dup4\n      and\n      dup2\n      or\n      dup5\n      sstore\n        /* \"src/CrossChainFacilitator.sol\":6620:6670  GhoTreasuryUpdated(oldGhoTreasury, newGhoTreasury) */\n      mload(0x40)\n        /* \"src/CrossChainFacilitator.sol\":6554:6566  _ghoTreasury */\n      swap2\n      swap1\n      swap3\n      and\n      swap3\n      dup4\n      swap2\n        /* \"src/CrossChainFacilitator.sol\":6620:6670  GhoTreasuryUpdated(oldGhoTreasury, newGhoTreasury) */\n      0x13f4413d8d93a259bd6c10f35095371f30ed50f81a73407e52e9f02000d5d16b\n      swap2\n        /* \"src/CrossChainFacilitator.sol\":6529:6551  address oldGhoTreasury */\n      swap1\n        /* \"src/CrossChainFacilitator.sol\":6620:6670  GhoTreasuryUpdated(oldGhoTreasury, newGhoTreasury) */\n      log3\n        /* \"src/CrossChainFacilitator.sol\":6519:6677  {... */\n      pop\n        /* \"src/CrossChainFacilitator.sol\":6458:6677  function _updateGhoTreasury(address newGhoTreasury) internal {... */\n      pop\n      jump\t// out\n        /* \"src/CrossChainFacilitator.sol\":4859:4980  function _calcMintFee(uint256 amount) internal view returns (uint256) {... */\n    tag_140:\n        /* \"src/CrossChainFacilitator.sol\":4920:4927  uint256 */\n      0x00\n        /* \"src/CrossChainFacilitator.sol\":4946:4973  amount.percentMul(_mintFee) */\n      tag_122\n        /* \"src/CrossChainFacilitator.sol\":4964:4972  _mintFee */\n      sload(0x01)\n        /* \"src/CrossChainFacilitator.sol\":4946:4952  amount */\n      dup4\n        /* \"src/CrossChainFacilitator.sol\":4946:4963  amount.percentMul */\n      tag_236\n      swap1\n        /* \"src/CrossChainFacilitator.sol\":4946:4973  amount.percentMul(_mintFee) */\n      swap2\n      swap1\n      0xffffffff\n      and\n      jump\t// in\n        /* \"src/CrossChainFacilitator.sol\":6095:6207  function ghoBalance() internal view returns (uint256) {... */\n    tag_144:\n        /* \"src/CrossChainFacilitator.sol\":6166:6200  GHO_TOKEN.balanceOf(address(this)) */\n      mload(0x40)\n      shl(0xe0, 0x70a08231)\n      dup2\n      mstore\n        /* \"src/CrossChainFacilitator.sol\":6194:6198  this */\n      address\n        /* \"src/CrossChainFacilitator.sol\":6166:6200  GHO_TOKEN.balanceOf(address(this)) */\n      0x04\n      dup3\n      add\n        /* \"#utility.yul\":2725:2776   */\n      mstore\n        /* \"src/CrossChainFacilitator.sol\":6140:6147  uint256 */\n      0x00\n      swap1\n        /* \"src/CrossChainFacilitator.sol\":6166:6175  GHO_TOKEN */\n      immutable(\"0x117e01824b988abbbc4a51afcc11d9fffaeef543591fe94bdcb15c1af7a6cff2\")\n      sub(shl(0xa0, 0x01), 0x01)\n        /* \"src/CrossChainFacilitator.sol\":6166:6185  GHO_TOKEN.balanceOf */\n      and\n      swap1\n      0x70a08231\n      swap1\n        /* \"#utility.yul\":2698:2716   */\n      0x24\n      add\n        /* \"src/CrossChainFacilitator.sol\":6166:6200  GHO_TOKEN.balanceOf(address(this)) */\n      0x20\n      mload(0x40)\n      dup1\n      dup4\n      sub\n      dup2\n      dup7\n      gas\n      staticcall\n      iszero\n      dup1\n      iszero\n      tag_240\n      jumpi\n      returndatasize\n      0x00\n      dup1\n      returndatacopy\n      revert(0x00, returndatasize)\n    tag_240:\n      pop\n      pop\n      pop\n      pop\n      mload(0x40)\n      returndatasize\n      not(0x1f)\n      0x1f\n      dup3\n      add\n      and\n      dup3\n      add\n      dup1\n      0x40\n      mstore\n      pop\n      dup2\n      add\n      swap1\n      tag_241\n      swap2\n      swap1\n      tag_208\n      jump\t// in\n    tag_241:\n        /* \"src/CrossChainFacilitator.sol\":6159:6200  return GHO_TOKEN.balanceOf(address(this)) */\n      swap1\n      pop\n        /* \"src/CrossChainFacilitator.sol\":6095:6207  function ghoBalance() internal view returns (uint256) {... */\n      swap1\n      jump\t// out\n        /* \"src/CrossChainFacilitator.sol\":5199:5441  function _updateMintFee(uint256 newFee) internal {... */\n    tag_167:\n        /* \"src/CrossChainFacilitator.sol\":889:892  1e4 */\n      0x2710\n        /* \"src/CrossChainFacilitator.sol\":5266:5272  newFee */\n      dup2\n        /* \"src/CrossChainFacilitator.sol\":5266:5283  newFee <= MAX_FEE */\n      gt\n      iszero\n        /* \"src/CrossChainFacilitator.sol\":5258:5327  require(newFee <= MAX_FEE, \"CrossChainFacilitator: Fee out of range\") */\n      tag_243\n      jumpi\n      mload(0x40)\n      shl(0xe5, 0x461bcd)\n      dup2\n      mstore\n      0x04\n      add\n      tag_111\n      swap1\n      tag_245\n      jump\t// in\n    tag_243:\n        /* \"src/CrossChainFacilitator.sol\":5354:5362  _mintFee */\n      0x01\n      dup1\n      sload\n        /* \"src/CrossChainFacilitator.sol\":5372:5389  _mintFee = newFee */\n      swap1\n      dup3\n      swap1\n      sstore\n        /* \"src/CrossChainFacilitator.sol\":5404:5434  MintFeeUpdated(oldFee, newFee) */\n      0x40\n      dup1\n      mload\n        /* \"#utility.yul\":15424:15449   */\n      dup3\n      dup2\n      mstore\n        /* \"#utility.yul\":15480:15482   */\n      0x20\n        /* \"#utility.yul\":15465:15483   */\n      dup2\n      add\n        /* \"#utility.yul\":15458:15492   */\n      dup5\n      swap1\n      mstore\n        /* \"src/CrossChainFacilitator.sol\":5404:5434  MintFeeUpdated(oldFee, newFee) */\n      0x7864bf708cae822050e5f50960a0de31bd6fe7620a8f67a48582fb95f29c114a\n      swap2\n        /* \"#utility.yul\":15397:15415   */\n      add\n        /* \"src/CrossChainFacilitator.sol\":5404:5434  MintFeeUpdated(oldFee, newFee) */\n    tag_246:\n      mload(0x40)\n      dup1\n      swap2\n      sub\n      swap1\n      log1\n        /* \"src/CrossChainFacilitator.sol\":5248:5441  {... */\n      pop\n        /* \"src/CrossChainFacilitator.sol\":5199:5441  function _updateMintFee(uint256 newFee) internal {... */\n      pop\n      jump\t// out\n        /* \"src/CrossChainFacilitator.sol\":8921:9960  function _ccipReceive(Client.Any2EVMMessage memory any2EvmMessage) internal override {... */\n    tag_175:\n        /* \"src/CrossChainFacilitator.sol\":9168:9182  any2EvmMessage */\n      dup1\n        /* \"src/CrossChainFacilitator.sol\":9168:9189  any2EvmMessage.sender */\n      0x40\n      add\n      mload\n        /* \"src/CrossChainFacilitator.sol\":9157:9201  abi.decode(any2EvmMessage.sender, (address)) */\n      dup1\n      0x20\n      add\n      swap1\n      mload\n      dup2\n      add\n      swap1\n      tag_249\n      swap2\n      swap1\n      tag_202\n      jump\t// in\n    tag_249:\n        /* \"src/CrossChainFacilitator.sol\":9118:9152  any2EvmMessage.sourceChainSelector */\n      0x20\n      dup1\n      dup4\n      add\n      mload\n      sub(shl(0x40, 0x01), 0x01)\n        /* \"src/CrossChainFacilitator.sol\":9090:9153  approvedCrossChainReceivers[any2EvmMessage.sourceChainSelector] */\n      and\n      0x00\n      swap1\n      dup2\n      mstore\n        /* \"src/CrossChainFacilitator.sol\":9090:9117  approvedCrossChainReceivers */\n      0x05\n        /* \"src/CrossChainFacilitator.sol\":9090:9153  approvedCrossChainReceivers[any2EvmMessage.sourceChainSelector] */\n      swap1\n      swap2\n      mstore\n      0x40\n      swap1\n      keccak256\n      sload\n      sub(shl(0xa0, 0x01), 0x01)\n      swap1\n      dup2\n      and\n        /* \"src/CrossChainFacilitator.sol\":9090:9201  approvedCrossChainReceivers[any2EvmMessage.sourceChainSelector] == abi.decode(any2EvmMessage.sender, (address)) */\n      swap2\n      and\n      eq\n        /* \"src/CrossChainFacilitator.sol\":9069:9270  require(... */\n      tag_251\n      jumpi\n      mload(0x40)\n      shl(0xe5, 0x461bcd)\n      dup2\n      mstore\n        /* \"#utility.yul\":15969:15971   */\n      0x20\n        /* \"src/CrossChainFacilitator.sol\":9069:9270  require(... */\n      0x04\n      dup3\n      add\n        /* \"#utility.yul\":15951:15972   */\n      mstore\n        /* \"#utility.yul\":16008:16010   */\n      0x2b\n        /* \"#utility.yul\":15988:16006   */\n      0x24\n      dup3\n      add\n        /* \"#utility.yul\":15981:16011   */\n      mstore\n        /* \"#utility.yul\":16047:16081   */\n      0x43726f7373436861696e466163696c697461746f723a2053656e646572206e6f\n        /* \"#utility.yul\":16027:16045   */\n      0x44\n      dup3\n      add\n        /* \"#utility.yul\":16020:16082   */\n      mstore\n      shl(0xa9, 0x3a1030b8383937bb32b217)\n        /* \"#utility.yul\":16098:16116   */\n      0x64\n      dup3\n      add\n        /* \"#utility.yul\":16091:16132   */\n      mstore\n        /* \"#utility.yul\":16149:16168   */\n      0x84\n      add\n        /* \"src/CrossChainFacilitator.sol\":9069:9270  require(... */\n      tag_111\n        /* \"#utility.yul\":15767:16174   */\n      jump\n        /* \"src/CrossChainFacilitator.sol\":9069:9270  require(... */\n    tag_251:\n        /* \"src/CrossChainFacilitator.sol\":9319:9357  CrossChainGHOTransfer memory _transfer */\n      0x00\n        /* \"src/CrossChainFacilitator.sol\":9360:9397  decodeCCTransfer(any2EvmMessage.data) */\n      tag_254\n        /* \"src/CrossChainFacilitator.sol\":9377:9391  any2EvmMessage */\n      dup3\n        /* \"src/CrossChainFacilitator.sol\":9377:9396  any2EvmMessage.data */\n      0x60\n      add\n      mload\n        /* \"src/CrossChainFacilitator.sol\":9360:9376  decodeCCTransfer */\n      tag_255\n        /* \"src/CrossChainFacilitator.sol\":9360:9397  decodeCCTransfer(any2EvmMessage.data) */\n      jump\t// in\n    tag_254:\n        /* \"src/CrossChainFacilitator.sol\":9501:9517  _transfer.amount */\n      dup1\n      mload\n        /* \"src/CrossChainFacilitator.sol\":9319:9397  CrossChainGHOTransfer memory _transfer = decodeCCTransfer(any2EvmMessage.data) */\n      swap1\n      swap2\n      pop\n        /* \"src/CrossChainFacilitator.sol\":9486:9498  ghoBalance() */\n      tag_256\n        /* \"src/CrossChainFacilitator.sol\":9486:9496  ghoBalance */\n      tag_144\n        /* \"src/CrossChainFacilitator.sol\":9486:9498  ghoBalance() */\n      jump\t// in\n    tag_256:\n        /* \"src/CrossChainFacilitator.sol\":9486:9517  ghoBalance() > _transfer.amount */\n      gt\n        /* \"src/CrossChainFacilitator.sol\":9482:9713  if (ghoBalance() > _transfer.amount) {... */\n      iszero\n      tag_257\n      jumpi\n        /* \"src/CrossChainFacilitator.sol\":9552:9570  _transfer.receiver */\n      0x20\n      dup2\n      add\n      mload\n        /* \"src/CrossChainFacilitator.sol\":9572:9588  _transfer.amount */\n      dup2\n      mload\n        /* \"src/CrossChainFacilitator.sol\":9533:9589  GHO_TOKEN.transfer(_transfer.receiver, _transfer.amount) */\n      mload(0x40)\n      shl(0xe0, 0xa9059cbb)\n      dup2\n      mstore\n      sub(shl(0xa0, 0x01), 0x01)\n        /* \"src/CrossChainFacilitator.sol\":9533:9542  GHO_TOKEN */\n      immutable(\"0x117e01824b988abbbc4a51afcc11d9fffaeef543591fe94bdcb15c1af7a6cff2\")\n        /* \"src/CrossChainFacilitator.sol\":9533:9551  GHO_TOKEN.transfer */\n      and\n      swap3\n      0xa9059cbb\n      swap3\n        /* \"src/CrossChainFacilitator.sol\":9533:9589  GHO_TOKEN.transfer(_transfer.receiver, _transfer.amount) */\n      tag_258\n      swap3\n      0x04\n      add\n      sub(shl(0xa0, 0x01), 0x01)\n        /* \"#utility.yul\":7304:7336   */\n      swap3\n      swap1\n      swap3\n      and\n        /* \"#utility.yul\":7286:7337   */\n      dup3\n      mstore\n        /* \"#utility.yul\":7368:7370   */\n      0x20\n        /* \"#utility.yul\":7353:7371   */\n      dup3\n      add\n        /* \"#utility.yul\":7346:7380   */\n      mstore\n        /* \"#utility.yul\":7274:7276   */\n      0x40\n        /* \"#utility.yul\":7259:7277   */\n      add\n      swap1\n        /* \"#utility.yul\":7112:7386   */\n      jump\n        /* \"src/CrossChainFacilitator.sol\":9533:9589  GHO_TOKEN.transfer(_transfer.receiver, _transfer.amount) */\n    tag_258:\n      0x20\n      mload(0x40)\n      dup1\n      dup4\n      sub\n      dup2\n      0x00\n      dup8\n      gas\n      call\n      iszero\n      dup1\n      iszero\n      tag_260\n      jumpi\n      returndatasize\n      0x00\n      dup1\n      returndatacopy\n      revert(0x00, returndatasize)\n    tag_260:\n      pop\n      pop\n      pop\n      pop\n      mload(0x40)\n      returndatasize\n      not(0x1f)\n      0x1f\n      dup3\n      add\n      and\n      dup3\n      add\n      dup1\n      0x40\n      mstore\n      pop\n      dup2\n      add\n      swap1\n      tag_261\n      swap2\n      swap1\n      tag_109\n      jump\t// in\n    tag_261:\n      pop\n        /* \"src/CrossChainFacilitator.sol\":9482:9713  if (ghoBalance() > _transfer.amount) {... */\n      jump(tag_262)\n    tag_257:\n        /* \"src/CrossChainFacilitator.sol\":9685:9701  _transfer.amount */\n      dup1\n      mload\n        /* \"src/CrossChainFacilitator.sol\":9655:9702  GHO_TOKEN.mint(address(this), _transfer.amount) */\n      mload(0x40)\n      shl(0xe0, 0x40c10f19)\n      dup2\n      mstore\n        /* \"src/CrossChainFacilitator.sol\":9678:9682  this */\n      address\n        /* \"src/CrossChainFacilitator.sol\":9655:9702  GHO_TOKEN.mint(address(this), _transfer.amount) */\n      0x04\n      dup3\n      add\n        /* \"#utility.yul\":7286:7337   */\n      mstore\n        /* \"#utility.yul\":7353:7371   */\n      0x24\n      dup2\n      add\n        /* \"#utility.yul\":7346:7380   */\n      swap2\n      swap1\n      swap2\n      mstore\n        /* \"src/CrossChainFacilitator.sol\":9655:9664  GHO_TOKEN */\n      immutable(\"0x117e01824b988abbbc4a51afcc11d9fffaeef543591fe94bdcb15c1af7a6cff2\")\n      sub(shl(0xa0, 0x01), 0x01)\n        /* \"src/CrossChainFacilitator.sol\":9655:9669  GHO_TOKEN.mint */\n      and\n      swap1\n      0x40c10f19\n      swap1\n        /* \"#utility.yul\":7259:7277   */\n      0x44\n      add\n        /* \"src/CrossChainFacilitator.sol\":9655:9702  GHO_TOKEN.mint(address(this), _transfer.amount) */\n      0x00\n      mload(0x40)\n      dup1\n      dup4\n      sub\n      dup2\n      0x00\n      dup8\n      dup1\n      extcodesize\n      iszero\n      dup1\n      iszero\n      tag_264\n      jumpi\n      0x00\n      dup1\n      revert\n    tag_264:\n      pop\n      gas\n      call\n      iszero\n      dup1\n      iszero\n      tag_266\n      jumpi\n      returndatasize\n      0x00\n      dup1\n      returndatacopy\n      revert(0x00, returndatasize)\n    tag_266:\n      pop\n      pop\n      pop\n      pop\n        /* \"src/CrossChainFacilitator.sol\":9482:9713  if (ghoBalance() > _transfer.amount) {... */\n    tag_262:\n        /* \"src/CrossChainFacilitator.sol\":9817:9851  any2EvmMessage.sourceChainSelector */\n      0x20\n      dup1\n      dup4\n      add\n      mload\n        /* \"src/CrossChainFacilitator.sol\":9779:9803  any2EvmMessage.messageId */\n      dup4\n      mload\n        /* \"src/CrossChainFacilitator.sol\":9865:9883  _transfer.receiver */\n      dup4\n      dup4\n      add\n      mload\n        /* \"src/CrossChainFacilitator.sol\":9897:9913  _transfer.sender */\n      0x40\n      dup1\n      dup7\n      add\n      mload\n        /* \"src/CrossChainFacilitator.sol\":9927:9943  _transfer.amount */\n      dup7\n      mload\n        /* \"src/CrossChainFacilitator.sol\":9750:9953  MessageReceived(... */\n      dup3\n      mload\n      sub(shl(0xa0, 0x01), 0x01)\n        /* \"#utility.yul\":6333:6348   */\n      swap5\n      dup6\n      and\n        /* \"#utility.yul\":6315:6349   */\n      dup2\n      mstore\n        /* \"#utility.yul\":6385:6400   */\n      swap4\n      swap1\n      swap2\n      and\n        /* \"#utility.yul\":6365:6383   */\n      swap6\n      dup4\n      add\n        /* \"#utility.yul\":6358:6401   */\n      swap6\n      swap1\n      swap6\n      mstore\n        /* \"#utility.yul\":6417:6435   */\n      dup2\n      add\n        /* \"#utility.yul\":6410:6444   */\n      swap4\n      swap1\n      swap4\n      mstore\n      sub(shl(0x40, 0x01), 0x01)\n        /* \"src/CrossChainFacilitator.sol\":9750:9953  MessageReceived(... */\n      swap1\n      swap2\n      and\n      swap2\n      0x4f9fc06f5f4dc447952ea2eb4a0cda7a5736686f29e607951e0ab1b895f97f37\n      swap1\n        /* \"#utility.yul\":6265:6267   */\n      0x60\n        /* \"#utility.yul\":6250:6268   */\n      add\n        /* \"src/CrossChainFacilitator.sol\":9750:9953  MessageReceived(... */\n      mload(0x40)\n      dup1\n      swap2\n      sub\n      swap1\n      log3\n        /* \"src/CrossChainFacilitator.sol\":9006:9960  {... */\n      pop\n        /* \"src/CrossChainFacilitator.sol\":8921:9960  function _ccipReceive(Client.Any2EVMMessage memory any2EvmMessage) internal override {... */\n      pop\n      jump\t// out\n        /* \"src/CrossChainFacilitator.sol\":5831:6089  function _updateTransferFee(uint256 newFee) internal {... */\n    tag_181:\n        /* \"src/CrossChainFacilitator.sol\":889:892  1e4 */\n      0x2710\n        /* \"src/CrossChainFacilitator.sol\":5902:5908  newFee */\n      dup2\n        /* \"src/CrossChainFacilitator.sol\":5902:5919  newFee <= MAX_FEE */\n      gt\n      iszero\n        /* \"src/CrossChainFacilitator.sol\":5894:5963  require(newFee <= MAX_FEE, \"CrossChainFacilitator: Fee out of range\") */\n      tag_269\n      jumpi\n      mload(0x40)\n      shl(0xe5, 0x461bcd)\n      dup2\n      mstore\n      0x04\n      add\n      tag_111\n      swap1\n      tag_245\n      jump\t// in\n    tag_269:\n        /* \"src/CrossChainFacilitator.sol\":5990:6002  _transferFee */\n      0x02\n      dup1\n      sload\n        /* \"src/CrossChainFacilitator.sol\":6012:6033  _transferFee = newFee */\n      swap1\n      dup3\n      swap1\n      sstore\n        /* \"src/CrossChainFacilitator.sol\":6048:6082  TransferFeeUpdated(oldFee, newFee) */\n      0x40\n      dup1\n      mload\n        /* \"#utility.yul\":15424:15449   */\n      dup3\n      dup2\n      mstore\n        /* \"#utility.yul\":15480:15482   */\n      0x20\n        /* \"#utility.yul\":15465:15483   */\n      dup2\n      add\n        /* \"#utility.yul\":15458:15492   */\n      dup5\n      swap1\n      mstore\n        /* \"src/CrossChainFacilitator.sol\":6048:6082  TransferFeeUpdated(oldFee, newFee) */\n      0x940334a9f5c76529ad9447ac490c2073b06d880209383a3d3e4b0ecab72a0d99\n      swap2\n        /* \"#utility.yul\":15397:15415   */\n      add\n        /* \"src/CrossChainFacilitator.sol\":6048:6082  TransferFeeUpdated(oldFee, newFee) */\n      tag_246\n        /* \"#utility.yul\":15250:15498   */\n      jump\n        /* \"src/CrossChainFacilitator.sol\":5467:5596  function _calcTransferFee(uint256 amount) internal view returns (uint256) {... */\n    tag_186:\n        /* \"src/CrossChainFacilitator.sol\":5532:5539  uint256 */\n      0x00\n        /* \"src/CrossChainFacilitator.sol\":5558:5589  amount.percentMul(_transferFee) */\n      tag_122\n        /* \"src/CrossChainFacilitator.sol\":5576:5588  _transferFee */\n      sload(0x02)\n        /* \"src/CrossChainFacilitator.sol\":5558:5564  amount */\n      dup4\n        /* \"src/CrossChainFacilitator.sol\":5558:5575  amount.percentMul */\n      tag_236\n      swap1\n        /* \"src/CrossChainFacilitator.sol\":5558:5589  amount.percentMul(_transferFee) */\n      swap2\n      swap1\n      0xffffffff\n      and\n      jump\t// in\n        /* \"src/CrossChainFacilitator.sol\":7870:8915  function _buildCCIPMessage(address _receiver, CrossChainGHOTransfer memory _transfer, address _feeTokenAddress)... */\n    tag_198:\n        /* \"src/CrossChainFacilitator.sol\":8029:8057  Client.EVM2AnyMessage memory */\n      tag_274\n      mload(0x40)\n      dup1\n      0xa0\n      add\n      0x40\n      mstore\n      dup1\n      0x60\n      dup2\n      mstore\n      0x20\n      add\n      0x60\n      dup2\n      mstore\n      0x20\n      add\n      0x60\n      dup2\n      mstore\n      0x20\n      add\n      and(sub(shl(0xa0, 0x01), 0x01), 0x00)\n      dup2\n      mstore\n      0x20\n      add\n      0x60\n      dup2\n      mstore\n      pop\n      swap1\n      jump\n    tag_274:\n        /* \"src/CrossChainGHOTransfer.sol\":261:282  abi.encode(_transfer) */\n      0x40\n      dup1\n      mload\n        /* \"#utility.yul\":17140:17153   */\n      dup5\n      mload\n        /* \"src/CrossChainGHOTransfer.sol\":261:282  abi.encode(_transfer) */\n      0x20\n      dup1\n      dup4\n      add\n        /* \"#utility.yul\":17122:17154   */\n      swap2\n      swap1\n      swap2\n      mstore\n        /* \"#utility.yul\":17189:17206   */\n      dup1\n      dup7\n      add\n        /* \"#utility.yul\":17183:17207   */\n      mload\n      sub(shl(0xa0, 0x01), 0x01)\n        /* \"#utility.yul\":17283:17304   */\n      swap1\n      dup2\n      and\n        /* \"#utility.yul\":17261:17281   */\n      dup4\n      dup6\n      add\n        /* \"#utility.yul\":17254:17305   */\n      mstore\n        /* \"#utility.yul\":17353:17370   */\n      dup7\n      dup5\n      add\n        /* \"#utility.yul\":17347:17371   */\n      mload\n        /* \"#utility.yul\":17343:17376   */\n      dup2\n      and\n        /* \"src/CrossChainGHOTransfer.sol\":234:246  bytes memory */\n      0x60\n        /* \"#utility.yul\":17321:17341   */\n      dup1\n      dup6\n      add\n        /* \"#utility.yul\":17314:17377   */\n      swap2\n      swap1\n      swap2\n      mstore\n        /* \"src/CrossChainGHOTransfer.sol\":261:282  abi.encode(_transfer) */\n      dup5\n      mload\n      dup1\n      dup6\n      sub\n      swap1\n      swap2\n      add\n      dup2\n      mstore\n        /* \"src/CrossChainFacilitator.sol\":8304:8908  Client.EVM2AnyMessage({... */\n      0x0120\n      dup5\n      add\n      dup6\n      mstore\n        /* \"#utility.yul\":2743:2775   */\n      swap1\n      dup9\n      and\n        /* \"src/CrossChainFacilitator.sol\":8350:8371  abi.encode(_receiver) */\n      0x0140\n      dup1\n      dup6\n      add\n        /* \"#utility.yul\":2725:2776   */\n      swap2\n      swap1\n      swap2\n      mstore\n        /* \"src/CrossChainFacilitator.sol\":8350:8371  abi.encode(_receiver) */\n      dup5\n      mload\n      dup1\n      dup6\n      sub\n      swap1\n      swap2\n      add\n      dup2\n      mstore\n        /* \"#utility.yul\":2698:2716   */\n      0x0160\n      dup5\n      add\n        /* \"src/CrossChainFacilitator.sol\":8350:8371  abi.encode(_receiver) */\n      dup6\n      mstore\n        /* \"#utility.yul\":17095:17113   */\n      0x80\n      dup5\n      add\n        /* \"src/CrossChainFacilitator.sol\":8304:8908  Client.EVM2AnyMessage({... */\n      swap1\n      dup2\n      mstore\n      0xa0\n      dup5\n      add\n      dup3\n      swap1\n      mstore\n        /* \"src/CrossChainFacilitator.sol\":8499:8529  new Client.EVMTokenAmount[](0) */\n      dup5\n      mload\n      0x00\n      dup1\n      dup3\n      mstore\n      swap4\n      dup2\n      add\n      swap1\n      swap6\n      mstore\n        /* \"src/CrossChainGHOTransfer.sol\":261:282  abi.encode(_transfer) */\n      swap1\n      swap4\n        /* \"#utility.yul\":17095:17113   */\n      swap1\n      swap3\n        /* \"src/CrossChainFacilitator.sol\":8350:8371  abi.encode(_receiver) */\n      0xc0\n        /* \"src/CrossChainFacilitator.sol\":8304:8908  Client.EVM2AnyMessage({... */\n      add\n      swap2\n        /* \"src/CrossChainFacilitator.sol\":8499:8529  new Client.EVMTokenAmount[](0) */\n      jump(tag_283)\n    tag_284:\n      0x40\n      dup1\n      mload\n      dup1\n      dup3\n      add\n      swap1\n      swap2\n      mstore\n      0x00\n      dup1\n      dup3\n      mstore\n      0x20\n      dup3\n      add\n      mstore\n      dup2\n      mstore\n      0x20\n      add\n      swap1\n      0x01\n      swap1\n      sub\n      swap1\n      dup2\n      tag_284\n      jumpi\n      swap1\n      pop\n    tag_283:\n      pop\n        /* \"src/CrossChainFacilitator.sol\":8304:8908  Client.EVM2AnyMessage({... */\n      dup2\n      mstore\n      0x20\n      add\n        /* \"src/CrossChainFacilitator.sol\":8881:8897  _feeTokenAddress */\n      dup5\n      sub(shl(0xa0, 0x01), 0x01)\n        /* \"src/CrossChainFacilitator.sol\":8304:8908  Client.EVM2AnyMessage({... */\n      and\n      dup2\n      mstore\n      0x20\n      add\n        /* \"src/CrossChainFacilitator.sol\":8599:8755  Client._argsToBytes(... */\n      tag_287\n        /* \"src/CrossChainFacilitator.sol\":8695:8737  Client.EVMExtraArgsV1({gasLimit: 200_000}) */\n      mload(0x40)\n      dup1\n      0x20\n      add\n      0x40\n      mstore\n      dup1\n        /* \"src/CrossChainFacilitator.sol\":8728:8735  200_000 */\n      0x030d40\n        /* \"src/CrossChainFacilitator.sol\":8695:8737  Client.EVMExtraArgsV1({gasLimit: 200_000}) */\n      dup2\n      mstore\n      pop\n        /* \"lib/contracts-ccip/src/v0.8/ccip/libraries/Client.sol\":1394:1450  abi.encodeWithSelector(EVM_EXTRA_ARGS_V1_TAG, extraArgs) */\n      0x40\n      dup1\n      mload\n        /* \"#utility.yul\":17614:17627   */\n      swap2\n      mload\n        /* \"lib/contracts-ccip/src/v0.8/ccip/libraries/Client.sol\":1394:1450  abi.encodeWithSelector(EVM_EXTRA_ARGS_V1_TAG, extraArgs) */\n      0x24\n      dup1\n      dup5\n      add\n        /* \"#utility.yul\":17596:17628   */\n      swap2\n      swap1\n      swap2\n      mstore\n        /* \"lib/contracts-ccip/src/v0.8/ccip/libraries/Client.sol\":1394:1450  abi.encodeWithSelector(EVM_EXTRA_ARGS_V1_TAG, extraArgs) */\n      dup2\n      mload\n      dup1\n      dup5\n      sub\n      swap1\n      swap2\n      add\n      dup2\n      mstore\n        /* \"#utility.yul\":17569:17587   */\n      0x44\n      swap1\n      swap3\n      add\n        /* \"lib/contracts-ccip/src/v0.8/ccip/libraries/Client.sol\":1394:1450  abi.encodeWithSelector(EVM_EXTRA_ARGS_V1_TAG, extraArgs) */\n      swap1\n      mstore\n      0x20\n      dup2\n      add\n      dup1\n      mload\n      sub(shl(0xe0, 0x01), 0x01)\n      and\n      shl(0xe0, 0x97a657c9)\n      or\n      swap1\n      mstore\n      swap1\n        /* \"lib/contracts-ccip/src/v0.8/ccip/libraries/Client.sol\":1285:1455  function _argsToBytes(EVMExtraArgsV1 memory extraArgs) internal pure returns (bytes memory bts) {... */\n      jump\n        /* \"src/CrossChainFacilitator.sol\":8599:8755  Client._argsToBytes(... */\n    tag_287:\n        /* \"src/CrossChainFacilitator.sol\":8304:8908  Client.EVM2AnyMessage({... */\n      swap1\n      mstore\n        /* \"src/CrossChainFacilitator.sol\":8297:8908  return Client.EVM2AnyMessage({... */\n      swap6\n        /* \"src/CrossChainFacilitator.sol\":7870:8915  function _buildCCIPMessage(address _receiver, CrossChainGHOTransfer memory _transfer, address _feeTokenAddress)... */\n      swap5\n      pop\n      pop\n      pop\n      pop\n      pop\n      jump\t// out\n        /* \"src/PercentageMath.sol\":1005:1501  function percentMul(uint256 value, uint256 percentage) internal pure returns (uint256 result) {... */\n    tag_236:\n        /* \"src/PercentageMath.sol\":1083:1097  uint256 result */\n      0x00\n        /* \"src/PercentageMath.sol\":1248:1266  iszero(percentage) */\n      dup2\n      iszero\n      not(0x1388)\n        /* \"src/PercentageMath.sol\":1295:1347  div(sub(not(0), HALF_PERCENTAGE_FACTOR), percentage) */\n      dup4\n      swap1\n      div\n        /* \"src/PercentageMath.sol\":1285:1348  gt(value, div(sub(not(0), HALF_PERCENTAGE_FACTOR), percentage)) */\n      dup5\n      gt\n        /* \"src/PercentageMath.sol\":1278:1349  iszero(gt(value, div(sub(not(0), HALF_PERCENTAGE_FACTOR), percentage))) */\n      iszero\n        /* \"src/PercentageMath.sol\":1234:1359  or(... */\n      or\n        /* \"src/PercentageMath.sol\":1215:1398  if iszero(... */\n      tag_290\n      jumpi\n        /* \"src/PercentageMath.sol\":1388:1389  0 */\n      0x00\n        /* \"src/PercentageMath.sol\":1385:1386  0 */\n      dup1\n        /* \"src/PercentageMath.sol\":1378:1390  revert(0, 0) */\n      revert\n        /* \"src/PercentageMath.sol\":1215:1398  if iszero(... */\n    tag_290:\n      pop\n        /* \"src/PercentageMath.sol\":1473:1490  PERCENTAGE_FACTOR */\n      0x2710\n        /* \"src/PercentageMath.sol\":1424:1446  mul(value, percentage) */\n      swap2\n      mul\n        /* \"src/PercentageMath.sol\":1448:1470  HALF_PERCENTAGE_FACTOR */\n      0x1388\n        /* \"src/PercentageMath.sol\":1420:1471  add(mul(value, percentage), HALF_PERCENTAGE_FACTOR) */\n      add\n        /* \"src/PercentageMath.sol\":1416:1491  div(add(mul(value, percentage), HALF_PERCENTAGE_FACTOR), PERCENTAGE_FACTOR) */\n      div\n      swap1\n        /* \"src/PercentageMath.sol\":1005:1501  function percentMul(uint256 value, uint256 percentage) internal pure returns (uint256 result) {... */\n      jump\t// out\n        /* \"src/CrossChainGHOTransfer.sol\":287:453  function decodeCCTransfer(bytes memory _transferBytes) pure returns (CrossChainGHOTransfer memory) {... */\n    tag_255:\n      0x40\n      dup1\n      mload\n      0x60\n      dup2\n      add\n      dup3\n      mstore\n      0x00\n      dup1\n      dup3\n      mstore\n      0x20\n      dup1\n      dup4\n      add\n      dup3\n      swap1\n      mstore\n      swap3\n      dup3\n      add\n      mstore\n        /* \"src/CrossChainGHOTransfer.sol\":399:450  abi.decode(_transferBytes, (CrossChainGHOTransfer)) */\n      dup3\n      mload\n      swap1\n      swap2\n      tag_122\n      swap2\n      dup5\n      add\n      dup2\n      add\n      swap1\n      dup5\n      add\n      tag_295\n      jump\t// in\n        /* \"#utility.yul\":14:185   */\n    tag_302:\n        /* \"#utility.yul\":81:101   */\n      dup1\n      calldataload\n      sub(shl(0x40, 0x01), 0x01)\n        /* \"#utility.yul\":130:160   */\n      dup2\n      and\n        /* \"#utility.yul\":120:161   */\n      dup2\n      eq\n        /* \"#utility.yul\":110:179   */\n      tag_313\n      jumpi\n        /* \"#utility.yul\":175:176   */\n      0x00\n        /* \"#utility.yul\":172:173   */\n      dup1\n        /* \"#utility.yul\":165:177   */\n      revert\n        /* \"#utility.yul\":110:179   */\n    tag_313:\n        /* \"#utility.yul\":14:185   */\n      swap2\n      swap1\n      pop\n      jump\t// out\n        /* \"#utility.yul\":190:321   */\n    tag_303:\n      sub(shl(0xa0, 0x01), 0x01)\n        /* \"#utility.yul\":265:296   */\n      dup2\n      and\n        /* \"#utility.yul\":255:297   */\n      dup2\n      eq\n        /* \"#utility.yul\":245:315   */\n      tag_128\n      jumpi\n        /* \"#utility.yul\":311:312   */\n      0x00\n        /* \"#utility.yul\":308:309   */\n      dup1\n        /* \"#utility.yul\":301:313   */\n      revert\n        /* \"#utility.yul\":326:645   */\n    tag_25:\n        /* \"#utility.yul\":393:399   */\n      0x00\n        /* \"#utility.yul\":401:407   */\n      dup1\n        /* \"#utility.yul\":454:456   */\n      0x40\n        /* \"#utility.yul\":442:451   */\n      dup4\n        /* \"#utility.yul\":433:440   */\n      dup6\n        /* \"#utility.yul\":429:452   */\n      sub\n        /* \"#utility.yul\":425:457   */\n      slt\n        /* \"#utility.yul\":422:474   */\n      iszero\n      tag_317\n      jumpi\n        /* \"#utility.yul\":470:471   */\n      0x00\n        /* \"#utility.yul\":467:468   */\n      dup1\n        /* \"#utility.yul\":460:472   */\n      revert\n        /* \"#utility.yul\":422:474   */\n    tag_317:\n        /* \"#utility.yul\":493:521   */\n      tag_318\n        /* \"#utility.yul\":511:520   */\n      dup4\n        /* \"#utility.yul\":493:521   */\n      tag_302\n      jump\t// in\n    tag_318:\n        /* \"#utility.yul\":483:521   */\n      swap2\n      pop\n        /* \"#utility.yul\":571:573   */\n      0x20\n        /* \"#utility.yul\":560:569   */\n      dup4\n        /* \"#utility.yul\":556:574   */\n      add\n        /* \"#utility.yul\":543:575   */\n      calldataload\n        /* \"#utility.yul\":584:615   */\n      tag_319\n        /* \"#utility.yul\":609:614   */\n      dup2\n        /* \"#utility.yul\":584:615   */\n      tag_303\n      jump\t// in\n    tag_319:\n        /* \"#utility.yul\":634:639   */\n      dup1\n        /* \"#utility.yul\":624:639   */\n      swap2\n      pop\n      pop\n        /* \"#utility.yul\":326:645   */\n      swap3\n      pop\n      swap3\n      swap1\n      pop\n      jump\t// out\n        /* \"#utility.yul\":650:936   */\n    tag_30:\n        /* \"#utility.yul\":708:714   */\n      0x00\n        /* \"#utility.yul\":761:763   */\n      0x20\n        /* \"#utility.yul\":749:758   */\n      dup3\n        /* \"#utility.yul\":740:747   */\n      dup5\n        /* \"#utility.yul\":736:759   */\n      sub\n        /* \"#utility.yul\":732:764   */\n      slt\n        /* \"#utility.yul\":729:781   */\n      iszero\n      tag_321\n      jumpi\n        /* \"#utility.yul\":777:778   */\n      0x00\n        /* \"#utility.yul\":774:775   */\n      dup1\n        /* \"#utility.yul\":767:779   */\n      revert\n        /* \"#utility.yul\":729:781   */\n    tag_321:\n        /* \"#utility.yul\":803:826   */\n      dup2\n      calldataload\n      not(sub(shl(0xe0, 0x01), 0x01))\n        /* \"#utility.yul\":855:887   */\n      dup2\n      and\n        /* \"#utility.yul\":845:888   */\n      dup2\n      eq\n        /* \"#utility.yul\":835:906   */\n      tag_322\n      jumpi\n        /* \"#utility.yul\":902:903   */\n      0x00\n        /* \"#utility.yul\":899:900   */\n      dup1\n        /* \"#utility.yul\":892:904   */\n      revert\n        /* \"#utility.yul\":835:906   */\n    tag_322:\n        /* \"#utility.yul\":925:930   */\n      swap4\n        /* \"#utility.yul\":650:936   */\n      swap3\n      pop\n      pop\n      pop\n      jump\t// out\n        /* \"#utility.yul\":1133:1380   */\n    tag_37:\n        /* \"#utility.yul\":1192:1198   */\n      0x00\n        /* \"#utility.yul\":1245:1247   */\n      0x20\n        /* \"#utility.yul\":1233:1242   */\n      dup3\n        /* \"#utility.yul\":1224:1231   */\n      dup5\n        /* \"#utility.yul\":1220:1243   */\n      sub\n        /* \"#utility.yul\":1216:1248   */\n      slt\n        /* \"#utility.yul\":1213:1265   */\n      iszero\n      tag_325\n      jumpi\n        /* \"#utility.yul\":1261:1262   */\n      0x00\n        /* \"#utility.yul\":1258:1259   */\n      dup1\n        /* \"#utility.yul\":1251:1263   */\n      revert\n        /* \"#utility.yul\":1213:1265   */\n    tag_325:\n        /* \"#utility.yul\":1300:1309   */\n      dup2\n        /* \"#utility.yul\":1287:1310   */\n      calldataload\n        /* \"#utility.yul\":1319:1350   */\n      tag_322\n        /* \"#utility.yul\":1344:1349   */\n      dup2\n        /* \"#utility.yul\":1319:1350   */\n      tag_303\n      jump\t// in\n        /* \"#utility.yul\":1385:1700   */\n    tag_42:\n        /* \"#utility.yul\":1453:1459   */\n      0x00\n        /* \"#utility.yul\":1461:1467   */\n      dup1\n        /* \"#utility.yul\":1514:1516   */\n      0x40\n        /* \"#utility.yul\":1502:1511   */\n      dup4\n        /* \"#utility.yul\":1493:1500   */\n      dup6\n        /* \"#utility.yul\":1489:1512   */\n      sub\n        /* \"#utility.yul\":1485:1517   */\n      slt\n        /* \"#utility.yul\":1482:1534   */\n      iszero\n      tag_328\n      jumpi\n        /* \"#utility.yul\":1530:1531   */\n      0x00\n        /* \"#utility.yul\":1527:1528   */\n      dup1\n        /* \"#utility.yul\":1520:1532   */\n      revert\n        /* \"#utility.yul\":1482:1534   */\n    tag_328:\n        /* \"#utility.yul\":1566:1575   */\n      dup3\n        /* \"#utility.yul\":1553:1576   */\n      calldataload\n        /* \"#utility.yul\":1543:1576   */\n      swap2\n      pop\n        /* \"#utility.yul\":1626:1628   */\n      0x20\n        /* \"#utility.yul\":1615:1624   */\n      dup4\n        /* \"#utility.yul\":1611:1629   */\n      add\n        /* \"#utility.yul\":1598:1630   */\n      calldataload\n        /* \"#utility.yul\":1639:1670   */\n      tag_319\n        /* \"#utility.yul\":1664:1669   */\n      dup2\n        /* \"#utility.yul\":1639:1670   */\n      tag_303\n      jump\t// in\n        /* \"#utility.yul\":1887:2067   */\n    tag_52:\n        /* \"#utility.yul\":1946:1952   */\n      0x00\n        /* \"#utility.yul\":1999:2001   */\n      0x20\n        /* \"#utility.yul\":1987:1996   */\n      dup3\n        /* \"#utility.yul\":1978:1985   */\n      dup5\n        /* \"#utility.yul\":1974:1997   */\n      sub\n        /* \"#utility.yul\":1970:2002   */\n      slt\n        /* \"#utility.yul\":1967:2019   */\n      iszero\n      tag_332\n      jumpi\n        /* \"#utility.yul\":2015:2016   */\n      0x00\n        /* \"#utility.yul\":2012:2013   */\n      dup1\n        /* \"#utility.yul\":2005:2017   */\n      revert\n        /* \"#utility.yul\":1967:2019   */\n    tag_332:\n      pop\n        /* \"#utility.yul\":2038:2061   */\n      calldataload\n      swap2\n        /* \"#utility.yul\":1887:2067   */\n      swap1\n      pop\n      jump\t// out\n        /* \"#utility.yul\":2072:2465   */\n    tag_57:\n        /* \"#utility.yul\":2164:2170   */\n      0x00\n        /* \"#utility.yul\":2217:2219   */\n      0x20\n        /* \"#utility.yul\":2205:2214   */\n      dup3\n        /* \"#utility.yul\":2196:2203   */\n      dup5\n        /* \"#utility.yul\":2192:2215   */\n      sub\n        /* \"#utility.yul\":2188:2220   */\n      slt\n        /* \"#utility.yul\":2185:2237   */\n      iszero\n      tag_334\n      jumpi\n        /* \"#utility.yul\":2233:2234   */\n      0x00\n        /* \"#utility.yul\":2230:2231   */\n      dup1\n        /* \"#utility.yul\":2223:2235   */\n      revert\n        /* \"#utility.yul\":2185:2237   */\n    tag_334:\n        /* \"#utility.yul\":2273:2282   */\n      dup2\n        /* \"#utility.yul\":2260:2283   */\n      calldataload\n      sub(shl(0x40, 0x01), 0x01)\n        /* \"#utility.yul\":2298:2304   */\n      dup2\n        /* \"#utility.yul\":2295:2325   */\n      gt\n        /* \"#utility.yul\":2292:2342   */\n      iszero\n      tag_335\n      jumpi\n        /* \"#utility.yul\":2338:2339   */\n      0x00\n        /* \"#utility.yul\":2335:2336   */\n      dup1\n        /* \"#utility.yul\":2328:2340   */\n      revert\n        /* \"#utility.yul\":2292:2342   */\n    tag_335:\n        /* \"#utility.yul\":2361:2383   */\n      dup3\n      add\n        /* \"#utility.yul\":2417:2420   */\n      0xa0\n        /* \"#utility.yul\":2399:2415   */\n      dup2\n      dup6\n      sub\n        /* \"#utility.yul\":2395:2421   */\n      slt\n        /* \"#utility.yul\":2392:2438   */\n      iszero\n      tag_322\n      jumpi\n        /* \"#utility.yul\":2434:2435   */\n      0x00\n        /* \"#utility.yul\":2431:2432   */\n      dup1\n        /* \"#utility.yul\":2424:2436   */\n      revert\n        /* \"#utility.yul\":3013:3400   */\n    tag_83:\n        /* \"#utility.yul\":3089:3095   */\n      0x00\n        /* \"#utility.yul\":3097:3103   */\n      dup1\n        /* \"#utility.yul\":3105:3111   */\n      0x00\n        /* \"#utility.yul\":3158:3160   */\n      0x60\n        /* \"#utility.yul\":3146:3155   */\n      dup5\n        /* \"#utility.yul\":3137:3144   */\n      dup7\n        /* \"#utility.yul\":3133:3156   */\n      sub\n        /* \"#utility.yul\":3129:3161   */\n      slt\n        /* \"#utility.yul\":3126:3178   */\n      iszero\n      tag_341\n      jumpi\n        /* \"#utility.yul\":3174:3175   */\n      0x00\n        /* \"#utility.yul\":3171:3172   */\n      dup1\n        /* \"#utility.yul\":3164:3176   */\n      revert\n        /* \"#utility.yul\":3126:3178   */\n    tag_341:\n        /* \"#utility.yul\":3197:3225   */\n      tag_342\n        /* \"#utility.yul\":3215:3224   */\n      dup5\n        /* \"#utility.yul\":3197:3225   */\n      tag_302\n      jump\t// in\n    tag_342:\n        /* \"#utility.yul\":3187:3225   */\n      swap3\n      pop\n        /* \"#utility.yul\":3272:3274   */\n      0x20\n        /* \"#utility.yul\":3261:3270   */\n      dup5\n        /* \"#utility.yul\":3257:3275   */\n      add\n        /* \"#utility.yul\":3244:3276   */\n      calldataload\n        /* \"#utility.yul\":3234:3276   */\n      swap2\n      pop\n        /* \"#utility.yul\":3326:3328   */\n      0x40\n        /* \"#utility.yul\":3315:3324   */\n      dup5\n        /* \"#utility.yul\":3311:3329   */\n      add\n        /* \"#utility.yul\":3298:3330   */\n      calldataload\n        /* \"#utility.yul\":3339:3370   */\n      tag_343\n        /* \"#utility.yul\":3364:3369   */\n      dup2\n        /* \"#utility.yul\":3339:3370   */\n      tag_303\n      jump\t// in\n    tag_343:\n        /* \"#utility.yul\":3389:3394   */\n      dup1\n        /* \"#utility.yul\":3379:3394   */\n      swap2\n      pop\n      pop\n        /* \"#utility.yul\":3013:3400   */\n      swap3\n      pop\n      swap3\n      pop\n      swap3\n      jump\t// out\n        /* \"#utility.yul\":4213:4490   */\n    tag_109:\n        /* \"#utility.yul\":4280:4286   */\n      0x00\n        /* \"#utility.yul\":4333:4335   */\n      0x20\n        /* \"#utility.yul\":4321:4330   */\n      dup3\n        /* \"#utility.yul\":4312:4319   */\n      dup5\n        /* \"#utility.yul\":4308:4331   */\n      sub\n        /* \"#utility.yul\":4304:4336   */\n      slt\n        /* \"#utility.yul\":4301:4353   */\n      iszero\n      tag_348\n      jumpi\n        /* \"#utility.yul\":4349:4350   */\n      0x00\n        /* \"#utility.yul\":4346:4347   */\n      dup1\n        /* \"#utility.yul\":4339:4351   */\n      revert\n        /* \"#utility.yul\":4301:4353   */\n    tag_348:\n        /* \"#utility.yul\":4381:4390   */\n      dup2\n        /* \"#utility.yul\":4375:4391   */\n      mload\n        /* \"#utility.yul\":4434:4439   */\n      dup1\n        /* \"#utility.yul\":4427:4440   */\n      iszero\n        /* \"#utility.yul\":4420:4441   */\n      iszero\n        /* \"#utility.yul\":4413:4418   */\n      dup2\n        /* \"#utility.yul\":4410:4442   */\n      eq\n        /* \"#utility.yul\":4400:4460   */\n      tag_322\n      jumpi\n        /* \"#utility.yul\":4456:4457   */\n      0x00\n        /* \"#utility.yul\":4453:4454   */\n      dup1\n        /* \"#utility.yul\":4446:4458   */\n      revert\n        /* \"#utility.yul\":4495:4919   */\n    tag_112:\n        /* \"#utility.yul\":4697:4699   */\n      0x20\n        /* \"#utility.yul\":4679:4700   */\n      dup1\n      dup3\n      mstore\n        /* \"#utility.yul\":4736:4738   */\n      0x3c\n        /* \"#utility.yul\":4716:4734   */\n      swap1\n      dup3\n      add\n        /* \"#utility.yul\":4709:4739   */\n      mstore\n        /* \"#utility.yul\":4775:4809   */\n      0x43726f7373436861696e466163696c697461746f723a204661696c656420746f\n        /* \"#utility.yul\":4770:4772   */\n      0x40\n        /* \"#utility.yul\":4755:4773   */\n      dup3\n      add\n        /* \"#utility.yul\":4748:4810   */\n      mstore\n        /* \"#utility.yul\":4846:4876   */\n      0x207472616e736665722047484f20746f20666163696c697461746f7200000000\n        /* \"#utility.yul\":4841:4843   */\n      0x60\n        /* \"#utility.yul\":4826:4844   */\n      dup3\n      add\n        /* \"#utility.yul\":4819:4877   */\n      mstore\n        /* \"#utility.yul\":4909:4912   */\n      0x80\n        /* \"#utility.yul\":4894:4913   */\n      add\n      swap1\n        /* \"#utility.yul\":4495:4919   */\n      jump\t// out\n        /* \"#utility.yul\":5653:6070   */\n    tag_126:\n        /* \"#utility.yul\":5855:5857   */\n      0x20\n        /* \"#utility.yul\":5837:5858   */\n      dup1\n      dup3\n      mstore\n        /* \"#utility.yul\":5894:5896   */\n      0x35\n        /* \"#utility.yul\":5874:5892   */\n      swap1\n      dup3\n      add\n        /* \"#utility.yul\":5867:5897   */\n      mstore\n        /* \"#utility.yul\":5933:5967   */\n      0x43726f7373436861696e466163696c697461746f723a204f6e6c792041617665\n        /* \"#utility.yul\":5928:5930   */\n      0x40\n        /* \"#utility.yul\":5913:5931   */\n      dup3\n      add\n        /* \"#utility.yul\":5906:5968   */\n      mstore\n      shl(0x59, 0x1023b7bb32b93730b731b29031b0b71031b0b63617)\n        /* \"#utility.yul\":5999:6001   */\n      0x60\n        /* \"#utility.yul\":5984:6002   */\n      dup3\n      add\n        /* \"#utility.yul\":5977:6028   */\n      mstore\n        /* \"#utility.yul\":6060:6063   */\n      0x80\n        /* \"#utility.yul\":6045:6064   */\n      add\n      swap1\n        /* \"#utility.yul\":5653:6070   */\n      jump\t// out\n        /* \"#utility.yul\":6885:7107   */\n    tag_142:\n        /* \"#utility.yul\":6950:6959   */\n      dup1\n      dup3\n      add\n        /* \"#utility.yul\":6971:6981   */\n      dup1\n      dup3\n      gt\n        /* \"#utility.yul\":6968:7101   */\n      iszero\n      tag_122\n      jumpi\n        /* \"#utility.yul\":7023:7033   */\n      0x4e487b71\n        /* \"#utility.yul\":7018:7021   */\n      0xe0\n        /* \"#utility.yul\":7014:7034   */\n      shl\n        /* \"#utility.yul\":7011:7012   */\n      0x00\n        /* \"#utility.yul\":7004:7035   */\n      mstore\n        /* \"#utility.yul\":7058:7062   */\n      0x11\n        /* \"#utility.yul\":7055:7056   */\n      0x04\n        /* \"#utility.yul\":7048:7063   */\n      mstore\n        /* \"#utility.yul\":7086:7090   */\n      0x24\n        /* \"#utility.yul\":7083:7084   */\n      0x00\n        /* \"#utility.yul\":7076:7091   */\n      revert\n        /* \"#utility.yul\":7391:7518   */\n    tag_282:\n        /* \"#utility.yul\":7452:7462   */\n      0x4e487b71\n        /* \"#utility.yul\":7447:7450   */\n      0xe0\n        /* \"#utility.yul\":7443:7463   */\n      shl\n        /* \"#utility.yul\":7440:7441   */\n      0x00\n        /* \"#utility.yul\":7433:7464   */\n      mstore\n        /* \"#utility.yul\":7483:7487   */\n      0x41\n        /* \"#utility.yul\":7480:7481   */\n      0x04\n        /* \"#utility.yul\":7473:7488   */\n      mstore\n        /* \"#utility.yul\":7507:7511   */\n      0x24\n        /* \"#utility.yul\":7504:7505   */\n      0x00\n        /* \"#utility.yul\":7497:7512   */\n      revert\n        /* \"#utility.yul\":7523:7780   */\n    tag_305:\n        /* \"#utility.yul\":7595:7599   */\n      0x40\n        /* \"#utility.yul\":7589:7600   */\n      dup1\n      mload\n      swap1\n        /* \"#utility.yul\":7627:7644   */\n      dup2\n      add\n      sub(shl(0x40, 0x01), 0x01)\n        /* \"#utility.yul\":7659:7693   */\n      dup2\n      gt\n        /* \"#utility.yul\":7695:7717   */\n      dup3\n      dup3\n      lt\n        /* \"#utility.yul\":7656:7718   */\n      or\n        /* \"#utility.yul\":7653:7741   */\n      iszero\n      tag_362\n      jumpi\n        /* \"#utility.yul\":7721:7739   */\n      tag_362\n      tag_282\n      jump\t// in\n    tag_362:\n        /* \"#utility.yul\":7757:7761   */\n      0x40\n        /* \"#utility.yul\":7750:7774   */\n      mstore\n        /* \"#utility.yul\":7523:7780   */\n      swap1\n      jump\t// out\n        /* \"#utility.yul\":7785:8038   */\n    tag_306:\n        /* \"#utility.yul\":7857:7859   */\n      0x40\n        /* \"#utility.yul\":7851:7860   */\n      mload\n        /* \"#utility.yul\":7899:7903   */\n      0xa0\n        /* \"#utility.yul\":7887:7904   */\n      dup2\n      add\n      sub(shl(0x40, 0x01), 0x01)\n        /* \"#utility.yul\":7919:7953   */\n      dup2\n      gt\n        /* \"#utility.yul\":7955:7977   */\n      dup3\n      dup3\n      lt\n        /* \"#utility.yul\":7916:7978   */\n      or\n        /* \"#utility.yul\":7913:8001   */\n      iszero\n      tag_362\n      jumpi\n        /* \"#utility.yul\":7981:7999   */\n      tag_362\n      tag_282\n      jump\t// in\n        /* \"#utility.yul\":8043:8318   */\n    tag_307:\n        /* \"#utility.yul\":8114:8116   */\n      0x40\n        /* \"#utility.yul\":8108:8117   */\n      mload\n        /* \"#utility.yul\":8179:8181   */\n      0x1f\n        /* \"#utility.yul\":8160:8173   */\n      dup3\n      add\n      not(0x1f)\n        /* \"#utility.yul\":8156:8183   */\n      and\n        /* \"#utility.yul\":8144:8184   */\n      dup2\n      add\n      sub(shl(0x40, 0x01), 0x01)\n        /* \"#utility.yul\":8199:8233   */\n      dup2\n      gt\n        /* \"#utility.yul\":8235:8257   */\n      dup3\n      dup3\n      lt\n        /* \"#utility.yul\":8196:8258   */\n      or\n        /* \"#utility.yul\":8193:8281   */\n      iszero\n      tag_368\n      jumpi\n        /* \"#utility.yul\":8261:8279   */\n      tag_368\n      tag_282\n      jump\t// in\n    tag_368:\n        /* \"#utility.yul\":8297:8299   */\n      0x40\n        /* \"#utility.yul\":8290:8312   */\n      mstore\n        /* \"#utility.yul\":8043:8318   */\n      swap2\n      swap1\n      pop\n      jump\t// out\n        /* \"#utility.yul\":8323:8853   */\n    tag_308:\n        /* \"#utility.yul\":8365:8370   */\n      0x00\n        /* \"#utility.yul\":8418:8421   */\n      dup3\n        /* \"#utility.yul\":8411:8415   */\n      0x1f\n        /* \"#utility.yul\":8403:8409   */\n      dup4\n        /* \"#utility.yul\":8399:8416   */\n      add\n        /* \"#utility.yul\":8395:8422   */\n      slt\n        /* \"#utility.yul\":8385:8440   */\n      tag_370\n      jumpi\n        /* \"#utility.yul\":8436:8437   */\n      0x00\n        /* \"#utility.yul\":8433:8434   */\n      dup1\n        /* \"#utility.yul\":8426:8438   */\n      revert\n        /* \"#utility.yul\":8385:8440   */\n    tag_370:\n        /* \"#utility.yul\":8472:8478   */\n      dup2\n        /* \"#utility.yul\":8459:8479   */\n      calldataload\n      sub(shl(0x40, 0x01), 0x01)\n        /* \"#utility.yul\":8494:8496   */\n      dup2\n        /* \"#utility.yul\":8491:8517   */\n      gt\n        /* \"#utility.yul\":8488:8540   */\n      iszero\n      tag_372\n      jumpi\n        /* \"#utility.yul\":8520:8538   */\n      tag_372\n      tag_282\n      jump\t// in\n    tag_372:\n        /* \"#utility.yul\":8564:8619   */\n      tag_373\n        /* \"#utility.yul\":8607:8609   */\n      0x1f\n        /* \"#utility.yul\":8588:8601   */\n      dup3\n      add\n      not(0x1f)\n        /* \"#utility.yul\":8584:8611   */\n      and\n        /* \"#utility.yul\":8613:8617   */\n      0x20\n        /* \"#utility.yul\":8580:8618   */\n      add\n        /* \"#utility.yul\":8564:8619   */\n      tag_307\n      jump\t// in\n    tag_373:\n        /* \"#utility.yul\":8644:8646   */\n      dup2\n        /* \"#utility.yul\":8635:8642   */\n      dup2\n        /* \"#utility.yul\":8628:8647   */\n      mstore\n        /* \"#utility.yul\":8690:8693   */\n      dup5\n        /* \"#utility.yul\":8683:8687   */\n      0x20\n        /* \"#utility.yul\":8678:8680   */\n      dup4\n        /* \"#utility.yul\":8670:8676   */\n      dup7\n        /* \"#utility.yul\":8666:8681   */\n      add\n        /* \"#utility.yul\":8662:8688   */\n      add\n        /* \"#utility.yul\":8659:8694   */\n      gt\n        /* \"#utility.yul\":8656:8711   */\n      iszero\n      tag_374\n      jumpi\n        /* \"#utility.yul\":8707:8708   */\n      0x00\n        /* \"#utility.yul\":8704:8705   */\n      dup1\n        /* \"#utility.yul\":8697:8709   */\n      revert\n        /* \"#utility.yul\":8656:8711   */\n    tag_374:\n        /* \"#utility.yul\":8772:8774   */\n      dup2\n        /* \"#utility.yul\":8765:8769   */\n      0x20\n        /* \"#utility.yul\":8757:8763   */\n      dup6\n        /* \"#utility.yul\":8753:8770   */\n      add\n        /* \"#utility.yul\":8746:8750   */\n      0x20\n        /* \"#utility.yul\":8737:8744   */\n      dup4\n        /* \"#utility.yul\":8733:8751   */\n      add\n        /* \"#utility.yul\":8720:8775   */\n      calldatacopy\n        /* \"#utility.yul\":8820:8821   */\n      0x00\n        /* \"#utility.yul\":8795:8811   */\n      swap2\n      dup2\n      add\n        /* \"#utility.yul\":8813:8817   */\n      0x20\n        /* \"#utility.yul\":8791:8818   */\n      add\n        /* \"#utility.yul\":8784:8822   */\n      swap2\n      swap1\n      swap2\n      mstore\n        /* \"#utility.yul\":8799:8806   */\n      swap4\n        /* \"#utility.yul\":8323:8853   */\n      swap3\n      pop\n      pop\n      pop\n      jump\t// out\n        /* \"#utility.yul\":8858:9855   */\n    tag_309:\n        /* \"#utility.yul\":8926:8931   */\n      0x00\n        /* \"#utility.yul\":8979:8982   */\n      dup3\n        /* \"#utility.yul\":8972:8976   */\n      0x1f\n        /* \"#utility.yul\":8964:8970   */\n      dup4\n        /* \"#utility.yul\":8960:8977   */\n      add\n        /* \"#utility.yul\":8956:8983   */\n      slt\n        /* \"#utility.yul\":8946:9001   */\n      tag_376\n      jumpi\n        /* \"#utility.yul\":8997:8998   */\n      0x00\n        /* \"#utility.yul\":8994:8995   */\n      dup1\n        /* \"#utility.yul\":8987:8999   */\n      revert\n        /* \"#utility.yul\":8946:9001   */\n    tag_376:\n        /* \"#utility.yul\":9033:9039   */\n      dup2\n        /* \"#utility.yul\":9020:9040   */\n      calldataload\n        /* \"#utility.yul\":9059:9063   */\n      0x20\n      sub(shl(0x40, 0x01), 0x01)\n        /* \"#utility.yul\":9078:9080   */\n      dup3\n        /* \"#utility.yul\":9075:9101   */\n      gt\n        /* \"#utility.yul\":9072:9124   */\n      iszero\n      tag_378\n      jumpi\n        /* \"#utility.yul\":9104:9122   */\n      tag_378\n      tag_282\n      jump\t// in\n    tag_378:\n        /* \"#utility.yul\":9144:9180   */\n      tag_379\n        /* \"#utility.yul\":9176:9178   */\n      dup2\n        /* \"#utility.yul\":9171:9173   */\n      dup4\n        /* \"#utility.yul\":9168:9169   */\n      0x05\n        /* \"#utility.yul\":9164:9174   */\n      shl\n        /* \"#utility.yul\":9160:9179   */\n      add\n        /* \"#utility.yul\":9144:9180   */\n      tag_307\n      jump\t// in\n    tag_379:\n        /* \"#utility.yul\":9214:9229   */\n      dup3\n      dup2\n      mstore\n        /* \"#utility.yul\":9300:9301   */\n      0x06\n        /* \"#utility.yul\":9296:9306   */\n      swap3\n      swap1\n      swap3\n      shl\n        /* \"#utility.yul\":9284:9307   */\n      dup5\n      add\n        /* \"#utility.yul\":9280:9312   */\n      dup2\n      add\n      swap2\n        /* \"#utility.yul\":9245:9257   */\n      dup2\n      dup2\n      add\n      swap1\n        /* \"#utility.yul\":9324:9339   */\n      dup7\n      dup5\n      gt\n        /* \"#utility.yul\":9321:9356   */\n      iszero\n      tag_380\n      jumpi\n        /* \"#utility.yul\":9352:9353   */\n      0x00\n        /* \"#utility.yul\":9349:9350   */\n      dup1\n        /* \"#utility.yul\":9342:9354   */\n      revert\n        /* \"#utility.yul\":9321:9356   */\n    tag_380:\n        /* \"#utility.yul\":9388:9390   */\n      dup3\n        /* \"#utility.yul\":9380:9386   */\n      dup7\n        /* \"#utility.yul\":9376:9391   */\n      add\n        /* \"#utility.yul\":9400:9826   */\n    tag_381:\n        /* \"#utility.yul\":9416:9422   */\n      dup5\n        /* \"#utility.yul\":9411:9414   */\n      dup2\n        /* \"#utility.yul\":9408:9423   */\n      lt\n        /* \"#utility.yul\":9400:9826   */\n      iszero\n      tag_383\n      jumpi\n        /* \"#utility.yul\":9494:9498   */\n      0x40\n        /* \"#utility.yul\":9488:9491   */\n      dup2\n        /* \"#utility.yul\":9483:9486   */\n      dup10\n        /* \"#utility.yul\":9479:9492   */\n      sub\n        /* \"#utility.yul\":9475:9499   */\n      slt\n        /* \"#utility.yul\":9472:9516   */\n      iszero\n      tag_384\n      jumpi\n        /* \"#utility.yul\":9512:9513   */\n      0x00\n        /* \"#utility.yul\":9509:9510   */\n      dup1\n        /* \"#utility.yul\":9502:9514   */\n      revert\n        /* \"#utility.yul\":9472:9516   */\n    tag_384:\n        /* \"#utility.yul\":9542:9564   */\n      tag_385\n      tag_305\n      jump\t// in\n    tag_385:\n        /* \"#utility.yul\":9605:9608   */\n      dup2\n        /* \"#utility.yul\":9592:9609   */\n      calldataload\n        /* \"#utility.yul\":9622:9655   */\n      tag_386\n        /* \"#utility.yul\":9647:9654   */\n      dup2\n        /* \"#utility.yul\":9622:9655   */\n      tag_303\n      jump\t// in\n    tag_386:\n        /* \"#utility.yul\":9668:9690   */\n      dup2\n      mstore\n        /* \"#utility.yul\":9739:9751   */\n      dup2\n      dup6\n      add\n        /* \"#utility.yul\":9726:9752   */\n      calldataload\n        /* \"#utility.yul\":9710:9724   */\n      dup6\n      dup3\n      add\n        /* \"#utility.yul\":9703:9753   */\n      mstore\n        /* \"#utility.yul\":9766:9784   */\n      dup4\n      mstore\n        /* \"#utility.yul\":9804:9816   */\n      swap2\n      dup4\n      add\n      swap2\n        /* \"#utility.yul\":9442:9446   */\n      0x40\n        /* \"#utility.yul\":9433:9447   */\n      add\n        /* \"#utility.yul\":9400:9826   */\n      jump(tag_381)\n    tag_383:\n      pop\n        /* \"#utility.yul\":9844:9849   */\n      swap7\n        /* \"#utility.yul\":8858:9855   */\n      swap6\n      pop\n      pop\n      pop\n      pop\n      pop\n      pop\n      jump\t// out\n        /* \"#utility.yul\":9860:10869   */\n    tag_174:\n        /* \"#utility.yul\":9974:9983   */\n      0x00\n        /* \"#utility.yul\":10033:10037   */\n      0xa0\n        /* \"#utility.yul\":10025:10030   */\n      dup3\n        /* \"#utility.yul\":10009:10023   */\n      calldatasize\n        /* \"#utility.yul\":10005:10031   */\n      sub\n        /* \"#utility.yul\":10001:10038   */\n      slt\n        /* \"#utility.yul\":9998:10055   */\n      iszero\n      tag_388\n      jumpi\n        /* \"#utility.yul\":10051:10052   */\n      0x00\n        /* \"#utility.yul\":10048:10049   */\n      dup1\n        /* \"#utility.yul\":10041:10053   */\n      revert\n        /* \"#utility.yul\":9998:10055   */\n    tag_388:\n        /* \"#utility.yul\":10079:10101   */\n      tag_389\n      tag_306\n      jump\t// in\n    tag_389:\n        /* \"#utility.yul\":10139:10144   */\n      dup3\n        /* \"#utility.yul\":10126:10145   */\n      calldataload\n        /* \"#utility.yul\":10117:10124   */\n      dup2\n        /* \"#utility.yul\":10110:10146   */\n      mstore\n        /* \"#utility.yul\":10180:10213   */\n      tag_390\n        /* \"#utility.yul\":10209:10211   */\n      0x20\n        /* \"#utility.yul\":10202:10207   */\n      dup5\n        /* \"#utility.yul\":10198:10212   */\n      add\n        /* \"#utility.yul\":10180:10213   */\n      tag_302\n      jump\t// in\n    tag_390:\n        /* \"#utility.yul\":10175:10177   */\n      0x20\n        /* \"#utility.yul\":10166:10173   */\n      dup3\n        /* \"#utility.yul\":10162:10178   */\n      add\n        /* \"#utility.yul\":10155:10214   */\n      mstore\n        /* \"#utility.yul\":10261:10263   */\n      0x40\n        /* \"#utility.yul\":10254:10259   */\n      dup4\n        /* \"#utility.yul\":10250:10264   */\n      add\n        /* \"#utility.yul\":10237:10265   */\n      calldataload\n      sub(shl(0x40, 0x01), 0x01)\n        /* \"#utility.yul\":10325:10327   */\n      dup1\n        /* \"#utility.yul\":10317:10323   */\n      dup3\n        /* \"#utility.yul\":10314:10328   */\n      gt\n        /* \"#utility.yul\":10311:10345   */\n      iszero\n      tag_391\n      jumpi\n        /* \"#utility.yul\":10341:10342   */\n      0x00\n        /* \"#utility.yul\":10338:10339   */\n      dup1\n        /* \"#utility.yul\":10331:10343   */\n      revert\n        /* \"#utility.yul\":10311:10345   */\n    tag_391:\n        /* \"#utility.yul\":10379:10431   */\n      tag_392\n        /* \"#utility.yul\":10416:10430   */\n      calldatasize\n        /* \"#utility.yul\":10407:10413   */\n      dup4\n        /* \"#utility.yul\":10400:10405   */\n      dup8\n        /* \"#utility.yul\":10396:10414   */\n      add\n        /* \"#utility.yul\":10379:10431   */\n      tag_308\n      jump\t// in\n    tag_392:\n        /* \"#utility.yul\":10374:10376   */\n      0x40\n        /* \"#utility.yul\":10365:10372   */\n      dup5\n        /* \"#utility.yul\":10361:10377   */\n      add\n        /* \"#utility.yul\":10354:10432   */\n      mstore\n        /* \"#utility.yul\":10481:10483   */\n      0x60\n        /* \"#utility.yul\":10474:10479   */\n      dup6\n        /* \"#utility.yul\":10470:10484   */\n      add\n        /* \"#utility.yul\":10457:10485   */\n      calldataload\n        /* \"#utility.yul\":10441:10485   */\n      swap2\n      pop\n        /* \"#utility.yul\":10510:10512   */\n      dup1\n        /* \"#utility.yul\":10500:10508   */\n      dup3\n        /* \"#utility.yul\":10497:10513   */\n      gt\n        /* \"#utility.yul\":10494:10530   */\n      iszero\n      tag_393\n      jumpi\n        /* \"#utility.yul\":10526:10527   */\n      0x00\n        /* \"#utility.yul\":10523:10524   */\n      dup1\n        /* \"#utility.yul\":10516:10528   */\n      revert\n        /* \"#utility.yul\":10494:10530   */\n    tag_393:\n        /* \"#utility.yul\":10564:10618   */\n      tag_394\n        /* \"#utility.yul\":10603:10617   */\n      calldatasize\n        /* \"#utility.yul\":10592:10600   */\n      dup4\n        /* \"#utility.yul\":10585:10590   */\n      dup8\n        /* \"#utility.yul\":10581:10601   */\n      add\n        /* \"#utility.yul\":10564:10618   */\n      tag_308\n      jump\t// in\n    tag_394:\n        /* \"#utility.yul\":10559:10561   */\n      0x60\n        /* \"#utility.yul\":10550:10557   */\n      dup5\n        /* \"#utility.yul\":10546:10562   */\n      add\n        /* \"#utility.yul\":10539:10619   */\n      mstore\n        /* \"#utility.yul\":10668:10671   */\n      0x80\n        /* \"#utility.yul\":10661:10666   */\n      dup6\n        /* \"#utility.yul\":10657:10672   */\n      add\n        /* \"#utility.yul\":10644:10673   */\n      calldataload\n        /* \"#utility.yul\":10628:10673   */\n      swap2\n      pop\n        /* \"#utility.yul\":10698:10700   */\n      dup1\n        /* \"#utility.yul\":10688:10696   */\n      dup3\n        /* \"#utility.yul\":10685:10701   */\n      gt\n        /* \"#utility.yul\":10682:10718   */\n      iszero\n      tag_395\n      jumpi\n        /* \"#utility.yul\":10714:10715   */\n      0x00\n        /* \"#utility.yul\":10711:10712   */\n      dup1\n        /* \"#utility.yul\":10704:10716   */\n      revert\n        /* \"#utility.yul\":10682:10718   */\n    tag_395:\n      pop\n        /* \"#utility.yul\":10753:10833   */\n      tag_396\n        /* \"#utility.yul\":10818:10832   */\n      calldatasize\n        /* \"#utility.yul\":10807:10815   */\n      dup3\n        /* \"#utility.yul\":10800:10805   */\n      dup7\n        /* \"#utility.yul\":10796:10816   */\n      add\n        /* \"#utility.yul\":10753:10833   */\n      tag_309\n      jump\t// in\n    tag_396:\n        /* \"#utility.yul\":10747:10750   */\n      0x80\n        /* \"#utility.yul\":10734:10751   */\n      dup4\n      add\n        /* \"#utility.yul\":10727:10834   */\n      mstore\n      pop\n        /* \"#utility.yul\":10738:10745   */\n      swap3\n        /* \"#utility.yul\":9860:10869   */\n      swap2\n      pop\n      pop\n      jump\t// out\n        /* \"#utility.yul\":11296:11547   */\n    tag_202:\n        /* \"#utility.yul\":11366:11372   */\n      0x00\n        /* \"#utility.yul\":11419:11421   */\n      0x20\n        /* \"#utility.yul\":11407:11416   */\n      dup3\n        /* \"#utility.yul\":11398:11405   */\n      dup5\n        /* \"#utility.yul\":11394:11417   */\n      sub\n        /* \"#utility.yul\":11390:11422   */\n      slt\n        /* \"#utility.yul\":11387:11439   */\n      iszero\n      tag_399\n      jumpi\n        /* \"#utility.yul\":11435:11436   */\n      0x00\n        /* \"#utility.yul\":11432:11433   */\n      dup1\n        /* \"#utility.yul\":11425:11437   */\n      revert\n        /* \"#utility.yul\":11387:11439   */\n    tag_399:\n        /* \"#utility.yul\":11467:11476   */\n      dup2\n        /* \"#utility.yul\":11461:11477   */\n      mload\n        /* \"#utility.yul\":11486:11517   */\n      tag_322\n        /* \"#utility.yul\":11511:11516   */\n      dup2\n        /* \"#utility.yul\":11486:11517   */\n      tag_303\n      jump\t// in\n        /* \"#utility.yul\":11552:11974   */\n    tag_310:\n        /* \"#utility.yul\":11593:11596   */\n      0x00\n        /* \"#utility.yul\":11631:11636   */\n      dup2\n        /* \"#utility.yul\":11625:11637   */\n      mload\n        /* \"#utility.yul\":11658:11664   */\n      dup1\n        /* \"#utility.yul\":11653:11656   */\n      dup5\n        /* \"#utility.yul\":11646:11665   */\n      mstore\n        /* \"#utility.yul\":11683:11684   */\n      0x00\n        /* \"#utility.yul\":11693:11855   */\n    tag_402:\n        /* \"#utility.yul\":11707:11713   */\n      dup2\n        /* \"#utility.yul\":11704:11705   */\n      dup2\n        /* \"#utility.yul\":11701:11714   */\n      lt\n        /* \"#utility.yul\":11693:11855   */\n      iszero\n      tag_404\n      jumpi\n        /* \"#utility.yul\":11769:11773   */\n      0x20\n        /* \"#utility.yul\":11825:11838   */\n      dup2\n      dup6\n      add\n        /* \"#utility.yul\":11821:11843   */\n      dup2\n      add\n        /* \"#utility.yul\":11815:11844   */\n      mload\n        /* \"#utility.yul\":11797:11808   */\n      dup7\n      dup4\n      add\n        /* \"#utility.yul\":11793:11813   */\n      dup3\n      add\n        /* \"#utility.yul\":11786:11845   */\n      mstore\n        /* \"#utility.yul\":11722:11734   */\n      add\n        /* \"#utility.yul\":11693:11855   */\n      jump(tag_402)\n    tag_404:\n        /* \"#utility.yul\":11697:11700   */\n      pop\n        /* \"#utility.yul\":11900:11901   */\n      0x00\n        /* \"#utility.yul\":11893:11897   */\n      0x20\n        /* \"#utility.yul\":11884:11890   */\n      dup3\n        /* \"#utility.yul\":11879:11882   */\n      dup7\n        /* \"#utility.yul\":11875:11891   */\n      add\n        /* \"#utility.yul\":11871:11898   */\n      add\n        /* \"#utility.yul\":11864:11902   */\n      mstore\n        /* \"#utility.yul\":11963:11967   */\n      0x20\n        /* \"#utility.yul\":11956:11958   */\n      0x1f\n        /* \"#utility.yul\":11952:11959   */\n      not\n        /* \"#utility.yul\":11947:11949   */\n      0x1f\n        /* \"#utility.yul\":11939:11945   */\n      dup4\n        /* \"#utility.yul\":11935:11950   */\n      add\n        /* \"#utility.yul\":11931:11960   */\n      and\n        /* \"#utility.yul\":11926:11929   */\n      dup6\n        /* \"#utility.yul\":11922:11961   */\n      add\n        /* \"#utility.yul\":11918:11968   */\n      add\n        /* \"#utility.yul\":11911:11968   */\n      swap2\n      pop\n      pop\n        /* \"#utility.yul\":11552:11974   */\n      swap3\n      swap2\n      pop\n      pop\n      jump\t// out\n        /* \"#utility.yul\":11979:13582   */\n    tag_204:\n        /* \"#utility.yul\":12159:12163   */\n      0x00\n        /* \"#utility.yul\":12188:12190   */\n      0x40\n      sub(shl(0x40, 0x01), 0x01)\n        /* \"#utility.yul\":12221:12227   */\n      dup6\n        /* \"#utility.yul\":12217:12248   */\n      and\n        /* \"#utility.yul\":12206:12215   */\n      dup4\n        /* \"#utility.yul\":12199:12249   */\n      mstore\n        /* \"#utility.yul\":12268:12270   */\n      0x20\n        /* \"#utility.yul\":12306:12308   */\n      0x40\n        /* \"#utility.yul\":12301:12303   */\n      dup2\n        /* \"#utility.yul\":12290:12299   */\n      dup6\n        /* \"#utility.yul\":12286:12304   */\n      add\n        /* \"#utility.yul\":12279:12309   */\n      mstore\n        /* \"#utility.yul\":12344:12350   */\n      dup5\n        /* \"#utility.yul\":12338:12351   */\n      mload\n        /* \"#utility.yul\":12387:12391   */\n      0xa0\n        /* \"#utility.yul\":12382:12384   */\n      0x40\n        /* \"#utility.yul\":12371:12380   */\n      dup7\n        /* \"#utility.yul\":12367:12385   */\n      add\n        /* \"#utility.yul\":12360:12392   */\n      mstore\n        /* \"#utility.yul\":12415:12466   */\n      tag_406\n        /* \"#utility.yul\":12461:12464   */\n      0xe0\n        /* \"#utility.yul\":12450:12459   */\n      dup7\n        /* \"#utility.yul\":12446:12465   */\n      add\n        /* \"#utility.yul\":12432:12444   */\n      dup3\n        /* \"#utility.yul\":12415:12466   */\n      tag_310\n      jump\t// in\n    tag_406:\n        /* \"#utility.yul\":12401:12466   */\n      swap1\n      pop\n        /* \"#utility.yul\":12515:12517   */\n      dup2\n        /* \"#utility.yul\":12507:12513   */\n      dup7\n        /* \"#utility.yul\":12503:12518   */\n      add\n        /* \"#utility.yul\":12497:12519   */\n      mload\n        /* \"#utility.yul\":12542:12544   */\n      0x3f\n        /* \"#utility.yul\":12538:12545   */\n      not\n        /* \"#utility.yul\":12609:12611   */\n      dup1\n        /* \"#utility.yul\":12597:12606   */\n      dup8\n        /* \"#utility.yul\":12589:12595   */\n      dup5\n        /* \"#utility.yul\":12585:12607   */\n      sub\n        /* \"#utility.yul\":12581:12612   */\n      add\n        /* \"#utility.yul\":12576:12578   */\n      0x60\n        /* \"#utility.yul\":12565:12574   */\n      dup9\n        /* \"#utility.yul\":12561:12579   */\n      add\n        /* \"#utility.yul\":12554:12613   */\n      mstore\n        /* \"#utility.yul\":12636:12676   */\n      tag_407\n        /* \"#utility.yul\":12669:12675   */\n      dup4\n        /* \"#utility.yul\":12653:12667   */\n      dup4\n        /* \"#utility.yul\":12636:12676   */\n      tag_310\n      jump\t// in\n    tag_407:\n        /* \"#utility.yul\":12725:12727   */\n      0x40\n        /* \"#utility.yul\":12713:12728   */\n      dup10\n      add\n        /* \"#utility.yul\":12707:12729   */\n      mload\n        /* \"#utility.yul\":12770:12792   */\n      dup9\n      dup3\n      sub\n        /* \"#utility.yul\":12766:12797   */\n      dup4\n      add\n        /* \"#utility.yul\":12760:12763   */\n      0x80\n        /* \"#utility.yul\":12745:12764   */\n      dup11\n      add\n        /* \"#utility.yul\":12738:12798   */\n      mstore\n        /* \"#utility.yul\":12847:12868   */\n      dup1\n      mload\n        /* \"#utility.yul\":12877:12899   */\n      dup1\n      dup4\n      mstore\n        /* \"#utility.yul\":12953:12976   */\n      swap1\n      dup7\n      add\n      swap5\n      pop\n        /* \"#utility.yul\":12994:12995   */\n      0x00\n      swap4\n      pop\n        /* \"#utility.yul\":12915:12930   */\n      swap1\n      dup6\n      add\n      swap1\n        /* \"#utility.yul\":13004:13284   */\n    tag_408:\n        /* \"#utility.yul\":13018:13024   */\n      dup1\n        /* \"#utility.yul\":13015:13016   */\n      dup5\n        /* \"#utility.yul\":13012:13025   */\n      lt\n        /* \"#utility.yul\":13004:13284   */\n      iszero\n      tag_410\n      jumpi\n        /* \"#utility.yul\":13077:13090   */\n      dup5\n      mload\n        /* \"#utility.yul\":13119:13128   */\n      dup1\n      mload\n      sub(shl(0xa0, 0x01), 0x01)\n        /* \"#utility.yul\":13115:13150   */\n      and\n        /* \"#utility.yul\":13103:13151   */\n      dup4\n      mstore\n        /* \"#utility.yul\":13191:13202   */\n      dup7\n      add\n        /* \"#utility.yul\":13185:13203   */\n      mload\n        /* \"#utility.yul\":13171:13183   */\n      dup7\n      dup4\n      add\n        /* \"#utility.yul\":13164:13204   */\n      mstore\n        /* \"#utility.yul\":13259:13274   */\n      swap4\n      dup6\n      add\n      swap4\n        /* \"#utility.yul\":13147:13148   */\n      0x01\n        /* \"#utility.yul\":13033:13042   */\n      swap4\n      swap1\n      swap4\n      add\n      swap3\n        /* \"#utility.yul\":13224:13236   */\n      swap1\n      dup7\n      add\n      swap1\n        /* \"#utility.yul\":13004:13284   */\n      jump(tag_408)\n    tag_410:\n      pop\n        /* \"#utility.yul\":13333:13335   */\n      0x60\n        /* \"#utility.yul\":13321:13336   */\n      dup10\n      add\n        /* \"#utility.yul\":13315:13337   */\n      mload\n      sub(shl(0xa0, 0x01), 0x01)\n        /* \"#utility.yul\":2536:2567   */\n      and\n        /* \"#utility.yul\":13396:13400   */\n      0xa0\n        /* \"#utility.yul\":13381:13401   */\n      dup10\n      add\n        /* \"#utility.yul\":2524:2568   */\n      mstore\n        /* \"#utility.yul\":13451:13454   */\n      0x80\n        /* \"#utility.yul\":13439:13455   */\n      dup10\n      add\n        /* \"#utility.yul\":13433:13456   */\n      mload\n        /* \"#utility.yul\":13497:13516   */\n      dup9\n      dup3\n      sub\n        /* \"#utility.yul\":13493:13521   */\n      dup4\n      add\n        /* \"#utility.yul\":13487:13490   */\n      0xc0\n        /* \"#utility.yul\":13472:13491   */\n      dup11\n      add\n        /* \"#utility.yul\":13465:13522   */\n      mstore\n        /* \"#utility.yul\":13433:13456   */\n      swap6\n      pop\n        /* \"#utility.yul\":13539:13576   */\n      tag_412\n        /* \"#utility.yul\":13501:13504   */\n      dup2\n        /* \"#utility.yul\":13433:13456   */\n      dup8\n        /* \"#utility.yul\":13539:13576   */\n      tag_310\n      jump\t// in\n    tag_412:\n        /* \"#utility.yul\":13531:13576   */\n      swap11\n        /* \"#utility.yul\":11979:13582   */\n      swap10\n      pop\n      pop\n      pop\n      pop\n      pop\n      pop\n      pop\n      pop\n      pop\n      pop\n      jump\t// out\n        /* \"#utility.yul\":13587:13771   */\n    tag_208:\n        /* \"#utility.yul\":13657:13663   */\n      0x00\n        /* \"#utility.yul\":13710:13712   */\n      0x20\n        /* \"#utility.yul\":13698:13707   */\n      dup3\n        /* \"#utility.yul\":13689:13696   */\n      dup5\n        /* \"#utility.yul\":13685:13708   */\n      sub\n        /* \"#utility.yul\":13681:13713   */\n      slt\n        /* \"#utility.yul\":13678:13730   */\n      iszero\n      tag_414\n      jumpi\n        /* \"#utility.yul\":13726:13727   */\n      0x00\n        /* \"#utility.yul\":13723:13724   */\n      dup1\n        /* \"#utility.yul\":13716:13728   */\n      revert\n        /* \"#utility.yul\":13678:13730   */\n    tag_414:\n      pop\n        /* \"#utility.yul\":13749:13765   */\n      mload\n      swap2\n        /* \"#utility.yul\":13587:13771   */\n      swap1\n      pop\n      jump\t// out\n        /* \"#utility.yul\":14842:15245   */\n    tag_245:\n        /* \"#utility.yul\":15044:15046   */\n      0x20\n        /* \"#utility.yul\":15026:15047   */\n      dup1\n      dup3\n      mstore\n        /* \"#utility.yul\":15083:15085   */\n      0x27\n        /* \"#utility.yul\":15063:15081   */\n      swap1\n      dup3\n      add\n        /* \"#utility.yul\":15056:15086   */\n      mstore\n        /* \"#utility.yul\":15122:15156   */\n      0x43726f7373436861696e466163696c697461746f723a20466565206f7574206f\n        /* \"#utility.yul\":15117:15119   */\n      0x40\n        /* \"#utility.yul\":15102:15120   */\n      dup3\n      add\n        /* \"#utility.yul\":15095:15157   */\n      mstore\n      shl(0xc8, 0x662072616e6765)\n        /* \"#utility.yul\":15188:15190   */\n      0x60\n        /* \"#utility.yul\":15173:15191   */\n      dup3\n      add\n        /* \"#utility.yul\":15166:15203   */\n      mstore\n        /* \"#utility.yul\":15235:15238   */\n      0x80\n        /* \"#utility.yul\":15220:15239   */\n      add\n      swap1\n        /* \"#utility.yul\":14842:15245   */\n      jump\t// out\n        /* \"#utility.yul\":16179:16893   */\n    tag_295:\n        /* \"#utility.yul\":16288:16294   */\n      0x00\n        /* \"#utility.yul\":16341:16343   */\n      0x60\n        /* \"#utility.yul\":16329:16338   */\n      dup3\n        /* \"#utility.yul\":16320:16327   */\n      dup5\n        /* \"#utility.yul\":16316:16339   */\n      sub\n        /* \"#utility.yul\":16312:16344   */\n      slt\n        /* \"#utility.yul\":16309:16361   */\n      iszero\n      tag_426\n      jumpi\n        /* \"#utility.yul\":16357:16358   */\n      0x00\n        /* \"#utility.yul\":16354:16355   */\n      dup1\n        /* \"#utility.yul\":16347:16359   */\n      revert\n        /* \"#utility.yul\":16309:16361   */\n    tag_426:\n        /* \"#utility.yul\":16390:16392   */\n      0x40\n        /* \"#utility.yul\":16384:16393   */\n      mload\n        /* \"#utility.yul\":16432:16434   */\n      0x60\n        /* \"#utility.yul\":16424:16430   */\n      dup2\n        /* \"#utility.yul\":16420:16435   */\n      add\n        /* \"#utility.yul\":16501:16507   */\n      dup2\n        /* \"#utility.yul\":16489:16499   */\n      dup2\n        /* \"#utility.yul\":16486:16508   */\n      lt\n      sub(shl(0x40, 0x01), 0x01)\n        /* \"#utility.yul\":16453:16463   */\n      dup3\n        /* \"#utility.yul\":16450:16484   */\n      gt\n        /* \"#utility.yul\":16447:16509   */\n      or\n        /* \"#utility.yul\":16444:16532   */\n      iszero\n      tag_428\n      jumpi\n        /* \"#utility.yul\":16512:16530   */\n      tag_428\n      tag_282\n      jump\t// in\n    tag_428:\n        /* \"#utility.yul\":16548:16550   */\n      0x40\n        /* \"#utility.yul\":16541:16563   */\n      mstore\n        /* \"#utility.yul\":16587:16603   */\n      dup3\n      mload\n        /* \"#utility.yul\":16572:16604   */\n      dup2\n      mstore\n        /* \"#utility.yul\":16647:16649   */\n      0x20\n        /* \"#utility.yul\":16632:16650   */\n      dup4\n      add\n        /* \"#utility.yul\":16626:16651   */\n      mload\n        /* \"#utility.yul\":16660:16691   */\n      tag_429\n        /* \"#utility.yul\":16626:16651   */\n      dup2\n        /* \"#utility.yul\":16660:16691   */\n      tag_303\n      jump\t// in\n    tag_429:\n        /* \"#utility.yul\":16719:16721   */\n      0x20\n        /* \"#utility.yul\":16707:16722   */\n      dup3\n      add\n        /* \"#utility.yul\":16700:16730   */\n      mstore\n        /* \"#utility.yul\":16775:16777   */\n      0x40\n        /* \"#utility.yul\":16760:16778   */\n      dup4\n      add\n        /* \"#utility.yul\":16754:16779   */\n      mload\n        /* \"#utility.yul\":16788:16821   */\n      tag_430\n        /* \"#utility.yul\":16754:16779   */\n      dup2\n        /* \"#utility.yul\":16788:16821   */\n      tag_303\n      jump\t// in\n    tag_430:\n        /* \"#utility.yul\":16849:16851   */\n      0x40\n        /* \"#utility.yul\":16837:16852   */\n      dup3\n      add\n        /* \"#utility.yul\":16830:16862   */\n      mstore\n        /* \"#utility.yul\":16841:16847   */\n      swap4\n        /* \"#utility.yul\":16179:16893   */\n      swap3\n      pop\n      pop\n      pop\n      jump\t// out\n\n    auxdata: 0xa2646970667358221220fb23a064dca458429325cdb461509a85150e48962f1992d9028dd0d13cce451d64736f6c63430008160033\n}\n",
				"bytecode": {
					"linkReferences": {},
					"object": "60e060405234801562000010575f80fd5b5060405162001f5238038062001f5283398101604081905262000033916200031e565b806001600160a01b03811662000063576040516335fdcccd60e21b81525f60048201526024015b60405180910390fd5b6001600160a01b031660805261271083118015906200008457506127108211155b620000e35760405162461bcd60e51b815260206004820152602860248201527f43726f7373436861696e466163696c697461746f723a2046656573206f7574206044820152676f662072616e676560c01b60648201526084016200005a565b6001600160a01b0380881660a052861660c05262000101856200012f565b6200010c836200017e565b620001178262000216565b6200012284620002a7565b505050505050506200039c565b5f80546001600160a01b038381166001600160a01b0319831681178455604051919092169283917f13f4413d8d93a259bd6c10f35095371f30ed50f81a73407e52e9f02000d5d16b9190a35050565b612710811115620001d05760405162461bcd60e51b815260206004820152602760248201525f8051602062001f32833981519152604482015266662072616e676560c81b60648201526084016200005a565b600180549082905560408051828152602081018490527f7864bf708cae822050e5f50960a0de31bd6fe7620a8f67a48582fb95f29c114a91015b60405180910390a15050565b612710811115620002685760405162461bcd60e51b815260206004820152602760248201525f8051602062001f32833981519152604482015266662072616e676560c81b60648201526084016200005a565b600280549082905560408051828152602081018490527f940334a9f5c76529ad9447ac490c2073b06d880209383a3d3e4b0ecab72a0d9991016200020a565b600380546001600160a01b038381166001600160a01b031983168117909355604080519190921680825260208201939093527f52818c14b633bbaafd64ff307400cefea0d830f2f9ee8e8ed1ed04a2baed191e91016200020a565b80516001600160a01b038116811462000319575f80fd5b919050565b5f805f805f805f60e0888a03121562000335575f80fd5b620003408862000302565b9650620003506020890162000302565b9550620003606040890162000302565b9450620003706060890162000302565b93506080880151925060a088015191506200038e60c0890162000302565b905092959891949750929550565b60805160a05160c051611b10620004225f395f81816103210152818161043201526105a001525f81816102770152818161036d015281816106cd01528181610779015281816107ea0152818161093501528181610d3201528181610db401528181610eef015281816110af015261115b01525f818161022e015261089a0152611b105ff3fe6080604052600436106100fa575f3560e01c80639a17d8c111610092578063d09f336011610062578063d09f3360146102ae578063dc49a07b146102c1578063de4c8817146102d5578063e28178cc146102f4578063fa56927414610310575f80fd5b80639a17d8c11461020c578063b0f479a114610220578063b1c660f714610266578063bc063e1a14610299575f80fd5b80637a5caab3116100cd5780637a5caab31461019157806384017e52146101af57806385572ffb146101ce5780638577a6d5146101ed575f80fd5b80630123ad04146100fe57806301ffc9a71461011f5780631fde40bb14610153578063788a19c714610172575b5f80fd5b348015610109575f80fd5b5061011d61011836600461147c565b610343565b005b34801561012a575f80fd5b5061013e6101393660046114b1565b610512565b60405190151581526020015b60405180910390f35b34801561015e575f80fd5b5061011d61016d3660046114df565b610548565b34801561017d575f80fd5b5061011d61018c3660046114fa565b61057e565b34801561019c575f80fd5b506001545b60405190815260200161014a565b3480156101ba575f80fd5b5061011d6101c936600461151d565b61085c565b3480156101d9575f80fd5b5061011d6101e8366004611534565b61088f565b3480156101f8575f80fd5b5061011d61020736600461151d565b6108eb565b348015610217575f80fd5b506002546101a1565b34801561022b575f80fd5b507f00000000000000000000000000000000000000000000000000000000000000005b6040516001600160a01b03909116815260200161014a565b348015610271575f80fd5b5061024e7f000000000000000000000000000000000000000000000000000000000000000081565b3480156102a4575f80fd5b506101a161271081565b6101a16102bc36600461156a565b61091e565b3480156102cc575f80fd5b5061011d610cdc565b3480156102e0575f80fd5b5061011d6102ef36600461147c565b610e11565b3480156102ff575f80fd5b505f546001600160a01b031661024e565b34801561031b575f80fd5b5061024e7f000000000000000000000000000000000000000000000000000000000000000081565b6040516323b872dd60e01b81523360048201523060248201526001600160401b03831660448201527f00000000000000000000000000000000000000000000000000000000000000006001600160a01b0316906323b872dd906064016020604051808303815f875af11580156103bb573d5f803e3d5ffd5b505050506040513d601f19601f820116820180604052508101906103df91906115a7565b6104045760405162461bcd60e51b81526004016103fb906115c6565b60405180910390fd5b60405163a9059cbb60e01b81526001600160a01b0382811660048301526001600160401b03841660248301527f0000000000000000000000000000000000000000000000000000000000000000169063a9059cbb906044016020604051808303815f875af1158015610478573d5f803e3d5ffd5b505050506040513d601f19601f8201168201806040525081019061049c91906115a7565b61050e5760405162461bcd60e51b815260206004820152603960248201527f43726f7373436861696e466163696c697461746f723a204661696c656420746f60448201527f207472616e73666572205553444320746f20616464726573730000000000000060648201526084016103fb565b5050565b5f6001600160e01b031982166385572ffb60e01b148061054257506001600160e01b031982166301ffc9a760e01b145b92915050565b6003546001600160a01b031633146105725760405162461bcd60e51b81526004016103fb90611623565b61057b81610e73565b50565b6040516323b872dd60e01b8152336004820152306024820152604481018390527f00000000000000000000000000000000000000000000000000000000000000006001600160a01b0316906323b872dd906064016020604051808303815f875af11580156105ee573d5f803e3d5ffd5b505050506040513d601f19601f8201168201806040525081019061061291906115a7565b6106845760405162461bcd60e51b815260206004820152603d60248201527f43726f7373436861696e466163696c697461746f723a204661696c656420746f60448201527f207472616e73666572205553444320746f20666163696c697461746f7200000060648201526084016103fb565b5f61068e83610ec2565b905061069a8184611678565b6106a2610ed8565b106107535760405163a9059cbb60e01b81526001600160a01b038381166004830152602482018590527f0000000000000000000000000000000000000000000000000000000000000000169063a9059cbb906044016020604051808303815f875af1158015610713573d5f803e3d5ffd5b505050506040513d601f19601f8201168201806040525081019061073791906115a7565b508060045f8282546107499190611678565b9091555050505050565b6040516340c10f1960e01b81526001600160a01b038381166004830152602482018590527f000000000000000000000000000000000000000000000000000000000000000016906340c10f19906044015f604051808303815f87803b1580156107ba575f80fd5b505af11580156107cc573d5f803e3d5ffd5b50506040516340c10f1960e01b8152306004820152602481018490527f00000000000000000000000000000000000000000000000000000000000000006001600160a01b031692506340c10f1991506044015f604051808303815f87803b158015610835575f80fd5b505af1158015610847573d5f803e3d5ffd5b505050508060045f8282546107499190611678565b6003546001600160a01b031633146108865760405162461bcd60e51b81526004016103fb90611623565b61057b81610f65565b336001600160a01b037f000000000000000000000000000000000000000000000000000000000000000016146108da576040516335fdcccd60e21b81523360048201526024016103fb565b61057b6108e682611837565b610fcd565b6003546001600160a01b031633146109155760405162461bcd60e51b81526004016103fb90611623565b61057b8161122c565b5f806109298461128c565b90506001600160a01b037f0000000000000000000000000000000000000000000000000000000000000000166323b872dd33306109668589611678565b6040516001600160e01b031960e086901b1681526001600160a01b03938416600482015292909116602483015260448201526064016020604051808303815f875af11580156109b7573d5f803e3d5ffd5b505050506040513d601f19601f820116820180604052508101906109db91906115a7565b6109f75760405162461bcd60e51b81526004016103fb906115c6565b6001600160401b0385165f908152600560205260409020546001600160a01b031680610a835760405162461bcd60e51b815260206004820152603560248201527f43726f7373436861696e466163696c697461746f723a2054617267657420636860448201527430b4b71034b9903737ba1039bab83837b93a32b21760591b60648201526084016103fb565b604080516060810182528681526001600160a01b038616602082015233918101919091525f610ab38383836112a2565b90505f306001600160a01b031663b0f479a16040518163ffffffff1660e01b8152600401602060405180830381865afa158015610af2573d5f803e3d5ffd5b505050506040513d601f19601f82011682018060405250810190610b1691906118de565b90505f816001600160a01b03166320487ded8b856040518363ffffffff1660e01b8152600401610b4792919061193c565b602060405180830381865afa158015610b62573d5f803e3d5ffd5b505050506040513d601f19601f82011682018060405250810190610b869190611a16565b905034811115610bfe5760405162461bcd60e51b815260206004820152603860248201527f43726f7373436861696e466163696c697461746f723a204e6f7420656e6f756760448201527f682062616c616e636520746f20636f76657220666565732e000000000000000060648201526084016103fb565b6040516396f4e9f960e01b81526001600160a01b038316906396f4e9f9908390610c2e908e90889060040161193c565b60206040518083038185885af1158015610c4a573d5f803e3d5ffd5b50505050506040513d601f19601f82011682018060405250810190610c6f9190611a16565b604080516001600160a01b038b168152602081018c90525f818301526060810184905290519198506001600160401b038c169189917feea8a479f07983d1364c4330c9bf3442a1cd421b79b16909bcc1867188ea676b919081900360800190a35050505050509392505050565b6003546001600160a01b03163314610d065760405162461bcd60e51b81526004016103fb90611623565b5f546004805460405163a9059cbb60e01b81526001600160a01b039384169281019290925260248201527f00000000000000000000000000000000000000000000000000000000000000009091169063a9059cbb906044016020604051808303815f875af1158015610d7a573d5f803e3d5ffd5b505050506040513d601f19601f82011682018060405250810190610d9e91906115a7565b505f600481905580546040516001600160a01b037f00000000000000000000000000000000000000000000000000000000000000008116939216917fb29fcda740927812f5a71075b62e132bead3769a455319c29b9a1cc461a6547591610e0791815260200190565b60405180910390a3565b6003546001600160a01b03163314610e3b5760405162461bcd60e51b81526004016103fb90611623565b6001600160401b03919091165f90815260056020526040902080546001600160a01b0319166001600160a01b03909216919091179055565b5f80546001600160a01b038381166001600160a01b0319831681178455604051919092169283917f13f4413d8d93a259bd6c10f35095371f30ed50f81a73407e52e9f02000d5d16b9190a35050565b5f610542600154836113fb90919063ffffffff16565b6040516370a0823160e01b81523060048201525f907f00000000000000000000000000000000000000000000000000000000000000006001600160a01b0316906370a0823190602401602060405180830381865afa158015610f3c573d5f803e3d5ffd5b505050506040513d601f19601f82011682018060405250810190610f609190611a16565b905090565b612710811115610f875760405162461bcd60e51b81526004016103fb90611a2d565b600180549082905560408051828152602081018490527f7864bf708cae822050e5f50960a0de31bd6fe7620a8f67a48582fb95f29c114a91015b60405180910390a15050565b8060400151806020019051810190610fe591906118de565b6020808301516001600160401b03165f908152600590915260409020546001600160a01b039081169116146110705760405162461bcd60e51b815260206004820152602b60248201527f43726f7373436861696e466163696c697461746f723a2053656e646572206e6f60448201526a3a1030b8383937bb32b21760a91b60648201526084016103fb565b5f61107e826060015161141f565b805190915061108b610ed8565b111561113c576020810151815160405163a9059cbb60e01b81526001600160a01b037f0000000000000000000000000000000000000000000000000000000000000000169263a9059cbb926110f6926004016001600160a01b03929092168252602082015260400190565b6020604051808303815f875af1158015611112573d5f803e3d5ffd5b505050506040513d601f19601f8201168201806040525081019061113691906115a7565b506111bb565b80516040516340c10f1960e01b815230600482015260248101919091527f00000000000000000000000000000000000000000000000000000000000000006001600160a01b0316906340c10f19906044015f604051808303815f87803b1580156111a4575f80fd5b505af11580156111b6573d5f803e3d5ffd5b505050505b602080830151835183830151604080860151865182516001600160a01b03948516815293909116958301959095528101939093526001600160401b03909116917f4f9fc06f5f4dc447952ea2eb4a0cda7a5736686f29e607951e0ab1b895f97f379060600160405180910390a35050565b61271081111561124e5760405162461bcd60e51b81526004016103fb90611a2d565b600280549082905560408051828152602081018490527f940334a9f5c76529ad9447ac490c2073b06d880209383a3d3e4b0ecab72a0d999101610fc1565b5f610542600254836113fb90919063ffffffff16565b6112dc6040518060a001604052806060815260200160608152602001606081526020015f6001600160a01b03168152602001606081525090565b604080518451602080830191909152808601516001600160a01b039081168385015286840151811660608085019190915284518085039091018152610120840185529088166101408085019190915284518085039091018152610160840185526080840190815260a0840182905284515f8082529381019095529093909260c00191611389565b604080518082019091525f80825260208201528152602001906001900390816113635790505b508152602001846001600160a01b031681526020016113f0604051806020016040528062030d4081525060408051915160248084019190915281518084039091018152604490920190526020810180516001600160e01b03166397a657c960e01b17905290565b905295945050505050565b5f81156113881983900484111517611411575f80fd5b506127109102611388010490565b604080516060810182525f808252602080830182905292820152825190916105429184018101908401611a74565b80356001600160401b0381168114611463575f80fd5b919050565b6001600160a01b038116811461057b575f80fd5b5f806040838503121561148d575f80fd5b6114968361144d565b915060208301356114a681611468565b809150509250929050565b5f602082840312156114c1575f80fd5b81356001600160e01b0319811681146114d8575f80fd5b9392505050565b5f602082840312156114ef575f80fd5b81356114d881611468565b5f806040838503121561150b575f80fd5b8235915060208301356114a681611468565b5f6020828403121561152d575f80fd5b5035919050565b5f60208284031215611544575f80fd5b81356001600160401b03811115611559575f80fd5b820160a081850312156114d8575f80fd5b5f805f6060848603121561157c575f80fd5b6115858461144d565b925060208401359150604084013561159c81611468565b809150509250925092565b5f602082840312156115b7575f80fd5b815180151581146114d8575f80fd5b6020808252603c908201527f43726f7373436861696e466163696c697461746f723a204661696c656420746f60408201527f207472616e736665722047484f20746f20666163696c697461746f7200000000606082015260800190565b60208082526035908201527f43726f7373436861696e466163696c697461746f723a204f6e6c7920416176656040820152741023b7bb32b93730b731b29031b0b71031b0b6361760591b606082015260800190565b8082018082111561054257634e487b7160e01b5f52601160045260245ffd5b634e487b7160e01b5f52604160045260245ffd5b604080519081016001600160401b03811182821017156116cd576116cd611697565b60405290565b60405160a081016001600160401b03811182821017156116cd576116cd611697565b604051601f8201601f191681016001600160401b038111828210171561171d5761171d611697565b604052919050565b5f82601f830112611734575f80fd5b81356001600160401b0381111561174d5761174d611697565b611760601f8201601f19166020016116f5565b818152846020838601011115611774575f80fd5b816020850160208301375f918101602001919091529392505050565b5f82601f83011261179f575f80fd5b813560206001600160401b038211156117ba576117ba611697565b6117c8818360051b016116f5565b82815260069290921b840181019181810190868411156117e6575f80fd5b8286015b8481101561182c5760408189031215611801575f80fd5b6118096116ab565b813561181481611468565b815281850135858201528352918301916040016117ea565b509695505050505050565b5f60a08236031215611847575f80fd5b61184f6116d3565b8235815261185f6020840161144d565b602082015260408301356001600160401b038082111561187d575f80fd5b61188936838701611725565b604084015260608501359150808211156118a1575f80fd5b6118ad36838701611725565b606084015260808501359150808211156118c5575f80fd5b506118d236828601611790565b60808301525092915050565b5f602082840312156118ee575f80fd5b81516114d881611468565b5f81518084525f5b8181101561191d57602081850181015186830182015201611901565b505f602082860101526020601f19601f83011685010191505092915050565b5f60406001600160401b03851683526020604081850152845160a0604086015261196960e08601826118f9565b905081860151603f198087840301606088015261198683836118f9565b6040890151888203830160808a0152805180835290860194505f9350908501905b808410156119d957845180516001600160a01b03168352860151868301529385019360019390930192908601906119a7565b5060608901516001600160a01b031660a08901526080890151888203830160c08a01529550611a0881876118f9565b9a9950505050505050505050565b5f60208284031215611a26575f80fd5b5051919050565b60208082526027908201527f43726f7373436861696e466163696c697461746f723a20466565206f7574206f604082015266662072616e676560c81b606082015260800190565b5f60608284031215611a84575f80fd5b604051606081018181106001600160401b0382111715611aa657611aa6611697565b604052825181526020830151611abb81611468565b60208201526040830151611ace81611468565b6040820152939250505056fea2646970667358221220fb23a064dca458429325cdb461509a85150e48962f1992d9028dd0d13cce451d64736f6c6343000816003343726f7373436861696e466163696c697461746f723a20466565206f7574206f",
					"opcodes": "PUSH1 0xE0 PUSH1 0x40 MSTORE CALLVALUE DUP1 ISZERO PUSH3 0x10 JUMPI PUSH0 DUP1 REVERT JUMPDEST POP PUSH1 0x40 MLOAD PUSH3 0x1F52 CODESIZE SUB DUP1 PUSH3 0x1F52 DUP4 CODECOPY DUP2 ADD PUSH1 0x40 DUP2 SWAP1 MSTORE PUSH3 0x33 SWAP2 PUSH3 0x31E JUMP JUMPDEST DUP1 PUSH1 0x1 PUSH1 0x1 PUSH1 0xA0 SHL SUB DUP2 AND PUSH3 0x63 JUMPI PUSH1 0x40 MLOAD PUSH4 0x35FDCCCD PUSH1 0xE2 SHL DUP2 MSTORE PUSH0 PUSH1 0x4 DUP3 ADD MSTORE PUSH1 0x24 ADD JUMPDEST PUSH1 0x40 MLOAD DUP1 SWAP2 SUB SWAP1 REVERT JUMPDEST PUSH1 0x1 PUSH1 0x1 PUSH1 0xA0 SHL SUB AND PUSH1 0x80 MSTORE PUSH2 0x2710 DUP4 GT DUP1 ISZERO SWAP1 PUSH3 0x84 JUMPI POP PUSH2 0x2710 DUP3 GT ISZERO JUMPDEST PUSH3 0xE3 JUMPI PUSH1 0x40 MLOAD PUSH3 0x461BCD PUSH1 0xE5 SHL DUP2 MSTORE PUSH1 0x20 PUSH1 0x4 DUP3 ADD MSTORE PUSH1 0x28 PUSH1 0x24 DUP3 ADD MSTORE PUSH32 0x43726F7373436861696E466163696C697461746F723A2046656573206F757420 PUSH1 0x44 DUP3 ADD MSTORE PUSH8 0x6F662072616E6765 PUSH1 0xC0 SHL PUSH1 0x64 DUP3 ADD MSTORE PUSH1 0x84 ADD PUSH3 0x5A JUMP JUMPDEST PUSH1 0x1 PUSH1 0x1 PUSH1 0xA0 SHL SUB DUP1 DUP9 AND PUSH1 0xA0 MSTORE DUP7 AND PUSH1 0xC0 MSTORE PUSH3 0x101 DUP6 PUSH3 0x12F JUMP JUMPDEST PUSH3 0x10C DUP4 PUSH3 0x17E JUMP JUMPDEST PUSH3 0x117 DUP3 PUSH3 0x216 JUMP JUMPDEST PUSH3 0x122 DUP5 PUSH3 0x2A7 JUMP JUMPDEST POP POP POP POP POP POP POP PUSH3 0x39C JUMP JUMPDEST PUSH0 DUP1 SLOAD PUSH1 0x1 PUSH1 0x1 PUSH1 0xA0 SHL SUB DUP4 DUP2 AND PUSH1 0x1 PUSH1 0x1 PUSH1 0xA0 SHL SUB NOT DUP4 AND DUP2 OR DUP5 SSTORE PUSH1 0x40 MLOAD SWAP2 SWAP1 SWAP3 AND SWAP3 DUP4 SWAP2 PUSH32 0x13F4413D8D93A259BD6C10F35095371F30ED50F81A73407E52E9F02000D5D16B SWAP2 SWAP1 LOG3 POP POP JUMP JUMPDEST PUSH2 0x2710 DUP2 GT ISZERO PUSH3 0x1D0 JUMPI PUSH1 0x40 MLOAD PUSH3 0x461BCD PUSH1 0xE5 SHL DUP2 MSTORE PUSH1 0x20 PUSH1 0x4 DUP3 ADD MSTORE PUSH1 0x27 PUSH1 0x24 DUP3 ADD MSTORE PUSH0 DUP1 MLOAD PUSH1 0x20 PUSH3 0x1F32 DUP4 CODECOPY DUP2 MLOAD SWAP2 MSTORE PUSH1 0x44 DUP3 ADD MSTORE PUSH7 0x662072616E6765 PUSH1 0xC8 SHL PUSH1 0x64 DUP3 ADD MSTORE PUSH1 0x84 ADD PUSH3 0x5A JUMP JUMPDEST PUSH1 0x1 DUP1 SLOAD SWAP1 DUP3 SWAP1 SSTORE PUSH1 0x40 DUP1 MLOAD DUP3 DUP2 MSTORE PUSH1 0x20 DUP2 ADD DUP5 SWAP1 MSTORE PUSH32 0x7864BF708CAE822050E5F50960A0DE31BD6FE7620A8F67A48582FB95F29C114A SWAP2 ADD JUMPDEST PUSH1 0x40 MLOAD DUP1 SWAP2 SUB SWAP1 LOG1 POP POP JUMP JUMPDEST PUSH2 0x2710 DUP2 GT ISZERO PUSH3 0x268 JUMPI PUSH1 0x40 MLOAD PUSH3 0x461BCD PUSH1 0xE5 SHL DUP2 MSTORE PUSH1 0x20 PUSH1 0x4 DUP3 ADD MSTORE PUSH1 0x27 PUSH1 0x24 DUP3 ADD MSTORE PUSH0 DUP1 MLOAD PUSH1 0x20 PUSH3 0x1F32 DUP4 CODECOPY DUP2 MLOAD SWAP2 MSTORE PUSH1 0x44 DUP3 ADD MSTORE PUSH7 0x662072616E6765 PUSH1 0xC8 SHL PUSH1 0x64 DUP3 ADD MSTORE PUSH1 0x84 ADD PUSH3 0x5A JUMP JUMPDEST PUSH1 0x2 DUP1 SLOAD SWAP1 DUP3 SWAP1 SSTORE PUSH1 0x40 DUP1 MLOAD DUP3 DUP2 MSTORE PUSH1 0x20 DUP2 ADD DUP5 SWAP1 MSTORE PUSH32 0x940334A9F5C76529AD9447AC490C2073B06D880209383A3D3E4B0ECAB72A0D99 SWAP2 ADD PUSH3 0x20A JUMP JUMPDEST PUSH1 0x3 DUP1 SLOAD PUSH1 0x1 PUSH1 0x1 PUSH1 0xA0 SHL SUB DUP4 DUP2 AND PUSH1 0x1 PUSH1 0x1 PUSH1 0xA0 SHL SUB NOT DUP4 AND DUP2 OR SWAP1 SWAP4 SSTORE PUSH1 0x40 DUP1 MLOAD SWAP2 SWAP1 SWAP3 AND DUP1 DUP3 MSTORE PUSH1 0x20 DUP3 ADD SWAP4 SWAP1 SWAP4 MSTORE PUSH32 0x52818C14B633BBAAFD64FF307400CEFEA0D830F2F9EE8E8ED1ED04A2BAED191E SWAP2 ADD PUSH3 0x20A JUMP JUMPDEST DUP1 MLOAD PUSH1 0x1 PUSH1 0x1 PUSH1 0xA0 SHL SUB DUP2 AND DUP2 EQ PUSH3 0x319 JUMPI PUSH0 DUP1 REVERT JUMPDEST SWAP2 SWAP1 POP JUMP JUMPDEST PUSH0 DUP1 PUSH0 DUP1 PUSH0 DUP1 PUSH0 PUSH1 0xE0 DUP9 DUP11 SUB SLT ISZERO PUSH3 0x335 JUMPI PUSH0 DUP1 REVERT JUMPDEST PUSH3 0x340 DUP9 PUSH3 0x302 JUMP JUMPDEST SWAP7 POP PUSH3 0x350 PUSH1 0x20 DUP10 ADD PUSH3 0x302 JUMP JUMPDEST SWAP6 POP PUSH3 0x360 PUSH1 0x40 DUP10 ADD PUSH3 0x302 JUMP JUMPDEST SWAP5 POP PUSH3 0x370 PUSH1 0x60 DUP10 ADD PUSH3 0x302 JUMP JUMPDEST SWAP4 POP PUSH1 0x80 DUP9 ADD MLOAD SWAP3 POP PUSH1 0xA0 DUP9 ADD MLOAD SWAP2 POP PUSH3 0x38E PUSH1 0xC0 DUP10 ADD PUSH3 0x302 JUMP JUMPDEST SWAP1 POP SWAP3 SWAP6 SWAP9 SWAP2 SWAP5 SWAP8 POP SWAP3 SWAP6 POP JUMP JUMPDEST PUSH1 0x80 MLOAD PUSH1 0xA0 MLOAD PUSH1 0xC0 MLOAD PUSH2 0x1B10 PUSH3 0x422 PUSH0 CODECOPY PUSH0 DUP2 DUP2 PUSH2 0x321 ADD MSTORE DUP2 DUP2 PUSH2 0x432 ADD MSTORE PUSH2 0x5A0 ADD MSTORE PUSH0 DUP2 DUP2 PUSH2 0x277 ADD MSTORE DUP2 DUP2 PUSH2 0x36D ADD MSTORE DUP2 DUP2 PUSH2 0x6CD ADD MSTORE DUP2 DUP2 PUSH2 0x779 ADD MSTORE DUP2 DUP2 PUSH2 0x7EA ADD MSTORE DUP2 DUP2 PUSH2 0x935 ADD MSTORE DUP2 DUP2 PUSH2 0xD32 ADD MSTORE DUP2 DUP2 PUSH2 0xDB4 ADD MSTORE DUP2 DUP2 PUSH2 0xEEF ADD MSTORE DUP2 DUP2 PUSH2 0x10AF ADD MSTORE PUSH2 0x115B ADD MSTORE PUSH0 DUP2 DUP2 PUSH2 0x22E ADD MSTORE PUSH2 0x89A ADD MSTORE PUSH2 0x1B10 PUSH0 RETURN INVALID PUSH1 0x80 PUSH1 0x40 MSTORE PUSH1 0x4 CALLDATASIZE LT PUSH2 0xFA JUMPI PUSH0 CALLDATALOAD PUSH1 0xE0 SHR DUP1 PUSH4 0x9A17D8C1 GT PUSH2 0x92 JUMPI DUP1 PUSH4 0xD09F3360 GT PUSH2 0x62 JUMPI DUP1 PUSH4 0xD09F3360 EQ PUSH2 0x2AE JUMPI DUP1 PUSH4 0xDC49A07B EQ PUSH2 0x2C1 JUMPI DUP1 PUSH4 0xDE4C8817 EQ PUSH2 0x2D5 JUMPI DUP1 PUSH4 0xE28178CC EQ PUSH2 0x2F4 JUMPI DUP1 PUSH4 0xFA569274 EQ PUSH2 0x310 JUMPI PUSH0 DUP1 REVERT JUMPDEST DUP1 PUSH4 0x9A17D8C1 EQ PUSH2 0x20C JUMPI DUP1 PUSH4 0xB0F479A1 EQ PUSH2 0x220 JUMPI DUP1 PUSH4 0xB1C660F7 EQ PUSH2 0x266 JUMPI DUP1 PUSH4 0xBC063E1A EQ PUSH2 0x299 JUMPI PUSH0 DUP1 REVERT JUMPDEST DUP1 PUSH4 0x7A5CAAB3 GT PUSH2 0xCD JUMPI DUP1 PUSH4 0x7A5CAAB3 EQ PUSH2 0x191 JUMPI DUP1 PUSH4 0x84017E52 EQ PUSH2 0x1AF JUMPI DUP1 PUSH4 0x85572FFB EQ PUSH2 0x1CE JUMPI DUP1 PUSH4 0x8577A6D5 EQ PUSH2 0x1ED JUMPI PUSH0 DUP1 REVERT JUMPDEST DUP1 PUSH4 0x123AD04 EQ PUSH2 0xFE JUMPI DUP1 PUSH4 0x1FFC9A7 EQ PUSH2 0x11F JUMPI DUP1 PUSH4 0x1FDE40BB EQ PUSH2 0x153 JUMPI DUP1 PUSH4 0x788A19C7 EQ PUSH2 0x172 JUMPI JUMPDEST PUSH0 DUP1 REVERT JUMPDEST CALLVALUE DUP1 ISZERO PUSH2 0x109 JUMPI PUSH0 DUP1 REVERT JUMPDEST POP PUSH2 0x11D PUSH2 0x118 CALLDATASIZE PUSH1 0x4 PUSH2 0x147C JUMP JUMPDEST PUSH2 0x343 JUMP JUMPDEST STOP JUMPDEST CALLVALUE DUP1 ISZERO PUSH2 0x12A JUMPI PUSH0 DUP1 REVERT JUMPDEST POP PUSH2 0x13E PUSH2 0x139 CALLDATASIZE PUSH1 0x4 PUSH2 0x14B1 JUMP JUMPDEST PUSH2 0x512 JUMP JUMPDEST PUSH1 0x40 MLOAD SWAP1 ISZERO ISZERO DUP2 MSTORE PUSH1 0x20 ADD JUMPDEST PUSH1 0x40 MLOAD DUP1 SWAP2 SUB SWAP1 RETURN JUMPDEST CALLVALUE DUP1 ISZERO PUSH2 0x15E JUMPI PUSH0 DUP1 REVERT JUMPDEST POP PUSH2 0x11D PUSH2 0x16D CALLDATASIZE PUSH1 0x4 PUSH2 0x14DF JUMP JUMPDEST PUSH2 0x548 JUMP JUMPDEST CALLVALUE DUP1 ISZERO PUSH2 0x17D JUMPI PUSH0 DUP1 REVERT JUMPDEST POP PUSH2 0x11D PUSH2 0x18C CALLDATASIZE PUSH1 0x4 PUSH2 0x14FA JUMP JUMPDEST PUSH2 0x57E JUMP JUMPDEST CALLVALUE DUP1 ISZERO PUSH2 0x19C JUMPI PUSH0 DUP1 REVERT JUMPDEST POP PUSH1 0x1 SLOAD JUMPDEST PUSH1 0x40 MLOAD SWAP1 DUP2 MSTORE PUSH1 0x20 ADD PUSH2 0x14A JUMP JUMPDEST CALLVALUE DUP1 ISZERO PUSH2 0x1BA JUMPI PUSH0 DUP1 REVERT JUMPDEST POP PUSH2 0x11D PUSH2 0x1C9 CALLDATASIZE PUSH1 0x4 PUSH2 0x151D JUMP JUMPDEST PUSH2 0x85C JUMP JUMPDEST CALLVALUE DUP1 ISZERO PUSH2 0x1D9 JUMPI PUSH0 DUP1 REVERT JUMPDEST POP PUSH2 0x11D PUSH2 0x1E8 CALLDATASIZE PUSH1 0x4 PUSH2 0x1534 JUMP JUMPDEST PUSH2 0x88F JUMP JUMPDEST CALLVALUE DUP1 ISZERO PUSH2 0x1F8 JUMPI PUSH0 DUP1 REVERT JUMPDEST POP PUSH2 0x11D PUSH2 0x207 CALLDATASIZE PUSH1 0x4 PUSH2 0x151D JUMP JUMPDEST PUSH2 0x8EB JUMP JUMPDEST CALLVALUE DUP1 ISZERO PUSH2 0x217 JUMPI PUSH0 DUP1 REVERT JUMPDEST POP PUSH1 0x2 SLOAD PUSH2 0x1A1 JUMP JUMPDEST CALLVALUE DUP1 ISZERO PUSH2 0x22B JUMPI PUSH0 DUP1 REVERT JUMPDEST POP PUSH32 0x0 JUMPDEST PUSH1 0x40 MLOAD PUSH1 0x1 PUSH1 0x1 PUSH1 0xA0 SHL SUB SWAP1 SWAP2 AND DUP2 MSTORE PUSH1 0x20 ADD PUSH2 0x14A JUMP JUMPDEST CALLVALUE DUP1 ISZERO PUSH2 0x271 JUMPI PUSH0 DUP1 REVERT JUMPDEST POP PUSH2 0x24E PUSH32 0x0 DUP2 JUMP JUMPDEST CALLVALUE DUP1 ISZERO PUSH2 0x2A4 JUMPI PUSH0 DUP1 REVERT JUMPDEST POP PUSH2 0x1A1 PUSH2 0x2710 DUP2 JUMP JUMPDEST PUSH2 0x1A1 PUSH2 0x2BC CALLDATASIZE PUSH1 0x4 PUSH2 0x156A JUMP JUMPDEST PUSH2 0x91E JUMP JUMPDEST CALLVALUE DUP1 ISZERO PUSH2 0x2CC JUMPI PUSH0 DUP1 REVERT JUMPDEST POP PUSH2 0x11D PUSH2 0xCDC JUMP JUMPDEST CALLVALUE DUP1 ISZERO PUSH2 0x2E0 JUMPI PUSH0 DUP1 REVERT JUMPDEST POP PUSH2 0x11D PUSH2 0x2EF CALLDATASIZE PUSH1 0x4 PUSH2 0x147C JUMP JUMPDEST PUSH2 0xE11 JUMP JUMPDEST CALLVALUE DUP1 ISZERO PUSH2 0x2FF JUMPI PUSH0 DUP1 REVERT JUMPDEST POP PUSH0 SLOAD PUSH1 0x1 PUSH1 0x1 PUSH1 0xA0 SHL SUB AND PUSH2 0x24E JUMP JUMPDEST CALLVALUE DUP1 ISZERO PUSH2 0x31B JUMPI PUSH0 DUP1 REVERT JUMPDEST POP PUSH2 0x24E PUSH32 0x0 DUP2 JUMP JUMPDEST PUSH1 0x40 MLOAD PUSH4 0x23B872DD PUSH1 0xE0 SHL DUP2 MSTORE CALLER PUSH1 0x4 DUP3 ADD MSTORE ADDRESS PUSH1 0x24 DUP3 ADD MSTORE PUSH1 0x1 PUSH1 0x1 PUSH1 0x40 SHL SUB DUP4 AND PUSH1 0x44 DUP3 ADD MSTORE PUSH32 0x0 PUSH1 0x1 PUSH1 0x1 PUSH1 0xA0 SHL SUB AND SWAP1 PUSH4 0x23B872DD SWAP1 PUSH1 0x64 ADD PUSH1 0x20 PUSH1 0x40 MLOAD DUP1 DUP4 SUB DUP2 PUSH0 DUP8 GAS CALL ISZERO DUP1 ISZERO PUSH2 0x3BB JUMPI RETURNDATASIZE PUSH0 DUP1 RETURNDATACOPY RETURNDATASIZE PUSH0 REVERT JUMPDEST POP POP POP POP PUSH1 0x40 MLOAD RETURNDATASIZE PUSH1 0x1F NOT PUSH1 0x1F DUP3 ADD AND DUP3 ADD DUP1 PUSH1 0x40 MSTORE POP DUP2 ADD SWAP1 PUSH2 0x3DF SWAP2 SWAP1 PUSH2 0x15A7 JUMP JUMPDEST PUSH2 0x404 JUMPI PUSH1 0x40 MLOAD PUSH3 0x461BCD PUSH1 0xE5 SHL DUP2 MSTORE PUSH1 0x4 ADD PUSH2 0x3FB SWAP1 PUSH2 0x15C6 JUMP JUMPDEST PUSH1 0x40 MLOAD DUP1 SWAP2 SUB SWAP1 REVERT JUMPDEST PUSH1 0x40 MLOAD PUSH4 0xA9059CBB PUSH1 0xE0 SHL DUP2 MSTORE PUSH1 0x1 PUSH1 0x1 PUSH1 0xA0 SHL SUB DUP3 DUP2 AND PUSH1 0x4 DUP4 ADD MSTORE PUSH1 0x1 PUSH1 0x1 PUSH1 0x40 SHL SUB DUP5 AND PUSH1 0x24 DUP4 ADD MSTORE PUSH32 0x0 AND SWAP1 PUSH4 0xA9059CBB SWAP1 PUSH1 0x44 ADD PUSH1 0x20 PUSH1 0x40 MLOAD DUP1 DUP4 SUB DUP2 PUSH0 DUP8 GAS CALL ISZERO DUP1 ISZERO PUSH2 0x478 JUMPI RETURNDATASIZE PUSH0 DUP1 RETURNDATACOPY RETURNDATASIZE PUSH0 REVERT JUMPDEST POP POP POP POP PUSH1 0x40 MLOAD RETURNDATASIZE PUSH1 0x1F NOT PUSH1 0x1F DUP3 ADD AND DUP3 ADD DUP1 PUSH1 0x40 MSTORE POP DUP2 ADD SWAP1 PUSH2 0x49C SWAP2 SWAP1 PUSH2 0x15A7 JUMP JUMPDEST PUSH2 0x50E JUMPI PUSH1 0x40 MLOAD PUSH3 0x461BCD PUSH1 0xE5 SHL DUP2 MSTORE PUSH1 0x20 PUSH1 0x4 DUP3 ADD MSTORE PUSH1 0x39 PUSH1 0x24 DUP3 ADD MSTORE PUSH32 0x43726F7373436861696E466163696C697461746F723A204661696C656420746F PUSH1 0x44 DUP3 ADD MSTORE PUSH32 0x207472616E73666572205553444320746F206164647265737300000000000000 PUSH1 0x64 DUP3 ADD MSTORE PUSH1 0x84 ADD PUSH2 0x3FB JUMP JUMPDEST POP POP JUMP JUMPDEST PUSH0 PUSH1 0x1 PUSH1 0x1 PUSH1 0xE0 SHL SUB NOT DUP3 AND PUSH4 0x85572FFB PUSH1 0xE0 SHL EQ DUP1 PUSH2 0x542 JUMPI POP PUSH1 0x1 PUSH1 0x1 PUSH1 0xE0 SHL SUB NOT DUP3 AND PUSH4 0x1FFC9A7 PUSH1 0xE0 SHL EQ JUMPDEST SWAP3 SWAP2 POP POP JUMP JUMPDEST PUSH1 0x3 SLOAD PUSH1 0x1 PUSH1 0x1 PUSH1 0xA0 SHL SUB AND CALLER EQ PUSH2 0x572 JUMPI PUSH1 0x40 MLOAD PUSH3 0x461BCD PUSH1 0xE5 SHL DUP2 MSTORE PUSH1 0x4 ADD PUSH2 0x3FB SWAP1 PUSH2 0x1623 JUMP JUMPDEST PUSH2 0x57B DUP2 PUSH2 0xE73 JUMP JUMPDEST POP JUMP JUMPDEST PUSH1 0x40 MLOAD PUSH4 0x23B872DD PUSH1 0xE0 SHL DUP2 MSTORE CALLER PUSH1 0x4 DUP3 ADD MSTORE ADDRESS PUSH1 0x24 DUP3 ADD MSTORE PUSH1 0x44 DUP2 ADD DUP4 SWAP1 MSTORE PUSH32 0x0 PUSH1 0x1 PUSH1 0x1 PUSH1 0xA0 SHL SUB AND SWAP1 PUSH4 0x23B872DD SWAP1 PUSH1 0x64 ADD PUSH1 0x20 PUSH1 0x40 MLOAD DUP1 DUP4 SUB DUP2 PUSH0 DUP8 GAS CALL ISZERO DUP1 ISZERO PUSH2 0x5EE JUMPI RETURNDATASIZE PUSH0 DUP1 RETURNDATACOPY RETURNDATASIZE PUSH0 REVERT JUMPDEST POP POP POP POP PUSH1 0x40 MLOAD RETURNDATASIZE PUSH1 0x1F NOT PUSH1 0x1F DUP3 ADD AND DUP3 ADD DUP1 PUSH1 0x40 MSTORE POP DUP2 ADD SWAP1 PUSH2 0x612 SWAP2 SWAP1 PUSH2 0x15A7 JUMP JUMPDEST PUSH2 0x684 JUMPI PUSH1 0x40 MLOAD PUSH3 0x461BCD PUSH1 0xE5 SHL DUP2 MSTORE PUSH1 0x20 PUSH1 0x4 DUP3 ADD MSTORE PUSH1 0x3D PUSH1 0x24 DUP3 ADD MSTORE PUSH32 0x43726F7373436861696E466163696C697461746F723A204661696C656420746F PUSH1 0x44 DUP3 ADD MSTORE PUSH32 0x207472616E73666572205553444320746F20666163696C697461746F72000000 PUSH1 0x64 DUP3 ADD MSTORE PUSH1 0x84 ADD PUSH2 0x3FB JUMP JUMPDEST PUSH0 PUSH2 0x68E DUP4 PUSH2 0xEC2 JUMP JUMPDEST SWAP1 POP PUSH2 0x69A DUP2 DUP5 PUSH2 0x1678 JUMP JUMPDEST PUSH2 0x6A2 PUSH2 0xED8 JUMP JUMPDEST LT PUSH2 0x753 JUMPI PUSH1 0x40 MLOAD PUSH4 0xA9059CBB PUSH1 0xE0 SHL DUP2 MSTORE PUSH1 0x1 PUSH1 0x1 PUSH1 0xA0 SHL SUB DUP4 DUP2 AND PUSH1 0x4 DUP4 ADD MSTORE PUSH1 0x24 DUP3 ADD DUP6 SWAP1 MSTORE PUSH32 0x0 AND SWAP1 PUSH4 0xA9059CBB SWAP1 PUSH1 0x44 ADD PUSH1 0x20 PUSH1 0x40 MLOAD DUP1 DUP4 SUB DUP2 PUSH0 DUP8 GAS CALL ISZERO DUP1 ISZERO PUSH2 0x713 JUMPI RETURNDATASIZE PUSH0 DUP1 RETURNDATACOPY RETURNDATASIZE PUSH0 REVERT JUMPDEST POP POP POP POP PUSH1 0x40 MLOAD RETURNDATASIZE PUSH1 0x1F NOT PUSH1 0x1F DUP3 ADD AND DUP3 ADD DUP1 PUSH1 0x40 MSTORE POP DUP2 ADD SWAP1 PUSH2 0x737 SWAP2 SWAP1 PUSH2 0x15A7 JUMP JUMPDEST POP DUP1 PUSH1 0x4 PUSH0 DUP3 DUP3 SLOAD PUSH2 0x749 SWAP2 SWAP1 PUSH2 0x1678 JUMP JUMPDEST SWAP1 SWAP2 SSTORE POP POP POP POP POP JUMP JUMPDEST PUSH1 0x40 MLOAD PUSH4 0x40C10F19 PUSH1 0xE0 SHL DUP2 MSTORE PUSH1 0x1 PUSH1 0x1 PUSH1 0xA0 SHL SUB DUP4 DUP2 AND PUSH1 0x4 DUP4 ADD MSTORE PUSH1 0x24 DUP3 ADD DUP6 SWAP1 MSTORE PUSH32 0x0 AND SWAP1 PUSH4 0x40C10F19 SWAP1 PUSH1 0x44 ADD PUSH0 PUSH1 0x40 MLOAD DUP1 DUP4 SUB DUP2 PUSH0 DUP8 DUP1 EXTCODESIZE ISZERO DUP1 ISZERO PUSH2 0x7BA JUMPI PUSH0 DUP1 REVERT JUMPDEST POP GAS CALL ISZERO DUP1 ISZERO PUSH2 0x7CC JUMPI RETURNDATASIZE PUSH0 DUP1 RETURNDATACOPY RETURNDATASIZE PUSH0 REVERT JUMPDEST POP POP PUSH1 0x40 MLOAD PUSH4 0x40C10F19 PUSH1 0xE0 SHL DUP2 MSTORE ADDRESS PUSH1 0x4 DUP3 ADD MSTORE PUSH1 0x24 DUP2 ADD DUP5 SWAP1 MSTORE PUSH32 0x0 PUSH1 0x1 PUSH1 0x1 PUSH1 0xA0 SHL SUB AND SWAP3 POP PUSH4 0x40C10F19 SWAP2 POP PUSH1 0x44 ADD PUSH0 PUSH1 0x40 MLOAD DUP1 DUP4 SUB DUP2 PUSH0 DUP8 DUP1 EXTCODESIZE ISZERO DUP1 ISZERO PUSH2 0x835 JUMPI PUSH0 DUP1 REVERT JUMPDEST POP GAS CALL ISZERO DUP1 ISZERO PUSH2 0x847 JUMPI RETURNDATASIZE PUSH0 DUP1 RETURNDATACOPY RETURNDATASIZE PUSH0 REVERT JUMPDEST POP POP POP POP DUP1 PUSH1 0x4 PUSH0 DUP3 DUP3 SLOAD PUSH2 0x749 SWAP2 SWAP1 PUSH2 0x1678 JUMP JUMPDEST PUSH1 0x3 SLOAD PUSH1 0x1 PUSH1 0x1 PUSH1 0xA0 SHL SUB AND CALLER EQ PUSH2 0x886 JUMPI PUSH1 0x40 MLOAD PUSH3 0x461BCD PUSH1 0xE5 SHL DUP2 MSTORE PUSH1 0x4 ADD PUSH2 0x3FB SWAP1 PUSH2 0x1623 JUMP JUMPDEST PUSH2 0x57B DUP2 PUSH2 0xF65 JUMP JUMPDEST CALLER PUSH1 0x1 PUSH1 0x1 PUSH1 0xA0 SHL SUB PUSH32 0x0 AND EQ PUSH2 0x8DA JUMPI PUSH1 0x40 MLOAD PUSH4 0x35FDCCCD PUSH1 0xE2 SHL DUP2 MSTORE CALLER PUSH1 0x4 DUP3 ADD MSTORE PUSH1 0x24 ADD PUSH2 0x3FB JUMP JUMPDEST PUSH2 0x57B PUSH2 0x8E6 DUP3 PUSH2 0x1837 JUMP JUMPDEST PUSH2 0xFCD JUMP JUMPDEST PUSH1 0x3 SLOAD PUSH1 0x1 PUSH1 0x1 PUSH1 0xA0 SHL SUB AND CALLER EQ PUSH2 0x915 JUMPI PUSH1 0x40 MLOAD PUSH3 0x461BCD PUSH1 0xE5 SHL DUP2 MSTORE PUSH1 0x4 ADD PUSH2 0x3FB SWAP1 PUSH2 0x1623 JUMP JUMPDEST PUSH2 0x57B DUP2 PUSH2 0x122C JUMP JUMPDEST PUSH0 DUP1 PUSH2 0x929 DUP5 PUSH2 0x128C JUMP JUMPDEST SWAP1 POP PUSH1 0x1 PUSH1 0x1 PUSH1 0xA0 SHL SUB PUSH32 0x0 AND PUSH4 0x23B872DD CALLER ADDRESS PUSH2 0x966 DUP6 DUP10 PUSH2 0x1678 JUMP JUMPDEST PUSH1 0x40 MLOAD PUSH1 0x1 PUSH1 0x1 PUSH1 0xE0 SHL SUB NOT PUSH1 0xE0 DUP7 SWAP1 SHL AND DUP2 MSTORE PUSH1 0x1 PUSH1 0x1 PUSH1 0xA0 SHL SUB SWAP4 DUP5 AND PUSH1 0x4 DUP3 ADD MSTORE SWAP3 SWAP1 SWAP2 AND PUSH1 0x24 DUP4 ADD MSTORE PUSH1 0x44 DUP3 ADD MSTORE PUSH1 0x64 ADD PUSH1 0x20 PUSH1 0x40 MLOAD DUP1 DUP4 SUB DUP2 PUSH0 DUP8 GAS CALL ISZERO DUP1 ISZERO PUSH2 0x9B7 JUMPI RETURNDATASIZE PUSH0 DUP1 RETURNDATACOPY RETURNDATASIZE PUSH0 REVERT JUMPDEST POP POP POP POP PUSH1 0x40 MLOAD RETURNDATASIZE PUSH1 0x1F NOT PUSH1 0x1F DUP3 ADD AND DUP3 ADD DUP1 PUSH1 0x40 MSTORE POP DUP2 ADD SWAP1 PUSH2 0x9DB SWAP2 SWAP1 PUSH2 0x15A7 JUMP JUMPDEST PUSH2 0x9F7 JUMPI PUSH1 0x40 MLOAD PUSH3 0x461BCD PUSH1 0xE5 SHL DUP2 MSTORE PUSH1 0x4 ADD PUSH2 0x3FB SWAP1 PUSH2 0x15C6 JUMP JUMPDEST PUSH1 0x1 PUSH1 0x1 PUSH1 0x40 SHL SUB DUP6 AND PUSH0 SWAP1 DUP2 MSTORE PUSH1 0x5 PUSH1 0x20 MSTORE PUSH1 0x40 SWAP1 KECCAK256 SLOAD PUSH1 0x1 PUSH1 0x1 PUSH1 0xA0 SHL SUB AND DUP1 PUSH2 0xA83 JUMPI PUSH1 0x40 MLOAD PUSH3 0x461BCD PUSH1 0xE5 SHL DUP2 MSTORE PUSH1 0x20 PUSH1 0x4 DUP3 ADD MSTORE PUSH1 0x35 PUSH1 0x24 DUP3 ADD MSTORE PUSH32 0x43726F7373436861696E466163696C697461746F723A20546172676574206368 PUSH1 0x44 DUP3 ADD MSTORE PUSH21 0x30B4B71034B9903737BA1039BAB83837B93A32B217 PUSH1 0x59 SHL PUSH1 0x64 DUP3 ADD MSTORE PUSH1 0x84 ADD PUSH2 0x3FB JUMP JUMPDEST PUSH1 0x40 DUP1 MLOAD PUSH1 0x60 DUP2 ADD DUP3 MSTORE DUP7 DUP2 MSTORE PUSH1 0x1 PUSH1 0x1 PUSH1 0xA0 SHL SUB DUP7 AND PUSH1 0x20 DUP3 ADD MSTORE CALLER SWAP2 DUP2 ADD SWAP2 SWAP1 SWAP2 MSTORE PUSH0 PUSH2 0xAB3 DUP4 DUP4 DUP4 PUSH2 0x12A2 JUMP JUMPDEST SWAP1 POP PUSH0 ADDRESS PUSH1 0x1 PUSH1 0x1 PUSH1 0xA0 SHL SUB AND PUSH4 0xB0F479A1 PUSH1 0x40 MLOAD DUP2 PUSH4 0xFFFFFFFF AND PUSH1 0xE0 SHL DUP2 MSTORE PUSH1 0x4 ADD PUSH1 0x20 PUSH1 0x40 MLOAD DUP1 DUP4 SUB DUP2 DUP7 GAS STATICCALL ISZERO DUP1 ISZERO PUSH2 0xAF2 JUMPI RETURNDATASIZE PUSH0 DUP1 RETURNDATACOPY RETURNDATASIZE PUSH0 REVERT JUMPDEST POP POP POP POP PUSH1 0x40 MLOAD RETURNDATASIZE PUSH1 0x1F NOT PUSH1 0x1F DUP3 ADD AND DUP3 ADD DUP1 PUSH1 0x40 MSTORE POP DUP2 ADD SWAP1 PUSH2 0xB16 SWAP2 SWAP1 PUSH2 0x18DE JUMP JUMPDEST SWAP1 POP PUSH0 DUP2 PUSH1 0x1 PUSH1 0x1 PUSH1 0xA0 SHL SUB AND PUSH4 0x20487DED DUP12 DUP6 PUSH1 0x40 MLOAD DUP4 PUSH4 0xFFFFFFFF AND PUSH1 0xE0 SHL DUP2 MSTORE PUSH1 0x4 ADD PUSH2 0xB47 SWAP3 SWAP2 SWAP1 PUSH2 0x193C JUMP JUMPDEST PUSH1 0x20 PUSH1 0x40 MLOAD DUP1 DUP4 SUB DUP2 DUP7 GAS STATICCALL ISZERO DUP1 ISZERO PUSH2 0xB62 JUMPI RETURNDATASIZE PUSH0 DUP1 RETURNDATACOPY RETURNDATASIZE PUSH0 REVERT JUMPDEST POP POP POP POP PUSH1 0x40 MLOAD RETURNDATASIZE PUSH1 0x1F NOT PUSH1 0x1F DUP3 ADD AND DUP3 ADD DUP1 PUSH1 0x40 MSTORE POP DUP2 ADD SWAP1 PUSH2 0xB86 SWAP2 SWAP1 PUSH2 0x1A16 JUMP JUMPDEST SWAP1 POP CALLVALUE DUP2 GT ISZERO PUSH2 0xBFE JUMPI PUSH1 0x40 MLOAD PUSH3 0x461BCD PUSH1 0xE5 SHL DUP2 MSTORE PUSH1 0x20 PUSH1 0x4 DUP3 ADD MSTORE PUSH1 0x38 PUSH1 0x24 DUP3 ADD MSTORE PUSH32 0x43726F7373436861696E466163696C697461746F723A204E6F7420656E6F7567 PUSH1 0x44 DUP3 ADD MSTORE PUSH32 0x682062616C616E636520746F20636F76657220666565732E0000000000000000 PUSH1 0x64 DUP3 ADD MSTORE PUSH1 0x84 ADD PUSH2 0x3FB JUMP JUMPDEST PUSH1 0x40 MLOAD PUSH4 0x96F4E9F9 PUSH1 0xE0 SHL DUP2 MSTORE PUSH1 0x1 PUSH1 0x1 PUSH1 0xA0 SHL SUB DUP4 AND SWAP1 PUSH4 0x96F4E9F9 SWAP1 DUP4 SWAP1 PUSH2 0xC2E SWAP1 DUP15 SWAP1 DUP9 SWAP1 PUSH1 0x4 ADD PUSH2 0x193C JUMP JUMPDEST PUSH1 0x20 PUSH1 0x40 MLOAD DUP1 DUP4 SUB DUP2 DUP6 DUP9 GAS CALL ISZERO DUP1 ISZERO PUSH2 0xC4A JUMPI RETURNDATASIZE PUSH0 DUP1 RETURNDATACOPY RETURNDATASIZE PUSH0 REVERT JUMPDEST POP POP POP POP POP PUSH1 0x40 MLOAD RETURNDATASIZE PUSH1 0x1F NOT PUSH1 0x1F DUP3 ADD AND DUP3 ADD DUP1 PUSH1 0x40 MSTORE POP DUP2 ADD SWAP1 PUSH2 0xC6F SWAP2 SWAP1 PUSH2 0x1A16 JUMP JUMPDEST PUSH1 0x40 DUP1 MLOAD PUSH1 0x1 PUSH1 0x1 PUSH1 0xA0 SHL SUB DUP12 AND DUP2 MSTORE PUSH1 0x20 DUP2 ADD DUP13 SWAP1 MSTORE PUSH0 DUP2 DUP4 ADD MSTORE PUSH1 0x60 DUP2 ADD DUP5 SWAP1 MSTORE SWAP1 MLOAD SWAP2 SWAP9 POP PUSH1 0x1 PUSH1 0x1 PUSH1 0x40 SHL SUB DUP13 AND SWAP2 DUP10 SWAP2 PUSH32 0xEEA8A479F07983D1364C4330C9BF3442A1CD421B79B16909BCC1867188EA676B SWAP2 SWAP1 DUP2 SWAP1 SUB PUSH1 0x80 ADD SWAP1 LOG3 POP POP POP POP POP POP SWAP4 SWAP3 POP POP POP JUMP JUMPDEST PUSH1 0x3 SLOAD PUSH1 0x1 PUSH1 0x1 PUSH1 0xA0 SHL SUB AND CALLER EQ PUSH2 0xD06 JUMPI PUSH1 0x40 MLOAD PUSH3 0x461BCD PUSH1 0xE5 SHL DUP2 MSTORE PUSH1 0x4 ADD PUSH2 0x3FB SWAP1 PUSH2 0x1623 JUMP JUMPDEST PUSH0 SLOAD PUSH1 0x4 DUP1 SLOAD PUSH1 0x40 MLOAD PUSH4 0xA9059CBB PUSH1 0xE0 SHL DUP2 MSTORE PUSH1 0x1 PUSH1 0x1 PUSH1 0xA0 SHL SUB SWAP4 DUP5 AND SWAP3 DUP2 ADD SWAP3 SWAP1 SWAP3 MSTORE PUSH1 0x24 DUP3 ADD MSTORE PUSH32 0x0 SWAP1 SWAP2 AND SWAP1 PUSH4 0xA9059CBB SWAP1 PUSH1 0x44 ADD PUSH1 0x20 PUSH1 0x40 MLOAD DUP1 DUP4 SUB DUP2 PUSH0 DUP8 GAS CALL ISZERO DUP1 ISZERO PUSH2 0xD7A JUMPI RETURNDATASIZE PUSH0 DUP1 RETURNDATACOPY RETURNDATASIZE PUSH0 REVERT JUMPDEST POP POP POP POP PUSH1 0x40 MLOAD RETURNDATASIZE PUSH1 0x1F NOT PUSH1 0x1F DUP3 ADD AND DUP3 ADD DUP1 PUSH1 0x40 MSTORE POP DUP2 ADD SWAP1 PUSH2 0xD9E SWAP2 SWAP1 PUSH2 0x15A7 JUMP JUMPDEST POP PUSH0 PUSH1 0x4 DUP2 SWAP1 SSTORE DUP1 SLOAD PUSH1 0x40 MLOAD PUSH1 0x1 PUSH1 0x1 PUSH1 0xA0 SHL SUB PUSH32 0x0 DUP2 AND SWAP4 SWAP3 AND SWAP2 PUSH32 0xB29FCDA740927812F5A71075B62E132BEAD3769A455319C29B9A1CC461A65475 SWAP2 PUSH2 0xE07 SWAP2 DUP2 MSTORE PUSH1 0x20 ADD SWAP1 JUMP JUMPDEST PUSH1 0x40 MLOAD DUP1 SWAP2 SUB SWAP1 LOG3 JUMP JUMPDEST PUSH1 0x3 SLOAD PUSH1 0x1 PUSH1 0x1 PUSH1 0xA0 SHL SUB AND CALLER EQ PUSH2 0xE3B JUMPI PUSH1 0x40 MLOAD PUSH3 0x461BCD PUSH1 0xE5 SHL DUP2 MSTORE PUSH1 0x4 ADD PUSH2 0x3FB SWAP1 PUSH2 0x1623 JUMP JUMPDEST PUSH1 0x1 PUSH1 0x1 PUSH1 0x40 SHL SUB SWAP2 SWAP1 SWAP2 AND PUSH0 SWAP1 DUP2 MSTORE PUSH1 0x5 PUSH1 0x20 MSTORE PUSH1 0x40 SWAP1 KECCAK256 DUP1 SLOAD PUSH1 0x1 PUSH1 0x1 PUSH1 0xA0 SHL SUB NOT AND PUSH1 0x1 PUSH1 0x1 PUSH1 0xA0 SHL SUB SWAP1 SWAP3 AND SWAP2 SWAP1 SWAP2 OR SWAP1 SSTORE JUMP JUMPDEST PUSH0 DUP1 SLOAD PUSH1 0x1 PUSH1 0x1 PUSH1 0xA0 SHL SUB DUP4 DUP2 AND PUSH1 0x1 PUSH1 0x1 PUSH1 0xA0 SHL SUB NOT DUP4 AND DUP2 OR DUP5 SSTORE PUSH1 0x40 MLOAD SWAP2 SWAP1 SWAP3 AND SWAP3 DUP4 SWAP2 PUSH32 0x13F4413D8D93A259BD6C10F35095371F30ED50F81A73407E52E9F02000D5D16B SWAP2 SWAP1 LOG3 POP POP JUMP JUMPDEST PUSH0 PUSH2 0x542 PUSH1 0x1 SLOAD DUP4 PUSH2 0x13FB SWAP1 SWAP2 SWAP1 PUSH4 0xFFFFFFFF AND JUMP JUMPDEST PUSH1 0x40 MLOAD PUSH4 0x70A08231 PUSH1 0xE0 SHL DUP2 MSTORE ADDRESS PUSH1 0x4 DUP3 ADD MSTORE PUSH0 SWAP1 PUSH32 0x0 PUSH1 0x1 PUSH1 0x1 PUSH1 0xA0 SHL SUB AND SWAP1 PUSH4 0x70A08231 SWAP1 PUSH1 0x24 ADD PUSH1 0x20 PUSH1 0x40 MLOAD DUP1 DUP4 SUB DUP2 DUP7 GAS STATICCALL ISZERO DUP1 ISZERO PUSH2 0xF3C JUMPI RETURNDATASIZE PUSH0 DUP1 RETURNDATACOPY RETURNDATASIZE PUSH0 REVERT JUMPDEST POP POP POP POP PUSH1 0x40 MLOAD RETURNDATASIZE PUSH1 0x1F NOT PUSH1 0x1F DUP3 ADD AND DUP3 ADD DUP1 PUSH1 0x40 MSTORE POP DUP2 ADD SWAP1 PUSH2 0xF60 SWAP2 SWAP1 PUSH2 0x1A16 JUMP JUMPDEST SWAP1 POP SWAP1 JUMP JUMPDEST PUSH2 0x2710 DUP2 GT ISZERO PUSH2 0xF87 JUMPI PUSH1 0x40 MLOAD PUSH3 0x461BCD PUSH1 0xE5 SHL DUP2 MSTORE PUSH1 0x4 ADD PUSH2 0x3FB SWAP1 PUSH2 0x1A2D JUMP JUMPDEST PUSH1 0x1 DUP1 SLOAD SWAP1 DUP3 SWAP1 SSTORE PUSH1 0x40 DUP1 MLOAD DUP3 DUP2 MSTORE PUSH1 0x20 DUP2 ADD DUP5 SWAP1 MSTORE PUSH32 0x7864BF708CAE822050E5F50960A0DE31BD6FE7620A8F67A48582FB95F29C114A SWAP2 ADD JUMPDEST PUSH1 0x40 MLOAD DUP1 SWAP2 SUB SWAP1 LOG1 POP POP JUMP JUMPDEST DUP1 PUSH1 0x40 ADD MLOAD DUP1 PUSH1 0x20 ADD SWAP1 MLOAD DUP2 ADD SWAP1 PUSH2 0xFE5 SWAP2 SWAP1 PUSH2 0x18DE JUMP JUMPDEST PUSH1 0x20 DUP1 DUP4 ADD MLOAD PUSH1 0x1 PUSH1 0x1 PUSH1 0x40 SHL SUB AND PUSH0 SWAP1 DUP2 MSTORE PUSH1 0x5 SWAP1 SWAP2 MSTORE PUSH1 0x40 SWAP1 KECCAK256 SLOAD PUSH1 0x1 PUSH1 0x1 PUSH1 0xA0 SHL SUB SWAP1 DUP2 AND SWAP2 AND EQ PUSH2 0x1070 JUMPI PUSH1 0x40 MLOAD PUSH3 0x461BCD PUSH1 0xE5 SHL DUP2 MSTORE PUSH1 0x20 PUSH1 0x4 DUP3 ADD MSTORE PUSH1 0x2B PUSH1 0x24 DUP3 ADD MSTORE PUSH32 0x43726F7373436861696E466163696C697461746F723A2053656E646572206E6F PUSH1 0x44 DUP3 ADD MSTORE PUSH11 0x3A1030B8383937BB32B217 PUSH1 0xA9 SHL PUSH1 0x64 DUP3 ADD MSTORE PUSH1 0x84 ADD PUSH2 0x3FB JUMP JUMPDEST PUSH0 PUSH2 0x107E DUP3 PUSH1 0x60 ADD MLOAD PUSH2 0x141F JUMP JUMPDEST DUP1 MLOAD SWAP1 SWAP2 POP PUSH2 0x108B PUSH2 0xED8 JUMP JUMPDEST GT ISZERO PUSH2 0x113C JUMPI PUSH1 0x20 DUP2 ADD MLOAD DUP2 MLOAD PUSH1 0x40 MLOAD PUSH4 0xA9059CBB PUSH1 0xE0 SHL DUP2 MSTORE PUSH1 0x1 PUSH1 0x1 PUSH1 0xA0 SHL SUB PUSH32 0x0 AND SWAP3 PUSH4 0xA9059CBB SWAP3 PUSH2 0x10F6 SWAP3 PUSH1 0x4 ADD PUSH1 0x1 PUSH1 0x1 PUSH1 0xA0 SHL SUB SWAP3 SWAP1 SWAP3 AND DUP3 MSTORE PUSH1 0x20 DUP3 ADD MSTORE PUSH1 0x40 ADD SWAP1 JUMP JUMPDEST PUSH1 0x20 PUSH1 0x40 MLOAD DUP1 DUP4 SUB DUP2 PUSH0 DUP8 GAS CALL ISZERO DUP1 ISZERO PUSH2 0x1112 JUMPI RETURNDATASIZE PUSH0 DUP1 RETURNDATACOPY RETURNDATASIZE PUSH0 REVERT JUMPDEST POP POP POP POP PUSH1 0x40 MLOAD RETURNDATASIZE PUSH1 0x1F NOT PUSH1 0x1F DUP3 ADD AND DUP3 ADD DUP1 PUSH1 0x40 MSTORE POP DUP2 ADD SWAP1 PUSH2 0x1136 SWAP2 SWAP1 PUSH2 0x15A7 JUMP JUMPDEST POP PUSH2 0x11BB JUMP JUMPDEST DUP1 MLOAD PUSH1 0x40 MLOAD PUSH4 0x40C10F19 PUSH1 0xE0 SHL DUP2 MSTORE ADDRESS PUSH1 0x4 DUP3 ADD MSTORE PUSH1 0x24 DUP2 ADD SWAP2 SWAP1 SWAP2 MSTORE PUSH32 0x0 PUSH1 0x1 PUSH1 0x1 PUSH1 0xA0 SHL SUB AND SWAP1 PUSH4 0x40C10F19 SWAP1 PUSH1 0x44 ADD PUSH0 PUSH1 0x40 MLOAD DUP1 DUP4 SUB DUP2 PUSH0 DUP8 DUP1 EXTCODESIZE ISZERO DUP1 ISZERO PUSH2 0x11A4 JUMPI PUSH0 DUP1 REVERT JUMPDEST POP GAS CALL ISZERO DUP1 ISZERO PUSH2 0x11B6 JUMPI RETURNDATASIZE PUSH0 DUP1 RETURNDATACOPY RETURNDATASIZE PUSH0 REVERT JUMPDEST POP POP POP POP JUMPDEST PUSH1 0x20 DUP1 DUP4 ADD MLOAD DUP4 MLOAD DUP4 DUP4 ADD MLOAD PUSH1 0x40 DUP1 DUP7 ADD MLOAD DUP7 MLOAD DUP3 MLOAD PUSH1 0x1 PUSH1 0x1 PUSH1 0xA0 SHL SUB SWAP5 DUP6 AND DUP2 MSTORE SWAP4 SWAP1 SWAP2 AND SWAP6 DUP4 ADD SWAP6 SWAP1 SWAP6 MSTORE DUP2 ADD SWAP4 SWAP1 SWAP4 MSTORE PUSH1 0x1 PUSH1 0x1 PUSH1 0x40 SHL SUB SWAP1 SWAP2 AND SWAP2 PUSH32 0x4F9FC06F5F4DC447952EA2EB4A0CDA7A5736686F29E607951E0AB1B895F97F37 SWAP1 PUSH1 0x60 ADD PUSH1 0x40 MLOAD DUP1 SWAP2 SUB SWAP1 LOG3 POP POP JUMP JUMPDEST PUSH2 0x2710 DUP2 GT ISZERO PUSH2 0x124E JUMPI PUSH1 0x40 MLOAD PUSH3 0x461BCD PUSH1 0xE5 SHL DUP2 MSTORE PUSH1 0x4 ADD PUSH2 0x3FB SWAP1 PUSH2 0x1A2D JUMP JUMPDEST PUSH1 0x2 DUP1 SLOAD SWAP1 DUP3 SWAP1 SSTORE PUSH1 0x40 DUP1 MLOAD DUP3 DUP2 MSTORE PUSH1 0x20 DUP2 ADD DUP5 SWAP1 MSTORE PUSH32 0x940334A9F5C76529AD9447AC490C2073B06D880209383A3D3E4B0ECAB72A0D99 SWAP2 ADD PUSH2 0xFC1 JUMP JUMPDEST PUSH0 PUSH2 0x542 PUSH1 0x2 SLOAD DUP4 PUSH2 0x13FB SWAP1 SWAP2 SWAP1 PUSH4 0xFFFFFFFF AND JUMP JUMPDEST PUSH2 0x12DC PUSH1 0x40 MLOAD DUP1 PUSH1 0xA0 ADD PUSH1 0x40 MSTORE DUP1 PUSH1 0x60 DUP2 MSTORE PUSH1 0x20 ADD PUSH1 0x60 DUP2 MSTORE PUSH1 0x20 ADD PUSH1 0x60 DUP2 MSTORE PUSH1 0x20 ADD PUSH0 PUSH1 0x1 PUSH1 0x1 PUSH1 0xA0 SHL SUB AND DUP2 MSTORE PUSH1 0x20 ADD PUSH1 0x60 DUP2 MSTORE POP SWAP1 JUMP JUMPDEST PUSH1 0x40 DUP1 MLOAD DUP5 MLOAD PUSH1 0x20 DUP1 DUP4 ADD SWAP2 SWAP1 SWAP2 MSTORE DUP1 DUP7 ADD MLOAD PUSH1 0x1 PUSH1 0x1 PUSH1 0xA0 SHL SUB SWAP1 DUP2 AND DUP4 DUP6 ADD MSTORE DUP7 DUP5 ADD MLOAD DUP2 AND PUSH1 0x60 DUP1 DUP6 ADD SWAP2 SWAP1 SWAP2 MSTORE DUP5 MLOAD DUP1 DUP6 SUB SWAP1 SWAP2 ADD DUP2 MSTORE PUSH2 0x120 DUP5 ADD DUP6 MSTORE SWAP1 DUP9 AND PUSH2 0x140 DUP1 DUP6 ADD SWAP2 SWAP1 SWAP2 MSTORE DUP5 MLOAD DUP1 DUP6 SUB SWAP1 SWAP2 ADD DUP2 MSTORE PUSH2 0x160 DUP5 ADD DUP6 MSTORE PUSH1 0x80 DUP5 ADD SWAP1 DUP2 MSTORE PUSH1 0xA0 DUP5 ADD DUP3 SWAP1 MSTORE DUP5 MLOAD PUSH0 DUP1 DUP3 MSTORE SWAP4 DUP2 ADD SWAP1 SWAP6 MSTORE SWAP1 SWAP4 SWAP1 SWAP3 PUSH1 0xC0 ADD SWAP2 PUSH2 0x1389 JUMP JUMPDEST PUSH1 0x40 DUP1 MLOAD DUP1 DUP3 ADD SWAP1 SWAP2 MSTORE PUSH0 DUP1 DUP3 MSTORE PUSH1 0x20 DUP3 ADD MSTORE DUP2 MSTORE PUSH1 0x20 ADD SWAP1 PUSH1 0x1 SWAP1 SUB SWAP1 DUP2 PUSH2 0x1363 JUMPI SWAP1 POP JUMPDEST POP DUP2 MSTORE PUSH1 0x20 ADD DUP5 PUSH1 0x1 PUSH1 0x1 PUSH1 0xA0 SHL SUB AND DUP2 MSTORE PUSH1 0x20 ADD PUSH2 0x13F0 PUSH1 0x40 MLOAD DUP1 PUSH1 0x20 ADD PUSH1 0x40 MSTORE DUP1 PUSH3 0x30D40 DUP2 MSTORE POP PUSH1 0x40 DUP1 MLOAD SWAP2 MLOAD PUSH1 0x24 DUP1 DUP5 ADD SWAP2 SWAP1 SWAP2 MSTORE DUP2 MLOAD DUP1 DUP5 SUB SWAP1 SWAP2 ADD DUP2 MSTORE PUSH1 0x44 SWAP1 SWAP3 ADD SWAP1 MSTORE PUSH1 0x20 DUP2 ADD DUP1 MLOAD PUSH1 0x1 PUSH1 0x1 PUSH1 0xE0 SHL SUB AND PUSH4 0x97A657C9 PUSH1 0xE0 SHL OR SWAP1 MSTORE SWAP1 JUMP JUMPDEST SWAP1 MSTORE SWAP6 SWAP5 POP POP POP POP POP JUMP JUMPDEST PUSH0 DUP2 ISZERO PUSH2 0x1388 NOT DUP4 SWAP1 DIV DUP5 GT ISZERO OR PUSH2 0x1411 JUMPI PUSH0 DUP1 REVERT JUMPDEST POP PUSH2 0x2710 SWAP2 MUL PUSH2 0x1388 ADD DIV SWAP1 JUMP JUMPDEST PUSH1 0x40 DUP1 MLOAD PUSH1 0x60 DUP2 ADD DUP3 MSTORE PUSH0 DUP1 DUP3 MSTORE PUSH1 0x20 DUP1 DUP4 ADD DUP3 SWAP1 MSTORE SWAP3 DUP3 ADD MSTORE DUP3 MLOAD SWAP1 SWAP2 PUSH2 0x542 SWAP2 DUP5 ADD DUP2 ADD SWAP1 DUP5 ADD PUSH2 0x1A74 JUMP JUMPDEST DUP1 CALLDATALOAD PUSH1 0x1 PUSH1 0x1 PUSH1 0x40 SHL SUB DUP2 AND DUP2 EQ PUSH2 0x1463 JUMPI PUSH0 DUP1 REVERT JUMPDEST SWAP2 SWAP1 POP JUMP JUMPDEST PUSH1 0x1 PUSH1 0x1 PUSH1 0xA0 SHL SUB DUP2 AND DUP2 EQ PUSH2 0x57B JUMPI PUSH0 DUP1 REVERT JUMPDEST PUSH0 DUP1 PUSH1 0x40 DUP4 DUP6 SUB SLT ISZERO PUSH2 0x148D JUMPI PUSH0 DUP1 REVERT JUMPDEST PUSH2 0x1496 DUP4 PUSH2 0x144D JUMP JUMPDEST SWAP2 POP PUSH1 0x20 DUP4 ADD CALLDATALOAD PUSH2 0x14A6 DUP2 PUSH2 0x1468 JUMP JUMPDEST DUP1 SWAP2 POP POP SWAP3 POP SWAP3 SWAP1 POP JUMP JUMPDEST PUSH0 PUSH1 0x20 DUP3 DUP5 SUB SLT ISZERO PUSH2 0x14C1 JUMPI PUSH0 DUP1 REVERT JUMPDEST DUP2 CALLDATALOAD PUSH1 0x1 PUSH1 0x1 PUSH1 0xE0 SHL SUB NOT DUP2 AND DUP2 EQ PUSH2 0x14D8 JUMPI PUSH0 DUP1 REVERT JUMPDEST SWAP4 SWAP3 POP POP POP JUMP JUMPDEST PUSH0 PUSH1 0x20 DUP3 DUP5 SUB SLT ISZERO PUSH2 0x14EF JUMPI PUSH0 DUP1 REVERT JUMPDEST DUP2 CALLDATALOAD PUSH2 0x14D8 DUP2 PUSH2 0x1468 JUMP JUMPDEST PUSH0 DUP1 PUSH1 0x40 DUP4 DUP6 SUB SLT ISZERO PUSH2 0x150B JUMPI PUSH0 DUP1 REVERT JUMPDEST DUP3 CALLDATALOAD SWAP2 POP PUSH1 0x20 DUP4 ADD CALLDATALOAD PUSH2 0x14A6 DUP2 PUSH2 0x1468 JUMP JUMPDEST PUSH0 PUSH1 0x20 DUP3 DUP5 SUB SLT ISZERO PUSH2 0x152D JUMPI PUSH0 DUP1 REVERT JUMPDEST POP CALLDATALOAD SWAP2 SWAP1 POP JUMP JUMPDEST PUSH0 PUSH1 0x20 DUP3 DUP5 SUB SLT ISZERO PUSH2 0x1544 JUMPI PUSH0 DUP1 REVERT JUMPDEST DUP2 CALLDATALOAD PUSH1 0x1 PUSH1 0x1 PUSH1 0x40 SHL SUB DUP2 GT ISZERO PUSH2 0x1559 JUMPI PUSH0 DUP1 REVERT JUMPDEST DUP3 ADD PUSH1 0xA0 DUP2 DUP6 SUB SLT ISZERO PUSH2 0x14D8 JUMPI PUSH0 DUP1 REVERT JUMPDEST PUSH0 DUP1 PUSH0 PUSH1 0x60 DUP5 DUP7 SUB SLT ISZERO PUSH2 0x157C JUMPI PUSH0 DUP1 REVERT JUMPDEST PUSH2 0x1585 DUP5 PUSH2 0x144D JUMP JUMPDEST SWAP3 POP PUSH1 0x20 DUP5 ADD CALLDATALOAD SWAP2 POP PUSH1 0x40 DUP5 ADD CALLDATALOAD PUSH2 0x159C DUP2 PUSH2 0x1468 JUMP JUMPDEST DUP1 SWAP2 POP POP SWAP3 POP SWAP3 POP SWAP3 JUMP JUMPDEST PUSH0 PUSH1 0x20 DUP3 DUP5 SUB SLT ISZERO PUSH2 0x15B7 JUMPI PUSH0 DUP1 REVERT JUMPDEST DUP2 MLOAD DUP1 ISZERO ISZERO DUP2 EQ PUSH2 0x14D8 JUMPI PUSH0 DUP1 REVERT JUMPDEST PUSH1 0x20 DUP1 DUP3 MSTORE PUSH1 0x3C SWAP1 DUP3 ADD MSTORE PUSH32 0x43726F7373436861696E466163696C697461746F723A204661696C656420746F PUSH1 0x40 DUP3 ADD MSTORE PUSH32 0x207472616E736665722047484F20746F20666163696C697461746F7200000000 PUSH1 0x60 DUP3 ADD MSTORE PUSH1 0x80 ADD SWAP1 JUMP JUMPDEST PUSH1 0x20 DUP1 DUP3 MSTORE PUSH1 0x35 SWAP1 DUP3 ADD MSTORE PUSH32 0x43726F7373436861696E466163696C697461746F723A204F6E6C792041617665 PUSH1 0x40 DUP3 ADD MSTORE PUSH21 0x1023B7BB32B93730B731B29031B0B71031B0B63617 PUSH1 0x59 SHL PUSH1 0x60 DUP3 ADD MSTORE PUSH1 0x80 ADD SWAP1 JUMP JUMPDEST DUP1 DUP3 ADD DUP1 DUP3 GT ISZERO PUSH2 0x542 JUMPI PUSH4 0x4E487B71 PUSH1 0xE0 SHL PUSH0 MSTORE PUSH1 0x11 PUSH1 0x4 MSTORE PUSH1 0x24 PUSH0 REVERT JUMPDEST PUSH4 0x4E487B71 PUSH1 0xE0 SHL PUSH0 MSTORE PUSH1 0x41 PUSH1 0x4 MSTORE PUSH1 0x24 PUSH0 REVERT JUMPDEST PUSH1 0x40 DUP1 MLOAD SWAP1 DUP2 ADD PUSH1 0x1 PUSH1 0x1 PUSH1 0x40 SHL SUB DUP2 GT DUP3 DUP3 LT OR ISZERO PUSH2 0x16CD JUMPI PUSH2 0x16CD PUSH2 0x1697 JUMP JUMPDEST PUSH1 0x40 MSTORE SWAP1 JUMP JUMPDEST PUSH1 0x40 MLOAD PUSH1 0xA0 DUP2 ADD PUSH1 0x1 PUSH1 0x1 PUSH1 0x40 SHL SUB DUP2 GT DUP3 DUP3 LT OR ISZERO PUSH2 0x16CD JUMPI PUSH2 0x16CD PUSH2 0x1697 JUMP JUMPDEST PUSH1 0x40 MLOAD PUSH1 0x1F DUP3 ADD PUSH1 0x1F NOT AND DUP2 ADD PUSH1 0x1 PUSH1 0x1 PUSH1 0x40 SHL SUB DUP2 GT DUP3 DUP3 LT OR ISZERO PUSH2 0x171D JUMPI PUSH2 0x171D PUSH2 0x1697 JUMP JUMPDEST PUSH1 0x40 MSTORE SWAP2 SWAP1 POP JUMP JUMPDEST PUSH0 DUP3 PUSH1 0x1F DUP4 ADD SLT PUSH2 0x1734 JUMPI PUSH0 DUP1 REVERT JUMPDEST DUP2 CALLDATALOAD PUSH1 0x1 PUSH1 0x1 PUSH1 0x40 SHL SUB DUP2 GT ISZERO PUSH2 0x174D JUMPI PUSH2 0x174D PUSH2 0x1697 JUMP JUMPDEST PUSH2 0x1760 PUSH1 0x1F DUP3 ADD PUSH1 0x1F NOT AND PUSH1 0x20 ADD PUSH2 0x16F5 JUMP JUMPDEST DUP2 DUP2 MSTORE DUP5 PUSH1 0x20 DUP4 DUP7 ADD ADD GT ISZERO PUSH2 0x1774 JUMPI PUSH0 DUP1 REVERT JUMPDEST DUP2 PUSH1 0x20 DUP6 ADD PUSH1 0x20 DUP4 ADD CALLDATACOPY PUSH0 SWAP2 DUP2 ADD PUSH1 0x20 ADD SWAP2 SWAP1 SWAP2 MSTORE SWAP4 SWAP3 POP POP POP JUMP JUMPDEST PUSH0 DUP3 PUSH1 0x1F DUP4 ADD SLT PUSH2 0x179F JUMPI PUSH0 DUP1 REVERT JUMPDEST DUP2 CALLDATALOAD PUSH1 0x20 PUSH1 0x1 PUSH1 0x1 PUSH1 0x40 SHL SUB DUP3 GT ISZERO PUSH2 0x17BA JUMPI PUSH2 0x17BA PUSH2 0x1697 JUMP JUMPDEST PUSH2 0x17C8 DUP2 DUP4 PUSH1 0x5 SHL ADD PUSH2 0x16F5 JUMP JUMPDEST DUP3 DUP2 MSTORE PUSH1 0x6 SWAP3 SWAP1 SWAP3 SHL DUP5 ADD DUP2 ADD SWAP2 DUP2 DUP2 ADD SWAP1 DUP7 DUP5 GT ISZERO PUSH2 0x17E6 JUMPI PUSH0 DUP1 REVERT JUMPDEST DUP3 DUP7 ADD JUMPDEST DUP5 DUP2 LT ISZERO PUSH2 0x182C JUMPI PUSH1 0x40 DUP2 DUP10 SUB SLT ISZERO PUSH2 0x1801 JUMPI PUSH0 DUP1 REVERT JUMPDEST PUSH2 0x1809 PUSH2 0x16AB JUMP JUMPDEST DUP2 CALLDATALOAD PUSH2 0x1814 DUP2 PUSH2 0x1468 JUMP JUMPDEST DUP2 MSTORE DUP2 DUP6 ADD CALLDATALOAD DUP6 DUP3 ADD MSTORE DUP4 MSTORE SWAP2 DUP4 ADD SWAP2 PUSH1 0x40 ADD PUSH2 0x17EA JUMP JUMPDEST POP SWAP7 SWAP6 POP POP POP POP POP POP JUMP JUMPDEST PUSH0 PUSH1 0xA0 DUP3 CALLDATASIZE SUB SLT ISZERO PUSH2 0x1847 JUMPI PUSH0 DUP1 REVERT JUMPDEST PUSH2 0x184F PUSH2 0x16D3 JUMP JUMPDEST DUP3 CALLDATALOAD DUP2 MSTORE PUSH2 0x185F PUSH1 0x20 DUP5 ADD PUSH2 0x144D JUMP JUMPDEST PUSH1 0x20 DUP3 ADD MSTORE PUSH1 0x40 DUP4 ADD CALLDATALOAD PUSH1 0x1 PUSH1 0x1 PUSH1 0x40 SHL SUB DUP1 DUP3 GT ISZERO PUSH2 0x187D JUMPI PUSH0 DUP1 REVERT JUMPDEST PUSH2 0x1889 CALLDATASIZE DUP4 DUP8 ADD PUSH2 0x1725 JUMP JUMPDEST PUSH1 0x40 DUP5 ADD MSTORE PUSH1 0x60 DUP6 ADD CALLDATALOAD SWAP2 POP DUP1 DUP3 GT ISZERO PUSH2 0x18A1 JUMPI PUSH0 DUP1 REVERT JUMPDEST PUSH2 0x18AD CALLDATASIZE DUP4 DUP8 ADD PUSH2 0x1725 JUMP JUMPDEST PUSH1 0x60 DUP5 ADD MSTORE PUSH1 0x80 DUP6 ADD CALLDATALOAD SWAP2 POP DUP1 DUP3 GT ISZERO PUSH2 0x18C5 JUMPI PUSH0 DUP1 REVERT JUMPDEST POP PUSH2 0x18D2 CALLDATASIZE DUP3 DUP7 ADD PUSH2 0x1790 JUMP JUMPDEST PUSH1 0x80 DUP4 ADD MSTORE POP SWAP3 SWAP2 POP POP JUMP JUMPDEST PUSH0 PUSH1 0x20 DUP3 DUP5 SUB SLT ISZERO PUSH2 0x18EE JUMPI PUSH0 DUP1 REVERT JUMPDEST DUP2 MLOAD PUSH2 0x14D8 DUP2 PUSH2 0x1468 JUMP JUMPDEST PUSH0 DUP2 MLOAD DUP1 DUP5 MSTORE PUSH0 JUMPDEST DUP2 DUP2 LT ISZERO PUSH2 0x191D JUMPI PUSH1 0x20 DUP2 DUP6 ADD DUP2 ADD MLOAD DUP7 DUP4 ADD DUP3 ADD MSTORE ADD PUSH2 0x1901 JUMP JUMPDEST POP PUSH0 PUSH1 0x20 DUP3 DUP7 ADD ADD MSTORE PUSH1 0x20 PUSH1 0x1F NOT PUSH1 0x1F DUP4 ADD AND DUP6 ADD ADD SWAP2 POP POP SWAP3 SWAP2 POP POP JUMP JUMPDEST PUSH0 PUSH1 0x40 PUSH1 0x1 PUSH1 0x1 PUSH1 0x40 SHL SUB DUP6 AND DUP4 MSTORE PUSH1 0x20 PUSH1 0x40 DUP2 DUP6 ADD MSTORE DUP5 MLOAD PUSH1 0xA0 PUSH1 0x40 DUP7 ADD MSTORE PUSH2 0x1969 PUSH1 0xE0 DUP7 ADD DUP3 PUSH2 0x18F9 JUMP JUMPDEST SWAP1 POP DUP2 DUP7 ADD MLOAD PUSH1 0x3F NOT DUP1 DUP8 DUP5 SUB ADD PUSH1 0x60 DUP9 ADD MSTORE PUSH2 0x1986 DUP4 DUP4 PUSH2 0x18F9 JUMP JUMPDEST PUSH1 0x40 DUP10 ADD MLOAD DUP9 DUP3 SUB DUP4 ADD PUSH1 0x80 DUP11 ADD MSTORE DUP1 MLOAD DUP1 DUP4 MSTORE SWAP1 DUP7 ADD SWAP5 POP PUSH0 SWAP4 POP SWAP1 DUP6 ADD SWAP1 JUMPDEST DUP1 DUP5 LT ISZERO PUSH2 0x19D9 JUMPI DUP5 MLOAD DUP1 MLOAD PUSH1 0x1 PUSH1 0x1 PUSH1 0xA0 SHL SUB AND DUP4 MSTORE DUP7 ADD MLOAD DUP7 DUP4 ADD MSTORE SWAP4 DUP6 ADD SWAP4 PUSH1 0x1 SWAP4 SWAP1 SWAP4 ADD SWAP3 SWAP1 DUP7 ADD SWAP1 PUSH2 0x19A7 JUMP JUMPDEST POP PUSH1 0x60 DUP10 ADD MLOAD PUSH1 0x1 PUSH1 0x1 PUSH1 0xA0 SHL SUB AND PUSH1 0xA0 DUP10 ADD MSTORE PUSH1 0x80 DUP10 ADD MLOAD DUP9 DUP3 SUB DUP4 ADD PUSH1 0xC0 DUP11 ADD MSTORE SWAP6 POP PUSH2 0x1A08 DUP2 DUP8 PUSH2 0x18F9 JUMP JUMPDEST SWAP11 SWAP10 POP POP POP POP POP POP POP POP POP POP JUMP JUMPDEST PUSH0 PUSH1 0x20 DUP3 DUP5 SUB SLT ISZERO PUSH2 0x1A26 JUMPI PUSH0 DUP1 REVERT JUMPDEST POP MLOAD SWAP2 SWAP1 POP JUMP JUMPDEST PUSH1 0x20 DUP1 DUP3 MSTORE PUSH1 0x27 SWAP1 DUP3 ADD MSTORE PUSH32 0x43726F7373436861696E466163696C697461746F723A20466565206F7574206F PUSH1 0x40 DUP3 ADD MSTORE PUSH7 0x662072616E6765 PUSH1 0xC8 SHL PUSH1 0x60 DUP3 ADD MSTORE PUSH1 0x80 ADD SWAP1 JUMP JUMPDEST PUSH0 PUSH1 0x60 DUP3 DUP5 SUB SLT ISZERO PUSH2 0x1A84 JUMPI PUSH0 DUP1 REVERT JUMPDEST PUSH1 0x40 MLOAD PUSH1 0x60 DUP2 ADD DUP2 DUP2 LT PUSH1 0x1 PUSH1 0x1 PUSH1 0x40 SHL SUB DUP3 GT OR ISZERO PUSH2 0x1AA6 JUMPI PUSH2 0x1AA6 PUSH2 0x1697 JUMP JUMPDEST PUSH1 0x40 MSTORE DUP3 MLOAD DUP2 MSTORE PUSH1 0x20 DUP4 ADD MLOAD PUSH2 0x1ABB DUP2 PUSH2 0x1468 JUMP JUMPDEST PUSH1 0x20 DUP3 ADD MSTORE PUSH1 0x40 DUP4 ADD MLOAD PUSH2 0x1ACE DUP2 PUSH2 0x1468 JUMP JUMPDEST PUSH1 0x40 DUP3 ADD MSTORE SWAP4 SWAP3 POP POP POP JUMP INVALID LOG2 PUSH5 0x6970667358 0x22 SLT KECCAK256 0xFB 0x23 LOG0 PUSH5 0xDCA4584293 0x25 0xCD 0xB4 PUSH2 0x509A DUP6 ISZERO 0xE BASEFEE SWAP7 0x2F NOT SWAP3 0xD9 MUL DUP14 0xD0 0xD1 EXTCODECOPY 0xCE GASLIMIT SAR PUSH5 0x736F6C6343 STOP ADDMOD AND STOP CALLER NUMBER PUSH19 0x6F7373436861696E466163696C697461746F72 GASPRICE KECCAK256 CHAINID PUSH6 0x65206F757420 PUSH16 0x0 "
				},
				"gasEstimates": {
					"creation": {
						"codeDepositCost": "1385600",
						"executionCost": "infinite",
						"totalCost": "infinite"
					},
					"external": {
						"GHO_TOKEN()": "infinite",
						"MAX_FEE()": "283",
						"USDC_TOKEN()": "infinite",
						"approveCrossChainReceiver(uint64,address)": "26965",
						"ccipReceive((bytes32,uint64,bytes,bytes,(address,uint256)[]))": "infinite",
						"distributeFeesToTreasury()": "infinite",
						"getGhoTreasury()": "2417",
						"getMintFee()": "2303",
						"getRouter()": "infinite",
						"getTransferFee()": "2314",
						"mintGHOForUSDC(uint256,address)": "infinite",
						"redeemUSDCForGHO(uint64,address)": "infinite",
						"sendGHOCrossChain(uint64,uint256,address)": "infinite",
						"supportsInterface(bytes4)": "469",
						"updateGhoTreasury(address)": "infinite",
						"updateMintFee(uint256)": "28013",
						"updateTransferFee(uint256)": "28068"
					},
					"internal": {
						"_buildCCIPMessage(address,struct CrossChainGHOTransfer memory,address)": "infinite",
						"_calcMintFee(uint256)": "infinite",
						"_calcTransferFee(uint256)": "infinite",
						"_ccipReceive(struct Client.Any2EVMMessage memory)": "infinite",
						"_updateAaveGovernance(address)": "infinite",
						"_updateGhoTreasury(address)": "25820",
						"_updateMintFee(uint256)": "infinite",
						"_updateTransferFee(uint256)": "infinite",
						"ghoBalance()": "infinite"
					}
				},
				"methodIdentifiers": {
					"GHO_TOKEN()": "b1c660f7",
					"MAX_FEE()": "bc063e1a",
					"USDC_TOKEN()": "fa569274",
					"approveCrossChainReceiver(uint64,address)": "de4c8817",
					"ccipReceive((bytes32,uint64,bytes,bytes,(address,uint256)[]))": "85572ffb",
					"distributeFeesToTreasury()": "dc49a07b",
					"getGhoTreasury()": "e28178cc",
					"getMintFee()": "7a5caab3",
					"getRouter()": "b0f479a1",
					"getTransferFee()": "9a17d8c1",
					"mintGHOForUSDC(uint256,address)": "788a19c7",
					"redeemUSDCForGHO(uint64,address)": "0123ad04",
					"sendGHOCrossChain(uint64,uint256,address)": "d09f3360",
					"supportsInterface(bytes4)": "01ffc9a7",
					"updateGhoTreasury(address)": "1fde40bb",
					"updateMintFee(uint256)": "84017e52",
					"updateTransferFee(uint256)": "8577a6d5"
				}
			},
			"storageLayout": {
				"storage": [
					{
						"astId": 659,
						"contract": "src/CrossChainFacilitator.sol:CrossChainFacilitator",
						"label": "_ghoTreasury",
						"offset": 0,
						"slot": "0",
						"type": "t_address"
					},
					{
						"astId": 661,
						"contract": "src/CrossChainFacilitator.sol:CrossChainFacilitator",
						"label": "_mintFee",
						"offset": 0,
						"slot": "1",
						"type": "t_uint256"
					},
					{
						"astId": 663,
						"contract": "src/CrossChainFacilitator.sol:CrossChainFacilitator",
						"label": "_transferFee",
						"offset": 0,
						"slot": "2",
						"type": "t_uint256"
					},
					{
						"astId": 665,
						"contract": "src/CrossChainFacilitator.sol:CrossChainFacilitator",
						"label": "_aaveGovernance",
						"offset": 0,
						"slot": "3",
						"type": "t_address"
					},
					{
						"astId": 667,
						"contract": "src/CrossChainFacilitator.sol:CrossChainFacilitator",
						"label": "_ghoTreasuryFees",
						"offset": 0,
						"slot": "4",
						"type": "t_uint256"
					},
					{
						"astId": 671,
						"contract": "src/CrossChainFacilitator.sol:CrossChainFacilitator",
						"label": "approvedCrossChainReceivers",
						"offset": 0,
						"slot": "5",
						"type": "t_mapping(t_uint64,t_address)"
					}
				],
				"types": {
					"t_address": {
						"encoding": "inplace",
						"label": "address",
						"numberOfBytes": "20"
					},
					"t_mapping(t_uint64,t_address)": {
						"encoding": "mapping",
						"key": "t_uint64",
						"label": "mapping(uint64 => address)",
						"numberOfBytes": "32",
						"value": "t_address"
					},
					"t_uint256": {
						"encoding": "inplace",
						"label": "uint256",
						"numberOfBytes": "32"
					},
					"t_uint64": {
						"encoding": "inplace",
						"label": "uint64",
						"numberOfBytes": "8"
					}
				}
			},
			"userdoc": {
				"kind": "user",
				"methods": {
					"GHO_TOKEN()": {
						"notice": "Returns the address of the GHO token contract"
					},
					"MAX_FEE()": {
						"notice": "Returns the maximum value the fee can be set to"
					},
					"ccipReceive((bytes32,uint64,bytes,bytes,(address,uint256)[]))": {
						"notice": "Called by the Router to deliver a message. If this reverts, any token transfers also revert. The message will move to a FAILED state and become available for manual execution."
					},
					"distributeFeesToTreasury()": {
						"notice": "Distribute fees to the GhoTreasury"
					},
					"getGhoTreasury()": {
						"notice": "Returns the address of the Gho Treasury"
					},
					"getMintFee()": {
						"notice": "Returns the percentage of each mint taken as a fee"
					},
					"getRouter()": {
						"notice": "Return the current router"
					},
					"supportsInterface(bytes4)": {
						"notice": "IERC165 supports an interfaceId"
					},
					"updateGhoTreasury(address)": {
						"notice": "Updates the address of the Gho Treasury"
					},
					"updateMintFee(uint256)": {
						"notice": "Updates the percentage fee. It is the percentage of the minted amount that needs to be repaid."
					}
				},
				"version": 1
			}
		}
	}
}