{
	"src/CrossChainFacilitator.sol": {
		"CrossChainFacilitator": {
			"abi": [
				{
					"inputs": [
						{
							"internalType": "address",
							"name": "ghoToken",
							"type": "address"
						},
						{
							"internalType": "address",
							"name": "usdcToken",
							"type": "address"
						},
						{
							"internalType": "address",
							"name": "ghoTreasury",
							"type": "address"
						},
						{
							"internalType": "address",
							"name": "aaveGovernance",
							"type": "address"
						},
						{
							"internalType": "uint256",
							"name": "mintFee",
							"type": "uint256"
						},
						{
							"internalType": "uint256",
							"name": "transferFee",
							"type": "uint256"
						},
						{
							"internalType": "address",
							"name": "_router",
							"type": "address"
						}
					],
					"stateMutability": "nonpayable",
					"type": "constructor"
				},
				{
					"inputs": [
						{
							"internalType": "address",
							"name": "router",
							"type": "address"
						}
					],
					"name": "InvalidRouter",
					"type": "error"
				},
				{
					"anonymous": false,
					"inputs": [
						{
							"indexed": false,
							"internalType": "address",
							"name": "oldAaveGovernance",
							"type": "address"
						},
						{
							"indexed": false,
							"internalType": "address",
							"name": "newAaveGovernance",
							"type": "address"
						}
					],
					"name": "AaveGovernanceUpdated",
					"type": "event"
				},
				{
					"anonymous": false,
					"inputs": [
						{
							"indexed": true,
							"internalType": "address",
							"name": "ghoTreasury",
							"type": "address"
						},
						{
							"indexed": true,
							"internalType": "address",
							"name": "asset",
							"type": "address"
						},
						{
							"indexed": false,
							"internalType": "uint256",
							"name": "amount",
							"type": "uint256"
						}
					],
					"name": "FeesDistributedToTreasury",
					"type": "event"
				},
				{
					"anonymous": false,
					"inputs": [
						{
							"indexed": true,
							"internalType": "address",
							"name": "oldGhoTreasury",
							"type": "address"
						},
						{
							"indexed": true,
							"internalType": "address",
							"name": "newGhoTreasury",
							"type": "address"
						}
					],
					"name": "GhoTreasuryUpdated",
					"type": "event"
				},
				{
					"anonymous": false,
					"inputs": [
						{
							"indexed": true,
							"internalType": "bytes32",
							"name": "messageId",
							"type": "bytes32"
						},
						{
							"indexed": true,
							"internalType": "uint64",
							"name": "sourceChainSelector",
							"type": "uint64"
						},
						{
							"indexed": false,
							"internalType": "address",
							"name": "receiver",
							"type": "address"
						},
						{
							"indexed": false,
							"internalType": "address",
							"name": "sender",
							"type": "address"
						},
						{
							"indexed": false,
							"internalType": "uint256",
							"name": "amount",
							"type": "uint256"
						}
					],
					"name": "MessageReceived",
					"type": "event"
				},
				{
					"anonymous": false,
					"inputs": [
						{
							"indexed": true,
							"internalType": "bytes32",
							"name": "messageId",
							"type": "bytes32"
						},
						{
							"indexed": true,
							"internalType": "uint64",
							"name": "destinationChainSelector",
							"type": "uint64"
						},
						{
							"indexed": false,
							"internalType": "address",
							"name": "receiver",
							"type": "address"
						},
						{
							"indexed": false,
							"internalType": "uint256",
							"name": "amount",
							"type": "uint256"
						},
						{
							"indexed": false,
							"internalType": "address",
							"name": "feeToken",
							"type": "address"
						},
						{
							"indexed": false,
							"internalType": "uint256",
							"name": "fees",
							"type": "uint256"
						}
					],
					"name": "MessageSent",
					"type": "event"
				},
				{
					"anonymous": false,
					"inputs": [
						{
							"indexed": false,
							"internalType": "uint256",
							"name": "oldFee",
							"type": "uint256"
						},
						{
							"indexed": false,
							"internalType": "uint256",
							"name": "newFee",
							"type": "uint256"
						}
					],
					"name": "MintFeeUpdated",
					"type": "event"
				},
				{
					"anonymous": false,
					"inputs": [
						{
							"indexed": false,
							"internalType": "uint256",
							"name": "oldFee",
							"type": "uint256"
						},
						{
							"indexed": false,
							"internalType": "uint256",
							"name": "newFee",
							"type": "uint256"
						}
					],
					"name": "TransferFeeUpdated",
					"type": "event"
				},
				{
					"inputs": [],
					"name": "GHO_TOKEN",
					"outputs": [
						{
							"internalType": "contract IGhoToken",
							"name": "",
							"type": "address"
						}
					],
					"stateMutability": "view",
					"type": "function"
				},
				{
					"inputs": [],
					"name": "MAX_FEE",
					"outputs": [
						{
							"internalType": "uint256",
							"name": "",
							"type": "uint256"
						}
					],
					"stateMutability": "view",
					"type": "function"
				},
				{
					"inputs": [],
					"name": "USDC_TOKEN",
					"outputs": [
						{
							"internalType": "contract IERC20",
							"name": "",
							"type": "address"
						}
					],
					"stateMutability": "view",
					"type": "function"
				},
				{
					"inputs": [
						{
							"internalType": "uint64",
							"name": "chainId",
							"type": "uint64"
						},
						{
							"internalType": "address",
							"name": "ccReceiver",
							"type": "address"
						}
					],
					"name": "approveCrossChainReceiver",
					"outputs": [],
					"stateMutability": "nonpayable",
					"type": "function"
				},
				{
					"inputs": [
						{
							"internalType": "bytes",
							"name": "data",
							"type": "bytes"
						}
					],
					"name": "bytesToAddress",
					"outputs": [
						{
							"internalType": "address",
							"name": "",
							"type": "address"
						}
					],
					"stateMutability": "pure",
					"type": "function"
				},
				{
					"inputs": [
						{
							"internalType": "uint256",
							"name": "amount",
							"type": "uint256"
						}
					],
					"name": "calcMintFee",
					"outputs": [
						{
							"internalType": "uint256",
							"name": "",
							"type": "uint256"
						}
					],
					"stateMutability": "view",
					"type": "function"
				},
				{
					"inputs": [
						{
							"internalType": "uint256",
							"name": "amount",
							"type": "uint256"
						}
					],
					"name": "calcTransferFee",
					"outputs": [
						{
							"internalType": "uint256",
							"name": "",
							"type": "uint256"
						}
					],
					"stateMutability": "view",
					"type": "function"
				},
				{
					"inputs": [
						{
							"components": [
								{
									"internalType": "bytes32",
									"name": "messageId",
									"type": "bytes32"
								},
								{
									"internalType": "uint64",
									"name": "sourceChainSelector",
									"type": "uint64"
								},
								{
									"internalType": "bytes",
									"name": "sender",
									"type": "bytes"
								},
								{
									"internalType": "bytes",
									"name": "data",
									"type": "bytes"
								},
								{
									"components": [
										{
											"internalType": "address",
											"name": "token",
											"type": "address"
										},
										{
											"internalType": "uint256",
											"name": "amount",
											"type": "uint256"
										}
									],
									"internalType": "struct Client.EVMTokenAmount[]",
									"name": "destTokenAmounts",
									"type": "tuple[]"
								}
							],
							"internalType": "struct Client.Any2EVMMessage",
							"name": "message",
							"type": "tuple"
						}
					],
					"name": "ccipReceive",
					"outputs": [],
					"stateMutability": "nonpayable",
					"type": "function"
				},
				{
					"inputs": [],
					"name": "distributeFeesToTreasury",
					"outputs": [],
					"stateMutability": "nonpayable",
					"type": "function"
				},
				{
					"inputs": [],
					"name": "getAaveGovernance",
					"outputs": [
						{
							"internalType": "address",
							"name": "",
							"type": "address"
						}
					],
					"stateMutability": "view",
					"type": "function"
				},
				{
					"inputs": [],
					"name": "getGhoTreasury",
					"outputs": [
						{
							"internalType": "address",
							"name": "",
							"type": "address"
						}
					],
					"stateMutability": "view",
					"type": "function"
				},
				{
					"inputs": [],
					"name": "getMintFee",
					"outputs": [
						{
							"internalType": "uint256",
							"name": "",
							"type": "uint256"
						}
					],
					"stateMutability": "view",
					"type": "function"
				},
				{
					"inputs": [],
					"name": "getRouter",
					"outputs": [
						{
							"internalType": "address",
							"name": "",
							"type": "address"
						}
					],
					"stateMutability": "view",
					"type": "function"
				},
				{
					"inputs": [
						{
							"internalType": "uint64",
							"name": "chainSelector",
							"type": "uint64"
						},
						{
							"internalType": "uint256",
							"name": "amount",
							"type": "uint256"
						},
						{
							"internalType": "address",
							"name": "to",
							"type": "address"
						}
					],
					"name": "getRouterFee",
					"outputs": [
						{
							"internalType": "uint256",
							"name": "",
							"type": "uint256"
						}
					],
					"stateMutability": "view",
					"type": "function"
				},
				{
					"inputs": [],
					"name": "getTransferFee",
					"outputs": [
						{
							"internalType": "uint256",
							"name": "",
							"type": "uint256"
						}
					],
					"stateMutability": "view",
					"type": "function"
				},
				{
					"inputs": [
						{
							"internalType": "uint256",
							"name": "amount",
							"type": "uint256"
						},
						{
							"internalType": "address",
							"name": "to",
							"type": "address"
						}
					],
					"name": "mintGHOForUSDC",
					"outputs": [],
					"stateMutability": "nonpayable",
					"type": "function"
				},
				{
					"inputs": [
						{
							"internalType": "uint256",
							"name": "amount",
							"type": "uint256"
						},
						{
							"internalType": "address",
							"name": "to",
							"type": "address"
						}
					],
					"name": "redeemUSDCForGHO",
					"outputs": [],
					"stateMutability": "nonpayable",
					"type": "function"
				},
				{
					"inputs": [
						{
							"internalType": "uint64",
							"name": "chainId",
							"type": "uint64"
						},
						{
							"internalType": "uint256",
							"name": "amount",
							"type": "uint256"
						},
						{
							"internalType": "address",
							"name": "to",
							"type": "address"
						}
					],
					"name": "sendGHOCrossChain",
					"outputs": [
						{
							"internalType": "bytes32",
							"name": "messageId",
							"type": "bytes32"
						}
					],
					"stateMutability": "payable",
					"type": "function"
				},
				{
					"inputs": [
						{
							"internalType": "bytes4",
							"name": "interfaceId",
							"type": "bytes4"
						}
					],
					"name": "supportsInterface",
					"outputs": [
						{
							"internalType": "bool",
							"name": "",
							"type": "bool"
						}
					],
					"stateMutability": "pure",
					"type": "function"
				},
				{
					"inputs": [
						{
							"internalType": "address",
							"name": "newAaveGovernance",
							"type": "address"
						}
					],
					"name": "updateAaveGovernance",
					"outputs": [],
					"stateMutability": "nonpayable",
					"type": "function"
				},
				{
					"inputs": [
						{
							"internalType": "address",
							"name": "newGhoTreasury",
							"type": "address"
						}
					],
					"name": "updateGhoTreasury",
					"outputs": [],
					"stateMutability": "nonpayable",
					"type": "function"
				},
				{
					"inputs": [
						{
							"internalType": "uint256",
							"name": "newFee",
							"type": "uint256"
						}
					],
					"name": "updateMintFee",
					"outputs": [],
					"stateMutability": "nonpayable",
					"type": "function"
				},
				{
					"inputs": [
						{
							"internalType": "uint256",
							"name": "newFee",
							"type": "uint256"
						}
					],
					"name": "updateTransferFee",
					"outputs": [],
					"stateMutability": "nonpayable",
					"type": "function"
				}
			],
			"devdoc": {
				"events": {
					"FeesDistributedToTreasury(address,address,uint256)": {
						"details": "Emitted when fees are distributed to the GhoTreasury",
						"params": {
							"amount": "The amount of the asset transferred to the ghoTreasury",
							"asset": "The address of the asset transferred to the ghoTreasury",
							"ghoTreasury": "The address of the ghoTreasury"
						}
					},
					"GhoTreasuryUpdated(address,address)": {
						"details": "Emitted when Gho Treasury address is updated",
						"params": {
							"newGhoTreasury": "The address of the new GhoTreasury contract",
							"oldGhoTreasury": "The address of the old GhoTreasury contract"
						}
					},
					"MintFeeUpdated(uint256,uint256)": {
						"details": "Emitted when the percentage fee is updated",
						"params": {
							"newFee": "The new fee (in bps)",
							"oldFee": "The old fee (in bps)"
						}
					},
					"TransferFeeUpdated(uint256,uint256)": {
						"details": "Emitted when the percentage fee is updated",
						"params": {
							"newFee": "The new fee (in bps)",
							"oldFee": "The old fee (in bps)"
						}
					}
				},
				"kind": "dev",
				"methods": {
					"ccipReceive((bytes32,uint64,bytes,bytes,(address,uint256)[]))": {
						"details": "Note ensure you check the msg.sender is the OffRampRouter",
						"params": {
							"message": "CCIP Message"
						}
					},
					"getGhoTreasury()": {
						"returns": {
							"_0": "The address of the GhoTreasury contract"
						}
					},
					"getMintFee()": {
						"returns": {
							"_0": "The percentage fee of the minted amount that needs to be repaid, on top of the principal (in bps)."
						}
					},
					"getRouter()": {
						"returns": {
							"_0": "i_router address"
						}
					},
					"supportsInterface(bytes4)": {
						"details": "Should indicate whether the contract implements IAny2EVMMessageReceiver e.g. return interfaceId == type(IAny2EVMMessageReceiver).interfaceId || interfaceId == type(IERC165).interfaceId This allows CCIP to check if ccipReceive is available before calling it. If this returns false or reverts, only tokens are transferred to the receiver. If this returns true, tokens are transferred and ccipReceive is called atomically. Additionally, if the receiver address does not have code associated with it at the time of execution (EXTCODESIZE returns 0), only tokens will be transferred.",
						"params": {
							"interfaceId": "The interfaceId to check"
						},
						"returns": {
							"_0": "true if the interfaceId is supported"
						}
					},
					"updateGhoTreasury(address)": {
						"details": "WARNING: The GhoTreasury is where revenue fees are sent to. Update carefully",
						"params": {
							"newGhoTreasury": "The address of the GhoTreasury"
						}
					},
					"updateMintFee(uint256)": {
						"details": "The fee is expressed in bps. A value of 100, results in 1.00%",
						"params": {
							"newFee": "The new percentage fee (in bps)"
						}
					}
				},
				"stateVariables": {
					"GHO_TOKEN": {
						"return": "The address of the GhoToken",
						"returns": {
							"_0": "The address of the GhoToken"
						}
					},
					"MAX_FEE": {
						"return": "The maximum percentage fee of the minted amount that the fee can be set to (in bps).",
						"returns": {
							"_0": "The maximum percentage fee of the minted amount that the fee can be set to (in bps)."
						}
					}
				},
				"version": 1
			},
			"evm": {
				"assembly": "    /* \"src/CrossChainFacilitator.sol\":604:11368  contract CrossChainFacilitator is CCIPReceiver, ICrossChainFacilitator {... */\n  mstore(0x40, 0xe0)\n    /* \"src/CrossChainFacilitator.sol\":1572:2162  constructor(... */\n  callvalue\n  dup1\n  iszero\n  tag_1\n  jumpi\n  0x00\n  dup1\n  revert\ntag_1:\n  pop\n  mload(0x40)\n  sub(codesize, bytecodeSize)\n  dup1\n  bytecodeSize\n  dup4\n  codecopy\n  dup2\n  add\n  0x40\n  dup2\n  swap1\n  mstore\n  tag_2\n  swap2\n  tag_3\n  jump\t// in\ntag_2:\n    /* \"src/CrossChainFacilitator.sol\":1796:1803  _router */\n  dup1\n  sub(shl(0xa0, 0x01), 0x01)\n    /* \"lib/contracts-ccip/src/v0.8/ccip/applications/CCIPReceiver.sol\":538:558  router == address(0) */\n  dup2\n  and\n    /* \"lib/contracts-ccip/src/v0.8/ccip/applications/CCIPReceiver.sol\":534:592  if (router == address(0)) revert InvalidRouter(address(0)) */\n  tag_7\n  jumpi\n    /* \"lib/contracts-ccip/src/v0.8/ccip/applications/CCIPReceiver.sol\":567:592  InvalidRouter(address(0)) */\n  mload(0x40)\n  shl(0xe2, 0x35fdcccd)\n  dup2\n  mstore\n    /* \"lib/contracts-ccip/src/v0.8/ccip/applications/CCIPReceiver.sol\":589:590  0 */\n  0x00\n    /* \"lib/contracts-ccip/src/v0.8/ccip/applications/CCIPReceiver.sol\":567:592  InvalidRouter(address(0)) */\n  0x04\n  dup3\n  add\n    /* \"#utility.yul\":1021:1072   */\n  mstore\n    /* \"#utility.yul\":994:1012   */\n  0x24\n  add\n    /* \"lib/contracts-ccip/src/v0.8/ccip/applications/CCIPReceiver.sol\":567:592  InvalidRouter(address(0)) */\ntag_8:\n  mload(0x40)\n  dup1\n  swap2\n  sub\n  swap1\n  revert\n    /* \"lib/contracts-ccip/src/v0.8/ccip/applications/CCIPReceiver.sol\":534:592  if (router == address(0)) revert InvalidRouter(address(0)) */\ntag_7:\n  sub(shl(0xa0, 0x01), 0x01)\n    /* \"lib/contracts-ccip/src/v0.8/ccip/applications/CCIPReceiver.sol\":598:615  i_router = router */\n  and\n  0x80\n  mstore\n    /* \"src/CrossChainFacilitator.sol\":889:892  1e4 */\n  0x2710\n    /* \"src/CrossChainFacilitator.sol\":1823:1841  mintFee <= MAX_FEE */\n  dup4\n  gt\n  dup1\n  iszero\n  swap1\n    /* \"src/CrossChainFacilitator.sol\":1823:1867  mintFee <= MAX_FEE && transferFee <= MAX_FEE */\n  tag_11\n  jumpi\n  pop\n    /* \"src/CrossChainFacilitator.sol\":889:892  1e4 */\n  0x2710\n    /* \"src/CrossChainFacilitator.sol\":1845:1856  transferFee */\n  dup3\n    /* \"src/CrossChainFacilitator.sol\":1845:1867  transferFee <= MAX_FEE */\n  gt\n  iszero\n    /* \"src/CrossChainFacilitator.sol\":1823:1867  mintFee <= MAX_FEE && transferFee <= MAX_FEE */\ntag_11:\n    /* \"src/CrossChainFacilitator.sol\":1815:1912  require(mintFee <= MAX_FEE && transferFee <= MAX_FEE, \"CrossChainFacilitator: Fees out of range\") */\n  tag_12\n  jumpi\n  mload(0x40)\n  shl(0xe5, 0x461bcd)\n  dup2\n  mstore\n    /* \"#utility.yul\":1285:1287   */\n  0x20\n    /* \"src/CrossChainFacilitator.sol\":1815:1912  require(mintFee <= MAX_FEE && transferFee <= MAX_FEE, \"CrossChainFacilitator: Fees out of range\") */\n  0x04\n  dup3\n  add\n    /* \"#utility.yul\":1267:1288   */\n  mstore\n    /* \"#utility.yul\":1324:1326   */\n  0x28\n    /* \"#utility.yul\":1304:1322   */\n  0x24\n  dup3\n  add\n    /* \"#utility.yul\":1297:1327   */\n  mstore\n    /* \"#utility.yul\":1363:1397   */\n  0x43726f7373436861696e466163696c697461746f723a2046656573206f757420\n    /* \"#utility.yul\":1343:1361   */\n  0x44\n  dup3\n  add\n    /* \"#utility.yul\":1336:1398   */\n  mstore\n  shl(0xc0, 0x6f662072616e6765)\n    /* \"#utility.yul\":1414:1432   */\n  0x64\n  dup3\n  add\n    /* \"#utility.yul\":1407:1445   */\n  mstore\n    /* \"#utility.yul\":1462:1481   */\n  0x84\n  add\n    /* \"src/CrossChainFacilitator.sol\":1815:1912  require(mintFee <= MAX_FEE && transferFee <= MAX_FEE, \"CrossChainFacilitator: Fees out of range\") */\n  tag_8\n    /* \"#utility.yul\":1083:1487   */\n  jump\n    /* \"src/CrossChainFacilitator.sol\":1815:1912  require(mintFee <= MAX_FEE && transferFee <= MAX_FEE, \"CrossChainFacilitator: Fees out of range\") */\ntag_12:\n  sub(shl(0xa0, 0x01), 0x01)\n    /* \"src/CrossChainFacilitator.sol\":1922:1953  GHO_TOKEN = IGhoToken(ghoToken) */\n  dup1\n  dup9\n  and\n  0xa0\n  mstore\n    /* \"src/CrossChainFacilitator.sol\":1963:1993  USDC_TOKEN = IERC20(usdcToken) */\n  dup7\n  and\n  0xc0\n  mstore\n    /* \"src/CrossChainFacilitator.sol\":2003:2034  _updateGhoTreasury(ghoTreasury) */\n  tag_15\n    /* \"src/CrossChainFacilitator.sol\":2022:2033  ghoTreasury */\n  dup6\n    /* \"src/CrossChainFacilitator.sol\":2003:2021  _updateGhoTreasury */\n  tag_16\n    /* \"src/CrossChainFacilitator.sol\":2003:2034  _updateGhoTreasury(ghoTreasury) */\n  jump\t// in\ntag_15:\n    /* \"src/CrossChainFacilitator.sol\":2044:2067  _updateMintFee(mintFee) */\n  tag_17\n    /* \"src/CrossChainFacilitator.sol\":2059:2066  mintFee */\n  dup4\n    /* \"src/CrossChainFacilitator.sol\":2044:2058  _updateMintFee */\n  tag_18\n    /* \"src/CrossChainFacilitator.sol\":2044:2067  _updateMintFee(mintFee) */\n  jump\t// in\ntag_17:\n    /* \"src/CrossChainFacilitator.sol\":2077:2108  _updateTransferFee(transferFee) */\n  tag_19\n    /* \"src/CrossChainFacilitator.sol\":2096:2107  transferFee */\n  dup3\n    /* \"src/CrossChainFacilitator.sol\":2077:2095  _updateTransferFee */\n  tag_20\n    /* \"src/CrossChainFacilitator.sol\":2077:2108  _updateTransferFee(transferFee) */\n  jump\t// in\ntag_19:\n    /* \"src/CrossChainFacilitator.sol\":2118:2155  _updateAaveGovernance(aaveGovernance) */\n  tag_21\n    /* \"src/CrossChainFacilitator.sol\":2140:2154  aaveGovernance */\n  dup5\n    /* \"src/CrossChainFacilitator.sol\":2118:2139  _updateAaveGovernance */\n  tag_22\n    /* \"src/CrossChainFacilitator.sol\":2118:2155  _updateAaveGovernance(aaveGovernance) */\n  jump\t// in\ntag_21:\n    /* \"src/CrossChainFacilitator.sol\":1572:2162  constructor(... */\n  pop\n  pop\n  pop\n  pop\n  pop\n  pop\n  pop\n    /* \"src/CrossChainFacilitator.sol\":604:11368  contract CrossChainFacilitator is CCIPReceiver, ICrossChainFacilitator {... */\n  jump(tag_39)\n    /* \"src/CrossChainFacilitator.sol\":7284:7503  function _updateGhoTreasury(address newGhoTreasury) internal {... */\ntag_16:\n    /* \"src/CrossChainFacilitator.sol\":7355:7377  address oldGhoTreasury */\n  0x00\n    /* \"src/CrossChainFacilitator.sol\":7380:7392  _ghoTreasury */\n  dup1\n  sload\n  sub(shl(0xa0, 0x01), 0x01)\n    /* \"src/CrossChainFacilitator.sol\":7402:7431  _ghoTreasury = newGhoTreasury */\n  dup4\n  dup2\n  and\n  not(sub(shl(0xa0, 0x01), 0x01))\n  dup4\n  and\n  dup2\n  or\n  dup5\n  sstore\n    /* \"src/CrossChainFacilitator.sol\":7446:7496  GhoTreasuryUpdated(oldGhoTreasury, newGhoTreasury) */\n  mload(0x40)\n    /* \"src/CrossChainFacilitator.sol\":7380:7392  _ghoTreasury */\n  swap2\n  swap1\n  swap3\n  and\n  swap3\n  dup4\n  swap2\n    /* \"src/CrossChainFacilitator.sol\":7446:7496  GhoTreasuryUpdated(oldGhoTreasury, newGhoTreasury) */\n  0x13f4413d8d93a259bd6c10f35095371f30ed50f81a73407e52e9f02000d5d16b\n  swap2\n    /* \"src/CrossChainFacilitator.sol\":7355:7377  address oldGhoTreasury */\n  swap1\n    /* \"src/CrossChainFacilitator.sol\":7446:7496  GhoTreasuryUpdated(oldGhoTreasury, newGhoTreasury) */\n  log3\n    /* \"src/CrossChainFacilitator.sol\":7345:7503  {... */\n  pop\n    /* \"src/CrossChainFacilitator.sol\":7284:7503  function _updateGhoTreasury(address newGhoTreasury) internal {... */\n  pop\n  jump\t// out\n    /* \"src/CrossChainFacilitator.sol\":6028:6270  function _updateMintFee(uint256 newFee) internal {... */\ntag_18:\n    /* \"src/CrossChainFacilitator.sol\":889:892  1e4 */\n  0x2710\n    /* \"src/CrossChainFacilitator.sol\":6095:6101  newFee */\n  dup2\n    /* \"src/CrossChainFacilitator.sol\":6095:6112  newFee <= MAX_FEE */\n  gt\n  iszero\n    /* \"src/CrossChainFacilitator.sol\":6087:6156  require(newFee <= MAX_FEE, \"CrossChainFacilitator: Fee out of range\") */\n  tag_26\n  jumpi\n  mload(0x40)\n  shl(0xe5, 0x461bcd)\n  dup2\n  mstore\n    /* \"#utility.yul\":1694:1696   */\n  0x20\n    /* \"src/CrossChainFacilitator.sol\":6087:6156  require(newFee <= MAX_FEE, \"CrossChainFacilitator: Fee out of range\") */\n  0x04\n  dup3\n  add\n    /* \"#utility.yul\":1676:1697   */\n  mstore\n    /* \"#utility.yul\":1733:1735   */\n  0x27\n    /* \"#utility.yul\":1713:1731   */\n  0x24\n  dup3\n  add\n    /* \"#utility.yul\":1706:1736   */\n  mstore\n  0x00\n  dup1\n  mload\n  0x20\n  data_2afdc28fe7f0c63ee1cf40a1f744224559670bc3009ddaade6d745516bcebd21\n  dup4\n  codecopy\n  dup2\n  mload\n  swap2\n  mstore\n    /* \"#utility.yul\":1752:1770   */\n  0x44\n  dup3\n  add\n    /* \"#utility.yul\":1745:1807   */\n  mstore\n  shl(0xc8, 0x662072616e6765)\n    /* \"#utility.yul\":1823:1841   */\n  0x64\n  dup3\n  add\n    /* \"#utility.yul\":1816:1853   */\n  mstore\n    /* \"#utility.yul\":1870:1889   */\n  0x84\n  add\n    /* \"src/CrossChainFacilitator.sol\":6087:6156  require(newFee <= MAX_FEE, \"CrossChainFacilitator: Fee out of range\") */\n  tag_8\n    /* \"#utility.yul\":1492:1895   */\n  jump\n    /* \"src/CrossChainFacilitator.sol\":6087:6156  require(newFee <= MAX_FEE, \"CrossChainFacilitator: Fee out of range\") */\ntag_26:\n    /* \"src/CrossChainFacilitator.sol\":6183:6191  _mintFee */\n  0x01\n  dup1\n  sload\n    /* \"src/CrossChainFacilitator.sol\":6201:6218  _mintFee = newFee */\n  swap1\n  dup3\n  swap1\n  sstore\n    /* \"src/CrossChainFacilitator.sol\":6233:6263  MintFeeUpdated(oldFee, newFee) */\n  0x40\n  dup1\n  mload\n    /* \"#utility.yul\":2074:2099   */\n  dup3\n  dup2\n  mstore\n    /* \"#utility.yul\":2130:2132   */\n  0x20\n    /* \"#utility.yul\":2115:2133   */\n  dup2\n  add\n    /* \"#utility.yul\":2108:2142   */\n  dup5\n  swap1\n  mstore\n    /* \"src/CrossChainFacilitator.sol\":6233:6263  MintFeeUpdated(oldFee, newFee) */\n  0x7864bf708cae822050e5f50960a0de31bd6fe7620a8f67a48582fb95f29c114a\n  swap2\n    /* \"#utility.yul\":2047:2065   */\n  add\n    /* \"src/CrossChainFacilitator.sol\":6233:6263  MintFeeUpdated(oldFee, newFee) */\ntag_29:\n  mload(0x40)\n  dup1\n  swap2\n  sub\n  swap1\n  log1\n    /* \"src/CrossChainFacilitator.sol\":6077:6270  {... */\n  pop\n    /* \"src/CrossChainFacilitator.sol\":6028:6270  function _updateMintFee(uint256 newFee) internal {... */\n  pop\n  jump\t// out\n    /* \"src/CrossChainFacilitator.sol\":6657:6915  function _updateTransferFee(uint256 newFee) internal {... */\ntag_20:\n    /* \"src/CrossChainFacilitator.sol\":889:892  1e4 */\n  0x2710\n    /* \"src/CrossChainFacilitator.sol\":6728:6734  newFee */\n  dup2\n    /* \"src/CrossChainFacilitator.sol\":6728:6745  newFee <= MAX_FEE */\n  gt\n  iszero\n    /* \"src/CrossChainFacilitator.sol\":6720:6789  require(newFee <= MAX_FEE, \"CrossChainFacilitator: Fee out of range\") */\n  tag_32\n  jumpi\n  mload(0x40)\n  shl(0xe5, 0x461bcd)\n  dup2\n  mstore\n    /* \"#utility.yul\":1694:1696   */\n  0x20\n    /* \"src/CrossChainFacilitator.sol\":6720:6789  require(newFee <= MAX_FEE, \"CrossChainFacilitator: Fee out of range\") */\n  0x04\n  dup3\n  add\n    /* \"#utility.yul\":1676:1697   */\n  mstore\n    /* \"#utility.yul\":1733:1735   */\n  0x27\n    /* \"#utility.yul\":1713:1731   */\n  0x24\n  dup3\n  add\n    /* \"#utility.yul\":1706:1736   */\n  mstore\n  0x00\n  dup1\n  mload\n  0x20\n  data_2afdc28fe7f0c63ee1cf40a1f744224559670bc3009ddaade6d745516bcebd21\n  dup4\n  codecopy\n  dup2\n  mload\n  swap2\n  mstore\n    /* \"#utility.yul\":1752:1770   */\n  0x44\n  dup3\n  add\n    /* \"#utility.yul\":1745:1807   */\n  mstore\n  shl(0xc8, 0x662072616e6765)\n    /* \"#utility.yul\":1823:1841   */\n  0x64\n  dup3\n  add\n    /* \"#utility.yul\":1816:1853   */\n  mstore\n    /* \"#utility.yul\":1870:1889   */\n  0x84\n  add\n    /* \"src/CrossChainFacilitator.sol\":6720:6789  require(newFee <= MAX_FEE, \"CrossChainFacilitator: Fee out of range\") */\n  tag_8\n    /* \"#utility.yul\":1492:1895   */\n  jump\n    /* \"src/CrossChainFacilitator.sol\":6720:6789  require(newFee <= MAX_FEE, \"CrossChainFacilitator: Fee out of range\") */\ntag_32:\n    /* \"src/CrossChainFacilitator.sol\":6816:6828  _transferFee */\n  0x02\n  dup1\n  sload\n    /* \"src/CrossChainFacilitator.sol\":6838:6859  _transferFee = newFee */\n  swap1\n  dup3\n  swap1\n  sstore\n    /* \"src/CrossChainFacilitator.sol\":6874:6908  TransferFeeUpdated(oldFee, newFee) */\n  0x40\n  dup1\n  mload\n    /* \"#utility.yul\":2074:2099   */\n  dup3\n  dup2\n  mstore\n    /* \"#utility.yul\":2130:2132   */\n  0x20\n    /* \"#utility.yul\":2115:2133   */\n  dup2\n  add\n    /* \"#utility.yul\":2108:2142   */\n  dup5\n  swap1\n  mstore\n    /* \"src/CrossChainFacilitator.sol\":6874:6908  TransferFeeUpdated(oldFee, newFee) */\n  0x940334a9f5c76529ad9447ac490c2073b06d880209383a3d3e4b0ecab72a0d99\n  swap2\n    /* \"#utility.yul\":2047:2065   */\n  add\n    /* \"src/CrossChainFacilitator.sol\":6874:6908  TransferFeeUpdated(oldFee, newFee) */\n  tag_29\n    /* \"#utility.yul\":1900:2148   */\n  jump\n    /* \"src/CrossChainFacilitator.sol\":7762:8008  function _updateAaveGovernance(address newAaveGovernance) internal {... */\ntag_22:\n    /* \"src/CrossChainFacilitator.sol\":7867:7882  _aaveGovernance */\n  0x03\n  dup1\n  sload\n  sub(shl(0xa0, 0x01), 0x01)\n    /* \"src/CrossChainFacilitator.sol\":7892:7927  _aaveGovernance = newAaveGovernance */\n  dup4\n  dup2\n  and\n  not(sub(shl(0xa0, 0x01), 0x01))\n  dup4\n  and\n  dup2\n  or\n  swap1\n  swap4\n  sstore\n    /* \"src/CrossChainFacilitator.sol\":7942:8001  AaveGovernanceUpdated(oldAaveGovernance, newAaveGovernance) */\n  0x40\n  dup1\n  mload\n    /* \"src/CrossChainFacilitator.sol\":7867:7882  _aaveGovernance */\n  swap2\n  swap1\n  swap3\n  and\n    /* \"#utility.yul\":2365:2399   */\n  dup1\n  dup3\n  mstore\n    /* \"#utility.yul\":2430:2432   */\n  0x20\n    /* \"#utility.yul\":2415:2433   */\n  dup3\n  add\n    /* \"#utility.yul\":2408:2451   */\n  swap4\n  swap1\n  swap4\n  mstore\n    /* \"src/CrossChainFacilitator.sol\":7942:8001  AaveGovernanceUpdated(oldAaveGovernance, newAaveGovernance) */\n  0x52818c14b633bbaafd64ff307400cefea0d830f2f9ee8e8ed1ed04a2baed191e\n  swap2\n    /* \"#utility.yul\":2300:2318   */\n  add\n    /* \"src/CrossChainFacilitator.sol\":7942:8001  AaveGovernanceUpdated(oldAaveGovernance, newAaveGovernance) */\n  tag_29\n    /* \"#utility.yul\":2153:2457   */\n  jump\n    /* \"#utility.yul\":14:191   */\ntag_38:\n    /* \"#utility.yul\":93:106   */\n  dup1\n  mload\n  sub(shl(0xa0, 0x01), 0x01)\n    /* \"#utility.yul\":135:166   */\n  dup2\n  and\n    /* \"#utility.yul\":125:167   */\n  dup2\n  eq\n    /* \"#utility.yul\":115:185   */\n  tag_41\n  jumpi\n    /* \"#utility.yul\":181:182   */\n  0x00\n    /* \"#utility.yul\":178:179   */\n  dup1\n    /* \"#utility.yul\":171:183   */\n  revert\n    /* \"#utility.yul\":115:185   */\ntag_41:\n    /* \"#utility.yul\":14:191   */\n  swap2\n  swap1\n  pop\n  jump\t// out\n    /* \"#utility.yul\":196:870   */\ntag_3:\n    /* \"#utility.yul\":320:326   */\n  0x00\n    /* \"#utility.yul\":328:334   */\n  dup1\n    /* \"#utility.yul\":336:342   */\n  0x00\n    /* \"#utility.yul\":344:350   */\n  dup1\n    /* \"#utility.yul\":352:358   */\n  0x00\n    /* \"#utility.yul\":360:366   */\n  dup1\n    /* \"#utility.yul\":368:374   */\n  0x00\n    /* \"#utility.yul\":421:424   */\n  0xe0\n    /* \"#utility.yul\":409:418   */\n  dup9\n    /* \"#utility.yul\":400:407   */\n  dup11\n    /* \"#utility.yul\":396:419   */\n  sub\n    /* \"#utility.yul\":392:425   */\n  slt\n    /* \"#utility.yul\":389:442   */\n  iszero\n  tag_43\n  jumpi\n    /* \"#utility.yul\":438:439   */\n  0x00\n    /* \"#utility.yul\":435:436   */\n  dup1\n    /* \"#utility.yul\":428:440   */\n  revert\n    /* \"#utility.yul\":389:442   */\ntag_43:\n    /* \"#utility.yul\":461:501   */\n  tag_44\n    /* \"#utility.yul\":491:500   */\n  dup9\n    /* \"#utility.yul\":461:501   */\n  tag_38\n  jump\t// in\ntag_44:\n    /* \"#utility.yul\":451:501   */\n  swap7\n  pop\n    /* \"#utility.yul\":520:569   */\n  tag_45\n    /* \"#utility.yul\":565:567   */\n  0x20\n    /* \"#utility.yul\":554:563   */\n  dup10\n    /* \"#utility.yul\":550:568   */\n  add\n    /* \"#utility.yul\":520:569   */\n  tag_38\n  jump\t// in\ntag_45:\n    /* \"#utility.yul\":510:569   */\n  swap6\n  pop\n    /* \"#utility.yul\":588:637   */\n  tag_46\n    /* \"#utility.yul\":633:635   */\n  0x40\n    /* \"#utility.yul\":622:631   */\n  dup10\n    /* \"#utility.yul\":618:636   */\n  add\n    /* \"#utility.yul\":588:637   */\n  tag_38\n  jump\t// in\ntag_46:\n    /* \"#utility.yul\":578:637   */\n  swap5\n  pop\n    /* \"#utility.yul\":656:705   */\n  tag_47\n    /* \"#utility.yul\":701:703   */\n  0x60\n    /* \"#utility.yul\":690:699   */\n  dup10\n    /* \"#utility.yul\":686:704   */\n  add\n    /* \"#utility.yul\":656:705   */\n  tag_38\n  jump\t// in\ntag_47:\n    /* \"#utility.yul\":646:705   */\n  swap4\n  pop\n    /* \"#utility.yul\":745:748   */\n  0x80\n    /* \"#utility.yul\":734:743   */\n  dup9\n    /* \"#utility.yul\":730:749   */\n  add\n    /* \"#utility.yul\":724:750   */\n  mload\n    /* \"#utility.yul\":714:750   */\n  swap3\n  pop\n    /* \"#utility.yul\":790:793   */\n  0xa0\n    /* \"#utility.yul\":779:788   */\n  dup9\n    /* \"#utility.yul\":775:794   */\n  add\n    /* \"#utility.yul\":769:795   */\n  mload\n    /* \"#utility.yul\":759:795   */\n  swap2\n  pop\n    /* \"#utility.yul\":814:864   */\n  tag_48\n    /* \"#utility.yul\":859:862   */\n  0xc0\n    /* \"#utility.yul\":848:857   */\n  dup10\n    /* \"#utility.yul\":844:863   */\n  add\n    /* \"#utility.yul\":814:864   */\n  tag_38\n  jump\t// in\ntag_48:\n    /* \"#utility.yul\":804:864   */\n  swap1\n  pop\n    /* \"#utility.yul\":196:870   */\n  swap3\n  swap6\n  swap9\n  swap2\n  swap5\n  swap8\n  pop\n  swap3\n  swap6\n  pop\n  jump\t// out\n    /* \"#utility.yul\":2153:2457   */\ntag_39:\n    /* \"src/CrossChainFacilitator.sol\":604:11368  contract CrossChainFacilitator is CCIPReceiver, ICrossChainFacilitator {... */\n  mload(0x80)\n  mload(0xa0)\n  mload(0xc0)\n  codecopy(0x00, dataOffset(sub_0), dataSize(sub_0))\n  0x00\n  assignImmutable(\"0xb2f7ec079805c1e604295599f19cbf6191b8a697343d3ec0f3aa9a3a984f21b3\")\n  0x00\n  assignImmutable(\"0x117e01824b988abbbc4a51afcc11d9fffaeef543591fe94bdcb15c1af7a6cff2\")\n  0x00\n  assignImmutable(\"0x5c4c6aa067b6f8e6cb38e6ab843832a94d1712d661a04d73c517d6a1931a9e5d\")\n  return(0x00, dataSize(sub_0))\nstop\ndata_2afdc28fe7f0c63ee1cf40a1f744224559670bc3009ddaade6d745516bcebd21 43726f7373436861696e466163696c697461746f723a20466565206f7574206f\n\nsub_0: assembly {\n        /* \"src/CrossChainFacilitator.sol\":604:11368  contract CrossChainFacilitator is CCIPReceiver, ICrossChainFacilitator {... */\n      mstore(0x40, 0x80)\n      jumpi(tag_1, lt(calldatasize, 0x04))\n      shr(0xe0, calldataload(0x00))\n      dup1\n      0x8577a6d5\n      gt\n      tag_25\n      jumpi\n      dup1\n      0xd09f3360\n      gt\n      tag_26\n      jumpi\n      dup1\n      0xd09f3360\n      eq\n      tag_19\n      jumpi\n      dup1\n      0xdc49a07b\n      eq\n      tag_20\n      jumpi\n      dup1\n      0xde4c8817\n      eq\n      tag_21\n      jumpi\n      dup1\n      0xe28178cc\n      eq\n      tag_22\n      jumpi\n      dup1\n      0xe6bf9d82\n      eq\n      tag_23\n      jumpi\n      dup1\n      0xfa569274\n      eq\n      tag_24\n      jumpi\n      0x00\n      dup1\n      revert\n    tag_26:\n      dup1\n      0x8577a6d5\n      eq\n      tag_13\n      jumpi\n      dup1\n      0x9a17d8c1\n      eq\n      tag_14\n      jumpi\n      dup1\n      0xa0922e15\n      eq\n      tag_15\n      jumpi\n      dup1\n      0xb0f479a1\n      eq\n      tag_16\n      jumpi\n      dup1\n      0xb1c660f7\n      eq\n      tag_17\n      jumpi\n      dup1\n      0xbc063e1a\n      eq\n      tag_18\n      jumpi\n      0x00\n      dup1\n      revert\n    tag_25:\n      dup1\n      0x42526e4e\n      gt\n      tag_27\n      jumpi\n      dup1\n      0x42526e4e\n      eq\n      tag_7\n      jumpi\n      dup1\n      0x788a19c7\n      eq\n      tag_8\n      jumpi\n      dup1\n      0x7a5caab3\n      eq\n      tag_9\n      jumpi\n      dup1\n      0x80f41e76\n      eq\n      tag_10\n      jumpi\n      dup1\n      0x84017e52\n      eq\n      tag_11\n      jumpi\n      dup1\n      0x85572ffb\n      eq\n      tag_12\n      jumpi\n      0x00\n      dup1\n      revert\n    tag_27:\n      dup1\n      0x01ffc9a7\n      eq\n      tag_2\n      jumpi\n      dup1\n      0x0d455222\n      eq\n      tag_3\n      jumpi\n      dup1\n      0x1fde40bb\n      eq\n      tag_4\n      jumpi\n      dup1\n      0x2e8d0354\n      eq\n      tag_5\n      jumpi\n      dup1\n      0x38616810\n      eq\n      tag_6\n      jumpi\n    tag_1:\n      0x00\n      dup1\n      revert\n        /* \"lib/contracts-ccip/src/v0.8/ccip/applications/CCIPReceiver.sol\":1397:1606  function supportsInterface(bytes4 interfaceId) public pure virtual override returns (bool) {... */\n    tag_2:\n      callvalue\n      dup1\n      iszero\n      tag_28\n      jumpi\n      0x00\n      dup1\n      revert\n    tag_28:\n      pop\n      tag_29\n      tag_30\n      calldatasize\n      0x04\n      tag_31\n      jump\t// in\n    tag_30:\n      tag_32\n      jump\t// in\n    tag_29:\n      mload(0x40)\n        /* \"#utility.yul\":470:484   */\n      swap1\n      iszero\n        /* \"#utility.yul\":463:485   */\n      iszero\n        /* \"#utility.yul\":445:486   */\n      dup2\n      mstore\n        /* \"#utility.yul\":433:435   */\n      0x20\n        /* \"#utility.yul\":418:436   */\n      add\n        /* \"lib/contracts-ccip/src/v0.8/ccip/applications/CCIPReceiver.sol\":1397:1606  function supportsInterface(bytes4 interfaceId) public pure virtual override returns (bool) {... */\n    tag_33:\n      mload(0x40)\n      dup1\n      swap2\n      sub\n      swap1\n      return\n        /* \"src/CrossChainFacilitator.sol\":3074:3602  function redeemUSDCForGHO(uint256 amount, address to) external {... */\n    tag_3:\n      callvalue\n      dup1\n      iszero\n      tag_35\n      jumpi\n      0x00\n      dup1\n      revert\n    tag_35:\n      pop\n      tag_36\n      tag_37\n      calldatasize\n      0x04\n      tag_38\n      jump\t// in\n    tag_37:\n      tag_39\n      jump\t// in\n    tag_36:\n      stop\n        /* \"src/CrossChainFacilitator.sol\":7039:7169  function updateGhoTreasury(address newGhoTreasury) external onlyAaveGovernance {... */\n    tag_4:\n      callvalue\n      dup1\n      iszero\n      tag_40\n      jumpi\n      0x00\n      dup1\n      revert\n    tag_40:\n      pop\n      tag_36\n      tag_42\n      calldatasize\n      0x04\n      tag_43\n      jump\t// in\n    tag_42:\n      tag_44\n      jump\t// in\n        /* \"src/CrossChainFacilitator.sol\":7509:7651  function updateAaveGovernance(address newAaveGovernance) external onlyAaveGovernance {... */\n    tag_5:\n      callvalue\n      dup1\n      iszero\n      tag_45\n      jumpi\n      0x00\n      dup1\n      revert\n    tag_45:\n      pop\n      tag_36\n      tag_47\n      calldatasize\n      0x04\n      tag_43\n      jump\t// in\n    tag_47:\n      tag_48\n      jump\t// in\n        /* \"src/CrossChainFacilitator.sol\":5032:5669  function getRouterFee(uint64 chainSelector, uint256 amount, address to) public view returns (uint256) {... */\n    tag_6:\n      callvalue\n      dup1\n      iszero\n      tag_49\n      jumpi\n      0x00\n      dup1\n      revert\n    tag_49:\n      pop\n      tag_50\n      tag_51\n      calldatasize\n      0x04\n      tag_52\n      jump\t// in\n    tag_51:\n      tag_53\n      jump\t// in\n    tag_50:\n      mload(0x40)\n        /* \"#utility.yul\":1919:1944   */\n      swap1\n      dup2\n      mstore\n        /* \"#utility.yul\":1907:1909   */\n      0x20\n        /* \"#utility.yul\":1892:1910   */\n      add\n        /* \"src/CrossChainFacilitator.sol\":5032:5669  function getRouterFee(uint64 chainSelector, uint256 amount, address to) public view returns (uint256) {... */\n      tag_33\n        /* \"#utility.yul\":1773:1950   */\n      jump\n        /* \"src/CrossChainFacilitator.sol\":11038:11366  function bytesToAddress(bytes memory data) public pure returns (address) {... */\n    tag_7:\n      callvalue\n      dup1\n      iszero\n      tag_56\n      jumpi\n      0x00\n      dup1\n      revert\n    tag_56:\n      pop\n      tag_57\n      tag_58\n      calldatasize\n      0x04\n      tag_59\n      jump\t// in\n    tag_58:\n      tag_60\n      jump\t// in\n    tag_57:\n      mload(0x40)\n      sub(shl(0xa0, 0x01), 0x01)\n        /* \"#utility.yul\":4020:4052   */\n      swap1\n      swap2\n      and\n        /* \"#utility.yul\":4002:4053   */\n      dup2\n      mstore\n        /* \"#utility.yul\":3990:3992   */\n      0x20\n        /* \"#utility.yul\":3975:3993   */\n      add\n        /* \"src/CrossChainFacilitator.sol\":11038:11366  function bytesToAddress(bytes memory data) public pure returns (address) {... */\n      tag_33\n        /* \"#utility.yul\":3856:4059   */\n      jump\n        /* \"src/CrossChainFacilitator.sol\":2168:3068  function mintGHOForUSDC(uint256 amount, address to) external {... */\n    tag_8:\n      callvalue\n      dup1\n      iszero\n      tag_63\n      jumpi\n      0x00\n      dup1\n      revert\n    tag_63:\n      pop\n      tag_36\n      tag_65\n      calldatasize\n      0x04\n      tag_38\n      jump\t// in\n    tag_65:\n      tag_66\n      jump\t// in\n        /* \"src/CrossChainFacilitator.sol\":5815:5910  function getMintFee() external view override returns (uint256) {... */\n    tag_9:\n      callvalue\n      dup1\n      iszero\n      tag_67\n      jumpi\n      0x00\n      dup1\n      revert\n    tag_67:\n      pop\n        /* \"src/CrossChainFacilitator.sol\":5895:5903  _mintFee */\n      sload(0x01)\n        /* \"src/CrossChainFacilitator.sol\":5815:5910  function getMintFee() external view override returns (uint256) {... */\n      jump(tag_50)\n        /* \"src/CrossChainFacilitator.sol\":5691:5809  function calcMintFee(uint256 amount) public view returns (uint256) {... */\n    tag_10:\n      callvalue\n      dup1\n      iszero\n      tag_71\n      jumpi\n      0x00\n      dup1\n      revert\n    tag_71:\n      pop\n      tag_50\n      tag_73\n      calldatasize\n      0x04\n      tag_74\n      jump\t// in\n    tag_73:\n      tag_75\n      jump\t// in\n        /* \"src/CrossChainFacilitator.sol\":5916:6022  function updateMintFee(uint256 newFee) external onlyAaveGovernance {... */\n    tag_11:\n      callvalue\n      dup1\n      iszero\n      tag_77\n      jumpi\n      0x00\n      dup1\n      revert\n    tag_77:\n      pop\n      tag_36\n      tag_79\n      calldatasize\n      0x04\n      tag_74\n      jump\t// in\n    tag_79:\n      tag_80\n      jump\t// in\n        /* \"lib/contracts-ccip/src/v0.8/ccip/applications/CCIPReceiver.sol\":1652:1782  function ccipReceive(Client.Any2EVMMessage calldata message) external virtual override onlyRouter {... */\n    tag_12:\n      callvalue\n      dup1\n      iszero\n      tag_81\n      jumpi\n      0x00\n      dup1\n      revert\n    tag_81:\n      pop\n      tag_36\n      tag_83\n      calldatasize\n      0x04\n      tag_84\n      jump\t// in\n    tag_83:\n      tag_85\n      jump\t// in\n        /* \"src/CrossChainFacilitator.sol\":6537:6651  function updateTransferFee(uint256 newFee) external onlyAaveGovernance {... */\n    tag_13:\n      callvalue\n      dup1\n      iszero\n      tag_86\n      jumpi\n      0x00\n      dup1\n      revert\n    tag_86:\n      pop\n      tag_36\n      tag_88\n      calldatasize\n      0x04\n      tag_74\n      jump\t// in\n    tag_88:\n      tag_89\n      jump\t// in\n        /* \"src/CrossChainFacilitator.sol\":6428:6531  function getTransferFee() external view override returns (uint256) {... */\n    tag_14:\n      callvalue\n      dup1\n      iszero\n      tag_90\n      jumpi\n      0x00\n      dup1\n      revert\n    tag_90:\n      pop\n        /* \"src/CrossChainFacilitator.sol\":6512:6524  _transferFee */\n      sload(0x02)\n        /* \"src/CrossChainFacilitator.sol\":6428:6531  function getTransferFee() external view override returns (uint256) {... */\n      jump(tag_50)\n        /* \"src/CrossChainFacilitator.sol\":6296:6422  function calcTransferFee(uint256 amount) public view returns (uint256) {... */\n    tag_15:\n      callvalue\n      dup1\n      iszero\n      tag_94\n      jumpi\n      0x00\n      dup1\n      revert\n    tag_94:\n      pop\n      tag_50\n      tag_96\n      calldatasize\n      0x04\n      tag_74\n      jump\t// in\n    tag_96:\n      tag_97\n      jump\t// in\n        /* \"lib/contracts-ccip/src/v0.8/ccip/applications/CCIPReceiver.sol\":2194:2280  function getRouter() public view returns (address) {... */\n    tag_16:\n      callvalue\n      dup1\n      iszero\n      tag_99\n      jumpi\n      0x00\n      dup1\n      revert\n    tag_99:\n      pop\n        /* \"lib/contracts-ccip/src/v0.8/ccip/applications/CCIPReceiver.sol\":2266:2274  i_router */\n      immutable(\"0x5c4c6aa067b6f8e6cb38e6ab843832a94d1712d661a04d73c517d6a1931a9e5d\")\n        /* \"lib/contracts-ccip/src/v0.8/ccip/applications/CCIPReceiver.sol\":2194:2280  function getRouter() public view returns (address) {... */\n      jump(tag_57)\n        /* \"src/CrossChainFacilitator.sol\":745:781  IGhoToken public immutable GHO_TOKEN */\n    tag_17:\n      callvalue\n      dup1\n      iszero\n      tag_103\n      jumpi\n      0x00\n      dup1\n      revert\n    tag_103:\n      pop\n      tag_57\n      immutable(\"0x117e01824b988abbbc4a51afcc11d9fffaeef543591fe94bdcb15c1af7a6cff2\")\n      dup2\n      jump\n        /* \"src/CrossChainFacilitator.sol\":855:892  uint256 public constant MAX_FEE = 1e4 */\n    tag_18:\n      callvalue\n      dup1\n      iszero\n      tag_108\n      jumpi\n      0x00\n      dup1\n      revert\n    tag_108:\n      pop\n      tag_50\n        /* \"src/CrossChainFacilitator.sol\":889:892  1e4 */\n      0x2710\n        /* \"src/CrossChainFacilitator.sol\":855:892  uint256 public constant MAX_FEE = 1e4 */\n      dup2\n      jump\n        /* \"src/CrossChainFacilitator.sol\":3608:5026  function sendGHOCrossChain(uint64 chainId, uint256 amount, address to)... */\n    tag_19:\n      tag_50\n      tag_113\n      calldatasize\n      0x04\n      tag_52\n      jump\t// in\n    tag_113:\n      tag_114\n      jump\t// in\n        /* \"src/CrossChainFacilitator.sol\":8014:8276  function distributeFeesToTreasury() external override onlyAaveGovernance {... */\n    tag_20:\n      callvalue\n      dup1\n      iszero\n      tag_117\n      jumpi\n      0x00\n      dup1\n      revert\n    tag_117:\n      pop\n      tag_36\n      tag_119\n      jump\t// in\n        /* \"src/CrossChainFacilitator.sol\":8282:8447  function approveCrossChainReceiver(uint64 chainId, address ccReceiver) external onlyAaveGovernance {... */\n    tag_21:\n      callvalue\n      dup1\n      iszero\n      tag_120\n      jumpi\n      0x00\n      dup1\n      revert\n    tag_120:\n      pop\n      tag_36\n      tag_122\n      calldatasize\n      0x04\n      tag_123\n      jump\t// in\n    tag_122:\n      tag_124\n      jump\t// in\n        /* \"src/CrossChainFacilitator.sol\":7175:7278  function getGhoTreasury() external view override returns (address) {... */\n    tag_22:\n      callvalue\n      dup1\n      iszero\n      tag_125\n      jumpi\n      0x00\n      dup1\n      revert\n    tag_125:\n      pop\n        /* \"src/CrossChainFacilitator.sol\":7233:7240  address */\n      0x00\n        /* \"src/CrossChainFacilitator.sol\":7259:7271  _ghoTreasury */\n      sload\n      sub(shl(0xa0, 0x01), 0x01)\n      and\n        /* \"src/CrossChainFacilitator.sol\":7175:7278  function getGhoTreasury() external view override returns (address) {... */\n      jump(tag_57)\n        /* \"src/CrossChainFacilitator.sol\":7657:7756  function getAaveGovernance()external view returns (address) {... */\n    tag_23:\n      callvalue\n      dup1\n      iszero\n      tag_129\n      jumpi\n      0x00\n      dup1\n      revert\n    tag_129:\n      pop\n        /* \"src/CrossChainFacilitator.sol\":7734:7749  _aaveGovernance */\n      and(sub(shl(0xa0, 0x01), 0x01), sload(0x03))\n        /* \"src/CrossChainFacilitator.sol\":7657:7756  function getAaveGovernance()external view returns (address) {... */\n      jump(tag_57)\n        /* \"src/CrossChainFacilitator.sol\":814:848  IERC20 public immutable USDC_TOKEN */\n    tag_24:\n      callvalue\n      dup1\n      iszero\n      tag_133\n      jumpi\n      0x00\n      dup1\n      revert\n    tag_133:\n      pop\n      tag_57\n      immutable(\"0xb2f7ec079805c1e604295599f19cbf6191b8a697343d3ec0f3aa9a3a984f21b3\")\n      dup2\n      jump\n        /* \"lib/contracts-ccip/src/v0.8/ccip/applications/CCIPReceiver.sol\":1397:1606  function supportsInterface(bytes4 interfaceId) public pure virtual override returns (bool) {... */\n    tag_32:\n        /* \"lib/contracts-ccip/src/v0.8/ccip/applications/CCIPReceiver.sol\":1482:1486  bool */\n      0x00\n      not(sub(shl(0xe0, 0x01), 0x01))\n        /* \"lib/contracts-ccip/src/v0.8/ccip/applications/CCIPReceiver.sol\":1501:1557  interfaceId == type(IAny2EVMMessageReceiver).interfaceId */\n      dup3\n      and\n      shl(0xe0, 0x85572ffb)\n      eq\n      dup1\n        /* \"lib/contracts-ccip/src/v0.8/ccip/applications/CCIPReceiver.sol\":1501:1601  interfaceId == type(IAny2EVMMessageReceiver).interfaceId || interfaceId == type(IERC165).interfaceId */\n      tag_139\n      jumpi\n      pop\n      not(sub(shl(0xe0, 0x01), 0x01))\n        /* \"lib/contracts-ccip/src/v0.8/ccip/applications/CCIPReceiver.sol\":1561:1601  interfaceId == type(IERC165).interfaceId */\n      dup3\n      and\n      shl(0xe0, 0x01ffc9a7)\n      eq\n        /* \"lib/contracts-ccip/src/v0.8/ccip/applications/CCIPReceiver.sol\":1501:1601  interfaceId == type(IAny2EVMMessageReceiver).interfaceId || interfaceId == type(IERC165).interfaceId */\n    tag_139:\n        /* \"lib/contracts-ccip/src/v0.8/ccip/applications/CCIPReceiver.sol\":1494:1601  return interfaceId == type(IAny2EVMMessageReceiver).interfaceId || interfaceId == type(IERC165).interfaceId */\n      swap3\n        /* \"lib/contracts-ccip/src/v0.8/ccip/applications/CCIPReceiver.sol\":1397:1606  function supportsInterface(bytes4 interfaceId) public pure virtual override returns (bool) {... */\n      swap2\n      pop\n      pop\n      jump\t// out\n        /* \"src/CrossChainFacilitator.sol\":3074:3602  function redeemUSDCForGHO(uint256 amount, address to) external {... */\n    tag_39:\n        /* \"src/CrossChainFacilitator.sol\":3209:3266  GHO_TOKEN.transferFrom(msg.sender, address(this), amount) */\n      mload(0x40)\n      shl(0xe0, 0x23b872dd)\n      dup2\n      mstore\n      sub(shl(0xa0, 0x01), 0x01)\n        /* \"src/CrossChainFacilitator.sol\":3209:3218  GHO_TOKEN */\n      immutable(\"0x117e01824b988abbbc4a51afcc11d9fffaeef543591fe94bdcb15c1af7a6cff2\")\n        /* \"src/CrossChainFacilitator.sol\":3209:3231  GHO_TOKEN.transferFrom */\n      and\n      swap1\n      0x23b872dd\n      swap1\n        /* \"src/CrossChainFacilitator.sol\":3209:3266  GHO_TOKEN.transferFrom(msg.sender, address(this), amount) */\n      tag_141\n      swap1\n        /* \"src/CrossChainFacilitator.sol\":3232:3242  msg.sender */\n      caller\n      swap1\n        /* \"src/CrossChainFacilitator.sol\":3252:3256  this */\n      address\n      swap1\n        /* \"src/CrossChainFacilitator.sol\":3259:3265  amount */\n      dup8\n      swap1\n        /* \"src/CrossChainFacilitator.sol\":3209:3266  GHO_TOKEN.transferFrom(msg.sender, address(this), amount) */\n      0x04\n      add\n      tag_142\n      jump\t// in\n    tag_141:\n      0x20\n      mload(0x40)\n      dup1\n      dup4\n      sub\n      dup2\n      0x00\n      dup8\n      gas\n      call\n      iszero\n      dup1\n      iszero\n      tag_144\n      jumpi\n      returndatasize\n      0x00\n      dup1\n      returndatacopy\n      revert(0x00, returndatasize)\n    tag_144:\n      pop\n      pop\n      pop\n      pop\n      mload(0x40)\n      returndatasize\n      not(0x1f)\n      0x1f\n      dup3\n      add\n      and\n      dup3\n      add\n      dup1\n      0x40\n      mstore\n      pop\n      dup2\n      add\n      swap1\n      tag_145\n      swap2\n      swap1\n      tag_146\n      jump\t// in\n    tag_145:\n        /* \"src/CrossChainFacilitator.sol\":3188:3352  require(... */\n      tag_147\n      jumpi\n      mload(0x40)\n      shl(0xe5, 0x461bcd)\n      dup2\n      mstore\n      0x04\n      add\n      tag_148\n      swap1\n      tag_149\n      jump\t// in\n    tag_148:\n      mload(0x40)\n      dup1\n      swap2\n      sub\n      swap1\n      revert\n    tag_147:\n        /* \"src/CrossChainFacilitator.sol\":3363:3381  uint256 usdcAmount */\n      0x00\n        /* \"src/CrossChainFacilitator.sol\":3384:3399  amount / 10**12 */\n      tag_150\n        /* \"src/CrossChainFacilitator.sol\":3393:3399  10**12 */\n      0xe8d4a51000\n        /* \"src/CrossChainFacilitator.sol\":3384:3390  amount */\n      dup5\n        /* \"src/CrossChainFacilitator.sol\":3384:3399  amount / 10**12 */\n      tag_151\n      jump\t// in\n    tag_150:\n        /* \"src/CrossChainFacilitator.sol\":3498:3533  USDC_TOKEN.transfer(to, usdcAmount) */\n      mload(0x40)\n      shl(0xe0, 0xa9059cbb)\n      dup2\n      mstore\n      sub(shl(0xa0, 0x01), 0x01)\n        /* \"#utility.yul\":7106:7138   */\n      dup5\n      dup2\n      and\n        /* \"src/CrossChainFacilitator.sol\":3498:3533  USDC_TOKEN.transfer(to, usdcAmount) */\n      0x04\n      dup4\n      add\n        /* \"#utility.yul\":7088:7139   */\n      mstore\n        /* \"#utility.yul\":7155:7173   */\n      0x24\n      dup3\n      add\n        /* \"#utility.yul\":7148:7182   */\n      dup4\n      swap1\n      mstore\n        /* \"src/CrossChainFacilitator.sol\":3363:3399  uint256 usdcAmount = amount / 10**12 */\n      swap2\n      swap3\n      pop\n        /* \"src/CrossChainFacilitator.sol\":3498:3508  USDC_TOKEN */\n      immutable(\"0xb2f7ec079805c1e604295599f19cbf6191b8a697343d3ec0f3aa9a3a984f21b3\")\n        /* \"src/CrossChainFacilitator.sol\":3498:3517  USDC_TOKEN.transfer */\n      swap1\n      swap2\n      and\n      swap1\n      0xa9059cbb\n      swap1\n        /* \"#utility.yul\":7061:7079   */\n      0x44\n      add\n        /* \"src/CrossChainFacilitator.sol\":3498:3533  USDC_TOKEN.transfer(to, usdcAmount) */\n      0x20\n      mload(0x40)\n      dup1\n      dup4\n      sub\n      dup2\n      0x00\n      dup8\n      gas\n      call\n      iszero\n      dup1\n      iszero\n      tag_155\n      jumpi\n      returndatasize\n      0x00\n      dup1\n      returndatacopy\n      revert(0x00, returndatasize)\n    tag_155:\n      pop\n      pop\n      pop\n      pop\n      mload(0x40)\n      returndatasize\n      not(0x1f)\n      0x1f\n      dup3\n      add\n      and\n      dup3\n      add\n      dup1\n      0x40\n      mstore\n      pop\n      dup2\n      add\n      swap1\n      tag_156\n      swap2\n      swap1\n      tag_146\n      jump\t// in\n    tag_156:\n        /* \"src/CrossChainFacilitator.sol\":3490:3595  require(USDC_TOKEN.transfer(to, usdcAmount), \"CrossChainFacilitator: Failed to transfer USDC to address\") */\n      tag_157\n      jumpi\n      mload(0x40)\n      shl(0xe5, 0x461bcd)\n      dup2\n      mstore\n        /* \"#utility.yul\":7395:7397   */\n      0x20\n        /* \"src/CrossChainFacilitator.sol\":3490:3595  require(USDC_TOKEN.transfer(to, usdcAmount), \"CrossChainFacilitator: Failed to transfer USDC to address\") */\n      0x04\n      dup3\n      add\n        /* \"#utility.yul\":7377:7398   */\n      mstore\n        /* \"#utility.yul\":7434:7436   */\n      0x39\n        /* \"#utility.yul\":7414:7432   */\n      0x24\n      dup3\n      add\n        /* \"#utility.yul\":7407:7437   */\n      mstore\n        /* \"#utility.yul\":7473:7507   */\n      0x43726f7373436861696e466163696c697461746f723a204661696c656420746f\n        /* \"#utility.yul\":7453:7471   */\n      0x44\n      dup3\n      add\n        /* \"#utility.yul\":7446:7508   */\n      mstore\n        /* \"#utility.yul\":7544:7571   */\n      0x207472616e73666572205553444320746f206164647265737300000000000000\n        /* \"#utility.yul\":7524:7542   */\n      0x64\n      dup3\n      add\n        /* \"#utility.yul\":7517:7572   */\n      mstore\n        /* \"#utility.yul\":7589:7608   */\n      0x84\n      add\n        /* \"src/CrossChainFacilitator.sol\":3490:3595  require(USDC_TOKEN.transfer(to, usdcAmount), \"CrossChainFacilitator: Failed to transfer USDC to address\") */\n      tag_148\n        /* \"#utility.yul\":7193:7614   */\n      jump\n        /* \"src/CrossChainFacilitator.sol\":3490:3595  require(USDC_TOKEN.transfer(to, usdcAmount), \"CrossChainFacilitator: Failed to transfer USDC to address\") */\n    tag_157:\n        /* \"src/CrossChainFacilitator.sol\":3137:3602  {... */\n      pop\n        /* \"src/CrossChainFacilitator.sol\":3074:3602  function redeemUSDCForGHO(uint256 amount, address to) external {... */\n      pop\n      pop\n      jump\t// out\n        /* \"src/CrossChainFacilitator.sol\":7039:7169  function updateGhoTreasury(address newGhoTreasury) external onlyAaveGovernance {... */\n    tag_44:\n        /* \"src/CrossChainFacilitator.sol\":1475:1490  _aaveGovernance */\n      and(sub(shl(0xa0, 0x01), 0x01), sload(0x03))\n        /* \"src/CrossChainFacilitator.sol\":1461:1471  msg.sender */\n      caller\n        /* \"src/CrossChainFacilitator.sol\":1461:1490  msg.sender == _aaveGovernance */\n      eq\n        /* \"src/CrossChainFacilitator.sol\":1453:1548  require(msg.sender == _aaveGovernance, \"CrossChainFacilitator: Only Aave Governance can call.\") */\n      tag_161\n      jumpi\n      mload(0x40)\n      shl(0xe5, 0x461bcd)\n      dup2\n      mstore\n      0x04\n      add\n      tag_148\n      swap1\n      tag_163\n      jump\t// in\n    tag_161:\n        /* \"src/CrossChainFacilitator.sol\":7128:7162  _updateGhoTreasury(newGhoTreasury) */\n      tag_165\n        /* \"src/CrossChainFacilitator.sol\":7147:7161  newGhoTreasury */\n      dup2\n        /* \"src/CrossChainFacilitator.sol\":7128:7146  _updateGhoTreasury */\n      tag_166\n        /* \"src/CrossChainFacilitator.sol\":7128:7162  _updateGhoTreasury(newGhoTreasury) */\n      jump\t// in\n    tag_165:\n        /* \"src/CrossChainFacilitator.sol\":7039:7169  function updateGhoTreasury(address newGhoTreasury) external onlyAaveGovernance {... */\n      pop\n      jump\t// out\n        /* \"src/CrossChainFacilitator.sol\":7509:7651  function updateAaveGovernance(address newAaveGovernance) external onlyAaveGovernance {... */\n    tag_48:\n        /* \"src/CrossChainFacilitator.sol\":1475:1490  _aaveGovernance */\n      and(sub(shl(0xa0, 0x01), 0x01), sload(0x03))\n        /* \"src/CrossChainFacilitator.sol\":1461:1471  msg.sender */\n      caller\n        /* \"src/CrossChainFacilitator.sol\":1461:1490  msg.sender == _aaveGovernance */\n      eq\n        /* \"src/CrossChainFacilitator.sol\":1453:1548  require(msg.sender == _aaveGovernance, \"CrossChainFacilitator: Only Aave Governance can call.\") */\n      tag_168\n      jumpi\n      mload(0x40)\n      shl(0xe5, 0x461bcd)\n      dup2\n      mstore\n      0x04\n      add\n      tag_148\n      swap1\n      tag_163\n      jump\t// in\n    tag_168:\n        /* \"src/CrossChainFacilitator.sol\":7604:7644  _updateAaveGovernance(newAaveGovernance) */\n      tag_165\n        /* \"src/CrossChainFacilitator.sol\":7626:7643  newAaveGovernance */\n      dup2\n        /* \"src/CrossChainFacilitator.sol\":7604:7625  _updateAaveGovernance */\n      tag_172\n        /* \"src/CrossChainFacilitator.sol\":7604:7644  _updateAaveGovernance(newAaveGovernance) */\n      jump\t// in\n        /* \"src/CrossChainFacilitator.sol\":5032:5669  function getRouterFee(uint64 chainSelector, uint256 amount, address to) public view returns (uint256) {... */\n    tag_53:\n      sub(shl(0x40, 0x01), 0x01)\n        /* \"src/CrossChainFacilitator.sol\":5164:5206  approvedCrossChainReceivers[chainSelector] */\n      dup4\n      and\n        /* \"src/CrossChainFacilitator.sol\":5125:5132  uint256 */\n      0x00\n        /* \"src/CrossChainFacilitator.sol\":5164:5206  approvedCrossChainReceivers[chainSelector] */\n      swap1\n      dup2\n      mstore\n        /* \"src/CrossChainFacilitator.sol\":5164:5191  approvedCrossChainReceivers */\n      0x05\n        /* \"src/CrossChainFacilitator.sol\":5164:5206  approvedCrossChainReceivers[chainSelector] */\n      0x20\n      mstore\n      0x40\n      dup2\n      keccak256\n      sload\n      sub(shl(0xa0, 0x01), 0x01)\n      and\n      dup1\n        /* \"src/CrossChainFacilitator.sol\":5216:5305  require(_receiver != address(0), \"CrossChainFacilitator: Target chain is not supported.\") */\n      tag_174\n      jumpi\n      mload(0x40)\n      shl(0xe5, 0x461bcd)\n      dup2\n      mstore\n      0x04\n      add\n      tag_148\n      swap1\n      tag_176\n      jump\t// in\n    tag_174:\n        /* \"src/CrossChainFacilitator.sol\":5356:5401  CrossChainGHOTransfer(amount, to, msg.sender) */\n      0x40\n      dup1\n      mload\n      0x60\n      dup2\n      add\n      dup3\n      mstore\n      dup6\n      dup2\n      mstore\n      sub(shl(0xa0, 0x01), 0x01)\n      dup6\n      and\n      0x20\n      dup3\n      add\n      mstore\n        /* \"src/CrossChainFacilitator.sol\":5390:5400  msg.sender */\n      caller\n        /* \"src/CrossChainFacilitator.sol\":5356:5401  CrossChainGHOTransfer(amount, to, msg.sender) */\n      swap2\n      dup2\n      add\n      swap2\n      swap1\n      swap2\n      mstore\n        /* \"src/CrossChainFacilitator.sol\":5315:5353  CrossChainGHOTransfer memory _transfer */\n      0x00\n        /* \"src/CrossChainFacilitator.sol\":5457:5508  _buildCCIPMessage(_receiver, _transfer, address(0)) */\n      tag_177\n        /* \"src/CrossChainFacilitator.sol\":5475:5484  _receiver */\n      dup4\n        /* \"src/CrossChainFacilitator.sol\":5356:5401  CrossChainGHOTransfer(amount, to, msg.sender) */\n      dup4\n        /* \"src/CrossChainFacilitator.sol\":5315:5353  CrossChainGHOTransfer memory _transfer */\n      dup4\n        /* \"src/CrossChainFacilitator.sol\":5457:5474  _buildCCIPMessage */\n      tag_178\n        /* \"src/CrossChainFacilitator.sol\":5457:5508  _buildCCIPMessage(_receiver, _transfer, address(0)) */\n      jump\t// in\n    tag_177:\n        /* \"src/CrossChainFacilitator.sol\":5411:5508  Client.EVM2AnyMessage memory evm2AnyMessage = _buildCCIPMessage(_receiver, _transfer, address(0)) */\n      swap1\n      pop\n        /* \"src/CrossChainFacilitator.sol\":5518:5538  IRouterClient router */\n      0x00\n        /* \"src/CrossChainFacilitator.sol\":5555:5559  this */\n      address\n      sub(shl(0xa0, 0x01), 0x01)\n        /* \"src/CrossChainFacilitator.sol\":5555:5569  this.getRouter */\n      and\n      0xb0f479a1\n        /* \"src/CrossChainFacilitator.sol\":5555:5571  this.getRouter() */\n      mload(0x40)\n      dup2\n      0xffffffff\n      and\n      0xe0\n      shl\n      dup2\n      mstore\n      0x04\n      add\n      0x20\n      mload(0x40)\n      dup1\n      dup4\n      sub\n      dup2\n      dup7\n      gas\n      staticcall\n      iszero\n      dup1\n      iszero\n      tag_180\n      jumpi\n      returndatasize\n      0x00\n      dup1\n      returndatacopy\n      revert(0x00, returndatasize)\n    tag_180:\n      pop\n      pop\n      pop\n      pop\n      mload(0x40)\n      returndatasize\n      not(0x1f)\n      0x1f\n      dup3\n      add\n      and\n      dup3\n      add\n      dup1\n      0x40\n      mstore\n      pop\n      dup2\n      add\n      swap1\n      tag_181\n      swap2\n      swap1\n      tag_182\n      jump\t// in\n    tag_181:\n        /* \"src/CrossChainFacilitator.sol\":5518:5572  IRouterClient router = IRouterClient(this.getRouter()) */\n      swap1\n      pop\n        /* \"src/CrossChainFacilitator.sol\":5582:5594  uint256 fees */\n      0x00\n        /* \"src/CrossChainFacilitator.sol\":5597:5603  router */\n      dup2\n      sub(shl(0xa0, 0x01), 0x01)\n        /* \"src/CrossChainFacilitator.sol\":5597:5610  router.getFee */\n      and\n      0x20487ded\n        /* \"src/CrossChainFacilitator.sol\":5611:5624  chainSelector */\n      dup11\n        /* \"src/CrossChainFacilitator.sol\":5626:5640  evm2AnyMessage */\n      dup6\n        /* \"src/CrossChainFacilitator.sol\":5597:5641  router.getFee(chainSelector, evm2AnyMessage) */\n      mload(0x40)\n      dup4\n      0xffffffff\n      and\n      0xe0\n      shl\n      dup2\n      mstore\n      0x04\n      add\n      tag_183\n      swap3\n      swap2\n      swap1\n      tag_184\n      jump\t// in\n    tag_183:\n      0x20\n      mload(0x40)\n      dup1\n      dup4\n      sub\n      dup2\n      dup7\n      gas\n      staticcall\n      iszero\n      dup1\n      iszero\n      tag_186\n      jumpi\n      returndatasize\n      0x00\n      dup1\n      returndatacopy\n      revert(0x00, returndatasize)\n    tag_186:\n      pop\n      pop\n      pop\n      pop\n      mload(0x40)\n      returndatasize\n      not(0x1f)\n      0x1f\n      dup3\n      add\n      and\n      dup3\n      add\n      dup1\n      0x40\n      mstore\n      pop\n      dup2\n      add\n      swap1\n      tag_187\n      swap2\n      swap1\n      tag_188\n      jump\t// in\n    tag_187:\n        /* \"src/CrossChainFacilitator.sol\":5582:5641  uint256 fees = router.getFee(chainSelector, evm2AnyMessage) */\n      swap10\n        /* \"src/CrossChainFacilitator.sol\":5032:5669  function getRouterFee(uint64 chainSelector, uint256 amount, address to) public view returns (uint256) {... */\n      swap9\n      pop\n      pop\n      pop\n      pop\n      pop\n      pop\n      pop\n      pop\n      pop\n      jump\t// out\n        /* \"src/CrossChainFacilitator.sol\":11038:11366  function bytesToAddress(bytes memory data) public pure returns (address) {... */\n    tag_60:\n        /* \"src/CrossChainFacilitator.sol\":11102:11109  address */\n      0x00\n        /* \"src/CrossChainFacilitator.sol\":11144:11146  20 */\n      0x14\n        /* \"src/CrossChainFacilitator.sol\":11129:11133  data */\n      dup3\n        /* \"src/CrossChainFacilitator.sol\":11129:11140  data.length */\n      mload\n        /* \"src/CrossChainFacilitator.sol\":11129:11146  data.length >= 20 */\n      lt\n      iszero\n        /* \"src/CrossChainFacilitator.sol\":11121:11188  require(data.length >= 20, \"Data length must be at least 20 bytes\") */\n      tag_190\n      jumpi\n      mload(0x40)\n      shl(0xe5, 0x461bcd)\n      dup2\n      mstore\n        /* \"#utility.yul\":11145:11147   */\n      0x20\n        /* \"src/CrossChainFacilitator.sol\":11121:11188  require(data.length >= 20, \"Data length must be at least 20 bytes\") */\n      0x04\n      dup3\n      add\n        /* \"#utility.yul\":11127:11148   */\n      mstore\n        /* \"#utility.yul\":11184:11186   */\n      0x25\n        /* \"#utility.yul\":11164:11182   */\n      0x24\n      dup3\n      add\n        /* \"#utility.yul\":11157:11187   */\n      mstore\n        /* \"#utility.yul\":11223:11257   */\n      0x44617461206c656e677468206d757374206265206174206c6561737420323020\n        /* \"#utility.yul\":11203:11221   */\n      0x44\n      dup3\n      add\n        /* \"#utility.yul\":11196:11258   */\n      mstore\n      shl(0xd8, 0x6279746573)\n        /* \"#utility.yul\":11274:11292   */\n      0x64\n      dup3\n      add\n        /* \"#utility.yul\":11267:11302   */\n      mstore\n        /* \"#utility.yul\":11319:11338   */\n      0x84\n      add\n        /* \"src/CrossChainFacilitator.sol\":11121:11188  require(data.length >= 20, \"Data length must be at least 20 bytes\") */\n      tag_148\n        /* \"#utility.yul\":10943:11344   */\n      jump\n        /* \"src/CrossChainFacilitator.sol\":11121:11188  require(data.length >= 20, \"Data length must be at least 20 bytes\") */\n    tag_190:\n      pop\n        /* \"src/CrossChainFacilitator.sol\":11272:11274  20 */\n      0x14\n        /* \"src/CrossChainFacilitator.sol\":11262:11275  add(data, 20) */\n      add\n        /* \"src/CrossChainFacilitator.sol\":11256:11276  mload(add(data, 20)) */\n      mload\n      swap1\n        /* \"src/CrossChainFacilitator.sol\":11038:11366  function bytesToAddress(bytes memory data) public pure returns (address) {... */\n      jump\t// out\n        /* \"src/CrossChainFacilitator.sol\":2168:3068  function mintGHOForUSDC(uint256 amount, address to) external {... */\n    tag_66:\n        /* \"src/CrossChainFacilitator.sol\":2285:2303  uint256 usdcAmount */\n      0x00\n        /* \"src/CrossChainFacilitator.sol\":2306:2321  amount / 10**12 */\n      tag_194\n        /* \"src/CrossChainFacilitator.sol\":2315:2321  10**12 */\n      0xe8d4a51000\n        /* \"src/CrossChainFacilitator.sol\":2306:2312  amount */\n      dup5\n        /* \"src/CrossChainFacilitator.sol\":2306:2321  amount / 10**12 */\n      tag_151\n      jump\t// in\n    tag_194:\n        /* \"src/CrossChainFacilitator.sol\":2393:2455  USDC_TOKEN.transferFrom(msg.sender, address(this), usdcAmount) */\n      mload(0x40)\n      shl(0xe0, 0x23b872dd)\n      dup2\n      mstore\n        /* \"src/CrossChainFacilitator.sol\":2285:2321  uint256 usdcAmount = amount / 10**12 */\n      swap1\n      swap2\n      pop\n      sub(shl(0xa0, 0x01), 0x01)\n        /* \"src/CrossChainFacilitator.sol\":2393:2403  USDC_TOKEN */\n      immutable(\"0xb2f7ec079805c1e604295599f19cbf6191b8a697343d3ec0f3aa9a3a984f21b3\")\n        /* \"src/CrossChainFacilitator.sol\":2393:2416  USDC_TOKEN.transferFrom */\n      and\n      swap1\n      0x23b872dd\n      swap1\n        /* \"src/CrossChainFacilitator.sol\":2393:2455  USDC_TOKEN.transferFrom(msg.sender, address(this), usdcAmount) */\n      tag_195\n      swap1\n        /* \"src/CrossChainFacilitator.sol\":2417:2427  msg.sender */\n      caller\n      swap1\n        /* \"src/CrossChainFacilitator.sol\":2437:2441  this */\n      address\n      swap1\n        /* \"src/CrossChainFacilitator.sol\":2285:2321  uint256 usdcAmount = amount / 10**12 */\n      dup7\n      swap1\n        /* \"src/CrossChainFacilitator.sol\":2393:2455  USDC_TOKEN.transferFrom(msg.sender, address(this), usdcAmount) */\n      0x04\n      add\n      tag_142\n      jump\t// in\n    tag_195:\n      0x20\n      mload(0x40)\n      dup1\n      dup4\n      sub\n      dup2\n      0x00\n      dup8\n      gas\n      call\n      iszero\n      dup1\n      iszero\n      tag_197\n      jumpi\n      returndatasize\n      0x00\n      dup1\n      returndatacopy\n      revert(0x00, returndatasize)\n    tag_197:\n      pop\n      pop\n      pop\n      pop\n      mload(0x40)\n      returndatasize\n      not(0x1f)\n      0x1f\n      dup3\n      add\n      and\n      dup3\n      add\n      dup1\n      0x40\n      mstore\n      pop\n      dup2\n      add\n      swap1\n      tag_198\n      swap2\n      swap1\n      tag_146\n      jump\t// in\n    tag_198:\n        /* \"src/CrossChainFacilitator.sol\":2372:2542  require(... */\n      tag_199\n      jumpi\n      mload(0x40)\n      shl(0xe5, 0x461bcd)\n      dup2\n      mstore\n        /* \"#utility.yul\":11551:11553   */\n      0x20\n        /* \"src/CrossChainFacilitator.sol\":2372:2542  require(... */\n      0x04\n      dup3\n      add\n        /* \"#utility.yul\":11533:11554   */\n      mstore\n        /* \"#utility.yul\":11590:11592   */\n      0x3d\n        /* \"#utility.yul\":11570:11588   */\n      0x24\n      dup3\n      add\n        /* \"#utility.yul\":11563:11593   */\n      mstore\n        /* \"#utility.yul\":11629:11663   */\n      0x43726f7373436861696e466163696c697461746f723a204661696c656420746f\n        /* \"#utility.yul\":11609:11627   */\n      0x44\n      dup3\n      add\n        /* \"#utility.yul\":11602:11664   */\n      mstore\n        /* \"#utility.yul\":11700:11731   */\n      0x207472616e73666572205553444320746f20666163696c697461746f72000000\n        /* \"#utility.yul\":11680:11698   */\n      0x64\n      dup3\n      add\n        /* \"#utility.yul\":11673:11732   */\n      mstore\n        /* \"#utility.yul\":11749:11768   */\n      0x84\n      add\n        /* \"src/CrossChainFacilitator.sol\":2372:2542  require(... */\n      tag_148\n        /* \"#utility.yul\":11349:11774   */\n      jump\n        /* \"src/CrossChainFacilitator.sol\":2372:2542  require(... */\n    tag_199:\n        /* \"src/CrossChainFacilitator.sol\":2592:2607  uint256 mintFee */\n      0x00\n        /* \"src/CrossChainFacilitator.sol\":2610:2629  calcMintFee(amount) */\n      tag_202\n        /* \"src/CrossChainFacilitator.sol\":2622:2628  amount */\n      dup5\n        /* \"src/CrossChainFacilitator.sol\":2610:2621  calcMintFee */\n      tag_75\n        /* \"src/CrossChainFacilitator.sol\":2610:2629  calcMintFee(amount) */\n      jump\t// in\n    tag_202:\n        /* \"src/CrossChainFacilitator.sol\":2592:2629  uint256 mintFee = calcMintFee(amount) */\n      swap1\n      pop\n        /* \"src/CrossChainFacilitator.sol\":2734:2750  amount + mintFee */\n      tag_203\n        /* \"src/CrossChainFacilitator.sol\":2592:2629  uint256 mintFee = calcMintFee(amount) */\n      dup2\n        /* \"src/CrossChainFacilitator.sol\":2734:2740  amount */\n      dup6\n        /* \"src/CrossChainFacilitator.sol\":2734:2750  amount + mintFee */\n      tag_204\n      jump\t// in\n    tag_203:\n        /* \"src/CrossChainFacilitator.sol\":2718:2730  ghoBalance() */\n      tag_205\n        /* \"src/CrossChainFacilitator.sol\":2718:2728  ghoBalance */\n      tag_206\n        /* \"src/CrossChainFacilitator.sol\":2718:2730  ghoBalance() */\n      jump\t// in\n    tag_205:\n        /* \"src/CrossChainFacilitator.sol\":2718:2750  ghoBalance() >= amount + mintFee */\n      lt\n        /* \"src/CrossChainFacilitator.sol\":2714:2868  if (ghoBalance() >= amount + mintFee) {... */\n      tag_207\n      jumpi\n        /* \"src/CrossChainFacilitator.sol\":2766:2796  GHO_TOKEN.transfer(to, amount) */\n      mload(0x40)\n      shl(0xe0, 0xa9059cbb)\n      dup2\n      mstore\n      sub(shl(0xa0, 0x01), 0x01)\n        /* \"#utility.yul\":7106:7138   */\n      dup5\n      dup2\n      and\n        /* \"src/CrossChainFacilitator.sol\":2766:2796  GHO_TOKEN.transfer(to, amount) */\n      0x04\n      dup4\n      add\n        /* \"#utility.yul\":7088:7139   */\n      mstore\n        /* \"#utility.yul\":7155:7173   */\n      0x24\n      dup3\n      add\n        /* \"#utility.yul\":7148:7182   */\n      dup7\n      swap1\n      mstore\n        /* \"src/CrossChainFacilitator.sol\":2766:2775  GHO_TOKEN */\n      immutable(\"0x117e01824b988abbbc4a51afcc11d9fffaeef543591fe94bdcb15c1af7a6cff2\")\n        /* \"src/CrossChainFacilitator.sol\":2766:2784  GHO_TOKEN.transfer */\n      and\n      swap1\n      0xa9059cbb\n      swap1\n        /* \"#utility.yul\":7061:7079   */\n      0x44\n      add\n        /* \"src/CrossChainFacilitator.sol\":2766:2796  GHO_TOKEN.transfer(to, amount) */\n      0x20\n      mload(0x40)\n      dup1\n      dup4\n      sub\n      dup2\n      0x00\n      dup8\n      gas\n      call\n      iszero\n      dup1\n      iszero\n      tag_210\n      jumpi\n      returndatasize\n      0x00\n      dup1\n      returndatacopy\n      revert(0x00, returndatasize)\n    tag_210:\n      pop\n      pop\n      pop\n      pop\n      mload(0x40)\n      returndatasize\n      not(0x1f)\n      0x1f\n      dup3\n      add\n      and\n      dup3\n      add\n      dup1\n      0x40\n      mstore\n      pop\n      dup2\n      add\n      swap1\n      tag_211\n      swap2\n      swap1\n      tag_146\n      jump\t// in\n    tag_211:\n      pop\n        /* \"src/CrossChainFacilitator.sol\":2830:2837  mintFee */\n      dup1\n        /* \"src/CrossChainFacilitator.sol\":2810:2826  _ghoTreasuryFees */\n      0x04\n      0x00\n        /* \"src/CrossChainFacilitator.sol\":2810:2837  _ghoTreasuryFees += mintFee */\n      dup3\n      dup3\n      sload\n      tag_212\n      swap2\n      swap1\n      tag_204\n      jump\t// in\n    tag_212:\n      swap1\n      swap2\n      sstore\n      pop\n      pop\n      pop\n      pop\n      pop\n      pop\n        /* \"src/CrossChainFacilitator.sol\":2168:3068  function mintGHOForUSDC(uint256 amount, address to) external {... */\n      jump\t// out\n        /* \"src/CrossChainFacilitator.sol\":2714:2868  if (ghoBalance() >= amount + mintFee) {... */\n    tag_207:\n        /* \"src/CrossChainFacilitator.sol\":2909:2935  GHO_TOKEN.mint(to, amount) */\n      mload(0x40)\n      shl(0xe0, 0x40c10f19)\n      dup2\n      mstore\n      sub(shl(0xa0, 0x01), 0x01)\n        /* \"#utility.yul\":7106:7138   */\n      dup5\n      dup2\n      and\n        /* \"src/CrossChainFacilitator.sol\":2909:2935  GHO_TOKEN.mint(to, amount) */\n      0x04\n      dup4\n      add\n        /* \"#utility.yul\":7088:7139   */\n      mstore\n        /* \"#utility.yul\":7155:7173   */\n      0x24\n      dup3\n      add\n        /* \"#utility.yul\":7148:7182   */\n      dup7\n      swap1\n      mstore\n        /* \"src/CrossChainFacilitator.sol\":2909:2918  GHO_TOKEN */\n      immutable(\"0x117e01824b988abbbc4a51afcc11d9fffaeef543591fe94bdcb15c1af7a6cff2\")\n        /* \"src/CrossChainFacilitator.sol\":2909:2923  GHO_TOKEN.mint */\n      and\n      swap1\n      0x40c10f19\n      swap1\n        /* \"#utility.yul\":7061:7079   */\n      0x44\n      add\n        /* \"src/CrossChainFacilitator.sol\":2909:2935  GHO_TOKEN.mint(to, amount) */\n      0x00\n      mload(0x40)\n      dup1\n      dup4\n      sub\n      dup2\n      0x00\n      dup8\n      dup1\n      extcodesize\n      iszero\n      dup1\n      iszero\n      tag_214\n      jumpi\n      0x00\n      dup1\n      revert\n    tag_214:\n      pop\n      gas\n      call\n      iszero\n      dup1\n      iszero\n      tag_216\n      jumpi\n      returndatasize\n      0x00\n      dup1\n      returndatacopy\n      revert(0x00, returndatasize)\n    tag_216:\n      pop\n      pop\n        /* \"src/CrossChainFacilitator.sol\":2986:3024  GHO_TOKEN.mint(address(this), mintFee) */\n      mload(0x40)\n      shl(0xe0, 0x40c10f19)\n      dup2\n      mstore\n        /* \"src/CrossChainFacilitator.sol\":3009:3013  this */\n      address\n        /* \"src/CrossChainFacilitator.sol\":2986:3024  GHO_TOKEN.mint(address(this), mintFee) */\n      0x04\n      dup3\n      add\n        /* \"#utility.yul\":7088:7139   */\n      mstore\n        /* \"#utility.yul\":7155:7173   */\n      0x24\n      dup2\n      add\n        /* \"#utility.yul\":7148:7182   */\n      dup5\n      swap1\n      mstore\n        /* \"src/CrossChainFacilitator.sol\":2986:2995  GHO_TOKEN */\n      immutable(\"0x117e01824b988abbbc4a51afcc11d9fffaeef543591fe94bdcb15c1af7a6cff2\")\n      sub(shl(0xa0, 0x01), 0x01)\n        /* \"src/CrossChainFacilitator.sol\":2986:3000  GHO_TOKEN.mint */\n      and\n      swap3\n      pop\n      0x40c10f19\n      swap2\n      pop\n        /* \"#utility.yul\":7061:7079   */\n      0x44\n      add\n        /* \"src/CrossChainFacilitator.sol\":2986:3024  GHO_TOKEN.mint(address(this), mintFee) */\n      0x00\n      mload(0x40)\n      dup1\n      dup4\n      sub\n      dup2\n      0x00\n      dup8\n      dup1\n      extcodesize\n      iszero\n      dup1\n      iszero\n      tag_218\n      jumpi\n      0x00\n      dup1\n      revert\n    tag_218:\n      pop\n      gas\n      call\n      iszero\n      dup1\n      iszero\n      tag_220\n      jumpi\n      returndatasize\n      0x00\n      dup1\n      returndatacopy\n      revert(0x00, returndatasize)\n    tag_220:\n      pop\n      pop\n      pop\n      pop\n        /* \"src/CrossChainFacilitator.sol\":3054:3061  mintFee */\n      dup1\n        /* \"src/CrossChainFacilitator.sol\":3034:3050  _ghoTreasuryFees */\n      0x04\n      0x00\n        /* \"src/CrossChainFacilitator.sol\":3034:3061  _ghoTreasuryFees += mintFee */\n      dup3\n      dup3\n      sload\n      tag_212\n      swap2\n      swap1\n      tag_204\n      jump\t// in\n        /* \"src/CrossChainFacilitator.sol\":5691:5809  function calcMintFee(uint256 amount) public view returns (uint256) {... */\n    tag_75:\n        /* \"src/CrossChainFacilitator.sol\":5749:5756  uint256 */\n      0x00\n        /* \"src/CrossChainFacilitator.sol\":5775:5802  amount.percentMul(_mintFee) */\n      tag_139\n        /* \"src/CrossChainFacilitator.sol\":5793:5801  _mintFee */\n      sload(0x01)\n        /* \"src/CrossChainFacilitator.sol\":5775:5781  amount */\n      dup4\n        /* \"src/CrossChainFacilitator.sol\":5775:5792  amount.percentMul */\n      tag_225\n      swap1\n        /* \"src/CrossChainFacilitator.sol\":5775:5802  amount.percentMul(_mintFee) */\n      swap2\n      swap1\n      0xffffffff\n      and\n      jump\t// in\n        /* \"src/CrossChainFacilitator.sol\":5916:6022  function updateMintFee(uint256 newFee) external onlyAaveGovernance {... */\n    tag_80:\n        /* \"src/CrossChainFacilitator.sol\":1475:1490  _aaveGovernance */\n      and(sub(shl(0xa0, 0x01), 0x01), sload(0x03))\n        /* \"src/CrossChainFacilitator.sol\":1461:1471  msg.sender */\n      caller\n        /* \"src/CrossChainFacilitator.sol\":1461:1490  msg.sender == _aaveGovernance */\n      eq\n        /* \"src/CrossChainFacilitator.sol\":1453:1548  require(msg.sender == _aaveGovernance, \"CrossChainFacilitator: Only Aave Governance can call.\") */\n      tag_227\n      jumpi\n      mload(0x40)\n      shl(0xe5, 0x461bcd)\n      dup2\n      mstore\n      0x04\n      add\n      tag_148\n      swap1\n      tag_163\n      jump\t// in\n    tag_227:\n        /* \"src/CrossChainFacilitator.sol\":5993:6015  _updateMintFee(newFee) */\n      tag_165\n        /* \"src/CrossChainFacilitator.sol\":6008:6014  newFee */\n      dup2\n        /* \"src/CrossChainFacilitator.sol\":5993:6007  _updateMintFee */\n      tag_231\n        /* \"src/CrossChainFacilitator.sol\":5993:6015  _updateMintFee(newFee) */\n      jump\t// in\n        /* \"lib/contracts-ccip/src/v0.8/ccip/applications/CCIPReceiver.sol\":1652:1782  function ccipReceive(Client.Any2EVMMessage calldata message) external virtual override onlyRouter {... */\n    tag_85:\n        /* \"lib/contracts-ccip/src/v0.8/ccip/applications/CCIPReceiver.sol\":2412:2422  msg.sender */\n      caller\n      sub(shl(0xa0, 0x01), 0x01)\n        /* \"lib/contracts-ccip/src/v0.8/ccip/applications/CCIPReceiver.sol\":2434:2442  i_router */\n      immutable(\"0x5c4c6aa067b6f8e6cb38e6ab843832a94d1712d661a04d73c517d6a1931a9e5d\")\n        /* \"lib/contracts-ccip/src/v0.8/ccip/applications/CCIPReceiver.sol\":2412:2443  msg.sender != address(i_router) */\n      and\n      eq\n        /* \"lib/contracts-ccip/src/v0.8/ccip/applications/CCIPReceiver.sol\":2408:2477  if (msg.sender != address(i_router)) revert InvalidRouter(msg.sender) */\n      tag_233\n      jumpi\n        /* \"lib/contracts-ccip/src/v0.8/ccip/applications/CCIPReceiver.sol\":2452:2477  InvalidRouter(msg.sender) */\n      mload(0x40)\n      shl(0xe2, 0x35fdcccd)\n      dup2\n      mstore\n        /* \"lib/contracts-ccip/src/v0.8/ccip/applications/CCIPReceiver.sol\":2466:2476  msg.sender */\n      caller\n        /* \"lib/contracts-ccip/src/v0.8/ccip/applications/CCIPReceiver.sol\":2452:2477  InvalidRouter(msg.sender) */\n      0x04\n      dup3\n      add\n        /* \"#utility.yul\":4002:4053   */\n      mstore\n        /* \"#utility.yul\":3975:3993   */\n      0x24\n      add\n        /* \"lib/contracts-ccip/src/v0.8/ccip/applications/CCIPReceiver.sol\":2452:2477  InvalidRouter(msg.sender) */\n      tag_148\n        /* \"#utility.yul\":3856:4059   */\n      jump\n        /* \"lib/contracts-ccip/src/v0.8/ccip/applications/CCIPReceiver.sol\":2408:2477  if (msg.sender != address(i_router)) revert InvalidRouter(msg.sender) */\n    tag_233:\n        /* \"lib/contracts-ccip/src/v0.8/ccip/applications/CCIPReceiver.sol\":1756:1777  _ccipReceive(message) */\n      tag_165\n      tag_237\n        /* \"lib/contracts-ccip/src/v0.8/ccip/applications/CCIPReceiver.sol\":1769:1776  message */\n      dup3\n        /* \"lib/contracts-ccip/src/v0.8/ccip/applications/CCIPReceiver.sol\":1756:1777  _ccipReceive(message) */\n      tag_238\n      jump\t// in\n    tag_237:\n        /* \"lib/contracts-ccip/src/v0.8/ccip/applications/CCIPReceiver.sol\":1756:1768  _ccipReceive */\n      tag_239\n        /* \"lib/contracts-ccip/src/v0.8/ccip/applications/CCIPReceiver.sol\":1756:1777  _ccipReceive(message) */\n      jump\t// in\n        /* \"src/CrossChainFacilitator.sol\":6537:6651  function updateTransferFee(uint256 newFee) external onlyAaveGovernance {... */\n    tag_89:\n        /* \"src/CrossChainFacilitator.sol\":1475:1490  _aaveGovernance */\n      and(sub(shl(0xa0, 0x01), 0x01), sload(0x03))\n        /* \"src/CrossChainFacilitator.sol\":1461:1471  msg.sender */\n      caller\n        /* \"src/CrossChainFacilitator.sol\":1461:1490  msg.sender == _aaveGovernance */\n      eq\n        /* \"src/CrossChainFacilitator.sol\":1453:1548  require(msg.sender == _aaveGovernance, \"CrossChainFacilitator: Only Aave Governance can call.\") */\n      tag_241\n      jumpi\n      mload(0x40)\n      shl(0xe5, 0x461bcd)\n      dup2\n      mstore\n      0x04\n      add\n      tag_148\n      swap1\n      tag_163\n      jump\t// in\n    tag_241:\n        /* \"src/CrossChainFacilitator.sol\":6618:6644  _updateTransferFee(newFee) */\n      tag_165\n        /* \"src/CrossChainFacilitator.sol\":6637:6643  newFee */\n      dup2\n        /* \"src/CrossChainFacilitator.sol\":6618:6636  _updateTransferFee */\n      tag_245\n        /* \"src/CrossChainFacilitator.sol\":6618:6644  _updateTransferFee(newFee) */\n      jump\t// in\n        /* \"src/CrossChainFacilitator.sol\":6296:6422  function calcTransferFee(uint256 amount) public view returns (uint256) {... */\n    tag_97:\n        /* \"src/CrossChainFacilitator.sol\":6358:6365  uint256 */\n      0x00\n        /* \"src/CrossChainFacilitator.sol\":6384:6415  amount.percentMul(_transferFee) */\n      tag_139\n        /* \"src/CrossChainFacilitator.sol\":6402:6414  _transferFee */\n      sload(0x02)\n        /* \"src/CrossChainFacilitator.sol\":6384:6390  amount */\n      dup4\n        /* \"src/CrossChainFacilitator.sol\":6384:6401  amount.percentMul */\n      tag_225\n      swap1\n        /* \"src/CrossChainFacilitator.sol\":6384:6415  amount.percentMul(_transferFee) */\n      swap2\n      swap1\n      0xffffffff\n      and\n      jump\t// in\n        /* \"src/CrossChainFacilitator.sol\":3608:5026  function sendGHOCrossChain(uint64 chainId, uint256 amount, address to)... */\n    tag_114:\n        /* \"src/CrossChainFacilitator.sol\":3729:3746  bytes32 messageId */\n      0x00\n        /* \"src/CrossChainFacilitator.sol\":3807:3826  uint256 transferFee */\n      dup1\n        /* \"src/CrossChainFacilitator.sol\":3829:3852  calcTransferFee(amount) */\n      tag_251\n        /* \"src/CrossChainFacilitator.sol\":3845:3851  amount */\n      dup5\n        /* \"src/CrossChainFacilitator.sol\":3829:3844  calcTransferFee */\n      tag_97\n        /* \"src/CrossChainFacilitator.sol\":3829:3852  calcTransferFee(amount) */\n      jump\t// in\n    tag_251:\n        /* \"src/CrossChainFacilitator.sol\":3807:3852  uint256 transferFee = calcTransferFee(amount) */\n      swap1\n      pop\n      sub(shl(0xa0, 0x01), 0x01)\n        /* \"src/CrossChainFacilitator.sol\":3936:3945  GHO_TOKEN */\n      immutable(\"0x117e01824b988abbbc4a51afcc11d9fffaeef543591fe94bdcb15c1af7a6cff2\")\n        /* \"src/CrossChainFacilitator.sol\":3936:3958  GHO_TOKEN.transferFrom */\n      and\n      0x23b872dd\n        /* \"src/CrossChainFacilitator.sol\":3959:3969  msg.sender */\n      caller\n        /* \"src/CrossChainFacilitator.sol\":3979:3983  this */\n      address\n        /* \"src/CrossChainFacilitator.sol\":3986:4006  amount + transferFee */\n      tag_252\n        /* \"src/CrossChainFacilitator.sol\":3807:3852  uint256 transferFee = calcTransferFee(amount) */\n      dup6\n        /* \"src/CrossChainFacilitator.sol\":3986:3992  amount */\n      dup10\n        /* \"src/CrossChainFacilitator.sol\":3986:4006  amount + transferFee */\n      tag_204\n      jump\t// in\n    tag_252:\n        /* \"src/CrossChainFacilitator.sol\":3936:4007  GHO_TOKEN.transferFrom(msg.sender, address(this), amount + transferFee) */\n      mload(0x40)\n      dup5\n      0xffffffff\n      and\n      0xe0\n      shl\n      dup2\n      mstore\n      0x04\n      add\n      tag_253\n      swap4\n      swap3\n      swap2\n      swap1\n      tag_142\n      jump\t// in\n    tag_253:\n      0x20\n      mload(0x40)\n      dup1\n      dup4\n      sub\n      dup2\n      0x00\n      dup8\n      gas\n      call\n      iszero\n      dup1\n      iszero\n      tag_255\n      jumpi\n      returndatasize\n      0x00\n      dup1\n      returndatacopy\n      revert(0x00, returndatasize)\n    tag_255:\n      pop\n      pop\n      pop\n      pop\n      mload(0x40)\n      returndatasize\n      not(0x1f)\n      0x1f\n      dup3\n      add\n      and\n      dup3\n      add\n      dup1\n      0x40\n      mstore\n      pop\n      dup2\n      add\n      swap1\n      tag_256\n      swap2\n      swap1\n      tag_146\n      jump\t// in\n    tag_256:\n        /* \"src/CrossChainFacilitator.sol\":3915:4093  require(... */\n      tag_257\n      jumpi\n      mload(0x40)\n      shl(0xe5, 0x461bcd)\n      dup2\n      mstore\n      0x04\n      add\n      tag_148\n      swap1\n      tag_149\n      jump\t// in\n    tag_257:\n        /* \"src/CrossChainFacilitator.sol\":4124:4135  transferFee */\n      dup1\n        /* \"src/CrossChainFacilitator.sol\":4104:4120  _ghoTreasuryFees */\n      0x04\n      0x00\n        /* \"src/CrossChainFacilitator.sol\":4104:4135  _ghoTreasuryFees += transferFee */\n      dup3\n      dup3\n      sload\n      tag_259\n      swap2\n      swap1\n      tag_204\n      jump\t// in\n    tag_259:\n      swap1\n      swap2\n      sstore\n      pop\n      pop\n      sub(shl(0x40, 0x01), 0x01)\n        /* \"src/CrossChainFacilitator.sol\":4203:4239  approvedCrossChainReceivers[chainId] */\n      dup6\n      and\n        /* \"src/CrossChainFacilitator.sol\":4183:4200  address _receiver */\n      0x00\n        /* \"src/CrossChainFacilitator.sol\":4203:4239  approvedCrossChainReceivers[chainId] */\n      swap1\n      dup2\n      mstore\n        /* \"src/CrossChainFacilitator.sol\":4203:4230  approvedCrossChainReceivers */\n      0x05\n        /* \"src/CrossChainFacilitator.sol\":4203:4239  approvedCrossChainReceivers[chainId] */\n      0x20\n      mstore\n      0x40\n      swap1\n      keccak256\n      sload\n      sub(shl(0xa0, 0x01), 0x01)\n      and\n      dup1\n        /* \"src/CrossChainFacilitator.sol\":4249:4338  require(_receiver != address(0), \"CrossChainFacilitator: Target chain is not supported.\") */\n      tag_260\n      jumpi\n      mload(0x40)\n      shl(0xe5, 0x461bcd)\n      dup2\n      mstore\n      0x04\n      add\n      tag_148\n      swap1\n      tag_176\n      jump\t// in\n    tag_260:\n        /* \"src/CrossChainFacilitator.sol\":4429:4474  CrossChainGHOTransfer(amount, to, msg.sender) */\n      0x40\n      dup1\n      mload\n      0x60\n      dup2\n      add\n      dup3\n      mstore\n      dup7\n      dup2\n      mstore\n      sub(shl(0xa0, 0x01), 0x01)\n      dup7\n      and\n      0x20\n      dup3\n      add\n      mstore\n        /* \"src/CrossChainFacilitator.sol\":4463:4473  msg.sender */\n      caller\n        /* \"src/CrossChainFacilitator.sol\":4429:4474  CrossChainGHOTransfer(amount, to, msg.sender) */\n      swap2\n      dup2\n      add\n      swap2\n      swap1\n      swap2\n      mstore\n        /* \"src/CrossChainFacilitator.sol\":4388:4426  CrossChainGHOTransfer memory _transfer */\n      0x00\n        /* \"src/CrossChainFacilitator.sol\":4561:4612  _buildCCIPMessage(_receiver, _transfer, address(0)) */\n      tag_262\n        /* \"src/CrossChainFacilitator.sol\":4579:4588  _receiver */\n      dup4\n        /* \"src/CrossChainFacilitator.sol\":4429:4474  CrossChainGHOTransfer(amount, to, msg.sender) */\n      dup4\n        /* \"src/CrossChainFacilitator.sol\":4388:4426  CrossChainGHOTransfer memory _transfer */\n      dup4\n        /* \"src/CrossChainFacilitator.sol\":4561:4578  _buildCCIPMessage */\n      tag_178\n        /* \"src/CrossChainFacilitator.sol\":4561:4612  _buildCCIPMessage(_receiver, _transfer, address(0)) */\n      jump\t// in\n    tag_262:\n        /* \"src/CrossChainFacilitator.sol\":4515:4612  Client.EVM2AnyMessage memory evm2AnyMessage = _buildCCIPMessage(_receiver, _transfer, address(0)) */\n      swap1\n      pop\n        /* \"src/CrossChainFacilitator.sol\":4652:4672  IRouterClient router */\n      0x00\n        /* \"src/CrossChainFacilitator.sol\":4689:4693  this */\n      address\n      sub(shl(0xa0, 0x01), 0x01)\n        /* \"src/CrossChainFacilitator.sol\":4689:4703  this.getRouter */\n      and\n      0xb0f479a1\n        /* \"src/CrossChainFacilitator.sol\":4689:4705  this.getRouter() */\n      mload(0x40)\n      dup2\n      0xffffffff\n      and\n      0xe0\n      shl\n      dup2\n      mstore\n      0x04\n      add\n      0x20\n      mload(0x40)\n      dup1\n      dup4\n      sub\n      dup2\n      dup7\n      gas\n      staticcall\n      iszero\n      dup1\n      iszero\n      tag_264\n      jumpi\n      returndatasize\n      0x00\n      dup1\n      returndatacopy\n      revert(0x00, returndatasize)\n    tag_264:\n      pop\n      pop\n      pop\n      pop\n      mload(0x40)\n      returndatasize\n      not(0x1f)\n      0x1f\n      dup3\n      add\n      and\n      dup3\n      add\n      dup1\n      0x40\n      mstore\n      pop\n      dup2\n      add\n      swap1\n      tag_265\n      swap2\n      swap1\n      tag_182\n      jump\t// in\n    tag_265:\n        /* \"src/CrossChainFacilitator.sol\":4652:4706  IRouterClient router = IRouterClient(this.getRouter()) */\n      swap1\n      pop\n        /* \"src/CrossChainFacilitator.sol\":4717:4729  uint256 fees */\n      0x00\n        /* \"src/CrossChainFacilitator.sol\":4732:4738  router */\n      dup2\n      sub(shl(0xa0, 0x01), 0x01)\n        /* \"src/CrossChainFacilitator.sol\":4732:4745  router.getFee */\n      and\n      0x20487ded\n        /* \"src/CrossChainFacilitator.sol\":4746:4753  chainId */\n      dup12\n        /* \"src/CrossChainFacilitator.sol\":4755:4769  evm2AnyMessage */\n      dup6\n        /* \"src/CrossChainFacilitator.sol\":4732:4770  router.getFee(chainId, evm2AnyMessage) */\n      mload(0x40)\n      dup4\n      0xffffffff\n      and\n      0xe0\n      shl\n      dup2\n      mstore\n      0x04\n      add\n      tag_266\n      swap3\n      swap2\n      swap1\n      tag_184\n      jump\t// in\n    tag_266:\n      0x20\n      mload(0x40)\n      dup1\n      dup4\n      sub\n      dup2\n      dup7\n      gas\n      staticcall\n      iszero\n      dup1\n      iszero\n      tag_268\n      jumpi\n      returndatasize\n      0x00\n      dup1\n      returndatacopy\n      revert(0x00, returndatasize)\n    tag_268:\n      pop\n      pop\n      pop\n      pop\n      mload(0x40)\n      returndatasize\n      not(0x1f)\n      0x1f\n      dup3\n      add\n      and\n      dup3\n      add\n      dup1\n      0x40\n      mstore\n      pop\n      dup2\n      add\n      swap1\n      tag_269\n      swap2\n      swap1\n      tag_188\n      jump\t// in\n    tag_269:\n        /* \"src/CrossChainFacilitator.sol\":4717:4770  uint256 fees = router.getFee(chainId, evm2AnyMessage) */\n      swap1\n      pop\n        /* \"src/CrossChainFacilitator.sol\":4796:4805  msg.value */\n      callvalue\n        /* \"src/CrossChainFacilitator.sol\":4788:4792  fees */\n      dup2\n        /* \"src/CrossChainFacilitator.sol\":4788:4805  fees <= msg.value */\n      gt\n      iszero\n        /* \"src/CrossChainFacilitator.sol\":4780:4866  require(fees <= msg.value, \"CrossChainFacilitator: Not enough balance to cover fees.\") */\n      tag_270\n      jumpi\n      mload(0x40)\n      shl(0xe5, 0x461bcd)\n      dup2\n      mstore\n        /* \"#utility.yul\":14224:14226   */\n      0x20\n        /* \"src/CrossChainFacilitator.sol\":4780:4866  require(fees <= msg.value, \"CrossChainFacilitator: Not enough balance to cover fees.\") */\n      0x04\n      dup3\n      add\n        /* \"#utility.yul\":14206:14227   */\n      mstore\n        /* \"#utility.yul\":14263:14265   */\n      0x38\n        /* \"#utility.yul\":14243:14261   */\n      0x24\n      dup3\n      add\n        /* \"#utility.yul\":14236:14266   */\n      mstore\n        /* \"#utility.yul\":14302:14336   */\n      0x43726f7373436861696e466163696c697461746f723a204e6f7420656e6f7567\n        /* \"#utility.yul\":14282:14300   */\n      0x44\n      dup3\n      add\n        /* \"#utility.yul\":14275:14337   */\n      mstore\n        /* \"#utility.yul\":14373:14399   */\n      0x682062616c616e636520746f20636f76657220666565732e0000000000000000\n        /* \"#utility.yul\":14353:14371   */\n      0x64\n      dup3\n      add\n        /* \"#utility.yul\":14346:14400   */\n      mstore\n        /* \"#utility.yul\":14417:14436   */\n      0x84\n      add\n        /* \"src/CrossChainFacilitator.sol\":4780:4866  require(fees <= msg.value, \"CrossChainFacilitator: Not enough balance to cover fees.\") */\n      tag_148\n        /* \"#utility.yul\":14022:14442   */\n      jump\n        /* \"src/CrossChainFacilitator.sol\":4780:4866  require(fees <= msg.value, \"CrossChainFacilitator: Not enough balance to cover fees.\") */\n    tag_270:\n        /* \"src/CrossChainFacilitator.sol\":4889:4942  router.ccipSend{value: fees}(chainId, evm2AnyMessage) */\n      mload(0x40)\n      shl(0xe0, 0x96f4e9f9)\n      dup2\n      mstore\n      sub(shl(0xa0, 0x01), 0x01)\n        /* \"src/CrossChainFacilitator.sol\":4889:4904  router.ccipSend */\n      dup4\n      and\n      swap1\n      0x96f4e9f9\n      swap1\n        /* \"src/CrossChainFacilitator.sol\":4912:4916  fees */\n      dup4\n      swap1\n        /* \"src/CrossChainFacilitator.sol\":4889:4942  router.ccipSend{value: fees}(chainId, evm2AnyMessage) */\n      tag_273\n      swap1\n        /* \"src/CrossChainFacilitator.sol\":4918:4925  chainId */\n      dup15\n      swap1\n        /* \"src/CrossChainFacilitator.sol\":4927:4941  evm2AnyMessage */\n      dup9\n      swap1\n        /* \"src/CrossChainFacilitator.sol\":4889:4942  router.ccipSend{value: fees}(chainId, evm2AnyMessage) */\n      0x04\n      add\n      tag_184\n      jump\t// in\n    tag_273:\n      0x20\n      mload(0x40)\n      dup1\n      dup4\n      sub\n      dup2\n      dup6\n      dup9\n      gas\n      call\n      iszero\n      dup1\n      iszero\n      tag_275\n      jumpi\n      returndatasize\n      0x00\n      dup1\n      returndatacopy\n      revert(0x00, returndatasize)\n    tag_275:\n      pop\n      pop\n      pop\n      pop\n      pop\n      mload(0x40)\n      returndatasize\n      not(0x1f)\n      0x1f\n      dup3\n      add\n      and\n      dup3\n      add\n      dup1\n      0x40\n      mstore\n      pop\n      dup2\n      add\n      swap1\n      tag_276\n      swap2\n      swap1\n      tag_188\n      jump\t// in\n    tag_276:\n        /* \"src/CrossChainFacilitator.sol\":4958:5019  MessageSent(messageId, chainId, to, amount, address(0), fees) */\n      0x40\n      dup1\n      mload\n      sub(shl(0xa0, 0x01), 0x01)\n        /* \"#utility.yul\":14923:14938   */\n      dup12\n      and\n        /* \"#utility.yul\":14905:14939   */\n      dup2\n      mstore\n        /* \"#utility.yul\":14970:14972   */\n      0x20\n        /* \"#utility.yul\":14955:14973   */\n      dup2\n      add\n        /* \"#utility.yul\":14948:14982   */\n      dup13\n      swap1\n      mstore\n      0x00\n        /* \"#utility.yul\":14998:15016   */\n      dup2\n      dup4\n      add\n        /* \"#utility.yul\":14991:15034   */\n      mstore\n        /* \"#utility.yul\":15065:15067   */\n      0x60\n        /* \"#utility.yul\":15050:15068   */\n      dup2\n      add\n        /* \"#utility.yul\":15043:15077   */\n      dup5\n      swap1\n      mstore\n        /* \"src/CrossChainFacilitator.sol\":4958:5019  MessageSent(messageId, chainId, to, amount, address(0), fees) */\n      swap1\n      mload\n        /* \"src/CrossChainFacilitator.sol\":4877:4942  messageId = router.ccipSend{value: fees}(chainId, evm2AnyMessage) */\n      swap2\n      swap9\n      pop\n      sub(shl(0x40, 0x01), 0x01)\n        /* \"src/CrossChainFacilitator.sol\":4958:5019  MessageSent(messageId, chainId, to, amount, address(0), fees) */\n      dup13\n      and\n      swap2\n        /* \"src/CrossChainFacilitator.sol\":4877:4942  messageId = router.ccipSend{value: fees}(chainId, evm2AnyMessage) */\n      dup10\n      swap2\n        /* \"src/CrossChainFacilitator.sol\":4958:5019  MessageSent(messageId, chainId, to, amount, address(0), fees) */\n      0xeea8a479f07983d1364c4330c9bf3442a1cd421b79b16909bcc1867188ea676b\n      swap2\n      swap1\n      dup2\n      swap1\n      sub\n        /* \"#utility.yul\":14854:14857   */\n      0x80\n        /* \"src/CrossChainFacilitator.sol\":4958:5019  MessageSent(messageId, chainId, to, amount, address(0), fees) */\n      add\n      swap1\n      log3\n        /* \"src/CrossChainFacilitator.sol\":3752:5026  {... */\n      pop\n      pop\n      pop\n      pop\n      pop\n      pop\n        /* \"src/CrossChainFacilitator.sol\":3608:5026  function sendGHOCrossChain(uint64 chainId, uint256 amount, address to)... */\n      swap4\n      swap3\n      pop\n      pop\n      pop\n      jump\t// out\n        /* \"src/CrossChainFacilitator.sol\":8014:8276  function distributeFeesToTreasury() external override onlyAaveGovernance {... */\n    tag_119:\n        /* \"src/CrossChainFacilitator.sol\":1475:1490  _aaveGovernance */\n      and(sub(shl(0xa0, 0x01), 0x01), sload(0x03))\n        /* \"src/CrossChainFacilitator.sol\":1461:1471  msg.sender */\n      caller\n        /* \"src/CrossChainFacilitator.sol\":1461:1490  msg.sender == _aaveGovernance */\n      eq\n        /* \"src/CrossChainFacilitator.sol\":1453:1548  require(msg.sender == _aaveGovernance, \"CrossChainFacilitator: Only Aave Governance can call.\") */\n      tag_281\n      jumpi\n      mload(0x40)\n      shl(0xe5, 0x461bcd)\n      dup2\n      mstore\n      0x04\n      add\n      tag_148\n      swap1\n      tag_163\n      jump\t// in\n    tag_281:\n        /* \"src/CrossChainFacilitator.sol\":8116:8128  _ghoTreasury */\n      sload(0x00)\n        /* \"src/CrossChainFacilitator.sol\":8130:8146  _ghoTreasuryFees */\n      0x04\n      dup1\n      sload\n        /* \"src/CrossChainFacilitator.sol\":8097:8147  GHO_TOKEN.transfer(_ghoTreasury, _ghoTreasuryFees) */\n      mload(0x40)\n      shl(0xe0, 0xa9059cbb)\n      dup2\n      mstore\n      sub(shl(0xa0, 0x01), 0x01)\n        /* \"src/CrossChainFacilitator.sol\":8116:8128  _ghoTreasury */\n      swap4\n      dup5\n      and\n        /* \"src/CrossChainFacilitator.sol\":8097:8147  GHO_TOKEN.transfer(_ghoTreasury, _ghoTreasuryFees) */\n      swap3\n      dup2\n      add\n        /* \"#utility.yul\":7088:7139   */\n      swap3\n      swap1\n      swap3\n      mstore\n        /* \"#utility.yul\":7155:7173   */\n      0x24\n      dup3\n      add\n        /* \"#utility.yul\":7148:7182   */\n      mstore\n        /* \"src/CrossChainFacilitator.sol\":8097:8106  GHO_TOKEN */\n      immutable(\"0x117e01824b988abbbc4a51afcc11d9fffaeef543591fe94bdcb15c1af7a6cff2\")\n        /* \"src/CrossChainFacilitator.sol\":8097:8115  GHO_TOKEN.transfer */\n      swap1\n      swap2\n      and\n      swap1\n      0xa9059cbb\n      swap1\n        /* \"#utility.yul\":7061:7079   */\n      0x44\n      add\n        /* \"src/CrossChainFacilitator.sol\":8097:8147  GHO_TOKEN.transfer(_ghoTreasury, _ghoTreasuryFees) */\n      0x20\n      mload(0x40)\n      dup1\n      dup4\n      sub\n      dup2\n      0x00\n      dup8\n      gas\n      call\n      iszero\n      dup1\n      iszero\n      tag_286\n      jumpi\n      returndatasize\n      0x00\n      dup1\n      returndatacopy\n      revert(0x00, returndatasize)\n    tag_286:\n      pop\n      pop\n      pop\n      pop\n      mload(0x40)\n      returndatasize\n      not(0x1f)\n      0x1f\n      dup3\n      add\n      and\n      dup3\n      add\n      dup1\n      0x40\n      mstore\n      pop\n      dup2\n      add\n      swap1\n      tag_287\n      swap2\n      swap1\n      tag_146\n      jump\t// in\n    tag_287:\n      pop\n        /* \"src/CrossChainFacilitator.sol\":8176:8177  0 */\n      0x00\n        /* \"src/CrossChainFacilitator.sol\":8157:8173  _ghoTreasuryFees */\n      0x04\n        /* \"src/CrossChainFacilitator.sol\":8157:8177  _ghoTreasuryFees = 0 */\n      dup2\n      swap1\n      sstore\n        /* \"src/CrossChainFacilitator.sol\":8218:8230  _ghoTreasury */\n      dup1\n      sload\n        /* \"src/CrossChainFacilitator.sol\":8192:8269  FeesDistributedToTreasury(_ghoTreasury, address(GHO_TOKEN), _ghoTreasuryFees) */\n      mload(0x40)\n      sub(shl(0xa0, 0x01), 0x01)\n        /* \"src/CrossChainFacilitator.sol\":8240:8249  GHO_TOKEN */\n      immutable(\"0x117e01824b988abbbc4a51afcc11d9fffaeef543591fe94bdcb15c1af7a6cff2\")\n        /* \"src/CrossChainFacilitator.sol\":8192:8269  FeesDistributedToTreasury(_ghoTreasury, address(GHO_TOKEN), _ghoTreasuryFees) */\n      dup2\n      and\n      swap4\n        /* \"src/CrossChainFacilitator.sol\":8218:8230  _ghoTreasury */\n      swap3\n      and\n      swap2\n        /* \"src/CrossChainFacilitator.sol\":8192:8269  FeesDistributedToTreasury(_ghoTreasury, address(GHO_TOKEN), _ghoTreasuryFees) */\n      0xb29fcda740927812f5a71075b62e132bead3769a455319c29b9a1cc461a65475\n      swap2\n      tag_288\n      swap2\n        /* \"#utility.yul\":1919:1944   */\n      dup2\n      mstore\n        /* \"#utility.yul\":1907:1909   */\n      0x20\n        /* \"#utility.yul\":1892:1910   */\n      add\n      swap1\n        /* \"#utility.yul\":1773:1950   */\n      jump\n        /* \"src/CrossChainFacilitator.sol\":8192:8269  FeesDistributedToTreasury(_ghoTreasury, address(GHO_TOKEN), _ghoTreasuryFees) */\n    tag_288:\n      mload(0x40)\n      dup1\n      swap2\n      sub\n      swap1\n      log3\n        /* \"src/CrossChainFacilitator.sol\":8014:8276  function distributeFeesToTreasury() external override onlyAaveGovernance {... */\n      jump\t// out\n        /* \"src/CrossChainFacilitator.sol\":8282:8447  function approveCrossChainReceiver(uint64 chainId, address ccReceiver) external onlyAaveGovernance {... */\n    tag_124:\n        /* \"src/CrossChainFacilitator.sol\":1475:1490  _aaveGovernance */\n      and(sub(shl(0xa0, 0x01), 0x01), sload(0x03))\n        /* \"src/CrossChainFacilitator.sol\":1461:1471  msg.sender */\n      caller\n        /* \"src/CrossChainFacilitator.sol\":1461:1490  msg.sender == _aaveGovernance */\n      eq\n        /* \"src/CrossChainFacilitator.sol\":1453:1548  require(msg.sender == _aaveGovernance, \"CrossChainFacilitator: Only Aave Governance can call.\") */\n      tag_290\n      jumpi\n      mload(0x40)\n      shl(0xe5, 0x461bcd)\n      dup2\n      mstore\n      0x04\n      add\n      tag_148\n      swap1\n      tag_163\n      jump\t// in\n    tag_290:\n      sub(shl(0x40, 0x01), 0x01)\n        /* \"src/CrossChainFacilitator.sol\":8391:8427  approvedCrossChainReceivers[chainId] */\n      swap2\n      swap1\n      swap2\n      and\n      0x00\n      swap1\n      dup2\n      mstore\n        /* \"src/CrossChainFacilitator.sol\":8391:8418  approvedCrossChainReceivers */\n      0x05\n        /* \"src/CrossChainFacilitator.sol\":8391:8427  approvedCrossChainReceivers[chainId] */\n      0x20\n      mstore\n      0x40\n      swap1\n      keccak256\n        /* \"src/CrossChainFacilitator.sol\":8391:8440  approvedCrossChainReceivers[chainId] = ccReceiver */\n      dup1\n      sload\n      not(sub(shl(0xa0, 0x01), 0x01))\n      and\n      sub(shl(0xa0, 0x01), 0x01)\n      swap1\n      swap3\n      and\n      swap2\n      swap1\n      swap2\n      or\n      swap1\n      sstore\n        /* \"src/CrossChainFacilitator.sol\":8282:8447  function approveCrossChainReceiver(uint64 chainId, address ccReceiver) external onlyAaveGovernance {... */\n      jump\t// out\n        /* \"src/CrossChainFacilitator.sol\":7284:7503  function _updateGhoTreasury(address newGhoTreasury) internal {... */\n    tag_166:\n        /* \"src/CrossChainFacilitator.sol\":7355:7377  address oldGhoTreasury */\n      0x00\n        /* \"src/CrossChainFacilitator.sol\":7380:7392  _ghoTreasury */\n      dup1\n      sload\n      sub(shl(0xa0, 0x01), 0x01)\n        /* \"src/CrossChainFacilitator.sol\":7402:7431  _ghoTreasury = newGhoTreasury */\n      dup4\n      dup2\n      and\n      not(sub(shl(0xa0, 0x01), 0x01))\n      dup4\n      and\n      dup2\n      or\n      dup5\n      sstore\n        /* \"src/CrossChainFacilitator.sol\":7446:7496  GhoTreasuryUpdated(oldGhoTreasury, newGhoTreasury) */\n      mload(0x40)\n        /* \"src/CrossChainFacilitator.sol\":7380:7392  _ghoTreasury */\n      swap2\n      swap1\n      swap3\n      and\n      swap3\n      dup4\n      swap2\n        /* \"src/CrossChainFacilitator.sol\":7446:7496  GhoTreasuryUpdated(oldGhoTreasury, newGhoTreasury) */\n      0x13f4413d8d93a259bd6c10f35095371f30ed50f81a73407e52e9f02000d5d16b\n      swap2\n        /* \"src/CrossChainFacilitator.sol\":7355:7377  address oldGhoTreasury */\n      swap1\n        /* \"src/CrossChainFacilitator.sol\":7446:7496  GhoTreasuryUpdated(oldGhoTreasury, newGhoTreasury) */\n      log3\n        /* \"src/CrossChainFacilitator.sol\":7345:7503  {... */\n      pop\n        /* \"src/CrossChainFacilitator.sol\":7284:7503  function _updateGhoTreasury(address newGhoTreasury) internal {... */\n      pop\n      jump\t// out\n        /* \"src/CrossChainFacilitator.sol\":7762:8008  function _updateAaveGovernance(address newAaveGovernance) internal {... */\n    tag_172:\n        /* \"src/CrossChainFacilitator.sol\":7867:7882  _aaveGovernance */\n      0x03\n      dup1\n      sload\n      sub(shl(0xa0, 0x01), 0x01)\n        /* \"src/CrossChainFacilitator.sol\":7892:7927  _aaveGovernance = newAaveGovernance */\n      dup4\n      dup2\n      and\n      not(sub(shl(0xa0, 0x01), 0x01))\n      dup4\n      and\n      dup2\n      or\n      swap1\n      swap4\n      sstore\n        /* \"src/CrossChainFacilitator.sol\":7942:8001  AaveGovernanceUpdated(oldAaveGovernance, newAaveGovernance) */\n      0x40\n      dup1\n      mload\n        /* \"src/CrossChainFacilitator.sol\":7867:7882  _aaveGovernance */\n      swap2\n      swap1\n      swap3\n      and\n        /* \"#utility.yul\":15300:15334   */\n      dup1\n      dup3\n      mstore\n        /* \"#utility.yul\":15365:15367   */\n      0x20\n        /* \"#utility.yul\":15350:15368   */\n      dup3\n      add\n        /* \"#utility.yul\":15343:15386   */\n      swap4\n      swap1\n      swap4\n      mstore\n        /* \"src/CrossChainFacilitator.sol\":7942:8001  AaveGovernanceUpdated(oldAaveGovernance, newAaveGovernance) */\n      0x52818c14b633bbaafd64ff307400cefea0d830f2f9ee8e8ed1ed04a2baed191e\n      swap2\n        /* \"#utility.yul\":15235:15253   */\n      add\n        /* \"src/CrossChainFacilitator.sol\":7942:8001  AaveGovernanceUpdated(oldAaveGovernance, newAaveGovernance) */\n    tag_297:\n      mload(0x40)\n      dup1\n      swap2\n      sub\n      swap1\n      log1\n        /* \"src/CrossChainFacilitator.sol\":7829:8008  {... */\n      pop\n        /* \"src/CrossChainFacilitator.sol\":7762:8008  function _updateAaveGovernance(address newAaveGovernance) internal {... */\n      pop\n      jump\t// out\n        /* \"src/CrossChainFacilitator.sol\":8949:9994  function _buildCCIPMessage(address _receiver, CrossChainGHOTransfer memory _transfer, address _feeTokenAddress)... */\n    tag_178:\n        /* \"src/CrossChainFacilitator.sol\":9108:9136  Client.EVM2AnyMessage memory */\n      tag_299\n      mload(0x40)\n      dup1\n      0xa0\n      add\n      0x40\n      mstore\n      dup1\n      0x60\n      dup2\n      mstore\n      0x20\n      add\n      0x60\n      dup2\n      mstore\n      0x20\n      add\n      0x60\n      dup2\n      mstore\n      0x20\n      add\n      and(sub(shl(0xa0, 0x01), 0x01), 0x00)\n      dup2\n      mstore\n      0x20\n      add\n      0x60\n      dup2\n      mstore\n      pop\n      swap1\n      jump\n    tag_299:\n        /* \"src/CrossChainGHOTransfer.sol\":261:282  abi.encode(_transfer) */\n      0x40\n      dup1\n      mload\n        /* \"#utility.yul\":16712:16725   */\n      dup5\n      mload\n        /* \"src/CrossChainGHOTransfer.sol\":261:282  abi.encode(_transfer) */\n      0x20\n      dup1\n      dup4\n      add\n        /* \"#utility.yul\":16694:16726   */\n      swap2\n      swap1\n      swap2\n      mstore\n        /* \"#utility.yul\":16761:16778   */\n      dup1\n      dup7\n      add\n        /* \"#utility.yul\":16755:16779   */\n      mload\n      sub(shl(0xa0, 0x01), 0x01)\n        /* \"#utility.yul\":16855:16876   */\n      swap1\n      dup2\n      and\n        /* \"#utility.yul\":16833:16853   */\n      dup4\n      dup6\n      add\n        /* \"#utility.yul\":16826:16877   */\n      mstore\n        /* \"#utility.yul\":16925:16942   */\n      dup7\n      dup5\n      add\n        /* \"#utility.yul\":16919:16943   */\n      mload\n        /* \"#utility.yul\":16915:16948   */\n      dup2\n      and\n        /* \"src/CrossChainGHOTransfer.sol\":234:246  bytes memory */\n      0x60\n        /* \"#utility.yul\":16893:16913   */\n      dup1\n      dup6\n      add\n        /* \"#utility.yul\":16886:16949   */\n      swap2\n      swap1\n      swap2\n      mstore\n        /* \"src/CrossChainGHOTransfer.sol\":261:282  abi.encode(_transfer) */\n      dup5\n      mload\n      dup1\n      dup6\n      sub\n      swap1\n      swap2\n      add\n      dup2\n      mstore\n        /* \"src/CrossChainFacilitator.sol\":9383:9987  Client.EVM2AnyMessage({... */\n      0x0120\n      dup5\n      add\n      dup6\n      mstore\n        /* \"#utility.yul\":4020:4052   */\n      swap1\n      dup9\n      and\n        /* \"src/CrossChainFacilitator.sol\":9429:9450  abi.encode(_receiver) */\n      0x0140\n      dup1\n      dup6\n      add\n        /* \"#utility.yul\":4002:4053   */\n      swap2\n      swap1\n      swap2\n      mstore\n        /* \"src/CrossChainFacilitator.sol\":9429:9450  abi.encode(_receiver) */\n      dup5\n      mload\n      dup1\n      dup6\n      sub\n      swap1\n      swap2\n      add\n      dup2\n      mstore\n        /* \"#utility.yul\":3975:3993   */\n      0x0160\n      dup5\n      add\n        /* \"src/CrossChainFacilitator.sol\":9429:9450  abi.encode(_receiver) */\n      dup6\n      mstore\n        /* \"#utility.yul\":16667:16685   */\n      0x80\n      dup5\n      add\n        /* \"src/CrossChainFacilitator.sol\":9383:9987  Client.EVM2AnyMessage({... */\n      swap1\n      dup2\n      mstore\n      0xa0\n      dup5\n      add\n      dup3\n      swap1\n      mstore\n        /* \"src/CrossChainFacilitator.sol\":9578:9608  new Client.EVMTokenAmount[](0) */\n      dup5\n      mload\n      0x00\n      dup1\n      dup3\n      mstore\n      swap4\n      dup2\n      add\n      swap1\n      swap6\n      mstore\n        /* \"src/CrossChainGHOTransfer.sol\":261:282  abi.encode(_transfer) */\n      swap1\n      swap4\n        /* \"#utility.yul\":16667:16685   */\n      swap1\n      swap3\n        /* \"src/CrossChainFacilitator.sol\":9429:9450  abi.encode(_receiver) */\n      0xc0\n        /* \"src/CrossChainFacilitator.sol\":9383:9987  Client.EVM2AnyMessage({... */\n      add\n      swap2\n        /* \"src/CrossChainFacilitator.sol\":9578:9608  new Client.EVMTokenAmount[](0) */\n      jump(tag_308)\n    tag_309:\n      0x40\n      dup1\n      mload\n      dup1\n      dup3\n      add\n      swap1\n      swap2\n      mstore\n      0x00\n      dup1\n      dup3\n      mstore\n      0x20\n      dup3\n      add\n      mstore\n      dup2\n      mstore\n      0x20\n      add\n      swap1\n      0x01\n      swap1\n      sub\n      swap1\n      dup2\n      tag_309\n      jumpi\n      swap1\n      pop\n    tag_308:\n      pop\n        /* \"src/CrossChainFacilitator.sol\":9383:9987  Client.EVM2AnyMessage({... */\n      dup2\n      mstore\n      0x20\n      add\n        /* \"src/CrossChainFacilitator.sol\":9960:9976  _feeTokenAddress */\n      dup5\n      sub(shl(0xa0, 0x01), 0x01)\n        /* \"src/CrossChainFacilitator.sol\":9383:9987  Client.EVM2AnyMessage({... */\n      and\n      dup2\n      mstore\n      0x20\n      add\n        /* \"src/CrossChainFacilitator.sol\":9678:9834  Client._argsToBytes(... */\n      tag_312\n        /* \"src/CrossChainFacilitator.sol\":9774:9816  Client.EVMExtraArgsV1({gasLimit: 200_000}) */\n      mload(0x40)\n      dup1\n      0x20\n      add\n      0x40\n      mstore\n      dup1\n        /* \"src/CrossChainFacilitator.sol\":9807:9814  200_000 */\n      0x030d40\n        /* \"src/CrossChainFacilitator.sol\":9774:9816  Client.EVMExtraArgsV1({gasLimit: 200_000}) */\n      dup2\n      mstore\n      pop\n        /* \"lib/contracts-ccip/src/v0.8/ccip/libraries/Client.sol\":1394:1450  abi.encodeWithSelector(EVM_EXTRA_ARGS_V1_TAG, extraArgs) */\n      0x40\n      dup1\n      mload\n        /* \"#utility.yul\":17186:17199   */\n      swap2\n      mload\n        /* \"lib/contracts-ccip/src/v0.8/ccip/libraries/Client.sol\":1394:1450  abi.encodeWithSelector(EVM_EXTRA_ARGS_V1_TAG, extraArgs) */\n      0x24\n      dup1\n      dup5\n      add\n        /* \"#utility.yul\":17168:17200   */\n      swap2\n      swap1\n      swap2\n      mstore\n        /* \"lib/contracts-ccip/src/v0.8/ccip/libraries/Client.sol\":1394:1450  abi.encodeWithSelector(EVM_EXTRA_ARGS_V1_TAG, extraArgs) */\n      dup2\n      mload\n      dup1\n      dup5\n      sub\n      swap1\n      swap2\n      add\n      dup2\n      mstore\n        /* \"#utility.yul\":17141:17159   */\n      0x44\n      swap1\n      swap3\n      add\n        /* \"lib/contracts-ccip/src/v0.8/ccip/libraries/Client.sol\":1394:1450  abi.encodeWithSelector(EVM_EXTRA_ARGS_V1_TAG, extraArgs) */\n      swap1\n      mstore\n      0x20\n      dup2\n      add\n      dup1\n      mload\n      sub(shl(0xe0, 0x01), 0x01)\n      and\n      shl(0xe0, 0x97a657c9)\n      or\n      swap1\n      mstore\n      swap1\n        /* \"lib/contracts-ccip/src/v0.8/ccip/libraries/Client.sol\":1285:1455  function _argsToBytes(EVMExtraArgsV1 memory extraArgs) internal pure returns (bytes memory bts) {... */\n      jump\n        /* \"src/CrossChainFacilitator.sol\":9678:9834  Client._argsToBytes(... */\n    tag_312:\n        /* \"src/CrossChainFacilitator.sol\":9383:9987  Client.EVM2AnyMessage({... */\n      swap1\n      mstore\n        /* \"src/CrossChainFacilitator.sol\":9376:9987  return Client.EVM2AnyMessage({... */\n      swap6\n        /* \"src/CrossChainFacilitator.sol\":8949:9994  function _buildCCIPMessage(address _receiver, CrossChainGHOTransfer memory _transfer, address _feeTokenAddress)... */\n      swap5\n      pop\n      pop\n      pop\n      pop\n      pop\n      jump\t// out\n        /* \"src/CrossChainFacilitator.sol\":6921:7033  function ghoBalance() internal view returns (uint256) {... */\n    tag_206:\n        /* \"src/CrossChainFacilitator.sol\":6992:7026  GHO_TOKEN.balanceOf(address(this)) */\n      mload(0x40)\n      shl(0xe0, 0x70a08231)\n      dup2\n      mstore\n        /* \"src/CrossChainFacilitator.sol\":7020:7024  this */\n      address\n        /* \"src/CrossChainFacilitator.sol\":6992:7026  GHO_TOKEN.balanceOf(address(this)) */\n      0x04\n      dup3\n      add\n        /* \"#utility.yul\":4002:4053   */\n      mstore\n        /* \"src/CrossChainFacilitator.sol\":6966:6973  uint256 */\n      0x00\n      swap1\n        /* \"src/CrossChainFacilitator.sol\":6992:7001  GHO_TOKEN */\n      immutable(\"0x117e01824b988abbbc4a51afcc11d9fffaeef543591fe94bdcb15c1af7a6cff2\")\n      sub(shl(0xa0, 0x01), 0x01)\n        /* \"src/CrossChainFacilitator.sol\":6992:7011  GHO_TOKEN.balanceOf */\n      and\n      swap1\n      0x70a08231\n      swap1\n        /* \"#utility.yul\":3975:3993   */\n      0x24\n      add\n        /* \"src/CrossChainFacilitator.sol\":6992:7026  GHO_TOKEN.balanceOf(address(this)) */\n      0x20\n      mload(0x40)\n      dup1\n      dup4\n      sub\n      dup2\n      dup7\n      gas\n      staticcall\n      iszero\n      dup1\n      iszero\n      tag_317\n      jumpi\n      returndatasize\n      0x00\n      dup1\n      returndatacopy\n      revert(0x00, returndatasize)\n    tag_317:\n      pop\n      pop\n      pop\n      pop\n      mload(0x40)\n      returndatasize\n      not(0x1f)\n      0x1f\n      dup3\n      add\n      and\n      dup3\n      add\n      dup1\n      0x40\n      mstore\n      pop\n      dup2\n      add\n      swap1\n      tag_318\n      swap2\n      swap1\n      tag_188\n      jump\t// in\n    tag_318:\n        /* \"src/CrossChainFacilitator.sol\":6985:7026  return GHO_TOKEN.balanceOf(address(this)) */\n      swap1\n      pop\n        /* \"src/CrossChainFacilitator.sol\":6921:7033  function ghoBalance() internal view returns (uint256) {... */\n      swap1\n      jump\t// out\n        /* \"src/PercentageMath.sol\":1005:1501  function percentMul(uint256 value, uint256 percentage) internal pure returns (uint256 result) {... */\n    tag_225:\n        /* \"src/PercentageMath.sol\":1083:1097  uint256 result */\n      0x00\n        /* \"src/PercentageMath.sol\":1248:1266  iszero(percentage) */\n      dup2\n      iszero\n      not(0x1388)\n        /* \"src/PercentageMath.sol\":1295:1347  div(sub(not(0), HALF_PERCENTAGE_FACTOR), percentage) */\n      dup4\n      swap1\n      div\n        /* \"src/PercentageMath.sol\":1285:1348  gt(value, div(sub(not(0), HALF_PERCENTAGE_FACTOR), percentage)) */\n      dup5\n      gt\n        /* \"src/PercentageMath.sol\":1278:1349  iszero(gt(value, div(sub(not(0), HALF_PERCENTAGE_FACTOR), percentage))) */\n      iszero\n        /* \"src/PercentageMath.sol\":1234:1359  or(... */\n      or\n        /* \"src/PercentageMath.sol\":1215:1398  if iszero(... */\n      tag_320\n      jumpi\n        /* \"src/PercentageMath.sol\":1388:1389  0 */\n      0x00\n        /* \"src/PercentageMath.sol\":1385:1386  0 */\n      dup1\n        /* \"src/PercentageMath.sol\":1378:1390  revert(0, 0) */\n      revert\n        /* \"src/PercentageMath.sol\":1215:1398  if iszero(... */\n    tag_320:\n      pop\n        /* \"src/PercentageMath.sol\":1473:1490  PERCENTAGE_FACTOR */\n      0x2710\n        /* \"src/PercentageMath.sol\":1424:1446  mul(value, percentage) */\n      swap2\n      mul\n        /* \"src/PercentageMath.sol\":1448:1470  HALF_PERCENTAGE_FACTOR */\n      0x1388\n        /* \"src/PercentageMath.sol\":1420:1471  add(mul(value, percentage), HALF_PERCENTAGE_FACTOR) */\n      add\n        /* \"src/PercentageMath.sol\":1416:1491  div(add(mul(value, percentage), HALF_PERCENTAGE_FACTOR), PERCENTAGE_FACTOR) */\n      div\n      swap1\n        /* \"src/PercentageMath.sol\":1005:1501  function percentMul(uint256 value, uint256 percentage) internal pure returns (uint256 result) {... */\n      jump\t// out\n        /* \"src/CrossChainFacilitator.sol\":6028:6270  function _updateMintFee(uint256 newFee) internal {... */\n    tag_231:\n        /* \"src/CrossChainFacilitator.sol\":889:892  1e4 */\n      0x2710\n        /* \"src/CrossChainFacilitator.sol\":6095:6101  newFee */\n      dup2\n        /* \"src/CrossChainFacilitator.sol\":6095:6112  newFee <= MAX_FEE */\n      gt\n      iszero\n        /* \"src/CrossChainFacilitator.sol\":6087:6156  require(newFee <= MAX_FEE, \"CrossChainFacilitator: Fee out of range\") */\n      tag_322\n      jumpi\n      mload(0x40)\n      shl(0xe5, 0x461bcd)\n      dup2\n      mstore\n      0x04\n      add\n      tag_148\n      swap1\n      tag_324\n      jump\t// in\n    tag_322:\n        /* \"src/CrossChainFacilitator.sol\":6183:6191  _mintFee */\n      0x01\n      dup1\n      sload\n        /* \"src/CrossChainFacilitator.sol\":6201:6218  _mintFee = newFee */\n      swap1\n      dup3\n      swap1\n      sstore\n        /* \"src/CrossChainFacilitator.sol\":6233:6263  MintFeeUpdated(oldFee, newFee) */\n      0x40\n      dup1\n      mload\n        /* \"#utility.yul\":15979:16004   */\n      dup3\n      dup2\n      mstore\n        /* \"#utility.yul\":16035:16037   */\n      0x20\n        /* \"#utility.yul\":16020:16038   */\n      dup2\n      add\n        /* \"#utility.yul\":16013:16047   */\n      dup5\n      swap1\n      mstore\n        /* \"src/CrossChainFacilitator.sol\":6233:6263  MintFeeUpdated(oldFee, newFee) */\n      0x7864bf708cae822050e5f50960a0de31bd6fe7620a8f67a48582fb95f29c114a\n      swap2\n        /* \"#utility.yul\":15952:15970   */\n      add\n        /* \"src/CrossChainFacilitator.sol\":6233:6263  MintFeeUpdated(oldFee, newFee) */\n      tag_297\n        /* \"#utility.yul\":15805:16053   */\n      jump\n        /* \"src/CrossChainFacilitator.sol\":10000:11032  function _ccipReceive(Client.Any2EVMMessage memory any2EvmMessage) internal override {... */\n    tag_239:\n        /* \"src/CrossChainFacilitator.sol\":10236:10273  bytesToAddress(any2EvmMessage.sender) */\n      tag_328\n        /* \"src/CrossChainFacilitator.sol\":10251:10265  any2EvmMessage */\n      dup2\n        /* \"src/CrossChainFacilitator.sol\":10251:10272  any2EvmMessage.sender */\n      0x40\n      add\n      mload\n        /* \"src/CrossChainFacilitator.sol\":10236:10250  bytesToAddress */\n      tag_60\n        /* \"src/CrossChainFacilitator.sol\":10236:10273  bytesToAddress(any2EvmMessage.sender) */\n      jump\t// in\n    tag_328:\n        /* \"src/CrossChainFacilitator.sol\":10197:10231  any2EvmMessage.sourceChainSelector */\n      0x20\n      dup1\n      dup4\n      add\n      mload\n      sub(shl(0x40, 0x01), 0x01)\n        /* \"src/CrossChainFacilitator.sol\":10169:10232  approvedCrossChainReceivers[any2EvmMessage.sourceChainSelector] */\n      and\n      0x00\n      swap1\n      dup2\n      mstore\n        /* \"src/CrossChainFacilitator.sol\":10169:10196  approvedCrossChainReceivers */\n      0x05\n        /* \"src/CrossChainFacilitator.sol\":10169:10232  approvedCrossChainReceivers[any2EvmMessage.sourceChainSelector] */\n      swap1\n      swap2\n      mstore\n      0x40\n      swap1\n      keccak256\n      sload\n      sub(shl(0xa0, 0x01), 0x01)\n      swap1\n      dup2\n      and\n        /* \"src/CrossChainFacilitator.sol\":10169:10273  approvedCrossChainReceivers[any2EvmMessage.sourceChainSelector] == bytesToAddress(any2EvmMessage.sender) */\n      swap2\n      and\n      eq\n        /* \"src/CrossChainFacilitator.sol\":10148:10342  require(... */\n      tag_329\n      jumpi\n      mload(0x40)\n      shl(0xe5, 0x461bcd)\n      dup2\n      mstore\n        /* \"#utility.yul\":16260:16262   */\n      0x20\n        /* \"src/CrossChainFacilitator.sol\":10148:10342  require(... */\n      0x04\n      dup3\n      add\n        /* \"#utility.yul\":16242:16263   */\n      mstore\n        /* \"#utility.yul\":16299:16301   */\n      0x2b\n        /* \"#utility.yul\":16279:16297   */\n      0x24\n      dup3\n      add\n        /* \"#utility.yul\":16272:16302   */\n      mstore\n        /* \"#utility.yul\":16338:16372   */\n      0x43726f7373436861696e466163696c697461746f723a2053656e646572206e6f\n        /* \"#utility.yul\":16318:16336   */\n      0x44\n      dup3\n      add\n        /* \"#utility.yul\":16311:16373   */\n      mstore\n      shl(0xa9, 0x3a1030b8383937bb32b217)\n        /* \"#utility.yul\":16389:16407   */\n      0x64\n      dup3\n      add\n        /* \"#utility.yul\":16382:16423   */\n      mstore\n        /* \"#utility.yul\":16440:16459   */\n      0x84\n      add\n        /* \"src/CrossChainFacilitator.sol\":10148:10342  require(... */\n      tag_148\n        /* \"#utility.yul\":16058:16465   */\n      jump\n        /* \"src/CrossChainFacilitator.sol\":10148:10342  require(... */\n    tag_329:\n        /* \"src/CrossChainFacilitator.sol\":10391:10429  CrossChainGHOTransfer memory _transfer */\n      0x00\n        /* \"src/CrossChainFacilitator.sol\":10432:10469  decodeCCTransfer(any2EvmMessage.data) */\n      tag_332\n        /* \"src/CrossChainFacilitator.sol\":10449:10463  any2EvmMessage */\n      dup3\n        /* \"src/CrossChainFacilitator.sol\":10449:10468  any2EvmMessage.data */\n      0x60\n      add\n      mload\n        /* \"src/CrossChainFacilitator.sol\":10432:10448  decodeCCTransfer */\n      tag_333\n        /* \"src/CrossChainFacilitator.sol\":10432:10469  decodeCCTransfer(any2EvmMessage.data) */\n      jump\t// in\n    tag_332:\n        /* \"src/CrossChainFacilitator.sol\":10573:10589  _transfer.amount */\n      dup1\n      mload\n        /* \"src/CrossChainFacilitator.sol\":10391:10469  CrossChainGHOTransfer memory _transfer = decodeCCTransfer(any2EvmMessage.data) */\n      swap1\n      swap2\n      pop\n        /* \"src/CrossChainFacilitator.sol\":10558:10570  ghoBalance() */\n      tag_334\n        /* \"src/CrossChainFacilitator.sol\":10558:10568  ghoBalance */\n      tag_206\n        /* \"src/CrossChainFacilitator.sol\":10558:10570  ghoBalance() */\n      jump\t// in\n    tag_334:\n        /* \"src/CrossChainFacilitator.sol\":10558:10589  ghoBalance() > _transfer.amount */\n      gt\n        /* \"src/CrossChainFacilitator.sol\":10554:10785  if (ghoBalance() > _transfer.amount) {... */\n      iszero\n      tag_335\n      jumpi\n        /* \"src/CrossChainFacilitator.sol\":10624:10642  _transfer.receiver */\n      0x20\n      dup2\n      add\n      mload\n        /* \"src/CrossChainFacilitator.sol\":10644:10660  _transfer.amount */\n      dup2\n      mload\n        /* \"src/CrossChainFacilitator.sol\":10605:10661  GHO_TOKEN.transfer(_transfer.receiver, _transfer.amount) */\n      mload(0x40)\n      shl(0xe0, 0xa9059cbb)\n      dup2\n      mstore\n      sub(shl(0xa0, 0x01), 0x01)\n        /* \"src/CrossChainFacilitator.sol\":10605:10614  GHO_TOKEN */\n      immutable(\"0x117e01824b988abbbc4a51afcc11d9fffaeef543591fe94bdcb15c1af7a6cff2\")\n        /* \"src/CrossChainFacilitator.sol\":10605:10623  GHO_TOKEN.transfer */\n      and\n      swap3\n      0xa9059cbb\n      swap3\n        /* \"src/CrossChainFacilitator.sol\":10605:10661  GHO_TOKEN.transfer(_transfer.receiver, _transfer.amount) */\n      tag_336\n      swap3\n      0x04\n      add\n      sub(shl(0xa0, 0x01), 0x01)\n        /* \"#utility.yul\":7106:7138   */\n      swap3\n      swap1\n      swap3\n      and\n        /* \"#utility.yul\":7088:7139   */\n      dup3\n      mstore\n        /* \"#utility.yul\":7170:7172   */\n      0x20\n        /* \"#utility.yul\":7155:7173   */\n      dup3\n      add\n        /* \"#utility.yul\":7148:7182   */\n      mstore\n        /* \"#utility.yul\":7076:7078   */\n      0x40\n        /* \"#utility.yul\":7061:7079   */\n      add\n      swap1\n        /* \"#utility.yul\":6914:7188   */\n      jump\n        /* \"src/CrossChainFacilitator.sol\":10605:10661  GHO_TOKEN.transfer(_transfer.receiver, _transfer.amount) */\n    tag_336:\n      0x20\n      mload(0x40)\n      dup1\n      dup4\n      sub\n      dup2\n      0x00\n      dup8\n      gas\n      call\n      iszero\n      dup1\n      iszero\n      tag_338\n      jumpi\n      returndatasize\n      0x00\n      dup1\n      returndatacopy\n      revert(0x00, returndatasize)\n    tag_338:\n      pop\n      pop\n      pop\n      pop\n      mload(0x40)\n      returndatasize\n      not(0x1f)\n      0x1f\n      dup3\n      add\n      and\n      dup3\n      add\n      dup1\n      0x40\n      mstore\n      pop\n      dup2\n      add\n      swap1\n      tag_339\n      swap2\n      swap1\n      tag_146\n      jump\t// in\n    tag_339:\n      pop\n        /* \"src/CrossChainFacilitator.sol\":10554:10785  if (ghoBalance() > _transfer.amount) {... */\n      jump(tag_340)\n    tag_335:\n        /* \"src/CrossChainFacilitator.sol\":10757:10773  _transfer.amount */\n      dup1\n      mload\n        /* \"src/CrossChainFacilitator.sol\":10727:10774  GHO_TOKEN.mint(address(this), _transfer.amount) */\n      mload(0x40)\n      shl(0xe0, 0x40c10f19)\n      dup2\n      mstore\n        /* \"src/CrossChainFacilitator.sol\":10750:10754  this */\n      address\n        /* \"src/CrossChainFacilitator.sol\":10727:10774  GHO_TOKEN.mint(address(this), _transfer.amount) */\n      0x04\n      dup3\n      add\n        /* \"#utility.yul\":7088:7139   */\n      mstore\n        /* \"#utility.yul\":7155:7173   */\n      0x24\n      dup2\n      add\n        /* \"#utility.yul\":7148:7182   */\n      swap2\n      swap1\n      swap2\n      mstore\n        /* \"src/CrossChainFacilitator.sol\":10727:10736  GHO_TOKEN */\n      immutable(\"0x117e01824b988abbbc4a51afcc11d9fffaeef543591fe94bdcb15c1af7a6cff2\")\n      sub(shl(0xa0, 0x01), 0x01)\n        /* \"src/CrossChainFacilitator.sol\":10727:10741  GHO_TOKEN.mint */\n      and\n      swap1\n      0x40c10f19\n      swap1\n        /* \"#utility.yul\":7061:7079   */\n      0x44\n      add\n        /* \"src/CrossChainFacilitator.sol\":10727:10774  GHO_TOKEN.mint(address(this), _transfer.amount) */\n      0x00\n      mload(0x40)\n      dup1\n      dup4\n      sub\n      dup2\n      0x00\n      dup8\n      dup1\n      extcodesize\n      iszero\n      dup1\n      iszero\n      tag_342\n      jumpi\n      0x00\n      dup1\n      revert\n    tag_342:\n      pop\n      gas\n      call\n      iszero\n      dup1\n      iszero\n      tag_344\n      jumpi\n      returndatasize\n      0x00\n      dup1\n      returndatacopy\n      revert(0x00, returndatasize)\n    tag_344:\n      pop\n      pop\n      pop\n      pop\n        /* \"src/CrossChainFacilitator.sol\":10554:10785  if (ghoBalance() > _transfer.amount) {... */\n    tag_340:\n        /* \"src/CrossChainFacilitator.sol\":10889:10903  any2EvmMessage */\n      dup2\n        /* \"src/CrossChainFacilitator.sol\":10889:10923  any2EvmMessage.sourceChainSelector */\n      0x20\n      add\n      mload\n      sub(shl(0x40, 0x01), 0x01)\n        /* \"src/CrossChainFacilitator.sol\":10822:11025  MessageReceived(... */\n      and\n        /* \"src/CrossChainFacilitator.sol\":10851:10865  any2EvmMessage */\n      dup3\n        /* \"src/CrossChainFacilitator.sol\":10851:10875  any2EvmMessage.messageId */\n      0x00\n      add\n      mload\n        /* \"src/CrossChainFacilitator.sol\":10822:11025  MessageReceived(... */\n      0x4f9fc06f5f4dc447952ea2eb4a0cda7a5736686f29e607951e0ab1b895f97f37\n        /* \"src/CrossChainFacilitator.sol\":10937:10946  _transfer */\n      dup4\n        /* \"src/CrossChainFacilitator.sol\":10937:10955  _transfer.receiver */\n      0x20\n      add\n      mload\n        /* \"src/CrossChainFacilitator.sol\":10969:10978  _transfer */\n      dup5\n        /* \"src/CrossChainFacilitator.sol\":10969:10985  _transfer.sender */\n      0x40\n      add\n      mload\n        /* \"src/CrossChainFacilitator.sol\":10999:11008  _transfer */\n      dup6\n        /* \"src/CrossChainFacilitator.sol\":10999:11015  _transfer.amount */\n      0x00\n      add\n      mload\n        /* \"src/CrossChainFacilitator.sol\":10822:11025  MessageReceived(... */\n      mload(0x40)\n      tag_345\n      swap4\n      swap3\n      swap2\n      swap1\n      tag_142\n      jump\t// in\n    tag_345:\n      mload(0x40)\n      dup1\n      swap2\n      sub\n      swap1\n      log3\n        /* \"src/CrossChainFacilitator.sol\":10085:11032  {... */\n      pop\n        /* \"src/CrossChainFacilitator.sol\":10000:11032  function _ccipReceive(Client.Any2EVMMessage memory any2EvmMessage) internal override {... */\n      pop\n      jump\t// out\n        /* \"src/CrossChainFacilitator.sol\":6657:6915  function _updateTransferFee(uint256 newFee) internal {... */\n    tag_245:\n        /* \"src/CrossChainFacilitator.sol\":889:892  1e4 */\n      0x2710\n        /* \"src/CrossChainFacilitator.sol\":6728:6734  newFee */\n      dup2\n        /* \"src/CrossChainFacilitator.sol\":6728:6745  newFee <= MAX_FEE */\n      gt\n      iszero\n        /* \"src/CrossChainFacilitator.sol\":6720:6789  require(newFee <= MAX_FEE, \"CrossChainFacilitator: Fee out of range\") */\n      tag_347\n      jumpi\n      mload(0x40)\n      shl(0xe5, 0x461bcd)\n      dup2\n      mstore\n      0x04\n      add\n      tag_148\n      swap1\n      tag_324\n      jump\t// in\n    tag_347:\n        /* \"src/CrossChainFacilitator.sol\":6816:6828  _transferFee */\n      0x02\n      dup1\n      sload\n        /* \"src/CrossChainFacilitator.sol\":6838:6859  _transferFee = newFee */\n      swap1\n      dup3\n      swap1\n      sstore\n        /* \"src/CrossChainFacilitator.sol\":6874:6908  TransferFeeUpdated(oldFee, newFee) */\n      0x40\n      dup1\n      mload\n        /* \"#utility.yul\":15979:16004   */\n      dup3\n      dup2\n      mstore\n        /* \"#utility.yul\":16035:16037   */\n      0x20\n        /* \"#utility.yul\":16020:16038   */\n      dup2\n      add\n        /* \"#utility.yul\":16013:16047   */\n      dup5\n      swap1\n      mstore\n        /* \"src/CrossChainFacilitator.sol\":6874:6908  TransferFeeUpdated(oldFee, newFee) */\n      0x940334a9f5c76529ad9447ac490c2073b06d880209383a3d3e4b0ecab72a0d99\n      swap2\n        /* \"#utility.yul\":15952:15970   */\n      add\n        /* \"src/CrossChainFacilitator.sol\":6874:6908  TransferFeeUpdated(oldFee, newFee) */\n      tag_297\n        /* \"#utility.yul\":15805:16053   */\n      jump\n        /* \"src/CrossChainGHOTransfer.sol\":287:453  function decodeCCTransfer(bytes memory _transferBytes) pure returns (CrossChainGHOTransfer memory) {... */\n    tag_333:\n      0x40\n      dup1\n      mload\n      0x60\n      dup2\n      add\n      dup3\n      mstore\n      0x00\n      dup1\n      dup3\n      mstore\n      0x20\n      dup1\n      dup4\n      add\n      dup3\n      swap1\n      mstore\n      swap3\n      dup3\n      add\n      mstore\n        /* \"src/CrossChainGHOTransfer.sol\":399:450  abi.decode(_transferBytes, (CrossChainGHOTransfer)) */\n      dup3\n      mload\n      swap1\n      swap2\n      tag_139\n      swap2\n      dup5\n      add\n      dup2\n      add\n      swap1\n      dup5\n      add\n      tag_360\n      jump\t// in\n        /* \"#utility.yul\":14:300   */\n    tag_31:\n        /* \"#utility.yul\":72:78   */\n      0x00\n        /* \"#utility.yul\":125:127   */\n      0x20\n        /* \"#utility.yul\":113:122   */\n      dup3\n        /* \"#utility.yul\":104:111   */\n      dup5\n        /* \"#utility.yul\":100:123   */\n      sub\n        /* \"#utility.yul\":96:128   */\n      slt\n        /* \"#utility.yul\":93:145   */\n      iszero\n      tag_372\n      jumpi\n        /* \"#utility.yul\":141:142   */\n      0x00\n        /* \"#utility.yul\":138:139   */\n      dup1\n        /* \"#utility.yul\":131:143   */\n      revert\n        /* \"#utility.yul\":93:145   */\n    tag_372:\n        /* \"#utility.yul\":167:190   */\n      dup2\n      calldataload\n      not(sub(shl(0xe0, 0x01), 0x01))\n        /* \"#utility.yul\":219:251   */\n      dup2\n      and\n        /* \"#utility.yul\":209:252   */\n      dup2\n      eq\n        /* \"#utility.yul\":199:270   */\n      tag_373\n      jumpi\n        /* \"#utility.yul\":266:267   */\n      0x00\n        /* \"#utility.yul\":263:264   */\n      dup1\n        /* \"#utility.yul\":256:268   */\n      revert\n        /* \"#utility.yul\":199:270   */\n    tag_373:\n        /* \"#utility.yul\":289:294   */\n      swap4\n        /* \"#utility.yul\":14:300   */\n      swap3\n      pop\n      pop\n      pop\n      jump\t// out\n        /* \"#utility.yul\":497:628   */\n    tag_361:\n      sub(shl(0xa0, 0x01), 0x01)\n        /* \"#utility.yul\":572:603   */\n      dup2\n      and\n        /* \"#utility.yul\":562:604   */\n      dup2\n      eq\n        /* \"#utility.yul\":552:622   */\n      tag_165\n      jumpi\n        /* \"#utility.yul\":618:619   */\n      0x00\n        /* \"#utility.yul\":615:616   */\n      dup1\n        /* \"#utility.yul\":608:620   */\n      revert\n        /* \"#utility.yul\":633:948   */\n    tag_38:\n        /* \"#utility.yul\":701:707   */\n      0x00\n        /* \"#utility.yul\":709:715   */\n      dup1\n        /* \"#utility.yul\":762:764   */\n      0x40\n        /* \"#utility.yul\":750:759   */\n      dup4\n        /* \"#utility.yul\":741:748   */\n      dup6\n        /* \"#utility.yul\":737:760   */\n      sub\n        /* \"#utility.yul\":733:765   */\n      slt\n        /* \"#utility.yul\":730:782   */\n      iszero\n      tag_378\n      jumpi\n        /* \"#utility.yul\":778:779   */\n      0x00\n        /* \"#utility.yul\":775:776   */\n      dup1\n        /* \"#utility.yul\":768:780   */\n      revert\n        /* \"#utility.yul\":730:782   */\n    tag_378:\n        /* \"#utility.yul\":814:823   */\n      dup3\n        /* \"#utility.yul\":801:824   */\n      calldataload\n        /* \"#utility.yul\":791:824   */\n      swap2\n      pop\n        /* \"#utility.yul\":874:876   */\n      0x20\n        /* \"#utility.yul\":863:872   */\n      dup4\n        /* \"#utility.yul\":859:877   */\n      add\n        /* \"#utility.yul\":846:878   */\n      calldataload\n        /* \"#utility.yul\":887:918   */\n      tag_379\n        /* \"#utility.yul\":912:917   */\n      dup2\n        /* \"#utility.yul\":887:918   */\n      tag_361\n      jump\t// in\n    tag_379:\n        /* \"#utility.yul\":937:942   */\n      dup1\n        /* \"#utility.yul\":927:942   */\n      swap2\n      pop\n      pop\n        /* \"#utility.yul\":633:948   */\n      swap3\n      pop\n      swap3\n      swap1\n      pop\n      jump\t// out\n        /* \"#utility.yul\":953:1200   */\n    tag_43:\n        /* \"#utility.yul\":1012:1018   */\n      0x00\n        /* \"#utility.yul\":1065:1067   */\n      0x20\n        /* \"#utility.yul\":1053:1062   */\n      dup3\n        /* \"#utility.yul\":1044:1051   */\n      dup5\n        /* \"#utility.yul\":1040:1063   */\n      sub\n        /* \"#utility.yul\":1036:1068   */\n      slt\n        /* \"#utility.yul\":1033:1085   */\n      iszero\n      tag_381\n      jumpi\n        /* \"#utility.yul\":1081:1082   */\n      0x00\n        /* \"#utility.yul\":1078:1079   */\n      dup1\n        /* \"#utility.yul\":1071:1083   */\n      revert\n        /* \"#utility.yul\":1033:1085   */\n    tag_381:\n        /* \"#utility.yul\":1120:1129   */\n      dup2\n        /* \"#utility.yul\":1107:1130   */\n      calldataload\n        /* \"#utility.yul\":1139:1170   */\n      tag_373\n        /* \"#utility.yul\":1164:1169   */\n      dup2\n        /* \"#utility.yul\":1139:1170   */\n      tag_361\n      jump\t// in\n        /* \"#utility.yul\":1205:1376   */\n    tag_362:\n        /* \"#utility.yul\":1272:1292   */\n      dup1\n      calldataload\n      sub(shl(0x40, 0x01), 0x01)\n        /* \"#utility.yul\":1321:1351   */\n      dup2\n      and\n        /* \"#utility.yul\":1311:1352   */\n      dup2\n      eq\n        /* \"#utility.yul\":1301:1370   */\n      tag_384\n      jumpi\n        /* \"#utility.yul\":1366:1367   */\n      0x00\n        /* \"#utility.yul\":1363:1364   */\n      dup1\n        /* \"#utility.yul\":1356:1368   */\n      revert\n        /* \"#utility.yul\":1301:1370   */\n    tag_384:\n        /* \"#utility.yul\":1205:1376   */\n      swap2\n      swap1\n      pop\n      jump\t// out\n        /* \"#utility.yul\":1381:1768   */\n    tag_52:\n        /* \"#utility.yul\":1457:1463   */\n      0x00\n        /* \"#utility.yul\":1465:1471   */\n      dup1\n        /* \"#utility.yul\":1473:1479   */\n      0x00\n        /* \"#utility.yul\":1526:1528   */\n      0x60\n        /* \"#utility.yul\":1514:1523   */\n      dup5\n        /* \"#utility.yul\":1505:1512   */\n      dup7\n        /* \"#utility.yul\":1501:1524   */\n      sub\n        /* \"#utility.yul\":1497:1529   */\n      slt\n        /* \"#utility.yul\":1494:1546   */\n      iszero\n      tag_386\n      jumpi\n        /* \"#utility.yul\":1542:1543   */\n      0x00\n        /* \"#utility.yul\":1539:1540   */\n      dup1\n        /* \"#utility.yul\":1532:1544   */\n      revert\n        /* \"#utility.yul\":1494:1546   */\n    tag_386:\n        /* \"#utility.yul\":1565:1593   */\n      tag_387\n        /* \"#utility.yul\":1583:1592   */\n      dup5\n        /* \"#utility.yul\":1565:1593   */\n      tag_362\n      jump\t// in\n    tag_387:\n        /* \"#utility.yul\":1555:1593   */\n      swap3\n      pop\n        /* \"#utility.yul\":1640:1642   */\n      0x20\n        /* \"#utility.yul\":1629:1638   */\n      dup5\n        /* \"#utility.yul\":1625:1643   */\n      add\n        /* \"#utility.yul\":1612:1644   */\n      calldataload\n        /* \"#utility.yul\":1602:1644   */\n      swap2\n      pop\n        /* \"#utility.yul\":1694:1696   */\n      0x40\n        /* \"#utility.yul\":1683:1692   */\n      dup5\n        /* \"#utility.yul\":1679:1697   */\n      add\n        /* \"#utility.yul\":1666:1698   */\n      calldataload\n        /* \"#utility.yul\":1707:1738   */\n      tag_388\n        /* \"#utility.yul\":1732:1737   */\n      dup2\n        /* \"#utility.yul\":1707:1738   */\n      tag_361\n      jump\t// in\n    tag_388:\n        /* \"#utility.yul\":1757:1762   */\n      dup1\n        /* \"#utility.yul\":1747:1762   */\n      swap2\n      pop\n      pop\n        /* \"#utility.yul\":1381:1768   */\n      swap3\n      pop\n      swap3\n      pop\n      swap3\n      jump\t// out\n        /* \"#utility.yul\":1955:2082   */\n    tag_307:\n        /* \"#utility.yul\":2016:2026   */\n      0x4e487b71\n        /* \"#utility.yul\":2011:2014   */\n      0xe0\n        /* \"#utility.yul\":2007:2027   */\n      shl\n        /* \"#utility.yul\":2004:2005   */\n      0x00\n        /* \"#utility.yul\":1997:2028   */\n      mstore\n        /* \"#utility.yul\":2047:2051   */\n      0x41\n        /* \"#utility.yul\":2044:2045   */\n      0x04\n        /* \"#utility.yul\":2037:2052   */\n      mstore\n        /* \"#utility.yul\":2071:2075   */\n      0x24\n        /* \"#utility.yul\":2068:2069   */\n      0x00\n        /* \"#utility.yul\":2061:2076   */\n      revert\n        /* \"#utility.yul\":2087:2344   */\n    tag_363:\n        /* \"#utility.yul\":2159:2163   */\n      0x40\n        /* \"#utility.yul\":2153:2164   */\n      dup1\n      mload\n      swap1\n        /* \"#utility.yul\":2191:2208   */\n      dup2\n      add\n      sub(shl(0x40, 0x01), 0x01)\n        /* \"#utility.yul\":2223:2257   */\n      dup2\n      gt\n        /* \"#utility.yul\":2259:2281   */\n      dup3\n      dup3\n      lt\n        /* \"#utility.yul\":2220:2282   */\n      or\n        /* \"#utility.yul\":2217:2305   */\n      iszero\n      tag_393\n      jumpi\n        /* \"#utility.yul\":2285:2303   */\n      tag_393\n      tag_307\n      jump\t// in\n    tag_393:\n        /* \"#utility.yul\":2321:2325   */\n      0x40\n        /* \"#utility.yul\":2314:2338   */\n      mstore\n        /* \"#utility.yul\":2087:2344   */\n      swap1\n      jump\t// out\n        /* \"#utility.yul\":2349:2602   */\n    tag_364:\n        /* \"#utility.yul\":2421:2423   */\n      0x40\n        /* \"#utility.yul\":2415:2424   */\n      mload\n        /* \"#utility.yul\":2463:2467   */\n      0xa0\n        /* \"#utility.yul\":2451:2468   */\n      dup2\n      add\n      sub(shl(0x40, 0x01), 0x01)\n        /* \"#utility.yul\":2483:2517   */\n      dup2\n      gt\n        /* \"#utility.yul\":2519:2541   */\n      dup3\n      dup3\n      lt\n        /* \"#utility.yul\":2480:2542   */\n      or\n        /* \"#utility.yul\":2477:2565   */\n      iszero\n      tag_393\n      jumpi\n        /* \"#utility.yul\":2545:2563   */\n      tag_393\n      tag_307\n      jump\t// in\n        /* \"#utility.yul\":2607:2882   */\n    tag_365:\n        /* \"#utility.yul\":2678:2680   */\n      0x40\n        /* \"#utility.yul\":2672:2681   */\n      mload\n        /* \"#utility.yul\":2743:2745   */\n      0x1f\n        /* \"#utility.yul\":2724:2737   */\n      dup3\n      add\n      not(0x1f)\n        /* \"#utility.yul\":2720:2747   */\n      and\n        /* \"#utility.yul\":2708:2748   */\n      dup2\n      add\n      sub(shl(0x40, 0x01), 0x01)\n        /* \"#utility.yul\":2763:2797   */\n      dup2\n      gt\n        /* \"#utility.yul\":2799:2821   */\n      dup3\n      dup3\n      lt\n        /* \"#utility.yul\":2760:2822   */\n      or\n        /* \"#utility.yul\":2757:2845   */\n      iszero\n      tag_399\n      jumpi\n        /* \"#utility.yul\":2825:2843   */\n      tag_399\n      tag_307\n      jump\t// in\n    tag_399:\n        /* \"#utility.yul\":2861:2863   */\n      0x40\n        /* \"#utility.yul\":2854:2876   */\n      mstore\n        /* \"#utility.yul\":2607:2882   */\n      swap2\n      swap1\n      pop\n      jump\t// out\n        /* \"#utility.yul\":2887:3417   */\n    tag_366:\n        /* \"#utility.yul\":2929:2934   */\n      0x00\n        /* \"#utility.yul\":2982:2985   */\n      dup3\n        /* \"#utility.yul\":2975:2979   */\n      0x1f\n        /* \"#utility.yul\":2967:2973   */\n      dup4\n        /* \"#utility.yul\":2963:2980   */\n      add\n        /* \"#utility.yul\":2959:2986   */\n      slt\n        /* \"#utility.yul\":2949:3004   */\n      tag_401\n      jumpi\n        /* \"#utility.yul\":3000:3001   */\n      0x00\n        /* \"#utility.yul\":2997:2998   */\n      dup1\n        /* \"#utility.yul\":2990:3002   */\n      revert\n        /* \"#utility.yul\":2949:3004   */\n    tag_401:\n        /* \"#utility.yul\":3036:3042   */\n      dup2\n        /* \"#utility.yul\":3023:3043   */\n      calldataload\n      sub(shl(0x40, 0x01), 0x01)\n        /* \"#utility.yul\":3058:3060   */\n      dup2\n        /* \"#utility.yul\":3055:3081   */\n      gt\n        /* \"#utility.yul\":3052:3104   */\n      iszero\n      tag_403\n      jumpi\n        /* \"#utility.yul\":3084:3102   */\n      tag_403\n      tag_307\n      jump\t// in\n    tag_403:\n        /* \"#utility.yul\":3128:3183   */\n      tag_404\n        /* \"#utility.yul\":3171:3173   */\n      0x1f\n        /* \"#utility.yul\":3152:3165   */\n      dup3\n      add\n      not(0x1f)\n        /* \"#utility.yul\":3148:3175   */\n      and\n        /* \"#utility.yul\":3177:3181   */\n      0x20\n        /* \"#utility.yul\":3144:3182   */\n      add\n        /* \"#utility.yul\":3128:3183   */\n      tag_365\n      jump\t// in\n    tag_404:\n        /* \"#utility.yul\":3208:3210   */\n      dup2\n        /* \"#utility.yul\":3199:3206   */\n      dup2\n        /* \"#utility.yul\":3192:3211   */\n      mstore\n        /* \"#utility.yul\":3254:3257   */\n      dup5\n        /* \"#utility.yul\":3247:3251   */\n      0x20\n        /* \"#utility.yul\":3242:3244   */\n      dup4\n        /* \"#utility.yul\":3234:3240   */\n      dup7\n        /* \"#utility.yul\":3230:3245   */\n      add\n        /* \"#utility.yul\":3226:3252   */\n      add\n        /* \"#utility.yul\":3223:3258   */\n      gt\n        /* \"#utility.yul\":3220:3275   */\n      iszero\n      tag_405\n      jumpi\n        /* \"#utility.yul\":3271:3272   */\n      0x00\n        /* \"#utility.yul\":3268:3269   */\n      dup1\n        /* \"#utility.yul\":3261:3273   */\n      revert\n        /* \"#utility.yul\":3220:3275   */\n    tag_405:\n        /* \"#utility.yul\":3336:3338   */\n      dup2\n        /* \"#utility.yul\":3329:3333   */\n      0x20\n        /* \"#utility.yul\":3321:3327   */\n      dup6\n        /* \"#utility.yul\":3317:3334   */\n      add\n        /* \"#utility.yul\":3310:3314   */\n      0x20\n        /* \"#utility.yul\":3301:3308   */\n      dup4\n        /* \"#utility.yul\":3297:3315   */\n      add\n        /* \"#utility.yul\":3284:3339   */\n      calldatacopy\n        /* \"#utility.yul\":3384:3385   */\n      0x00\n        /* \"#utility.yul\":3359:3375   */\n      swap2\n      dup2\n      add\n        /* \"#utility.yul\":3377:3381   */\n      0x20\n        /* \"#utility.yul\":3355:3382   */\n      add\n        /* \"#utility.yul\":3348:3386   */\n      swap2\n      swap1\n      swap2\n      mstore\n        /* \"#utility.yul\":3363:3370   */\n      swap4\n        /* \"#utility.yul\":2887:3417   */\n      swap3\n      pop\n      pop\n      pop\n      jump\t// out\n        /* \"#utility.yul\":3422:3742   */\n    tag_59:\n        /* \"#utility.yul\":3490:3496   */\n      0x00\n        /* \"#utility.yul\":3543:3545   */\n      0x20\n        /* \"#utility.yul\":3531:3540   */\n      dup3\n        /* \"#utility.yul\":3522:3529   */\n      dup5\n        /* \"#utility.yul\":3518:3541   */\n      sub\n        /* \"#utility.yul\":3514:3546   */\n      slt\n        /* \"#utility.yul\":3511:3563   */\n      iszero\n      tag_407\n      jumpi\n        /* \"#utility.yul\":3559:3560   */\n      0x00\n        /* \"#utility.yul\":3556:3557   */\n      dup1\n        /* \"#utility.yul\":3549:3561   */\n      revert\n        /* \"#utility.yul\":3511:3563   */\n    tag_407:\n        /* \"#utility.yul\":3599:3608   */\n      dup2\n        /* \"#utility.yul\":3586:3609   */\n      calldataload\n      sub(shl(0x40, 0x01), 0x01)\n        /* \"#utility.yul\":3624:3630   */\n      dup2\n        /* \"#utility.yul\":3621:3651   */\n      gt\n        /* \"#utility.yul\":3618:3668   */\n      iszero\n      tag_408\n      jumpi\n        /* \"#utility.yul\":3664:3665   */\n      0x00\n        /* \"#utility.yul\":3661:3662   */\n      dup1\n        /* \"#utility.yul\":3654:3666   */\n      revert\n        /* \"#utility.yul\":3618:3668   */\n    tag_408:\n        /* \"#utility.yul\":3687:3736   */\n      tag_409\n        /* \"#utility.yul\":3728:3735   */\n      dup5\n        /* \"#utility.yul\":3719:3725   */\n      dup3\n        /* \"#utility.yul\":3708:3717   */\n      dup6\n        /* \"#utility.yul\":3704:3726   */\n      add\n        /* \"#utility.yul\":3687:3736   */\n      tag_366\n      jump\t// in\n    tag_409:\n        /* \"#utility.yul\":3677:3736   */\n      swap5\n        /* \"#utility.yul\":3422:3742   */\n      swap4\n      pop\n      pop\n      pop\n      pop\n      jump\t// out\n        /* \"#utility.yul\":4064:4244   */\n    tag_74:\n        /* \"#utility.yul\":4123:4129   */\n      0x00\n        /* \"#utility.yul\":4176:4178   */\n      0x20\n        /* \"#utility.yul\":4164:4173   */\n      dup3\n        /* \"#utility.yul\":4155:4162   */\n      dup5\n        /* \"#utility.yul\":4151:4174   */\n      sub\n        /* \"#utility.yul\":4147:4179   */\n      slt\n        /* \"#utility.yul\":4144:4196   */\n      iszero\n      tag_413\n      jumpi\n        /* \"#utility.yul\":4192:4193   */\n      0x00\n        /* \"#utility.yul\":4189:4190   */\n      dup1\n        /* \"#utility.yul\":4182:4194   */\n      revert\n        /* \"#utility.yul\":4144:4196   */\n    tag_413:\n      pop\n        /* \"#utility.yul\":4215:4238   */\n      calldataload\n      swap2\n        /* \"#utility.yul\":4064:4244   */\n      swap1\n      pop\n      jump\t// out\n        /* \"#utility.yul\":4249:4642   */\n    tag_84:\n        /* \"#utility.yul\":4341:4347   */\n      0x00\n        /* \"#utility.yul\":4394:4396   */\n      0x20\n        /* \"#utility.yul\":4382:4391   */\n      dup3\n        /* \"#utility.yul\":4373:4380   */\n      dup5\n        /* \"#utility.yul\":4369:4392   */\n      sub\n        /* \"#utility.yul\":4365:4397   */\n      slt\n        /* \"#utility.yul\":4362:4414   */\n      iszero\n      tag_415\n      jumpi\n        /* \"#utility.yul\":4410:4411   */\n      0x00\n        /* \"#utility.yul\":4407:4408   */\n      dup1\n        /* \"#utility.yul\":4400:4412   */\n      revert\n        /* \"#utility.yul\":4362:4414   */\n    tag_415:\n        /* \"#utility.yul\":4450:4459   */\n      dup2\n        /* \"#utility.yul\":4437:4460   */\n      calldataload\n      sub(shl(0x40, 0x01), 0x01)\n        /* \"#utility.yul\":4475:4481   */\n      dup2\n        /* \"#utility.yul\":4472:4502   */\n      gt\n        /* \"#utility.yul\":4469:4519   */\n      iszero\n      tag_416\n      jumpi\n        /* \"#utility.yul\":4515:4516   */\n      0x00\n        /* \"#utility.yul\":4512:4513   */\n      dup1\n        /* \"#utility.yul\":4505:4517   */\n      revert\n        /* \"#utility.yul\":4469:4519   */\n    tag_416:\n        /* \"#utility.yul\":4538:4560   */\n      dup3\n      add\n        /* \"#utility.yul\":4594:4597   */\n      0xa0\n        /* \"#utility.yul\":4576:4592   */\n      dup2\n      dup6\n      sub\n        /* \"#utility.yul\":4572:4598   */\n      slt\n        /* \"#utility.yul\":4569:4615   */\n      iszero\n      tag_373\n      jumpi\n        /* \"#utility.yul\":4611:4612   */\n      0x00\n        /* \"#utility.yul\":4608:4609   */\n      dup1\n        /* \"#utility.yul\":4601:4613   */\n      revert\n        /* \"#utility.yul\":5055:5374   */\n    tag_123:\n        /* \"#utility.yul\":5122:5128   */\n      0x00\n        /* \"#utility.yul\":5130:5136   */\n      dup1\n        /* \"#utility.yul\":5183:5185   */\n      0x40\n        /* \"#utility.yul\":5171:5180   */\n      dup4\n        /* \"#utility.yul\":5162:5169   */\n      dup6\n        /* \"#utility.yul\":5158:5181   */\n      sub\n        /* \"#utility.yul\":5154:5186   */\n      slt\n        /* \"#utility.yul\":5151:5203   */\n      iszero\n      tag_421\n      jumpi\n        /* \"#utility.yul\":5199:5200   */\n      0x00\n        /* \"#utility.yul\":5196:5197   */\n      dup1\n        /* \"#utility.yul\":5189:5201   */\n      revert\n        /* \"#utility.yul\":5151:5203   */\n    tag_421:\n        /* \"#utility.yul\":5222:5250   */\n      tag_422\n        /* \"#utility.yul\":5240:5249   */\n      dup4\n        /* \"#utility.yul\":5222:5250   */\n      tag_362\n      jump\t// in\n    tag_422:\n        /* \"#utility.yul\":5212:5250   */\n      swap2\n      pop\n        /* \"#utility.yul\":5300:5302   */\n      0x20\n        /* \"#utility.yul\":5289:5298   */\n      dup4\n        /* \"#utility.yul\":5285:5303   */\n      add\n        /* \"#utility.yul\":5272:5304   */\n      calldataload\n        /* \"#utility.yul\":5313:5344   */\n      tag_379\n        /* \"#utility.yul\":5338:5343   */\n      dup2\n        /* \"#utility.yul\":5313:5344   */\n      tag_361\n      jump\t// in\n        /* \"#utility.yul\":5601:5976   */\n    tag_142:\n      sub(shl(0xa0, 0x01), 0x01)\n        /* \"#utility.yul\":5859:5874   */\n      swap4\n      dup5\n      and\n        /* \"#utility.yul\":5841:5875   */\n      dup2\n      mstore\n        /* \"#utility.yul\":5911:5926   */\n      swap2\n      swap1\n      swap3\n      and\n        /* \"#utility.yul\":5906:5908   */\n      0x20\n        /* \"#utility.yul\":5891:5909   */\n      dup3\n      add\n        /* \"#utility.yul\":5884:5927   */\n      mstore\n        /* \"#utility.yul\":5958:5960   */\n      0x40\n        /* \"#utility.yul\":5943:5961   */\n      dup2\n      add\n        /* \"#utility.yul\":5936:5970   */\n      swap2\n      swap1\n      swap2\n      mstore\n        /* \"#utility.yul\":5791:5793   */\n      0x60\n        /* \"#utility.yul\":5776:5794   */\n      add\n      swap1\n        /* \"#utility.yul\":5601:5976   */\n      jump\t// out\n        /* \"#utility.yul\":5981:6258   */\n    tag_146:\n        /* \"#utility.yul\":6048:6054   */\n      0x00\n        /* \"#utility.yul\":6101:6103   */\n      0x20\n        /* \"#utility.yul\":6089:6098   */\n      dup3\n        /* \"#utility.yul\":6080:6087   */\n      dup5\n        /* \"#utility.yul\":6076:6099   */\n      sub\n        /* \"#utility.yul\":6072:6104   */\n      slt\n        /* \"#utility.yul\":6069:6121   */\n      iszero\n      tag_427\n      jumpi\n        /* \"#utility.yul\":6117:6118   */\n      0x00\n        /* \"#utility.yul\":6114:6115   */\n      dup1\n        /* \"#utility.yul\":6107:6119   */\n      revert\n        /* \"#utility.yul\":6069:6121   */\n    tag_427:\n        /* \"#utility.yul\":6149:6158   */\n      dup2\n        /* \"#utility.yul\":6143:6159   */\n      mload\n        /* \"#utility.yul\":6202:6207   */\n      dup1\n        /* \"#utility.yul\":6195:6208   */\n      iszero\n        /* \"#utility.yul\":6188:6209   */\n      iszero\n        /* \"#utility.yul\":6181:6186   */\n      dup2\n        /* \"#utility.yul\":6178:6210   */\n      eq\n        /* \"#utility.yul\":6168:6228   */\n      tag_373\n      jumpi\n        /* \"#utility.yul\":6224:6225   */\n      0x00\n        /* \"#utility.yul\":6221:6222   */\n      dup1\n        /* \"#utility.yul\":6214:6226   */\n      revert\n        /* \"#utility.yul\":6263:6687   */\n    tag_149:\n        /* \"#utility.yul\":6465:6467   */\n      0x20\n        /* \"#utility.yul\":6447:6468   */\n      dup1\n      dup3\n      mstore\n        /* \"#utility.yul\":6504:6506   */\n      0x3c\n        /* \"#utility.yul\":6484:6502   */\n      swap1\n      dup3\n      add\n        /* \"#utility.yul\":6477:6507   */\n      mstore\n        /* \"#utility.yul\":6543:6577   */\n      0x43726f7373436861696e466163696c697461746f723a204661696c656420746f\n        /* \"#utility.yul\":6538:6540   */\n      0x40\n        /* \"#utility.yul\":6523:6541   */\n      dup3\n      add\n        /* \"#utility.yul\":6516:6578   */\n      mstore\n        /* \"#utility.yul\":6614:6644   */\n      0x207472616e736665722047484f20746f20666163696c697461746f7200000000\n        /* \"#utility.yul\":6609:6611   */\n      0x60\n        /* \"#utility.yul\":6594:6612   */\n      dup3\n      add\n        /* \"#utility.yul\":6587:6645   */\n      mstore\n        /* \"#utility.yul\":6677:6680   */\n      0x80\n        /* \"#utility.yul\":6662:6681   */\n      add\n      swap1\n        /* \"#utility.yul\":6263:6687   */\n      jump\t// out\n        /* \"#utility.yul\":6692:6909   */\n    tag_151:\n        /* \"#utility.yul\":6732:6733   */\n      0x00\n        /* \"#utility.yul\":6758:6759   */\n      dup3\n        /* \"#utility.yul\":6748:6880   */\n      tag_431\n      jumpi\n        /* \"#utility.yul\":6802:6812   */\n      0x4e487b71\n        /* \"#utility.yul\":6797:6800   */\n      0xe0\n        /* \"#utility.yul\":6793:6813   */\n      shl\n        /* \"#utility.yul\":6790:6791   */\n      0x00\n        /* \"#utility.yul\":6783:6814   */\n      mstore\n        /* \"#utility.yul\":6837:6841   */\n      0x12\n        /* \"#utility.yul\":6834:6835   */\n      0x04\n        /* \"#utility.yul\":6827:6842   */\n      mstore\n        /* \"#utility.yul\":6865:6869   */\n      0x24\n        /* \"#utility.yul\":6862:6863   */\n      0x00\n        /* \"#utility.yul\":6855:6870   */\n      revert\n        /* \"#utility.yul\":6748:6880   */\n    tag_431:\n      pop\n        /* \"#utility.yul\":6894:6903   */\n      div\n      swap1\n        /* \"#utility.yul\":6692:6909   */\n      jump\t// out\n        /* \"#utility.yul\":7619:8036   */\n    tag_163:\n        /* \"#utility.yul\":7821:7823   */\n      0x20\n        /* \"#utility.yul\":7803:7824   */\n      dup1\n      dup3\n      mstore\n        /* \"#utility.yul\":7860:7862   */\n      0x35\n        /* \"#utility.yul\":7840:7858   */\n      swap1\n      dup3\n      add\n        /* \"#utility.yul\":7833:7863   */\n      mstore\n        /* \"#utility.yul\":7899:7933   */\n      0x43726f7373436861696e466163696c697461746f723a204f6e6c792041617665\n        /* \"#utility.yul\":7894:7896   */\n      0x40\n        /* \"#utility.yul\":7879:7897   */\n      dup3\n      add\n        /* \"#utility.yul\":7872:7934   */\n      mstore\n      shl(0x59, 0x1023b7bb32b93730b731b29031b0b71031b0b63617)\n        /* \"#utility.yul\":7965:7967   */\n      0x60\n        /* \"#utility.yul\":7950:7968   */\n      dup3\n      add\n        /* \"#utility.yul\":7943:7994   */\n      mstore\n        /* \"#utility.yul\":8026:8029   */\n      0x80\n        /* \"#utility.yul\":8011:8030   */\n      add\n      swap1\n        /* \"#utility.yul\":7619:8036   */\n      jump\t// out\n        /* \"#utility.yul\":8041:8458   */\n    tag_176:\n        /* \"#utility.yul\":8243:8245   */\n      0x20\n        /* \"#utility.yul\":8225:8246   */\n      dup1\n      dup3\n      mstore\n        /* \"#utility.yul\":8282:8284   */\n      0x35\n        /* \"#utility.yul\":8262:8280   */\n      swap1\n      dup3\n      add\n        /* \"#utility.yul\":8255:8285   */\n      mstore\n        /* \"#utility.yul\":8321:8355   */\n      0x43726f7373436861696e466163696c697461746f723a20546172676574206368\n        /* \"#utility.yul\":8316:8318   */\n      0x40\n        /* \"#utility.yul\":8301:8319   */\n      dup3\n      add\n        /* \"#utility.yul\":8294:8356   */\n      mstore\n      shl(0x59, 0x30b4b71034b9903737ba1039bab83837b93a32b217)\n        /* \"#utility.yul\":8387:8389   */\n      0x60\n        /* \"#utility.yul\":8372:8390   */\n      dup3\n      add\n        /* \"#utility.yul\":8365:8416   */\n      mstore\n        /* \"#utility.yul\":8448:8451   */\n      0x80\n        /* \"#utility.yul\":8433:8452   */\n      add\n      swap1\n        /* \"#utility.yul\":8041:8458   */\n      jump\t// out\n        /* \"#utility.yul\":8463:8714   */\n    tag_182:\n        /* \"#utility.yul\":8533:8539   */\n      0x00\n        /* \"#utility.yul\":8586:8588   */\n      0x20\n        /* \"#utility.yul\":8574:8583   */\n      dup3\n        /* \"#utility.yul\":8565:8572   */\n      dup5\n        /* \"#utility.yul\":8561:8584   */\n      sub\n        /* \"#utility.yul\":8557:8589   */\n      slt\n        /* \"#utility.yul\":8554:8606   */\n      iszero\n      tag_437\n      jumpi\n        /* \"#utility.yul\":8602:8603   */\n      0x00\n        /* \"#utility.yul\":8599:8600   */\n      dup1\n        /* \"#utility.yul\":8592:8604   */\n      revert\n        /* \"#utility.yul\":8554:8606   */\n    tag_437:\n        /* \"#utility.yul\":8634:8643   */\n      dup2\n        /* \"#utility.yul\":8628:8644   */\n      mload\n        /* \"#utility.yul\":8653:8684   */\n      tag_373\n        /* \"#utility.yul\":8678:8683   */\n      dup2\n        /* \"#utility.yul\":8653:8684   */\n      tag_361\n      jump\t// in\n        /* \"#utility.yul\":8719:9141   */\n    tag_368:\n        /* \"#utility.yul\":8760:8763   */\n      0x00\n        /* \"#utility.yul\":8798:8803   */\n      dup2\n        /* \"#utility.yul\":8792:8804   */\n      mload\n        /* \"#utility.yul\":8825:8831   */\n      dup1\n        /* \"#utility.yul\":8820:8823   */\n      dup5\n        /* \"#utility.yul\":8813:8832   */\n      mstore\n        /* \"#utility.yul\":8850:8851   */\n      0x00\n        /* \"#utility.yul\":8860:9022   */\n    tag_440:\n        /* \"#utility.yul\":8874:8880   */\n      dup2\n        /* \"#utility.yul\":8871:8872   */\n      dup2\n        /* \"#utility.yul\":8868:8881   */\n      lt\n        /* \"#utility.yul\":8860:9022   */\n      iszero\n      tag_442\n      jumpi\n        /* \"#utility.yul\":8936:8940   */\n      0x20\n        /* \"#utility.yul\":8992:9005   */\n      dup2\n      dup6\n      add\n        /* \"#utility.yul\":8988:9010   */\n      dup2\n      add\n        /* \"#utility.yul\":8982:9011   */\n      mload\n        /* \"#utility.yul\":8964:8975   */\n      dup7\n      dup4\n      add\n        /* \"#utility.yul\":8960:8980   */\n      dup3\n      add\n        /* \"#utility.yul\":8953:9012   */\n      mstore\n        /* \"#utility.yul\":8889:8901   */\n      add\n        /* \"#utility.yul\":8860:9022   */\n      jump(tag_440)\n    tag_442:\n        /* \"#utility.yul\":8864:8867   */\n      pop\n        /* \"#utility.yul\":9067:9068   */\n      0x00\n        /* \"#utility.yul\":9060:9064   */\n      0x20\n        /* \"#utility.yul\":9051:9057   */\n      dup3\n        /* \"#utility.yul\":9046:9049   */\n      dup7\n        /* \"#utility.yul\":9042:9058   */\n      add\n        /* \"#utility.yul\":9038:9065   */\n      add\n        /* \"#utility.yul\":9031:9069   */\n      mstore\n        /* \"#utility.yul\":9130:9134   */\n      0x20\n        /* \"#utility.yul\":9123:9125   */\n      0x1f\n        /* \"#utility.yul\":9119:9126   */\n      not\n        /* \"#utility.yul\":9114:9116   */\n      0x1f\n        /* \"#utility.yul\":9106:9112   */\n      dup4\n        /* \"#utility.yul\":9102:9117   */\n      add\n        /* \"#utility.yul\":9098:9127   */\n      and\n        /* \"#utility.yul\":9093:9096   */\n      dup6\n        /* \"#utility.yul\":9089:9128   */\n      add\n        /* \"#utility.yul\":9085:9135   */\n      add\n        /* \"#utility.yul\":9078:9135   */\n      swap2\n      pop\n      pop\n        /* \"#utility.yul\":8719:9141   */\n      swap3\n      swap2\n      pop\n      pop\n      jump\t// out\n        /* \"#utility.yul\":9146:10749   */\n    tag_184:\n        /* \"#utility.yul\":9326:9330   */\n      0x00\n        /* \"#utility.yul\":9355:9357   */\n      0x40\n      sub(shl(0x40, 0x01), 0x01)\n        /* \"#utility.yul\":9388:9394   */\n      dup6\n        /* \"#utility.yul\":9384:9415   */\n      and\n        /* \"#utility.yul\":9373:9382   */\n      dup4\n        /* \"#utility.yul\":9366:9416   */\n      mstore\n        /* \"#utility.yul\":9435:9437   */\n      0x20\n        /* \"#utility.yul\":9473:9475   */\n      0x40\n        /* \"#utility.yul\":9468:9470   */\n      dup2\n        /* \"#utility.yul\":9457:9466   */\n      dup6\n        /* \"#utility.yul\":9453:9471   */\n      add\n        /* \"#utility.yul\":9446:9476   */\n      mstore\n        /* \"#utility.yul\":9511:9517   */\n      dup5\n        /* \"#utility.yul\":9505:9518   */\n      mload\n        /* \"#utility.yul\":9554:9558   */\n      0xa0\n        /* \"#utility.yul\":9549:9551   */\n      0x40\n        /* \"#utility.yul\":9538:9547   */\n      dup7\n        /* \"#utility.yul\":9534:9552   */\n      add\n        /* \"#utility.yul\":9527:9559   */\n      mstore\n        /* \"#utility.yul\":9582:9633   */\n      tag_444\n        /* \"#utility.yul\":9628:9631   */\n      0xe0\n        /* \"#utility.yul\":9617:9626   */\n      dup7\n        /* \"#utility.yul\":9613:9632   */\n      add\n        /* \"#utility.yul\":9599:9611   */\n      dup3\n        /* \"#utility.yul\":9582:9633   */\n      tag_368\n      jump\t// in\n    tag_444:\n        /* \"#utility.yul\":9568:9633   */\n      swap1\n      pop\n        /* \"#utility.yul\":9682:9684   */\n      dup2\n        /* \"#utility.yul\":9674:9680   */\n      dup7\n        /* \"#utility.yul\":9670:9685   */\n      add\n        /* \"#utility.yul\":9664:9686   */\n      mload\n        /* \"#utility.yul\":9709:9711   */\n      0x3f\n        /* \"#utility.yul\":9705:9712   */\n      not\n        /* \"#utility.yul\":9776:9778   */\n      dup1\n        /* \"#utility.yul\":9764:9773   */\n      dup8\n        /* \"#utility.yul\":9756:9762   */\n      dup5\n        /* \"#utility.yul\":9752:9774   */\n      sub\n        /* \"#utility.yul\":9748:9779   */\n      add\n        /* \"#utility.yul\":9743:9745   */\n      0x60\n        /* \"#utility.yul\":9732:9741   */\n      dup9\n        /* \"#utility.yul\":9728:9746   */\n      add\n        /* \"#utility.yul\":9721:9780   */\n      mstore\n        /* \"#utility.yul\":9803:9843   */\n      tag_445\n        /* \"#utility.yul\":9836:9842   */\n      dup4\n        /* \"#utility.yul\":9820:9834   */\n      dup4\n        /* \"#utility.yul\":9803:9843   */\n      tag_368\n      jump\t// in\n    tag_445:\n        /* \"#utility.yul\":9892:9894   */\n      0x40\n        /* \"#utility.yul\":9880:9895   */\n      dup10\n      add\n        /* \"#utility.yul\":9874:9896   */\n      mload\n        /* \"#utility.yul\":9937:9959   */\n      dup9\n      dup3\n      sub\n        /* \"#utility.yul\":9933:9964   */\n      dup4\n      add\n        /* \"#utility.yul\":9927:9930   */\n      0x80\n        /* \"#utility.yul\":9912:9931   */\n      dup11\n      add\n        /* \"#utility.yul\":9905:9965   */\n      mstore\n        /* \"#utility.yul\":10014:10035   */\n      dup1\n      mload\n        /* \"#utility.yul\":10044:10066   */\n      dup1\n      dup4\n      mstore\n        /* \"#utility.yul\":10120:10143   */\n      swap1\n      dup7\n      add\n      swap5\n      pop\n        /* \"#utility.yul\":10161:10162   */\n      0x00\n      swap4\n      pop\n        /* \"#utility.yul\":10082:10097   */\n      swap1\n      dup6\n      add\n      swap1\n        /* \"#utility.yul\":10171:10451   */\n    tag_446:\n        /* \"#utility.yul\":10185:10191   */\n      dup1\n        /* \"#utility.yul\":10182:10183   */\n      dup5\n        /* \"#utility.yul\":10179:10192   */\n      lt\n        /* \"#utility.yul\":10171:10451   */\n      iszero\n      tag_448\n      jumpi\n        /* \"#utility.yul\":10244:10257   */\n      dup5\n      mload\n        /* \"#utility.yul\":10286:10295   */\n      dup1\n      mload\n      sub(shl(0xa0, 0x01), 0x01)\n        /* \"#utility.yul\":10282:10317   */\n      and\n        /* \"#utility.yul\":10270:10318   */\n      dup4\n      mstore\n        /* \"#utility.yul\":10358:10369   */\n      dup7\n      add\n        /* \"#utility.yul\":10352:10370   */\n      mload\n        /* \"#utility.yul\":10338:10350   */\n      dup7\n      dup4\n      add\n        /* \"#utility.yul\":10331:10371   */\n      mstore\n        /* \"#utility.yul\":10426:10441   */\n      swap4\n      dup6\n      add\n      swap4\n        /* \"#utility.yul\":10314:10315   */\n      0x01\n        /* \"#utility.yul\":10200:10209   */\n      swap4\n      swap1\n      swap4\n      add\n      swap3\n        /* \"#utility.yul\":10391:10403   */\n      swap1\n      dup7\n      add\n      swap1\n        /* \"#utility.yul\":10171:10451   */\n      jump(tag_446)\n    tag_448:\n      pop\n        /* \"#utility.yul\":10500:10502   */\n      0x60\n        /* \"#utility.yul\":10488:10503   */\n      dup10\n      add\n        /* \"#utility.yul\":10482:10504   */\n      mload\n      sub(shl(0xa0, 0x01), 0x01)\n        /* \"#utility.yul\":3813:3844   */\n      and\n        /* \"#utility.yul\":10563:10567   */\n      0xa0\n        /* \"#utility.yul\":10548:10568   */\n      dup10\n      add\n        /* \"#utility.yul\":3801:3845   */\n      mstore\n        /* \"#utility.yul\":10618:10621   */\n      0x80\n        /* \"#utility.yul\":10606:10622   */\n      dup10\n      add\n        /* \"#utility.yul\":10600:10623   */\n      mload\n        /* \"#utility.yul\":10664:10683   */\n      dup9\n      dup3\n      sub\n        /* \"#utility.yul\":10660:10688   */\n      dup4\n      add\n        /* \"#utility.yul\":10654:10657   */\n      0xc0\n        /* \"#utility.yul\":10639:10658   */\n      dup11\n      add\n        /* \"#utility.yul\":10632:10689   */\n      mstore\n        /* \"#utility.yul\":10600:10623   */\n      swap6\n      pop\n        /* \"#utility.yul\":10706:10743   */\n      tag_450\n        /* \"#utility.yul\":10668:10671   */\n      dup2\n        /* \"#utility.yul\":10600:10623   */\n      dup8\n        /* \"#utility.yul\":10706:10743   */\n      tag_368\n      jump\t// in\n    tag_450:\n        /* \"#utility.yul\":10698:10743   */\n      swap11\n        /* \"#utility.yul\":9146:10749   */\n      swap10\n      pop\n      pop\n      pop\n      pop\n      pop\n      pop\n      pop\n      pop\n      pop\n      pop\n      jump\t// out\n        /* \"#utility.yul\":10754:10938   */\n    tag_188:\n        /* \"#utility.yul\":10824:10830   */\n      0x00\n        /* \"#utility.yul\":10877:10879   */\n      0x20\n        /* \"#utility.yul\":10865:10874   */\n      dup3\n        /* \"#utility.yul\":10856:10863   */\n      dup5\n        /* \"#utility.yul\":10852:10875   */\n      sub\n        /* \"#utility.yul\":10848:10880   */\n      slt\n        /* \"#utility.yul\":10845:10897   */\n      iszero\n      tag_452\n      jumpi\n        /* \"#utility.yul\":10893:10894   */\n      0x00\n        /* \"#utility.yul\":10890:10891   */\n      dup1\n        /* \"#utility.yul\":10883:10895   */\n      revert\n        /* \"#utility.yul\":10845:10897   */\n    tag_452:\n      pop\n        /* \"#utility.yul\":10916:10932   */\n      mload\n      swap2\n        /* \"#utility.yul\":10754:10938   */\n      swap1\n      pop\n      jump\t// out\n        /* \"#utility.yul\":11779:12001   */\n    tag_204:\n        /* \"#utility.yul\":11844:11853   */\n      dup1\n      dup3\n      add\n        /* \"#utility.yul\":11865:11875   */\n      dup1\n      dup3\n      gt\n        /* \"#utility.yul\":11862:11995   */\n      iszero\n      tag_139\n      jumpi\n        /* \"#utility.yul\":11917:11927   */\n      0x4e487b71\n        /* \"#utility.yul\":11912:11915   */\n      0xe0\n        /* \"#utility.yul\":11908:11928   */\n      shl\n        /* \"#utility.yul\":11905:11906   */\n      0x00\n        /* \"#utility.yul\":11898:11929   */\n      mstore\n        /* \"#utility.yul\":11952:11956   */\n      0x11\n        /* \"#utility.yul\":11949:11950   */\n      0x04\n        /* \"#utility.yul\":11942:11957   */\n      mstore\n        /* \"#utility.yul\":11980:11984   */\n      0x24\n        /* \"#utility.yul\":11977:11978   */\n      0x00\n        /* \"#utility.yul\":11970:11985   */\n      revert\n        /* \"#utility.yul\":12006:13003   */\n    tag_369:\n        /* \"#utility.yul\":12074:12079   */\n      0x00\n        /* \"#utility.yul\":12127:12130   */\n      dup3\n        /* \"#utility.yul\":12120:12124   */\n      0x1f\n        /* \"#utility.yul\":12112:12118   */\n      dup4\n        /* \"#utility.yul\":12108:12125   */\n      add\n        /* \"#utility.yul\":12104:12131   */\n      slt\n        /* \"#utility.yul\":12094:12149   */\n      tag_458\n      jumpi\n        /* \"#utility.yul\":12145:12146   */\n      0x00\n        /* \"#utility.yul\":12142:12143   */\n      dup1\n        /* \"#utility.yul\":12135:12147   */\n      revert\n        /* \"#utility.yul\":12094:12149   */\n    tag_458:\n        /* \"#utility.yul\":12181:12187   */\n      dup2\n        /* \"#utility.yul\":12168:12188   */\n      calldataload\n        /* \"#utility.yul\":12207:12211   */\n      0x20\n      sub(shl(0x40, 0x01), 0x01)\n        /* \"#utility.yul\":12226:12228   */\n      dup3\n        /* \"#utility.yul\":12223:12249   */\n      gt\n        /* \"#utility.yul\":12220:12272   */\n      iszero\n      tag_460\n      jumpi\n        /* \"#utility.yul\":12252:12270   */\n      tag_460\n      tag_307\n      jump\t// in\n    tag_460:\n        /* \"#utility.yul\":12292:12328   */\n      tag_461\n        /* \"#utility.yul\":12324:12326   */\n      dup2\n        /* \"#utility.yul\":12319:12321   */\n      dup4\n        /* \"#utility.yul\":12316:12317   */\n      0x05\n        /* \"#utility.yul\":12312:12322   */\n      shl\n        /* \"#utility.yul\":12308:12327   */\n      add\n        /* \"#utility.yul\":12292:12328   */\n      tag_365\n      jump\t// in\n    tag_461:\n        /* \"#utility.yul\":12362:12377   */\n      dup3\n      dup2\n      mstore\n        /* \"#utility.yul\":12448:12449   */\n      0x06\n        /* \"#utility.yul\":12444:12454   */\n      swap3\n      swap1\n      swap3\n      shl\n        /* \"#utility.yul\":12432:12455   */\n      dup5\n      add\n        /* \"#utility.yul\":12428:12460   */\n      dup2\n      add\n      swap2\n        /* \"#utility.yul\":12393:12405   */\n      dup2\n      dup2\n      add\n      swap1\n        /* \"#utility.yul\":12472:12487   */\n      dup7\n      dup5\n      gt\n        /* \"#utility.yul\":12469:12504   */\n      iszero\n      tag_462\n      jumpi\n        /* \"#utility.yul\":12500:12501   */\n      0x00\n        /* \"#utility.yul\":12497:12498   */\n      dup1\n        /* \"#utility.yul\":12490:12502   */\n      revert\n        /* \"#utility.yul\":12469:12504   */\n    tag_462:\n        /* \"#utility.yul\":12536:12538   */\n      dup3\n        /* \"#utility.yul\":12528:12534   */\n      dup7\n        /* \"#utility.yul\":12524:12539   */\n      add\n        /* \"#utility.yul\":12548:12974   */\n    tag_463:\n        /* \"#utility.yul\":12564:12570   */\n      dup5\n        /* \"#utility.yul\":12559:12562   */\n      dup2\n        /* \"#utility.yul\":12556:12571   */\n      lt\n        /* \"#utility.yul\":12548:12974   */\n      iszero\n      tag_465\n      jumpi\n        /* \"#utility.yul\":12642:12646   */\n      0x40\n        /* \"#utility.yul\":12636:12639   */\n      dup2\n        /* \"#utility.yul\":12631:12634   */\n      dup10\n        /* \"#utility.yul\":12627:12640   */\n      sub\n        /* \"#utility.yul\":12623:12647   */\n      slt\n        /* \"#utility.yul\":12620:12664   */\n      iszero\n      tag_466\n      jumpi\n        /* \"#utility.yul\":12660:12661   */\n      0x00\n        /* \"#utility.yul\":12657:12658   */\n      dup1\n        /* \"#utility.yul\":12650:12662   */\n      revert\n        /* \"#utility.yul\":12620:12664   */\n    tag_466:\n        /* \"#utility.yul\":12690:12712   */\n      tag_467\n      tag_363\n      jump\t// in\n    tag_467:\n        /* \"#utility.yul\":12753:12756   */\n      dup2\n        /* \"#utility.yul\":12740:12757   */\n      calldataload\n        /* \"#utility.yul\":12770:12803   */\n      tag_468\n        /* \"#utility.yul\":12795:12802   */\n      dup2\n        /* \"#utility.yul\":12770:12803   */\n      tag_361\n      jump\t// in\n    tag_468:\n        /* \"#utility.yul\":12816:12838   */\n      dup2\n      mstore\n        /* \"#utility.yul\":12887:12899   */\n      dup2\n      dup6\n      add\n        /* \"#utility.yul\":12874:12900   */\n      calldataload\n        /* \"#utility.yul\":12858:12872   */\n      dup6\n      dup3\n      add\n        /* \"#utility.yul\":12851:12901   */\n      mstore\n        /* \"#utility.yul\":12914:12932   */\n      dup4\n      mstore\n        /* \"#utility.yul\":12952:12964   */\n      swap2\n      dup4\n      add\n      swap2\n        /* \"#utility.yul\":12590:12594   */\n      0x40\n        /* \"#utility.yul\":12581:12595   */\n      add\n        /* \"#utility.yul\":12548:12974   */\n      jump(tag_463)\n    tag_465:\n      pop\n        /* \"#utility.yul\":12992:12997   */\n      swap7\n        /* \"#utility.yul\":12006:13003   */\n      swap6\n      pop\n      pop\n      pop\n      pop\n      pop\n      pop\n      jump\t// out\n        /* \"#utility.yul\":13008:14017   */\n    tag_238:\n        /* \"#utility.yul\":13122:13131   */\n      0x00\n        /* \"#utility.yul\":13181:13185   */\n      0xa0\n        /* \"#utility.yul\":13173:13178   */\n      dup3\n        /* \"#utility.yul\":13157:13171   */\n      calldatasize\n        /* \"#utility.yul\":13153:13179   */\n      sub\n        /* \"#utility.yul\":13149:13186   */\n      slt\n        /* \"#utility.yul\":13146:13203   */\n      iszero\n      tag_470\n      jumpi\n        /* \"#utility.yul\":13199:13200   */\n      0x00\n        /* \"#utility.yul\":13196:13197   */\n      dup1\n        /* \"#utility.yul\":13189:13201   */\n      revert\n        /* \"#utility.yul\":13146:13203   */\n    tag_470:\n        /* \"#utility.yul\":13227:13249   */\n      tag_471\n      tag_364\n      jump\t// in\n    tag_471:\n        /* \"#utility.yul\":13287:13292   */\n      dup3\n        /* \"#utility.yul\":13274:13293   */\n      calldataload\n        /* \"#utility.yul\":13265:13272   */\n      dup2\n        /* \"#utility.yul\":13258:13294   */\n      mstore\n        /* \"#utility.yul\":13328:13361   */\n      tag_472\n        /* \"#utility.yul\":13357:13359   */\n      0x20\n        /* \"#utility.yul\":13350:13355   */\n      dup5\n        /* \"#utility.yul\":13346:13360   */\n      add\n        /* \"#utility.yul\":13328:13361   */\n      tag_362\n      jump\t// in\n    tag_472:\n        /* \"#utility.yul\":13323:13325   */\n      0x20\n        /* \"#utility.yul\":13314:13321   */\n      dup3\n        /* \"#utility.yul\":13310:13326   */\n      add\n        /* \"#utility.yul\":13303:13362   */\n      mstore\n        /* \"#utility.yul\":13409:13411   */\n      0x40\n        /* \"#utility.yul\":13402:13407   */\n      dup4\n        /* \"#utility.yul\":13398:13412   */\n      add\n        /* \"#utility.yul\":13385:13413   */\n      calldataload\n      sub(shl(0x40, 0x01), 0x01)\n        /* \"#utility.yul\":13473:13475   */\n      dup1\n        /* \"#utility.yul\":13465:13471   */\n      dup3\n        /* \"#utility.yul\":13462:13476   */\n      gt\n        /* \"#utility.yul\":13459:13493   */\n      iszero\n      tag_473\n      jumpi\n        /* \"#utility.yul\":13489:13490   */\n      0x00\n        /* \"#utility.yul\":13486:13487   */\n      dup1\n        /* \"#utility.yul\":13479:13491   */\n      revert\n        /* \"#utility.yul\":13459:13493   */\n    tag_473:\n        /* \"#utility.yul\":13527:13579   */\n      tag_474\n        /* \"#utility.yul\":13564:13578   */\n      calldatasize\n        /* \"#utility.yul\":13555:13561   */\n      dup4\n        /* \"#utility.yul\":13548:13553   */\n      dup8\n        /* \"#utility.yul\":13544:13562   */\n      add\n        /* \"#utility.yul\":13527:13579   */\n      tag_366\n      jump\t// in\n    tag_474:\n        /* \"#utility.yul\":13522:13524   */\n      0x40\n        /* \"#utility.yul\":13513:13520   */\n      dup5\n        /* \"#utility.yul\":13509:13525   */\n      add\n        /* \"#utility.yul\":13502:13580   */\n      mstore\n        /* \"#utility.yul\":13629:13631   */\n      0x60\n        /* \"#utility.yul\":13622:13627   */\n      dup6\n        /* \"#utility.yul\":13618:13632   */\n      add\n        /* \"#utility.yul\":13605:13633   */\n      calldataload\n        /* \"#utility.yul\":13589:13633   */\n      swap2\n      pop\n        /* \"#utility.yul\":13658:13660   */\n      dup1\n        /* \"#utility.yul\":13648:13656   */\n      dup3\n        /* \"#utility.yul\":13645:13661   */\n      gt\n        /* \"#utility.yul\":13642:13678   */\n      iszero\n      tag_475\n      jumpi\n        /* \"#utility.yul\":13674:13675   */\n      0x00\n        /* \"#utility.yul\":13671:13672   */\n      dup1\n        /* \"#utility.yul\":13664:13676   */\n      revert\n        /* \"#utility.yul\":13642:13678   */\n    tag_475:\n        /* \"#utility.yul\":13712:13766   */\n      tag_476\n        /* \"#utility.yul\":13751:13765   */\n      calldatasize\n        /* \"#utility.yul\":13740:13748   */\n      dup4\n        /* \"#utility.yul\":13733:13738   */\n      dup8\n        /* \"#utility.yul\":13729:13749   */\n      add\n        /* \"#utility.yul\":13712:13766   */\n      tag_366\n      jump\t// in\n    tag_476:\n        /* \"#utility.yul\":13707:13709   */\n      0x60\n        /* \"#utility.yul\":13698:13705   */\n      dup5\n        /* \"#utility.yul\":13694:13710   */\n      add\n        /* \"#utility.yul\":13687:13767   */\n      mstore\n        /* \"#utility.yul\":13816:13819   */\n      0x80\n        /* \"#utility.yul\":13809:13814   */\n      dup6\n        /* \"#utility.yul\":13805:13820   */\n      add\n        /* \"#utility.yul\":13792:13821   */\n      calldataload\n        /* \"#utility.yul\":13776:13821   */\n      swap2\n      pop\n        /* \"#utility.yul\":13846:13848   */\n      dup1\n        /* \"#utility.yul\":13836:13844   */\n      dup3\n        /* \"#utility.yul\":13833:13849   */\n      gt\n        /* \"#utility.yul\":13830:13866   */\n      iszero\n      tag_477\n      jumpi\n        /* \"#utility.yul\":13862:13863   */\n      0x00\n        /* \"#utility.yul\":13859:13860   */\n      dup1\n        /* \"#utility.yul\":13852:13864   */\n      revert\n        /* \"#utility.yul\":13830:13866   */\n    tag_477:\n      pop\n        /* \"#utility.yul\":13901:13981   */\n      tag_478\n        /* \"#utility.yul\":13966:13980   */\n      calldatasize\n        /* \"#utility.yul\":13955:13963   */\n      dup3\n        /* \"#utility.yul\":13948:13953   */\n      dup7\n        /* \"#utility.yul\":13944:13964   */\n      add\n        /* \"#utility.yul\":13901:13981   */\n      tag_369\n      jump\t// in\n    tag_478:\n        /* \"#utility.yul\":13895:13898   */\n      0x80\n        /* \"#utility.yul\":13882:13899   */\n      dup4\n      add\n        /* \"#utility.yul\":13875:13982   */\n      mstore\n      pop\n        /* \"#utility.yul\":13886:13893   */\n      swap3\n        /* \"#utility.yul\":13008:14017   */\n      swap2\n      pop\n      pop\n      jump\t// out\n        /* \"#utility.yul\":15397:15800   */\n    tag_324:\n        /* \"#utility.yul\":15599:15601   */\n      0x20\n        /* \"#utility.yul\":15581:15602   */\n      dup1\n      dup3\n      mstore\n        /* \"#utility.yul\":15638:15640   */\n      0x27\n        /* \"#utility.yul\":15618:15636   */\n      swap1\n      dup3\n      add\n        /* \"#utility.yul\":15611:15641   */\n      mstore\n        /* \"#utility.yul\":15677:15711   */\n      0x43726f7373436861696e466163696c697461746f723a20466565206f7574206f\n        /* \"#utility.yul\":15672:15674   */\n      0x40\n        /* \"#utility.yul\":15657:15675   */\n      dup3\n      add\n        /* \"#utility.yul\":15650:15712   */\n      mstore\n      shl(0xc8, 0x662072616e6765)\n        /* \"#utility.yul\":15743:15745   */\n      0x60\n        /* \"#utility.yul\":15728:15746   */\n      dup3\n      add\n        /* \"#utility.yul\":15721:15758   */\n      mstore\n        /* \"#utility.yul\":15790:15793   */\n      0x80\n        /* \"#utility.yul\":15775:15794   */\n      add\n      swap1\n        /* \"#utility.yul\":15397:15800   */\n      jump\t// out\n        /* \"#utility.yul\":17211:17925   */\n    tag_360:\n        /* \"#utility.yul\":17320:17326   */\n      0x00\n        /* \"#utility.yul\":17373:17375   */\n      0x60\n        /* \"#utility.yul\":17361:17370   */\n      dup3\n        /* \"#utility.yul\":17352:17359   */\n      dup5\n        /* \"#utility.yul\":17348:17371   */\n      sub\n        /* \"#utility.yul\":17344:17376   */\n      slt\n        /* \"#utility.yul\":17341:17393   */\n      iszero\n      tag_490\n      jumpi\n        /* \"#utility.yul\":17389:17390   */\n      0x00\n        /* \"#utility.yul\":17386:17387   */\n      dup1\n        /* \"#utility.yul\":17379:17391   */\n      revert\n        /* \"#utility.yul\":17341:17393   */\n    tag_490:\n        /* \"#utility.yul\":17422:17424   */\n      0x40\n        /* \"#utility.yul\":17416:17425   */\n      mload\n        /* \"#utility.yul\":17464:17466   */\n      0x60\n        /* \"#utility.yul\":17456:17462   */\n      dup2\n        /* \"#utility.yul\":17452:17467   */\n      add\n        /* \"#utility.yul\":17533:17539   */\n      dup2\n        /* \"#utility.yul\":17521:17531   */\n      dup2\n        /* \"#utility.yul\":17518:17540   */\n      lt\n      sub(shl(0x40, 0x01), 0x01)\n        /* \"#utility.yul\":17485:17495   */\n      dup3\n        /* \"#utility.yul\":17482:17516   */\n      gt\n        /* \"#utility.yul\":17479:17541   */\n      or\n        /* \"#utility.yul\":17476:17564   */\n      iszero\n      tag_492\n      jumpi\n        /* \"#utility.yul\":17544:17562   */\n      tag_492\n      tag_307\n      jump\t// in\n    tag_492:\n        /* \"#utility.yul\":17580:17582   */\n      0x40\n        /* \"#utility.yul\":17573:17595   */\n      mstore\n        /* \"#utility.yul\":17619:17635   */\n      dup3\n      mload\n        /* \"#utility.yul\":17604:17636   */\n      dup2\n      mstore\n        /* \"#utility.yul\":17679:17681   */\n      0x20\n        /* \"#utility.yul\":17664:17682   */\n      dup4\n      add\n        /* \"#utility.yul\":17658:17683   */\n      mload\n        /* \"#utility.yul\":17692:17723   */\n      tag_493\n        /* \"#utility.yul\":17658:17683   */\n      dup2\n        /* \"#utility.yul\":17692:17723   */\n      tag_361\n      jump\t// in\n    tag_493:\n        /* \"#utility.yul\":17751:17753   */\n      0x20\n        /* \"#utility.yul\":17739:17754   */\n      dup3\n      add\n        /* \"#utility.yul\":17732:17762   */\n      mstore\n        /* \"#utility.yul\":17807:17809   */\n      0x40\n        /* \"#utility.yul\":17792:17810   */\n      dup4\n      add\n        /* \"#utility.yul\":17786:17811   */\n      mload\n        /* \"#utility.yul\":17820:17853   */\n      tag_494\n        /* \"#utility.yul\":17786:17811   */\n      dup2\n        /* \"#utility.yul\":17820:17853   */\n      tag_361\n      jump\t// in\n    tag_494:\n        /* \"#utility.yul\":17881:17883   */\n      0x40\n        /* \"#utility.yul\":17869:17884   */\n      dup3\n      add\n        /* \"#utility.yul\":17862:17894   */\n      mstore\n        /* \"#utility.yul\":17873:17879   */\n      swap4\n        /* \"#utility.yul\":17211:17925   */\n      swap3\n      pop\n      pop\n      pop\n      jump\t// out\n\n    auxdata: 0xa264697066735822122040079978eb2a5dfe176616d303f3581f9fae8f34171caf6403fa28011d7db91964736f6c63430008160033\n}\n",
				"bytecode": {
					"linkReferences": {},
					"object": "60e060405234801562000010575f80fd5b506040516200230c3803806200230c83398101604081905262000033916200031e565b806001600160a01b03811662000063576040516335fdcccd60e21b81525f60048201526024015b60405180910390fd5b6001600160a01b031660805261271083118015906200008457506127108211155b620000e35760405162461bcd60e51b815260206004820152602860248201527f43726f7373436861696e466163696c697461746f723a2046656573206f7574206044820152676f662072616e676560c01b60648201526084016200005a565b6001600160a01b0380881660a052861660c05262000101856200012f565b6200010c836200017e565b620001178262000216565b6200012284620002a7565b505050505050506200039c565b5f80546001600160a01b038381166001600160a01b0319831681178455604051919092169283917f13f4413d8d93a259bd6c10f35095371f30ed50f81a73407e52e9f02000d5d16b9190a35050565b612710811115620001d05760405162461bcd60e51b815260206004820152602760248201525f80516020620022ec833981519152604482015266662072616e676560c81b60648201526084016200005a565b600180549082905560408051828152602081018490527f7864bf708cae822050e5f50960a0de31bd6fe7620a8f67a48582fb95f29c114a91015b60405180910390a15050565b612710811115620002685760405162461bcd60e51b815260206004820152602760248201525f80516020620022ec833981519152604482015266662072616e676560c81b60648201526084016200005a565b600280549082905560408051828152602081018490527f940334a9f5c76529ad9447ac490c2073b06d880209383a3d3e4b0ecab72a0d9991016200020a565b600380546001600160a01b038381166001600160a01b031983168117909355604080519190921680825260208201939093527f52818c14b633bbaafd64ff307400cefea0d830f2f9ee8e8ed1ed04a2baed191e91016200020a565b80516001600160a01b038116811462000319575f80fd5b919050565b5f805f805f805f60e0888a03121562000335575f80fd5b620003408862000302565b9650620003506020890162000302565b9550620003606040890162000302565b9450620003706060890162000302565b93506080880151925060a088015191506200038e60c0890162000302565b905092959891949750929550565b60805160a05160c051611eca620004225f395f818161042301528181610569015261089601525f818161035c01528181610492015281816109ca01528181610a7701528181610ae801528181610c5f0152818161100d0152818161108f0152818161136f0152818161154001526115ec01525f81816103270152610bae0152611eca5ff3fe60806040526004361061013c575f3560e01c80638577a6d5116100b3578063d09f33601161006d578063d09f336014610393578063dc49a07b146103a6578063de4c8817146103ba578063e28178cc146103d9578063e6bf9d82146103f5578063fa56927414610412575f80fd5b80638577a6d5146102c75780639a17d8c1146102e6578063a0922e15146102fa578063b0f479a114610319578063b1c660f71461034b578063bc063e1a1461037e575f80fd5b806342526e4e1161010457806342526e4e14610200578063788a19c7146102375780637a5caab31461025657806380f41e761461026a57806384017e521461028957806385572ffb146102a8575f80fd5b806301ffc9a7146101405780630d455222146101745780631fde40bb146101955780632e8d0354146101b457806338616810146101d3575b5f80fd5b34801561014b575f80fd5b5061015f61015a366004611736565b610445565b60405190151581526020015b60405180910390f35b34801561017f575f80fd5b5061019361018e366004611778565b61047b565b005b3480156101a0575f80fd5b506101936101af3660046117a6565b61064c565b3480156101bf575f80fd5b506101936101ce3660046117a6565b610682565b3480156101de575f80fd5b506101f26101ed3660046117dc565b6106b5565b60405190815260200161016b565b34801561020b575f80fd5b5061021f61021a366004611912565b610803565b6040516001600160a01b03909116815260200161016b565b348015610242575f80fd5b50610193610251366004611778565b61086c565b348015610261575f80fd5b506001546101f2565b348015610275575f80fd5b506101f261028436600461194b565b610b5a565b348015610294575f80fd5b506101936102a336600461194b565b610b70565b3480156102b3575f80fd5b506101936102c2366004611962565b610ba3565b3480156102d2575f80fd5b506101936102e136600461194b565b610bff565b3480156102f1575f80fd5b506002546101f2565b348015610305575f80fd5b506101f261031436600461194b565b610c32565b348015610324575f80fd5b507f000000000000000000000000000000000000000000000000000000000000000061021f565b348015610356575f80fd5b5061021f7f000000000000000000000000000000000000000000000000000000000000000081565b348015610389575f80fd5b506101f261271081565b6101f26103a13660046117dc565b610c48565b3480156103b1575f80fd5b50610193610fb7565b3480156103c5575f80fd5b506101936103d4366004611998565b6110ec565b3480156103e4575f80fd5b505f546001600160a01b031661021f565b348015610400575f80fd5b506003546001600160a01b031661021f565b34801561041d575f80fd5b5061021f7f000000000000000000000000000000000000000000000000000000000000000081565b5f6001600160e01b031982166385572ffb60e01b148061047557506001600160e01b031982166301ffc9a760e01b145b92915050565b6040516323b872dd60e01b81526001600160a01b037f000000000000000000000000000000000000000000000000000000000000000016906323b872dd906104cb903390309087906004016119c2565b6020604051808303815f875af11580156104e7573d5f803e3d5ffd5b505050506040513d601f19601f8201168201806040525081019061050b91906119e6565b6105305760405162461bcd60e51b815260040161052790611a05565b60405180910390fd5b5f61054064e8d4a5100084611a62565b60405163a9059cbb60e01b81526001600160a01b038481166004830152602482018390529192507f00000000000000000000000000000000000000000000000000000000000000009091169063a9059cbb906044016020604051808303815f875af11580156105b1573d5f803e3d5ffd5b505050506040513d601f19601f820116820180604052508101906105d591906119e6565b6106475760405162461bcd60e51b815260206004820152603960248201527f43726f7373436861696e466163696c697461746f723a204661696c656420746f60448201527f207472616e73666572205553444320746f2061646472657373000000000000006064820152608401610527565b505050565b6003546001600160a01b031633146106765760405162461bcd60e51b815260040161052790611a81565b61067f8161114e565b50565b6003546001600160a01b031633146106ac5760405162461bcd60e51b815260040161052790611a81565b61067f8161119d565b6001600160401b0383165f908152600560205260408120546001600160a01b0316806106f35760405162461bcd60e51b815260040161052790611ad6565b604080516060810182528581526001600160a01b038516602082015233918101919091525f6107238383836111ff565b90505f306001600160a01b031663b0f479a16040518163ffffffff1660e01b8152600401602060405180830381865afa158015610762573d5f803e3d5ffd5b505050506040513d601f19601f820116820180604052508101906107869190611b2b565b90505f816001600160a01b03166320487ded8a856040518363ffffffff1660e01b81526004016107b7929190611b89565b602060405180830381865afa1580156107d2573d5f803e3d5ffd5b505050506040513d601f19601f820116820180604052508101906107f69190611c63565b9998505050505050505050565b5f6014825110156108645760405162461bcd60e51b815260206004820152602560248201527f44617461206c656e677468206d757374206265206174206c6561737420323020604482015264627974657360d81b6064820152608401610527565b506014015190565b5f61087c64e8d4a5100084611a62565b6040516323b872dd60e01b81529091506001600160a01b037f000000000000000000000000000000000000000000000000000000000000000016906323b872dd906108cf903390309086906004016119c2565b6020604051808303815f875af11580156108eb573d5f803e3d5ffd5b505050506040513d601f19601f8201168201806040525081019061090f91906119e6565b6109815760405162461bcd60e51b815260206004820152603d60248201527f43726f7373436861696e466163696c697461746f723a204661696c656420746f60448201527f207472616e73666572205553444320746f20666163696c697461746f720000006064820152608401610527565b5f61098b84610b5a565b90506109978185611c7a565b61099f611358565b10610a515760405163a9059cbb60e01b81526001600160a01b038481166004830152602482018690527f0000000000000000000000000000000000000000000000000000000000000000169063a9059cbb906044016020604051808303815f875af1158015610a10573d5f803e3d5ffd5b505050506040513d601f19601f82011682018060405250810190610a3491906119e6565b508060045f828254610a469190611c7a565b909155505050505050565b6040516340c10f1960e01b81526001600160a01b038481166004830152602482018690527f000000000000000000000000000000000000000000000000000000000000000016906340c10f19906044015f604051808303815f87803b158015610ab8575f80fd5b505af1158015610aca573d5f803e3d5ffd5b50506040516340c10f1960e01b8152306004820152602481018490527f00000000000000000000000000000000000000000000000000000000000000006001600160a01b031692506340c10f1991506044015f604051808303815f87803b158015610b33575f80fd5b505af1158015610b45573d5f803e3d5ffd5b505050508060045f828254610a469190611c7a565b5f610475600154836113e590919063ffffffff16565b6003546001600160a01b03163314610b9a5760405162461bcd60e51b815260040161052790611a81565b61067f81611409565b336001600160a01b037f00000000000000000000000000000000000000000000000000000000000000001614610bee576040516335fdcccd60e21b8152336004820152602401610527565b61067f610bfa82611d40565b611469565b6003546001600160a01b03163314610c295760405162461bcd60e51b815260040161052790611a81565b61067f816116a8565b5f610475600254836113e590919063ffffffff16565b5f80610c5384610c32565b90506001600160a01b037f0000000000000000000000000000000000000000000000000000000000000000166323b872dd3330610c908589611c7a565b6040518463ffffffff1660e01b8152600401610cae939291906119c2565b6020604051808303815f875af1158015610cca573d5f803e3d5ffd5b505050506040513d601f19601f82011682018060405250810190610cee91906119e6565b610d0a5760405162461bcd60e51b815260040161052790611a05565b8060045f828254610d1b9190611c7a565b90915550506001600160401b0385165f908152600560205260409020546001600160a01b031680610d5e5760405162461bcd60e51b815260040161052790611ad6565b604080516060810182528681526001600160a01b038616602082015233918101919091525f610d8e8383836111ff565b90505f306001600160a01b031663b0f479a16040518163ffffffff1660e01b8152600401602060405180830381865afa158015610dcd573d5f803e3d5ffd5b505050506040513d601f19601f82011682018060405250810190610df19190611b2b565b90505f816001600160a01b03166320487ded8b856040518363ffffffff1660e01b8152600401610e22929190611b89565b602060405180830381865afa158015610e3d573d5f803e3d5ffd5b505050506040513d601f19601f82011682018060405250810190610e619190611c63565b905034811115610ed95760405162461bcd60e51b815260206004820152603860248201527f43726f7373436861696e466163696c697461746f723a204e6f7420656e6f756760448201527f682062616c616e636520746f20636f76657220666565732e00000000000000006064820152608401610527565b6040516396f4e9f960e01b81526001600160a01b038316906396f4e9f9908390610f09908e908890600401611b89565b60206040518083038185885af1158015610f25573d5f803e3d5ffd5b50505050506040513d601f19601f82011682018060405250810190610f4a9190611c63565b604080516001600160a01b038b168152602081018c90525f818301526060810184905290519198506001600160401b038c169189917feea8a479f07983d1364c4330c9bf3442a1cd421b79b16909bcc1867188ea676b919081900360800190a35050505050509392505050565b6003546001600160a01b03163314610fe15760405162461bcd60e51b815260040161052790611a81565b5f546004805460405163a9059cbb60e01b81526001600160a01b039384169281019290925260248201527f00000000000000000000000000000000000000000000000000000000000000009091169063a9059cbb906044016020604051808303815f875af1158015611055573d5f803e3d5ffd5b505050506040513d601f19601f8201168201806040525081019061107991906119e6565b505f600481905580546040516001600160a01b037f00000000000000000000000000000000000000000000000000000000000000008116939216917fb29fcda740927812f5a71075b62e132bead3769a455319c29b9a1cc461a65475916110e291815260200190565b60405180910390a3565b6003546001600160a01b031633146111165760405162461bcd60e51b815260040161052790611a81565b6001600160401b03919091165f90815260056020526040902080546001600160a01b0319166001600160a01b03909216919091179055565b5f80546001600160a01b038381166001600160a01b0319831681178455604051919092169283917f13f4413d8d93a259bd6c10f35095371f30ed50f81a73407e52e9f02000d5d16b9190a35050565b600380546001600160a01b038381166001600160a01b031983168117909355604080519190921680825260208201939093527f52818c14b633bbaafd64ff307400cefea0d830f2f9ee8e8ed1ed04a2baed191e91015b60405180910390a15050565b6112396040518060a001604052806060815260200160608152602001606081526020015f6001600160a01b03168152602001606081525090565b604080518451602080830191909152808601516001600160a01b039081168385015286840151811660608085019190915284518085039091018152610120840185529088166101408085019190915284518085039091018152610160840185526080840190815260a0840182905284515f8082529381019095529093909260c001916112e6565b604080518082019091525f80825260208201528152602001906001900390816112c05790505b508152602001846001600160a01b0316815260200161134d604051806020016040528062030d4081525060408051915160248084019190915281518084039091018152604490920190526020810180516001600160e01b03166397a657c960e01b17905290565b905295945050505050565b6040516370a0823160e01b81523060048201525f907f00000000000000000000000000000000000000000000000000000000000000006001600160a01b0316906370a0823190602401602060405180830381865afa1580156113bc573d5f803e3d5ffd5b505050506040513d601f19601f820116820180604052508101906113e09190611c63565b905090565b5f811561138819839004841115176113fb575f80fd5b506127109102611388010490565b61271081111561142b5760405162461bcd60e51b815260040161052790611de7565b600180549082905560408051828152602081018490527f7864bf708cae822050e5f50960a0de31bd6fe7620a8f67a48582fb95f29c114a91016111f3565b6114768160400151610803565b6020808301516001600160401b03165f908152600590915260409020546001600160a01b039081169116146115015760405162461bcd60e51b815260206004820152602b60248201527f43726f7373436861696e466163696c697461746f723a2053656e646572206e6f60448201526a3a1030b8383937bb32b21760a91b6064820152608401610527565b5f61150f8260600151611708565b805190915061151c611358565b11156115cd576020810151815160405163a9059cbb60e01b81526001600160a01b037f0000000000000000000000000000000000000000000000000000000000000000169263a9059cbb92611587926004016001600160a01b03929092168252602082015260400190565b6020604051808303815f875af11580156115a3573d5f803e3d5ffd5b505050506040513d601f19601f820116820180604052508101906115c791906119e6565b5061164c565b80516040516340c10f1960e01b815230600482015260248101919091527f00000000000000000000000000000000000000000000000000000000000000006001600160a01b0316906340c10f19906044015f604051808303815f87803b158015611635575f80fd5b505af1158015611647573d5f803e3d5ffd5b505050505b81602001516001600160401b0316825f01517f4f9fc06f5f4dc447952ea2eb4a0cda7a5736686f29e607951e0ab1b895f97f3783602001518460400151855f015160405161169c939291906119c2565b60405180910390a35050565b6127108111156116ca5760405162461bcd60e51b815260040161052790611de7565b600280549082905560408051828152602081018490527f940334a9f5c76529ad9447ac490c2073b06d880209383a3d3e4b0ecab72a0d9991016111f3565b604080516060810182525f808252602080830182905292820152825190916104759184018101908401611e2e565b5f60208284031215611746575f80fd5b81356001600160e01b03198116811461175d575f80fd5b9392505050565b6001600160a01b038116811461067f575f80fd5b5f8060408385031215611789575f80fd5b82359150602083013561179b81611764565b809150509250929050565b5f602082840312156117b6575f80fd5b813561175d81611764565b80356001600160401b03811681146117d7575f80fd5b919050565b5f805f606084860312156117ee575f80fd5b6117f7846117c1565b925060208401359150604084013561180e81611764565b809150509250925092565b634e487b7160e01b5f52604160045260245ffd5b604080519081016001600160401b038111828210171561184f5761184f611819565b60405290565b60405160a081016001600160401b038111828210171561184f5761184f611819565b604051601f8201601f191681016001600160401b038111828210171561189f5761189f611819565b604052919050565b5f82601f8301126118b6575f80fd5b81356001600160401b038111156118cf576118cf611819565b6118e2601f8201601f1916602001611877565b8181528460208386010111156118f6575f80fd5b816020850160208301375f918101602001919091529392505050565b5f60208284031215611922575f80fd5b81356001600160401b03811115611937575f80fd5b611943848285016118a7565b949350505050565b5f6020828403121561195b575f80fd5b5035919050565b5f60208284031215611972575f80fd5b81356001600160401b03811115611987575f80fd5b820160a0818503121561175d575f80fd5b5f80604083850312156119a9575f80fd5b6119b2836117c1565b9150602083013561179b81611764565b6001600160a01b039384168152919092166020820152604081019190915260600190565b5f602082840312156119f6575f80fd5b8151801515811461175d575f80fd5b6020808252603c908201527f43726f7373436861696e466163696c697461746f723a204661696c656420746f60408201527f207472616e736665722047484f20746f20666163696c697461746f7200000000606082015260800190565b5f82611a7c57634e487b7160e01b5f52601260045260245ffd5b500490565b60208082526035908201527f43726f7373436861696e466163696c697461746f723a204f6e6c7920416176656040820152741023b7bb32b93730b731b29031b0b71031b0b6361760591b606082015260800190565b60208082526035908201527f43726f7373436861696e466163696c697461746f723a2054617267657420636860408201527430b4b71034b9903737ba1039bab83837b93a32b21760591b606082015260800190565b5f60208284031215611b3b575f80fd5b815161175d81611764565b5f81518084525f5b81811015611b6a57602081850181015186830182015201611b4e565b505f602082860101526020601f19601f83011685010191505092915050565b5f60406001600160401b03851683526020604081850152845160a06040860152611bb660e0860182611b46565b905081860151603f1980878403016060880152611bd38383611b46565b6040890151888203830160808a0152805180835290860194505f9350908501905b80841015611c2657845180516001600160a01b0316835286015186830152938501936001939093019290860190611bf4565b5060608901516001600160a01b031660a08901526080890151888203830160c08a01529550611c558187611b46565b9a9950505050505050505050565b5f60208284031215611c73575f80fd5b5051919050565b8082018082111561047557634e487b7160e01b5f52601160045260245ffd5b5f82601f830112611ca8575f80fd5b813560206001600160401b03821115611cc357611cc3611819565b611cd1818360051b01611877565b82815260069290921b84018101918181019086841115611cef575f80fd5b8286015b84811015611d355760408189031215611d0a575f80fd5b611d1261182d565b8135611d1d81611764565b81528185013585820152835291830191604001611cf3565b509695505050505050565b5f60a08236031215611d50575f80fd5b611d58611855565b82358152611d68602084016117c1565b602082015260408301356001600160401b0380821115611d86575f80fd5b611d92368387016118a7565b60408401526060850135915080821115611daa575f80fd5b611db6368387016118a7565b60608401526080850135915080821115611dce575f80fd5b50611ddb36828601611c99565b60808301525092915050565b60208082526027908201527f43726f7373436861696e466163696c697461746f723a20466565206f7574206f604082015266662072616e676560c81b606082015260800190565b5f60608284031215611e3e575f80fd5b604051606081018181106001600160401b0382111715611e6057611e60611819565b604052825181526020830151611e7581611764565b60208201526040830151611e8881611764565b6040820152939250505056fea264697066735822122040079978eb2a5dfe176616d303f3581f9fae8f34171caf6403fa28011d7db91964736f6c6343000816003343726f7373436861696e466163696c697461746f723a20466565206f7574206f",
					"opcodes": "PUSH1 0xE0 PUSH1 0x40 MSTORE CALLVALUE DUP1 ISZERO PUSH3 0x10 JUMPI PUSH0 DUP1 REVERT JUMPDEST POP PUSH1 0x40 MLOAD PUSH3 0x230C CODESIZE SUB DUP1 PUSH3 0x230C DUP4 CODECOPY DUP2 ADD PUSH1 0x40 DUP2 SWAP1 MSTORE PUSH3 0x33 SWAP2 PUSH3 0x31E JUMP JUMPDEST DUP1 PUSH1 0x1 PUSH1 0x1 PUSH1 0xA0 SHL SUB DUP2 AND PUSH3 0x63 JUMPI PUSH1 0x40 MLOAD PUSH4 0x35FDCCCD PUSH1 0xE2 SHL DUP2 MSTORE PUSH0 PUSH1 0x4 DUP3 ADD MSTORE PUSH1 0x24 ADD JUMPDEST PUSH1 0x40 MLOAD DUP1 SWAP2 SUB SWAP1 REVERT JUMPDEST PUSH1 0x1 PUSH1 0x1 PUSH1 0xA0 SHL SUB AND PUSH1 0x80 MSTORE PUSH2 0x2710 DUP4 GT DUP1 ISZERO SWAP1 PUSH3 0x84 JUMPI POP PUSH2 0x2710 DUP3 GT ISZERO JUMPDEST PUSH3 0xE3 JUMPI PUSH1 0x40 MLOAD PUSH3 0x461BCD PUSH1 0xE5 SHL DUP2 MSTORE PUSH1 0x20 PUSH1 0x4 DUP3 ADD MSTORE PUSH1 0x28 PUSH1 0x24 DUP3 ADD MSTORE PUSH32 0x43726F7373436861696E466163696C697461746F723A2046656573206F757420 PUSH1 0x44 DUP3 ADD MSTORE PUSH8 0x6F662072616E6765 PUSH1 0xC0 SHL PUSH1 0x64 DUP3 ADD MSTORE PUSH1 0x84 ADD PUSH3 0x5A JUMP JUMPDEST PUSH1 0x1 PUSH1 0x1 PUSH1 0xA0 SHL SUB DUP1 DUP9 AND PUSH1 0xA0 MSTORE DUP7 AND PUSH1 0xC0 MSTORE PUSH3 0x101 DUP6 PUSH3 0x12F JUMP JUMPDEST PUSH3 0x10C DUP4 PUSH3 0x17E JUMP JUMPDEST PUSH3 0x117 DUP3 PUSH3 0x216 JUMP JUMPDEST PUSH3 0x122 DUP5 PUSH3 0x2A7 JUMP JUMPDEST POP POP POP POP POP POP POP PUSH3 0x39C JUMP JUMPDEST PUSH0 DUP1 SLOAD PUSH1 0x1 PUSH1 0x1 PUSH1 0xA0 SHL SUB DUP4 DUP2 AND PUSH1 0x1 PUSH1 0x1 PUSH1 0xA0 SHL SUB NOT DUP4 AND DUP2 OR DUP5 SSTORE PUSH1 0x40 MLOAD SWAP2 SWAP1 SWAP3 AND SWAP3 DUP4 SWAP2 PUSH32 0x13F4413D8D93A259BD6C10F35095371F30ED50F81A73407E52E9F02000D5D16B SWAP2 SWAP1 LOG3 POP POP JUMP JUMPDEST PUSH2 0x2710 DUP2 GT ISZERO PUSH3 0x1D0 JUMPI PUSH1 0x40 MLOAD PUSH3 0x461BCD PUSH1 0xE5 SHL DUP2 MSTORE PUSH1 0x20 PUSH1 0x4 DUP3 ADD MSTORE PUSH1 0x27 PUSH1 0x24 DUP3 ADD MSTORE PUSH0 DUP1 MLOAD PUSH1 0x20 PUSH3 0x22EC DUP4 CODECOPY DUP2 MLOAD SWAP2 MSTORE PUSH1 0x44 DUP3 ADD MSTORE PUSH7 0x662072616E6765 PUSH1 0xC8 SHL PUSH1 0x64 DUP3 ADD MSTORE PUSH1 0x84 ADD PUSH3 0x5A JUMP JUMPDEST PUSH1 0x1 DUP1 SLOAD SWAP1 DUP3 SWAP1 SSTORE PUSH1 0x40 DUP1 MLOAD DUP3 DUP2 MSTORE PUSH1 0x20 DUP2 ADD DUP5 SWAP1 MSTORE PUSH32 0x7864BF708CAE822050E5F50960A0DE31BD6FE7620A8F67A48582FB95F29C114A SWAP2 ADD JUMPDEST PUSH1 0x40 MLOAD DUP1 SWAP2 SUB SWAP1 LOG1 POP POP JUMP JUMPDEST PUSH2 0x2710 DUP2 GT ISZERO PUSH3 0x268 JUMPI PUSH1 0x40 MLOAD PUSH3 0x461BCD PUSH1 0xE5 SHL DUP2 MSTORE PUSH1 0x20 PUSH1 0x4 DUP3 ADD MSTORE PUSH1 0x27 PUSH1 0x24 DUP3 ADD MSTORE PUSH0 DUP1 MLOAD PUSH1 0x20 PUSH3 0x22EC DUP4 CODECOPY DUP2 MLOAD SWAP2 MSTORE PUSH1 0x44 DUP3 ADD MSTORE PUSH7 0x662072616E6765 PUSH1 0xC8 SHL PUSH1 0x64 DUP3 ADD MSTORE PUSH1 0x84 ADD PUSH3 0x5A JUMP JUMPDEST PUSH1 0x2 DUP1 SLOAD SWAP1 DUP3 SWAP1 SSTORE PUSH1 0x40 DUP1 MLOAD DUP3 DUP2 MSTORE PUSH1 0x20 DUP2 ADD DUP5 SWAP1 MSTORE PUSH32 0x940334A9F5C76529AD9447AC490C2073B06D880209383A3D3E4B0ECAB72A0D99 SWAP2 ADD PUSH3 0x20A JUMP JUMPDEST PUSH1 0x3 DUP1 SLOAD PUSH1 0x1 PUSH1 0x1 PUSH1 0xA0 SHL SUB DUP4 DUP2 AND PUSH1 0x1 PUSH1 0x1 PUSH1 0xA0 SHL SUB NOT DUP4 AND DUP2 OR SWAP1 SWAP4 SSTORE PUSH1 0x40 DUP1 MLOAD SWAP2 SWAP1 SWAP3 AND DUP1 DUP3 MSTORE PUSH1 0x20 DUP3 ADD SWAP4 SWAP1 SWAP4 MSTORE PUSH32 0x52818C14B633BBAAFD64FF307400CEFEA0D830F2F9EE8E8ED1ED04A2BAED191E SWAP2 ADD PUSH3 0x20A JUMP JUMPDEST DUP1 MLOAD PUSH1 0x1 PUSH1 0x1 PUSH1 0xA0 SHL SUB DUP2 AND DUP2 EQ PUSH3 0x319 JUMPI PUSH0 DUP1 REVERT JUMPDEST SWAP2 SWAP1 POP JUMP JUMPDEST PUSH0 DUP1 PUSH0 DUP1 PUSH0 DUP1 PUSH0 PUSH1 0xE0 DUP9 DUP11 SUB SLT ISZERO PUSH3 0x335 JUMPI PUSH0 DUP1 REVERT JUMPDEST PUSH3 0x340 DUP9 PUSH3 0x302 JUMP JUMPDEST SWAP7 POP PUSH3 0x350 PUSH1 0x20 DUP10 ADD PUSH3 0x302 JUMP JUMPDEST SWAP6 POP PUSH3 0x360 PUSH1 0x40 DUP10 ADD PUSH3 0x302 JUMP JUMPDEST SWAP5 POP PUSH3 0x370 PUSH1 0x60 DUP10 ADD PUSH3 0x302 JUMP JUMPDEST SWAP4 POP PUSH1 0x80 DUP9 ADD MLOAD SWAP3 POP PUSH1 0xA0 DUP9 ADD MLOAD SWAP2 POP PUSH3 0x38E PUSH1 0xC0 DUP10 ADD PUSH3 0x302 JUMP JUMPDEST SWAP1 POP SWAP3 SWAP6 SWAP9 SWAP2 SWAP5 SWAP8 POP SWAP3 SWAP6 POP JUMP JUMPDEST PUSH1 0x80 MLOAD PUSH1 0xA0 MLOAD PUSH1 0xC0 MLOAD PUSH2 0x1ECA PUSH3 0x422 PUSH0 CODECOPY PUSH0 DUP2 DUP2 PUSH2 0x423 ADD MSTORE DUP2 DUP2 PUSH2 0x569 ADD MSTORE PUSH2 0x896 ADD MSTORE PUSH0 DUP2 DUP2 PUSH2 0x35C ADD MSTORE DUP2 DUP2 PUSH2 0x492 ADD MSTORE DUP2 DUP2 PUSH2 0x9CA ADD MSTORE DUP2 DUP2 PUSH2 0xA77 ADD MSTORE DUP2 DUP2 PUSH2 0xAE8 ADD MSTORE DUP2 DUP2 PUSH2 0xC5F ADD MSTORE DUP2 DUP2 PUSH2 0x100D ADD MSTORE DUP2 DUP2 PUSH2 0x108F ADD MSTORE DUP2 DUP2 PUSH2 0x136F ADD MSTORE DUP2 DUP2 PUSH2 0x1540 ADD MSTORE PUSH2 0x15EC ADD MSTORE PUSH0 DUP2 DUP2 PUSH2 0x327 ADD MSTORE PUSH2 0xBAE ADD MSTORE PUSH2 0x1ECA PUSH0 RETURN INVALID PUSH1 0x80 PUSH1 0x40 MSTORE PUSH1 0x4 CALLDATASIZE LT PUSH2 0x13C JUMPI PUSH0 CALLDATALOAD PUSH1 0xE0 SHR DUP1 PUSH4 0x8577A6D5 GT PUSH2 0xB3 JUMPI DUP1 PUSH4 0xD09F3360 GT PUSH2 0x6D JUMPI DUP1 PUSH4 0xD09F3360 EQ PUSH2 0x393 JUMPI DUP1 PUSH4 0xDC49A07B EQ PUSH2 0x3A6 JUMPI DUP1 PUSH4 0xDE4C8817 EQ PUSH2 0x3BA JUMPI DUP1 PUSH4 0xE28178CC EQ PUSH2 0x3D9 JUMPI DUP1 PUSH4 0xE6BF9D82 EQ PUSH2 0x3F5 JUMPI DUP1 PUSH4 0xFA569274 EQ PUSH2 0x412 JUMPI PUSH0 DUP1 REVERT JUMPDEST DUP1 PUSH4 0x8577A6D5 EQ PUSH2 0x2C7 JUMPI DUP1 PUSH4 0x9A17D8C1 EQ PUSH2 0x2E6 JUMPI DUP1 PUSH4 0xA0922E15 EQ PUSH2 0x2FA JUMPI DUP1 PUSH4 0xB0F479A1 EQ PUSH2 0x319 JUMPI DUP1 PUSH4 0xB1C660F7 EQ PUSH2 0x34B JUMPI DUP1 PUSH4 0xBC063E1A EQ PUSH2 0x37E JUMPI PUSH0 DUP1 REVERT JUMPDEST DUP1 PUSH4 0x42526E4E GT PUSH2 0x104 JUMPI DUP1 PUSH4 0x42526E4E EQ PUSH2 0x200 JUMPI DUP1 PUSH4 0x788A19C7 EQ PUSH2 0x237 JUMPI DUP1 PUSH4 0x7A5CAAB3 EQ PUSH2 0x256 JUMPI DUP1 PUSH4 0x80F41E76 EQ PUSH2 0x26A JUMPI DUP1 PUSH4 0x84017E52 EQ PUSH2 0x289 JUMPI DUP1 PUSH4 0x85572FFB EQ PUSH2 0x2A8 JUMPI PUSH0 DUP1 REVERT JUMPDEST DUP1 PUSH4 0x1FFC9A7 EQ PUSH2 0x140 JUMPI DUP1 PUSH4 0xD455222 EQ PUSH2 0x174 JUMPI DUP1 PUSH4 0x1FDE40BB EQ PUSH2 0x195 JUMPI DUP1 PUSH4 0x2E8D0354 EQ PUSH2 0x1B4 JUMPI DUP1 PUSH4 0x38616810 EQ PUSH2 0x1D3 JUMPI JUMPDEST PUSH0 DUP1 REVERT JUMPDEST CALLVALUE DUP1 ISZERO PUSH2 0x14B JUMPI PUSH0 DUP1 REVERT JUMPDEST POP PUSH2 0x15F PUSH2 0x15A CALLDATASIZE PUSH1 0x4 PUSH2 0x1736 JUMP JUMPDEST PUSH2 0x445 JUMP JUMPDEST PUSH1 0x40 MLOAD SWAP1 ISZERO ISZERO DUP2 MSTORE PUSH1 0x20 ADD JUMPDEST PUSH1 0x40 MLOAD DUP1 SWAP2 SUB SWAP1 RETURN JUMPDEST CALLVALUE DUP1 ISZERO PUSH2 0x17F JUMPI PUSH0 DUP1 REVERT JUMPDEST POP PUSH2 0x193 PUSH2 0x18E CALLDATASIZE PUSH1 0x4 PUSH2 0x1778 JUMP JUMPDEST PUSH2 0x47B JUMP JUMPDEST STOP JUMPDEST CALLVALUE DUP1 ISZERO PUSH2 0x1A0 JUMPI PUSH0 DUP1 REVERT JUMPDEST POP PUSH2 0x193 PUSH2 0x1AF CALLDATASIZE PUSH1 0x4 PUSH2 0x17A6 JUMP JUMPDEST PUSH2 0x64C JUMP JUMPDEST CALLVALUE DUP1 ISZERO PUSH2 0x1BF JUMPI PUSH0 DUP1 REVERT JUMPDEST POP PUSH2 0x193 PUSH2 0x1CE CALLDATASIZE PUSH1 0x4 PUSH2 0x17A6 JUMP JUMPDEST PUSH2 0x682 JUMP JUMPDEST CALLVALUE DUP1 ISZERO PUSH2 0x1DE JUMPI PUSH0 DUP1 REVERT JUMPDEST POP PUSH2 0x1F2 PUSH2 0x1ED CALLDATASIZE PUSH1 0x4 PUSH2 0x17DC JUMP JUMPDEST PUSH2 0x6B5 JUMP JUMPDEST PUSH1 0x40 MLOAD SWAP1 DUP2 MSTORE PUSH1 0x20 ADD PUSH2 0x16B JUMP JUMPDEST CALLVALUE DUP1 ISZERO PUSH2 0x20B JUMPI PUSH0 DUP1 REVERT JUMPDEST POP PUSH2 0x21F PUSH2 0x21A CALLDATASIZE PUSH1 0x4 PUSH2 0x1912 JUMP JUMPDEST PUSH2 0x803 JUMP JUMPDEST PUSH1 0x40 MLOAD PUSH1 0x1 PUSH1 0x1 PUSH1 0xA0 SHL SUB SWAP1 SWAP2 AND DUP2 MSTORE PUSH1 0x20 ADD PUSH2 0x16B JUMP JUMPDEST CALLVALUE DUP1 ISZERO PUSH2 0x242 JUMPI PUSH0 DUP1 REVERT JUMPDEST POP PUSH2 0x193 PUSH2 0x251 CALLDATASIZE PUSH1 0x4 PUSH2 0x1778 JUMP JUMPDEST PUSH2 0x86C JUMP JUMPDEST CALLVALUE DUP1 ISZERO PUSH2 0x261 JUMPI PUSH0 DUP1 REVERT JUMPDEST POP PUSH1 0x1 SLOAD PUSH2 0x1F2 JUMP JUMPDEST CALLVALUE DUP1 ISZERO PUSH2 0x275 JUMPI PUSH0 DUP1 REVERT JUMPDEST POP PUSH2 0x1F2 PUSH2 0x284 CALLDATASIZE PUSH1 0x4 PUSH2 0x194B JUMP JUMPDEST PUSH2 0xB5A JUMP JUMPDEST CALLVALUE DUP1 ISZERO PUSH2 0x294 JUMPI PUSH0 DUP1 REVERT JUMPDEST POP PUSH2 0x193 PUSH2 0x2A3 CALLDATASIZE PUSH1 0x4 PUSH2 0x194B JUMP JUMPDEST PUSH2 0xB70 JUMP JUMPDEST CALLVALUE DUP1 ISZERO PUSH2 0x2B3 JUMPI PUSH0 DUP1 REVERT JUMPDEST POP PUSH2 0x193 PUSH2 0x2C2 CALLDATASIZE PUSH1 0x4 PUSH2 0x1962 JUMP JUMPDEST PUSH2 0xBA3 JUMP JUMPDEST CALLVALUE DUP1 ISZERO PUSH2 0x2D2 JUMPI PUSH0 DUP1 REVERT JUMPDEST POP PUSH2 0x193 PUSH2 0x2E1 CALLDATASIZE PUSH1 0x4 PUSH2 0x194B JUMP JUMPDEST PUSH2 0xBFF JUMP JUMPDEST CALLVALUE DUP1 ISZERO PUSH2 0x2F1 JUMPI PUSH0 DUP1 REVERT JUMPDEST POP PUSH1 0x2 SLOAD PUSH2 0x1F2 JUMP JUMPDEST CALLVALUE DUP1 ISZERO PUSH2 0x305 JUMPI PUSH0 DUP1 REVERT JUMPDEST POP PUSH2 0x1F2 PUSH2 0x314 CALLDATASIZE PUSH1 0x4 PUSH2 0x194B JUMP JUMPDEST PUSH2 0xC32 JUMP JUMPDEST CALLVALUE DUP1 ISZERO PUSH2 0x324 JUMPI PUSH0 DUP1 REVERT JUMPDEST POP PUSH32 0x0 PUSH2 0x21F JUMP JUMPDEST CALLVALUE DUP1 ISZERO PUSH2 0x356 JUMPI PUSH0 DUP1 REVERT JUMPDEST POP PUSH2 0x21F PUSH32 0x0 DUP2 JUMP JUMPDEST CALLVALUE DUP1 ISZERO PUSH2 0x389 JUMPI PUSH0 DUP1 REVERT JUMPDEST POP PUSH2 0x1F2 PUSH2 0x2710 DUP2 JUMP JUMPDEST PUSH2 0x1F2 PUSH2 0x3A1 CALLDATASIZE PUSH1 0x4 PUSH2 0x17DC JUMP JUMPDEST PUSH2 0xC48 JUMP JUMPDEST CALLVALUE DUP1 ISZERO PUSH2 0x3B1 JUMPI PUSH0 DUP1 REVERT JUMPDEST POP PUSH2 0x193 PUSH2 0xFB7 JUMP JUMPDEST CALLVALUE DUP1 ISZERO PUSH2 0x3C5 JUMPI PUSH0 DUP1 REVERT JUMPDEST POP PUSH2 0x193 PUSH2 0x3D4 CALLDATASIZE PUSH1 0x4 PUSH2 0x1998 JUMP JUMPDEST PUSH2 0x10EC JUMP JUMPDEST CALLVALUE DUP1 ISZERO PUSH2 0x3E4 JUMPI PUSH0 DUP1 REVERT JUMPDEST POP PUSH0 SLOAD PUSH1 0x1 PUSH1 0x1 PUSH1 0xA0 SHL SUB AND PUSH2 0x21F JUMP JUMPDEST CALLVALUE DUP1 ISZERO PUSH2 0x400 JUMPI PUSH0 DUP1 REVERT JUMPDEST POP PUSH1 0x3 SLOAD PUSH1 0x1 PUSH1 0x1 PUSH1 0xA0 SHL SUB AND PUSH2 0x21F JUMP JUMPDEST CALLVALUE DUP1 ISZERO PUSH2 0x41D JUMPI PUSH0 DUP1 REVERT JUMPDEST POP PUSH2 0x21F PUSH32 0x0 DUP2 JUMP JUMPDEST PUSH0 PUSH1 0x1 PUSH1 0x1 PUSH1 0xE0 SHL SUB NOT DUP3 AND PUSH4 0x85572FFB PUSH1 0xE0 SHL EQ DUP1 PUSH2 0x475 JUMPI POP PUSH1 0x1 PUSH1 0x1 PUSH1 0xE0 SHL SUB NOT DUP3 AND PUSH4 0x1FFC9A7 PUSH1 0xE0 SHL EQ JUMPDEST SWAP3 SWAP2 POP POP JUMP JUMPDEST PUSH1 0x40 MLOAD PUSH4 0x23B872DD PUSH1 0xE0 SHL DUP2 MSTORE PUSH1 0x1 PUSH1 0x1 PUSH1 0xA0 SHL SUB PUSH32 0x0 AND SWAP1 PUSH4 0x23B872DD SWAP1 PUSH2 0x4CB SWAP1 CALLER SWAP1 ADDRESS SWAP1 DUP8 SWAP1 PUSH1 0x4 ADD PUSH2 0x19C2 JUMP JUMPDEST PUSH1 0x20 PUSH1 0x40 MLOAD DUP1 DUP4 SUB DUP2 PUSH0 DUP8 GAS CALL ISZERO DUP1 ISZERO PUSH2 0x4E7 JUMPI RETURNDATASIZE PUSH0 DUP1 RETURNDATACOPY RETURNDATASIZE PUSH0 REVERT JUMPDEST POP POP POP POP PUSH1 0x40 MLOAD RETURNDATASIZE PUSH1 0x1F NOT PUSH1 0x1F DUP3 ADD AND DUP3 ADD DUP1 PUSH1 0x40 MSTORE POP DUP2 ADD SWAP1 PUSH2 0x50B SWAP2 SWAP1 PUSH2 0x19E6 JUMP JUMPDEST PUSH2 0x530 JUMPI PUSH1 0x40 MLOAD PUSH3 0x461BCD PUSH1 0xE5 SHL DUP2 MSTORE PUSH1 0x4 ADD PUSH2 0x527 SWAP1 PUSH2 0x1A05 JUMP JUMPDEST PUSH1 0x40 MLOAD DUP1 SWAP2 SUB SWAP1 REVERT JUMPDEST PUSH0 PUSH2 0x540 PUSH5 0xE8D4A51000 DUP5 PUSH2 0x1A62 JUMP JUMPDEST PUSH1 0x40 MLOAD PUSH4 0xA9059CBB PUSH1 0xE0 SHL DUP2 MSTORE PUSH1 0x1 PUSH1 0x1 PUSH1 0xA0 SHL SUB DUP5 DUP2 AND PUSH1 0x4 DUP4 ADD MSTORE PUSH1 0x24 DUP3 ADD DUP4 SWAP1 MSTORE SWAP2 SWAP3 POP PUSH32 0x0 SWAP1 SWAP2 AND SWAP1 PUSH4 0xA9059CBB SWAP1 PUSH1 0x44 ADD PUSH1 0x20 PUSH1 0x40 MLOAD DUP1 DUP4 SUB DUP2 PUSH0 DUP8 GAS CALL ISZERO DUP1 ISZERO PUSH2 0x5B1 JUMPI RETURNDATASIZE PUSH0 DUP1 RETURNDATACOPY RETURNDATASIZE PUSH0 REVERT JUMPDEST POP POP POP POP PUSH1 0x40 MLOAD RETURNDATASIZE PUSH1 0x1F NOT PUSH1 0x1F DUP3 ADD AND DUP3 ADD DUP1 PUSH1 0x40 MSTORE POP DUP2 ADD SWAP1 PUSH2 0x5D5 SWAP2 SWAP1 PUSH2 0x19E6 JUMP JUMPDEST PUSH2 0x647 JUMPI PUSH1 0x40 MLOAD PUSH3 0x461BCD PUSH1 0xE5 SHL DUP2 MSTORE PUSH1 0x20 PUSH1 0x4 DUP3 ADD MSTORE PUSH1 0x39 PUSH1 0x24 DUP3 ADD MSTORE PUSH32 0x43726F7373436861696E466163696C697461746F723A204661696C656420746F PUSH1 0x44 DUP3 ADD MSTORE PUSH32 0x207472616E73666572205553444320746F206164647265737300000000000000 PUSH1 0x64 DUP3 ADD MSTORE PUSH1 0x84 ADD PUSH2 0x527 JUMP JUMPDEST POP POP POP JUMP JUMPDEST PUSH1 0x3 SLOAD PUSH1 0x1 PUSH1 0x1 PUSH1 0xA0 SHL SUB AND CALLER EQ PUSH2 0x676 JUMPI PUSH1 0x40 MLOAD PUSH3 0x461BCD PUSH1 0xE5 SHL DUP2 MSTORE PUSH1 0x4 ADD PUSH2 0x527 SWAP1 PUSH2 0x1A81 JUMP JUMPDEST PUSH2 0x67F DUP2 PUSH2 0x114E JUMP JUMPDEST POP JUMP JUMPDEST PUSH1 0x3 SLOAD PUSH1 0x1 PUSH1 0x1 PUSH1 0xA0 SHL SUB AND CALLER EQ PUSH2 0x6AC JUMPI PUSH1 0x40 MLOAD PUSH3 0x461BCD PUSH1 0xE5 SHL DUP2 MSTORE PUSH1 0x4 ADD PUSH2 0x527 SWAP1 PUSH2 0x1A81 JUMP JUMPDEST PUSH2 0x67F DUP2 PUSH2 0x119D JUMP JUMPDEST PUSH1 0x1 PUSH1 0x1 PUSH1 0x40 SHL SUB DUP4 AND PUSH0 SWAP1 DUP2 MSTORE PUSH1 0x5 PUSH1 0x20 MSTORE PUSH1 0x40 DUP2 KECCAK256 SLOAD PUSH1 0x1 PUSH1 0x1 PUSH1 0xA0 SHL SUB AND DUP1 PUSH2 0x6F3 JUMPI PUSH1 0x40 MLOAD PUSH3 0x461BCD PUSH1 0xE5 SHL DUP2 MSTORE PUSH1 0x4 ADD PUSH2 0x527 SWAP1 PUSH2 0x1AD6 JUMP JUMPDEST PUSH1 0x40 DUP1 MLOAD PUSH1 0x60 DUP2 ADD DUP3 MSTORE DUP6 DUP2 MSTORE PUSH1 0x1 PUSH1 0x1 PUSH1 0xA0 SHL SUB DUP6 AND PUSH1 0x20 DUP3 ADD MSTORE CALLER SWAP2 DUP2 ADD SWAP2 SWAP1 SWAP2 MSTORE PUSH0 PUSH2 0x723 DUP4 DUP4 DUP4 PUSH2 0x11FF JUMP JUMPDEST SWAP1 POP PUSH0 ADDRESS PUSH1 0x1 PUSH1 0x1 PUSH1 0xA0 SHL SUB AND PUSH4 0xB0F479A1 PUSH1 0x40 MLOAD DUP2 PUSH4 0xFFFFFFFF AND PUSH1 0xE0 SHL DUP2 MSTORE PUSH1 0x4 ADD PUSH1 0x20 PUSH1 0x40 MLOAD DUP1 DUP4 SUB DUP2 DUP7 GAS STATICCALL ISZERO DUP1 ISZERO PUSH2 0x762 JUMPI RETURNDATASIZE PUSH0 DUP1 RETURNDATACOPY RETURNDATASIZE PUSH0 REVERT JUMPDEST POP POP POP POP PUSH1 0x40 MLOAD RETURNDATASIZE PUSH1 0x1F NOT PUSH1 0x1F DUP3 ADD AND DUP3 ADD DUP1 PUSH1 0x40 MSTORE POP DUP2 ADD SWAP1 PUSH2 0x786 SWAP2 SWAP1 PUSH2 0x1B2B JUMP JUMPDEST SWAP1 POP PUSH0 DUP2 PUSH1 0x1 PUSH1 0x1 PUSH1 0xA0 SHL SUB AND PUSH4 0x20487DED DUP11 DUP6 PUSH1 0x40 MLOAD DUP4 PUSH4 0xFFFFFFFF AND PUSH1 0xE0 SHL DUP2 MSTORE PUSH1 0x4 ADD PUSH2 0x7B7 SWAP3 SWAP2 SWAP1 PUSH2 0x1B89 JUMP JUMPDEST PUSH1 0x20 PUSH1 0x40 MLOAD DUP1 DUP4 SUB DUP2 DUP7 GAS STATICCALL ISZERO DUP1 ISZERO PUSH2 0x7D2 JUMPI RETURNDATASIZE PUSH0 DUP1 RETURNDATACOPY RETURNDATASIZE PUSH0 REVERT JUMPDEST POP POP POP POP PUSH1 0x40 MLOAD RETURNDATASIZE PUSH1 0x1F NOT PUSH1 0x1F DUP3 ADD AND DUP3 ADD DUP1 PUSH1 0x40 MSTORE POP DUP2 ADD SWAP1 PUSH2 0x7F6 SWAP2 SWAP1 PUSH2 0x1C63 JUMP JUMPDEST SWAP10 SWAP9 POP POP POP POP POP POP POP POP POP JUMP JUMPDEST PUSH0 PUSH1 0x14 DUP3 MLOAD LT ISZERO PUSH2 0x864 JUMPI PUSH1 0x40 MLOAD PUSH3 0x461BCD PUSH1 0xE5 SHL DUP2 MSTORE PUSH1 0x20 PUSH1 0x4 DUP3 ADD MSTORE PUSH1 0x25 PUSH1 0x24 DUP3 ADD MSTORE PUSH32 0x44617461206C656E677468206D757374206265206174206C6561737420323020 PUSH1 0x44 DUP3 ADD MSTORE PUSH5 0x6279746573 PUSH1 0xD8 SHL PUSH1 0x64 DUP3 ADD MSTORE PUSH1 0x84 ADD PUSH2 0x527 JUMP JUMPDEST POP PUSH1 0x14 ADD MLOAD SWAP1 JUMP JUMPDEST PUSH0 PUSH2 0x87C PUSH5 0xE8D4A51000 DUP5 PUSH2 0x1A62 JUMP JUMPDEST PUSH1 0x40 MLOAD PUSH4 0x23B872DD PUSH1 0xE0 SHL DUP2 MSTORE SWAP1 SWAP2 POP PUSH1 0x1 PUSH1 0x1 PUSH1 0xA0 SHL SUB PUSH32 0x0 AND SWAP1 PUSH4 0x23B872DD SWAP1 PUSH2 0x8CF SWAP1 CALLER SWAP1 ADDRESS SWAP1 DUP7 SWAP1 PUSH1 0x4 ADD PUSH2 0x19C2 JUMP JUMPDEST PUSH1 0x20 PUSH1 0x40 MLOAD DUP1 DUP4 SUB DUP2 PUSH0 DUP8 GAS CALL ISZERO DUP1 ISZERO PUSH2 0x8EB JUMPI RETURNDATASIZE PUSH0 DUP1 RETURNDATACOPY RETURNDATASIZE PUSH0 REVERT JUMPDEST POP POP POP POP PUSH1 0x40 MLOAD RETURNDATASIZE PUSH1 0x1F NOT PUSH1 0x1F DUP3 ADD AND DUP3 ADD DUP1 PUSH1 0x40 MSTORE POP DUP2 ADD SWAP1 PUSH2 0x90F SWAP2 SWAP1 PUSH2 0x19E6 JUMP JUMPDEST PUSH2 0x981 JUMPI PUSH1 0x40 MLOAD PUSH3 0x461BCD PUSH1 0xE5 SHL DUP2 MSTORE PUSH1 0x20 PUSH1 0x4 DUP3 ADD MSTORE PUSH1 0x3D PUSH1 0x24 DUP3 ADD MSTORE PUSH32 0x43726F7373436861696E466163696C697461746F723A204661696C656420746F PUSH1 0x44 DUP3 ADD MSTORE PUSH32 0x207472616E73666572205553444320746F20666163696C697461746F72000000 PUSH1 0x64 DUP3 ADD MSTORE PUSH1 0x84 ADD PUSH2 0x527 JUMP JUMPDEST PUSH0 PUSH2 0x98B DUP5 PUSH2 0xB5A JUMP JUMPDEST SWAP1 POP PUSH2 0x997 DUP2 DUP6 PUSH2 0x1C7A JUMP JUMPDEST PUSH2 0x99F PUSH2 0x1358 JUMP JUMPDEST LT PUSH2 0xA51 JUMPI PUSH1 0x40 MLOAD PUSH4 0xA9059CBB PUSH1 0xE0 SHL DUP2 MSTORE PUSH1 0x1 PUSH1 0x1 PUSH1 0xA0 SHL SUB DUP5 DUP2 AND PUSH1 0x4 DUP4 ADD MSTORE PUSH1 0x24 DUP3 ADD DUP7 SWAP1 MSTORE PUSH32 0x0 AND SWAP1 PUSH4 0xA9059CBB SWAP1 PUSH1 0x44 ADD PUSH1 0x20 PUSH1 0x40 MLOAD DUP1 DUP4 SUB DUP2 PUSH0 DUP8 GAS CALL ISZERO DUP1 ISZERO PUSH2 0xA10 JUMPI RETURNDATASIZE PUSH0 DUP1 RETURNDATACOPY RETURNDATASIZE PUSH0 REVERT JUMPDEST POP POP POP POP PUSH1 0x40 MLOAD RETURNDATASIZE PUSH1 0x1F NOT PUSH1 0x1F DUP3 ADD AND DUP3 ADD DUP1 PUSH1 0x40 MSTORE POP DUP2 ADD SWAP1 PUSH2 0xA34 SWAP2 SWAP1 PUSH2 0x19E6 JUMP JUMPDEST POP DUP1 PUSH1 0x4 PUSH0 DUP3 DUP3 SLOAD PUSH2 0xA46 SWAP2 SWAP1 PUSH2 0x1C7A JUMP JUMPDEST SWAP1 SWAP2 SSTORE POP POP POP POP POP POP JUMP JUMPDEST PUSH1 0x40 MLOAD PUSH4 0x40C10F19 PUSH1 0xE0 SHL DUP2 MSTORE PUSH1 0x1 PUSH1 0x1 PUSH1 0xA0 SHL SUB DUP5 DUP2 AND PUSH1 0x4 DUP4 ADD MSTORE PUSH1 0x24 DUP3 ADD DUP7 SWAP1 MSTORE PUSH32 0x0 AND SWAP1 PUSH4 0x40C10F19 SWAP1 PUSH1 0x44 ADD PUSH0 PUSH1 0x40 MLOAD DUP1 DUP4 SUB DUP2 PUSH0 DUP8 DUP1 EXTCODESIZE ISZERO DUP1 ISZERO PUSH2 0xAB8 JUMPI PUSH0 DUP1 REVERT JUMPDEST POP GAS CALL ISZERO DUP1 ISZERO PUSH2 0xACA JUMPI RETURNDATASIZE PUSH0 DUP1 RETURNDATACOPY RETURNDATASIZE PUSH0 REVERT JUMPDEST POP POP PUSH1 0x40 MLOAD PUSH4 0x40C10F19 PUSH1 0xE0 SHL DUP2 MSTORE ADDRESS PUSH1 0x4 DUP3 ADD MSTORE PUSH1 0x24 DUP2 ADD DUP5 SWAP1 MSTORE PUSH32 0x0 PUSH1 0x1 PUSH1 0x1 PUSH1 0xA0 SHL SUB AND SWAP3 POP PUSH4 0x40C10F19 SWAP2 POP PUSH1 0x44 ADD PUSH0 PUSH1 0x40 MLOAD DUP1 DUP4 SUB DUP2 PUSH0 DUP8 DUP1 EXTCODESIZE ISZERO DUP1 ISZERO PUSH2 0xB33 JUMPI PUSH0 DUP1 REVERT JUMPDEST POP GAS CALL ISZERO DUP1 ISZERO PUSH2 0xB45 JUMPI RETURNDATASIZE PUSH0 DUP1 RETURNDATACOPY RETURNDATASIZE PUSH0 REVERT JUMPDEST POP POP POP POP DUP1 PUSH1 0x4 PUSH0 DUP3 DUP3 SLOAD PUSH2 0xA46 SWAP2 SWAP1 PUSH2 0x1C7A JUMP JUMPDEST PUSH0 PUSH2 0x475 PUSH1 0x1 SLOAD DUP4 PUSH2 0x13E5 SWAP1 SWAP2 SWAP1 PUSH4 0xFFFFFFFF AND JUMP JUMPDEST PUSH1 0x3 SLOAD PUSH1 0x1 PUSH1 0x1 PUSH1 0xA0 SHL SUB AND CALLER EQ PUSH2 0xB9A JUMPI PUSH1 0x40 MLOAD PUSH3 0x461BCD PUSH1 0xE5 SHL DUP2 MSTORE PUSH1 0x4 ADD PUSH2 0x527 SWAP1 PUSH2 0x1A81 JUMP JUMPDEST PUSH2 0x67F DUP2 PUSH2 0x1409 JUMP JUMPDEST CALLER PUSH1 0x1 PUSH1 0x1 PUSH1 0xA0 SHL SUB PUSH32 0x0 AND EQ PUSH2 0xBEE JUMPI PUSH1 0x40 MLOAD PUSH4 0x35FDCCCD PUSH1 0xE2 SHL DUP2 MSTORE CALLER PUSH1 0x4 DUP3 ADD MSTORE PUSH1 0x24 ADD PUSH2 0x527 JUMP JUMPDEST PUSH2 0x67F PUSH2 0xBFA DUP3 PUSH2 0x1D40 JUMP JUMPDEST PUSH2 0x1469 JUMP JUMPDEST PUSH1 0x3 SLOAD PUSH1 0x1 PUSH1 0x1 PUSH1 0xA0 SHL SUB AND CALLER EQ PUSH2 0xC29 JUMPI PUSH1 0x40 MLOAD PUSH3 0x461BCD PUSH1 0xE5 SHL DUP2 MSTORE PUSH1 0x4 ADD PUSH2 0x527 SWAP1 PUSH2 0x1A81 JUMP JUMPDEST PUSH2 0x67F DUP2 PUSH2 0x16A8 JUMP JUMPDEST PUSH0 PUSH2 0x475 PUSH1 0x2 SLOAD DUP4 PUSH2 0x13E5 SWAP1 SWAP2 SWAP1 PUSH4 0xFFFFFFFF AND JUMP JUMPDEST PUSH0 DUP1 PUSH2 0xC53 DUP5 PUSH2 0xC32 JUMP JUMPDEST SWAP1 POP PUSH1 0x1 PUSH1 0x1 PUSH1 0xA0 SHL SUB PUSH32 0x0 AND PUSH4 0x23B872DD CALLER ADDRESS PUSH2 0xC90 DUP6 DUP10 PUSH2 0x1C7A JUMP JUMPDEST PUSH1 0x40 MLOAD DUP5 PUSH4 0xFFFFFFFF AND PUSH1 0xE0 SHL DUP2 MSTORE PUSH1 0x4 ADD PUSH2 0xCAE SWAP4 SWAP3 SWAP2 SWAP1 PUSH2 0x19C2 JUMP JUMPDEST PUSH1 0x20 PUSH1 0x40 MLOAD DUP1 DUP4 SUB DUP2 PUSH0 DUP8 GAS CALL ISZERO DUP1 ISZERO PUSH2 0xCCA JUMPI RETURNDATASIZE PUSH0 DUP1 RETURNDATACOPY RETURNDATASIZE PUSH0 REVERT JUMPDEST POP POP POP POP PUSH1 0x40 MLOAD RETURNDATASIZE PUSH1 0x1F NOT PUSH1 0x1F DUP3 ADD AND DUP3 ADD DUP1 PUSH1 0x40 MSTORE POP DUP2 ADD SWAP1 PUSH2 0xCEE SWAP2 SWAP1 PUSH2 0x19E6 JUMP JUMPDEST PUSH2 0xD0A JUMPI PUSH1 0x40 MLOAD PUSH3 0x461BCD PUSH1 0xE5 SHL DUP2 MSTORE PUSH1 0x4 ADD PUSH2 0x527 SWAP1 PUSH2 0x1A05 JUMP JUMPDEST DUP1 PUSH1 0x4 PUSH0 DUP3 DUP3 SLOAD PUSH2 0xD1B SWAP2 SWAP1 PUSH2 0x1C7A JUMP JUMPDEST SWAP1 SWAP2 SSTORE POP POP PUSH1 0x1 PUSH1 0x1 PUSH1 0x40 SHL SUB DUP6 AND PUSH0 SWAP1 DUP2 MSTORE PUSH1 0x5 PUSH1 0x20 MSTORE PUSH1 0x40 SWAP1 KECCAK256 SLOAD PUSH1 0x1 PUSH1 0x1 PUSH1 0xA0 SHL SUB AND DUP1 PUSH2 0xD5E JUMPI PUSH1 0x40 MLOAD PUSH3 0x461BCD PUSH1 0xE5 SHL DUP2 MSTORE PUSH1 0x4 ADD PUSH2 0x527 SWAP1 PUSH2 0x1AD6 JUMP JUMPDEST PUSH1 0x40 DUP1 MLOAD PUSH1 0x60 DUP2 ADD DUP3 MSTORE DUP7 DUP2 MSTORE PUSH1 0x1 PUSH1 0x1 PUSH1 0xA0 SHL SUB DUP7 AND PUSH1 0x20 DUP3 ADD MSTORE CALLER SWAP2 DUP2 ADD SWAP2 SWAP1 SWAP2 MSTORE PUSH0 PUSH2 0xD8E DUP4 DUP4 DUP4 PUSH2 0x11FF JUMP JUMPDEST SWAP1 POP PUSH0 ADDRESS PUSH1 0x1 PUSH1 0x1 PUSH1 0xA0 SHL SUB AND PUSH4 0xB0F479A1 PUSH1 0x40 MLOAD DUP2 PUSH4 0xFFFFFFFF AND PUSH1 0xE0 SHL DUP2 MSTORE PUSH1 0x4 ADD PUSH1 0x20 PUSH1 0x40 MLOAD DUP1 DUP4 SUB DUP2 DUP7 GAS STATICCALL ISZERO DUP1 ISZERO PUSH2 0xDCD JUMPI RETURNDATASIZE PUSH0 DUP1 RETURNDATACOPY RETURNDATASIZE PUSH0 REVERT JUMPDEST POP POP POP POP PUSH1 0x40 MLOAD RETURNDATASIZE PUSH1 0x1F NOT PUSH1 0x1F DUP3 ADD AND DUP3 ADD DUP1 PUSH1 0x40 MSTORE POP DUP2 ADD SWAP1 PUSH2 0xDF1 SWAP2 SWAP1 PUSH2 0x1B2B JUMP JUMPDEST SWAP1 POP PUSH0 DUP2 PUSH1 0x1 PUSH1 0x1 PUSH1 0xA0 SHL SUB AND PUSH4 0x20487DED DUP12 DUP6 PUSH1 0x40 MLOAD DUP4 PUSH4 0xFFFFFFFF AND PUSH1 0xE0 SHL DUP2 MSTORE PUSH1 0x4 ADD PUSH2 0xE22 SWAP3 SWAP2 SWAP1 PUSH2 0x1B89 JUMP JUMPDEST PUSH1 0x20 PUSH1 0x40 MLOAD DUP1 DUP4 SUB DUP2 DUP7 GAS STATICCALL ISZERO DUP1 ISZERO PUSH2 0xE3D JUMPI RETURNDATASIZE PUSH0 DUP1 RETURNDATACOPY RETURNDATASIZE PUSH0 REVERT JUMPDEST POP POP POP POP PUSH1 0x40 MLOAD RETURNDATASIZE PUSH1 0x1F NOT PUSH1 0x1F DUP3 ADD AND DUP3 ADD DUP1 PUSH1 0x40 MSTORE POP DUP2 ADD SWAP1 PUSH2 0xE61 SWAP2 SWAP1 PUSH2 0x1C63 JUMP JUMPDEST SWAP1 POP CALLVALUE DUP2 GT ISZERO PUSH2 0xED9 JUMPI PUSH1 0x40 MLOAD PUSH3 0x461BCD PUSH1 0xE5 SHL DUP2 MSTORE PUSH1 0x20 PUSH1 0x4 DUP3 ADD MSTORE PUSH1 0x38 PUSH1 0x24 DUP3 ADD MSTORE PUSH32 0x43726F7373436861696E466163696C697461746F723A204E6F7420656E6F7567 PUSH1 0x44 DUP3 ADD MSTORE PUSH32 0x682062616C616E636520746F20636F76657220666565732E0000000000000000 PUSH1 0x64 DUP3 ADD MSTORE PUSH1 0x84 ADD PUSH2 0x527 JUMP JUMPDEST PUSH1 0x40 MLOAD PUSH4 0x96F4E9F9 PUSH1 0xE0 SHL DUP2 MSTORE PUSH1 0x1 PUSH1 0x1 PUSH1 0xA0 SHL SUB DUP4 AND SWAP1 PUSH4 0x96F4E9F9 SWAP1 DUP4 SWAP1 PUSH2 0xF09 SWAP1 DUP15 SWAP1 DUP9 SWAP1 PUSH1 0x4 ADD PUSH2 0x1B89 JUMP JUMPDEST PUSH1 0x20 PUSH1 0x40 MLOAD DUP1 DUP4 SUB DUP2 DUP6 DUP9 GAS CALL ISZERO DUP1 ISZERO PUSH2 0xF25 JUMPI RETURNDATASIZE PUSH0 DUP1 RETURNDATACOPY RETURNDATASIZE PUSH0 REVERT JUMPDEST POP POP POP POP POP PUSH1 0x40 MLOAD RETURNDATASIZE PUSH1 0x1F NOT PUSH1 0x1F DUP3 ADD AND DUP3 ADD DUP1 PUSH1 0x40 MSTORE POP DUP2 ADD SWAP1 PUSH2 0xF4A SWAP2 SWAP1 PUSH2 0x1C63 JUMP JUMPDEST PUSH1 0x40 DUP1 MLOAD PUSH1 0x1 PUSH1 0x1 PUSH1 0xA0 SHL SUB DUP12 AND DUP2 MSTORE PUSH1 0x20 DUP2 ADD DUP13 SWAP1 MSTORE PUSH0 DUP2 DUP4 ADD MSTORE PUSH1 0x60 DUP2 ADD DUP5 SWAP1 MSTORE SWAP1 MLOAD SWAP2 SWAP9 POP PUSH1 0x1 PUSH1 0x1 PUSH1 0x40 SHL SUB DUP13 AND SWAP2 DUP10 SWAP2 PUSH32 0xEEA8A479F07983D1364C4330C9BF3442A1CD421B79B16909BCC1867188EA676B SWAP2 SWAP1 DUP2 SWAP1 SUB PUSH1 0x80 ADD SWAP1 LOG3 POP POP POP POP POP POP SWAP4 SWAP3 POP POP POP JUMP JUMPDEST PUSH1 0x3 SLOAD PUSH1 0x1 PUSH1 0x1 PUSH1 0xA0 SHL SUB AND CALLER EQ PUSH2 0xFE1 JUMPI PUSH1 0x40 MLOAD PUSH3 0x461BCD PUSH1 0xE5 SHL DUP2 MSTORE PUSH1 0x4 ADD PUSH2 0x527 SWAP1 PUSH2 0x1A81 JUMP JUMPDEST PUSH0 SLOAD PUSH1 0x4 DUP1 SLOAD PUSH1 0x40 MLOAD PUSH4 0xA9059CBB PUSH1 0xE0 SHL DUP2 MSTORE PUSH1 0x1 PUSH1 0x1 PUSH1 0xA0 SHL SUB SWAP4 DUP5 AND SWAP3 DUP2 ADD SWAP3 SWAP1 SWAP3 MSTORE PUSH1 0x24 DUP3 ADD MSTORE PUSH32 0x0 SWAP1 SWAP2 AND SWAP1 PUSH4 0xA9059CBB SWAP1 PUSH1 0x44 ADD PUSH1 0x20 PUSH1 0x40 MLOAD DUP1 DUP4 SUB DUP2 PUSH0 DUP8 GAS CALL ISZERO DUP1 ISZERO PUSH2 0x1055 JUMPI RETURNDATASIZE PUSH0 DUP1 RETURNDATACOPY RETURNDATASIZE PUSH0 REVERT JUMPDEST POP POP POP POP PUSH1 0x40 MLOAD RETURNDATASIZE PUSH1 0x1F NOT PUSH1 0x1F DUP3 ADD AND DUP3 ADD DUP1 PUSH1 0x40 MSTORE POP DUP2 ADD SWAP1 PUSH2 0x1079 SWAP2 SWAP1 PUSH2 0x19E6 JUMP JUMPDEST POP PUSH0 PUSH1 0x4 DUP2 SWAP1 SSTORE DUP1 SLOAD PUSH1 0x40 MLOAD PUSH1 0x1 PUSH1 0x1 PUSH1 0xA0 SHL SUB PUSH32 0x0 DUP2 AND SWAP4 SWAP3 AND SWAP2 PUSH32 0xB29FCDA740927812F5A71075B62E132BEAD3769A455319C29B9A1CC461A65475 SWAP2 PUSH2 0x10E2 SWAP2 DUP2 MSTORE PUSH1 0x20 ADD SWAP1 JUMP JUMPDEST PUSH1 0x40 MLOAD DUP1 SWAP2 SUB SWAP1 LOG3 JUMP JUMPDEST PUSH1 0x3 SLOAD PUSH1 0x1 PUSH1 0x1 PUSH1 0xA0 SHL SUB AND CALLER EQ PUSH2 0x1116 JUMPI PUSH1 0x40 MLOAD PUSH3 0x461BCD PUSH1 0xE5 SHL DUP2 MSTORE PUSH1 0x4 ADD PUSH2 0x527 SWAP1 PUSH2 0x1A81 JUMP JUMPDEST PUSH1 0x1 PUSH1 0x1 PUSH1 0x40 SHL SUB SWAP2 SWAP1 SWAP2 AND PUSH0 SWAP1 DUP2 MSTORE PUSH1 0x5 PUSH1 0x20 MSTORE PUSH1 0x40 SWAP1 KECCAK256 DUP1 SLOAD PUSH1 0x1 PUSH1 0x1 PUSH1 0xA0 SHL SUB NOT AND PUSH1 0x1 PUSH1 0x1 PUSH1 0xA0 SHL SUB SWAP1 SWAP3 AND SWAP2 SWAP1 SWAP2 OR SWAP1 SSTORE JUMP JUMPDEST PUSH0 DUP1 SLOAD PUSH1 0x1 PUSH1 0x1 PUSH1 0xA0 SHL SUB DUP4 DUP2 AND PUSH1 0x1 PUSH1 0x1 PUSH1 0xA0 SHL SUB NOT DUP4 AND DUP2 OR DUP5 SSTORE PUSH1 0x40 MLOAD SWAP2 SWAP1 SWAP3 AND SWAP3 DUP4 SWAP2 PUSH32 0x13F4413D8D93A259BD6C10F35095371F30ED50F81A73407E52E9F02000D5D16B SWAP2 SWAP1 LOG3 POP POP JUMP JUMPDEST PUSH1 0x3 DUP1 SLOAD PUSH1 0x1 PUSH1 0x1 PUSH1 0xA0 SHL SUB DUP4 DUP2 AND PUSH1 0x1 PUSH1 0x1 PUSH1 0xA0 SHL SUB NOT DUP4 AND DUP2 OR SWAP1 SWAP4 SSTORE PUSH1 0x40 DUP1 MLOAD SWAP2 SWAP1 SWAP3 AND DUP1 DUP3 MSTORE PUSH1 0x20 DUP3 ADD SWAP4 SWAP1 SWAP4 MSTORE PUSH32 0x52818C14B633BBAAFD64FF307400CEFEA0D830F2F9EE8E8ED1ED04A2BAED191E SWAP2 ADD JUMPDEST PUSH1 0x40 MLOAD DUP1 SWAP2 SUB SWAP1 LOG1 POP POP JUMP JUMPDEST PUSH2 0x1239 PUSH1 0x40 MLOAD DUP1 PUSH1 0xA0 ADD PUSH1 0x40 MSTORE DUP1 PUSH1 0x60 DUP2 MSTORE PUSH1 0x20 ADD PUSH1 0x60 DUP2 MSTORE PUSH1 0x20 ADD PUSH1 0x60 DUP2 MSTORE PUSH1 0x20 ADD PUSH0 PUSH1 0x1 PUSH1 0x1 PUSH1 0xA0 SHL SUB AND DUP2 MSTORE PUSH1 0x20 ADD PUSH1 0x60 DUP2 MSTORE POP SWAP1 JUMP JUMPDEST PUSH1 0x40 DUP1 MLOAD DUP5 MLOAD PUSH1 0x20 DUP1 DUP4 ADD SWAP2 SWAP1 SWAP2 MSTORE DUP1 DUP7 ADD MLOAD PUSH1 0x1 PUSH1 0x1 PUSH1 0xA0 SHL SUB SWAP1 DUP2 AND DUP4 DUP6 ADD MSTORE DUP7 DUP5 ADD MLOAD DUP2 AND PUSH1 0x60 DUP1 DUP6 ADD SWAP2 SWAP1 SWAP2 MSTORE DUP5 MLOAD DUP1 DUP6 SUB SWAP1 SWAP2 ADD DUP2 MSTORE PUSH2 0x120 DUP5 ADD DUP6 MSTORE SWAP1 DUP9 AND PUSH2 0x140 DUP1 DUP6 ADD SWAP2 SWAP1 SWAP2 MSTORE DUP5 MLOAD DUP1 DUP6 SUB SWAP1 SWAP2 ADD DUP2 MSTORE PUSH2 0x160 DUP5 ADD DUP6 MSTORE PUSH1 0x80 DUP5 ADD SWAP1 DUP2 MSTORE PUSH1 0xA0 DUP5 ADD DUP3 SWAP1 MSTORE DUP5 MLOAD PUSH0 DUP1 DUP3 MSTORE SWAP4 DUP2 ADD SWAP1 SWAP6 MSTORE SWAP1 SWAP4 SWAP1 SWAP3 PUSH1 0xC0 ADD SWAP2 PUSH2 0x12E6 JUMP JUMPDEST PUSH1 0x40 DUP1 MLOAD DUP1 DUP3 ADD SWAP1 SWAP2 MSTORE PUSH0 DUP1 DUP3 MSTORE PUSH1 0x20 DUP3 ADD MSTORE DUP2 MSTORE PUSH1 0x20 ADD SWAP1 PUSH1 0x1 SWAP1 SUB SWAP1 DUP2 PUSH2 0x12C0 JUMPI SWAP1 POP JUMPDEST POP DUP2 MSTORE PUSH1 0x20 ADD DUP5 PUSH1 0x1 PUSH1 0x1 PUSH1 0xA0 SHL SUB AND DUP2 MSTORE PUSH1 0x20 ADD PUSH2 0x134D PUSH1 0x40 MLOAD DUP1 PUSH1 0x20 ADD PUSH1 0x40 MSTORE DUP1 PUSH3 0x30D40 DUP2 MSTORE POP PUSH1 0x40 DUP1 MLOAD SWAP2 MLOAD PUSH1 0x24 DUP1 DUP5 ADD SWAP2 SWAP1 SWAP2 MSTORE DUP2 MLOAD DUP1 DUP5 SUB SWAP1 SWAP2 ADD DUP2 MSTORE PUSH1 0x44 SWAP1 SWAP3 ADD SWAP1 MSTORE PUSH1 0x20 DUP2 ADD DUP1 MLOAD PUSH1 0x1 PUSH1 0x1 PUSH1 0xE0 SHL SUB AND PUSH4 0x97A657C9 PUSH1 0xE0 SHL OR SWAP1 MSTORE SWAP1 JUMP JUMPDEST SWAP1 MSTORE SWAP6 SWAP5 POP POP POP POP POP JUMP JUMPDEST PUSH1 0x40 MLOAD PUSH4 0x70A08231 PUSH1 0xE0 SHL DUP2 MSTORE ADDRESS PUSH1 0x4 DUP3 ADD MSTORE PUSH0 SWAP1 PUSH32 0x0 PUSH1 0x1 PUSH1 0x1 PUSH1 0xA0 SHL SUB AND SWAP1 PUSH4 0x70A08231 SWAP1 PUSH1 0x24 ADD PUSH1 0x20 PUSH1 0x40 MLOAD DUP1 DUP4 SUB DUP2 DUP7 GAS STATICCALL ISZERO DUP1 ISZERO PUSH2 0x13BC JUMPI RETURNDATASIZE PUSH0 DUP1 RETURNDATACOPY RETURNDATASIZE PUSH0 REVERT JUMPDEST POP POP POP POP PUSH1 0x40 MLOAD RETURNDATASIZE PUSH1 0x1F NOT PUSH1 0x1F DUP3 ADD AND DUP3 ADD DUP1 PUSH1 0x40 MSTORE POP DUP2 ADD SWAP1 PUSH2 0x13E0 SWAP2 SWAP1 PUSH2 0x1C63 JUMP JUMPDEST SWAP1 POP SWAP1 JUMP JUMPDEST PUSH0 DUP2 ISZERO PUSH2 0x1388 NOT DUP4 SWAP1 DIV DUP5 GT ISZERO OR PUSH2 0x13FB JUMPI PUSH0 DUP1 REVERT JUMPDEST POP PUSH2 0x2710 SWAP2 MUL PUSH2 0x1388 ADD DIV SWAP1 JUMP JUMPDEST PUSH2 0x2710 DUP2 GT ISZERO PUSH2 0x142B JUMPI PUSH1 0x40 MLOAD PUSH3 0x461BCD PUSH1 0xE5 SHL DUP2 MSTORE PUSH1 0x4 ADD PUSH2 0x527 SWAP1 PUSH2 0x1DE7 JUMP JUMPDEST PUSH1 0x1 DUP1 SLOAD SWAP1 DUP3 SWAP1 SSTORE PUSH1 0x40 DUP1 MLOAD DUP3 DUP2 MSTORE PUSH1 0x20 DUP2 ADD DUP5 SWAP1 MSTORE PUSH32 0x7864BF708CAE822050E5F50960A0DE31BD6FE7620A8F67A48582FB95F29C114A SWAP2 ADD PUSH2 0x11F3 JUMP JUMPDEST PUSH2 0x1476 DUP2 PUSH1 0x40 ADD MLOAD PUSH2 0x803 JUMP JUMPDEST PUSH1 0x20 DUP1 DUP4 ADD MLOAD PUSH1 0x1 PUSH1 0x1 PUSH1 0x40 SHL SUB AND PUSH0 SWAP1 DUP2 MSTORE PUSH1 0x5 SWAP1 SWAP2 MSTORE PUSH1 0x40 SWAP1 KECCAK256 SLOAD PUSH1 0x1 PUSH1 0x1 PUSH1 0xA0 SHL SUB SWAP1 DUP2 AND SWAP2 AND EQ PUSH2 0x1501 JUMPI PUSH1 0x40 MLOAD PUSH3 0x461BCD PUSH1 0xE5 SHL DUP2 MSTORE PUSH1 0x20 PUSH1 0x4 DUP3 ADD MSTORE PUSH1 0x2B PUSH1 0x24 DUP3 ADD MSTORE PUSH32 0x43726F7373436861696E466163696C697461746F723A2053656E646572206E6F PUSH1 0x44 DUP3 ADD MSTORE PUSH11 0x3A1030B8383937BB32B217 PUSH1 0xA9 SHL PUSH1 0x64 DUP3 ADD MSTORE PUSH1 0x84 ADD PUSH2 0x527 JUMP JUMPDEST PUSH0 PUSH2 0x150F DUP3 PUSH1 0x60 ADD MLOAD PUSH2 0x1708 JUMP JUMPDEST DUP1 MLOAD SWAP1 SWAP2 POP PUSH2 0x151C PUSH2 0x1358 JUMP JUMPDEST GT ISZERO PUSH2 0x15CD JUMPI PUSH1 0x20 DUP2 ADD MLOAD DUP2 MLOAD PUSH1 0x40 MLOAD PUSH4 0xA9059CBB PUSH1 0xE0 SHL DUP2 MSTORE PUSH1 0x1 PUSH1 0x1 PUSH1 0xA0 SHL SUB PUSH32 0x0 AND SWAP3 PUSH4 0xA9059CBB SWAP3 PUSH2 0x1587 SWAP3 PUSH1 0x4 ADD PUSH1 0x1 PUSH1 0x1 PUSH1 0xA0 SHL SUB SWAP3 SWAP1 SWAP3 AND DUP3 MSTORE PUSH1 0x20 DUP3 ADD MSTORE PUSH1 0x40 ADD SWAP1 JUMP JUMPDEST PUSH1 0x20 PUSH1 0x40 MLOAD DUP1 DUP4 SUB DUP2 PUSH0 DUP8 GAS CALL ISZERO DUP1 ISZERO PUSH2 0x15A3 JUMPI RETURNDATASIZE PUSH0 DUP1 RETURNDATACOPY RETURNDATASIZE PUSH0 REVERT JUMPDEST POP POP POP POP PUSH1 0x40 MLOAD RETURNDATASIZE PUSH1 0x1F NOT PUSH1 0x1F DUP3 ADD AND DUP3 ADD DUP1 PUSH1 0x40 MSTORE POP DUP2 ADD SWAP1 PUSH2 0x15C7 SWAP2 SWAP1 PUSH2 0x19E6 JUMP JUMPDEST POP PUSH2 0x164C JUMP JUMPDEST DUP1 MLOAD PUSH1 0x40 MLOAD PUSH4 0x40C10F19 PUSH1 0xE0 SHL DUP2 MSTORE ADDRESS PUSH1 0x4 DUP3 ADD MSTORE PUSH1 0x24 DUP2 ADD SWAP2 SWAP1 SWAP2 MSTORE PUSH32 0x0 PUSH1 0x1 PUSH1 0x1 PUSH1 0xA0 SHL SUB AND SWAP1 PUSH4 0x40C10F19 SWAP1 PUSH1 0x44 ADD PUSH0 PUSH1 0x40 MLOAD DUP1 DUP4 SUB DUP2 PUSH0 DUP8 DUP1 EXTCODESIZE ISZERO DUP1 ISZERO PUSH2 0x1635 JUMPI PUSH0 DUP1 REVERT JUMPDEST POP GAS CALL ISZERO DUP1 ISZERO PUSH2 0x1647 JUMPI RETURNDATASIZE PUSH0 DUP1 RETURNDATACOPY RETURNDATASIZE PUSH0 REVERT JUMPDEST POP POP POP POP JUMPDEST DUP2 PUSH1 0x20 ADD MLOAD PUSH1 0x1 PUSH1 0x1 PUSH1 0x40 SHL SUB AND DUP3 PUSH0 ADD MLOAD PUSH32 0x4F9FC06F5F4DC447952EA2EB4A0CDA7A5736686F29E607951E0AB1B895F97F37 DUP4 PUSH1 0x20 ADD MLOAD DUP5 PUSH1 0x40 ADD MLOAD DUP6 PUSH0 ADD MLOAD PUSH1 0x40 MLOAD PUSH2 0x169C SWAP4 SWAP3 SWAP2 SWAP1 PUSH2 0x19C2 JUMP JUMPDEST PUSH1 0x40 MLOAD DUP1 SWAP2 SUB SWAP1 LOG3 POP POP JUMP JUMPDEST PUSH2 0x2710 DUP2 GT ISZERO PUSH2 0x16CA JUMPI PUSH1 0x40 MLOAD PUSH3 0x461BCD PUSH1 0xE5 SHL DUP2 MSTORE PUSH1 0x4 ADD PUSH2 0x527 SWAP1 PUSH2 0x1DE7 JUMP JUMPDEST PUSH1 0x2 DUP1 SLOAD SWAP1 DUP3 SWAP1 SSTORE PUSH1 0x40 DUP1 MLOAD DUP3 DUP2 MSTORE PUSH1 0x20 DUP2 ADD DUP5 SWAP1 MSTORE PUSH32 0x940334A9F5C76529AD9447AC490C2073B06D880209383A3D3E4B0ECAB72A0D99 SWAP2 ADD PUSH2 0x11F3 JUMP JUMPDEST PUSH1 0x40 DUP1 MLOAD PUSH1 0x60 DUP2 ADD DUP3 MSTORE PUSH0 DUP1 DUP3 MSTORE PUSH1 0x20 DUP1 DUP4 ADD DUP3 SWAP1 MSTORE SWAP3 DUP3 ADD MSTORE DUP3 MLOAD SWAP1 SWAP2 PUSH2 0x475 SWAP2 DUP5 ADD DUP2 ADD SWAP1 DUP5 ADD PUSH2 0x1E2E JUMP JUMPDEST PUSH0 PUSH1 0x20 DUP3 DUP5 SUB SLT ISZERO PUSH2 0x1746 JUMPI PUSH0 DUP1 REVERT JUMPDEST DUP2 CALLDATALOAD PUSH1 0x1 PUSH1 0x1 PUSH1 0xE0 SHL SUB NOT DUP2 AND DUP2 EQ PUSH2 0x175D JUMPI PUSH0 DUP1 REVERT JUMPDEST SWAP4 SWAP3 POP POP POP JUMP JUMPDEST PUSH1 0x1 PUSH1 0x1 PUSH1 0xA0 SHL SUB DUP2 AND DUP2 EQ PUSH2 0x67F JUMPI PUSH0 DUP1 REVERT JUMPDEST PUSH0 DUP1 PUSH1 0x40 DUP4 DUP6 SUB SLT ISZERO PUSH2 0x1789 JUMPI PUSH0 DUP1 REVERT JUMPDEST DUP3 CALLDATALOAD SWAP2 POP PUSH1 0x20 DUP4 ADD CALLDATALOAD PUSH2 0x179B DUP2 PUSH2 0x1764 JUMP JUMPDEST DUP1 SWAP2 POP POP SWAP3 POP SWAP3 SWAP1 POP JUMP JUMPDEST PUSH0 PUSH1 0x20 DUP3 DUP5 SUB SLT ISZERO PUSH2 0x17B6 JUMPI PUSH0 DUP1 REVERT JUMPDEST DUP2 CALLDATALOAD PUSH2 0x175D DUP2 PUSH2 0x1764 JUMP JUMPDEST DUP1 CALLDATALOAD PUSH1 0x1 PUSH1 0x1 PUSH1 0x40 SHL SUB DUP2 AND DUP2 EQ PUSH2 0x17D7 JUMPI PUSH0 DUP1 REVERT JUMPDEST SWAP2 SWAP1 POP JUMP JUMPDEST PUSH0 DUP1 PUSH0 PUSH1 0x60 DUP5 DUP7 SUB SLT ISZERO PUSH2 0x17EE JUMPI PUSH0 DUP1 REVERT JUMPDEST PUSH2 0x17F7 DUP5 PUSH2 0x17C1 JUMP JUMPDEST SWAP3 POP PUSH1 0x20 DUP5 ADD CALLDATALOAD SWAP2 POP PUSH1 0x40 DUP5 ADD CALLDATALOAD PUSH2 0x180E DUP2 PUSH2 0x1764 JUMP JUMPDEST DUP1 SWAP2 POP POP SWAP3 POP SWAP3 POP SWAP3 JUMP JUMPDEST PUSH4 0x4E487B71 PUSH1 0xE0 SHL PUSH0 MSTORE PUSH1 0x41 PUSH1 0x4 MSTORE PUSH1 0x24 PUSH0 REVERT JUMPDEST PUSH1 0x40 DUP1 MLOAD SWAP1 DUP2 ADD PUSH1 0x1 PUSH1 0x1 PUSH1 0x40 SHL SUB DUP2 GT DUP3 DUP3 LT OR ISZERO PUSH2 0x184F JUMPI PUSH2 0x184F PUSH2 0x1819 JUMP JUMPDEST PUSH1 0x40 MSTORE SWAP1 JUMP JUMPDEST PUSH1 0x40 MLOAD PUSH1 0xA0 DUP2 ADD PUSH1 0x1 PUSH1 0x1 PUSH1 0x40 SHL SUB DUP2 GT DUP3 DUP3 LT OR ISZERO PUSH2 0x184F JUMPI PUSH2 0x184F PUSH2 0x1819 JUMP JUMPDEST PUSH1 0x40 MLOAD PUSH1 0x1F DUP3 ADD PUSH1 0x1F NOT AND DUP2 ADD PUSH1 0x1 PUSH1 0x1 PUSH1 0x40 SHL SUB DUP2 GT DUP3 DUP3 LT OR ISZERO PUSH2 0x189F JUMPI PUSH2 0x189F PUSH2 0x1819 JUMP JUMPDEST PUSH1 0x40 MSTORE SWAP2 SWAP1 POP JUMP JUMPDEST PUSH0 DUP3 PUSH1 0x1F DUP4 ADD SLT PUSH2 0x18B6 JUMPI PUSH0 DUP1 REVERT JUMPDEST DUP2 CALLDATALOAD PUSH1 0x1 PUSH1 0x1 PUSH1 0x40 SHL SUB DUP2 GT ISZERO PUSH2 0x18CF JUMPI PUSH2 0x18CF PUSH2 0x1819 JUMP JUMPDEST PUSH2 0x18E2 PUSH1 0x1F DUP3 ADD PUSH1 0x1F NOT AND PUSH1 0x20 ADD PUSH2 0x1877 JUMP JUMPDEST DUP2 DUP2 MSTORE DUP5 PUSH1 0x20 DUP4 DUP7 ADD ADD GT ISZERO PUSH2 0x18F6 JUMPI PUSH0 DUP1 REVERT JUMPDEST DUP2 PUSH1 0x20 DUP6 ADD PUSH1 0x20 DUP4 ADD CALLDATACOPY PUSH0 SWAP2 DUP2 ADD PUSH1 0x20 ADD SWAP2 SWAP1 SWAP2 MSTORE SWAP4 SWAP3 POP POP POP JUMP JUMPDEST PUSH0 PUSH1 0x20 DUP3 DUP5 SUB SLT ISZERO PUSH2 0x1922 JUMPI PUSH0 DUP1 REVERT JUMPDEST DUP2 CALLDATALOAD PUSH1 0x1 PUSH1 0x1 PUSH1 0x40 SHL SUB DUP2 GT ISZERO PUSH2 0x1937 JUMPI PUSH0 DUP1 REVERT JUMPDEST PUSH2 0x1943 DUP5 DUP3 DUP6 ADD PUSH2 0x18A7 JUMP JUMPDEST SWAP5 SWAP4 POP POP POP POP JUMP JUMPDEST PUSH0 PUSH1 0x20 DUP3 DUP5 SUB SLT ISZERO PUSH2 0x195B JUMPI PUSH0 DUP1 REVERT JUMPDEST POP CALLDATALOAD SWAP2 SWAP1 POP JUMP JUMPDEST PUSH0 PUSH1 0x20 DUP3 DUP5 SUB SLT ISZERO PUSH2 0x1972 JUMPI PUSH0 DUP1 REVERT JUMPDEST DUP2 CALLDATALOAD PUSH1 0x1 PUSH1 0x1 PUSH1 0x40 SHL SUB DUP2 GT ISZERO PUSH2 0x1987 JUMPI PUSH0 DUP1 REVERT JUMPDEST DUP3 ADD PUSH1 0xA0 DUP2 DUP6 SUB SLT ISZERO PUSH2 0x175D JUMPI PUSH0 DUP1 REVERT JUMPDEST PUSH0 DUP1 PUSH1 0x40 DUP4 DUP6 SUB SLT ISZERO PUSH2 0x19A9 JUMPI PUSH0 DUP1 REVERT JUMPDEST PUSH2 0x19B2 DUP4 PUSH2 0x17C1 JUMP JUMPDEST SWAP2 POP PUSH1 0x20 DUP4 ADD CALLDATALOAD PUSH2 0x179B DUP2 PUSH2 0x1764 JUMP JUMPDEST PUSH1 0x1 PUSH1 0x1 PUSH1 0xA0 SHL SUB SWAP4 DUP5 AND DUP2 MSTORE SWAP2 SWAP1 SWAP3 AND PUSH1 0x20 DUP3 ADD MSTORE PUSH1 0x40 DUP2 ADD SWAP2 SWAP1 SWAP2 MSTORE PUSH1 0x60 ADD SWAP1 JUMP JUMPDEST PUSH0 PUSH1 0x20 DUP3 DUP5 SUB SLT ISZERO PUSH2 0x19F6 JUMPI PUSH0 DUP1 REVERT JUMPDEST DUP2 MLOAD DUP1 ISZERO ISZERO DUP2 EQ PUSH2 0x175D JUMPI PUSH0 DUP1 REVERT JUMPDEST PUSH1 0x20 DUP1 DUP3 MSTORE PUSH1 0x3C SWAP1 DUP3 ADD MSTORE PUSH32 0x43726F7373436861696E466163696C697461746F723A204661696C656420746F PUSH1 0x40 DUP3 ADD MSTORE PUSH32 0x207472616E736665722047484F20746F20666163696C697461746F7200000000 PUSH1 0x60 DUP3 ADD MSTORE PUSH1 0x80 ADD SWAP1 JUMP JUMPDEST PUSH0 DUP3 PUSH2 0x1A7C JUMPI PUSH4 0x4E487B71 PUSH1 0xE0 SHL PUSH0 MSTORE PUSH1 0x12 PUSH1 0x4 MSTORE PUSH1 0x24 PUSH0 REVERT JUMPDEST POP DIV SWAP1 JUMP JUMPDEST PUSH1 0x20 DUP1 DUP3 MSTORE PUSH1 0x35 SWAP1 DUP3 ADD MSTORE PUSH32 0x43726F7373436861696E466163696C697461746F723A204F6E6C792041617665 PUSH1 0x40 DUP3 ADD MSTORE PUSH21 0x1023B7BB32B93730B731B29031B0B71031B0B63617 PUSH1 0x59 SHL PUSH1 0x60 DUP3 ADD MSTORE PUSH1 0x80 ADD SWAP1 JUMP JUMPDEST PUSH1 0x20 DUP1 DUP3 MSTORE PUSH1 0x35 SWAP1 DUP3 ADD MSTORE PUSH32 0x43726F7373436861696E466163696C697461746F723A20546172676574206368 PUSH1 0x40 DUP3 ADD MSTORE PUSH21 0x30B4B71034B9903737BA1039BAB83837B93A32B217 PUSH1 0x59 SHL PUSH1 0x60 DUP3 ADD MSTORE PUSH1 0x80 ADD SWAP1 JUMP JUMPDEST PUSH0 PUSH1 0x20 DUP3 DUP5 SUB SLT ISZERO PUSH2 0x1B3B JUMPI PUSH0 DUP1 REVERT JUMPDEST DUP2 MLOAD PUSH2 0x175D DUP2 PUSH2 0x1764 JUMP JUMPDEST PUSH0 DUP2 MLOAD DUP1 DUP5 MSTORE PUSH0 JUMPDEST DUP2 DUP2 LT ISZERO PUSH2 0x1B6A JUMPI PUSH1 0x20 DUP2 DUP6 ADD DUP2 ADD MLOAD DUP7 DUP4 ADD DUP3 ADD MSTORE ADD PUSH2 0x1B4E JUMP JUMPDEST POP PUSH0 PUSH1 0x20 DUP3 DUP7 ADD ADD MSTORE PUSH1 0x20 PUSH1 0x1F NOT PUSH1 0x1F DUP4 ADD AND DUP6 ADD ADD SWAP2 POP POP SWAP3 SWAP2 POP POP JUMP JUMPDEST PUSH0 PUSH1 0x40 PUSH1 0x1 PUSH1 0x1 PUSH1 0x40 SHL SUB DUP6 AND DUP4 MSTORE PUSH1 0x20 PUSH1 0x40 DUP2 DUP6 ADD MSTORE DUP5 MLOAD PUSH1 0xA0 PUSH1 0x40 DUP7 ADD MSTORE PUSH2 0x1BB6 PUSH1 0xE0 DUP7 ADD DUP3 PUSH2 0x1B46 JUMP JUMPDEST SWAP1 POP DUP2 DUP7 ADD MLOAD PUSH1 0x3F NOT DUP1 DUP8 DUP5 SUB ADD PUSH1 0x60 DUP9 ADD MSTORE PUSH2 0x1BD3 DUP4 DUP4 PUSH2 0x1B46 JUMP JUMPDEST PUSH1 0x40 DUP10 ADD MLOAD DUP9 DUP3 SUB DUP4 ADD PUSH1 0x80 DUP11 ADD MSTORE DUP1 MLOAD DUP1 DUP4 MSTORE SWAP1 DUP7 ADD SWAP5 POP PUSH0 SWAP4 POP SWAP1 DUP6 ADD SWAP1 JUMPDEST DUP1 DUP5 LT ISZERO PUSH2 0x1C26 JUMPI DUP5 MLOAD DUP1 MLOAD PUSH1 0x1 PUSH1 0x1 PUSH1 0xA0 SHL SUB AND DUP4 MSTORE DUP7 ADD MLOAD DUP7 DUP4 ADD MSTORE SWAP4 DUP6 ADD SWAP4 PUSH1 0x1 SWAP4 SWAP1 SWAP4 ADD SWAP3 SWAP1 DUP7 ADD SWAP1 PUSH2 0x1BF4 JUMP JUMPDEST POP PUSH1 0x60 DUP10 ADD MLOAD PUSH1 0x1 PUSH1 0x1 PUSH1 0xA0 SHL SUB AND PUSH1 0xA0 DUP10 ADD MSTORE PUSH1 0x80 DUP10 ADD MLOAD DUP9 DUP3 SUB DUP4 ADD PUSH1 0xC0 DUP11 ADD MSTORE SWAP6 POP PUSH2 0x1C55 DUP2 DUP8 PUSH2 0x1B46 JUMP JUMPDEST SWAP11 SWAP10 POP POP POP POP POP POP POP POP POP POP JUMP JUMPDEST PUSH0 PUSH1 0x20 DUP3 DUP5 SUB SLT ISZERO PUSH2 0x1C73 JUMPI PUSH0 DUP1 REVERT JUMPDEST POP MLOAD SWAP2 SWAP1 POP JUMP JUMPDEST DUP1 DUP3 ADD DUP1 DUP3 GT ISZERO PUSH2 0x475 JUMPI PUSH4 0x4E487B71 PUSH1 0xE0 SHL PUSH0 MSTORE PUSH1 0x11 PUSH1 0x4 MSTORE PUSH1 0x24 PUSH0 REVERT JUMPDEST PUSH0 DUP3 PUSH1 0x1F DUP4 ADD SLT PUSH2 0x1CA8 JUMPI PUSH0 DUP1 REVERT JUMPDEST DUP2 CALLDATALOAD PUSH1 0x20 PUSH1 0x1 PUSH1 0x1 PUSH1 0x40 SHL SUB DUP3 GT ISZERO PUSH2 0x1CC3 JUMPI PUSH2 0x1CC3 PUSH2 0x1819 JUMP JUMPDEST PUSH2 0x1CD1 DUP2 DUP4 PUSH1 0x5 SHL ADD PUSH2 0x1877 JUMP JUMPDEST DUP3 DUP2 MSTORE PUSH1 0x6 SWAP3 SWAP1 SWAP3 SHL DUP5 ADD DUP2 ADD SWAP2 DUP2 DUP2 ADD SWAP1 DUP7 DUP5 GT ISZERO PUSH2 0x1CEF JUMPI PUSH0 DUP1 REVERT JUMPDEST DUP3 DUP7 ADD JUMPDEST DUP5 DUP2 LT ISZERO PUSH2 0x1D35 JUMPI PUSH1 0x40 DUP2 DUP10 SUB SLT ISZERO PUSH2 0x1D0A JUMPI PUSH0 DUP1 REVERT JUMPDEST PUSH2 0x1D12 PUSH2 0x182D JUMP JUMPDEST DUP2 CALLDATALOAD PUSH2 0x1D1D DUP2 PUSH2 0x1764 JUMP JUMPDEST DUP2 MSTORE DUP2 DUP6 ADD CALLDATALOAD DUP6 DUP3 ADD MSTORE DUP4 MSTORE SWAP2 DUP4 ADD SWAP2 PUSH1 0x40 ADD PUSH2 0x1CF3 JUMP JUMPDEST POP SWAP7 SWAP6 POP POP POP POP POP POP JUMP JUMPDEST PUSH0 PUSH1 0xA0 DUP3 CALLDATASIZE SUB SLT ISZERO PUSH2 0x1D50 JUMPI PUSH0 DUP1 REVERT JUMPDEST PUSH2 0x1D58 PUSH2 0x1855 JUMP JUMPDEST DUP3 CALLDATALOAD DUP2 MSTORE PUSH2 0x1D68 PUSH1 0x20 DUP5 ADD PUSH2 0x17C1 JUMP JUMPDEST PUSH1 0x20 DUP3 ADD MSTORE PUSH1 0x40 DUP4 ADD CALLDATALOAD PUSH1 0x1 PUSH1 0x1 PUSH1 0x40 SHL SUB DUP1 DUP3 GT ISZERO PUSH2 0x1D86 JUMPI PUSH0 DUP1 REVERT JUMPDEST PUSH2 0x1D92 CALLDATASIZE DUP4 DUP8 ADD PUSH2 0x18A7 JUMP JUMPDEST PUSH1 0x40 DUP5 ADD MSTORE PUSH1 0x60 DUP6 ADD CALLDATALOAD SWAP2 POP DUP1 DUP3 GT ISZERO PUSH2 0x1DAA JUMPI PUSH0 DUP1 REVERT JUMPDEST PUSH2 0x1DB6 CALLDATASIZE DUP4 DUP8 ADD PUSH2 0x18A7 JUMP JUMPDEST PUSH1 0x60 DUP5 ADD MSTORE PUSH1 0x80 DUP6 ADD CALLDATALOAD SWAP2 POP DUP1 DUP3 GT ISZERO PUSH2 0x1DCE JUMPI PUSH0 DUP1 REVERT JUMPDEST POP PUSH2 0x1DDB CALLDATASIZE DUP3 DUP7 ADD PUSH2 0x1C99 JUMP JUMPDEST PUSH1 0x80 DUP4 ADD MSTORE POP SWAP3 SWAP2 POP POP JUMP JUMPDEST PUSH1 0x20 DUP1 DUP3 MSTORE PUSH1 0x27 SWAP1 DUP3 ADD MSTORE PUSH32 0x43726F7373436861696E466163696C697461746F723A20466565206F7574206F PUSH1 0x40 DUP3 ADD MSTORE PUSH7 0x662072616E6765 PUSH1 0xC8 SHL PUSH1 0x60 DUP3 ADD MSTORE PUSH1 0x80 ADD SWAP1 JUMP JUMPDEST PUSH0 PUSH1 0x60 DUP3 DUP5 SUB SLT ISZERO PUSH2 0x1E3E JUMPI PUSH0 DUP1 REVERT JUMPDEST PUSH1 0x40 MLOAD PUSH1 0x60 DUP2 ADD DUP2 DUP2 LT PUSH1 0x1 PUSH1 0x1 PUSH1 0x40 SHL SUB DUP3 GT OR ISZERO PUSH2 0x1E60 JUMPI PUSH2 0x1E60 PUSH2 0x1819 JUMP JUMPDEST PUSH1 0x40 MSTORE DUP3 MLOAD DUP2 MSTORE PUSH1 0x20 DUP4 ADD MLOAD PUSH2 0x1E75 DUP2 PUSH2 0x1764 JUMP JUMPDEST PUSH1 0x20 DUP3 ADD MSTORE PUSH1 0x40 DUP4 ADD MLOAD PUSH2 0x1E88 DUP2 PUSH2 0x1764 JUMP JUMPDEST PUSH1 0x40 DUP3 ADD MSTORE SWAP4 SWAP3 POP POP POP JUMP INVALID LOG2 PUSH5 0x6970667358 0x22 SLT KECCAK256 BLOCKHASH SMOD SWAP10 PUSH25 0xEB2A5DFE176616D303F3581F9FAE8F34171CAF6403FA28011D PUSH30 0xB91964736F6C6343000816003343726F7373436861696E466163696C6974 PUSH2 0x746F PUSH19 0x3A20466565206F7574206F0000000000000000 "
				},
				"gasEstimates": {
					"creation": {
						"codeDepositCost": "1576400",
						"executionCost": "infinite",
						"totalCost": "infinite"
					},
					"external": {
						"GHO_TOKEN()": "infinite",
						"MAX_FEE()": "327",
						"USDC_TOKEN()": "infinite",
						"approveCrossChainReceiver(uint64,address)": "26965",
						"bytesToAddress(bytes)": "infinite",
						"calcMintFee(uint256)": "infinite",
						"calcTransferFee(uint256)": "infinite",
						"ccipReceive((bytes32,uint64,bytes,bytes,(address,uint256)[]))": "infinite",
						"distributeFeesToTreasury()": "infinite",
						"getAaveGovernance()": "2440",
						"getGhoTreasury()": "2417",
						"getMintFee()": "2358",
						"getRouter()": "infinite",
						"getRouterFee(uint64,uint256,address)": "infinite",
						"getTransferFee()": "2336",
						"mintGHOForUSDC(uint256,address)": "infinite",
						"redeemUSDCForGHO(uint256,address)": "infinite",
						"sendGHOCrossChain(uint64,uint256,address)": "infinite",
						"supportsInterface(bytes4)": "447",
						"updateAaveGovernance(address)": "infinite",
						"updateGhoTreasury(address)": "infinite",
						"updateMintFee(uint256)": "28090",
						"updateTransferFee(uint256)": "28002"
					},
					"internal": {
						"_buildCCIPMessage(address,struct CrossChainGHOTransfer memory,address)": "infinite",
						"_ccipReceive(struct Client.Any2EVMMessage memory)": "infinite",
						"_updateAaveGovernance(address)": "infinite",
						"_updateGhoTreasury(address)": "25820",
						"_updateMintFee(uint256)": "infinite",
						"_updateTransferFee(uint256)": "infinite",
						"ghoBalance()": "infinite"
					}
				},
				"methodIdentifiers": {
					"GHO_TOKEN()": "b1c660f7",
					"MAX_FEE()": "bc063e1a",
					"USDC_TOKEN()": "fa569274",
					"approveCrossChainReceiver(uint64,address)": "de4c8817",
					"bytesToAddress(bytes)": "42526e4e",
					"calcMintFee(uint256)": "80f41e76",
					"calcTransferFee(uint256)": "a0922e15",
					"ccipReceive((bytes32,uint64,bytes,bytes,(address,uint256)[]))": "85572ffb",
					"distributeFeesToTreasury()": "dc49a07b",
					"getAaveGovernance()": "e6bf9d82",
					"getGhoTreasury()": "e28178cc",
					"getMintFee()": "7a5caab3",
					"getRouter()": "b0f479a1",
					"getRouterFee(uint64,uint256,address)": "38616810",
					"getTransferFee()": "9a17d8c1",
					"mintGHOForUSDC(uint256,address)": "788a19c7",
					"redeemUSDCForGHO(uint256,address)": "0d455222",
					"sendGHOCrossChain(uint64,uint256,address)": "d09f3360",
					"supportsInterface(bytes4)": "01ffc9a7",
					"updateAaveGovernance(address)": "2e8d0354",
					"updateGhoTreasury(address)": "1fde40bb",
					"updateMintFee(uint256)": "84017e52",
					"updateTransferFee(uint256)": "8577a6d5"
				}
			},
			"storageLayout": {
				"storage": [
					{
						"astId": 659,
						"contract": "src/CrossChainFacilitator.sol:CrossChainFacilitator",
						"label": "_ghoTreasury",
						"offset": 0,
						"slot": "0",
						"type": "t_address"
					},
					{
						"astId": 661,
						"contract": "src/CrossChainFacilitator.sol:CrossChainFacilitator",
						"label": "_mintFee",
						"offset": 0,
						"slot": "1",
						"type": "t_uint256"
					},
					{
						"astId": 663,
						"contract": "src/CrossChainFacilitator.sol:CrossChainFacilitator",
						"label": "_transferFee",
						"offset": 0,
						"slot": "2",
						"type": "t_uint256"
					},
					{
						"astId": 665,
						"contract": "src/CrossChainFacilitator.sol:CrossChainFacilitator",
						"label": "_aaveGovernance",
						"offset": 0,
						"slot": "3",
						"type": "t_address"
					},
					{
						"astId": 667,
						"contract": "src/CrossChainFacilitator.sol:CrossChainFacilitator",
						"label": "_ghoTreasuryFees",
						"offset": 0,
						"slot": "4",
						"type": "t_uint256"
					},
					{
						"astId": 671,
						"contract": "src/CrossChainFacilitator.sol:CrossChainFacilitator",
						"label": "approvedCrossChainReceivers",
						"offset": 0,
						"slot": "5",
						"type": "t_mapping(t_uint64,t_address)"
					}
				],
				"types": {
					"t_address": {
						"encoding": "inplace",
						"label": "address",
						"numberOfBytes": "20"
					},
					"t_mapping(t_uint64,t_address)": {
						"encoding": "mapping",
						"key": "t_uint64",
						"label": "mapping(uint64 => address)",
						"numberOfBytes": "32",
						"value": "t_address"
					},
					"t_uint256": {
						"encoding": "inplace",
						"label": "uint256",
						"numberOfBytes": "32"
					},
					"t_uint64": {
						"encoding": "inplace",
						"label": "uint64",
						"numberOfBytes": "8"
					}
				}
			},
			"userdoc": {
				"kind": "user",
				"methods": {
					"GHO_TOKEN()": {
						"notice": "Returns the address of the GHO token contract"
					},
					"MAX_FEE()": {
						"notice": "Returns the maximum value the fee can be set to"
					},
					"ccipReceive((bytes32,uint64,bytes,bytes,(address,uint256)[]))": {
						"notice": "Called by the Router to deliver a message. If this reverts, any token transfers also revert. The message will move to a FAILED state and become available for manual execution."
					},
					"distributeFeesToTreasury()": {
						"notice": "Distribute fees to the GhoTreasury"
					},
					"getGhoTreasury()": {
						"notice": "Returns the address of the Gho Treasury"
					},
					"getMintFee()": {
						"notice": "Returns the percentage of each mint taken as a fee"
					},
					"getRouter()": {
						"notice": "Return the current router"
					},
					"supportsInterface(bytes4)": {
						"notice": "IERC165 supports an interfaceId"
					},
					"updateGhoTreasury(address)": {
						"notice": "Updates the address of the Gho Treasury"
					},
					"updateMintFee(uint256)": {
						"notice": "Updates the percentage fee. It is the percentage of the minted amount that needs to be repaid."
					}
				},
				"version": 1
			}
		}
	}
}